{"contracts/MicroloanSystem.sol":{"MicroloanSystem":{"abi":[{"inputs":[{"internalType":"address","name":"initialOwner","type":"address"},{"internalType":"address","name":"_loanTokenAddress","type":"address"},{"internalType":"address","name":"_feeCollector","type":"address"},{"internalType":"uint256","name":"_platformFeePercent","type":"uint256"}],"stateMutability":"nonpayable","type":"constructor"},{"anonymous":false,"inputs":[{"indexed":true,"internalType":"address","name":"borrower","type":"address"},{"indexed":false,"internalType":"uint256","name":"newScore","type":"uint256"}],"name":"CreditScoreUpdated","type":"event"},{"anonymous":false,"inputs":[{"indexed":true,"internalType":"address","name":"lender","type":"address"},{"indexed":false,"internalType":"string","name":"name","type":"string"}],"name":"LenderAdded","type":"event"},{"anonymous":false,"inputs":[{"indexed":true,"internalType":"address","name":"lender","type":"address"}],"name":"LenderRemoved","type":"event"},{"anonymous":false,"inputs":[{"indexed":true,"internalType":"uint256","name":"loanId","type":"uint256"},{"indexed":true,"internalType":"address","name":"lender","type":"address"}],"name":"LoanApproved","type":"event"},{"anonymous":false,"inputs":[{"indexed":true,"internalType":"uint256","name":"loanId","type":"uint256"}],"name":"LoanDefaulted","type":"event"},{"anonymous":false,"inputs":[{"indexed":true,"internalType":"uint256","name":"loanId","type":"uint256"}],"name":"LoanFullyRepaid","type":"event"},{"anonymous":false,"inputs":[{"indexed":true,"internalType":"uint256","name":"loanId","type":"uint256"},{"indexed":false,"internalType":"string","name":"reason","type":"string"}],"name":"LoanRejected","type":"event"},{"anonymous":false,"inputs":[{"indexed":true,"internalType":"uint256","name":"loanId","type":"uint256"},{"indexed":true,"internalType":"address","name":"payer","type":"address"},{"indexed":false,"internalType":"uint256","name":"amount","type":"uint256"}],"name":"LoanRepayment","type":"event"},{"anonymous":false,"inputs":[{"indexed":true,"internalType":"uint256","name":"loanId","type":"uint256"},{"indexed":true,"internalType":"address","name":"borrower","type":"address"},{"indexed":false,"internalType":"uint256","name":"amount","type":"uint256"}],"name":"LoanRequested","type":"event"},{"anonymous":false,"inputs":[{"indexed":true,"internalType":"address","name":"previousOwner","type":"address"},{"indexed":true,"internalType":"address","name":"newOwner","type":"address"}],"name":"OwnershipTransferred","type":"event"},{"inputs":[{"internalType":"address","name":"_lenderAddress","type":"address"},{"internalType":"string","name":"_name","type":"string"},{"internalType":"uint256","name":"_maxLoanAmount","type":"uint256"},{"internalType":"uint256","name":"_baseInterestRate","type":"uint256"}],"name":"addLender","outputs":[],"stateMutability":"nonpayable","type":"function"},{"inputs":[{"internalType":"uint256","name":"_loanId","type":"uint256"}],"name":"approveLoan","outputs":[],"stateMutability":"nonpayable","type":"function"},{"inputs":[{"internalType":"address","name":"","type":"address"}],"name":"approvedLenders","outputs":[{"internalType":"bool","name":"","type":"bool"}],"stateMutability":"view","type":"function"},{"inputs":[{"internalType":"address","name":"","type":"address"},{"internalType":"uint256","name":"","type":"uint256"}],"name":"borrowerLoans","outputs":[{"internalType":"uint256","name":"","type":"uint256"}],"stateMutability":"view","type":"function"},{"inputs":[{"internalType":"address","name":"","type":"address"}],"name":"borrowerProfiles","outputs":[{"internalType":"uint256","name":"totalBorrowed","type":"uint256"},{"internalType":"uint256","name":"totalRepaid","type":"uint256"},{"internalType":"uint256","name":"loansCompleted","type":"uint256"},{"internalType":"uint256","name":"loansDefaulted","type":"uint256"},{"internalType":"uint256","name":"creditScore","type":"uint256"},{"internalType":"uint256","name":"lastLoanId","type":"uint256"}],"stateMutability":"view","type":"function"},{"inputs":[{"internalType":"address","name":"_lenderAddress","type":"address"},{"internalType":"address","name":"_borrower","type":"address"},{"internalType":"uint256","name":"_amount","type":"uint256"},{"internalType":"uint256","name":"_termDays","type":"uint256"}],"name":"calculateInterestRate","outputs":[{"internalType":"uint256","name":"","type":"uint256"}],"stateMutability":"view","type":"function"},{"inputs":[{"components":[{"internalType":"uint256","name":"id","type":"uint256"},{"internalType":"address","name":"borrower","type":"address"},{"internalType":"uint256","name":"amount","type":"uint256"},{"internalType":"uint256","name":"interestRate","type":"uint256"},{"internalType":"uint256","name":"termDays","type":"uint256"},{"internalType":"uint256","name":"issuedTime","type":"uint256"},{"internalType":"uint256","name":"dueTime","type":"uint256"},{"internalType":"uint256","name":"repaidAmount","type":"uint256"},{"internalType":"enum MicroloanSystem.LoanStatus","name":"status","type":"uint8"},{"internalType":"bool","name":"isGroupLoan","type":"bool"},{"internalType":"address","name":"groupAddress","type":"address"},{"internalType":"string","name":"purpose","type":"string"}],"internalType":"struct MicroloanSystem.Loan","name":"_loan","type":"tuple"}],"name":"calculateTotalDue","outputs":[{"internalType":"uint256","name":"","type":"uint256"}],"stateMutability":"pure","type":"function"},{"inputs":[{"internalType":"uint256","name":"_amount","type":"uint256"}],"name":"depositLenderFunds","outputs":[],"stateMutability":"nonpayable","type":"function"},{"inputs":[],"name":"feeCollector","outputs":[{"internalType":"address","name":"","type":"address"}],"stateMutability":"view","type":"function"},{"inputs":[{"internalType":"address","name":"_borrower","type":"address"}],"name":"getBorrowerLoans","outputs":[{"internalType":"uint256[]","name":"","type":"uint256[]"}],"stateMutability":"view","type":"function"},{"inputs":[{"internalType":"uint256","name":"_loanId","type":"uint256"}],"name":"getLoanDetails","outputs":[{"internalType":"address","name":"borrower","type":"address"},{"internalType":"uint256","name":"amount","type":"uint256"},{"internalType":"uint256","name":"interestRate","type":"uint256"},{"internalType":"uint256","name":"termDays","type":"uint256"},{"internalType":"uint256","name":"issuedTime","type":"uint256"},{"internalType":"uint256","name":"dueTime","type":"uint256"},{"internalType":"uint256","name":"repaidAmount","type":"uint256"},{"internalType":"enum MicroloanSystem.LoanStatus","name":"status","type":"uint8"},{"internalType":"bool","name":"isGroupLoan","type":"bool"},{"internalType":"address","name":"groupAddress","type":"address"},{"internalType":"string","name":"purpose","type":"string"}],"stateMutability":"view","type":"function"},{"inputs":[{"internalType":"uint256","name":"_loanId","type":"uint256"}],"name":"getLoanPayments","outputs":[{"internalType":"uint256[]","name":"amounts","type":"uint256[]"},{"internalType":"uint256[]","name":"timestamps","type":"uint256[]"},{"internalType":"address[]","name":"payers","type":"address[]"}],"stateMutability":"view","type":"function"},{"inputs":[{"internalType":"address","name":"_borrower","type":"address"}],"name":"hasBorrowerDefaulted","outputs":[{"internalType":"bool","name":"","type":"bool"}],"stateMutability":"view","type":"function"},{"inputs":[{"internalType":"uint256","name":"","type":"uint256"}],"name":"lenderAddresses","outputs":[{"internalType":"address","name":"","type":"address"}],"stateMutability":"view","type":"function"},{"inputs":[{"internalType":"address","name":"","type":"address"}],"name":"lenders","outputs":[{"internalType":"address","name":"lenderAddress","type":"address"},{"internalType":"string","name":"name","type":"string"},{"internalType":"bool","name":"isActive","type":"bool"},{"internalType":"uint256","name":"totalFundsAvailable","type":"uint256"},{"internalType":"uint256","name":"totalLoaned","type":"uint256"},{"internalType":"uint256","name":"totalRepaid","type":"uint256"},{"internalType":"uint256","name":"maxLoanAmount","type":"uint256"},{"internalType":"uint256","name":"baseInterestRate","type":"uint256"}],"stateMutability":"view","type":"function"},{"inputs":[{"internalType":"uint256","name":"","type":"uint256"},{"internalType":"uint256","name":"","type":"uint256"}],"name":"loanPayments","outputs":[{"internalType":"uint256","name":"loanId","type":"uint256"},{"internalType":"uint256","name":"amount","type":"uint256"},{"internalType":"uint256","name":"timestamp","type":"uint256"},{"internalType":"address","name":"payer","type":"address"}],"stateMutability":"view","type":"function"},{"inputs":[],"name":"loanToken","outputs":[{"internalType":"contract IERC20","name":"","type":"address"}],"stateMutability":"view","type":"function"},{"inputs":[{"internalType":"uint256","name":"","type":"uint256"}],"name":"loans","outputs":[{"internalType":"uint256","name":"id","type":"uint256"},{"internalType":"address","name":"borrower","type":"address"},{"internalType":"uint256","name":"amount","type":"uint256"},{"internalType":"uint256","name":"interestRate","type":"uint256"},{"internalType":"uint256","name":"termDays","type":"uint256"},{"internalType":"uint256","name":"issuedTime","type":"uint256"},{"internalType":"uint256","name":"dueTime","type":"uint256"},{"internalType":"uint256","name":"repaidAmount","type":"uint256"},{"internalType":"enum MicroloanSystem.LoanStatus","name":"status","type":"uint8"},{"internalType":"bool","name":"isGroupLoan","type":"bool"},{"internalType":"address","name":"groupAddress","type":"address"},{"internalType":"string","name":"purpose","type":"string"}],"stateMutability":"view","type":"function"},{"inputs":[{"internalType":"uint256","name":"_loanId","type":"uint256"}],"name":"markAsDefaulted","outputs":[],"stateMutability":"nonpayable","type":"function"},{"inputs":[],"name":"maxLoanAmount","outputs":[{"internalType":"uint256","name":"","type":"uint256"}],"stateMutability":"view","type":"function"},{"inputs":[],"name":"maxTermDays","outputs":[{"internalType":"uint256","name":"","type":"uint256"}],"stateMutability":"view","type":"function"},{"inputs":[],"name":"minLoanAmount","outputs":[{"internalType":"uint256","name":"","type":"uint256"}],"stateMutability":"view","type":"function"},{"inputs":[],"name":"minTermDays","outputs":[{"internalType":"uint256","name":"","type":"uint256"}],"stateMutability":"view","type":"function"},{"inputs":[],"name":"nextLoanId","outputs":[{"internalType":"uint256","name":"","type":"uint256"}],"stateMutability":"view","type":"function"},{"inputs":[],"name":"owner","outputs":[{"internalType":"address","name":"","type":"address"}],"stateMutability":"view","type":"function"},{"inputs":[],"name":"platformFeePercent","outputs":[{"internalType":"uint256","name":"","type":"uint256"}],"stateMutability":"view","type":"function"},{"inputs":[{"internalType":"address","name":"_tokenAddress","type":"address"},{"internalType":"uint256","name":"_amount","type":"uint256"}],"name":"recoverTokens","outputs":[],"stateMutability":"nonpayable","type":"function"},{"inputs":[{"internalType":"uint256","name":"_loanId","type":"uint256"},{"internalType":"string","name":"_reason","type":"string"}],"name":"rejectLoan","outputs":[],"stateMutability":"nonpayable","type":"function"},{"inputs":[{"internalType":"address","name":"_lenderAddress","type":"address"}],"name":"removeLender","outputs":[],"stateMutability":"nonpayable","type":"function"},{"inputs":[],"name":"renounceOwnership","outputs":[],"stateMutability":"nonpayable","type":"function"},{"inputs":[{"internalType":"uint256","name":"_loanId","type":"uint256"},{"internalType":"uint256","name":"_amount","type":"uint256"}],"name":"repayLoan","outputs":[],"stateMutability":"nonpayable","type":"function"},{"inputs":[{"internalType":"address","name":"_groupAddress","type":"address"},{"internalType":"uint256","name":"_amount","type":"uint256"},{"internalType":"uint256","name":"_termDays","type":"uint256"},{"internalType":"string","name":"_purpose","type":"string"}],"name":"requestGroupLoan","outputs":[{"internalType":"uint256","name":"","type":"uint256"}],"stateMutability":"nonpayable","type":"function"},{"inputs":[{"internalType":"address","name":"_lenderAddress","type":"address"},{"internalType":"uint256","name":"_amount","type":"uint256"},{"internalType":"uint256","name":"_termDays","type":"uint256"},{"internalType":"string","name":"_purpose","type":"string"}],"name":"requestLoan","outputs":[{"internalType":"uint256","name":"","type":"uint256"}],"stateMutability":"nonpayable","type":"function"},{"inputs":[{"internalType":"address","name":"newOwner","type":"address"}],"name":"transferOwnership","outputs":[],"stateMutability":"nonpayable","type":"function"},{"inputs":[{"internalType":"address","name":"_newFeeCollector","type":"address"}],"name":"updateFeeCollector","outputs":[],"stateMutability":"nonpayable","type":"function"},{"inputs":[{"internalType":"uint256","name":"_minLoanAmount","type":"uint256"},{"internalType":"uint256","name":"_maxLoanAmount","type":"uint256"},{"internalType":"uint256","name":"_minTermDays","type":"uint256"},{"internalType":"uint256","name":"_maxTermDays","type":"uint256"},{"internalType":"uint256","name":"_platformFeePercent","type":"uint256"}],"name":"updateSystemParameters","outputs":[],"stateMutability":"nonpayable","type":"function"},{"inputs":[{"internalType":"uint256","name":"_amount","type":"uint256"}],"name":"withdrawLenderFunds","outputs":[],"stateMutability":"nonpayable","type":"function"}],"evm":{"bytecode":{"linkReferences":{},"object":"60806040523480156200001157600080fd5b50604051620035003803806200350083398101604081905262000034916200011e565b6200003f33620000b1565b600180556200004e84620000b1565b600280546001600160a01b039485166001600160a01b0319918216179091556010805493909416921691909117909155600f5550678ac7230489e80000600b55683635c9adc5dea00000600c556007600d5561016d600e55600160035562000170565b600080546001600160a01b038381166001600160a01b0319831681178455604051919092169283917f8be0079c531659141344cd1fd0a4f28419497f9722a3daafe3b4186f6b6457e09190a35050565b80516001600160a01b03811681146200011957600080fd5b919050565b600080600080608085870312156200013557600080fd5b620001408562000101565b9350620001506020860162000101565b9250620001606040860162000101565b6060959095015193969295505050565b61338080620001806000396000f3fe608060405234801561001057600080fd5b50600436106102275760003560e01c80638c639a8511610130578063c67a8cd3116100b8578063e1ec3c681161007c578063e1ec3c6814610550578063e3ed19021461057b578063eee8b7ff1461058e578063f2fde38b146105ae578063f504f908146105c157600080fd5b8063c67a8cd3146104ec578063c9a10dad146104ff578063ce47311414610512578063d2c35ce814610534578063e06a91381461054757600080fd5b8063aadc1ac1116100ff578063aadc1ac11461045e578063af3d3e9814610471578063afa85de6146104ad578063b87041d4146104d0578063c415b95c146104d957600080fd5b80638c639a851461041e5780638da5cb5b146104275780638fe135c714610438578063a87430221461044b57600080fd5b806351a560dc116101b3578063715018a611610182578063715018a6146103de57806372f94365146103e657806384019eed146103ef57806387c51459146104025780638a700b531461040b57600080fd5b806351a560dc1461031e57806352ee8f811461033157806366877b8d146103445780636949000c1461036e57600080fd5b8063256ed143116101fa578063256ed143146102b557806328fd10d7146102be5780632d6963ce146102e557806335176b40146102f85780634f10e9f11461030b57600080fd5b8063069c9fae1461022c57806306d378171461024157806310b0e5f2146102715780631112f94c14610294575b600080fd5b61023f61023a3660046129ff565b6105d4565b005b600254610254906001600160a01b031681565b6040516001600160a01b0390911681526020015b60405180910390f35b61028461027f366004612a29565b610673565b6040519015158152602001610268565b6102a76102a2366004612a44565b610758565b604051908152602001610268565b6102a7600e5481565b6102d16102cc366004612a29565b610821565b604051610268989796959493929190612acc565b6102546102f3366004612b24565b6108fb565b6102a7610306366004612c32565b610925565b6102a7610319366004612d31565b610962565b61023f61032c366004612b24565b610c44565b61023f61033f366004612d92565b610da1565b610357610352366004612b24565b610ee3565b6040516102689b9a99989796959493929190612e11565b6103b161037c366004612a29565b600760205260009081526040902080546001820154600283015460038401546004850154600590950154939492939192909186565b604080519687526020870195909552938501929092526060840152608083015260a082015260c001610268565b61023f6110bf565b6102a7600c5481565b61023f6103fd366004612a29565b6110d3565b6102a760035481565b61023f610419366004612e8a565b61119c565b6102a7600f5481565b6000546001600160a01b0316610254565b61023f610446366004612b24565b61181a565b61023f610459366004612b24565b611963565b61023f61046c366004612b24565b611ab7565b61048461047f366004612e8a565b611dc1565b604080519485526020850193909352918301526001600160a01b03166060820152608001610268565b6102846104bb366004612a29565b60086020526000908152604090205460ff1681565b6102a7600d5481565b601054610254906001600160a01b031681565b61023f6104fa366004612eac565b611e10565b61023f61050d366004612f0a565b611fe0565b610525610520366004612b24565b611fff565b60405161026893929190612f80565b61023f610542366004612a29565b612256565b6102a7600b5481565b61056361055e366004612b24565b612280565b6040516102689c9b9a99989796959493929190612ff2565b6102a76105893660046129ff565b612381565b6105a161059c366004612a29565b6123b2565b6040516102689190613073565b61023f6105bc366004612a29565b61241e565b6102a76105cf366004612d31565b612494565b6105dc612825565b816001600160a01b031663a9059cbb6105fd6000546001600160a01b031690565b6040516001600160e01b031960e084901b1681526001600160a01b039091166004820152602481018490526044016020604051808303816000875af115801561064a573d6000803e3d6000fd5b505050506040513d601f19601f8201168201806040525081019061066e9190613086565b505050565b6001600160a01b0381166000908152600660209081526040808320805482518185028101850190935280835284938301828280156106d057602002820191906000526020600020905b8154815260200190600101908083116106bc575b5050505050905060005b815181101561074e576003600460008484815181106106fb576106fb6130a3565b60209081029190910181015182528101919091526040016000206008015460ff16600481111561072d5761072d612dd9565b0361073c575060019392505050565b80610746816130cf565b9150506106da565b5060009392505050565b6001600160a01b038085166000908152600960209081526040808320600790810154948816845290915281206004015490919080156107d35761032081106107b85760646107a78360506130e8565b6107b19190613105565b91506107e1565b61028a81106107ce5760646107a783605a6130e8565b6107e1565b6107de60c883613127565b91505b681b1ae4d6e2ef500000851115610800576107fd606483613127565b91505b60b484111561081757610814609683613127565b91505b5095945050505050565b600960205260009081526040902080546001820180546001600160a01b03909216929161084d9061313a565b80601f01602080910402602001604051908101604052809291908181526020018280546108799061313a565b80156108c65780601f1061089b576101008083540402835291602001916108c6565b820191906000526020600020905b8154815290600101906020018083116108a957829003601f168201915b50505060028401546003850154600486015460058701546006880154600790980154969760ff90941696929550909350919088565b600a818154811061090b57600080fd5b6000918252602090912001546001600160a01b0316905081565b6000806127108360600151846040015161093f91906130e8565b6109499190613105565b905080836040015161095b9190613127565b9392505050565b6000600b5484101580156109785750600c548411155b6109bf5760405162461bcd60e51b8152602060048201526013602482015272125b9d985b1a59081b1bd85b88185b5bdd5b9d606a1b60448201526064015b60405180910390fd5b600d5483101580156109d35750600e548311155b610a155760405162461bcd60e51b8152602060048201526013602482015272092dcecc2d8d2c840e8cae4da40d8cadccee8d606b1b60448201526064016109b6565b610a1e33610673565b15610a3b5760405162461bcd60e51b81526004016109b690613174565b6003805460009182610a4c836130cf565b9091555060408051610180810182528281523360208201529081018790526101f460608201819052608082018790524260a083015291925060c08101610a9587620151806130e8565b610a9f9042613127565b81526020016000815260200160006004811115610abe57610abe612dd9565b8152600160208083018290526001600160a01b038b811660408086019190915260609485018a90526000888152600480855290829020875181559387015184860180546001600160a01b0319169190941617909255850151600283015592840151600382015560808401518184015560a0840151600582015560c0840151600682015560e0840151600782015561010084015160088201805492949193909260ff1916918490811115610b7357610b73612dd9565b02179055506101208201516008820180546101408501516001600160a01b0316620100000262010000600160b01b03199315156101000293909316610100600160b01b0319909116179190911790556101608201516009820190610bd79082613205565b5050336000818152600660209081526040808320805460018101825590845291909220018590555190915083907f97e04be2fd6414727fe9d0400464568f4384aa8b06264119565ca8f6cc2a4b7a90610c33908a815260200190565b60405180910390a361081782611ab7565b610c4c61287f565b3360009081526008602052604090205460ff16610c7b5760405162461bcd60e51b81526004016109b6906132c5565b33600090815260096020526040902060030154811115610cdd5760405162461bcd60e51b815260206004820152601c60248201527f496e73756666696369656e7420617661696c61626c652066756e64730000000060448201526064016109b6565b3360009081526009602052604081206003018054839290610cff9084906132f5565b909155505060025460405163a9059cbb60e01b8152336004820152602481018390526001600160a01b039091169063a9059cbb906044016020604051808303816000875af1158015610d55573d6000803e3d6000fd5b505050506040513d601f19601f82011682018060405250810190610d799190613086565b610d955760405162461bcd60e51b81526004016109b690613308565b610d9e60018055565b50565b60008281526004602052604090206008810154610100900460ff16610e37576000546001600160a01b0316331480610deb575060088101546201000090046001600160a01b031633145b610e375760405162461bcd60e51b815260206004820152601860248201527f4e6f7420617574686f72697a656420746f2072656a656374000000000000000060448201526064016109b6565b6000600882015460ff166004811115610e5257610e52612dd9565b14610e955760405162461bcd60e51b81526020600482015260136024820152724c6f616e206973206e6f742070656e64696e6760681b60448201526064016109b6565b60088101805460ff1916600417905560405183907f58a92b8125e50b6535529020ae640e062970ac4391913298bc2da5bf3e818e7090610ed6908590613337565b60405180910390a2505050565b60008181526004602081815260408084208151610180810183528154815260018201546001600160a01b0316938101939093526002810154918301919091526003810154606083810191909152818401546080840152600582015460a0840152600682015460c0840152600782015460e0840152600882015485948594859485948594859485948594859493859361010084019160ff1690811115610f8a57610f8a612dd9565b6004811115610f9b57610f9b612dd9565b81526008820154610100810460ff16151560208301526201000090046001600160a01b03166040820152600982018054606090920191610fda9061313a565b80601f01602080910402602001604051908101604052809291908181526020018280546110069061313a565b80156110535780601f1061102857610100808354040283529160200191611053565b820191906000526020600020905b81548152906001019060200180831161103657829003601f168201915b505050505081525050905080602001518160400151826060015183608001518460a001518560c001518660e001518761010001518861012001518961014001518a61016001519b509b509b509b509b509b509b509b509b509b509b505091939597999b90929496989a50565b6110c7612825565b6110d160006128d8565b565b6110db612825565b6001600160a01b03811660009081526008602052604090205460ff1661113b5760405162461bcd60e51b815260206004820152601560248201527413195b99195c88191bd95cc81b9bdd08195e1a5cdd605a1b60448201526064016109b6565b6001600160a01b0381166000818152600860209081526040808320805460ff1990811690915560099092528083206002018054909216909155517f503890814436e1b1d481a5ace3c4465fa90d978ebc88ddaf5505d5b6a259a8829190a250565b6111a461287f565b60008281526004602052604090206001600882015460ff1660048111156111cd576111cd612dd9565b1461120f5760405162461bcd60e51b81526020600482015260126024820152714c6f616e206973206e6f742061637469766560701b60448201526064016109b6565b6000821161125f5760405162461bcd60e51b815260206004820181905260248201527f416d6f756e74206d7573742062652067726561746572207468616e207a65726f60448201526064016109b6565b60408051610180810182528254815260018301546001600160a01b03166020820152600283015491810191909152600382015460608201526004808301546080830152600583015460a0830152600683015460c0830152600783015460e083015260088301546000926113c0929091859161010084019160ff16908111156112e9576112e9612dd9565b60048111156112fa576112fa612dd9565b81526008820154610100810460ff16151560208301526201000090046001600160a01b031660408201526009820180546060909201916113399061313a565b80601f01602080910402602001604051908101604052809291908181526020018280546113659061313a565b80156113b25780601f10611387576101008083540402835291602001916113b2565b820191906000526020600020905b81548152906001019060200180831161139557829003601f168201915b505050505081525050610925565b905060008260070154826113d491906132f5565b905060008185116113e557846113e7565b815b6002546040516323b872dd60e01b8152336004820152306024820152604481018390529192506001600160a01b0316906323b872dd906064016020604051808303816000875af115801561143f573d6000803e3d6000fd5b505050506040513d601f19601f820116820180604052508101906114639190613086565b61147f5760405162461bcd60e51b81526004016109b690613308565b808460070160008282546114939190613127565b9091555050600086815260056020908152604080832081516080810183528a81528084018681524293820193845233606083019081528354600180820186559488529587209251600490960290920194855551918401919091559051600283015551600390910180546001600160a01b0319166001600160a01b03909216919091179055600f546127109061152890846130e8565b6115329190613105565b9050600061154082846132f5565b905081156115c35760025460105460405163a9059cbb60e01b81526001600160a01b0391821660048201526024810185905291169063a9059cbb906044016020604051808303816000875af115801561159d573d6000803e3d6000fd5b505050506040513d601f19601f820116820180604052508101906115c19190613086565b505b6008860154610100900460ff166116825760088601546000906201000090046001600160a01b0316156116095760088701546201000090046001600160a01b0316611616565b6000546001600160a01b03165b6001600160a01b038116600090815260096020526040812060050180549293508492909190611646908490613127565b90915550506001600160a01b03811660009081526009602052604081206003018054849290611676908490613127565b90915550611705915050565b600254600887015460405163a9059cbb60e01b81526001600160a01b0362010000909204821660048201526024810184905291169063a9059cbb906044016020604051808303816000875af11580156116df573d6000803e3d6000fd5b505050506040513d601f19601f820116820180604052508101906117039190613086565b505b6001808701546001600160a01b031660009081526007602052604081209091018054859290611735908490613127565b9091555050604051838152339089907f780ef358c62afe5202061fc77819fa12618913022159d66995a4e513e18404c69060200160405180910390a3848660070154106118075760088601805460ff191660029081179091556001808801546001600160a01b031660009081526007602052604081209092018054919290916117bf908490613127565b909155505060018601546117db906001600160a01b0316612928565b60405188907f6a65a58027e68282a85ac65a7afc6580ef3d139c6e6ec12ae8d82de13566e8cc90600090a25b50505050505061181660018055565b5050565b3360009081526008602052604090205460ff166118495760405162461bcd60e51b81526004016109b6906132c5565b3360009081526009602052604090206002015460ff166118a25760405162461bcd60e51b81526020600482015260146024820152734c656e646572206973206e6f742061637469766560601b60448201526064016109b6565b6002546040516323b872dd60e01b8152336004820152306024820152604481018390526001600160a01b03909116906323b872dd906064016020604051808303816000875af11580156118f9573d6000803e3d6000fd5b505050506040513d601f19601f8201168201806040525081019061191d9190613086565b6119395760405162461bcd60e51b81526004016109b690613308565b336000908152600960205260408120600301805483929061195b908490613127565b909155505050565b61196b612825565b60008181526004602052604090206001600882015460ff16600481111561199457611994612dd9565b146119d65760405162461bcd60e51b81526020600482015260126024820152714c6f616e206973206e6f742061637469766560701b60448201526064016109b6565b80600601544211611a295760405162461bcd60e51b815260206004820152601760248201527f4c6f616e206973206e6f7420796574206f76657264756500000000000000000060448201526064016109b6565b60088101805460ff191660039081179091556001808301546001600160a01b03166000908152600760205260408120909201805491929091611a6c908490613127565b90915550506001810154611a88906001600160a01b0316612928565b60405182907f0789b7097e8066538cfaa1132488b132e14ba5f0c938c8b7aaf8cf40356aab0b90600090a25050565b60008181526004602052604090206008810154610100900460ff16611b4d576000546001600160a01b0316331480611b01575060088101546201000090046001600160a01b031633145b611b4d5760405162461bcd60e51b815260206004820152601960248201527f4e6f7420617574686f72697a656420746f20617070726f76650000000000000060448201526064016109b6565b6000600882015460ff166004811115611b6857611b68612dd9565b14611bab5760405162461bcd60e51b81526020600482015260136024820152724c6f616e206973206e6f742070656e64696e6760681b60448201526064016109b6565b60088101805460ff191660011790554260058201556004810154611bd290620151806130e8565b611bdc9042613127565b60068201556008810154610100900460ff16611ca25760088101546000906201000090046001600160a01b031615611c275760088201546201000090046001600160a01b0316611c34565b6000546001600160a01b03165b60028301546001600160a01b038216600090815260096020526040812060040180549394509192611c66908490613127565b909155505060028201546001600160a01b03821660009081526009602052604081206003018054909190611c9b9084906132f5565b9091555050505b600281015460018201546001600160a01b031660009081526007602052604081208054909190611cd3908490613127565b90915550506001810180546001600160a01b039081166000908152600760205260409081902060050185905560028054935490850154915163a9059cbb60e01b81529083166004820152602481019190915291169063a9059cbb906044016020604051808303816000875af1158015611d50573d6000803e3d6000fd5b505050506040513d601f19601f82011682018060405250810190611d749190613086565b611d905760405162461bcd60e51b81526004016109b690613308565b604051339083907f8b6240997bc3af56f5a9aec0408b8286fb78fb0573f2ba96445be3918511cb9390600090a35050565b60056020528160005260406000208181548110611ddd57600080fd5b6000918252602090912060049091020180546001820154600283015460039093015491945092506001600160a01b031684565b611e18612825565b6001600160a01b03841660009081526008602052604090205460ff1615611e795760405162461bcd60e51b81526020600482015260156024820152744c656e64657220616c72656164792065786973747360581b60448201526064016109b6565b6001600160a01b0384811660008181526008602090815260408083208054600160ff199091168117909155600a80548083019091557fc65a7bb8d6351c1cf70c95a316cc6a92839c986682d98bc35f958f4883f9d2a80180546001600160a01b031990811687179091558251610100810184528681528085018b8152818501849052606082018790526080820187905260a0820187905260c082018b905260e082018a90529686526009909452919093208251815490921691909516178455915191929190820190611f4b9082613205565b5060408281015160028301805460ff1916911515919091179055606083015160038301556080830151600483015560a0830151600583015560c0830151600683015560e090920151600790910155516001600160a01b038516907f46e1817fe631c2e6eae865cc7accea90e1c793073fe5c9c225a6ffebaf8a6a8290611fd2908690613337565b60405180910390a250505050565b611fe8612825565b600b94909455600c92909255600d55600e55600f55565b6060806060600060056000868152602001908152602001600020805480602002602001604051908101604052809291908181526020016000905b8282101561209657600084815260209081902060408051608081018252600486029092018054835260018082015484860152600282015492840192909252600301546001600160a01b031660608301529083529092019101612039565b505082519293508291505067ffffffffffffffff8111156120b9576120b9612b3d565b6040519080825280602002602001820160405280156120e2578160200160208202803683370190505b5094508067ffffffffffffffff8111156120fe576120fe612b3d565b604051908082528060200260200182016040528015612127578160200160208202803683370190505b5093508067ffffffffffffffff81111561214357612143612b3d565b60405190808252806020026020018201604052801561216c578160200160208202803683370190505b50925060005b8181101561224c5782818151811061218c5761218c6130a3565b6020026020010151602001518682815181106121aa576121aa6130a3565b6020026020010181815250508281815181106121c8576121c86130a3565b6020026020010151604001518582815181106121e6576121e66130a3565b602002602001018181525050828181518110612204576122046130a3565b602002602001015160600151848281518110612222576122226130a3565b6001600160a01b039092166020928302919091019091015280612244816130cf565b915050612172565b5050509193909250565b61225e612825565b601080546001600160a01b0319166001600160a01b0392909216919091179055565b60046020819052600091825260409091208054600182015460028301546003840154948401546005850154600686015460078701546008880154600989018054989a6001600160a01b039889169a97999098969795969495939460ff808516956101008604909116946201000090049091169290916122fe9061313a565b80601f016020809104026020016040519081016040528092919081815260200182805461232a9061313a565b80156123775780601f1061234c57610100808354040283529160200191612377565b820191906000526020600020905b81548152906001019060200180831161235a57829003601f168201915b505050505090508c565b6006602052816000526040600020818154811061239d57600080fd5b90600052602060002001600091509150505481565b6001600160a01b03811660009081526006602090815260409182902080548351818402810184019094528084526060939283018282801561241257602002820191906000526020600020905b8154815260200190600101908083116123fe575b50505050509050919050565b612426612825565b6001600160a01b03811661248b5760405162461bcd60e51b815260206004820152602660248201527f4f776e61626c653a206e6577206f776e657220697320746865207a65726f206160448201526564647265737360d01b60648201526084016109b6565b610d9e816128d8565b6000600b5484101580156124aa5750600c548411155b6124ec5760405162461bcd60e51b8152602060048201526013602482015272125b9d985b1a59081b1bd85b88185b5bdd5b9d606a1b60448201526064016109b6565b600d5483101580156125005750600e548311155b6125425760405162461bcd60e51b8152602060048201526013602482015272092dcecc2d8d2c840e8cae4da40d8cadccee8d606b1b60448201526064016109b6565b6001600160a01b03851660009081526008602052604090205460ff1661257a5760405162461bcd60e51b81526004016109b6906132c5565b6001600160a01b03851660009081526009602052604090206002015460ff166125dc5760405162461bcd60e51b81526020600482015260146024820152734c656e646572206973206e6f742061637469766560601b60448201526064016109b6565b6001600160a01b0385166000908152600960205260409020600601548411156126475760405162461bcd60e51b815260206004820152601f60248201527f416d6f756e742065786365656473206c656e6465722773206d6178696d756d0060448201526064016109b6565b6001600160a01b0385166000908152600960205260409020600301548411156126b25760405162461bcd60e51b815260206004820152601960248201527f496e73756666696369656e74206c656e6465722066756e64730000000000000060448201526064016109b6565b6126bb33610673565b156126d85760405162461bcd60e51b81526004016109b690613174565b60038054600091826126e9836130cf565b91905055905060006126fd87338888610758565b9050604051806101800160405280838152602001336001600160a01b03168152602001878152602001828152602001868152602001428152602001866201518061274791906130e8565b6127519042613127565b8152602001600081526020016000600481111561277057612770612dd9565b815260006020808301829052604080840183905260609384018990528683526004808352928190208551815591850151600180840180546001600160a01b0319166001600160a01b039093169290921790915590850151600283015592840151600382015560808401518183015560a0840151600582015560c0840151600682015560e0840151600782015561010084015160088201805492949193909260ff191691908490811115610b7357610b73612dd9565b6000546001600160a01b031633146110d15760405162461bcd60e51b815260206004820181905260248201527f4f776e61626c653a2063616c6c6572206973206e6f7420746865206f776e657260448201526064016109b6565b6002600154036128d15760405162461bcd60e51b815260206004820152601f60248201527f5265656e7472616e637947756172643a207265656e7472616e742063616c6c0060448201526064016109b6565b6002600155565b600080546001600160a01b038381166001600160a01b0319831681178455604051919092169283917f8be0079c531659141344cd1fd0a4f28419497f9722a3daafe3b4186f6b6457e09190a35050565b6001600160a01b038116600090815260076020526040902060028101546101f4901561296b57600282015461295e9060326130e8565b6129689082613127565b90505b6003820154156129925760038201546129859060646130e8565b61298f90826132f5565b90505b6103e88111156129a157506103e85b600482018190556040518181526001600160a01b038416907f79c012a0cfae660e09134956bc432c8497ec80e86a3a108d130e8b3fca52b3ad90602001610ed6565b80356001600160a01b03811681146129fa57600080fd5b919050565b60008060408385031215612a1257600080fd5b612a1b836129e3565b946020939093013593505050565b600060208284031215612a3b57600080fd5b61095b826129e3565b60008060008060808587031215612a5a57600080fd5b612a63856129e3565b9350612a71602086016129e3565b93969395505050506040820135916060013590565b6000815180845260005b81811015612aac57602081850181015186830182015201612a90565b506000602082860101526020601f19601f83011685010191505092915050565b6001600160a01b038916815261010060208201819052600090612af18382018b612a86565b981515604084015250506060810195909552608085019390935260a084019190915260c083015260e09091015292915050565b600060208284031215612b3657600080fd5b5035919050565b634e487b7160e01b600052604160045260246000fd5b604051610180810167ffffffffffffffff81118282101715612b7757612b77612b3d565b60405290565b8035600581106129fa57600080fd5b8015158114610d9e57600080fd5b80356129fa81612b8c565b600082601f830112612bb657600080fd5b813567ffffffffffffffff80821115612bd157612bd1612b3d565b604051601f8301601f19908116603f01168101908282118183101715612bf957612bf9612b3d565b81604052838152866020858801011115612c1257600080fd5b836020870160208301376000602085830101528094505050505092915050565b600060208284031215612c4457600080fd5b813567ffffffffffffffff80821115612c5c57600080fd5b908301906101808286031215612c7157600080fd5b612c79612b53565b82358152612c89602084016129e3565b602082015260408301356040820152606083013560608201526080830135608082015260a083013560a082015260c083013560c082015260e083013560e0820152610100612cd8818501612b7d565b90820152610120612cea848201612b9a565b90820152610140612cfc8482016129e3565b908201526101608381013583811115612d1457600080fd5b612d2088828701612ba5565b918301919091525095945050505050565b60008060008060808587031215612d4757600080fd5b612d50856129e3565b93506020850135925060408501359150606085013567ffffffffffffffff811115612d7a57600080fd5b612d8687828801612ba5565b91505092959194509250565b60008060408385031215612da557600080fd5b82359150602083013567ffffffffffffffff811115612dc357600080fd5b612dcf85828601612ba5565b9150509250929050565b634e487b7160e01b600052602160045260246000fd5b60058110612e0d57634e487b7160e01b600052602160045260246000fd5b9052565b600061016060018060a01b03808f1684528d60208501528c60408501528b60608501528a60808501528960a08501528860c0850152612e5360e0850189612def565b86151561010085015285166101208401526101408301819052612e7881840185612a86565b9e9d5050505050505050505050505050565b60008060408385031215612e9d57600080fd5b50508035926020909101359150565b60008060008060808587031215612ec257600080fd5b612ecb856129e3565b9350602085013567ffffffffffffffff811115612ee757600080fd5b612ef387828801612ba5565b949794965050505060408301359260600135919050565b600080600080600060a08688031215612f2257600080fd5b505083359560208501359550604085013594606081013594506080013592509050565b600081518084526020808501945080840160005b83811015612f7557815187529582019590820190600101612f59565b509495945050505050565b606081526000612f936060830186612f45565b602083820381850152612fa68287612f45565b8481036040860152855180825282870193509082019060005b81811015612fe45784516001600160a01b031683529383019391830191600101612fbf565b509098975050505050505050565b60006101808e835260018060a01b03808f1660208501528d60408501528c60608501528b60808501528a60a08501528960c08501528860e085015261303b610100850189612def565b8615156101208501528516610140840152610160830181905261306081840185612a86565b9f9e505050505050505050505050505050565b60208152600061095b6020830184612f45565b60006020828403121561309857600080fd5b815161095b81612b8c565b634e487b7160e01b600052603260045260246000fd5b634e487b7160e01b600052601160045260246000fd5b6000600182016130e1576130e16130b9565b5060010190565b80820281158282048414176130ff576130ff6130b9565b92915050565b60008261312257634e487b7160e01b600052601260045260246000fd5b500490565b808201808211156130ff576130ff6130b9565b600181811c9082168061314e57607f821691505b60208210810361316e57634e487b7160e01b600052602260045260246000fd5b50919050565b60208082526023908201527f43616e6e6f74207265717565737420776974682064656661756c746564206c6f604082015262616e7360e81b606082015260800190565b601f82111561066e57600081815260208120601f850160051c810160208610156131de5750805b601f850160051c820191505b818110156131fd578281556001016131ea565b505050505050565b815167ffffffffffffffff81111561321f5761321f612b3d565b6132338161322d845461313a565b846131b7565b602080601f83116001811461326857600084156132505750858301515b600019600386901b1c1916600185901b1785556131fd565b600085815260208120601f198616915b8281101561329757888601518255948401946001909101908401613278565b50858210156132b55787850151600019600388901b60f8161c191681555b5050505050600190811b01905550565b6020808252601690820152752737ba1030b71030b8383937bb32b2103632b73232b960511b604082015260600190565b818103818111156130ff576130ff6130b9565b602080825260159082015274151bdad95b881d1c985b9cd9995c8819985a5b1959605a1b604082015260600190565b60208152600061095b6020830184612a8656fea26469706673582212203487d4824bc3cec8a4f31c2f3944ca44012c32c1d25628e643fba5c9bb4d2b2764736f6c63430008140033","opcodes":"PUSH1 0x80 PUSH1 0x40 MSTORE CALLVALUE DUP1 ISZERO PUSH3 0x11 JUMPI PUSH1 0x0 DUP1 REVERT JUMPDEST POP PUSH1 0x40 MLOAD PUSH3 0x3500 CODESIZE SUB DUP1 PUSH3 0x3500 DUP4 CODECOPY DUP2 ADD PUSH1 0x40 DUP2 SWAP1 MSTORE PUSH3 0x34 SWAP2 PUSH3 0x11E JUMP JUMPDEST PUSH3 0x3F CALLER PUSH3 0xB1 JUMP JUMPDEST PUSH1 0x1 DUP1 SSTORE PUSH3 0x4E DUP5 PUSH3 0xB1 JUMP JUMPDEST PUSH1 0x2 DUP1 SLOAD PUSH1 0x1 PUSH1 0x1 PUSH1 0xA0 SHL SUB SWAP5 DUP6 AND PUSH1 0x1 PUSH1 0x1 PUSH1 0xA0 SHL SUB NOT SWAP2 DUP3 AND OR SWAP1 SWAP2 SSTORE PUSH1 0x10 DUP1 SLOAD SWAP4 SWAP1 SWAP5 AND SWAP3 AND SWAP2 SWAP1 SWAP2 OR SWAP1 SWAP2 SSTORE PUSH1 0xF SSTORE POP PUSH8 0x8AC7230489E80000 PUSH1 0xB SSTORE PUSH9 0x3635C9ADC5DEA00000 PUSH1 0xC SSTORE PUSH1 0x7 PUSH1 0xD SSTORE PUSH2 0x16D PUSH1 0xE SSTORE PUSH1 0x1 PUSH1 0x3 SSTORE PUSH3 0x170 JUMP JUMPDEST PUSH1 0x0 DUP1 SLOAD PUSH1 0x1 PUSH1 0x1 PUSH1 0xA0 SHL SUB DUP4 DUP2 AND PUSH1 0x1 PUSH1 0x1 PUSH1 0xA0 SHL SUB NOT DUP4 AND DUP2 OR DUP5 SSTORE PUSH1 0x40 MLOAD SWAP2 SWAP1 SWAP3 AND SWAP3 DUP4 SWAP2 PUSH32 0x8BE0079C531659141344CD1FD0A4F28419497F9722A3DAAFE3B4186F6B6457E0 SWAP2 SWAP1 LOG3 POP POP JUMP JUMPDEST DUP1 MLOAD PUSH1 0x1 PUSH1 0x1 PUSH1 0xA0 SHL SUB DUP2 AND DUP2 EQ PUSH3 0x119 JUMPI PUSH1 0x0 DUP1 REVERT JUMPDEST SWAP2 SWAP1 POP JUMP JUMPDEST PUSH1 0x0 DUP1 PUSH1 0x0 DUP1 PUSH1 0x80 DUP6 DUP8 SUB SLT ISZERO PUSH3 0x135 JUMPI PUSH1 0x0 DUP1 REVERT JUMPDEST PUSH3 0x140 DUP6 PUSH3 0x101 JUMP JUMPDEST SWAP4 POP PUSH3 0x150 PUSH1 0x20 DUP7 ADD PUSH3 0x101 JUMP JUMPDEST SWAP3 POP PUSH3 0x160 PUSH1 0x40 DUP7 ADD PUSH3 0x101 JUMP JUMPDEST PUSH1 0x60 SWAP6 SWAP1 SWAP6 ADD MLOAD SWAP4 SWAP7 SWAP3 SWAP6 POP POP POP JUMP JUMPDEST PUSH2 0x3380 DUP1 PUSH3 0x180 PUSH1 0x0 CODECOPY PUSH1 0x0 RETURN INVALID PUSH1 0x80 PUSH1 0x40 MSTORE CALLVALUE DUP1 ISZERO PUSH2 0x10 JUMPI PUSH1 0x0 DUP1 REVERT JUMPDEST POP PUSH1 0x4 CALLDATASIZE LT PUSH2 0x227 JUMPI PUSH1 0x0 CALLDATALOAD PUSH1 0xE0 SHR DUP1 PUSH4 0x8C639A85 GT PUSH2 0x130 JUMPI DUP1 PUSH4 0xC67A8CD3 GT PUSH2 0xB8 JUMPI DUP1 PUSH4 0xE1EC3C68 GT PUSH2 0x7C JUMPI DUP1 PUSH4 0xE1EC3C68 EQ PUSH2 0x550 JUMPI DUP1 PUSH4 0xE3ED1902 EQ PUSH2 0x57B JUMPI DUP1 PUSH4 0xEEE8B7FF EQ PUSH2 0x58E JUMPI DUP1 PUSH4 0xF2FDE38B EQ PUSH2 0x5AE JUMPI DUP1 PUSH4 0xF504F908 EQ PUSH2 0x5C1 JUMPI PUSH1 0x0 DUP1 REVERT JUMPDEST DUP1 PUSH4 0xC67A8CD3 EQ PUSH2 0x4EC JUMPI DUP1 PUSH4 0xC9A10DAD EQ PUSH2 0x4FF JUMPI DUP1 PUSH4 0xCE473114 EQ PUSH2 0x512 JUMPI DUP1 PUSH4 0xD2C35CE8 EQ PUSH2 0x534 JUMPI DUP1 PUSH4 0xE06A9138 EQ PUSH2 0x547 JUMPI PUSH1 0x0 DUP1 REVERT JUMPDEST DUP1 PUSH4 0xAADC1AC1 GT PUSH2 0xFF JUMPI DUP1 PUSH4 0xAADC1AC1 EQ PUSH2 0x45E JUMPI DUP1 PUSH4 0xAF3D3E98 EQ PUSH2 0x471 JUMPI DUP1 PUSH4 0xAFA85DE6 EQ PUSH2 0x4AD JUMPI DUP1 PUSH4 0xB87041D4 EQ PUSH2 0x4D0 JUMPI DUP1 PUSH4 0xC415B95C EQ PUSH2 0x4D9 JUMPI PUSH1 0x0 DUP1 REVERT JUMPDEST DUP1 PUSH4 0x8C639A85 EQ PUSH2 0x41E JUMPI DUP1 PUSH4 0x8DA5CB5B EQ PUSH2 0x427 JUMPI DUP1 PUSH4 0x8FE135C7 EQ PUSH2 0x438 JUMPI DUP1 PUSH4 0xA8743022 EQ PUSH2 0x44B JUMPI PUSH1 0x0 DUP1 REVERT JUMPDEST DUP1 PUSH4 0x51A560DC GT PUSH2 0x1B3 JUMPI DUP1 PUSH4 0x715018A6 GT PUSH2 0x182 JUMPI DUP1 PUSH4 0x715018A6 EQ PUSH2 0x3DE JUMPI DUP1 PUSH4 0x72F94365 EQ PUSH2 0x3E6 JUMPI DUP1 PUSH4 0x84019EED EQ PUSH2 0x3EF JUMPI DUP1 PUSH4 0x87C51459 EQ PUSH2 0x402 JUMPI DUP1 PUSH4 0x8A700B53 EQ PUSH2 0x40B JUMPI PUSH1 0x0 DUP1 REVERT JUMPDEST DUP1 PUSH4 0x51A560DC EQ PUSH2 0x31E JUMPI DUP1 PUSH4 0x52EE8F81 EQ PUSH2 0x331 JUMPI DUP1 PUSH4 0x66877B8D EQ PUSH2 0x344 JUMPI DUP1 PUSH4 0x6949000C EQ PUSH2 0x36E JUMPI PUSH1 0x0 DUP1 REVERT JUMPDEST DUP1 PUSH4 0x256ED143 GT PUSH2 0x1FA JUMPI DUP1 PUSH4 0x256ED143 EQ PUSH2 0x2B5 JUMPI DUP1 PUSH4 0x28FD10D7 EQ PUSH2 0x2BE JUMPI DUP1 PUSH4 0x2D6963CE EQ PUSH2 0x2E5 JUMPI DUP1 PUSH4 0x35176B40 EQ PUSH2 0x2F8 JUMPI DUP1 PUSH4 0x4F10E9F1 EQ PUSH2 0x30B JUMPI PUSH1 0x0 DUP1 REVERT JUMPDEST DUP1 PUSH4 0x69C9FAE EQ PUSH2 0x22C JUMPI DUP1 PUSH4 0x6D37817 EQ PUSH2 0x241 JUMPI DUP1 PUSH4 0x10B0E5F2 EQ PUSH2 0x271 JUMPI DUP1 PUSH4 0x1112F94C EQ PUSH2 0x294 JUMPI JUMPDEST PUSH1 0x0 DUP1 REVERT JUMPDEST PUSH2 0x23F PUSH2 0x23A CALLDATASIZE PUSH1 0x4 PUSH2 0x29FF JUMP JUMPDEST PUSH2 0x5D4 JUMP JUMPDEST STOP JUMPDEST PUSH1 0x2 SLOAD PUSH2 0x254 SWAP1 PUSH1 0x1 PUSH1 0x1 PUSH1 0xA0 SHL SUB AND DUP2 JUMP JUMPDEST PUSH1 0x40 MLOAD PUSH1 0x1 PUSH1 0x1 PUSH1 0xA0 SHL SUB SWAP1 SWAP2 AND DUP2 MSTORE PUSH1 0x20 ADD JUMPDEST PUSH1 0x40 MLOAD DUP1 SWAP2 SUB SWAP1 RETURN JUMPDEST PUSH2 0x284 PUSH2 0x27F CALLDATASIZE PUSH1 0x4 PUSH2 0x2A29 JUMP JUMPDEST PUSH2 0x673 JUMP JUMPDEST PUSH1 0x40 MLOAD SWAP1 ISZERO ISZERO DUP2 MSTORE PUSH1 0x20 ADD PUSH2 0x268 JUMP JUMPDEST PUSH2 0x2A7 PUSH2 0x2A2 CALLDATASIZE PUSH1 0x4 PUSH2 0x2A44 JUMP JUMPDEST PUSH2 0x758 JUMP JUMPDEST PUSH1 0x40 MLOAD SWAP1 DUP2 MSTORE PUSH1 0x20 ADD PUSH2 0x268 JUMP JUMPDEST PUSH2 0x2A7 PUSH1 0xE SLOAD DUP2 JUMP JUMPDEST PUSH2 0x2D1 PUSH2 0x2CC CALLDATASIZE PUSH1 0x4 PUSH2 0x2A29 JUMP JUMPDEST PUSH2 0x821 JUMP JUMPDEST PUSH1 0x40 MLOAD PUSH2 0x268 SWAP9 SWAP8 SWAP7 SWAP6 SWAP5 SWAP4 SWAP3 SWAP2 SWAP1 PUSH2 0x2ACC JUMP JUMPDEST PUSH2 0x254 PUSH2 0x2F3 CALLDATASIZE PUSH1 0x4 PUSH2 0x2B24 JUMP JUMPDEST PUSH2 0x8FB JUMP JUMPDEST PUSH2 0x2A7 PUSH2 0x306 CALLDATASIZE PUSH1 0x4 PUSH2 0x2C32 JUMP JUMPDEST PUSH2 0x925 JUMP JUMPDEST PUSH2 0x2A7 PUSH2 0x319 CALLDATASIZE PUSH1 0x4 PUSH2 0x2D31 JUMP JUMPDEST PUSH2 0x962 JUMP JUMPDEST PUSH2 0x23F PUSH2 0x32C CALLDATASIZE PUSH1 0x4 PUSH2 0x2B24 JUMP JUMPDEST PUSH2 0xC44 JUMP JUMPDEST PUSH2 0x23F PUSH2 0x33F CALLDATASIZE PUSH1 0x4 PUSH2 0x2D92 JUMP JUMPDEST PUSH2 0xDA1 JUMP JUMPDEST PUSH2 0x357 PUSH2 0x352 CALLDATASIZE PUSH1 0x4 PUSH2 0x2B24 JUMP JUMPDEST PUSH2 0xEE3 JUMP JUMPDEST PUSH1 0x40 MLOAD PUSH2 0x268 SWAP12 SWAP11 SWAP10 SWAP9 SWAP8 SWAP7 SWAP6 SWAP5 SWAP4 SWAP3 SWAP2 SWAP1 PUSH2 0x2E11 JUMP JUMPDEST PUSH2 0x3B1 PUSH2 0x37C CALLDATASIZE PUSH1 0x4 PUSH2 0x2A29 JUMP JUMPDEST PUSH1 0x7 PUSH1 0x20 MSTORE PUSH1 0x0 SWAP1 DUP2 MSTORE PUSH1 0x40 SWAP1 KECCAK256 DUP1 SLOAD PUSH1 0x1 DUP3 ADD SLOAD PUSH1 0x2 DUP4 ADD SLOAD PUSH1 0x3 DUP5 ADD SLOAD PUSH1 0x4 DUP6 ADD SLOAD PUSH1 0x5 SWAP1 SWAP6 ADD SLOAD SWAP4 SWAP5 SWAP3 SWAP4 SWAP2 SWAP3 SWAP1 SWAP2 DUP7 JUMP JUMPDEST PUSH1 0x40 DUP1 MLOAD SWAP7 DUP8 MSTORE PUSH1 0x20 DUP8 ADD SWAP6 SWAP1 SWAP6 MSTORE SWAP4 DUP6 ADD SWAP3 SWAP1 SWAP3 MSTORE PUSH1 0x60 DUP5 ADD MSTORE PUSH1 0x80 DUP4 ADD MSTORE PUSH1 0xA0 DUP3 ADD MSTORE PUSH1 0xC0 ADD PUSH2 0x268 JUMP JUMPDEST PUSH2 0x23F PUSH2 0x10BF JUMP JUMPDEST PUSH2 0x2A7 PUSH1 0xC SLOAD DUP2 JUMP JUMPDEST PUSH2 0x23F PUSH2 0x3FD CALLDATASIZE PUSH1 0x4 PUSH2 0x2A29 JUMP JUMPDEST PUSH2 0x10D3 JUMP JUMPDEST PUSH2 0x2A7 PUSH1 0x3 SLOAD DUP2 JUMP JUMPDEST PUSH2 0x23F PUSH2 0x419 CALLDATASIZE PUSH1 0x4 PUSH2 0x2E8A JUMP JUMPDEST PUSH2 0x119C JUMP JUMPDEST PUSH2 0x2A7 PUSH1 0xF SLOAD DUP2 JUMP JUMPDEST PUSH1 0x0 SLOAD PUSH1 0x1 PUSH1 0x1 PUSH1 0xA0 SHL SUB AND PUSH2 0x254 JUMP JUMPDEST PUSH2 0x23F PUSH2 0x446 CALLDATASIZE PUSH1 0x4 PUSH2 0x2B24 JUMP JUMPDEST PUSH2 0x181A JUMP JUMPDEST PUSH2 0x23F PUSH2 0x459 CALLDATASIZE PUSH1 0x4 PUSH2 0x2B24 JUMP JUMPDEST PUSH2 0x1963 JUMP JUMPDEST PUSH2 0x23F PUSH2 0x46C CALLDATASIZE PUSH1 0x4 PUSH2 0x2B24 JUMP JUMPDEST PUSH2 0x1AB7 JUMP JUMPDEST PUSH2 0x484 PUSH2 0x47F CALLDATASIZE PUSH1 0x4 PUSH2 0x2E8A JUMP JUMPDEST PUSH2 0x1DC1 JUMP JUMPDEST PUSH1 0x40 DUP1 MLOAD SWAP5 DUP6 MSTORE PUSH1 0x20 DUP6 ADD SWAP4 SWAP1 SWAP4 MSTORE SWAP2 DUP4 ADD MSTORE PUSH1 0x1 PUSH1 0x1 PUSH1 0xA0 SHL SUB AND PUSH1 0x60 DUP3 ADD MSTORE PUSH1 0x80 ADD PUSH2 0x268 JUMP JUMPDEST PUSH2 0x284 PUSH2 0x4BB CALLDATASIZE PUSH1 0x4 PUSH2 0x2A29 JUMP JUMPDEST PUSH1 0x8 PUSH1 0x20 MSTORE PUSH1 0x0 SWAP1 DUP2 MSTORE PUSH1 0x40 SWAP1 KECCAK256 SLOAD PUSH1 0xFF AND DUP2 JUMP JUMPDEST PUSH2 0x2A7 PUSH1 0xD SLOAD DUP2 JUMP JUMPDEST PUSH1 0x10 SLOAD PUSH2 0x254 SWAP1 PUSH1 0x1 PUSH1 0x1 PUSH1 0xA0 SHL SUB AND DUP2 JUMP JUMPDEST PUSH2 0x23F PUSH2 0x4FA CALLDATASIZE PUSH1 0x4 PUSH2 0x2EAC JUMP JUMPDEST PUSH2 0x1E10 JUMP JUMPDEST PUSH2 0x23F PUSH2 0x50D CALLDATASIZE PUSH1 0x4 PUSH2 0x2F0A JUMP JUMPDEST PUSH2 0x1FE0 JUMP JUMPDEST PUSH2 0x525 PUSH2 0x520 CALLDATASIZE PUSH1 0x4 PUSH2 0x2B24 JUMP JUMPDEST PUSH2 0x1FFF JUMP JUMPDEST PUSH1 0x40 MLOAD PUSH2 0x268 SWAP4 SWAP3 SWAP2 SWAP1 PUSH2 0x2F80 JUMP JUMPDEST PUSH2 0x23F PUSH2 0x542 CALLDATASIZE PUSH1 0x4 PUSH2 0x2A29 JUMP JUMPDEST PUSH2 0x2256 JUMP JUMPDEST PUSH2 0x2A7 PUSH1 0xB SLOAD DUP2 JUMP JUMPDEST PUSH2 0x563 PUSH2 0x55E CALLDATASIZE PUSH1 0x4 PUSH2 0x2B24 JUMP JUMPDEST PUSH2 0x2280 JUMP JUMPDEST PUSH1 0x40 MLOAD PUSH2 0x268 SWAP13 SWAP12 SWAP11 SWAP10 SWAP9 SWAP8 SWAP7 SWAP6 SWAP5 SWAP4 SWAP3 SWAP2 SWAP1 PUSH2 0x2FF2 JUMP JUMPDEST PUSH2 0x2A7 PUSH2 0x589 CALLDATASIZE PUSH1 0x4 PUSH2 0x29FF JUMP JUMPDEST PUSH2 0x2381 JUMP JUMPDEST PUSH2 0x5A1 PUSH2 0x59C CALLDATASIZE PUSH1 0x4 PUSH2 0x2A29 JUMP JUMPDEST PUSH2 0x23B2 JUMP JUMPDEST PUSH1 0x40 MLOAD PUSH2 0x268 SWAP2 SWAP1 PUSH2 0x3073 JUMP JUMPDEST PUSH2 0x23F PUSH2 0x5BC CALLDATASIZE PUSH1 0x4 PUSH2 0x2A29 JUMP JUMPDEST PUSH2 0x241E JUMP JUMPDEST PUSH2 0x2A7 PUSH2 0x5CF CALLDATASIZE PUSH1 0x4 PUSH2 0x2D31 JUMP JUMPDEST PUSH2 0x2494 JUMP JUMPDEST PUSH2 0x5DC PUSH2 0x2825 JUMP JUMPDEST DUP2 PUSH1 0x1 PUSH1 0x1 PUSH1 0xA0 SHL SUB AND PUSH4 0xA9059CBB PUSH2 0x5FD PUSH1 0x0 SLOAD PUSH1 0x1 PUSH1 0x1 PUSH1 0xA0 SHL SUB AND SWAP1 JUMP JUMPDEST PUSH1 0x40 MLOAD PUSH1 0x1 PUSH1 0x1 PUSH1 0xE0 SHL SUB NOT PUSH1 0xE0 DUP5 SWAP1 SHL AND DUP2 MSTORE PUSH1 0x1 PUSH1 0x1 PUSH1 0xA0 SHL SUB SWAP1 SWAP2 AND PUSH1 0x4 DUP3 ADD MSTORE PUSH1 0x24 DUP2 ADD DUP5 SWAP1 MSTORE PUSH1 0x44 ADD PUSH1 0x20 PUSH1 0x40 MLOAD DUP1 DUP4 SUB DUP2 PUSH1 0x0 DUP8 GAS CALL ISZERO DUP1 ISZERO PUSH2 0x64A JUMPI RETURNDATASIZE PUSH1 0x0 DUP1 RETURNDATACOPY RETURNDATASIZE PUSH1 0x0 REVERT JUMPDEST POP POP POP POP PUSH1 0x40 MLOAD RETURNDATASIZE PUSH1 0x1F NOT PUSH1 0x1F DUP3 ADD AND DUP3 ADD DUP1 PUSH1 0x40 MSTORE POP DUP2 ADD SWAP1 PUSH2 0x66E SWAP2 SWAP1 PUSH2 0x3086 JUMP JUMPDEST POP POP POP JUMP JUMPDEST PUSH1 0x1 PUSH1 0x1 PUSH1 0xA0 SHL SUB DUP2 AND PUSH1 0x0 SWAP1 DUP2 MSTORE PUSH1 0x6 PUSH1 0x20 SWAP1 DUP2 MSTORE PUSH1 0x40 DUP1 DUP4 KECCAK256 DUP1 SLOAD DUP3 MLOAD DUP2 DUP6 MUL DUP2 ADD DUP6 ADD SWAP1 SWAP4 MSTORE DUP1 DUP4 MSTORE DUP5 SWAP4 DUP4 ADD DUP3 DUP3 DUP1 ISZERO PUSH2 0x6D0 JUMPI PUSH1 0x20 MUL DUP3 ADD SWAP2 SWAP1 PUSH1 0x0 MSTORE PUSH1 0x20 PUSH1 0x0 KECCAK256 SWAP1 JUMPDEST DUP2 SLOAD DUP2 MSTORE PUSH1 0x20 ADD SWAP1 PUSH1 0x1 ADD SWAP1 DUP1 DUP4 GT PUSH2 0x6BC JUMPI JUMPDEST POP POP POP POP POP SWAP1 POP PUSH1 0x0 JUMPDEST DUP2 MLOAD DUP2 LT ISZERO PUSH2 0x74E JUMPI PUSH1 0x3 PUSH1 0x4 PUSH1 0x0 DUP5 DUP5 DUP2 MLOAD DUP2 LT PUSH2 0x6FB JUMPI PUSH2 0x6FB PUSH2 0x30A3 JUMP JUMPDEST PUSH1 0x20 SWAP1 DUP2 MUL SWAP2 SWAP1 SWAP2 ADD DUP2 ADD MLOAD DUP3 MSTORE DUP2 ADD SWAP2 SWAP1 SWAP2 MSTORE PUSH1 0x40 ADD PUSH1 0x0 KECCAK256 PUSH1 0x8 ADD SLOAD PUSH1 0xFF AND PUSH1 0x4 DUP2 GT ISZERO PUSH2 0x72D JUMPI PUSH2 0x72D PUSH2 0x2DD9 JUMP JUMPDEST SUB PUSH2 0x73C JUMPI POP PUSH1 0x1 SWAP4 SWAP3 POP POP POP JUMP JUMPDEST DUP1 PUSH2 0x746 DUP2 PUSH2 0x30CF JUMP JUMPDEST SWAP2 POP POP PUSH2 0x6DA JUMP JUMPDEST POP PUSH1 0x0 SWAP4 SWAP3 POP POP POP JUMP JUMPDEST PUSH1 0x1 PUSH1 0x1 PUSH1 0xA0 SHL SUB DUP1 DUP6 AND PUSH1 0x0 SWAP1 DUP2 MSTORE PUSH1 0x9 PUSH1 0x20 SWAP1 DUP2 MSTORE PUSH1 0x40 DUP1 DUP4 KECCAK256 PUSH1 0x7 SWAP1 DUP2 ADD SLOAD SWAP5 DUP9 AND DUP5 MSTORE SWAP1 SWAP2 MSTORE DUP2 KECCAK256 PUSH1 0x4 ADD SLOAD SWAP1 SWAP2 SWAP1 DUP1 ISZERO PUSH2 0x7D3 JUMPI PUSH2 0x320 DUP2 LT PUSH2 0x7B8 JUMPI PUSH1 0x64 PUSH2 0x7A7 DUP4 PUSH1 0x50 PUSH2 0x30E8 JUMP JUMPDEST PUSH2 0x7B1 SWAP2 SWAP1 PUSH2 0x3105 JUMP JUMPDEST SWAP2 POP PUSH2 0x7E1 JUMP JUMPDEST PUSH2 0x28A DUP2 LT PUSH2 0x7CE JUMPI PUSH1 0x64 PUSH2 0x7A7 DUP4 PUSH1 0x5A PUSH2 0x30E8 JUMP JUMPDEST PUSH2 0x7E1 JUMP JUMPDEST PUSH2 0x7DE PUSH1 0xC8 DUP4 PUSH2 0x3127 JUMP JUMPDEST SWAP2 POP JUMPDEST PUSH9 0x1B1AE4D6E2EF500000 DUP6 GT ISZERO PUSH2 0x800 JUMPI PUSH2 0x7FD PUSH1 0x64 DUP4 PUSH2 0x3127 JUMP JUMPDEST SWAP2 POP JUMPDEST PUSH1 0xB4 DUP5 GT ISZERO PUSH2 0x817 JUMPI PUSH2 0x814 PUSH1 0x96 DUP4 PUSH2 0x3127 JUMP JUMPDEST SWAP2 POP JUMPDEST POP SWAP6 SWAP5 POP POP POP POP POP JUMP JUMPDEST PUSH1 0x9 PUSH1 0x20 MSTORE PUSH1 0x0 SWAP1 DUP2 MSTORE PUSH1 0x40 SWAP1 KECCAK256 DUP1 SLOAD PUSH1 0x1 DUP3 ADD DUP1 SLOAD PUSH1 0x1 PUSH1 0x1 PUSH1 0xA0 SHL SUB SWAP1 SWAP3 AND SWAP3 SWAP2 PUSH2 0x84D SWAP1 PUSH2 0x313A JUMP JUMPDEST DUP1 PUSH1 0x1F ADD PUSH1 0x20 DUP1 SWAP2 DIV MUL PUSH1 0x20 ADD PUSH1 0x40 MLOAD SWAP1 DUP2 ADD PUSH1 0x40 MSTORE DUP1 SWAP3 SWAP2 SWAP1 DUP2 DUP2 MSTORE PUSH1 0x20 ADD DUP3 DUP1 SLOAD PUSH2 0x879 SWAP1 PUSH2 0x313A JUMP JUMPDEST DUP1 ISZERO PUSH2 0x8C6 JUMPI DUP1 PUSH1 0x1F LT PUSH2 0x89B JUMPI PUSH2 0x100 DUP1 DUP4 SLOAD DIV MUL DUP4 MSTORE SWAP2 PUSH1 0x20 ADD SWAP2 PUSH2 0x8C6 JUMP JUMPDEST DUP3 ADD SWAP2 SWAP1 PUSH1 0x0 MSTORE PUSH1 0x20 PUSH1 0x0 KECCAK256 SWAP1 JUMPDEST DUP2 SLOAD DUP2 MSTORE SWAP1 PUSH1 0x1 ADD SWAP1 PUSH1 0x20 ADD DUP1 DUP4 GT PUSH2 0x8A9 JUMPI DUP3 SWAP1 SUB PUSH1 0x1F AND DUP3 ADD SWAP2 JUMPDEST POP POP POP PUSH1 0x2 DUP5 ADD SLOAD PUSH1 0x3 DUP6 ADD SLOAD PUSH1 0x4 DUP7 ADD SLOAD PUSH1 0x5 DUP8 ADD SLOAD PUSH1 0x6 DUP9 ADD SLOAD PUSH1 0x7 SWAP1 SWAP9 ADD SLOAD SWAP7 SWAP8 PUSH1 0xFF SWAP1 SWAP5 AND SWAP7 SWAP3 SWAP6 POP SWAP1 SWAP4 POP SWAP2 SWAP1 DUP9 JUMP JUMPDEST PUSH1 0xA DUP2 DUP2 SLOAD DUP2 LT PUSH2 0x90B JUMPI PUSH1 0x0 DUP1 REVERT JUMPDEST PUSH1 0x0 SWAP2 DUP3 MSTORE PUSH1 0x20 SWAP1 SWAP2 KECCAK256 ADD SLOAD PUSH1 0x1 PUSH1 0x1 PUSH1 0xA0 SHL SUB AND SWAP1 POP DUP2 JUMP JUMPDEST PUSH1 0x0 DUP1 PUSH2 0x2710 DUP4 PUSH1 0x60 ADD MLOAD DUP5 PUSH1 0x40 ADD MLOAD PUSH2 0x93F SWAP2 SWAP1 PUSH2 0x30E8 JUMP JUMPDEST PUSH2 0x949 SWAP2 SWAP1 PUSH2 0x3105 JUMP JUMPDEST SWAP1 POP DUP1 DUP4 PUSH1 0x40 ADD MLOAD PUSH2 0x95B SWAP2 SWAP1 PUSH2 0x3127 JUMP JUMPDEST SWAP4 SWAP3 POP POP POP JUMP JUMPDEST PUSH1 0x0 PUSH1 0xB SLOAD DUP5 LT ISZERO DUP1 ISZERO PUSH2 0x978 JUMPI POP PUSH1 0xC SLOAD DUP5 GT ISZERO JUMPDEST PUSH2 0x9BF JUMPI PUSH1 0x40 MLOAD PUSH3 0x461BCD PUSH1 0xE5 SHL DUP2 MSTORE PUSH1 0x20 PUSH1 0x4 DUP3 ADD MSTORE PUSH1 0x13 PUSH1 0x24 DUP3 ADD MSTORE PUSH19 0x125B9D985B1A59081B1BD85B88185B5BDD5B9D PUSH1 0x6A SHL PUSH1 0x44 DUP3 ADD MSTORE PUSH1 0x64 ADD JUMPDEST PUSH1 0x40 MLOAD DUP1 SWAP2 SUB SWAP1 REVERT JUMPDEST PUSH1 0xD SLOAD DUP4 LT ISZERO DUP1 ISZERO PUSH2 0x9D3 JUMPI POP PUSH1 0xE SLOAD DUP4 GT ISZERO JUMPDEST PUSH2 0xA15 JUMPI PUSH1 0x40 MLOAD PUSH3 0x461BCD PUSH1 0xE5 SHL DUP2 MSTORE PUSH1 0x20 PUSH1 0x4 DUP3 ADD MSTORE PUSH1 0x13 PUSH1 0x24 DUP3 ADD MSTORE PUSH19 0x92DCECC2D8D2C840E8CAE4DA40D8CADCCEE8D PUSH1 0x6B SHL PUSH1 0x44 DUP3 ADD MSTORE PUSH1 0x64 ADD PUSH2 0x9B6 JUMP JUMPDEST PUSH2 0xA1E CALLER PUSH2 0x673 JUMP JUMPDEST ISZERO PUSH2 0xA3B JUMPI PUSH1 0x40 MLOAD PUSH3 0x461BCD PUSH1 0xE5 SHL DUP2 MSTORE PUSH1 0x4 ADD PUSH2 0x9B6 SWAP1 PUSH2 0x3174 JUMP JUMPDEST PUSH1 0x3 DUP1 SLOAD PUSH1 0x0 SWAP2 DUP3 PUSH2 0xA4C DUP4 PUSH2 0x30CF JUMP JUMPDEST SWAP1 SWAP2 SSTORE POP PUSH1 0x40 DUP1 MLOAD PUSH2 0x180 DUP2 ADD DUP3 MSTORE DUP3 DUP2 MSTORE CALLER PUSH1 0x20 DUP3 ADD MSTORE SWAP1 DUP2 ADD DUP8 SWAP1 MSTORE PUSH2 0x1F4 PUSH1 0x60 DUP3 ADD DUP2 SWAP1 MSTORE PUSH1 0x80 DUP3 ADD DUP8 SWAP1 MSTORE TIMESTAMP PUSH1 0xA0 DUP4 ADD MSTORE SWAP2 SWAP3 POP PUSH1 0xC0 DUP2 ADD PUSH2 0xA95 DUP8 PUSH3 0x15180 PUSH2 0x30E8 JUMP JUMPDEST PUSH2 0xA9F SWAP1 TIMESTAMP PUSH2 0x3127 JUMP JUMPDEST DUP2 MSTORE PUSH1 0x20 ADD PUSH1 0x0 DUP2 MSTORE PUSH1 0x20 ADD PUSH1 0x0 PUSH1 0x4 DUP2 GT ISZERO PUSH2 0xABE JUMPI PUSH2 0xABE PUSH2 0x2DD9 JUMP JUMPDEST DUP2 MSTORE PUSH1 0x1 PUSH1 0x20 DUP1 DUP4 ADD DUP3 SWAP1 MSTORE PUSH1 0x1 PUSH1 0x1 PUSH1 0xA0 SHL SUB DUP12 DUP2 AND PUSH1 0x40 DUP1 DUP7 ADD SWAP2 SWAP1 SWAP2 MSTORE PUSH1 0x60 SWAP5 DUP6 ADD DUP11 SWAP1 MSTORE PUSH1 0x0 DUP9 DUP2 MSTORE PUSH1 0x4 DUP1 DUP6 MSTORE SWAP1 DUP3 SWAP1 KECCAK256 DUP8 MLOAD DUP2 SSTORE SWAP4 DUP8 ADD MLOAD DUP5 DUP7 ADD DUP1 SLOAD PUSH1 0x1 PUSH1 0x1 PUSH1 0xA0 SHL SUB NOT AND SWAP2 SWAP1 SWAP5 AND OR SWAP1 SWAP3 SSTORE DUP6 ADD MLOAD PUSH1 0x2 DUP4 ADD SSTORE SWAP3 DUP5 ADD MLOAD PUSH1 0x3 DUP3 ADD SSTORE PUSH1 0x80 DUP5 ADD MLOAD DUP2 DUP5 ADD SSTORE PUSH1 0xA0 DUP5 ADD MLOAD PUSH1 0x5 DUP3 ADD SSTORE PUSH1 0xC0 DUP5 ADD MLOAD PUSH1 0x6 DUP3 ADD SSTORE PUSH1 0xE0 DUP5 ADD MLOAD PUSH1 0x7 DUP3 ADD SSTORE PUSH2 0x100 DUP5 ADD MLOAD PUSH1 0x8 DUP3 ADD DUP1 SLOAD SWAP3 SWAP5 SWAP2 SWAP4 SWAP1 SWAP3 PUSH1 0xFF NOT AND SWAP2 DUP5 SWAP1 DUP2 GT ISZERO PUSH2 0xB73 JUMPI PUSH2 0xB73 PUSH2 0x2DD9 JUMP JUMPDEST MUL OR SWAP1 SSTORE POP PUSH2 0x120 DUP3 ADD MLOAD PUSH1 0x8 DUP3 ADD DUP1 SLOAD PUSH2 0x140 DUP6 ADD MLOAD PUSH1 0x1 PUSH1 0x1 PUSH1 0xA0 SHL SUB AND PUSH3 0x10000 MUL PUSH3 0x10000 PUSH1 0x1 PUSH1 0xB0 SHL SUB NOT SWAP4 ISZERO ISZERO PUSH2 0x100 MUL SWAP4 SWAP1 SWAP4 AND PUSH2 0x100 PUSH1 0x1 PUSH1 0xB0 SHL SUB NOT SWAP1 SWAP2 AND OR SWAP2 SWAP1 SWAP2 OR SWAP1 SSTORE PUSH2 0x160 DUP3 ADD MLOAD PUSH1 0x9 DUP3 ADD SWAP1 PUSH2 0xBD7 SWAP1 DUP3 PUSH2 0x3205 JUMP JUMPDEST POP POP CALLER PUSH1 0x0 DUP2 DUP2 MSTORE PUSH1 0x6 PUSH1 0x20 SWAP1 DUP2 MSTORE PUSH1 0x40 DUP1 DUP4 KECCAK256 DUP1 SLOAD PUSH1 0x1 DUP2 ADD DUP3 SSTORE SWAP1 DUP5 MSTORE SWAP2 SWAP1 SWAP3 KECCAK256 ADD DUP6 SWAP1 SSTORE MLOAD SWAP1 SWAP2 POP DUP4 SWAP1 PUSH32 0x97E04BE2FD6414727FE9D0400464568F4384AA8B06264119565CA8F6CC2A4B7A SWAP1 PUSH2 0xC33 SWAP1 DUP11 DUP2 MSTORE PUSH1 0x20 ADD SWAP1 JUMP JUMPDEST PUSH1 0x40 MLOAD DUP1 SWAP2 SUB SWAP1 LOG3 PUSH2 0x817 DUP3 PUSH2 0x1AB7 JUMP JUMPDEST PUSH2 0xC4C PUSH2 0x287F JUMP JUMPDEST CALLER PUSH1 0x0 SWAP1 DUP2 MSTORE PUSH1 0x8 PUSH1 0x20 MSTORE PUSH1 0x40 SWAP1 KECCAK256 SLOAD PUSH1 0xFF AND PUSH2 0xC7B JUMPI PUSH1 0x40 MLOAD PUSH3 0x461BCD PUSH1 0xE5 SHL DUP2 MSTORE PUSH1 0x4 ADD PUSH2 0x9B6 SWAP1 PUSH2 0x32C5 JUMP JUMPDEST CALLER PUSH1 0x0 SWAP1 DUP2 MSTORE PUSH1 0x9 PUSH1 0x20 MSTORE PUSH1 0x40 SWAP1 KECCAK256 PUSH1 0x3 ADD SLOAD DUP2 GT ISZERO PUSH2 0xCDD JUMPI PUSH1 0x40 MLOAD PUSH3 0x461BCD PUSH1 0xE5 SHL DUP2 MSTORE PUSH1 0x20 PUSH1 0x4 DUP3 ADD MSTORE PUSH1 0x1C PUSH1 0x24 DUP3 ADD MSTORE PUSH32 0x496E73756666696369656E7420617661696C61626C652066756E647300000000 PUSH1 0x44 DUP3 ADD MSTORE PUSH1 0x64 ADD PUSH2 0x9B6 JUMP JUMPDEST CALLER PUSH1 0x0 SWAP1 DUP2 MSTORE PUSH1 0x9 PUSH1 0x20 MSTORE PUSH1 0x40 DUP2 KECCAK256 PUSH1 0x3 ADD DUP1 SLOAD DUP4 SWAP3 SWAP1 PUSH2 0xCFF SWAP1 DUP5 SWAP1 PUSH2 0x32F5 JUMP JUMPDEST SWAP1 SWAP2 SSTORE POP POP PUSH1 0x2 SLOAD PUSH1 0x40 MLOAD PUSH4 0xA9059CBB PUSH1 0xE0 SHL DUP2 MSTORE CALLER PUSH1 0x4 DUP3 ADD MSTORE PUSH1 0x24 DUP2 ADD DUP4 SWAP1 MSTORE PUSH1 0x1 PUSH1 0x1 PUSH1 0xA0 SHL SUB SWAP1 SWAP2 AND SWAP1 PUSH4 0xA9059CBB SWAP1 PUSH1 0x44 ADD PUSH1 0x20 PUSH1 0x40 MLOAD DUP1 DUP4 SUB DUP2 PUSH1 0x0 DUP8 GAS CALL ISZERO DUP1 ISZERO PUSH2 0xD55 JUMPI RETURNDATASIZE PUSH1 0x0 DUP1 RETURNDATACOPY RETURNDATASIZE PUSH1 0x0 REVERT JUMPDEST POP POP POP POP PUSH1 0x40 MLOAD RETURNDATASIZE PUSH1 0x1F NOT PUSH1 0x1F DUP3 ADD AND DUP3 ADD DUP1 PUSH1 0x40 MSTORE POP DUP2 ADD SWAP1 PUSH2 0xD79 SWAP2 SWAP1 PUSH2 0x3086 JUMP JUMPDEST PUSH2 0xD95 JUMPI PUSH1 0x40 MLOAD PUSH3 0x461BCD PUSH1 0xE5 SHL DUP2 MSTORE PUSH1 0x4 ADD PUSH2 0x9B6 SWAP1 PUSH2 0x3308 JUMP JUMPDEST PUSH2 0xD9E PUSH1 0x1 DUP1 SSTORE JUMP JUMPDEST POP JUMP JUMPDEST PUSH1 0x0 DUP3 DUP2 MSTORE PUSH1 0x4 PUSH1 0x20 MSTORE PUSH1 0x40 SWAP1 KECCAK256 PUSH1 0x8 DUP2 ADD SLOAD PUSH2 0x100 SWAP1 DIV PUSH1 0xFF AND PUSH2 0xE37 JUMPI PUSH1 0x0 SLOAD PUSH1 0x1 PUSH1 0x1 PUSH1 0xA0 SHL SUB AND CALLER EQ DUP1 PUSH2 0xDEB JUMPI POP PUSH1 0x8 DUP2 ADD SLOAD PUSH3 0x10000 SWAP1 DIV PUSH1 0x1 PUSH1 0x1 PUSH1 0xA0 SHL SUB AND CALLER EQ JUMPDEST PUSH2 0xE37 JUMPI PUSH1 0x40 MLOAD PUSH3 0x461BCD PUSH1 0xE5 SHL DUP2 MSTORE PUSH1 0x20 PUSH1 0x4 DUP3 ADD MSTORE PUSH1 0x18 PUSH1 0x24 DUP3 ADD MSTORE PUSH32 0x4E6F7420617574686F72697A656420746F2072656A6563740000000000000000 PUSH1 0x44 DUP3 ADD MSTORE PUSH1 0x64 ADD PUSH2 0x9B6 JUMP JUMPDEST PUSH1 0x0 PUSH1 0x8 DUP3 ADD SLOAD PUSH1 0xFF AND PUSH1 0x4 DUP2 GT ISZERO PUSH2 0xE52 JUMPI PUSH2 0xE52 PUSH2 0x2DD9 JUMP JUMPDEST EQ PUSH2 0xE95 JUMPI PUSH1 0x40 MLOAD PUSH3 0x461BCD PUSH1 0xE5 SHL DUP2 MSTORE PUSH1 0x20 PUSH1 0x4 DUP3 ADD MSTORE PUSH1 0x13 PUSH1 0x24 DUP3 ADD MSTORE PUSH19 0x4C6F616E206973206E6F742070656E64696E67 PUSH1 0x68 SHL PUSH1 0x44 DUP3 ADD MSTORE PUSH1 0x64 ADD PUSH2 0x9B6 JUMP JUMPDEST PUSH1 0x8 DUP2 ADD DUP1 SLOAD PUSH1 0xFF NOT AND PUSH1 0x4 OR SWAP1 SSTORE PUSH1 0x40 MLOAD DUP4 SWAP1 PUSH32 0x58A92B8125E50B6535529020AE640E062970AC4391913298BC2DA5BF3E818E70 SWAP1 PUSH2 0xED6 SWAP1 DUP6 SWAP1 PUSH2 0x3337 JUMP JUMPDEST PUSH1 0x40 MLOAD DUP1 SWAP2 SUB SWAP1 LOG2 POP POP POP JUMP JUMPDEST PUSH1 0x0 DUP2 DUP2 MSTORE PUSH1 0x4 PUSH1 0x20 DUP2 DUP2 MSTORE PUSH1 0x40 DUP1 DUP5 KECCAK256 DUP2 MLOAD PUSH2 0x180 DUP2 ADD DUP4 MSTORE DUP2 SLOAD DUP2 MSTORE PUSH1 0x1 DUP3 ADD SLOAD PUSH1 0x1 PUSH1 0x1 PUSH1 0xA0 SHL SUB AND SWAP4 DUP2 ADD SWAP4 SWAP1 SWAP4 MSTORE PUSH1 0x2 DUP2 ADD SLOAD SWAP2 DUP4 ADD SWAP2 SWAP1 SWAP2 MSTORE PUSH1 0x3 DUP2 ADD SLOAD PUSH1 0x60 DUP4 DUP2 ADD SWAP2 SWAP1 SWAP2 MSTORE DUP2 DUP5 ADD SLOAD PUSH1 0x80 DUP5 ADD MSTORE PUSH1 0x5 DUP3 ADD SLOAD PUSH1 0xA0 DUP5 ADD MSTORE PUSH1 0x6 DUP3 ADD SLOAD PUSH1 0xC0 DUP5 ADD MSTORE PUSH1 0x7 DUP3 ADD SLOAD PUSH1 0xE0 DUP5 ADD MSTORE PUSH1 0x8 DUP3 ADD SLOAD DUP6 SWAP5 DUP6 SWAP5 DUP6 SWAP5 DUP6 SWAP5 DUP6 SWAP5 DUP6 SWAP5 DUP6 SWAP5 DUP6 SWAP5 DUP6 SWAP5 SWAP4 DUP6 SWAP4 PUSH2 0x100 DUP5 ADD SWAP2 PUSH1 0xFF AND SWAP1 DUP2 GT ISZERO PUSH2 0xF8A JUMPI PUSH2 0xF8A PUSH2 0x2DD9 JUMP JUMPDEST PUSH1 0x4 DUP2 GT ISZERO PUSH2 0xF9B JUMPI PUSH2 0xF9B PUSH2 0x2DD9 JUMP JUMPDEST DUP2 MSTORE PUSH1 0x8 DUP3 ADD SLOAD PUSH2 0x100 DUP2 DIV PUSH1 0xFF AND ISZERO ISZERO PUSH1 0x20 DUP4 ADD MSTORE PUSH3 0x10000 SWAP1 DIV PUSH1 0x1 PUSH1 0x1 PUSH1 0xA0 SHL SUB AND PUSH1 0x40 DUP3 ADD MSTORE PUSH1 0x9 DUP3 ADD DUP1 SLOAD PUSH1 0x60 SWAP1 SWAP3 ADD SWAP2 PUSH2 0xFDA SWAP1 PUSH2 0x313A JUMP JUMPDEST DUP1 PUSH1 0x1F ADD PUSH1 0x20 DUP1 SWAP2 DIV MUL PUSH1 0x20 ADD PUSH1 0x40 MLOAD SWAP1 DUP2 ADD PUSH1 0x40 MSTORE DUP1 SWAP3 SWAP2 SWAP1 DUP2 DUP2 MSTORE PUSH1 0x20 ADD DUP3 DUP1 SLOAD PUSH2 0x1006 SWAP1 PUSH2 0x313A JUMP JUMPDEST DUP1 ISZERO PUSH2 0x1053 JUMPI DUP1 PUSH1 0x1F LT PUSH2 0x1028 JUMPI PUSH2 0x100 DUP1 DUP4 SLOAD DIV MUL DUP4 MSTORE SWAP2 PUSH1 0x20 ADD SWAP2 PUSH2 0x1053 JUMP JUMPDEST DUP3 ADD SWAP2 SWAP1 PUSH1 0x0 MSTORE PUSH1 0x20 PUSH1 0x0 KECCAK256 SWAP1 JUMPDEST DUP2 SLOAD DUP2 MSTORE SWAP1 PUSH1 0x1 ADD SWAP1 PUSH1 0x20 ADD DUP1 DUP4 GT PUSH2 0x1036 JUMPI DUP3 SWAP1 SUB PUSH1 0x1F AND DUP3 ADD SWAP2 JUMPDEST POP POP POP POP POP DUP2 MSTORE POP POP SWAP1 POP DUP1 PUSH1 0x20 ADD MLOAD DUP2 PUSH1 0x40 ADD MLOAD DUP3 PUSH1 0x60 ADD MLOAD DUP4 PUSH1 0x80 ADD MLOAD DUP5 PUSH1 0xA0 ADD MLOAD DUP6 PUSH1 0xC0 ADD MLOAD DUP7 PUSH1 0xE0 ADD MLOAD DUP8 PUSH2 0x100 ADD MLOAD DUP9 PUSH2 0x120 ADD MLOAD DUP10 PUSH2 0x140 ADD MLOAD DUP11 PUSH2 0x160 ADD MLOAD SWAP12 POP SWAP12 POP SWAP12 POP SWAP12 POP SWAP12 POP SWAP12 POP SWAP12 POP SWAP12 POP SWAP12 POP SWAP12 POP SWAP12 POP POP SWAP2 SWAP4 SWAP6 SWAP8 SWAP10 SWAP12 SWAP1 SWAP3 SWAP5 SWAP7 SWAP9 SWAP11 POP JUMP JUMPDEST PUSH2 0x10C7 PUSH2 0x2825 JUMP JUMPDEST PUSH2 0x10D1 PUSH1 0x0 PUSH2 0x28D8 JUMP JUMPDEST JUMP JUMPDEST PUSH2 0x10DB PUSH2 0x2825 JUMP JUMPDEST PUSH1 0x1 PUSH1 0x1 PUSH1 0xA0 SHL SUB DUP2 AND PUSH1 0x0 SWAP1 DUP2 MSTORE PUSH1 0x8 PUSH1 0x20 MSTORE PUSH1 0x40 SWAP1 KECCAK256 SLOAD PUSH1 0xFF AND PUSH2 0x113B JUMPI PUSH1 0x40 MLOAD PUSH3 0x461BCD PUSH1 0xE5 SHL DUP2 MSTORE PUSH1 0x20 PUSH1 0x4 DUP3 ADD MSTORE PUSH1 0x15 PUSH1 0x24 DUP3 ADD MSTORE PUSH21 0x13195B99195C88191BD95CC81B9BDD08195E1A5CDD PUSH1 0x5A SHL PUSH1 0x44 DUP3 ADD MSTORE PUSH1 0x64 ADD PUSH2 0x9B6 JUMP JUMPDEST PUSH1 0x1 PUSH1 0x1 PUSH1 0xA0 SHL SUB DUP2 AND PUSH1 0x0 DUP2 DUP2 MSTORE PUSH1 0x8 PUSH1 0x20 SWAP1 DUP2 MSTORE PUSH1 0x40 DUP1 DUP4 KECCAK256 DUP1 SLOAD PUSH1 0xFF NOT SWAP1 DUP2 AND SWAP1 SWAP2 SSTORE PUSH1 0x9 SWAP1 SWAP3 MSTORE DUP1 DUP4 KECCAK256 PUSH1 0x2 ADD DUP1 SLOAD SWAP1 SWAP3 AND SWAP1 SWAP2 SSTORE MLOAD PUSH32 0x503890814436E1B1D481A5ACE3C4465FA90D978EBC88DDAF5505D5B6A259A882 SWAP2 SWAP1 LOG2 POP JUMP JUMPDEST PUSH2 0x11A4 PUSH2 0x287F JUMP JUMPDEST PUSH1 0x0 DUP3 DUP2 MSTORE PUSH1 0x4 PUSH1 0x20 MSTORE PUSH1 0x40 SWAP1 KECCAK256 PUSH1 0x1 PUSH1 0x8 DUP3 ADD SLOAD PUSH1 0xFF AND PUSH1 0x4 DUP2 GT ISZERO PUSH2 0x11CD JUMPI PUSH2 0x11CD PUSH2 0x2DD9 JUMP JUMPDEST EQ PUSH2 0x120F JUMPI PUSH1 0x40 MLOAD PUSH3 0x461BCD PUSH1 0xE5 SHL DUP2 MSTORE PUSH1 0x20 PUSH1 0x4 DUP3 ADD MSTORE PUSH1 0x12 PUSH1 0x24 DUP3 ADD MSTORE PUSH18 0x4C6F616E206973206E6F7420616374697665 PUSH1 0x70 SHL PUSH1 0x44 DUP3 ADD MSTORE PUSH1 0x64 ADD PUSH2 0x9B6 JUMP JUMPDEST PUSH1 0x0 DUP3 GT PUSH2 0x125F JUMPI PUSH1 0x40 MLOAD PUSH3 0x461BCD PUSH1 0xE5 SHL DUP2 MSTORE PUSH1 0x20 PUSH1 0x4 DUP3 ADD DUP2 SWAP1 MSTORE PUSH1 0x24 DUP3 ADD MSTORE PUSH32 0x416D6F756E74206D7573742062652067726561746572207468616E207A65726F PUSH1 0x44 DUP3 ADD MSTORE PUSH1 0x64 ADD PUSH2 0x9B6 JUMP JUMPDEST PUSH1 0x40 DUP1 MLOAD PUSH2 0x180 DUP2 ADD DUP3 MSTORE DUP3 SLOAD DUP2 MSTORE PUSH1 0x1 DUP4 ADD SLOAD PUSH1 0x1 PUSH1 0x1 PUSH1 0xA0 SHL SUB AND PUSH1 0x20 DUP3 ADD MSTORE PUSH1 0x2 DUP4 ADD SLOAD SWAP2 DUP2 ADD SWAP2 SWAP1 SWAP2 MSTORE PUSH1 0x3 DUP3 ADD SLOAD PUSH1 0x60 DUP3 ADD MSTORE PUSH1 0x4 DUP1 DUP4 ADD SLOAD PUSH1 0x80 DUP4 ADD MSTORE PUSH1 0x5 DUP4 ADD SLOAD PUSH1 0xA0 DUP4 ADD MSTORE PUSH1 0x6 DUP4 ADD SLOAD PUSH1 0xC0 DUP4 ADD MSTORE PUSH1 0x7 DUP4 ADD SLOAD PUSH1 0xE0 DUP4 ADD MSTORE PUSH1 0x8 DUP4 ADD SLOAD PUSH1 0x0 SWAP3 PUSH2 0x13C0 SWAP3 SWAP1 SWAP2 DUP6 SWAP2 PUSH2 0x100 DUP5 ADD SWAP2 PUSH1 0xFF AND SWAP1 DUP2 GT ISZERO PUSH2 0x12E9 JUMPI PUSH2 0x12E9 PUSH2 0x2DD9 JUMP JUMPDEST PUSH1 0x4 DUP2 GT ISZERO PUSH2 0x12FA JUMPI PUSH2 0x12FA PUSH2 0x2DD9 JUMP JUMPDEST DUP2 MSTORE PUSH1 0x8 DUP3 ADD SLOAD PUSH2 0x100 DUP2 DIV PUSH1 0xFF AND ISZERO ISZERO PUSH1 0x20 DUP4 ADD MSTORE PUSH3 0x10000 SWAP1 DIV PUSH1 0x1 PUSH1 0x1 PUSH1 0xA0 SHL SUB AND PUSH1 0x40 DUP3 ADD MSTORE PUSH1 0x9 DUP3 ADD DUP1 SLOAD PUSH1 0x60 SWAP1 SWAP3 ADD SWAP2 PUSH2 0x1339 SWAP1 PUSH2 0x313A JUMP JUMPDEST DUP1 PUSH1 0x1F ADD PUSH1 0x20 DUP1 SWAP2 DIV MUL PUSH1 0x20 ADD PUSH1 0x40 MLOAD SWAP1 DUP2 ADD PUSH1 0x40 MSTORE DUP1 SWAP3 SWAP2 SWAP1 DUP2 DUP2 MSTORE PUSH1 0x20 ADD DUP3 DUP1 SLOAD PUSH2 0x1365 SWAP1 PUSH2 0x313A JUMP JUMPDEST DUP1 ISZERO PUSH2 0x13B2 JUMPI DUP1 PUSH1 0x1F LT PUSH2 0x1387 JUMPI PUSH2 0x100 DUP1 DUP4 SLOAD DIV MUL DUP4 MSTORE SWAP2 PUSH1 0x20 ADD SWAP2 PUSH2 0x13B2 JUMP JUMPDEST DUP3 ADD SWAP2 SWAP1 PUSH1 0x0 MSTORE PUSH1 0x20 PUSH1 0x0 KECCAK256 SWAP1 JUMPDEST DUP2 SLOAD DUP2 MSTORE SWAP1 PUSH1 0x1 ADD SWAP1 PUSH1 0x20 ADD DUP1 DUP4 GT PUSH2 0x1395 JUMPI DUP3 SWAP1 SUB PUSH1 0x1F AND DUP3 ADD SWAP2 JUMPDEST POP POP POP POP POP DUP2 MSTORE POP POP PUSH2 0x925 JUMP JUMPDEST SWAP1 POP PUSH1 0x0 DUP3 PUSH1 0x7 ADD SLOAD DUP3 PUSH2 0x13D4 SWAP2 SWAP1 PUSH2 0x32F5 JUMP JUMPDEST SWAP1 POP PUSH1 0x0 DUP2 DUP6 GT PUSH2 0x13E5 JUMPI DUP5 PUSH2 0x13E7 JUMP JUMPDEST DUP2 JUMPDEST PUSH1 0x2 SLOAD PUSH1 0x40 MLOAD PUSH4 0x23B872DD PUSH1 0xE0 SHL DUP2 MSTORE CALLER PUSH1 0x4 DUP3 ADD MSTORE ADDRESS PUSH1 0x24 DUP3 ADD MSTORE PUSH1 0x44 DUP2 ADD DUP4 SWAP1 MSTORE SWAP2 SWAP3 POP PUSH1 0x1 PUSH1 0x1 PUSH1 0xA0 SHL SUB AND SWAP1 PUSH4 0x23B872DD SWAP1 PUSH1 0x64 ADD PUSH1 0x20 PUSH1 0x40 MLOAD DUP1 DUP4 SUB DUP2 PUSH1 0x0 DUP8 GAS CALL ISZERO DUP1 ISZERO PUSH2 0x143F JUMPI RETURNDATASIZE PUSH1 0x0 DUP1 RETURNDATACOPY RETURNDATASIZE PUSH1 0x0 REVERT JUMPDEST POP POP POP POP PUSH1 0x40 MLOAD RETURNDATASIZE PUSH1 0x1F NOT PUSH1 0x1F DUP3 ADD AND DUP3 ADD DUP1 PUSH1 0x40 MSTORE POP DUP2 ADD SWAP1 PUSH2 0x1463 SWAP2 SWAP1 PUSH2 0x3086 JUMP JUMPDEST PUSH2 0x147F JUMPI PUSH1 0x40 MLOAD PUSH3 0x461BCD PUSH1 0xE5 SHL DUP2 MSTORE PUSH1 0x4 ADD PUSH2 0x9B6 SWAP1 PUSH2 0x3308 JUMP JUMPDEST DUP1 DUP5 PUSH1 0x7 ADD PUSH1 0x0 DUP3 DUP3 SLOAD PUSH2 0x1493 SWAP2 SWAP1 PUSH2 0x3127 JUMP JUMPDEST SWAP1 SWAP2 SSTORE POP POP PUSH1 0x0 DUP7 DUP2 MSTORE PUSH1 0x5 PUSH1 0x20 SWAP1 DUP2 MSTORE PUSH1 0x40 DUP1 DUP4 KECCAK256 DUP2 MLOAD PUSH1 0x80 DUP2 ADD DUP4 MSTORE DUP11 DUP2 MSTORE DUP1 DUP5 ADD DUP7 DUP2 MSTORE TIMESTAMP SWAP4 DUP3 ADD SWAP4 DUP5 MSTORE CALLER PUSH1 0x60 DUP4 ADD SWAP1 DUP2 MSTORE DUP4 SLOAD PUSH1 0x1 DUP1 DUP3 ADD DUP7 SSTORE SWAP5 DUP9 MSTORE SWAP6 DUP8 KECCAK256 SWAP3 MLOAD PUSH1 0x4 SWAP1 SWAP7 MUL SWAP1 SWAP3 ADD SWAP5 DUP6 SSTORE MLOAD SWAP2 DUP5 ADD SWAP2 SWAP1 SWAP2 SSTORE SWAP1 MLOAD PUSH1 0x2 DUP4 ADD SSTORE MLOAD PUSH1 0x3 SWAP1 SWAP2 ADD DUP1 SLOAD PUSH1 0x1 PUSH1 0x1 PUSH1 0xA0 SHL SUB NOT AND PUSH1 0x1 PUSH1 0x1 PUSH1 0xA0 SHL SUB SWAP1 SWAP3 AND SWAP2 SWAP1 SWAP2 OR SWAP1 SSTORE PUSH1 0xF SLOAD PUSH2 0x2710 SWAP1 PUSH2 0x1528 SWAP1 DUP5 PUSH2 0x30E8 JUMP JUMPDEST PUSH2 0x1532 SWAP2 SWAP1 PUSH2 0x3105 JUMP JUMPDEST SWAP1 POP PUSH1 0x0 PUSH2 0x1540 DUP3 DUP5 PUSH2 0x32F5 JUMP JUMPDEST SWAP1 POP DUP2 ISZERO PUSH2 0x15C3 JUMPI PUSH1 0x2 SLOAD PUSH1 0x10 SLOAD PUSH1 0x40 MLOAD PUSH4 0xA9059CBB PUSH1 0xE0 SHL DUP2 MSTORE PUSH1 0x1 PUSH1 0x1 PUSH1 0xA0 SHL SUB SWAP2 DUP3 AND PUSH1 0x4 DUP3 ADD MSTORE PUSH1 0x24 DUP2 ADD DUP6 SWAP1 MSTORE SWAP2 AND SWAP1 PUSH4 0xA9059CBB SWAP1 PUSH1 0x44 ADD PUSH1 0x20 PUSH1 0x40 MLOAD DUP1 DUP4 SUB DUP2 PUSH1 0x0 DUP8 GAS CALL ISZERO DUP1 ISZERO PUSH2 0x159D JUMPI RETURNDATASIZE PUSH1 0x0 DUP1 RETURNDATACOPY RETURNDATASIZE PUSH1 0x0 REVERT JUMPDEST POP POP POP POP PUSH1 0x40 MLOAD RETURNDATASIZE PUSH1 0x1F NOT PUSH1 0x1F DUP3 ADD AND DUP3 ADD DUP1 PUSH1 0x40 MSTORE POP DUP2 ADD SWAP1 PUSH2 0x15C1 SWAP2 SWAP1 PUSH2 0x3086 JUMP JUMPDEST POP JUMPDEST PUSH1 0x8 DUP7 ADD SLOAD PUSH2 0x100 SWAP1 DIV PUSH1 0xFF AND PUSH2 0x1682 JUMPI PUSH1 0x8 DUP7 ADD SLOAD PUSH1 0x0 SWAP1 PUSH3 0x10000 SWAP1 DIV PUSH1 0x1 PUSH1 0x1 PUSH1 0xA0 SHL SUB AND ISZERO PUSH2 0x1609 JUMPI PUSH1 0x8 DUP8 ADD SLOAD PUSH3 0x10000 SWAP1 DIV PUSH1 0x1 PUSH1 0x1 PUSH1 0xA0 SHL SUB AND PUSH2 0x1616 JUMP JUMPDEST PUSH1 0x0 SLOAD PUSH1 0x1 PUSH1 0x1 PUSH1 0xA0 SHL SUB AND JUMPDEST PUSH1 0x1 PUSH1 0x1 PUSH1 0xA0 SHL SUB DUP2 AND PUSH1 0x0 SWAP1 DUP2 MSTORE PUSH1 0x9 PUSH1 0x20 MSTORE PUSH1 0x40 DUP2 KECCAK256 PUSH1 0x5 ADD DUP1 SLOAD SWAP3 SWAP4 POP DUP5 SWAP3 SWAP1 SWAP2 SWAP1 PUSH2 0x1646 SWAP1 DUP5 SWAP1 PUSH2 0x3127 JUMP JUMPDEST SWAP1 SWAP2 SSTORE POP POP PUSH1 0x1 PUSH1 0x1 PUSH1 0xA0 SHL SUB DUP2 AND PUSH1 0x0 SWAP1 DUP2 MSTORE PUSH1 0x9 PUSH1 0x20 MSTORE PUSH1 0x40 DUP2 KECCAK256 PUSH1 0x3 ADD DUP1 SLOAD DUP5 SWAP3 SWAP1 PUSH2 0x1676 SWAP1 DUP5 SWAP1 PUSH2 0x3127 JUMP JUMPDEST SWAP1 SWAP2 SSTORE POP PUSH2 0x1705 SWAP2 POP POP JUMP JUMPDEST PUSH1 0x2 SLOAD PUSH1 0x8 DUP8 ADD SLOAD PUSH1 0x40 MLOAD PUSH4 0xA9059CBB PUSH1 0xE0 SHL DUP2 MSTORE PUSH1 0x1 PUSH1 0x1 PUSH1 0xA0 SHL SUB PUSH3 0x10000 SWAP1 SWAP3 DIV DUP3 AND PUSH1 0x4 DUP3 ADD MSTORE PUSH1 0x24 DUP2 ADD DUP5 SWAP1 MSTORE SWAP2 AND SWAP1 PUSH4 0xA9059CBB SWAP1 PUSH1 0x44 ADD PUSH1 0x20 PUSH1 0x40 MLOAD DUP1 DUP4 SUB DUP2 PUSH1 0x0 DUP8 GAS CALL ISZERO DUP1 ISZERO PUSH2 0x16DF JUMPI RETURNDATASIZE PUSH1 0x0 DUP1 RETURNDATACOPY RETURNDATASIZE PUSH1 0x0 REVERT JUMPDEST POP POP POP POP PUSH1 0x40 MLOAD RETURNDATASIZE PUSH1 0x1F NOT PUSH1 0x1F DUP3 ADD AND DUP3 ADD DUP1 PUSH1 0x40 MSTORE POP DUP2 ADD SWAP1 PUSH2 0x1703 SWAP2 SWAP1 PUSH2 0x3086 JUMP JUMPDEST POP JUMPDEST PUSH1 0x1 DUP1 DUP8 ADD SLOAD PUSH1 0x1 PUSH1 0x1 PUSH1 0xA0 SHL SUB AND PUSH1 0x0 SWAP1 DUP2 MSTORE PUSH1 0x7 PUSH1 0x20 MSTORE PUSH1 0x40 DUP2 KECCAK256 SWAP1 SWAP2 ADD DUP1 SLOAD DUP6 SWAP3 SWAP1 PUSH2 0x1735 SWAP1 DUP5 SWAP1 PUSH2 0x3127 JUMP JUMPDEST SWAP1 SWAP2 SSTORE POP POP PUSH1 0x40 MLOAD DUP4 DUP2 MSTORE CALLER SWAP1 DUP10 SWAP1 PUSH32 0x780EF358C62AFE5202061FC77819FA12618913022159D66995A4E513E18404C6 SWAP1 PUSH1 0x20 ADD PUSH1 0x40 MLOAD DUP1 SWAP2 SUB SWAP1 LOG3 DUP5 DUP7 PUSH1 0x7 ADD SLOAD LT PUSH2 0x1807 JUMPI PUSH1 0x8 DUP7 ADD DUP1 SLOAD PUSH1 0xFF NOT AND PUSH1 0x2 SWAP1 DUP2 OR SWAP1 SWAP2 SSTORE PUSH1 0x1 DUP1 DUP9 ADD SLOAD PUSH1 0x1 PUSH1 0x1 PUSH1 0xA0 SHL SUB AND PUSH1 0x0 SWAP1 DUP2 MSTORE PUSH1 0x7 PUSH1 0x20 MSTORE PUSH1 0x40 DUP2 KECCAK256 SWAP1 SWAP3 ADD DUP1 SLOAD SWAP2 SWAP3 SWAP1 SWAP2 PUSH2 0x17BF SWAP1 DUP5 SWAP1 PUSH2 0x3127 JUMP JUMPDEST SWAP1 SWAP2 SSTORE POP POP PUSH1 0x1 DUP7 ADD SLOAD PUSH2 0x17DB SWAP1 PUSH1 0x1 PUSH1 0x1 PUSH1 0xA0 SHL SUB AND PUSH2 0x2928 JUMP JUMPDEST PUSH1 0x40 MLOAD DUP9 SWAP1 PUSH32 0x6A65A58027E68282A85AC65A7AFC6580EF3D139C6E6EC12AE8D82DE13566E8CC SWAP1 PUSH1 0x0 SWAP1 LOG2 JUMPDEST POP POP POP POP POP POP PUSH2 0x1816 PUSH1 0x1 DUP1 SSTORE JUMP JUMPDEST POP POP JUMP JUMPDEST CALLER PUSH1 0x0 SWAP1 DUP2 MSTORE PUSH1 0x8 PUSH1 0x20 MSTORE PUSH1 0x40 SWAP1 KECCAK256 SLOAD PUSH1 0xFF AND PUSH2 0x1849 JUMPI PUSH1 0x40 MLOAD PUSH3 0x461BCD PUSH1 0xE5 SHL DUP2 MSTORE PUSH1 0x4 ADD PUSH2 0x9B6 SWAP1 PUSH2 0x32C5 JUMP JUMPDEST CALLER PUSH1 0x0 SWAP1 DUP2 MSTORE PUSH1 0x9 PUSH1 0x20 MSTORE PUSH1 0x40 SWAP1 KECCAK256 PUSH1 0x2 ADD SLOAD PUSH1 0xFF AND PUSH2 0x18A2 JUMPI PUSH1 0x40 MLOAD PUSH3 0x461BCD PUSH1 0xE5 SHL DUP2 MSTORE PUSH1 0x20 PUSH1 0x4 DUP3 ADD MSTORE PUSH1 0x14 PUSH1 0x24 DUP3 ADD MSTORE PUSH20 0x4C656E646572206973206E6F7420616374697665 PUSH1 0x60 SHL PUSH1 0x44 DUP3 ADD MSTORE PUSH1 0x64 ADD PUSH2 0x9B6 JUMP JUMPDEST PUSH1 0x2 SLOAD PUSH1 0x40 MLOAD PUSH4 0x23B872DD PUSH1 0xE0 SHL DUP2 MSTORE CALLER PUSH1 0x4 DUP3 ADD MSTORE ADDRESS PUSH1 0x24 DUP3 ADD MSTORE PUSH1 0x44 DUP2 ADD DUP4 SWAP1 MSTORE PUSH1 0x1 PUSH1 0x1 PUSH1 0xA0 SHL SUB SWAP1 SWAP2 AND SWAP1 PUSH4 0x23B872DD SWAP1 PUSH1 0x64 ADD PUSH1 0x20 PUSH1 0x40 MLOAD DUP1 DUP4 SUB DUP2 PUSH1 0x0 DUP8 GAS CALL ISZERO DUP1 ISZERO PUSH2 0x18F9 JUMPI RETURNDATASIZE PUSH1 0x0 DUP1 RETURNDATACOPY RETURNDATASIZE PUSH1 0x0 REVERT JUMPDEST POP POP POP POP PUSH1 0x40 MLOAD RETURNDATASIZE PUSH1 0x1F NOT PUSH1 0x1F DUP3 ADD AND DUP3 ADD DUP1 PUSH1 0x40 MSTORE POP DUP2 ADD SWAP1 PUSH2 0x191D SWAP2 SWAP1 PUSH2 0x3086 JUMP JUMPDEST PUSH2 0x1939 JUMPI PUSH1 0x40 MLOAD PUSH3 0x461BCD PUSH1 0xE5 SHL DUP2 MSTORE PUSH1 0x4 ADD PUSH2 0x9B6 SWAP1 PUSH2 0x3308 JUMP JUMPDEST CALLER PUSH1 0x0 SWAP1 DUP2 MSTORE PUSH1 0x9 PUSH1 0x20 MSTORE PUSH1 0x40 DUP2 KECCAK256 PUSH1 0x3 ADD DUP1 SLOAD DUP4 SWAP3 SWAP1 PUSH2 0x195B SWAP1 DUP5 SWAP1 PUSH2 0x3127 JUMP JUMPDEST SWAP1 SWAP2 SSTORE POP POP POP JUMP JUMPDEST PUSH2 0x196B PUSH2 0x2825 JUMP JUMPDEST PUSH1 0x0 DUP2 DUP2 MSTORE PUSH1 0x4 PUSH1 0x20 MSTORE PUSH1 0x40 SWAP1 KECCAK256 PUSH1 0x1 PUSH1 0x8 DUP3 ADD SLOAD PUSH1 0xFF AND PUSH1 0x4 DUP2 GT ISZERO PUSH2 0x1994 JUMPI PUSH2 0x1994 PUSH2 0x2DD9 JUMP JUMPDEST EQ PUSH2 0x19D6 JUMPI PUSH1 0x40 MLOAD PUSH3 0x461BCD PUSH1 0xE5 SHL DUP2 MSTORE PUSH1 0x20 PUSH1 0x4 DUP3 ADD MSTORE PUSH1 0x12 PUSH1 0x24 DUP3 ADD MSTORE PUSH18 0x4C6F616E206973206E6F7420616374697665 PUSH1 0x70 SHL PUSH1 0x44 DUP3 ADD MSTORE PUSH1 0x64 ADD PUSH2 0x9B6 JUMP JUMPDEST DUP1 PUSH1 0x6 ADD SLOAD TIMESTAMP GT PUSH2 0x1A29 JUMPI PUSH1 0x40 MLOAD PUSH3 0x461BCD PUSH1 0xE5 SHL DUP2 MSTORE PUSH1 0x20 PUSH1 0x4 DUP3 ADD MSTORE PUSH1 0x17 PUSH1 0x24 DUP3 ADD MSTORE PUSH32 0x4C6F616E206973206E6F7420796574206F766572647565000000000000000000 PUSH1 0x44 DUP3 ADD MSTORE PUSH1 0x64 ADD PUSH2 0x9B6 JUMP JUMPDEST PUSH1 0x8 DUP2 ADD DUP1 SLOAD PUSH1 0xFF NOT AND PUSH1 0x3 SWAP1 DUP2 OR SWAP1 SWAP2 SSTORE PUSH1 0x1 DUP1 DUP4 ADD SLOAD PUSH1 0x1 PUSH1 0x1 PUSH1 0xA0 SHL SUB AND PUSH1 0x0 SWAP1 DUP2 MSTORE PUSH1 0x7 PUSH1 0x20 MSTORE PUSH1 0x40 DUP2 KECCAK256 SWAP1 SWAP3 ADD DUP1 SLOAD SWAP2 SWAP3 SWAP1 SWAP2 PUSH2 0x1A6C SWAP1 DUP5 SWAP1 PUSH2 0x3127 JUMP JUMPDEST SWAP1 SWAP2 SSTORE POP POP PUSH1 0x1 DUP2 ADD SLOAD PUSH2 0x1A88 SWAP1 PUSH1 0x1 PUSH1 0x1 PUSH1 0xA0 SHL SUB AND PUSH2 0x2928 JUMP JUMPDEST PUSH1 0x40 MLOAD DUP3 SWAP1 PUSH32 0x789B7097E8066538CFAA1132488B132E14BA5F0C938C8B7AAF8CF40356AAB0B SWAP1 PUSH1 0x0 SWAP1 LOG2 POP POP JUMP JUMPDEST PUSH1 0x0 DUP2 DUP2 MSTORE PUSH1 0x4 PUSH1 0x20 MSTORE PUSH1 0x40 SWAP1 KECCAK256 PUSH1 0x8 DUP2 ADD SLOAD PUSH2 0x100 SWAP1 DIV PUSH1 0xFF AND PUSH2 0x1B4D JUMPI PUSH1 0x0 SLOAD PUSH1 0x1 PUSH1 0x1 PUSH1 0xA0 SHL SUB AND CALLER EQ DUP1 PUSH2 0x1B01 JUMPI POP PUSH1 0x8 DUP2 ADD SLOAD PUSH3 0x10000 SWAP1 DIV PUSH1 0x1 PUSH1 0x1 PUSH1 0xA0 SHL SUB AND CALLER EQ JUMPDEST PUSH2 0x1B4D JUMPI PUSH1 0x40 MLOAD PUSH3 0x461BCD PUSH1 0xE5 SHL DUP2 MSTORE PUSH1 0x20 PUSH1 0x4 DUP3 ADD MSTORE PUSH1 0x19 PUSH1 0x24 DUP3 ADD MSTORE PUSH32 0x4E6F7420617574686F72697A656420746F20617070726F766500000000000000 PUSH1 0x44 DUP3 ADD MSTORE PUSH1 0x64 ADD PUSH2 0x9B6 JUMP JUMPDEST PUSH1 0x0 PUSH1 0x8 DUP3 ADD SLOAD PUSH1 0xFF AND PUSH1 0x4 DUP2 GT ISZERO PUSH2 0x1B68 JUMPI PUSH2 0x1B68 PUSH2 0x2DD9 JUMP JUMPDEST EQ PUSH2 0x1BAB JUMPI PUSH1 0x40 MLOAD PUSH3 0x461BCD PUSH1 0xE5 SHL DUP2 MSTORE PUSH1 0x20 PUSH1 0x4 DUP3 ADD MSTORE PUSH1 0x13 PUSH1 0x24 DUP3 ADD MSTORE PUSH19 0x4C6F616E206973206E6F742070656E64696E67 PUSH1 0x68 SHL PUSH1 0x44 DUP3 ADD MSTORE PUSH1 0x64 ADD PUSH2 0x9B6 JUMP JUMPDEST PUSH1 0x8 DUP2 ADD DUP1 SLOAD PUSH1 0xFF NOT AND PUSH1 0x1 OR SWAP1 SSTORE TIMESTAMP PUSH1 0x5 DUP3 ADD SSTORE PUSH1 0x4 DUP2 ADD SLOAD PUSH2 0x1BD2 SWAP1 PUSH3 0x15180 PUSH2 0x30E8 JUMP JUMPDEST PUSH2 0x1BDC SWAP1 TIMESTAMP PUSH2 0x3127 JUMP JUMPDEST PUSH1 0x6 DUP3 ADD SSTORE PUSH1 0x8 DUP2 ADD SLOAD PUSH2 0x100 SWAP1 DIV PUSH1 0xFF AND PUSH2 0x1CA2 JUMPI PUSH1 0x8 DUP2 ADD SLOAD PUSH1 0x0 SWAP1 PUSH3 0x10000 SWAP1 DIV PUSH1 0x1 PUSH1 0x1 PUSH1 0xA0 SHL SUB AND ISZERO PUSH2 0x1C27 JUMPI PUSH1 0x8 DUP3 ADD SLOAD PUSH3 0x10000 SWAP1 DIV PUSH1 0x1 PUSH1 0x1 PUSH1 0xA0 SHL SUB AND PUSH2 0x1C34 JUMP JUMPDEST PUSH1 0x0 SLOAD PUSH1 0x1 PUSH1 0x1 PUSH1 0xA0 SHL SUB AND JUMPDEST PUSH1 0x2 DUP4 ADD SLOAD PUSH1 0x1 PUSH1 0x1 PUSH1 0xA0 SHL SUB DUP3 AND PUSH1 0x0 SWAP1 DUP2 MSTORE PUSH1 0x9 PUSH1 0x20 MSTORE PUSH1 0x40 DUP2 KECCAK256 PUSH1 0x4 ADD DUP1 SLOAD SWAP4 SWAP5 POP SWAP2 SWAP3 PUSH2 0x1C66 SWAP1 DUP5 SWAP1 PUSH2 0x3127 JUMP JUMPDEST SWAP1 SWAP2 SSTORE POP POP PUSH1 0x2 DUP3 ADD SLOAD PUSH1 0x1 PUSH1 0x1 PUSH1 0xA0 SHL SUB DUP3 AND PUSH1 0x0 SWAP1 DUP2 MSTORE PUSH1 0x9 PUSH1 0x20 MSTORE PUSH1 0x40 DUP2 KECCAK256 PUSH1 0x3 ADD DUP1 SLOAD SWAP1 SWAP2 SWAP1 PUSH2 0x1C9B SWAP1 DUP5 SWAP1 PUSH2 0x32F5 JUMP JUMPDEST SWAP1 SWAP2 SSTORE POP POP POP JUMPDEST PUSH1 0x2 DUP2 ADD SLOAD PUSH1 0x1 DUP3 ADD SLOAD PUSH1 0x1 PUSH1 0x1 PUSH1 0xA0 SHL SUB AND PUSH1 0x0 SWAP1 DUP2 MSTORE PUSH1 0x7 PUSH1 0x20 MSTORE PUSH1 0x40 DUP2 KECCAK256 DUP1 SLOAD SWAP1 SWAP2 SWAP1 PUSH2 0x1CD3 SWAP1 DUP5 SWAP1 PUSH2 0x3127 JUMP JUMPDEST SWAP1 SWAP2 SSTORE POP POP PUSH1 0x1 DUP2 ADD DUP1 SLOAD PUSH1 0x1 PUSH1 0x1 PUSH1 0xA0 SHL SUB SWAP1 DUP2 AND PUSH1 0x0 SWAP1 DUP2 MSTORE PUSH1 0x7 PUSH1 0x20 MSTORE PUSH1 0x40 SWAP1 DUP2 SWAP1 KECCAK256 PUSH1 0x5 ADD DUP6 SWAP1 SSTORE PUSH1 0x2 DUP1 SLOAD SWAP4 SLOAD SWAP1 DUP6 ADD SLOAD SWAP2 MLOAD PUSH4 0xA9059CBB PUSH1 0xE0 SHL DUP2 MSTORE SWAP1 DUP4 AND PUSH1 0x4 DUP3 ADD MSTORE PUSH1 0x24 DUP2 ADD SWAP2 SWAP1 SWAP2 MSTORE SWAP2 AND SWAP1 PUSH4 0xA9059CBB SWAP1 PUSH1 0x44 ADD PUSH1 0x20 PUSH1 0x40 MLOAD DUP1 DUP4 SUB DUP2 PUSH1 0x0 DUP8 GAS CALL ISZERO DUP1 ISZERO PUSH2 0x1D50 JUMPI RETURNDATASIZE PUSH1 0x0 DUP1 RETURNDATACOPY RETURNDATASIZE PUSH1 0x0 REVERT JUMPDEST POP POP POP POP PUSH1 0x40 MLOAD RETURNDATASIZE PUSH1 0x1F NOT PUSH1 0x1F DUP3 ADD AND DUP3 ADD DUP1 PUSH1 0x40 MSTORE POP DUP2 ADD SWAP1 PUSH2 0x1D74 SWAP2 SWAP1 PUSH2 0x3086 JUMP JUMPDEST PUSH2 0x1D90 JUMPI PUSH1 0x40 MLOAD PUSH3 0x461BCD PUSH1 0xE5 SHL DUP2 MSTORE PUSH1 0x4 ADD PUSH2 0x9B6 SWAP1 PUSH2 0x3308 JUMP JUMPDEST PUSH1 0x40 MLOAD CALLER SWAP1 DUP4 SWAP1 PUSH32 0x8B6240997BC3AF56F5A9AEC0408B8286FB78FB0573F2BA96445BE3918511CB93 SWAP1 PUSH1 0x0 SWAP1 LOG3 POP POP JUMP JUMPDEST PUSH1 0x5 PUSH1 0x20 MSTORE DUP2 PUSH1 0x0 MSTORE PUSH1 0x40 PUSH1 0x0 KECCAK256 DUP2 DUP2 SLOAD DUP2 LT PUSH2 0x1DDD JUMPI PUSH1 0x0 DUP1 REVERT JUMPDEST PUSH1 0x0 SWAP2 DUP3 MSTORE PUSH1 0x20 SWAP1 SWAP2 KECCAK256 PUSH1 0x4 SWAP1 SWAP2 MUL ADD DUP1 SLOAD PUSH1 0x1 DUP3 ADD SLOAD PUSH1 0x2 DUP4 ADD SLOAD PUSH1 0x3 SWAP1 SWAP4 ADD SLOAD SWAP2 SWAP5 POP SWAP3 POP PUSH1 0x1 PUSH1 0x1 PUSH1 0xA0 SHL SUB AND DUP5 JUMP JUMPDEST PUSH2 0x1E18 PUSH2 0x2825 JUMP JUMPDEST PUSH1 0x1 PUSH1 0x1 PUSH1 0xA0 SHL SUB DUP5 AND PUSH1 0x0 SWAP1 DUP2 MSTORE PUSH1 0x8 PUSH1 0x20 MSTORE PUSH1 0x40 SWAP1 KECCAK256 SLOAD PUSH1 0xFF AND ISZERO PUSH2 0x1E79 JUMPI PUSH1 0x40 MLOAD PUSH3 0x461BCD PUSH1 0xE5 SHL DUP2 MSTORE PUSH1 0x20 PUSH1 0x4 DUP3 ADD MSTORE PUSH1 0x15 PUSH1 0x24 DUP3 ADD MSTORE PUSH21 0x4C656E64657220616C726561647920657869737473 PUSH1 0x58 SHL PUSH1 0x44 DUP3 ADD MSTORE PUSH1 0x64 ADD PUSH2 0x9B6 JUMP JUMPDEST PUSH1 0x1 PUSH1 0x1 PUSH1 0xA0 SHL SUB DUP5 DUP2 AND PUSH1 0x0 DUP2 DUP2 MSTORE PUSH1 0x8 PUSH1 0x20 SWAP1 DUP2 MSTORE PUSH1 0x40 DUP1 DUP4 KECCAK256 DUP1 SLOAD PUSH1 0x1 PUSH1 0xFF NOT SWAP1 SWAP2 AND DUP2 OR SWAP1 SWAP2 SSTORE PUSH1 0xA DUP1 SLOAD DUP1 DUP4 ADD SWAP1 SWAP2 SSTORE PUSH32 0xC65A7BB8D6351C1CF70C95A316CC6A92839C986682D98BC35F958F4883F9D2A8 ADD DUP1 SLOAD PUSH1 0x1 PUSH1 0x1 PUSH1 0xA0 SHL SUB NOT SWAP1 DUP2 AND DUP8 OR SWAP1 SWAP2 SSTORE DUP3 MLOAD PUSH2 0x100 DUP2 ADD DUP5 MSTORE DUP7 DUP2 MSTORE DUP1 DUP6 ADD DUP12 DUP2 MSTORE DUP2 DUP6 ADD DUP5 SWAP1 MSTORE PUSH1 0x60 DUP3 ADD DUP8 SWAP1 MSTORE PUSH1 0x80 DUP3 ADD DUP8 SWAP1 MSTORE PUSH1 0xA0 DUP3 ADD DUP8 SWAP1 MSTORE PUSH1 0xC0 DUP3 ADD DUP12 SWAP1 MSTORE PUSH1 0xE0 DUP3 ADD DUP11 SWAP1 MSTORE SWAP7 DUP7 MSTORE PUSH1 0x9 SWAP1 SWAP5 MSTORE SWAP2 SWAP1 SWAP4 KECCAK256 DUP3 MLOAD DUP2 SLOAD SWAP1 SWAP3 AND SWAP2 SWAP1 SWAP6 AND OR DUP5 SSTORE SWAP2 MLOAD SWAP2 SWAP3 SWAP2 SWAP1 DUP3 ADD SWAP1 PUSH2 0x1F4B SWAP1 DUP3 PUSH2 0x3205 JUMP JUMPDEST POP PUSH1 0x40 DUP3 DUP2 ADD MLOAD PUSH1 0x2 DUP4 ADD DUP1 SLOAD PUSH1 0xFF NOT AND SWAP2 ISZERO ISZERO SWAP2 SWAP1 SWAP2 OR SWAP1 SSTORE PUSH1 0x60 DUP4 ADD MLOAD PUSH1 0x3 DUP4 ADD SSTORE PUSH1 0x80 DUP4 ADD MLOAD PUSH1 0x4 DUP4 ADD SSTORE PUSH1 0xA0 DUP4 ADD MLOAD PUSH1 0x5 DUP4 ADD SSTORE PUSH1 0xC0 DUP4 ADD MLOAD PUSH1 0x6 DUP4 ADD SSTORE PUSH1 0xE0 SWAP1 SWAP3 ADD MLOAD PUSH1 0x7 SWAP1 SWAP2 ADD SSTORE MLOAD PUSH1 0x1 PUSH1 0x1 PUSH1 0xA0 SHL SUB DUP6 AND SWAP1 PUSH32 0x46E1817FE631C2E6EAE865CC7ACCEA90E1C793073FE5C9C225A6FFEBAF8A6A82 SWAP1 PUSH2 0x1FD2 SWAP1 DUP7 SWAP1 PUSH2 0x3337 JUMP JUMPDEST PUSH1 0x40 MLOAD DUP1 SWAP2 SUB SWAP1 LOG2 POP POP POP POP JUMP JUMPDEST PUSH2 0x1FE8 PUSH2 0x2825 JUMP JUMPDEST PUSH1 0xB SWAP5 SWAP1 SWAP5 SSTORE PUSH1 0xC SWAP3 SWAP1 SWAP3 SSTORE PUSH1 0xD SSTORE PUSH1 0xE SSTORE PUSH1 0xF SSTORE JUMP JUMPDEST PUSH1 0x60 DUP1 PUSH1 0x60 PUSH1 0x0 PUSH1 0x5 PUSH1 0x0 DUP7 DUP2 MSTORE PUSH1 0x20 ADD SWAP1 DUP2 MSTORE PUSH1 0x20 ADD PUSH1 0x0 KECCAK256 DUP1 SLOAD DUP1 PUSH1 0x20 MUL PUSH1 0x20 ADD PUSH1 0x40 MLOAD SWAP1 DUP2 ADD PUSH1 0x40 MSTORE DUP1 SWAP3 SWAP2 SWAP1 DUP2 DUP2 MSTORE PUSH1 0x20 ADD PUSH1 0x0 SWAP1 JUMPDEST DUP3 DUP3 LT ISZERO PUSH2 0x2096 JUMPI PUSH1 0x0 DUP5 DUP2 MSTORE PUSH1 0x20 SWAP1 DUP2 SWAP1 KECCAK256 PUSH1 0x40 DUP1 MLOAD PUSH1 0x80 DUP2 ADD DUP3 MSTORE PUSH1 0x4 DUP7 MUL SWAP1 SWAP3 ADD DUP1 SLOAD DUP4 MSTORE PUSH1 0x1 DUP1 DUP3 ADD SLOAD DUP5 DUP7 ADD MSTORE PUSH1 0x2 DUP3 ADD SLOAD SWAP3 DUP5 ADD SWAP3 SWAP1 SWAP3 MSTORE PUSH1 0x3 ADD SLOAD PUSH1 0x1 PUSH1 0x1 PUSH1 0xA0 SHL SUB AND PUSH1 0x60 DUP4 ADD MSTORE SWAP1 DUP4 MSTORE SWAP1 SWAP3 ADD SWAP2 ADD PUSH2 0x2039 JUMP JUMPDEST POP POP DUP3 MLOAD SWAP3 SWAP4 POP DUP3 SWAP2 POP POP PUSH8 0xFFFFFFFFFFFFFFFF DUP2 GT ISZERO PUSH2 0x20B9 JUMPI PUSH2 0x20B9 PUSH2 0x2B3D JUMP JUMPDEST PUSH1 0x40 MLOAD SWAP1 DUP1 DUP3 MSTORE DUP1 PUSH1 0x20 MUL PUSH1 0x20 ADD DUP3 ADD PUSH1 0x40 MSTORE DUP1 ISZERO PUSH2 0x20E2 JUMPI DUP2 PUSH1 0x20 ADD PUSH1 0x20 DUP3 MUL DUP1 CALLDATASIZE DUP4 CALLDATACOPY ADD SWAP1 POP JUMPDEST POP SWAP5 POP DUP1 PUSH8 0xFFFFFFFFFFFFFFFF DUP2 GT ISZERO PUSH2 0x20FE JUMPI PUSH2 0x20FE PUSH2 0x2B3D JUMP JUMPDEST PUSH1 0x40 MLOAD SWAP1 DUP1 DUP3 MSTORE DUP1 PUSH1 0x20 MUL PUSH1 0x20 ADD DUP3 ADD PUSH1 0x40 MSTORE DUP1 ISZERO PUSH2 0x2127 JUMPI DUP2 PUSH1 0x20 ADD PUSH1 0x20 DUP3 MUL DUP1 CALLDATASIZE DUP4 CALLDATACOPY ADD SWAP1 POP JUMPDEST POP SWAP4 POP DUP1 PUSH8 0xFFFFFFFFFFFFFFFF DUP2 GT ISZERO PUSH2 0x2143 JUMPI PUSH2 0x2143 PUSH2 0x2B3D JUMP JUMPDEST PUSH1 0x40 MLOAD SWAP1 DUP1 DUP3 MSTORE DUP1 PUSH1 0x20 MUL PUSH1 0x20 ADD DUP3 ADD PUSH1 0x40 MSTORE DUP1 ISZERO PUSH2 0x216C JUMPI DUP2 PUSH1 0x20 ADD PUSH1 0x20 DUP3 MUL DUP1 CALLDATASIZE DUP4 CALLDATACOPY ADD SWAP1 POP JUMPDEST POP SWAP3 POP PUSH1 0x0 JUMPDEST DUP2 DUP2 LT ISZERO PUSH2 0x224C JUMPI DUP3 DUP2 DUP2 MLOAD DUP2 LT PUSH2 0x218C JUMPI PUSH2 0x218C PUSH2 0x30A3 JUMP JUMPDEST PUSH1 0x20 MUL PUSH1 0x20 ADD ADD MLOAD PUSH1 0x20 ADD MLOAD DUP7 DUP3 DUP2 MLOAD DUP2 LT PUSH2 0x21AA JUMPI PUSH2 0x21AA PUSH2 0x30A3 JUMP JUMPDEST PUSH1 0x20 MUL PUSH1 0x20 ADD ADD DUP2 DUP2 MSTORE POP POP DUP3 DUP2 DUP2 MLOAD DUP2 LT PUSH2 0x21C8 JUMPI PUSH2 0x21C8 PUSH2 0x30A3 JUMP JUMPDEST PUSH1 0x20 MUL PUSH1 0x20 ADD ADD MLOAD PUSH1 0x40 ADD MLOAD DUP6 DUP3 DUP2 MLOAD DUP2 LT PUSH2 0x21E6 JUMPI PUSH2 0x21E6 PUSH2 0x30A3 JUMP JUMPDEST PUSH1 0x20 MUL PUSH1 0x20 ADD ADD DUP2 DUP2 MSTORE POP POP DUP3 DUP2 DUP2 MLOAD DUP2 LT PUSH2 0x2204 JUMPI PUSH2 0x2204 PUSH2 0x30A3 JUMP JUMPDEST PUSH1 0x20 MUL PUSH1 0x20 ADD ADD MLOAD PUSH1 0x60 ADD MLOAD DUP5 DUP3 DUP2 MLOAD DUP2 LT PUSH2 0x2222 JUMPI PUSH2 0x2222 PUSH2 0x30A3 JUMP JUMPDEST PUSH1 0x1 PUSH1 0x1 PUSH1 0xA0 SHL SUB SWAP1 SWAP3 AND PUSH1 0x20 SWAP3 DUP4 MUL SWAP2 SWAP1 SWAP2 ADD SWAP1 SWAP2 ADD MSTORE DUP1 PUSH2 0x2244 DUP2 PUSH2 0x30CF JUMP JUMPDEST SWAP2 POP POP PUSH2 0x2172 JUMP JUMPDEST POP POP POP SWAP2 SWAP4 SWAP1 SWAP3 POP JUMP JUMPDEST PUSH2 0x225E PUSH2 0x2825 JUMP JUMPDEST PUSH1 0x10 DUP1 SLOAD PUSH1 0x1 PUSH1 0x1 PUSH1 0xA0 SHL SUB NOT AND PUSH1 0x1 PUSH1 0x1 PUSH1 0xA0 SHL SUB SWAP3 SWAP1 SWAP3 AND SWAP2 SWAP1 SWAP2 OR SWAP1 SSTORE JUMP JUMPDEST PUSH1 0x4 PUSH1 0x20 DUP2 SWAP1 MSTORE PUSH1 0x0 SWAP2 DUP3 MSTORE PUSH1 0x40 SWAP1 SWAP2 KECCAK256 DUP1 SLOAD PUSH1 0x1 DUP3 ADD SLOAD PUSH1 0x2 DUP4 ADD SLOAD PUSH1 0x3 DUP5 ADD SLOAD SWAP5 DUP5 ADD SLOAD PUSH1 0x5 DUP6 ADD SLOAD PUSH1 0x6 DUP7 ADD SLOAD PUSH1 0x7 DUP8 ADD SLOAD PUSH1 0x8 DUP9 ADD SLOAD PUSH1 0x9 DUP10 ADD DUP1 SLOAD SWAP9 SWAP11 PUSH1 0x1 PUSH1 0x1 PUSH1 0xA0 SHL SUB SWAP9 DUP10 AND SWAP11 SWAP8 SWAP10 SWAP1 SWAP9 SWAP7 SWAP8 SWAP6 SWAP7 SWAP5 SWAP6 SWAP4 SWAP5 PUSH1 0xFF DUP1 DUP6 AND SWAP6 PUSH2 0x100 DUP7 DIV SWAP1 SWAP2 AND SWAP5 PUSH3 0x10000 SWAP1 DIV SWAP1 SWAP2 AND SWAP3 SWAP1 SWAP2 PUSH2 0x22FE SWAP1 PUSH2 0x313A JUMP JUMPDEST DUP1 PUSH1 0x1F ADD PUSH1 0x20 DUP1 SWAP2 DIV MUL PUSH1 0x20 ADD PUSH1 0x40 MLOAD SWAP1 DUP2 ADD PUSH1 0x40 MSTORE DUP1 SWAP3 SWAP2 SWAP1 DUP2 DUP2 MSTORE PUSH1 0x20 ADD DUP3 DUP1 SLOAD PUSH2 0x232A SWAP1 PUSH2 0x313A JUMP JUMPDEST DUP1 ISZERO PUSH2 0x2377 JUMPI DUP1 PUSH1 0x1F LT PUSH2 0x234C JUMPI PUSH2 0x100 DUP1 DUP4 SLOAD DIV MUL DUP4 MSTORE SWAP2 PUSH1 0x20 ADD SWAP2 PUSH2 0x2377 JUMP JUMPDEST DUP3 ADD SWAP2 SWAP1 PUSH1 0x0 MSTORE PUSH1 0x20 PUSH1 0x0 KECCAK256 SWAP1 JUMPDEST DUP2 SLOAD DUP2 MSTORE SWAP1 PUSH1 0x1 ADD SWAP1 PUSH1 0x20 ADD DUP1 DUP4 GT PUSH2 0x235A JUMPI DUP3 SWAP1 SUB PUSH1 0x1F AND DUP3 ADD SWAP2 JUMPDEST POP POP POP POP POP SWAP1 POP DUP13 JUMP JUMPDEST PUSH1 0x6 PUSH1 0x20 MSTORE DUP2 PUSH1 0x0 MSTORE PUSH1 0x40 PUSH1 0x0 KECCAK256 DUP2 DUP2 SLOAD DUP2 LT PUSH2 0x239D JUMPI PUSH1 0x0 DUP1 REVERT JUMPDEST SWAP1 PUSH1 0x0 MSTORE PUSH1 0x20 PUSH1 0x0 KECCAK256 ADD PUSH1 0x0 SWAP2 POP SWAP2 POP POP SLOAD DUP2 JUMP JUMPDEST PUSH1 0x1 PUSH1 0x1 PUSH1 0xA0 SHL SUB DUP2 AND PUSH1 0x0 SWAP1 DUP2 MSTORE PUSH1 0x6 PUSH1 0x20 SWAP1 DUP2 MSTORE PUSH1 0x40 SWAP2 DUP3 SWAP1 KECCAK256 DUP1 SLOAD DUP4 MLOAD DUP2 DUP5 MUL DUP2 ADD DUP5 ADD SWAP1 SWAP5 MSTORE DUP1 DUP5 MSTORE PUSH1 0x60 SWAP4 SWAP3 DUP4 ADD DUP3 DUP3 DUP1 ISZERO PUSH2 0x2412 JUMPI PUSH1 0x20 MUL DUP3 ADD SWAP2 SWAP1 PUSH1 0x0 MSTORE PUSH1 0x20 PUSH1 0x0 KECCAK256 SWAP1 JUMPDEST DUP2 SLOAD DUP2 MSTORE PUSH1 0x20 ADD SWAP1 PUSH1 0x1 ADD SWAP1 DUP1 DUP4 GT PUSH2 0x23FE JUMPI JUMPDEST POP POP POP POP POP SWAP1 POP SWAP2 SWAP1 POP JUMP JUMPDEST PUSH2 0x2426 PUSH2 0x2825 JUMP JUMPDEST PUSH1 0x1 PUSH1 0x1 PUSH1 0xA0 SHL SUB DUP2 AND PUSH2 0x248B JUMPI PUSH1 0x40 MLOAD PUSH3 0x461BCD PUSH1 0xE5 SHL DUP2 MSTORE PUSH1 0x20 PUSH1 0x4 DUP3 ADD MSTORE PUSH1 0x26 PUSH1 0x24 DUP3 ADD MSTORE PUSH32 0x4F776E61626C653A206E6577206F776E657220697320746865207A65726F2061 PUSH1 0x44 DUP3 ADD MSTORE PUSH6 0x646472657373 PUSH1 0xD0 SHL PUSH1 0x64 DUP3 ADD MSTORE PUSH1 0x84 ADD PUSH2 0x9B6 JUMP JUMPDEST PUSH2 0xD9E DUP2 PUSH2 0x28D8 JUMP JUMPDEST PUSH1 0x0 PUSH1 0xB SLOAD DUP5 LT ISZERO DUP1 ISZERO PUSH2 0x24AA JUMPI POP PUSH1 0xC SLOAD DUP5 GT ISZERO JUMPDEST PUSH2 0x24EC JUMPI PUSH1 0x40 MLOAD PUSH3 0x461BCD PUSH1 0xE5 SHL DUP2 MSTORE PUSH1 0x20 PUSH1 0x4 DUP3 ADD MSTORE PUSH1 0x13 PUSH1 0x24 DUP3 ADD MSTORE PUSH19 0x125B9D985B1A59081B1BD85B88185B5BDD5B9D PUSH1 0x6A SHL PUSH1 0x44 DUP3 ADD MSTORE PUSH1 0x64 ADD PUSH2 0x9B6 JUMP JUMPDEST PUSH1 0xD SLOAD DUP4 LT ISZERO DUP1 ISZERO PUSH2 0x2500 JUMPI POP PUSH1 0xE SLOAD DUP4 GT ISZERO JUMPDEST PUSH2 0x2542 JUMPI PUSH1 0x40 MLOAD PUSH3 0x461BCD PUSH1 0xE5 SHL DUP2 MSTORE PUSH1 0x20 PUSH1 0x4 DUP3 ADD MSTORE PUSH1 0x13 PUSH1 0x24 DUP3 ADD MSTORE PUSH19 0x92DCECC2D8D2C840E8CAE4DA40D8CADCCEE8D PUSH1 0x6B SHL PUSH1 0x44 DUP3 ADD MSTORE PUSH1 0x64 ADD PUSH2 0x9B6 JUMP JUMPDEST PUSH1 0x1 PUSH1 0x1 PUSH1 0xA0 SHL SUB DUP6 AND PUSH1 0x0 SWAP1 DUP2 MSTORE PUSH1 0x8 PUSH1 0x20 MSTORE PUSH1 0x40 SWAP1 KECCAK256 SLOAD PUSH1 0xFF AND PUSH2 0x257A JUMPI PUSH1 0x40 MLOAD PUSH3 0x461BCD PUSH1 0xE5 SHL DUP2 MSTORE PUSH1 0x4 ADD PUSH2 0x9B6 SWAP1 PUSH2 0x32C5 JUMP JUMPDEST PUSH1 0x1 PUSH1 0x1 PUSH1 0xA0 SHL SUB DUP6 AND PUSH1 0x0 SWAP1 DUP2 MSTORE PUSH1 0x9 PUSH1 0x20 MSTORE PUSH1 0x40 SWAP1 KECCAK256 PUSH1 0x2 ADD SLOAD PUSH1 0xFF AND PUSH2 0x25DC JUMPI PUSH1 0x40 MLOAD PUSH3 0x461BCD PUSH1 0xE5 SHL DUP2 MSTORE PUSH1 0x20 PUSH1 0x4 DUP3 ADD MSTORE PUSH1 0x14 PUSH1 0x24 DUP3 ADD MSTORE PUSH20 0x4C656E646572206973206E6F7420616374697665 PUSH1 0x60 SHL PUSH1 0x44 DUP3 ADD MSTORE PUSH1 0x64 ADD PUSH2 0x9B6 JUMP JUMPDEST PUSH1 0x1 PUSH1 0x1 PUSH1 0xA0 SHL SUB DUP6 AND PUSH1 0x0 SWAP1 DUP2 MSTORE PUSH1 0x9 PUSH1 0x20 MSTORE PUSH1 0x40 SWAP1 KECCAK256 PUSH1 0x6 ADD SLOAD DUP5 GT ISZERO PUSH2 0x2647 JUMPI PUSH1 0x40 MLOAD PUSH3 0x461BCD PUSH1 0xE5 SHL DUP2 MSTORE PUSH1 0x20 PUSH1 0x4 DUP3 ADD MSTORE PUSH1 0x1F PUSH1 0x24 DUP3 ADD MSTORE PUSH32 0x416D6F756E742065786365656473206C656E6465722773206D6178696D756D00 PUSH1 0x44 DUP3 ADD MSTORE PUSH1 0x64 ADD PUSH2 0x9B6 JUMP JUMPDEST PUSH1 0x1 PUSH1 0x1 PUSH1 0xA0 SHL SUB DUP6 AND PUSH1 0x0 SWAP1 DUP2 MSTORE PUSH1 0x9 PUSH1 0x20 MSTORE PUSH1 0x40 SWAP1 KECCAK256 PUSH1 0x3 ADD SLOAD DUP5 GT ISZERO PUSH2 0x26B2 JUMPI PUSH1 0x40 MLOAD PUSH3 0x461BCD PUSH1 0xE5 SHL DUP2 MSTORE PUSH1 0x20 PUSH1 0x4 DUP3 ADD MSTORE PUSH1 0x19 PUSH1 0x24 DUP3 ADD MSTORE PUSH32 0x496E73756666696369656E74206C656E6465722066756E647300000000000000 PUSH1 0x44 DUP3 ADD MSTORE PUSH1 0x64 ADD PUSH2 0x9B6 JUMP JUMPDEST PUSH2 0x26BB CALLER PUSH2 0x673 JUMP JUMPDEST ISZERO PUSH2 0x26D8 JUMPI PUSH1 0x40 MLOAD PUSH3 0x461BCD PUSH1 0xE5 SHL DUP2 MSTORE PUSH1 0x4 ADD PUSH2 0x9B6 SWAP1 PUSH2 0x3174 JUMP JUMPDEST PUSH1 0x3 DUP1 SLOAD PUSH1 0x0 SWAP2 DUP3 PUSH2 0x26E9 DUP4 PUSH2 0x30CF JUMP JUMPDEST SWAP2 SWAP1 POP SSTORE SWAP1 POP PUSH1 0x0 PUSH2 0x26FD DUP8 CALLER DUP9 DUP9 PUSH2 0x758 JUMP JUMPDEST SWAP1 POP PUSH1 0x40 MLOAD DUP1 PUSH2 0x180 ADD PUSH1 0x40 MSTORE DUP1 DUP4 DUP2 MSTORE PUSH1 0x20 ADD CALLER PUSH1 0x1 PUSH1 0x1 PUSH1 0xA0 SHL SUB AND DUP2 MSTORE PUSH1 0x20 ADD DUP8 DUP2 MSTORE PUSH1 0x20 ADD DUP3 DUP2 MSTORE PUSH1 0x20 ADD DUP7 DUP2 MSTORE PUSH1 0x20 ADD TIMESTAMP DUP2 MSTORE PUSH1 0x20 ADD DUP7 PUSH3 0x15180 PUSH2 0x2747 SWAP2 SWAP1 PUSH2 0x30E8 JUMP JUMPDEST PUSH2 0x2751 SWAP1 TIMESTAMP PUSH2 0x3127 JUMP JUMPDEST DUP2 MSTORE PUSH1 0x20 ADD PUSH1 0x0 DUP2 MSTORE PUSH1 0x20 ADD PUSH1 0x0 PUSH1 0x4 DUP2 GT ISZERO PUSH2 0x2770 JUMPI PUSH2 0x2770 PUSH2 0x2DD9 JUMP JUMPDEST DUP2 MSTORE PUSH1 0x0 PUSH1 0x20 DUP1 DUP4 ADD DUP3 SWAP1 MSTORE PUSH1 0x40 DUP1 DUP5 ADD DUP4 SWAP1 MSTORE PUSH1 0x60 SWAP4 DUP5 ADD DUP10 SWAP1 MSTORE DUP7 DUP4 MSTORE PUSH1 0x4 DUP1 DUP4 MSTORE SWAP3 DUP2 SWAP1 KECCAK256 DUP6 MLOAD DUP2 SSTORE SWAP2 DUP6 ADD MLOAD PUSH1 0x1 DUP1 DUP5 ADD DUP1 SLOAD PUSH1 0x1 PUSH1 0x1 PUSH1 0xA0 SHL SUB NOT AND PUSH1 0x1 PUSH1 0x1 PUSH1 0xA0 SHL SUB SWAP1 SWAP4 AND SWAP3 SWAP1 SWAP3 OR SWAP1 SWAP2 SSTORE SWAP1 DUP6 ADD MLOAD PUSH1 0x2 DUP4 ADD SSTORE SWAP3 DUP5 ADD MLOAD PUSH1 0x3 DUP3 ADD SSTORE PUSH1 0x80 DUP5 ADD MLOAD DUP2 DUP4 ADD SSTORE PUSH1 0xA0 DUP5 ADD MLOAD PUSH1 0x5 DUP3 ADD SSTORE PUSH1 0xC0 DUP5 ADD MLOAD PUSH1 0x6 DUP3 ADD SSTORE PUSH1 0xE0 DUP5 ADD MLOAD PUSH1 0x7 DUP3 ADD SSTORE PUSH2 0x100 DUP5 ADD MLOAD PUSH1 0x8 DUP3 ADD DUP1 SLOAD SWAP3 SWAP5 SWAP2 SWAP4 SWAP1 SWAP3 PUSH1 0xFF NOT AND SWAP2 SWAP1 DUP5 SWAP1 DUP2 GT ISZERO PUSH2 0xB73 JUMPI PUSH2 0xB73 PUSH2 0x2DD9 JUMP JUMPDEST PUSH1 0x0 SLOAD PUSH1 0x1 PUSH1 0x1 PUSH1 0xA0 SHL SUB AND CALLER EQ PUSH2 0x10D1 JUMPI PUSH1 0x40 MLOAD PUSH3 0x461BCD PUSH1 0xE5 SHL DUP2 MSTORE PUSH1 0x20 PUSH1 0x4 DUP3 ADD DUP2 SWAP1 MSTORE PUSH1 0x24 DUP3 ADD MSTORE PUSH32 0x4F776E61626C653A2063616C6C6572206973206E6F7420746865206F776E6572 PUSH1 0x44 DUP3 ADD MSTORE PUSH1 0x64 ADD PUSH2 0x9B6 JUMP JUMPDEST PUSH1 0x2 PUSH1 0x1 SLOAD SUB PUSH2 0x28D1 JUMPI PUSH1 0x40 MLOAD PUSH3 0x461BCD PUSH1 0xE5 SHL DUP2 MSTORE PUSH1 0x20 PUSH1 0x4 DUP3 ADD MSTORE PUSH1 0x1F PUSH1 0x24 DUP3 ADD MSTORE PUSH32 0x5265656E7472616E637947756172643A207265656E7472616E742063616C6C00 PUSH1 0x44 DUP3 ADD MSTORE PUSH1 0x64 ADD PUSH2 0x9B6 JUMP JUMPDEST PUSH1 0x2 PUSH1 0x1 SSTORE JUMP JUMPDEST PUSH1 0x0 DUP1 SLOAD PUSH1 0x1 PUSH1 0x1 PUSH1 0xA0 SHL SUB DUP4 DUP2 AND PUSH1 0x1 PUSH1 0x1 PUSH1 0xA0 SHL SUB NOT DUP4 AND DUP2 OR DUP5 SSTORE PUSH1 0x40 MLOAD SWAP2 SWAP1 SWAP3 AND SWAP3 DUP4 SWAP2 PUSH32 0x8BE0079C531659141344CD1FD0A4F28419497F9722A3DAAFE3B4186F6B6457E0 SWAP2 SWAP1 LOG3 POP POP JUMP JUMPDEST PUSH1 0x1 PUSH1 0x1 PUSH1 0xA0 SHL SUB DUP2 AND PUSH1 0x0 SWAP1 DUP2 MSTORE PUSH1 0x7 PUSH1 0x20 MSTORE PUSH1 0x40 SWAP1 KECCAK256 PUSH1 0x2 DUP2 ADD SLOAD PUSH2 0x1F4 SWAP1 ISZERO PUSH2 0x296B JUMPI PUSH1 0x2 DUP3 ADD SLOAD PUSH2 0x295E SWAP1 PUSH1 0x32 PUSH2 0x30E8 JUMP JUMPDEST PUSH2 0x2968 SWAP1 DUP3 PUSH2 0x3127 JUMP JUMPDEST SWAP1 POP JUMPDEST PUSH1 0x3 DUP3 ADD SLOAD ISZERO PUSH2 0x2992 JUMPI PUSH1 0x3 DUP3 ADD SLOAD PUSH2 0x2985 SWAP1 PUSH1 0x64 PUSH2 0x30E8 JUMP JUMPDEST PUSH2 0x298F SWAP1 DUP3 PUSH2 0x32F5 JUMP JUMPDEST SWAP1 POP JUMPDEST PUSH2 0x3E8 DUP2 GT ISZERO PUSH2 0x29A1 JUMPI POP PUSH2 0x3E8 JUMPDEST PUSH1 0x4 DUP3 ADD DUP2 SWAP1 SSTORE PUSH1 0x40 MLOAD DUP2 DUP2 MSTORE PUSH1 0x1 PUSH1 0x1 PUSH1 0xA0 SHL SUB DUP5 AND SWAP1 PUSH32 0x79C012A0CFAE660E09134956BC432C8497EC80E86A3A108D130E8B3FCA52B3AD SWAP1 PUSH1 0x20 ADD PUSH2 0xED6 JUMP JUMPDEST DUP1 CALLDATALOAD PUSH1 0x1 PUSH1 0x1 PUSH1 0xA0 SHL SUB DUP2 AND DUP2 EQ PUSH2 0x29FA JUMPI PUSH1 0x0 DUP1 REVERT JUMPDEST SWAP2 SWAP1 POP JUMP JUMPDEST PUSH1 0x0 DUP1 PUSH1 0x40 DUP4 DUP6 SUB SLT ISZERO PUSH2 0x2A12 JUMPI PUSH1 0x0 DUP1 REVERT JUMPDEST PUSH2 0x2A1B DUP4 PUSH2 0x29E3 JUMP JUMPDEST SWAP5 PUSH1 0x20 SWAP4 SWAP1 SWAP4 ADD CALLDATALOAD SWAP4 POP POP POP JUMP JUMPDEST PUSH1 0x0 PUSH1 0x20 DUP3 DUP5 SUB SLT ISZERO PUSH2 0x2A3B JUMPI PUSH1 0x0 DUP1 REVERT JUMPDEST PUSH2 0x95B DUP3 PUSH2 0x29E3 JUMP JUMPDEST PUSH1 0x0 DUP1 PUSH1 0x0 DUP1 PUSH1 0x80 DUP6 DUP8 SUB SLT ISZERO PUSH2 0x2A5A JUMPI PUSH1 0x0 DUP1 REVERT JUMPDEST PUSH2 0x2A63 DUP6 PUSH2 0x29E3 JUMP JUMPDEST SWAP4 POP PUSH2 0x2A71 PUSH1 0x20 DUP7 ADD PUSH2 0x29E3 JUMP JUMPDEST SWAP4 SWAP7 SWAP4 SWAP6 POP POP POP POP PUSH1 0x40 DUP3 ADD CALLDATALOAD SWAP2 PUSH1 0x60 ADD CALLDATALOAD SWAP1 JUMP JUMPDEST PUSH1 0x0 DUP2 MLOAD DUP1 DUP5 MSTORE PUSH1 0x0 JUMPDEST DUP2 DUP2 LT ISZERO PUSH2 0x2AAC JUMPI PUSH1 0x20 DUP2 DUP6 ADD DUP2 ADD MLOAD DUP7 DUP4 ADD DUP3 ADD MSTORE ADD PUSH2 0x2A90 JUMP JUMPDEST POP PUSH1 0x0 PUSH1 0x20 DUP3 DUP7 ADD ADD MSTORE PUSH1 0x20 PUSH1 0x1F NOT PUSH1 0x1F DUP4 ADD AND DUP6 ADD ADD SWAP2 POP POP SWAP3 SWAP2 POP POP JUMP JUMPDEST PUSH1 0x1 PUSH1 0x1 PUSH1 0xA0 SHL SUB DUP10 AND DUP2 MSTORE PUSH2 0x100 PUSH1 0x20 DUP3 ADD DUP2 SWAP1 MSTORE PUSH1 0x0 SWAP1 PUSH2 0x2AF1 DUP4 DUP3 ADD DUP12 PUSH2 0x2A86 JUMP JUMPDEST SWAP9 ISZERO ISZERO PUSH1 0x40 DUP5 ADD MSTORE POP POP PUSH1 0x60 DUP2 ADD SWAP6 SWAP1 SWAP6 MSTORE PUSH1 0x80 DUP6 ADD SWAP4 SWAP1 SWAP4 MSTORE PUSH1 0xA0 DUP5 ADD SWAP2 SWAP1 SWAP2 MSTORE PUSH1 0xC0 DUP4 ADD MSTORE PUSH1 0xE0 SWAP1 SWAP2 ADD MSTORE SWAP3 SWAP2 POP POP JUMP JUMPDEST PUSH1 0x0 PUSH1 0x20 DUP3 DUP5 SUB SLT ISZERO PUSH2 0x2B36 JUMPI PUSH1 0x0 DUP1 REVERT JUMPDEST POP CALLDATALOAD SWAP2 SWAP1 POP JUMP JUMPDEST PUSH4 0x4E487B71 PUSH1 0xE0 SHL PUSH1 0x0 MSTORE PUSH1 0x41 PUSH1 0x4 MSTORE PUSH1 0x24 PUSH1 0x0 REVERT JUMPDEST PUSH1 0x40 MLOAD PUSH2 0x180 DUP2 ADD PUSH8 0xFFFFFFFFFFFFFFFF DUP2 GT DUP3 DUP3 LT OR ISZERO PUSH2 0x2B77 JUMPI PUSH2 0x2B77 PUSH2 0x2B3D JUMP JUMPDEST PUSH1 0x40 MSTORE SWAP1 JUMP JUMPDEST DUP1 CALLDATALOAD PUSH1 0x5 DUP2 LT PUSH2 0x29FA JUMPI PUSH1 0x0 DUP1 REVERT JUMPDEST DUP1 ISZERO ISZERO DUP2 EQ PUSH2 0xD9E JUMPI PUSH1 0x0 DUP1 REVERT JUMPDEST DUP1 CALLDATALOAD PUSH2 0x29FA DUP2 PUSH2 0x2B8C JUMP JUMPDEST PUSH1 0x0 DUP3 PUSH1 0x1F DUP4 ADD SLT PUSH2 0x2BB6 JUMPI PUSH1 0x0 DUP1 REVERT JUMPDEST DUP2 CALLDATALOAD PUSH8 0xFFFFFFFFFFFFFFFF DUP1 DUP3 GT ISZERO PUSH2 0x2BD1 JUMPI PUSH2 0x2BD1 PUSH2 0x2B3D JUMP JUMPDEST PUSH1 0x40 MLOAD PUSH1 0x1F DUP4 ADD PUSH1 0x1F NOT SWAP1 DUP2 AND PUSH1 0x3F ADD AND DUP2 ADD SWAP1 DUP3 DUP3 GT DUP2 DUP4 LT OR ISZERO PUSH2 0x2BF9 JUMPI PUSH2 0x2BF9 PUSH2 0x2B3D JUMP JUMPDEST DUP2 PUSH1 0x40 MSTORE DUP4 DUP2 MSTORE DUP7 PUSH1 0x20 DUP6 DUP9 ADD ADD GT ISZERO PUSH2 0x2C12 JUMPI PUSH1 0x0 DUP1 REVERT JUMPDEST DUP4 PUSH1 0x20 DUP8 ADD PUSH1 0x20 DUP4 ADD CALLDATACOPY PUSH1 0x0 PUSH1 0x20 DUP6 DUP4 ADD ADD MSTORE DUP1 SWAP5 POP POP POP POP POP SWAP3 SWAP2 POP POP JUMP JUMPDEST PUSH1 0x0 PUSH1 0x20 DUP3 DUP5 SUB SLT ISZERO PUSH2 0x2C44 JUMPI PUSH1 0x0 DUP1 REVERT JUMPDEST DUP2 CALLDATALOAD PUSH8 0xFFFFFFFFFFFFFFFF DUP1 DUP3 GT ISZERO PUSH2 0x2C5C JUMPI PUSH1 0x0 DUP1 REVERT JUMPDEST SWAP1 DUP4 ADD SWAP1 PUSH2 0x180 DUP3 DUP7 SUB SLT ISZERO PUSH2 0x2C71 JUMPI PUSH1 0x0 DUP1 REVERT JUMPDEST PUSH2 0x2C79 PUSH2 0x2B53 JUMP JUMPDEST DUP3 CALLDATALOAD DUP2 MSTORE PUSH2 0x2C89 PUSH1 0x20 DUP5 ADD PUSH2 0x29E3 JUMP JUMPDEST PUSH1 0x20 DUP3 ADD MSTORE PUSH1 0x40 DUP4 ADD CALLDATALOAD PUSH1 0x40 DUP3 ADD MSTORE PUSH1 0x60 DUP4 ADD CALLDATALOAD PUSH1 0x60 DUP3 ADD MSTORE PUSH1 0x80 DUP4 ADD CALLDATALOAD PUSH1 0x80 DUP3 ADD MSTORE PUSH1 0xA0 DUP4 ADD CALLDATALOAD PUSH1 0xA0 DUP3 ADD MSTORE PUSH1 0xC0 DUP4 ADD CALLDATALOAD PUSH1 0xC0 DUP3 ADD MSTORE PUSH1 0xE0 DUP4 ADD CALLDATALOAD PUSH1 0xE0 DUP3 ADD MSTORE PUSH2 0x100 PUSH2 0x2CD8 DUP2 DUP6 ADD PUSH2 0x2B7D JUMP JUMPDEST SWAP1 DUP3 ADD MSTORE PUSH2 0x120 PUSH2 0x2CEA DUP5 DUP3 ADD PUSH2 0x2B9A JUMP JUMPDEST SWAP1 DUP3 ADD MSTORE PUSH2 0x140 PUSH2 0x2CFC DUP5 DUP3 ADD PUSH2 0x29E3 JUMP JUMPDEST SWAP1 DUP3 ADD MSTORE PUSH2 0x160 DUP4 DUP2 ADD CALLDATALOAD DUP4 DUP2 GT ISZERO PUSH2 0x2D14 JUMPI PUSH1 0x0 DUP1 REVERT JUMPDEST PUSH2 0x2D20 DUP9 DUP3 DUP8 ADD PUSH2 0x2BA5 JUMP JUMPDEST SWAP2 DUP4 ADD SWAP2 SWAP1 SWAP2 MSTORE POP SWAP6 SWAP5 POP POP POP POP POP JUMP JUMPDEST PUSH1 0x0 DUP1 PUSH1 0x0 DUP1 PUSH1 0x80 DUP6 DUP8 SUB SLT ISZERO PUSH2 0x2D47 JUMPI PUSH1 0x0 DUP1 REVERT JUMPDEST PUSH2 0x2D50 DUP6 PUSH2 0x29E3 JUMP JUMPDEST SWAP4 POP PUSH1 0x20 DUP6 ADD CALLDATALOAD SWAP3 POP PUSH1 0x40 DUP6 ADD CALLDATALOAD SWAP2 POP PUSH1 0x60 DUP6 ADD CALLDATALOAD PUSH8 0xFFFFFFFFFFFFFFFF DUP2 GT ISZERO PUSH2 0x2D7A JUMPI PUSH1 0x0 DUP1 REVERT JUMPDEST PUSH2 0x2D86 DUP8 DUP3 DUP9 ADD PUSH2 0x2BA5 JUMP JUMPDEST SWAP2 POP POP SWAP3 SWAP6 SWAP2 SWAP5 POP SWAP3 POP JUMP JUMPDEST PUSH1 0x0 DUP1 PUSH1 0x40 DUP4 DUP6 SUB SLT ISZERO PUSH2 0x2DA5 JUMPI PUSH1 0x0 DUP1 REVERT JUMPDEST DUP3 CALLDATALOAD SWAP2 POP PUSH1 0x20 DUP4 ADD CALLDATALOAD PUSH8 0xFFFFFFFFFFFFFFFF DUP2 GT ISZERO PUSH2 0x2DC3 JUMPI PUSH1 0x0 DUP1 REVERT JUMPDEST PUSH2 0x2DCF DUP6 DUP3 DUP7 ADD PUSH2 0x2BA5 JUMP JUMPDEST SWAP2 POP POP SWAP3 POP SWAP3 SWAP1 POP JUMP JUMPDEST PUSH4 0x4E487B71 PUSH1 0xE0 SHL PUSH1 0x0 MSTORE PUSH1 0x21 PUSH1 0x4 MSTORE PUSH1 0x24 PUSH1 0x0 REVERT JUMPDEST PUSH1 0x5 DUP2 LT PUSH2 0x2E0D JUMPI PUSH4 0x4E487B71 PUSH1 0xE0 SHL PUSH1 0x0 MSTORE PUSH1 0x21 PUSH1 0x4 MSTORE PUSH1 0x24 PUSH1 0x0 REVERT JUMPDEST SWAP1 MSTORE JUMP JUMPDEST PUSH1 0x0 PUSH2 0x160 PUSH1 0x1 DUP1 PUSH1 0xA0 SHL SUB DUP1 DUP16 AND DUP5 MSTORE DUP14 PUSH1 0x20 DUP6 ADD MSTORE DUP13 PUSH1 0x40 DUP6 ADD MSTORE DUP12 PUSH1 0x60 DUP6 ADD MSTORE DUP11 PUSH1 0x80 DUP6 ADD MSTORE DUP10 PUSH1 0xA0 DUP6 ADD MSTORE DUP9 PUSH1 0xC0 DUP6 ADD MSTORE PUSH2 0x2E53 PUSH1 0xE0 DUP6 ADD DUP10 PUSH2 0x2DEF JUMP JUMPDEST DUP7 ISZERO ISZERO PUSH2 0x100 DUP6 ADD MSTORE DUP6 AND PUSH2 0x120 DUP5 ADD MSTORE PUSH2 0x140 DUP4 ADD DUP2 SWAP1 MSTORE PUSH2 0x2E78 DUP2 DUP5 ADD DUP6 PUSH2 0x2A86 JUMP JUMPDEST SWAP15 SWAP14 POP POP POP POP POP POP POP POP POP POP POP POP POP POP JUMP JUMPDEST PUSH1 0x0 DUP1 PUSH1 0x40 DUP4 DUP6 SUB SLT ISZERO PUSH2 0x2E9D JUMPI PUSH1 0x0 DUP1 REVERT JUMPDEST POP POP DUP1 CALLDATALOAD SWAP3 PUSH1 0x20 SWAP1 SWAP2 ADD CALLDATALOAD SWAP2 POP JUMP JUMPDEST PUSH1 0x0 DUP1 PUSH1 0x0 DUP1 PUSH1 0x80 DUP6 DUP8 SUB SLT ISZERO PUSH2 0x2EC2 JUMPI PUSH1 0x0 DUP1 REVERT JUMPDEST PUSH2 0x2ECB DUP6 PUSH2 0x29E3 JUMP JUMPDEST SWAP4 POP PUSH1 0x20 DUP6 ADD CALLDATALOAD PUSH8 0xFFFFFFFFFFFFFFFF DUP2 GT ISZERO PUSH2 0x2EE7 JUMPI PUSH1 0x0 DUP1 REVERT JUMPDEST PUSH2 0x2EF3 DUP8 DUP3 DUP9 ADD PUSH2 0x2BA5 JUMP JUMPDEST SWAP5 SWAP8 SWAP5 SWAP7 POP POP POP POP PUSH1 0x40 DUP4 ADD CALLDATALOAD SWAP3 PUSH1 0x60 ADD CALLDATALOAD SWAP2 SWAP1 POP JUMP JUMPDEST PUSH1 0x0 DUP1 PUSH1 0x0 DUP1 PUSH1 0x0 PUSH1 0xA0 DUP7 DUP9 SUB SLT ISZERO PUSH2 0x2F22 JUMPI PUSH1 0x0 DUP1 REVERT JUMPDEST POP POP DUP4 CALLDATALOAD SWAP6 PUSH1 0x20 DUP6 ADD CALLDATALOAD SWAP6 POP PUSH1 0x40 DUP6 ADD CALLDATALOAD SWAP5 PUSH1 0x60 DUP2 ADD CALLDATALOAD SWAP5 POP PUSH1 0x80 ADD CALLDATALOAD SWAP3 POP SWAP1 POP JUMP JUMPDEST PUSH1 0x0 DUP2 MLOAD DUP1 DUP5 MSTORE PUSH1 0x20 DUP1 DUP6 ADD SWAP5 POP DUP1 DUP5 ADD PUSH1 0x0 JUMPDEST DUP4 DUP2 LT ISZERO PUSH2 0x2F75 JUMPI DUP2 MLOAD DUP8 MSTORE SWAP6 DUP3 ADD SWAP6 SWAP1 DUP3 ADD SWAP1 PUSH1 0x1 ADD PUSH2 0x2F59 JUMP JUMPDEST POP SWAP5 SWAP6 SWAP5 POP POP POP POP POP JUMP JUMPDEST PUSH1 0x60 DUP2 MSTORE PUSH1 0x0 PUSH2 0x2F93 PUSH1 0x60 DUP4 ADD DUP7 PUSH2 0x2F45 JUMP JUMPDEST PUSH1 0x20 DUP4 DUP3 SUB DUP2 DUP6 ADD MSTORE PUSH2 0x2FA6 DUP3 DUP8 PUSH2 0x2F45 JUMP JUMPDEST DUP5 DUP2 SUB PUSH1 0x40 DUP7 ADD MSTORE DUP6 MLOAD DUP1 DUP3 MSTORE DUP3 DUP8 ADD SWAP4 POP SWAP1 DUP3 ADD SWAP1 PUSH1 0x0 JUMPDEST DUP2 DUP2 LT ISZERO PUSH2 0x2FE4 JUMPI DUP5 MLOAD PUSH1 0x1 PUSH1 0x1 PUSH1 0xA0 SHL SUB AND DUP4 MSTORE SWAP4 DUP4 ADD SWAP4 SWAP2 DUP4 ADD SWAP2 PUSH1 0x1 ADD PUSH2 0x2FBF JUMP JUMPDEST POP SWAP1 SWAP9 SWAP8 POP POP POP POP POP POP POP POP JUMP JUMPDEST PUSH1 0x0 PUSH2 0x180 DUP15 DUP4 MSTORE PUSH1 0x1 DUP1 PUSH1 0xA0 SHL SUB DUP1 DUP16 AND PUSH1 0x20 DUP6 ADD MSTORE DUP14 PUSH1 0x40 DUP6 ADD MSTORE DUP13 PUSH1 0x60 DUP6 ADD MSTORE DUP12 PUSH1 0x80 DUP6 ADD MSTORE DUP11 PUSH1 0xA0 DUP6 ADD MSTORE DUP10 PUSH1 0xC0 DUP6 ADD MSTORE DUP9 PUSH1 0xE0 DUP6 ADD MSTORE PUSH2 0x303B PUSH2 0x100 DUP6 ADD DUP10 PUSH2 0x2DEF JUMP JUMPDEST DUP7 ISZERO ISZERO PUSH2 0x120 DUP6 ADD MSTORE DUP6 AND PUSH2 0x140 DUP5 ADD MSTORE PUSH2 0x160 DUP4 ADD DUP2 SWAP1 MSTORE PUSH2 0x3060 DUP2 DUP5 ADD DUP6 PUSH2 0x2A86 JUMP JUMPDEST SWAP16 SWAP15 POP POP POP POP POP POP POP POP POP POP POP POP POP POP POP JUMP JUMPDEST PUSH1 0x20 DUP2 MSTORE PUSH1 0x0 PUSH2 0x95B PUSH1 0x20 DUP4 ADD DUP5 PUSH2 0x2F45 JUMP JUMPDEST PUSH1 0x0 PUSH1 0x20 DUP3 DUP5 SUB SLT ISZERO PUSH2 0x3098 JUMPI PUSH1 0x0 DUP1 REVERT JUMPDEST DUP2 MLOAD PUSH2 0x95B DUP2 PUSH2 0x2B8C JUMP JUMPDEST PUSH4 0x4E487B71 PUSH1 0xE0 SHL PUSH1 0x0 MSTORE PUSH1 0x32 PUSH1 0x4 MSTORE PUSH1 0x24 PUSH1 0x0 REVERT JUMPDEST PUSH4 0x4E487B71 PUSH1 0xE0 SHL PUSH1 0x0 MSTORE PUSH1 0x11 PUSH1 0x4 MSTORE PUSH1 0x24 PUSH1 0x0 REVERT JUMPDEST PUSH1 0x0 PUSH1 0x1 DUP3 ADD PUSH2 0x30E1 JUMPI PUSH2 0x30E1 PUSH2 0x30B9 JUMP JUMPDEST POP PUSH1 0x1 ADD SWAP1 JUMP JUMPDEST DUP1 DUP3 MUL DUP2 ISZERO DUP3 DUP3 DIV DUP5 EQ OR PUSH2 0x30FF JUMPI PUSH2 0x30FF PUSH2 0x30B9 JUMP JUMPDEST SWAP3 SWAP2 POP POP JUMP JUMPDEST PUSH1 0x0 DUP3 PUSH2 0x3122 JUMPI PUSH4 0x4E487B71 PUSH1 0xE0 SHL PUSH1 0x0 MSTORE PUSH1 0x12 PUSH1 0x4 MSTORE PUSH1 0x24 PUSH1 0x0 REVERT JUMPDEST POP DIV SWAP1 JUMP JUMPDEST DUP1 DUP3 ADD DUP1 DUP3 GT ISZERO PUSH2 0x30FF JUMPI PUSH2 0x30FF PUSH2 0x30B9 JUMP JUMPDEST PUSH1 0x1 DUP2 DUP2 SHR SWAP1 DUP3 AND DUP1 PUSH2 0x314E JUMPI PUSH1 0x7F DUP3 AND SWAP2 POP JUMPDEST PUSH1 0x20 DUP3 LT DUP2 SUB PUSH2 0x316E JUMPI PUSH4 0x4E487B71 PUSH1 0xE0 SHL PUSH1 0x0 MSTORE PUSH1 0x22 PUSH1 0x4 MSTORE PUSH1 0x24 PUSH1 0x0 REVERT JUMPDEST POP SWAP2 SWAP1 POP JUMP JUMPDEST PUSH1 0x20 DUP1 DUP3 MSTORE PUSH1 0x23 SWAP1 DUP3 ADD MSTORE PUSH32 0x43616E6E6F74207265717565737420776974682064656661756C746564206C6F PUSH1 0x40 DUP3 ADD MSTORE PUSH3 0x616E73 PUSH1 0xE8 SHL PUSH1 0x60 DUP3 ADD MSTORE PUSH1 0x80 ADD SWAP1 JUMP JUMPDEST PUSH1 0x1F DUP3 GT ISZERO PUSH2 0x66E JUMPI PUSH1 0x0 DUP2 DUP2 MSTORE PUSH1 0x20 DUP2 KECCAK256 PUSH1 0x1F DUP6 ADD PUSH1 0x5 SHR DUP2 ADD PUSH1 0x20 DUP7 LT ISZERO PUSH2 0x31DE JUMPI POP DUP1 JUMPDEST PUSH1 0x1F DUP6 ADD PUSH1 0x5 SHR DUP3 ADD SWAP2 POP JUMPDEST DUP2 DUP2 LT ISZERO PUSH2 0x31FD JUMPI DUP3 DUP2 SSTORE PUSH1 0x1 ADD PUSH2 0x31EA JUMP JUMPDEST POP POP POP POP POP POP JUMP JUMPDEST DUP2 MLOAD PUSH8 0xFFFFFFFFFFFFFFFF DUP2 GT ISZERO PUSH2 0x321F JUMPI PUSH2 0x321F PUSH2 0x2B3D JUMP JUMPDEST PUSH2 0x3233 DUP2 PUSH2 0x322D DUP5 SLOAD PUSH2 0x313A JUMP JUMPDEST DUP5 PUSH2 0x31B7 JUMP JUMPDEST PUSH1 0x20 DUP1 PUSH1 0x1F DUP4 GT PUSH1 0x1 DUP2 EQ PUSH2 0x3268 JUMPI PUSH1 0x0 DUP5 ISZERO PUSH2 0x3250 JUMPI POP DUP6 DUP4 ADD MLOAD JUMPDEST PUSH1 0x0 NOT PUSH1 0x3 DUP7 SWAP1 SHL SHR NOT AND PUSH1 0x1 DUP6 SWAP1 SHL OR DUP6 SSTORE PUSH2 0x31FD JUMP JUMPDEST PUSH1 0x0 DUP6 DUP2 MSTORE PUSH1 0x20 DUP2 KECCAK256 PUSH1 0x1F NOT DUP7 AND SWAP2 JUMPDEST DUP3 DUP2 LT ISZERO PUSH2 0x3297 JUMPI DUP9 DUP7 ADD MLOAD DUP3 SSTORE SWAP5 DUP5 ADD SWAP5 PUSH1 0x1 SWAP1 SWAP2 ADD SWAP1 DUP5 ADD PUSH2 0x3278 JUMP JUMPDEST POP DUP6 DUP3 LT ISZERO PUSH2 0x32B5 JUMPI DUP8 DUP6 ADD MLOAD PUSH1 0x0 NOT PUSH1 0x3 DUP9 SWAP1 SHL PUSH1 0xF8 AND SHR NOT AND DUP2 SSTORE JUMPDEST POP POP POP POP POP PUSH1 0x1 SWAP1 DUP2 SHL ADD SWAP1 SSTORE POP JUMP JUMPDEST PUSH1 0x20 DUP1 DUP3 MSTORE PUSH1 0x16 SWAP1 DUP3 ADD MSTORE PUSH22 0x2737BA1030B71030B8383937BB32B2103632B73232B9 PUSH1 0x51 SHL PUSH1 0x40 DUP3 ADD MSTORE PUSH1 0x60 ADD SWAP1 JUMP JUMPDEST DUP2 DUP2 SUB DUP2 DUP2 GT ISZERO PUSH2 0x30FF JUMPI PUSH2 0x30FF PUSH2 0x30B9 JUMP JUMPDEST PUSH1 0x20 DUP1 DUP3 MSTORE PUSH1 0x15 SWAP1 DUP3 ADD MSTORE PUSH21 0x151BDAD95B881D1C985B9CD9995C8819985A5B1959 PUSH1 0x5A SHL PUSH1 0x40 DUP3 ADD MSTORE PUSH1 0x60 ADD SWAP1 JUMP JUMPDEST PUSH1 0x20 DUP2 MSTORE PUSH1 0x0 PUSH2 0x95B PUSH1 0x20 DUP4 ADD DUP5 PUSH2 0x2A86 JUMP INVALID LOG2 PUSH5 0x6970667358 0x22 SLT KECCAK256 CALLVALUE DUP8 0xD4 DUP3 0x4B 0xC3 0xCE 0xC8 LOG4 RETURN SHR 0x2F CODECOPY PREVRANDAO 0xCA PREVRANDAO ADD 0x2C ORIGIN 0xC1 0xD2 JUMP 0x28 0xE6 NUMBER 0xFB 0xA5 0xC9 0xBB 0x4D 0x2B 0x27 PUSH5 0x736F6C6343 STOP ADDMOD EQ STOP CALLER "},"methodIdentifiers":{"addLender(address,string,uint256,uint256)":"c67a8cd3","approveLoan(uint256)":"aadc1ac1","approvedLenders(address)":"afa85de6","borrowerLoans(address,uint256)":"e3ed1902","borrowerProfiles(address)":"6949000c","calculateInterestRate(address,address,uint256,uint256)":"1112f94c","calculateTotalDue((uint256,address,uint256,uint256,uint256,uint256,uint256,uint256,uint8,bool,address,string))":"35176b40","depositLenderFunds(uint256)":"8fe135c7","feeCollector()":"c415b95c","getBorrowerLoans(address)":"eee8b7ff","getLoanDetails(uint256)":"66877b8d","getLoanPayments(uint256)":"ce473114","hasBorrowerDefaulted(address)":"10b0e5f2","lenderAddresses(uint256)":"2d6963ce","lenders(address)":"28fd10d7","loanPayments(uint256,uint256)":"af3d3e98","loanToken()":"06d37817","loans(uint256)":"e1ec3c68","markAsDefaulted(uint256)":"a8743022","maxLoanAmount()":"72f94365","maxTermDays()":"256ed143","minLoanAmount()":"e06a9138","minTermDays()":"b87041d4","nextLoanId()":"87c51459","owner()":"8da5cb5b","platformFeePercent()":"8c639a85","recoverTokens(address,uint256)":"069c9fae","rejectLoan(uint256,string)":"52ee8f81","removeLender(address)":"84019eed","renounceOwnership()":"715018a6","repayLoan(uint256,uint256)":"8a700b53","requestGroupLoan(address,uint256,uint256,string)":"4f10e9f1","requestLoan(address,uint256,uint256,string)":"f504f908","transferOwnership(address)":"f2fde38b","updateFeeCollector(address)":"d2c35ce8","updateSystemParameters(uint256,uint256,uint256,uint256,uint256)":"c9a10dad","withdrawLenderFunds(uint256)":"51a560dc"}},"storageLayout":{"storage":[{"astId":396,"contract":"contracts/MicroloanSystem.sol:MicroloanSystem","label":"_owner","offset":0,"slot":"0","type":"t_address"},{"astId":512,"contract":"contracts/MicroloanSystem.sol:MicroloanSystem","label":"_status","offset":0,"slot":"1","type":"t_uint256"},{"astId":2227,"contract":"contracts/MicroloanSystem.sol:MicroloanSystem","label":"loanToken","offset":0,"slot":"2","type":"t_contract(IERC20)644"},{"astId":2300,"contract":"contracts/MicroloanSystem.sol:MicroloanSystem","label":"nextLoanId","offset":0,"slot":"3","type":"t_uint256"},{"astId":2305,"contract":"contracts/MicroloanSystem.sol:MicroloanSystem","label":"loans","offset":0,"slot":"4","type":"t_mapping(t_uint256,t_struct(Loan)2259_storage)"},{"astId":2311,"contract":"contracts/MicroloanSystem.sol:MicroloanSystem","label":"loanPayments","offset":0,"slot":"5","type":"t_mapping(t_uint256,t_array(t_struct(Payment)2268_storage)dyn_storage)"},{"astId":2316,"contract":"contracts/MicroloanSystem.sol:MicroloanSystem","label":"borrowerLoans","offset":0,"slot":"6","type":"t_mapping(t_address,t_array(t_uint256)dyn_storage)"},{"astId":2321,"contract":"contracts/MicroloanSystem.sol:MicroloanSystem","label":"borrowerProfiles","offset":0,"slot":"7","type":"t_mapping(t_address,t_struct(BorrowerProfile)2281_storage)"},{"astId":2325,"contract":"contracts/MicroloanSystem.sol:MicroloanSystem","label":"approvedLenders","offset":0,"slot":"8","type":"t_mapping(t_address,t_bool)"},{"astId":2330,"contract":"contracts/MicroloanSystem.sol:MicroloanSystem","label":"lenders","offset":0,"slot":"9","type":"t_mapping(t_address,t_struct(Lender)2298_storage)"},{"astId":2333,"contract":"contracts/MicroloanSystem.sol:MicroloanSystem","label":"lenderAddresses","offset":0,"slot":"10","type":"t_array(t_address)dyn_storage"},{"astId":2335,"contract":"contracts/MicroloanSystem.sol:MicroloanSystem","label":"minLoanAmount","offset":0,"slot":"11","type":"t_uint256"},{"astId":2337,"contract":"contracts/MicroloanSystem.sol:MicroloanSystem","label":"maxLoanAmount","offset":0,"slot":"12","type":"t_uint256"},{"astId":2339,"contract":"contracts/MicroloanSystem.sol:MicroloanSystem","label":"minTermDays","offset":0,"slot":"13","type":"t_uint256"},{"astId":2341,"contract":"contracts/MicroloanSystem.sol:MicroloanSystem","label":"maxTermDays","offset":0,"slot":"14","type":"t_uint256"},{"astId":2343,"contract":"contracts/MicroloanSystem.sol:MicroloanSystem","label":"platformFeePercent","offset":0,"slot":"15","type":"t_uint256"},{"astId":2345,"contract":"contracts/MicroloanSystem.sol:MicroloanSystem","label":"feeCollector","offset":0,"slot":"16","type":"t_address"}],"types":{"t_address":{"encoding":"inplace","label":"address","numberOfBytes":"20"},"t_array(t_address)dyn_storage":{"base":"t_address","encoding":"dynamic_array","label":"address[]","numberOfBytes":"32"},"t_array(t_struct(Payment)2268_storage)dyn_storage":{"base":"t_struct(Payment)2268_storage","encoding":"dynamic_array","label":"struct MicroloanSystem.Payment[]","numberOfBytes":"32"},"t_array(t_uint256)dyn_storage":{"base":"t_uint256","encoding":"dynamic_array","label":"uint256[]","numberOfBytes":"32"},"t_bool":{"encoding":"inplace","label":"bool","numberOfBytes":"1"},"t_contract(IERC20)644":{"encoding":"inplace","label":"contract IERC20","numberOfBytes":"20"},"t_enum(LoanStatus)2233":{"encoding":"inplace","label":"enum MicroloanSystem.LoanStatus","numberOfBytes":"1"},"t_mapping(t_address,t_array(t_uint256)dyn_storage)":{"encoding":"mapping","key":"t_address","label":"mapping(address => uint256[])","numberOfBytes":"32","value":"t_array(t_uint256)dyn_storage"},"t_mapping(t_address,t_bool)":{"encoding":"mapping","key":"t_address","label":"mapping(address => bool)","numberOfBytes":"32","value":"t_bool"},"t_mapping(t_address,t_struct(BorrowerProfile)2281_storage)":{"encoding":"mapping","key":"t_address","label":"mapping(address => struct MicroloanSystem.BorrowerProfile)","numberOfBytes":"32","value":"t_struct(BorrowerProfile)2281_storage"},"t_mapping(t_address,t_struct(Lender)2298_storage)":{"encoding":"mapping","key":"t_address","label":"mapping(address => struct MicroloanSystem.Lender)","numberOfBytes":"32","value":"t_struct(Lender)2298_storage"},"t_mapping(t_uint256,t_array(t_struct(Payment)2268_storage)dyn_storage)":{"encoding":"mapping","key":"t_uint256","label":"mapping(uint256 => struct MicroloanSystem.Payment[])","numberOfBytes":"32","value":"t_array(t_struct(Payment)2268_storage)dyn_storage"},"t_mapping(t_uint256,t_struct(Loan)2259_storage)":{"encoding":"mapping","key":"t_uint256","label":"mapping(uint256 => struct MicroloanSystem.Loan)","numberOfBytes":"32","value":"t_struct(Loan)2259_storage"},"t_string_storage":{"encoding":"bytes","label":"string","numberOfBytes":"32"},"t_struct(BorrowerProfile)2281_storage":{"encoding":"inplace","label":"struct MicroloanSystem.BorrowerProfile","members":[{"astId":2270,"contract":"contracts/MicroloanSystem.sol:MicroloanSystem","label":"totalBorrowed","offset":0,"slot":"0","type":"t_uint256"},{"astId":2272,"contract":"contracts/MicroloanSystem.sol:MicroloanSystem","label":"totalRepaid","offset":0,"slot":"1","type":"t_uint256"},{"astId":2274,"contract":"contracts/MicroloanSystem.sol:MicroloanSystem","label":"loansCompleted","offset":0,"slot":"2","type":"t_uint256"},{"astId":2276,"contract":"contracts/MicroloanSystem.sol:MicroloanSystem","label":"loansDefaulted","offset":0,"slot":"3","type":"t_uint256"},{"astId":2278,"contract":"contracts/MicroloanSystem.sol:MicroloanSystem","label":"creditScore","offset":0,"slot":"4","type":"t_uint256"},{"astId":2280,"contract":"contracts/MicroloanSystem.sol:MicroloanSystem","label":"lastLoanId","offset":0,"slot":"5","type":"t_uint256"}],"numberOfBytes":"192"},"t_struct(Lender)2298_storage":{"encoding":"inplace","label":"struct MicroloanSystem.Lender","members":[{"astId":2283,"contract":"contracts/MicroloanSystem.sol:MicroloanSystem","label":"lenderAddress","offset":0,"slot":"0","type":"t_address"},{"astId":2285,"contract":"contracts/MicroloanSystem.sol:MicroloanSystem","label":"name","offset":0,"slot":"1","type":"t_string_storage"},{"astId":2287,"contract":"contracts/MicroloanSystem.sol:MicroloanSystem","label":"isActive","offset":0,"slot":"2","type":"t_bool"},{"astId":2289,"contract":"contracts/MicroloanSystem.sol:MicroloanSystem","label":"totalFundsAvailable","offset":0,"slot":"3","type":"t_uint256"},{"astId":2291,"contract":"contracts/MicroloanSystem.sol:MicroloanSystem","label":"totalLoaned","offset":0,"slot":"4","type":"t_uint256"},{"astId":2293,"contract":"contracts/MicroloanSystem.sol:MicroloanSystem","label":"totalRepaid","offset":0,"slot":"5","type":"t_uint256"},{"astId":2295,"contract":"contracts/MicroloanSystem.sol:MicroloanSystem","label":"maxLoanAmount","offset":0,"slot":"6","type":"t_uint256"},{"astId":2297,"contract":"contracts/MicroloanSystem.sol:MicroloanSystem","label":"baseInterestRate","offset":0,"slot":"7","type":"t_uint256"}],"numberOfBytes":"256"},"t_struct(Loan)2259_storage":{"encoding":"inplace","label":"struct MicroloanSystem.Loan","members":[{"astId":2235,"contract":"contracts/MicroloanSystem.sol:MicroloanSystem","label":"id","offset":0,"slot":"0","type":"t_uint256"},{"astId":2237,"contract":"contracts/MicroloanSystem.sol:MicroloanSystem","label":"borrower","offset":0,"slot":"1","type":"t_address"},{"astId":2239,"contract":"contracts/MicroloanSystem.sol:MicroloanSystem","label":"amount","offset":0,"slot":"2","type":"t_uint256"},{"astId":2241,"contract":"contracts/MicroloanSystem.sol:MicroloanSystem","label":"interestRate","offset":0,"slot":"3","type":"t_uint256"},{"astId":2243,"contract":"contracts/MicroloanSystem.sol:MicroloanSystem","label":"termDays","offset":0,"slot":"4","type":"t_uint256"},{"astId":2245,"contract":"contracts/MicroloanSystem.sol:MicroloanSystem","label":"issuedTime","offset":0,"slot":"5","type":"t_uint256"},{"astId":2247,"contract":"contracts/MicroloanSystem.sol:MicroloanSystem","label":"dueTime","offset":0,"slot":"6","type":"t_uint256"},{"astId":2249,"contract":"contracts/MicroloanSystem.sol:MicroloanSystem","label":"repaidAmount","offset":0,"slot":"7","type":"t_uint256"},{"astId":2252,"contract":"contracts/MicroloanSystem.sol:MicroloanSystem","label":"status","offset":0,"slot":"8","type":"t_enum(LoanStatus)2233"},{"astId":2254,"contract":"contracts/MicroloanSystem.sol:MicroloanSystem","label":"isGroupLoan","offset":1,"slot":"8","type":"t_bool"},{"astId":2256,"contract":"contracts/MicroloanSystem.sol:MicroloanSystem","label":"groupAddress","offset":2,"slot":"8","type":"t_address"},{"astId":2258,"contract":"contracts/MicroloanSystem.sol:MicroloanSystem","label":"purpose","offset":0,"slot":"9","type":"t_string_storage"}],"numberOfBytes":"320"},"t_struct(Payment)2268_storage":{"encoding":"inplace","label":"struct MicroloanSystem.Payment","members":[{"astId":2261,"contract":"contracts/MicroloanSystem.sol:MicroloanSystem","label":"loanId","offset":0,"slot":"0","type":"t_uint256"},{"astId":2263,"contract":"contracts/MicroloanSystem.sol:MicroloanSystem","label":"amount","offset":0,"slot":"1","type":"t_uint256"},{"astId":2265,"contract":"contracts/MicroloanSystem.sol:MicroloanSystem","label":"timestamp","offset":0,"slot":"2","type":"t_uint256"},{"astId":2267,"contract":"contracts/MicroloanSystem.sol:MicroloanSystem","label":"payer","offset":0,"slot":"3","type":"t_address"}],"numberOfBytes":"128"},"t_uint256":{"encoding":"inplace","label":"uint256","numberOfBytes":"32"}}}}}}