{"contracts/SavingsGroup.sol":{"SavingsGroup":{"abi":[{"inputs":[{"internalType":"string","name":"_groupName","type":"string"},{"internalType":"address","name":"_celoToken","type":"address"},{"internalType":"uint256","name":"_minimumContribution","type":"uint256"},{"internalType":"uint256","name":"_maxLoanAmount","type":"uint256"},{"internalType":"uint256","name":"_defaultInterestRate","type":"uint256"},{"internalType":"address","name":"_groupAdmin","type":"address"}],"stateMutability":"nonpayable","type":"constructor"},{"anonymous":false,"inputs":[{"indexed":true,"internalType":"address","name":"member","type":"address"},{"indexed":false,"internalType":"uint256","name":"amount","type":"uint256"},{"indexed":false,"internalType":"uint256","name":"cycleId","type":"uint256"}],"name":"ContributionMade","type":"event"},{"anonymous":false,"inputs":[{"indexed":true,"internalType":"uint256","name":"cycleId","type":"uint256"},{"indexed":false,"internalType":"uint256","name":"totalCollected","type":"uint256"}],"name":"CycleCompleted","type":"event"},{"anonymous":false,"inputs":[{"indexed":true,"internalType":"uint256","name":"cycleId","type":"uint256"},{"indexed":false,"internalType":"uint256","name":"targetAmount","type":"uint256"},{"indexed":false,"internalType":"uint256","name":"duration","type":"uint256"}],"name":"CycleStarted","type":"event"},{"anonymous":false,"inputs":[{"indexed":true,"internalType":"uint256","name":"loanId","type":"uint256"},{"indexed":true,"internalType":"address","name":"borrower","type":"address"},{"indexed":false,"internalType":"uint256","name":"amount","type":"uint256"}],"name":"LoanApproved","type":"event"},{"anonymous":false,"inputs":[{"indexed":true,"internalType":"uint256","name":"loanId","type":"uint256"},{"indexed":true,"internalType":"address","name":"borrower","type":"address"},{"indexed":false,"internalType":"uint256","name":"amount","type":"uint256"}],"name":"LoanRepayment","type":"event"},{"anonymous":false,"inputs":[{"indexed":true,"internalType":"uint256","name":"loanId","type":"uint256"},{"indexed":true,"internalType":"address","name":"borrower","type":"address"},{"indexed":false,"internalType":"uint256","name":"amount","type":"uint256"}],"name":"LoanRequested","type":"event"},{"anonymous":false,"inputs":[{"indexed":true,"internalType":"address","name":"member","type":"address"},{"indexed":false,"internalType":"uint256","name":"timestamp","type":"uint256"}],"name":"MemberAdded","type":"event"},{"anonymous":false,"inputs":[{"indexed":true,"internalType":"address","name":"member","type":"address"},{"indexed":false,"internalType":"uint256","name":"timestamp","type":"uint256"}],"name":"MemberRemoved","type":"event"},{"anonymous":false,"inputs":[{"indexed":true,"internalType":"bytes32","name":"role","type":"bytes32"},{"indexed":true,"internalType":"bytes32","name":"previousAdminRole","type":"bytes32"},{"indexed":true,"internalType":"bytes32","name":"newAdminRole","type":"bytes32"}],"name":"RoleAdminChanged","type":"event"},{"anonymous":false,"inputs":[{"indexed":true,"internalType":"bytes32","name":"role","type":"bytes32"},{"indexed":true,"internalType":"address","name":"account","type":"address"},{"indexed":true,"internalType":"address","name":"sender","type":"address"}],"name":"RoleGranted","type":"event"},{"anonymous":false,"inputs":[{"indexed":true,"internalType":"bytes32","name":"role","type":"bytes32"},{"indexed":true,"internalType":"address","name":"account","type":"address"},{"indexed":true,"internalType":"address","name":"sender","type":"address"}],"name":"RoleRevoked","type":"event"},{"inputs":[],"name":"DEFAULT_ADMIN_ROLE","outputs":[{"internalType":"bytes32","name":"","type":"bytes32"}],"stateMutability":"view","type":"function"},{"inputs":[],"name":"GROUP_ADMIN_ROLE","outputs":[{"internalType":"bytes32","name":"","type":"bytes32"}],"stateMutability":"view","type":"function"},{"inputs":[],"name":"MEMBER_ROLE","outputs":[{"internalType":"bytes32","name":"","type":"bytes32"}],"stateMutability":"view","type":"function"},{"inputs":[{"internalType":"address","name":"_member","type":"address"}],"name":"addMember","outputs":[],"stateMutability":"nonpayable","type":"function"},{"inputs":[{"internalType":"uint256","name":"_loanId","type":"uint256"}],"name":"approveLoan","outputs":[],"stateMutability":"nonpayable","type":"function"},{"inputs":[],"name":"celoToken","outputs":[{"internalType":"contract IERC20","name":"","type":"address"}],"stateMutability":"view","type":"function"},{"inputs":[{"internalType":"uint256","name":"","type":"uint256"}],"name":"contributionCycles","outputs":[{"internalType":"uint256","name":"cycleId","type":"uint256"},{"internalType":"uint256","name":"targetAmount","type":"uint256"},{"internalType":"uint256","name":"currentAmount","type":"uint256"},{"internalType":"uint256","name":"startDate","type":"uint256"},{"internalType":"uint256","name":"endDate","type":"uint256"},{"internalType":"bool","name":"isActive","type":"bool"}],"stateMutability":"view","type":"function"},{"inputs":[],"name":"creationDate","outputs":[{"internalType":"uint256","name":"","type":"uint256"}],"stateMutability":"view","type":"function"},{"inputs":[],"name":"currentCycleId","outputs":[{"internalType":"uint256","name":"","type":"uint256"}],"stateMutability":"view","type":"function"},{"inputs":[],"name":"defaultInterestRate","outputs":[{"internalType":"uint256","name":"","type":"uint256"}],"stateMutability":"view","type":"function"},{"inputs":[],"name":"getCurrentCycleInfo","outputs":[{"internalType":"uint256","name":"cycleId","type":"uint256"},{"internalType":"uint256","name":"targetAmount","type":"uint256"},{"internalType":"uint256","name":"currentAmount","type":"uint256"},{"internalType":"uint256","name":"startDate","type":"uint256"},{"internalType":"uint256","name":"endDate","type":"uint256"},{"internalType":"bool","name":"isActive","type":"bool"}],"stateMutability":"view","type":"function"},{"inputs":[{"internalType":"uint256","name":"_loanId","type":"uint256"}],"name":"getLoanInfo","outputs":[{"components":[{"internalType":"uint256","name":"loanId","type":"uint256"},{"internalType":"address","name":"borrower","type":"address"},{"internalType":"uint256","name":"amount","type":"uint256"},{"internalType":"uint256","name":"interestRate","type":"uint256"},{"internalType":"uint256","name":"duration","type":"uint256"},{"internalType":"uint256","name":"startDate","type":"uint256"},{"internalType":"uint256","name":"repaidAmount","type":"uint256"},{"internalType":"bool","name":"isActive","type":"bool"},{"internalType":"bool","name":"isApproved","type":"bool"},{"internalType":"uint256","name":"collateralAmount","type":"uint256"}],"internalType":"struct SavingsGroup.Loan","name":"","type":"tuple"}],"stateMutability":"view","type":"function"},{"inputs":[{"internalType":"address","name":"_member","type":"address"},{"internalType":"uint256","name":"_cycleId","type":"uint256"}],"name":"getMemberContributionInCycle","outputs":[{"internalType":"uint256","name":"","type":"uint256"}],"stateMutability":"view","type":"function"},{"inputs":[{"internalType":"address","name":"_member","type":"address"}],"name":"getMemberInfo","outputs":[{"components":[{"internalType":"address","name":"memberAddress","type":"address"},{"internalType":"uint256","name":"totalContributions","type":"uint256"},{"internalType":"uint256","name":"totalLoans","type":"uint256"},{"internalType":"uint256","name":"totalRepayments","type":"uint256"},{"internalType":"bool","name":"isActive","type":"bool"},{"internalType":"uint256","name":"joinDate","type":"uint256"},{"internalType":"uint256","name":"creditScore","type":"uint256"}],"internalType":"struct SavingsGroup.Member","name":"","type":"tuple"}],"stateMutability":"view","type":"function"},{"inputs":[{"internalType":"bytes32","name":"role","type":"bytes32"}],"name":"getRoleAdmin","outputs":[{"internalType":"bytes32","name":"","type":"bytes32"}],"stateMutability":"view","type":"function"},{"inputs":[{"internalType":"bytes32","name":"role","type":"bytes32"},{"internalType":"address","name":"account","type":"address"}],"name":"grantRole","outputs":[],"stateMutability":"nonpayable","type":"function"},{"inputs":[],"name":"groupBalance","outputs":[{"internalType":"uint256","name":"","type":"uint256"}],"stateMutability":"view","type":"function"},{"inputs":[],"name":"groupName","outputs":[{"internalType":"string","name":"","type":"string"}],"stateMutability":"view","type":"function"},{"inputs":[{"internalType":"bytes32","name":"role","type":"bytes32"},{"internalType":"address","name":"account","type":"address"}],"name":"hasRole","outputs":[{"internalType":"bool","name":"","type":"bool"}],"stateMutability":"view","type":"function"},{"inputs":[{"internalType":"uint256","name":"","type":"uint256"}],"name":"loans","outputs":[{"internalType":"uint256","name":"loanId","type":"uint256"},{"internalType":"address","name":"borrower","type":"address"},{"internalType":"uint256","name":"amount","type":"uint256"},{"internalType":"uint256","name":"interestRate","type":"uint256"},{"internalType":"uint256","name":"duration","type":"uint256"},{"internalType":"uint256","name":"startDate","type":"uint256"},{"internalType":"uint256","name":"repaidAmount","type":"uint256"},{"internalType":"bool","name":"isActive","type":"bool"},{"internalType":"bool","name":"isApproved","type":"bool"},{"internalType":"uint256","name":"collateralAmount","type":"uint256"}],"stateMutability":"view","type":"function"},{"inputs":[{"internalType":"uint256","name":"_amount","type":"uint256"}],"name":"makeContribution","outputs":[],"stateMutability":"nonpayable","type":"function"},{"inputs":[],"name":"maxLoanAmount","outputs":[{"internalType":"uint256","name":"","type":"uint256"}],"stateMutability":"view","type":"function"},{"inputs":[{"internalType":"uint256","name":"","type":"uint256"}],"name":"memberAddresses","outputs":[{"internalType":"address","name":"","type":"address"}],"stateMutability":"view","type":"function"},{"inputs":[],"name":"memberCount","outputs":[{"internalType":"uint256","name":"","type":"uint256"}],"stateMutability":"view","type":"function"},{"inputs":[{"internalType":"address","name":"","type":"address"}],"name":"members","outputs":[{"internalType":"address","name":"memberAddress","type":"address"},{"internalType":"uint256","name":"totalContributions","type":"uint256"},{"internalType":"uint256","name":"totalLoans","type":"uint256"},{"internalType":"uint256","name":"totalRepayments","type":"uint256"},{"internalType":"bool","name":"isActive","type":"bool"},{"internalType":"uint256","name":"joinDate","type":"uint256"},{"internalType":"uint256","name":"creditScore","type":"uint256"}],"stateMutability":"view","type":"function"},{"inputs":[],"name":"minimumContribution","outputs":[{"internalType":"uint256","name":"","type":"uint256"}],"stateMutability":"view","type":"function"},{"inputs":[],"name":"nextLoanId","outputs":[{"internalType":"uint256","name":"","type":"uint256"}],"stateMutability":"view","type":"function"},{"inputs":[{"internalType":"bytes32","name":"role","type":"bytes32"},{"internalType":"address","name":"account","type":"address"}],"name":"renounceRole","outputs":[],"stateMutability":"nonpayable","type":"function"},{"inputs":[{"internalType":"uint256","name":"_loanId","type":"uint256"},{"internalType":"uint256","name":"_amount","type":"uint256"}],"name":"repayLoan","outputs":[],"stateMutability":"nonpayable","type":"function"},{"inputs":[{"internalType":"uint256","name":"_amount","type":"uint256"},{"internalType":"uint256","name":"_duration","type":"uint256"},{"internalType":"uint256","name":"_collateralAmount","type":"uint256"}],"name":"requestLoan","outputs":[{"internalType":"uint256","name":"","type":"uint256"}],"stateMutability":"nonpayable","type":"function"},{"inputs":[{"internalType":"bytes32","name":"role","type":"bytes32"},{"internalType":"address","name":"account","type":"address"}],"name":"revokeRole","outputs":[],"stateMutability":"nonpayable","type":"function"},{"inputs":[{"internalType":"uint256","name":"_targetAmount","type":"uint256"},{"internalType":"uint256","name":"_duration","type":"uint256"}],"name":"startContributionCycle","outputs":[],"stateMutability":"nonpayable","type":"function"},{"inputs":[{"internalType":"bytes4","name":"interfaceId","type":"bytes4"}],"name":"supportsInterface","outputs":[{"internalType":"bool","name":"","type":"bool"}],"stateMutability":"view","type":"function"},{"inputs":[],"name":"totalLoansIssued","outputs":[{"internalType":"uint256","name":"","type":"uint256"}],"stateMutability":"view","type":"function"},{"inputs":[],"name":"totalLoansRepaid","outputs":[{"internalType":"uint256","name":"","type":"uint256"}],"stateMutability":"view","type":"function"}],"evm":{"bytecode":{"linkReferences":{},"object":"60a06040523480156200001157600080fd5b5060405162002a8238038062002a82833981016040819052620000349162000174565b6001600055600262000047878262000319565b506001600160a01b0385166080526004849055600583905560068290554260035562000075600082620000b8565b620000a17f9037db4b5f898545654918dae90413d36e46a066a2032ab38fb124ff80ecb3a582620000b8565b50506001600c555050600060105550620003e59050565b60008281526001602090815260408083206001600160a01b038516845290915290205460ff166200013d5760008281526001602081815260408084206001600160a01b0386168086529252808420805460ff19169093179092559051339285917f2f8788117e7eff1d82e926ec794901d17c78024a50270940304540a733656f0d9190a45b5050565b634e487b7160e01b600052604160045260246000fd5b80516001600160a01b03811681146200016f57600080fd5b919050565b60008060008060008060c087890312156200018e57600080fd5b86516001600160401b0380821115620001a657600080fd5b818901915089601f830112620001bb57600080fd5b815181811115620001d057620001d062000141565b604051601f8201601f19908116603f01168101908382118183101715620001fb57620001fb62000141565b81604052828152602093508c848487010111156200021857600080fd5b600091505b828210156200023c57848201840151818301850152908301906200021d565b6000848483010152809a5050505062000257818a0162000157565b965050506040870151935060608701519250608087015191506200027e60a0880162000157565b90509295509295509295565b600181811c908216806200029f57607f821691505b602082108103620002c057634e487b7160e01b600052602260045260246000fd5b50919050565b601f8211156200031457600081815260208120601f850160051c81016020861015620002ef5750805b601f850160051c820191505b818110156200031057828155600101620002fb565b5050505b505050565b81516001600160401b0381111562000335576200033562000141565b6200034d816200034684546200028a565b84620002c6565b602080601f8311600181146200038557600084156200036c5750858301515b600019600386901b1c1916600185901b17855562000310565b600085815260208120601f198616915b82811015620003b65788860151825594840194600190910190840162000395565b5085821015620003d55787850151600019600388901b60f8161c191681555b5050505050600190811b01905550565b60805161265e62000424600039600081816106a501528181610a1c01528181610f89015281816111020152818161142f0152611c51015261265e6000f3fe608060405234801561001057600080fd5b50600436106102115760003560e01c806387c5145911610125578063bf454b80116100ad578063cc4e62991161007c578063cc4e62991461059c578063d547741f146105c7578063e1ec3c68146105da578063e22d551a146106a0578063edadbbfe146106c757600080fd5b8063bf454b8014610564578063c7959d0414610577578063c9e87b0214610580578063ca6d56dc1461058957600080fd5b8063a10f469e116100f4578063a10f469e146104d3578063a217fddf146104fa578063aaacdda014610502578063aadc1ac11461050b578063b95853821461051e57600080fd5b806387c514591461049b5780638a700b53146104a457806391d14854146104b7578063937e09b1146104ca57600080fd5b8063360a2bcb116101a8578063549f433f11610177578063549f433f146103fc5780635f1231ea1461040557806372f9436514610474578063783cec801461047d57806386c1c74d1461049257600080fd5b8063360a2bcb1461036657806336568abe146103795780634c3b19391461038c5780634df46d41146103c357600080fd5b80630cec8e7a116101e45780630cec8e7a1461030f57806311aee38014610324578063248a9ca31461032d5780632f2ff15d1461035157600080fd5b806301ffc9a71461021657806305b344101461023e5780630714012c1461025557806308ae4b0c14610275575b600080fd5b61022961022436600461223c565b6106da565b60405190151581526020015b60405180910390f35b61024760035481565b604051908152602001610235565b610268610263366004612266565b610711565b604051610235919061227f565b6102ce610283366004612325565b60086020526000908152604090208054600182015460028301546003840154600485015460058601546006909601546001600160a01b039095169593949293919260ff909116919087565b604080516001600160a01b03909816885260208801969096529486019390935260608501919091521515608084015260a083015260c082015260e001610235565b61024760008051602061260983398151915281565b610247600a5481565b61024761033b366004612266565b6000908152600160208190526040909120015490565b61036461035f366004612340565b61080b565b005b610364610374366004612266565b610836565b610364610387366004612340565b610bbe565b610394610c3c565b6040805196875260208701959095529385019290925260608401526080830152151560a082015260c001610235565b6102476103d136600461236c565b6000908152600f602090815260408083206001600160a01b0394909416835260069093019052205490565b610247600e5481565b610418610413366004612325565b610cab565b604051610235919081516001600160a01b0316815260208083015190820152604080830151908201526060808301519082015260808083015115159082015260a0828101519082015260c0918201519181019190915260e00190565b61024760055481565b610485610d6a565b60405161023591906123ba565b61024760065481565b610247600c5481565b6103646104b23660046123ed565b610df8565b6102296104c5366004612340565b611212565b61024760045481565b6102477f829b824e2329e205435d941c9f13baf578548505283d29261236d8e6596d463681565b610247600081565b61024760105481565b610364610519366004612266565b61123d565b61039461052c366004612266565b600f60205260009081526040902080546001820154600283015460038401546004850154600590950154939492939192909160ff1686565b6103646105723660046123ed565b611530565b610247600d5481565b61024760075481565b610364610597366004612325565b61173c565b6105af6105aa366004612266565b611985565b6040516001600160a01b039091168152602001610235565b6103646105d5366004612340565b6119af565b61064a6105e8366004612266565b600b6020526000908152604090208054600182015460028301546003840154600485015460058601546006870154600788015460089098015496976001600160a01b03909616969495939492939192909160ff8082169261010090920416908a565b604080519a8b526001600160a01b0390991660208b0152978901969096526060880194909452608087019290925260a086015260c0850152151560e0840152151561010083015261012082015261014001610235565b6105af7f000000000000000000000000000000000000000000000000000000000000000081565b6102476106d536600461240f565b6119d5565b60006001600160e01b03198216637965db0b60e01b148061070b57506301ffc9a760e01b6001600160e01b03198316145b92915050565b6107746040518061014001604052806000815260200160006001600160a01b031681526020016000815260200160008152602001600081526020016000815260200160008152602001600015158152602001600015158152602001600081525090565b506000908152600b60209081526040918290208251610140810184528154815260018201546001600160a01b0316928101929092526002810154928201929092526003820154606082015260048201546080820152600582015460a0820152600682015460c0820152600782015460ff808216151560e0840152610100918290041615159082015260089091015461012082015290565b6000828152600160208190526040909120015461082781611d51565b6108318383611d5b565b505050565b3360009081526008602052604090206004015460ff166108945760405162461bcd60e51b81526020600482015260146024820152734d656d626572206973206e6f742061637469766560601b60448201526064015b60405180910390fd5b61089c611dc6565b6004548110156108f85760405162461bcd60e51b815260206004820152602160248201527f416d6f756e742062656c6f77206d696e696d756d20636f6e747269627574696f6044820152603760f91b606482015260840161088b565b60006010541161094a5760405162461bcd60e51b815260206004820152601c60248201527f4e6f2061637469766520636f6e747269627574696f6e206379636c6500000000604482015260640161088b565b6010546000908152600f602052604090206005015460ff166109a45760405162461bcd60e51b81526020600482015260136024820152724379636c65206973206e6f742061637469766560681b604482015260640161088b565b6010546000908152600f60205260409020600401544211156109fa5760405162461bcd60e51b815260206004820152600f60248201526e10de58db19481a185cc8195b991959608a1b604482015260640161088b565b6040516323b872dd60e01b8152336004820152306024820152604481018290527f00000000000000000000000000000000000000000000000000000000000000006001600160a01b0316906323b872dd906064016020604051808303816000875af1158015610a6d573d6000803e3d6000fd5b505050506040513d601f19601f82011682018060405250810190610a91919061243b565b610acf5760405162461bcd60e51b815260206004820152600f60248201526e151c985b9cd9995c8819985a5b1959608a1b604482015260640161088b565b6010546000908152600f60209081526040808320338452600681019092528220805491928492610b00908490612473565b9250508190555081816002016000828254610b1b9190612473565b90915550503360009081526008602052604081206001018054849290610b42908490612473565b925050819055508160076000828254610b5b9190612473565b90915550610b6c9050336001611e1f565b60105460405133917f5dc1fe5ab986a852c4eda8e8bb94247d13307065c593fb83f1a09be27367938291610ba891868252602082015260400190565b60405180910390a250610bbb6001600055565b50565b6001600160a01b0381163314610c2e5760405162461bcd60e51b815260206004820152602f60248201527f416363657373436f6e74726f6c3a2063616e206f6e6c792072656e6f756e636560448201526e103937b632b9903337b91039b2b63360891b606482015260840161088b565b610c388282611e8d565b5050565b600080600080600080601054600003610c6657506000945084935083925082915081905080610ca3565b50506010546000908152600f60205260409020805460018201546002830154600384015460048501546005909501549398509196509450925060ff165b909192939495565b610cf66040518060e0016040528060006001600160a01b0316815260200160008152602001600081526020016000815260200160001515815260200160008152602001600081525090565b506001600160a01b03908116600090815260086020908152604091829020825160e0810184528154909416845260018101549184019190915260028101549183019190915260038101546060830152600481015460ff1615156080830152600581015460a08301526006015460c082015290565b60028054610d7790612486565b80601f0160208091040260200160405190810160405280929190818152602001828054610da390612486565b8015610df05780601f10610dc557610100808354040283529160200191610df0565b820191906000526020600020905b815481529060010190602001808311610dd357829003601f168201915b505050505081565b610e00611dc6565b6000828152600b6020526040902060018101546001600160a01b03163314610e5d5760405162461bcd60e51b815260206004820152601060248201526f2737ba103a3432903137b93937bbb2b960811b604482015260640161088b565b600781015460ff16610ea65760405162461bcd60e51b81526020600482015260126024820152714c6f616e206973206e6f742061637469766560701b604482015260640161088b565b60008211610ef65760405162461bcd60e51b815260206004820152601760248201527f416d6f756e74206d75737420626520706f736974697665000000000000000000604482015260640161088b565b6000610f0184611ef4565b90506000826006015482610f1591906124c0565b905080841115610f675760405162461bcd60e51b815260206004820152601d60248201527f416d6f756e7420657863656564732072656d61696e696e672064656274000000604482015260640161088b565b6040516323b872dd60e01b8152336004820152306024820152604481018590527f00000000000000000000000000000000000000000000000000000000000000006001600160a01b0316906323b872dd906064016020604051808303816000875af1158015610fda573d6000803e3d6000fd5b505050506040513d601f19601f82011682018060405250810190610ffe919061243b565b61104a5760405162461bcd60e51b815260206004820152601960248201527f52657061796d656e74207472616e73666572206661696c656400000000000000604482015260640161088b565b8383600601600082825461105e9190612473565b90915550503360009081526008602052604081206003018054869290611085908490612473565b92505081905550836007600082825461109e9190612473565b9091555050600683015482116111c35760078301805460ff191690556002830154600e80546000906110d1908490612473565b90915550506008830154156111c357600883015460405163a9059cbb60e01b815233600482015260248101919091527f00000000000000000000000000000000000000000000000000000000000000006001600160a01b03169063a9059cbb906044016020604051808303816000875af1158015611153573d6000803e3d6000fd5b505050506040513d601f19601f82011682018060405250810190611177919061243b565b6111c35760405162461bcd60e51b815260206004820152601860248201527f436f6c6c61746572616c2072657475726e206661696c65640000000000000000604482015260640161088b565b6111ce336000611e1f565b604051848152339086907f780ef358c62afe5202061fc77819fa12618913022159d66995a4e513e18404c69060200160405180910390a3505050610c386001600055565b60009182526001602090815260408084206001600160a01b0393909316845291905290205460ff1690565b61125560008051602061260983398151915233611212565b6112715760405162461bcd60e51b815260040161088b906124d3565b6000818152600b6020526040902060018101546001600160a01b03166112cf5760405162461bcd60e51b8152602060048201526013602482015272131bd85b88191bd95cc81b9bdd08195e1a5cdd606a1b604482015260640161088b565b6007810154610100900460ff16156113215760405162461bcd60e51b8152602060048201526015602482015274131bd85b88185b1c9958591e48185c1c1c9bdd9959605a1b604482015260640161088b565b600754816002015411156113725760405162461bcd60e51b8152602060048201526018602482015277496e73756666696369656e742067726f75702066756e647360401b604482015260640161088b565b6007818101805461ffff1916610101179055426005830155600282015481549091906000906113a29084906124c0565b909155505060028082015460018301546001600160a01b031660009081526008602052604081209092018054919290916113dd908490612473565b90915550506002810154600d80546000906113f9908490612473565b90915550506001810154600282015460405163a9059cbb60e01b81526001600160a01b03928316600482015260248101919091527f00000000000000000000000000000000000000000000000000000000000000009091169063a9059cbb906044016020604051808303816000875af115801561147a573d6000803e3d6000fd5b505050506040513d601f19601f8201168201806040525081019061149e919061243b565b6114e15760405162461bcd60e51b8152602060048201526014602482015273131bd85b881d1c985b9cd9995c8819985a5b195960621b604482015260640161088b565b600181015460028201546040519081526001600160a01b039091169083907f2b993938baa27c88e77a207903d275c96fa30ae5949a3ea5cd56e466e4f5c8919060200160405180910390a35050565b61154860008051602061260983398151915233611212565b6115645760405162461bcd60e51b815260040161088b906124d3565b600082116115b45760405162461bcd60e51b815260206004820152601e60248201527f54617267657420616d6f756e74206d75737420626520706f7369746976650000604482015260640161088b565b600081116116045760405162461bcd60e51b815260206004820152601960248201527f4475726174696f6e206d75737420626520706f73697469766500000000000000604482015260640161088b565b600060105411801561162a57506010546000908152600f602052604090206005015460ff165b1561169557601080546000908152600f6020526040808220600501805460ff1916905591548082529082902060020154915190917f5d6ce35d8b5a0cd1f552bd0ce68f81bf96eadebd1159905a8dd503fbbb0296609161168c91815260200190565b60405180910390a25b601080549060006116a5836124fe565b90915550506010546000818152600f602052604081209182556001820184905560028201554260038201556116dd8262015180612517565b6116e79042612473565b600482015560058101805460ff1916600117905560105460408051858152602081018590527f0e41c903d4f464af8fdd82a2a195fb81a5b17cfe3a20585d2f10d0eeb1f1d33c910160405180910390a2505050565b61175460008051602061260983398151915233611212565b6117705760405162461bcd60e51b815260040161088b906124d3565b6001600160a01b0381166117bf5760405162461bcd60e51b8152602060048201526016602482015275496e76616c6964206d656d626572206164647265737360501b604482015260640161088b565b6001600160a01b03811660009081526008602052604090206004015460ff16156118235760405162461bcd60e51b81526020600482015260156024820152744d656d62657220616c72656164792065786973747360581b604482015260640161088b565b6040805160e0810182526001600160a01b0380841680835260006020808501828152858701838152606087018481526001608089018181524260a08b019081526101f460c08c0190815289895260089097529a872099518a5499166001600160a01b0319998a16178a5593518982015591516002890155516003880155905160048701805491151560ff19909216919091179055955160058601555160069094019390935560098054948501815583527f6e1540171b6c0c960b71a7020d9f60077f6af931a8bbf590da0223dacf75c7af9093018054909116909217909155600a805491611910836124fe565b919050555061193f7f829b824e2329e205435d941c9f13baf578548505283d29261236d8e6596d463682611d5b565b806001600160a01b03167fede8eed4383e9241982619b94dd83e488b274cced0fd07b8c0092a393defd52f4260405161197a91815260200190565b60405180910390a250565b6009818154811061199557600080fd5b6000918252602090912001546001600160a01b0316905081565b600082815260016020819052604090912001546119cb81611d51565b6108318383611e8d565b3360009081526008602052604081206004015460ff16611a2e5760405162461bcd60e51b81526020600482015260146024820152734d656d626572206973206e6f742061637469766560601b604482015260640161088b565b600084118015611a4057506005548411155b611a825760405162461bcd60e51b8152602060048201526013602482015272125b9d985b1a59081b1bd85b88185b5bdd5b9d606a1b604482015260640161088b565b60008311611ac55760405162461bcd60e51b815260206004820152601060248201526f24b73b30b634b210323ab930ba34b7b760811b604482015260640161088b565b600754841115611b125760405162461bcd60e51b8152602060048201526018602482015277496e73756666696369656e742067726f75702066756e647360401b604482015260640161088b565b600c805460009182611b23836124fe565b919050559050604051806101400160405280828152602001336001600160a01b03168152602001868152602001611b5a3388611f8d565b81526020808201879052600060408084018290526060808501839052608080860184905260a080870185905260c09687018b9052888552600b86529383902087518155948701516001860180546001600160a01b039092166001600160a01b031990921691909117905591860151600285015585015160038401558401516004830155830151600582015590820151600682015560e08201516007820180546101008086015115150261ff00199315159390931661ffff1990911617919091179055610120909101516008909101558215611d12576040516323b872dd60e01b8152336004820152306024820152604481018490527f00000000000000000000000000000000000000000000000000000000000000006001600160a01b0316906323b872dd906064016020604051808303816000875af1158015611ca2573d6000803e3d6000fd5b505050506040513d601f19601f82011682018060405250810190611cc6919061243b565b611d125760405162461bcd60e51b815260206004820152601a60248201527f436f6c6c61746572616c207472616e73666572206661696c6564000000000000604482015260640161088b565b604051858152339082907f97e04be2fd6414727fe9d0400464568f4384aa8b06264119565ca8f6cc2a4b7a9060200160405180910390a3949350505050565b610bbb813361200a565b611d658282611212565b610c385760008281526001602081815260408084206001600160a01b0386168086529252808420805460ff19169093179092559051339285917f2f8788117e7eff1d82e926ec794901d17c78024a50270940304540a733656f0d9190a45050565b600260005403611e185760405162461bcd60e51b815260206004820152601f60248201527f5265656e7472616e637947756172643a207265656e7472616e742063616c6c00604482015260640161088b565b6002600055565b6001600160a01b03821660009081526008602052604090208115611e6a5761035281600601541015610831576005816006016000828254611e609190612473565b9091555050505050565b6103528160060154101561083157600a816006016000828254611e609190612473565b611e978282611212565b15610c385760008281526001602090815260408083206001600160a01b0385168085529252808320805460ff1916905551339285917ff6391f5c32d9c69d2a47ea670b442974b53935d1edc7fd64eb21e047a839171b9190a45050565b6000818152600b60205260408120600781015460ff16611f175750600092915050565b600062015180826005015442611f2d91906124c0565b611f37919061252e565b90506000611f7261016d611f6c612710611f6c86611f6689600301548a6002015461206390919063ffffffff16565b90612063565b90612076565b6002840154909150611f849082612082565b95945050505050565b6001600160a01b038216600090815260086020526040812060069081015490546102bc8210611fcf57611fc66064611f6c836050612063565b9250505061070b565b6102588210611fe857611fc66064611f6c83605a612063565b6101f482101561200257611fc66064611f6c836078612063565b949350505050565b6120148282611212565b610c38576120218161208e565b61202c8360206120a0565b60405160200161203d929190612550565b60408051601f198184030181529082905262461bcd60e51b825261088b916004016123ba565b600061206f8284612517565b9392505050565b600061206f828461252e565b600061206f8284612473565b606061070b6001600160a01b03831660145b606060006120af836002612517565b6120ba906002612473565b67ffffffffffffffff8111156120d2576120d26125c5565b6040519080825280601f01601f1916602001820160405280156120fc576020820181803683370190505b509050600360fc1b81600081518110612117576121176125db565b60200101906001600160f81b031916908160001a905350600f60fb1b81600181518110612146576121466125db565b60200101906001600160f81b031916908160001a905350600061216a846002612517565b612175906001612473565b90505b60018111156121ed576f181899199a1a9b1b9c1cb0b131b232b360811b85600f16601081106121a9576121a96125db565b1a60f81b8282815181106121bf576121bf6125db565b60200101906001600160f81b031916908160001a90535060049490941c936121e6816125f1565b9050612178565b50831561206f5760405162461bcd60e51b815260206004820181905260248201527f537472696e67733a20686578206c656e67746820696e73756666696369656e74604482015260640161088b565b60006020828403121561224e57600080fd5b81356001600160e01b03198116811461206f57600080fd5b60006020828403121561227857600080fd5b5035919050565b815181526020808301516101408301916122a3908401826001600160a01b03169052565b5060408301516040830152606083015160608301526080830151608083015260a083015160a083015260c083015160c083015260e08301516122e960e084018215159052565b506101008381015180151584830152505061012092830151919092015290565b80356001600160a01b038116811461232057600080fd5b919050565b60006020828403121561233757600080fd5b61206f82612309565b6000806040838503121561235357600080fd5b8235915061236360208401612309565b90509250929050565b6000806040838503121561237f57600080fd5b61238883612309565b946020939093013593505050565b60005b838110156123b1578181015183820152602001612399565b50506000910152565b60208152600082518060208401526123d9816040850160208701612396565b601f01601f19169190910160400192915050565b6000806040838503121561240057600080fd5b50508035926020909101359150565b60008060006060848603121561242457600080fd5b505081359360208301359350604090920135919050565b60006020828403121561244d57600080fd5b8151801515811461206f57600080fd5b634e487b7160e01b600052601160045260246000fd5b8082018082111561070b5761070b61245d565b600181811c9082168061249a57607f821691505b6020821081036124ba57634e487b7160e01b600052602260045260246000fd5b50919050565b8181038181111561070b5761070b61245d565b6020808252601190820152702737ba10309033b937bab81030b236b4b760791b604082015260600190565b6000600182016125105761251061245d565b5060010190565b808202811582820484141761070b5761070b61245d565b60008261254b57634e487b7160e01b600052601260045260246000fd5b500490565b7f416363657373436f6e74726f6c3a206163636f756e7420000000000000000000815260008351612588816017850160208801612396565b7001034b99036b4b9b9b4b733903937b6329607d1b60179184019182015283516125b9816028840160208801612396565b01602801949350505050565b634e487b7160e01b600052604160045260246000fd5b634e487b7160e01b600052603260045260246000fd5b6000816126005761260061245d565b50600019019056fe9037db4b5f898545654918dae90413d36e46a066a2032ab38fb124ff80ecb3a5a2646970667358221220da15f0d3d1ac1fc538d8fe357a8500e64862a084375d731b35dbe5c2875e64af64736f6c63430008140033","opcodes":"PUSH1 0xA0 PUSH1 0x40 MSTORE CALLVALUE DUP1 ISZERO PUSH3 0x11 JUMPI PUSH1 0x0 DUP1 REVERT JUMPDEST POP PUSH1 0x40 MLOAD PUSH3 0x2A82 CODESIZE SUB DUP1 PUSH3 0x2A82 DUP4 CODECOPY DUP2 ADD PUSH1 0x40 DUP2 SWAP1 MSTORE PUSH3 0x34 SWAP2 PUSH3 0x174 JUMP JUMPDEST PUSH1 0x1 PUSH1 0x0 SSTORE PUSH1 0x2 PUSH3 0x47 DUP8 DUP3 PUSH3 0x319 JUMP JUMPDEST POP PUSH1 0x1 PUSH1 0x1 PUSH1 0xA0 SHL SUB DUP6 AND PUSH1 0x80 MSTORE PUSH1 0x4 DUP5 SWAP1 SSTORE PUSH1 0x5 DUP4 SWAP1 SSTORE PUSH1 0x6 DUP3 SWAP1 SSTORE TIMESTAMP PUSH1 0x3 SSTORE PUSH3 0x75 PUSH1 0x0 DUP3 PUSH3 0xB8 JUMP JUMPDEST PUSH3 0xA1 PUSH32 0x9037DB4B5F898545654918DAE90413D36E46A066A2032AB38FB124FF80ECB3A5 DUP3 PUSH3 0xB8 JUMP JUMPDEST POP POP PUSH1 0x1 PUSH1 0xC SSTORE POP POP PUSH1 0x0 PUSH1 0x10 SSTORE POP PUSH3 0x3E5 SWAP1 POP JUMP JUMPDEST PUSH1 0x0 DUP3 DUP2 MSTORE PUSH1 0x1 PUSH1 0x20 SWAP1 DUP2 MSTORE PUSH1 0x40 DUP1 DUP4 KECCAK256 PUSH1 0x1 PUSH1 0x1 PUSH1 0xA0 SHL SUB DUP6 AND DUP5 MSTORE SWAP1 SWAP2 MSTORE SWAP1 KECCAK256 SLOAD PUSH1 0xFF AND PUSH3 0x13D JUMPI PUSH1 0x0 DUP3 DUP2 MSTORE PUSH1 0x1 PUSH1 0x20 DUP2 DUP2 MSTORE PUSH1 0x40 DUP1 DUP5 KECCAK256 PUSH1 0x1 PUSH1 0x1 PUSH1 0xA0 SHL SUB DUP7 AND DUP1 DUP7 MSTORE SWAP3 MSTORE DUP1 DUP5 KECCAK256 DUP1 SLOAD PUSH1 0xFF NOT AND SWAP1 SWAP4 OR SWAP1 SWAP3 SSTORE SWAP1 MLOAD CALLER SWAP3 DUP6 SWAP2 PUSH32 0x2F8788117E7EFF1D82E926EC794901D17C78024A50270940304540A733656F0D SWAP2 SWAP1 LOG4 JUMPDEST POP POP JUMP JUMPDEST PUSH4 0x4E487B71 PUSH1 0xE0 SHL PUSH1 0x0 MSTORE PUSH1 0x41 PUSH1 0x4 MSTORE PUSH1 0x24 PUSH1 0x0 REVERT JUMPDEST DUP1 MLOAD PUSH1 0x1 PUSH1 0x1 PUSH1 0xA0 SHL SUB DUP2 AND DUP2 EQ PUSH3 0x16F JUMPI PUSH1 0x0 DUP1 REVERT JUMPDEST SWAP2 SWAP1 POP JUMP JUMPDEST PUSH1 0x0 DUP1 PUSH1 0x0 DUP1 PUSH1 0x0 DUP1 PUSH1 0xC0 DUP8 DUP10 SUB SLT ISZERO PUSH3 0x18E JUMPI PUSH1 0x0 DUP1 REVERT JUMPDEST DUP7 MLOAD PUSH1 0x1 PUSH1 0x1 PUSH1 0x40 SHL SUB DUP1 DUP3 GT ISZERO PUSH3 0x1A6 JUMPI PUSH1 0x0 DUP1 REVERT JUMPDEST DUP2 DUP10 ADD SWAP2 POP DUP10 PUSH1 0x1F DUP4 ADD SLT PUSH3 0x1BB JUMPI PUSH1 0x0 DUP1 REVERT JUMPDEST DUP2 MLOAD DUP2 DUP2 GT ISZERO PUSH3 0x1D0 JUMPI PUSH3 0x1D0 PUSH3 0x141 JUMP JUMPDEST PUSH1 0x40 MLOAD PUSH1 0x1F DUP3 ADD PUSH1 0x1F NOT SWAP1 DUP2 AND PUSH1 0x3F ADD AND DUP2 ADD SWAP1 DUP4 DUP3 GT DUP2 DUP4 LT OR ISZERO PUSH3 0x1FB JUMPI PUSH3 0x1FB PUSH3 0x141 JUMP JUMPDEST DUP2 PUSH1 0x40 MSTORE DUP3 DUP2 MSTORE PUSH1 0x20 SWAP4 POP DUP13 DUP5 DUP5 DUP8 ADD ADD GT ISZERO PUSH3 0x218 JUMPI PUSH1 0x0 DUP1 REVERT JUMPDEST PUSH1 0x0 SWAP2 POP JUMPDEST DUP3 DUP3 LT ISZERO PUSH3 0x23C JUMPI DUP5 DUP3 ADD DUP5 ADD MLOAD DUP2 DUP4 ADD DUP6 ADD MSTORE SWAP1 DUP4 ADD SWAP1 PUSH3 0x21D JUMP JUMPDEST PUSH1 0x0 DUP5 DUP5 DUP4 ADD ADD MSTORE DUP1 SWAP11 POP POP POP POP PUSH3 0x257 DUP2 DUP11 ADD PUSH3 0x157 JUMP JUMPDEST SWAP7 POP POP POP PUSH1 0x40 DUP8 ADD MLOAD SWAP4 POP PUSH1 0x60 DUP8 ADD MLOAD SWAP3 POP PUSH1 0x80 DUP8 ADD MLOAD SWAP2 POP PUSH3 0x27E PUSH1 0xA0 DUP9 ADD PUSH3 0x157 JUMP JUMPDEST SWAP1 POP SWAP3 SWAP6 POP SWAP3 SWAP6 POP SWAP3 SWAP6 JUMP JUMPDEST PUSH1 0x1 DUP2 DUP2 SHR SWAP1 DUP3 AND DUP1 PUSH3 0x29F JUMPI PUSH1 0x7F DUP3 AND SWAP2 POP JUMPDEST PUSH1 0x20 DUP3 LT DUP2 SUB PUSH3 0x2C0 JUMPI PUSH4 0x4E487B71 PUSH1 0xE0 SHL PUSH1 0x0 MSTORE PUSH1 0x22 PUSH1 0x4 MSTORE PUSH1 0x24 PUSH1 0x0 REVERT JUMPDEST POP SWAP2 SWAP1 POP JUMP JUMPDEST PUSH1 0x1F DUP3 GT ISZERO PUSH3 0x314 JUMPI PUSH1 0x0 DUP2 DUP2 MSTORE PUSH1 0x20 DUP2 KECCAK256 PUSH1 0x1F DUP6 ADD PUSH1 0x5 SHR DUP2 ADD PUSH1 0x20 DUP7 LT ISZERO PUSH3 0x2EF JUMPI POP DUP1 JUMPDEST PUSH1 0x1F DUP6 ADD PUSH1 0x5 SHR DUP3 ADD SWAP2 POP JUMPDEST DUP2 DUP2 LT ISZERO PUSH3 0x310 JUMPI DUP3 DUP2 SSTORE PUSH1 0x1 ADD PUSH3 0x2FB JUMP JUMPDEST POP POP POP JUMPDEST POP POP POP JUMP JUMPDEST DUP2 MLOAD PUSH1 0x1 PUSH1 0x1 PUSH1 0x40 SHL SUB DUP2 GT ISZERO PUSH3 0x335 JUMPI PUSH3 0x335 PUSH3 0x141 JUMP JUMPDEST PUSH3 0x34D DUP2 PUSH3 0x346 DUP5 SLOAD PUSH3 0x28A JUMP JUMPDEST DUP5 PUSH3 0x2C6 JUMP JUMPDEST PUSH1 0x20 DUP1 PUSH1 0x1F DUP4 GT PUSH1 0x1 DUP2 EQ PUSH3 0x385 JUMPI PUSH1 0x0 DUP5 ISZERO PUSH3 0x36C JUMPI POP DUP6 DUP4 ADD MLOAD JUMPDEST PUSH1 0x0 NOT PUSH1 0x3 DUP7 SWAP1 SHL SHR NOT AND PUSH1 0x1 DUP6 SWAP1 SHL OR DUP6 SSTORE PUSH3 0x310 JUMP JUMPDEST PUSH1 0x0 DUP6 DUP2 MSTORE PUSH1 0x20 DUP2 KECCAK256 PUSH1 0x1F NOT DUP7 AND SWAP2 JUMPDEST DUP3 DUP2 LT ISZERO PUSH3 0x3B6 JUMPI DUP9 DUP7 ADD MLOAD DUP3 SSTORE SWAP5 DUP5 ADD SWAP5 PUSH1 0x1 SWAP1 SWAP2 ADD SWAP1 DUP5 ADD PUSH3 0x395 JUMP JUMPDEST POP DUP6 DUP3 LT ISZERO PUSH3 0x3D5 JUMPI DUP8 DUP6 ADD MLOAD PUSH1 0x0 NOT PUSH1 0x3 DUP9 SWAP1 SHL PUSH1 0xF8 AND SHR NOT AND DUP2 SSTORE JUMPDEST POP POP POP POP POP PUSH1 0x1 SWAP1 DUP2 SHL ADD SWAP1 SSTORE POP JUMP JUMPDEST PUSH1 0x80 MLOAD PUSH2 0x265E PUSH3 0x424 PUSH1 0x0 CODECOPY PUSH1 0x0 DUP2 DUP2 PUSH2 0x6A5 ADD MSTORE DUP2 DUP2 PUSH2 0xA1C ADD MSTORE DUP2 DUP2 PUSH2 0xF89 ADD MSTORE DUP2 DUP2 PUSH2 0x1102 ADD MSTORE DUP2 DUP2 PUSH2 0x142F ADD MSTORE PUSH2 0x1C51 ADD MSTORE PUSH2 0x265E PUSH1 0x0 RETURN INVALID PUSH1 0x80 PUSH1 0x40 MSTORE CALLVALUE DUP1 ISZERO PUSH2 0x10 JUMPI PUSH1 0x0 DUP1 REVERT JUMPDEST POP PUSH1 0x4 CALLDATASIZE LT PUSH2 0x211 JUMPI PUSH1 0x0 CALLDATALOAD PUSH1 0xE0 SHR DUP1 PUSH4 0x87C51459 GT PUSH2 0x125 JUMPI DUP1 PUSH4 0xBF454B80 GT PUSH2 0xAD JUMPI DUP1 PUSH4 0xCC4E6299 GT PUSH2 0x7C JUMPI DUP1 PUSH4 0xCC4E6299 EQ PUSH2 0x59C JUMPI DUP1 PUSH4 0xD547741F EQ PUSH2 0x5C7 JUMPI DUP1 PUSH4 0xE1EC3C68 EQ PUSH2 0x5DA JUMPI DUP1 PUSH4 0xE22D551A EQ PUSH2 0x6A0 JUMPI DUP1 PUSH4 0xEDADBBFE EQ PUSH2 0x6C7 JUMPI PUSH1 0x0 DUP1 REVERT JUMPDEST DUP1 PUSH4 0xBF454B80 EQ PUSH2 0x564 JUMPI DUP1 PUSH4 0xC7959D04 EQ PUSH2 0x577 JUMPI DUP1 PUSH4 0xC9E87B02 EQ PUSH2 0x580 JUMPI DUP1 PUSH4 0xCA6D56DC EQ PUSH2 0x589 JUMPI PUSH1 0x0 DUP1 REVERT JUMPDEST DUP1 PUSH4 0xA10F469E GT PUSH2 0xF4 JUMPI DUP1 PUSH4 0xA10F469E EQ PUSH2 0x4D3 JUMPI DUP1 PUSH4 0xA217FDDF EQ PUSH2 0x4FA JUMPI DUP1 PUSH4 0xAAACDDA0 EQ PUSH2 0x502 JUMPI DUP1 PUSH4 0xAADC1AC1 EQ PUSH2 0x50B JUMPI DUP1 PUSH4 0xB9585382 EQ PUSH2 0x51E JUMPI PUSH1 0x0 DUP1 REVERT JUMPDEST DUP1 PUSH4 0x87C51459 EQ PUSH2 0x49B JUMPI DUP1 PUSH4 0x8A700B53 EQ PUSH2 0x4A4 JUMPI DUP1 PUSH4 0x91D14854 EQ PUSH2 0x4B7 JUMPI DUP1 PUSH4 0x937E09B1 EQ PUSH2 0x4CA JUMPI PUSH1 0x0 DUP1 REVERT JUMPDEST DUP1 PUSH4 0x360A2BCB GT PUSH2 0x1A8 JUMPI DUP1 PUSH4 0x549F433F GT PUSH2 0x177 JUMPI DUP1 PUSH4 0x549F433F EQ PUSH2 0x3FC JUMPI DUP1 PUSH4 0x5F1231EA EQ PUSH2 0x405 JUMPI DUP1 PUSH4 0x72F94365 EQ PUSH2 0x474 JUMPI DUP1 PUSH4 0x783CEC80 EQ PUSH2 0x47D JUMPI DUP1 PUSH4 0x86C1C74D EQ PUSH2 0x492 JUMPI PUSH1 0x0 DUP1 REVERT JUMPDEST DUP1 PUSH4 0x360A2BCB EQ PUSH2 0x366 JUMPI DUP1 PUSH4 0x36568ABE EQ PUSH2 0x379 JUMPI DUP1 PUSH4 0x4C3B1939 EQ PUSH2 0x38C JUMPI DUP1 PUSH4 0x4DF46D41 EQ PUSH2 0x3C3 JUMPI PUSH1 0x0 DUP1 REVERT JUMPDEST DUP1 PUSH4 0xCEC8E7A GT PUSH2 0x1E4 JUMPI DUP1 PUSH4 0xCEC8E7A EQ PUSH2 0x30F JUMPI DUP1 PUSH4 0x11AEE380 EQ PUSH2 0x324 JUMPI DUP1 PUSH4 0x248A9CA3 EQ PUSH2 0x32D JUMPI DUP1 PUSH4 0x2F2FF15D EQ PUSH2 0x351 JUMPI PUSH1 0x0 DUP1 REVERT JUMPDEST DUP1 PUSH4 0x1FFC9A7 EQ PUSH2 0x216 JUMPI DUP1 PUSH4 0x5B34410 EQ PUSH2 0x23E JUMPI DUP1 PUSH4 0x714012C EQ PUSH2 0x255 JUMPI DUP1 PUSH4 0x8AE4B0C EQ PUSH2 0x275 JUMPI JUMPDEST PUSH1 0x0 DUP1 REVERT JUMPDEST PUSH2 0x229 PUSH2 0x224 CALLDATASIZE PUSH1 0x4 PUSH2 0x223C JUMP JUMPDEST PUSH2 0x6DA JUMP JUMPDEST PUSH1 0x40 MLOAD SWAP1 ISZERO ISZERO DUP2 MSTORE PUSH1 0x20 ADD JUMPDEST PUSH1 0x40 MLOAD DUP1 SWAP2 SUB SWAP1 RETURN JUMPDEST PUSH2 0x247 PUSH1 0x3 SLOAD DUP2 JUMP JUMPDEST PUSH1 0x40 MLOAD SWAP1 DUP2 MSTORE PUSH1 0x20 ADD PUSH2 0x235 JUMP JUMPDEST PUSH2 0x268 PUSH2 0x263 CALLDATASIZE PUSH1 0x4 PUSH2 0x2266 JUMP JUMPDEST PUSH2 0x711 JUMP JUMPDEST PUSH1 0x40 MLOAD PUSH2 0x235 SWAP2 SWAP1 PUSH2 0x227F JUMP JUMPDEST PUSH2 0x2CE PUSH2 0x283 CALLDATASIZE PUSH1 0x4 PUSH2 0x2325 JUMP JUMPDEST PUSH1 0x8 PUSH1 0x20 MSTORE PUSH1 0x0 SWAP1 DUP2 MSTORE PUSH1 0x40 SWAP1 KECCAK256 DUP1 SLOAD PUSH1 0x1 DUP3 ADD SLOAD PUSH1 0x2 DUP4 ADD SLOAD PUSH1 0x3 DUP5 ADD SLOAD PUSH1 0x4 DUP6 ADD SLOAD PUSH1 0x5 DUP7 ADD SLOAD PUSH1 0x6 SWAP1 SWAP7 ADD SLOAD PUSH1 0x1 PUSH1 0x1 PUSH1 0xA0 SHL SUB SWAP1 SWAP6 AND SWAP6 SWAP4 SWAP5 SWAP3 SWAP4 SWAP2 SWAP3 PUSH1 0xFF SWAP1 SWAP2 AND SWAP2 SWAP1 DUP8 JUMP JUMPDEST PUSH1 0x40 DUP1 MLOAD PUSH1 0x1 PUSH1 0x1 PUSH1 0xA0 SHL SUB SWAP1 SWAP9 AND DUP9 MSTORE PUSH1 0x20 DUP9 ADD SWAP7 SWAP1 SWAP7 MSTORE SWAP5 DUP7 ADD SWAP4 SWAP1 SWAP4 MSTORE PUSH1 0x60 DUP6 ADD SWAP2 SWAP1 SWAP2 MSTORE ISZERO ISZERO PUSH1 0x80 DUP5 ADD MSTORE PUSH1 0xA0 DUP4 ADD MSTORE PUSH1 0xC0 DUP3 ADD MSTORE PUSH1 0xE0 ADD PUSH2 0x235 JUMP JUMPDEST PUSH2 0x247 PUSH1 0x0 DUP1 MLOAD PUSH1 0x20 PUSH2 0x2609 DUP4 CODECOPY DUP2 MLOAD SWAP2 MSTORE DUP2 JUMP JUMPDEST PUSH2 0x247 PUSH1 0xA SLOAD DUP2 JUMP JUMPDEST PUSH2 0x247 PUSH2 0x33B CALLDATASIZE PUSH1 0x4 PUSH2 0x2266 JUMP JUMPDEST PUSH1 0x0 SWAP1 DUP2 MSTORE PUSH1 0x1 PUSH1 0x20 DUP2 SWAP1 MSTORE PUSH1 0x40 SWAP1 SWAP2 KECCAK256 ADD SLOAD SWAP1 JUMP JUMPDEST PUSH2 0x364 PUSH2 0x35F CALLDATASIZE PUSH1 0x4 PUSH2 0x2340 JUMP JUMPDEST PUSH2 0x80B JUMP JUMPDEST STOP JUMPDEST PUSH2 0x364 PUSH2 0x374 CALLDATASIZE PUSH1 0x4 PUSH2 0x2266 JUMP JUMPDEST PUSH2 0x836 JUMP JUMPDEST PUSH2 0x364 PUSH2 0x387 CALLDATASIZE PUSH1 0x4 PUSH2 0x2340 JUMP JUMPDEST PUSH2 0xBBE JUMP JUMPDEST PUSH2 0x394 PUSH2 0xC3C JUMP JUMPDEST PUSH1 0x40 DUP1 MLOAD SWAP7 DUP8 MSTORE PUSH1 0x20 DUP8 ADD SWAP6 SWAP1 SWAP6 MSTORE SWAP4 DUP6 ADD SWAP3 SWAP1 SWAP3 MSTORE PUSH1 0x60 DUP5 ADD MSTORE PUSH1 0x80 DUP4 ADD MSTORE ISZERO ISZERO PUSH1 0xA0 DUP3 ADD MSTORE PUSH1 0xC0 ADD PUSH2 0x235 JUMP JUMPDEST PUSH2 0x247 PUSH2 0x3D1 CALLDATASIZE PUSH1 0x4 PUSH2 0x236C JUMP JUMPDEST PUSH1 0x0 SWAP1 DUP2 MSTORE PUSH1 0xF PUSH1 0x20 SWAP1 DUP2 MSTORE PUSH1 0x40 DUP1 DUP4 KECCAK256 PUSH1 0x1 PUSH1 0x1 PUSH1 0xA0 SHL SUB SWAP5 SWAP1 SWAP5 AND DUP4 MSTORE PUSH1 0x6 SWAP1 SWAP4 ADD SWAP1 MSTORE KECCAK256 SLOAD SWAP1 JUMP JUMPDEST PUSH2 0x247 PUSH1 0xE SLOAD DUP2 JUMP JUMPDEST PUSH2 0x418 PUSH2 0x413 CALLDATASIZE PUSH1 0x4 PUSH2 0x2325 JUMP JUMPDEST PUSH2 0xCAB JUMP JUMPDEST PUSH1 0x40 MLOAD PUSH2 0x235 SWAP2 SWAP1 DUP2 MLOAD PUSH1 0x1 PUSH1 0x1 PUSH1 0xA0 SHL SUB AND DUP2 MSTORE PUSH1 0x20 DUP1 DUP4 ADD MLOAD SWAP1 DUP3 ADD MSTORE PUSH1 0x40 DUP1 DUP4 ADD MLOAD SWAP1 DUP3 ADD MSTORE PUSH1 0x60 DUP1 DUP4 ADD MLOAD SWAP1 DUP3 ADD MSTORE PUSH1 0x80 DUP1 DUP4 ADD MLOAD ISZERO ISZERO SWAP1 DUP3 ADD MSTORE PUSH1 0xA0 DUP3 DUP2 ADD MLOAD SWAP1 DUP3 ADD MSTORE PUSH1 0xC0 SWAP2 DUP3 ADD MLOAD SWAP2 DUP2 ADD SWAP2 SWAP1 SWAP2 MSTORE PUSH1 0xE0 ADD SWAP1 JUMP JUMPDEST PUSH2 0x247 PUSH1 0x5 SLOAD DUP2 JUMP JUMPDEST PUSH2 0x485 PUSH2 0xD6A JUMP JUMPDEST PUSH1 0x40 MLOAD PUSH2 0x235 SWAP2 SWAP1 PUSH2 0x23BA JUMP JUMPDEST PUSH2 0x247 PUSH1 0x6 SLOAD DUP2 JUMP JUMPDEST PUSH2 0x247 PUSH1 0xC SLOAD DUP2 JUMP JUMPDEST PUSH2 0x364 PUSH2 0x4B2 CALLDATASIZE PUSH1 0x4 PUSH2 0x23ED JUMP JUMPDEST PUSH2 0xDF8 JUMP JUMPDEST PUSH2 0x229 PUSH2 0x4C5 CALLDATASIZE PUSH1 0x4 PUSH2 0x2340 JUMP JUMPDEST PUSH2 0x1212 JUMP JUMPDEST PUSH2 0x247 PUSH1 0x4 SLOAD DUP2 JUMP JUMPDEST PUSH2 0x247 PUSH32 0x829B824E2329E205435D941C9F13BAF578548505283D29261236D8E6596D4636 DUP2 JUMP JUMPDEST PUSH2 0x247 PUSH1 0x0 DUP2 JUMP JUMPDEST PUSH2 0x247 PUSH1 0x10 SLOAD DUP2 JUMP JUMPDEST PUSH2 0x364 PUSH2 0x519 CALLDATASIZE PUSH1 0x4 PUSH2 0x2266 JUMP JUMPDEST PUSH2 0x123D JUMP JUMPDEST PUSH2 0x394 PUSH2 0x52C CALLDATASIZE PUSH1 0x4 PUSH2 0x2266 JUMP JUMPDEST PUSH1 0xF PUSH1 0x20 MSTORE PUSH1 0x0 SWAP1 DUP2 MSTORE PUSH1 0x40 SWAP1 KECCAK256 DUP1 SLOAD PUSH1 0x1 DUP3 ADD SLOAD PUSH1 0x2 DUP4 ADD SLOAD PUSH1 0x3 DUP5 ADD SLOAD PUSH1 0x4 DUP6 ADD SLOAD PUSH1 0x5 SWAP1 SWAP6 ADD SLOAD SWAP4 SWAP5 SWAP3 SWAP4 SWAP2 SWAP3 SWAP1 SWAP2 PUSH1 0xFF AND DUP7 JUMP JUMPDEST PUSH2 0x364 PUSH2 0x572 CALLDATASIZE PUSH1 0x4 PUSH2 0x23ED JUMP JUMPDEST PUSH2 0x1530 JUMP JUMPDEST PUSH2 0x247 PUSH1 0xD SLOAD DUP2 JUMP JUMPDEST PUSH2 0x247 PUSH1 0x7 SLOAD DUP2 JUMP JUMPDEST PUSH2 0x364 PUSH2 0x597 CALLDATASIZE PUSH1 0x4 PUSH2 0x2325 JUMP JUMPDEST PUSH2 0x173C JUMP JUMPDEST PUSH2 0x5AF PUSH2 0x5AA CALLDATASIZE PUSH1 0x4 PUSH2 0x2266 JUMP JUMPDEST PUSH2 0x1985 JUMP JUMPDEST PUSH1 0x40 MLOAD PUSH1 0x1 PUSH1 0x1 PUSH1 0xA0 SHL SUB SWAP1 SWAP2 AND DUP2 MSTORE PUSH1 0x20 ADD PUSH2 0x235 JUMP JUMPDEST PUSH2 0x364 PUSH2 0x5D5 CALLDATASIZE PUSH1 0x4 PUSH2 0x2340 JUMP JUMPDEST PUSH2 0x19AF JUMP JUMPDEST PUSH2 0x64A PUSH2 0x5E8 CALLDATASIZE PUSH1 0x4 PUSH2 0x2266 JUMP JUMPDEST PUSH1 0xB PUSH1 0x20 MSTORE PUSH1 0x0 SWAP1 DUP2 MSTORE PUSH1 0x40 SWAP1 KECCAK256 DUP1 SLOAD PUSH1 0x1 DUP3 ADD SLOAD PUSH1 0x2 DUP4 ADD SLOAD PUSH1 0x3 DUP5 ADD SLOAD PUSH1 0x4 DUP6 ADD SLOAD PUSH1 0x5 DUP7 ADD SLOAD PUSH1 0x6 DUP8 ADD SLOAD PUSH1 0x7 DUP9 ADD SLOAD PUSH1 0x8 SWAP1 SWAP9 ADD SLOAD SWAP7 SWAP8 PUSH1 0x1 PUSH1 0x1 PUSH1 0xA0 SHL SUB SWAP1 SWAP7 AND SWAP7 SWAP5 SWAP6 SWAP4 SWAP5 SWAP3 SWAP4 SWAP2 SWAP3 SWAP1 SWAP2 PUSH1 0xFF DUP1 DUP3 AND SWAP3 PUSH2 0x100 SWAP1 SWAP3 DIV AND SWAP1 DUP11 JUMP JUMPDEST PUSH1 0x40 DUP1 MLOAD SWAP11 DUP12 MSTORE PUSH1 0x1 PUSH1 0x1 PUSH1 0xA0 SHL SUB SWAP1 SWAP10 AND PUSH1 0x20 DUP12 ADD MSTORE SWAP8 DUP10 ADD SWAP7 SWAP1 SWAP7 MSTORE PUSH1 0x60 DUP9 ADD SWAP5 SWAP1 SWAP5 MSTORE PUSH1 0x80 DUP8 ADD SWAP3 SWAP1 SWAP3 MSTORE PUSH1 0xA0 DUP7 ADD MSTORE PUSH1 0xC0 DUP6 ADD MSTORE ISZERO ISZERO PUSH1 0xE0 DUP5 ADD MSTORE ISZERO ISZERO PUSH2 0x100 DUP4 ADD MSTORE PUSH2 0x120 DUP3 ADD MSTORE PUSH2 0x140 ADD PUSH2 0x235 JUMP JUMPDEST PUSH2 0x5AF PUSH32 0x0 DUP2 JUMP JUMPDEST PUSH2 0x247 PUSH2 0x6D5 CALLDATASIZE PUSH1 0x4 PUSH2 0x240F JUMP JUMPDEST PUSH2 0x19D5 JUMP JUMPDEST PUSH1 0x0 PUSH1 0x1 PUSH1 0x1 PUSH1 0xE0 SHL SUB NOT DUP3 AND PUSH4 0x7965DB0B PUSH1 0xE0 SHL EQ DUP1 PUSH2 0x70B JUMPI POP PUSH4 0x1FFC9A7 PUSH1 0xE0 SHL PUSH1 0x1 PUSH1 0x1 PUSH1 0xE0 SHL SUB NOT DUP4 AND EQ JUMPDEST SWAP3 SWAP2 POP POP JUMP JUMPDEST PUSH2 0x774 PUSH1 0x40 MLOAD DUP1 PUSH2 0x140 ADD PUSH1 0x40 MSTORE DUP1 PUSH1 0x0 DUP2 MSTORE PUSH1 0x20 ADD PUSH1 0x0 PUSH1 0x1 PUSH1 0x1 PUSH1 0xA0 SHL SUB AND DUP2 MSTORE PUSH1 0x20 ADD PUSH1 0x0 DUP2 MSTORE PUSH1 0x20 ADD PUSH1 0x0 DUP2 MSTORE PUSH1 0x20 ADD PUSH1 0x0 DUP2 MSTORE PUSH1 0x20 ADD PUSH1 0x0 DUP2 MSTORE PUSH1 0x20 ADD PUSH1 0x0 DUP2 MSTORE PUSH1 0x20 ADD PUSH1 0x0 ISZERO ISZERO DUP2 MSTORE PUSH1 0x20 ADD PUSH1 0x0 ISZERO ISZERO DUP2 MSTORE PUSH1 0x20 ADD PUSH1 0x0 DUP2 MSTORE POP SWAP1 JUMP JUMPDEST POP PUSH1 0x0 SWAP1 DUP2 MSTORE PUSH1 0xB PUSH1 0x20 SWAP1 DUP2 MSTORE PUSH1 0x40 SWAP2 DUP3 SWAP1 KECCAK256 DUP3 MLOAD PUSH2 0x140 DUP2 ADD DUP5 MSTORE DUP2 SLOAD DUP2 MSTORE PUSH1 0x1 DUP3 ADD SLOAD PUSH1 0x1 PUSH1 0x1 PUSH1 0xA0 SHL SUB AND SWAP3 DUP2 ADD SWAP3 SWAP1 SWAP3 MSTORE PUSH1 0x2 DUP2 ADD SLOAD SWAP3 DUP3 ADD SWAP3 SWAP1 SWAP3 MSTORE PUSH1 0x3 DUP3 ADD SLOAD PUSH1 0x60 DUP3 ADD MSTORE PUSH1 0x4 DUP3 ADD SLOAD PUSH1 0x80 DUP3 ADD MSTORE PUSH1 0x5 DUP3 ADD SLOAD PUSH1 0xA0 DUP3 ADD MSTORE PUSH1 0x6 DUP3 ADD SLOAD PUSH1 0xC0 DUP3 ADD MSTORE PUSH1 0x7 DUP3 ADD SLOAD PUSH1 0xFF DUP1 DUP3 AND ISZERO ISZERO PUSH1 0xE0 DUP5 ADD MSTORE PUSH2 0x100 SWAP2 DUP3 SWAP1 DIV AND ISZERO ISZERO SWAP1 DUP3 ADD MSTORE PUSH1 0x8 SWAP1 SWAP2 ADD SLOAD PUSH2 0x120 DUP3 ADD MSTORE SWAP1 JUMP JUMPDEST PUSH1 0x0 DUP3 DUP2 MSTORE PUSH1 0x1 PUSH1 0x20 DUP2 SWAP1 MSTORE PUSH1 0x40 SWAP1 SWAP2 KECCAK256 ADD SLOAD PUSH2 0x827 DUP2 PUSH2 0x1D51 JUMP JUMPDEST PUSH2 0x831 DUP4 DUP4 PUSH2 0x1D5B JUMP JUMPDEST POP POP POP JUMP JUMPDEST CALLER PUSH1 0x0 SWAP1 DUP2 MSTORE PUSH1 0x8 PUSH1 0x20 MSTORE PUSH1 0x40 SWAP1 KECCAK256 PUSH1 0x4 ADD SLOAD PUSH1 0xFF AND PUSH2 0x894 JUMPI PUSH1 0x40 MLOAD PUSH3 0x461BCD PUSH1 0xE5 SHL DUP2 MSTORE PUSH1 0x20 PUSH1 0x4 DUP3 ADD MSTORE PUSH1 0x14 PUSH1 0x24 DUP3 ADD MSTORE PUSH20 0x4D656D626572206973206E6F7420616374697665 PUSH1 0x60 SHL PUSH1 0x44 DUP3 ADD MSTORE PUSH1 0x64 ADD JUMPDEST PUSH1 0x40 MLOAD DUP1 SWAP2 SUB SWAP1 REVERT JUMPDEST PUSH2 0x89C PUSH2 0x1DC6 JUMP JUMPDEST PUSH1 0x4 SLOAD DUP2 LT ISZERO PUSH2 0x8F8 JUMPI PUSH1 0x40 MLOAD PUSH3 0x461BCD PUSH1 0xE5 SHL DUP2 MSTORE PUSH1 0x20 PUSH1 0x4 DUP3 ADD MSTORE PUSH1 0x21 PUSH1 0x24 DUP3 ADD MSTORE PUSH32 0x416D6F756E742062656C6F77206D696E696D756D20636F6E747269627574696F PUSH1 0x44 DUP3 ADD MSTORE PUSH1 0x37 PUSH1 0xF9 SHL PUSH1 0x64 DUP3 ADD MSTORE PUSH1 0x84 ADD PUSH2 0x88B JUMP JUMPDEST PUSH1 0x0 PUSH1 0x10 SLOAD GT PUSH2 0x94A JUMPI PUSH1 0x40 MLOAD PUSH3 0x461BCD PUSH1 0xE5 SHL DUP2 MSTORE PUSH1 0x20 PUSH1 0x4 DUP3 ADD MSTORE PUSH1 0x1C PUSH1 0x24 DUP3 ADD MSTORE PUSH32 0x4E6F2061637469766520636F6E747269627574696F6E206379636C6500000000 PUSH1 0x44 DUP3 ADD MSTORE PUSH1 0x64 ADD PUSH2 0x88B JUMP JUMPDEST PUSH1 0x10 SLOAD PUSH1 0x0 SWAP1 DUP2 MSTORE PUSH1 0xF PUSH1 0x20 MSTORE PUSH1 0x40 SWAP1 KECCAK256 PUSH1 0x5 ADD SLOAD PUSH1 0xFF AND PUSH2 0x9A4 JUMPI PUSH1 0x40 MLOAD PUSH3 0x461BCD PUSH1 0xE5 SHL DUP2 MSTORE PUSH1 0x20 PUSH1 0x4 DUP3 ADD MSTORE PUSH1 0x13 PUSH1 0x24 DUP3 ADD MSTORE PUSH19 0x4379636C65206973206E6F7420616374697665 PUSH1 0x68 SHL PUSH1 0x44 DUP3 ADD MSTORE PUSH1 0x64 ADD PUSH2 0x88B JUMP JUMPDEST PUSH1 0x10 SLOAD PUSH1 0x0 SWAP1 DUP2 MSTORE PUSH1 0xF PUSH1 0x20 MSTORE PUSH1 0x40 SWAP1 KECCAK256 PUSH1 0x4 ADD SLOAD TIMESTAMP GT ISZERO PUSH2 0x9FA JUMPI PUSH1 0x40 MLOAD PUSH3 0x461BCD PUSH1 0xE5 SHL DUP2 MSTORE PUSH1 0x20 PUSH1 0x4 DUP3 ADD MSTORE PUSH1 0xF PUSH1 0x24 DUP3 ADD MSTORE PUSH15 0x10DE58DB19481A185CC8195B991959 PUSH1 0x8A SHL PUSH1 0x44 DUP3 ADD MSTORE PUSH1 0x64 ADD PUSH2 0x88B JUMP JUMPDEST PUSH1 0x40 MLOAD PUSH4 0x23B872DD PUSH1 0xE0 SHL DUP2 MSTORE CALLER PUSH1 0x4 DUP3 ADD MSTORE ADDRESS PUSH1 0x24 DUP3 ADD MSTORE PUSH1 0x44 DUP2 ADD DUP3 SWAP1 MSTORE PUSH32 0x0 PUSH1 0x1 PUSH1 0x1 PUSH1 0xA0 SHL SUB AND SWAP1 PUSH4 0x23B872DD SWAP1 PUSH1 0x64 ADD PUSH1 0x20 PUSH1 0x40 MLOAD DUP1 DUP4 SUB DUP2 PUSH1 0x0 DUP8 GAS CALL ISZERO DUP1 ISZERO PUSH2 0xA6D JUMPI RETURNDATASIZE PUSH1 0x0 DUP1 RETURNDATACOPY RETURNDATASIZE PUSH1 0x0 REVERT JUMPDEST POP POP POP POP PUSH1 0x40 MLOAD RETURNDATASIZE PUSH1 0x1F NOT PUSH1 0x1F DUP3 ADD AND DUP3 ADD DUP1 PUSH1 0x40 MSTORE POP DUP2 ADD SWAP1 PUSH2 0xA91 SWAP2 SWAP1 PUSH2 0x243B JUMP JUMPDEST PUSH2 0xACF JUMPI PUSH1 0x40 MLOAD PUSH3 0x461BCD PUSH1 0xE5 SHL DUP2 MSTORE PUSH1 0x20 PUSH1 0x4 DUP3 ADD MSTORE PUSH1 0xF PUSH1 0x24 DUP3 ADD MSTORE PUSH15 0x151C985B9CD9995C8819985A5B1959 PUSH1 0x8A SHL PUSH1 0x44 DUP3 ADD MSTORE PUSH1 0x64 ADD PUSH2 0x88B JUMP JUMPDEST PUSH1 0x10 SLOAD PUSH1 0x0 SWAP1 DUP2 MSTORE PUSH1 0xF PUSH1 0x20 SWAP1 DUP2 MSTORE PUSH1 0x40 DUP1 DUP4 KECCAK256 CALLER DUP5 MSTORE PUSH1 0x6 DUP2 ADD SWAP1 SWAP3 MSTORE DUP3 KECCAK256 DUP1 SLOAD SWAP2 SWAP3 DUP5 SWAP3 PUSH2 0xB00 SWAP1 DUP5 SWAP1 PUSH2 0x2473 JUMP JUMPDEST SWAP3 POP POP DUP2 SWAP1 SSTORE POP DUP2 DUP2 PUSH1 0x2 ADD PUSH1 0x0 DUP3 DUP3 SLOAD PUSH2 0xB1B SWAP2 SWAP1 PUSH2 0x2473 JUMP JUMPDEST SWAP1 SWAP2 SSTORE POP POP CALLER PUSH1 0x0 SWAP1 DUP2 MSTORE PUSH1 0x8 PUSH1 0x20 MSTORE PUSH1 0x40 DUP2 KECCAK256 PUSH1 0x1 ADD DUP1 SLOAD DUP5 SWAP3 SWAP1 PUSH2 0xB42 SWAP1 DUP5 SWAP1 PUSH2 0x2473 JUMP JUMPDEST SWAP3 POP POP DUP2 SWAP1 SSTORE POP DUP2 PUSH1 0x7 PUSH1 0x0 DUP3 DUP3 SLOAD PUSH2 0xB5B SWAP2 SWAP1 PUSH2 0x2473 JUMP JUMPDEST SWAP1 SWAP2 SSTORE POP PUSH2 0xB6C SWAP1 POP CALLER PUSH1 0x1 PUSH2 0x1E1F JUMP JUMPDEST PUSH1 0x10 SLOAD PUSH1 0x40 MLOAD CALLER SWAP2 PUSH32 0x5DC1FE5AB986A852C4EDA8E8BB94247D13307065C593FB83F1A09BE273679382 SWAP2 PUSH2 0xBA8 SWAP2 DUP7 DUP3 MSTORE PUSH1 0x20 DUP3 ADD MSTORE PUSH1 0x40 ADD SWAP1 JUMP JUMPDEST PUSH1 0x40 MLOAD DUP1 SWAP2 SUB SWAP1 LOG2 POP PUSH2 0xBBB PUSH1 0x1 PUSH1 0x0 SSTORE JUMP JUMPDEST POP JUMP JUMPDEST PUSH1 0x1 PUSH1 0x1 PUSH1 0xA0 SHL SUB DUP2 AND CALLER EQ PUSH2 0xC2E JUMPI PUSH1 0x40 MLOAD PUSH3 0x461BCD PUSH1 0xE5 SHL DUP2 MSTORE PUSH1 0x20 PUSH1 0x4 DUP3 ADD MSTORE PUSH1 0x2F PUSH1 0x24 DUP3 ADD MSTORE PUSH32 0x416363657373436F6E74726F6C3A2063616E206F6E6C792072656E6F756E6365 PUSH1 0x44 DUP3 ADD MSTORE PUSH15 0x103937B632B9903337B91039B2B633 PUSH1 0x89 SHL PUSH1 0x64 DUP3 ADD MSTORE PUSH1 0x84 ADD PUSH2 0x88B JUMP JUMPDEST PUSH2 0xC38 DUP3 DUP3 PUSH2 0x1E8D JUMP JUMPDEST POP POP JUMP JUMPDEST PUSH1 0x0 DUP1 PUSH1 0x0 DUP1 PUSH1 0x0 DUP1 PUSH1 0x10 SLOAD PUSH1 0x0 SUB PUSH2 0xC66 JUMPI POP PUSH1 0x0 SWAP5 POP DUP5 SWAP4 POP DUP4 SWAP3 POP DUP3 SWAP2 POP DUP2 SWAP1 POP DUP1 PUSH2 0xCA3 JUMP JUMPDEST POP POP PUSH1 0x10 SLOAD PUSH1 0x0 SWAP1 DUP2 MSTORE PUSH1 0xF PUSH1 0x20 MSTORE PUSH1 0x40 SWAP1 KECCAK256 DUP1 SLOAD PUSH1 0x1 DUP3 ADD SLOAD PUSH1 0x2 DUP4 ADD SLOAD PUSH1 0x3 DUP5 ADD SLOAD PUSH1 0x4 DUP6 ADD SLOAD PUSH1 0x5 SWAP1 SWAP6 ADD SLOAD SWAP4 SWAP9 POP SWAP2 SWAP7 POP SWAP5 POP SWAP3 POP PUSH1 0xFF AND JUMPDEST SWAP1 SWAP2 SWAP3 SWAP4 SWAP5 SWAP6 JUMP JUMPDEST PUSH2 0xCF6 PUSH1 0x40 MLOAD DUP1 PUSH1 0xE0 ADD PUSH1 0x40 MSTORE DUP1 PUSH1 0x0 PUSH1 0x1 PUSH1 0x1 PUSH1 0xA0 SHL SUB AND DUP2 MSTORE PUSH1 0x20 ADD PUSH1 0x0 DUP2 MSTORE PUSH1 0x20 ADD PUSH1 0x0 DUP2 MSTORE PUSH1 0x20 ADD PUSH1 0x0 DUP2 MSTORE PUSH1 0x20 ADD PUSH1 0x0 ISZERO ISZERO DUP2 MSTORE PUSH1 0x20 ADD PUSH1 0x0 DUP2 MSTORE PUSH1 0x20 ADD PUSH1 0x0 DUP2 MSTORE POP SWAP1 JUMP JUMPDEST POP PUSH1 0x1 PUSH1 0x1 PUSH1 0xA0 SHL SUB SWAP1 DUP2 AND PUSH1 0x0 SWAP1 DUP2 MSTORE PUSH1 0x8 PUSH1 0x20 SWAP1 DUP2 MSTORE PUSH1 0x40 SWAP2 DUP3 SWAP1 KECCAK256 DUP3 MLOAD PUSH1 0xE0 DUP2 ADD DUP5 MSTORE DUP2 SLOAD SWAP1 SWAP5 AND DUP5 MSTORE PUSH1 0x1 DUP2 ADD SLOAD SWAP2 DUP5 ADD SWAP2 SWAP1 SWAP2 MSTORE PUSH1 0x2 DUP2 ADD SLOAD SWAP2 DUP4 ADD SWAP2 SWAP1 SWAP2 MSTORE PUSH1 0x3 DUP2 ADD SLOAD PUSH1 0x60 DUP4 ADD MSTORE PUSH1 0x4 DUP2 ADD SLOAD PUSH1 0xFF AND ISZERO ISZERO PUSH1 0x80 DUP4 ADD MSTORE PUSH1 0x5 DUP2 ADD SLOAD PUSH1 0xA0 DUP4 ADD MSTORE PUSH1 0x6 ADD SLOAD PUSH1 0xC0 DUP3 ADD MSTORE SWAP1 JUMP JUMPDEST PUSH1 0x2 DUP1 SLOAD PUSH2 0xD77 SWAP1 PUSH2 0x2486 JUMP JUMPDEST DUP1 PUSH1 0x1F ADD PUSH1 0x20 DUP1 SWAP2 DIV MUL PUSH1 0x20 ADD PUSH1 0x40 MLOAD SWAP1 DUP2 ADD PUSH1 0x40 MSTORE DUP1 SWAP3 SWAP2 SWAP1 DUP2 DUP2 MSTORE PUSH1 0x20 ADD DUP3 DUP1 SLOAD PUSH2 0xDA3 SWAP1 PUSH2 0x2486 JUMP JUMPDEST DUP1 ISZERO PUSH2 0xDF0 JUMPI DUP1 PUSH1 0x1F LT PUSH2 0xDC5 JUMPI PUSH2 0x100 DUP1 DUP4 SLOAD DIV MUL DUP4 MSTORE SWAP2 PUSH1 0x20 ADD SWAP2 PUSH2 0xDF0 JUMP JUMPDEST DUP3 ADD SWAP2 SWAP1 PUSH1 0x0 MSTORE PUSH1 0x20 PUSH1 0x0 KECCAK256 SWAP1 JUMPDEST DUP2 SLOAD DUP2 MSTORE SWAP1 PUSH1 0x1 ADD SWAP1 PUSH1 0x20 ADD DUP1 DUP4 GT PUSH2 0xDD3 JUMPI DUP3 SWAP1 SUB PUSH1 0x1F AND DUP3 ADD SWAP2 JUMPDEST POP POP POP POP POP DUP2 JUMP JUMPDEST PUSH2 0xE00 PUSH2 0x1DC6 JUMP JUMPDEST PUSH1 0x0 DUP3 DUP2 MSTORE PUSH1 0xB PUSH1 0x20 MSTORE PUSH1 0x40 SWAP1 KECCAK256 PUSH1 0x1 DUP2 ADD SLOAD PUSH1 0x1 PUSH1 0x1 PUSH1 0xA0 SHL SUB AND CALLER EQ PUSH2 0xE5D JUMPI PUSH1 0x40 MLOAD PUSH3 0x461BCD PUSH1 0xE5 SHL DUP2 MSTORE PUSH1 0x20 PUSH1 0x4 DUP3 ADD MSTORE PUSH1 0x10 PUSH1 0x24 DUP3 ADD MSTORE PUSH16 0x2737BA103A3432903137B93937BBB2B9 PUSH1 0x81 SHL PUSH1 0x44 DUP3 ADD MSTORE PUSH1 0x64 ADD PUSH2 0x88B JUMP JUMPDEST PUSH1 0x7 DUP2 ADD SLOAD PUSH1 0xFF AND PUSH2 0xEA6 JUMPI PUSH1 0x40 MLOAD PUSH3 0x461BCD PUSH1 0xE5 SHL DUP2 MSTORE PUSH1 0x20 PUSH1 0x4 DUP3 ADD MSTORE PUSH1 0x12 PUSH1 0x24 DUP3 ADD MSTORE PUSH18 0x4C6F616E206973206E6F7420616374697665 PUSH1 0x70 SHL PUSH1 0x44 DUP3 ADD MSTORE PUSH1 0x64 ADD PUSH2 0x88B JUMP JUMPDEST PUSH1 0x0 DUP3 GT PUSH2 0xEF6 JUMPI PUSH1 0x40 MLOAD PUSH3 0x461BCD PUSH1 0xE5 SHL DUP2 MSTORE PUSH1 0x20 PUSH1 0x4 DUP3 ADD MSTORE PUSH1 0x17 PUSH1 0x24 DUP3 ADD MSTORE PUSH32 0x416D6F756E74206D75737420626520706F736974697665000000000000000000 PUSH1 0x44 DUP3 ADD MSTORE PUSH1 0x64 ADD PUSH2 0x88B JUMP JUMPDEST PUSH1 0x0 PUSH2 0xF01 DUP5 PUSH2 0x1EF4 JUMP JUMPDEST SWAP1 POP PUSH1 0x0 DUP3 PUSH1 0x6 ADD SLOAD DUP3 PUSH2 0xF15 SWAP2 SWAP1 PUSH2 0x24C0 JUMP JUMPDEST SWAP1 POP DUP1 DUP5 GT ISZERO PUSH2 0xF67 JUMPI PUSH1 0x40 MLOAD PUSH3 0x461BCD PUSH1 0xE5 SHL DUP2 MSTORE PUSH1 0x20 PUSH1 0x4 DUP3 ADD MSTORE PUSH1 0x1D PUSH1 0x24 DUP3 ADD MSTORE PUSH32 0x416D6F756E7420657863656564732072656D61696E696E672064656274000000 PUSH1 0x44 DUP3 ADD MSTORE PUSH1 0x64 ADD PUSH2 0x88B JUMP JUMPDEST PUSH1 0x40 MLOAD PUSH4 0x23B872DD PUSH1 0xE0 SHL DUP2 MSTORE CALLER PUSH1 0x4 DUP3 ADD MSTORE ADDRESS PUSH1 0x24 DUP3 ADD MSTORE PUSH1 0x44 DUP2 ADD DUP6 SWAP1 MSTORE PUSH32 0x0 PUSH1 0x1 PUSH1 0x1 PUSH1 0xA0 SHL SUB AND SWAP1 PUSH4 0x23B872DD SWAP1 PUSH1 0x64 ADD PUSH1 0x20 PUSH1 0x40 MLOAD DUP1 DUP4 SUB DUP2 PUSH1 0x0 DUP8 GAS CALL ISZERO DUP1 ISZERO PUSH2 0xFDA JUMPI RETURNDATASIZE PUSH1 0x0 DUP1 RETURNDATACOPY RETURNDATASIZE PUSH1 0x0 REVERT JUMPDEST POP POP POP POP PUSH1 0x40 MLOAD RETURNDATASIZE PUSH1 0x1F NOT PUSH1 0x1F DUP3 ADD AND DUP3 ADD DUP1 PUSH1 0x40 MSTORE POP DUP2 ADD SWAP1 PUSH2 0xFFE SWAP2 SWAP1 PUSH2 0x243B JUMP JUMPDEST PUSH2 0x104A JUMPI PUSH1 0x40 MLOAD PUSH3 0x461BCD PUSH1 0xE5 SHL DUP2 MSTORE PUSH1 0x20 PUSH1 0x4 DUP3 ADD MSTORE PUSH1 0x19 PUSH1 0x24 DUP3 ADD MSTORE PUSH32 0x52657061796D656E74207472616E73666572206661696C656400000000000000 PUSH1 0x44 DUP3 ADD MSTORE PUSH1 0x64 ADD PUSH2 0x88B JUMP JUMPDEST DUP4 DUP4 PUSH1 0x6 ADD PUSH1 0x0 DUP3 DUP3 SLOAD PUSH2 0x105E SWAP2 SWAP1 PUSH2 0x2473 JUMP JUMPDEST SWAP1 SWAP2 SSTORE POP POP CALLER PUSH1 0x0 SWAP1 DUP2 MSTORE PUSH1 0x8 PUSH1 0x20 MSTORE PUSH1 0x40 DUP2 KECCAK256 PUSH1 0x3 ADD DUP1 SLOAD DUP7 SWAP3 SWAP1 PUSH2 0x1085 SWAP1 DUP5 SWAP1 PUSH2 0x2473 JUMP JUMPDEST SWAP3 POP POP DUP2 SWAP1 SSTORE POP DUP4 PUSH1 0x7 PUSH1 0x0 DUP3 DUP3 SLOAD PUSH2 0x109E SWAP2 SWAP1 PUSH2 0x2473 JUMP JUMPDEST SWAP1 SWAP2 SSTORE POP POP PUSH1 0x6 DUP4 ADD SLOAD DUP3 GT PUSH2 0x11C3 JUMPI PUSH1 0x7 DUP4 ADD DUP1 SLOAD PUSH1 0xFF NOT AND SWAP1 SSTORE PUSH1 0x2 DUP4 ADD SLOAD PUSH1 0xE DUP1 SLOAD PUSH1 0x0 SWAP1 PUSH2 0x10D1 SWAP1 DUP5 SWAP1 PUSH2 0x2473 JUMP JUMPDEST SWAP1 SWAP2 SSTORE POP POP PUSH1 0x8 DUP4 ADD SLOAD ISZERO PUSH2 0x11C3 JUMPI PUSH1 0x8 DUP4 ADD SLOAD PUSH1 0x40 MLOAD PUSH4 0xA9059CBB PUSH1 0xE0 SHL DUP2 MSTORE CALLER PUSH1 0x4 DUP3 ADD MSTORE PUSH1 0x24 DUP2 ADD SWAP2 SWAP1 SWAP2 MSTORE PUSH32 0x0 PUSH1 0x1 PUSH1 0x1 PUSH1 0xA0 SHL SUB AND SWAP1 PUSH4 0xA9059CBB SWAP1 PUSH1 0x44 ADD PUSH1 0x20 PUSH1 0x40 MLOAD DUP1 DUP4 SUB DUP2 PUSH1 0x0 DUP8 GAS CALL ISZERO DUP1 ISZERO PUSH2 0x1153 JUMPI RETURNDATASIZE PUSH1 0x0 DUP1 RETURNDATACOPY RETURNDATASIZE PUSH1 0x0 REVERT JUMPDEST POP POP POP POP PUSH1 0x40 MLOAD RETURNDATASIZE PUSH1 0x1F NOT PUSH1 0x1F DUP3 ADD AND DUP3 ADD DUP1 PUSH1 0x40 MSTORE POP DUP2 ADD SWAP1 PUSH2 0x1177 SWAP2 SWAP1 PUSH2 0x243B JUMP JUMPDEST PUSH2 0x11C3 JUMPI PUSH1 0x40 MLOAD PUSH3 0x461BCD PUSH1 0xE5 SHL DUP2 MSTORE PUSH1 0x20 PUSH1 0x4 DUP3 ADD MSTORE PUSH1 0x18 PUSH1 0x24 DUP3 ADD MSTORE PUSH32 0x436F6C6C61746572616C2072657475726E206661696C65640000000000000000 PUSH1 0x44 DUP3 ADD MSTORE PUSH1 0x64 ADD PUSH2 0x88B JUMP JUMPDEST PUSH2 0x11CE CALLER PUSH1 0x0 PUSH2 0x1E1F JUMP JUMPDEST PUSH1 0x40 MLOAD DUP5 DUP2 MSTORE CALLER SWAP1 DUP7 SWAP1 PUSH32 0x780EF358C62AFE5202061FC77819FA12618913022159D66995A4E513E18404C6 SWAP1 PUSH1 0x20 ADD PUSH1 0x40 MLOAD DUP1 SWAP2 SUB SWAP1 LOG3 POP POP POP PUSH2 0xC38 PUSH1 0x1 PUSH1 0x0 SSTORE JUMP JUMPDEST PUSH1 0x0 SWAP2 DUP3 MSTORE PUSH1 0x1 PUSH1 0x20 SWAP1 DUP2 MSTORE PUSH1 0x40 DUP1 DUP5 KECCAK256 PUSH1 0x1 PUSH1 0x1 PUSH1 0xA0 SHL SUB SWAP4 SWAP1 SWAP4 AND DUP5 MSTORE SWAP2 SWAP1 MSTORE SWAP1 KECCAK256 SLOAD PUSH1 0xFF AND SWAP1 JUMP JUMPDEST PUSH2 0x1255 PUSH1 0x0 DUP1 MLOAD PUSH1 0x20 PUSH2 0x2609 DUP4 CODECOPY DUP2 MLOAD SWAP2 MSTORE CALLER PUSH2 0x1212 JUMP JUMPDEST PUSH2 0x1271 JUMPI PUSH1 0x40 MLOAD PUSH3 0x461BCD PUSH1 0xE5 SHL DUP2 MSTORE PUSH1 0x4 ADD PUSH2 0x88B SWAP1 PUSH2 0x24D3 JUMP JUMPDEST PUSH1 0x0 DUP2 DUP2 MSTORE PUSH1 0xB PUSH1 0x20 MSTORE PUSH1 0x40 SWAP1 KECCAK256 PUSH1 0x1 DUP2 ADD SLOAD PUSH1 0x1 PUSH1 0x1 PUSH1 0xA0 SHL SUB AND PUSH2 0x12CF JUMPI PUSH1 0x40 MLOAD PUSH3 0x461BCD PUSH1 0xE5 SHL DUP2 MSTORE PUSH1 0x20 PUSH1 0x4 DUP3 ADD MSTORE PUSH1 0x13 PUSH1 0x24 DUP3 ADD MSTORE PUSH19 0x131BD85B88191BD95CC81B9BDD08195E1A5CDD PUSH1 0x6A SHL PUSH1 0x44 DUP3 ADD MSTORE PUSH1 0x64 ADD PUSH2 0x88B JUMP JUMPDEST PUSH1 0x7 DUP2 ADD SLOAD PUSH2 0x100 SWAP1 DIV PUSH1 0xFF AND ISZERO PUSH2 0x1321 JUMPI PUSH1 0x40 MLOAD PUSH3 0x461BCD PUSH1 0xE5 SHL DUP2 MSTORE PUSH1 0x20 PUSH1 0x4 DUP3 ADD MSTORE PUSH1 0x15 PUSH1 0x24 DUP3 ADD MSTORE PUSH21 0x131BD85B88185B1C9958591E48185C1C1C9BDD9959 PUSH1 0x5A SHL PUSH1 0x44 DUP3 ADD MSTORE PUSH1 0x64 ADD PUSH2 0x88B JUMP JUMPDEST PUSH1 0x7 SLOAD DUP2 PUSH1 0x2 ADD SLOAD GT ISZERO PUSH2 0x1372 JUMPI PUSH1 0x40 MLOAD PUSH3 0x461BCD PUSH1 0xE5 SHL DUP2 MSTORE PUSH1 0x20 PUSH1 0x4 DUP3 ADD MSTORE PUSH1 0x18 PUSH1 0x24 DUP3 ADD MSTORE PUSH24 0x496E73756666696369656E742067726F75702066756E6473 PUSH1 0x40 SHL PUSH1 0x44 DUP3 ADD MSTORE PUSH1 0x64 ADD PUSH2 0x88B JUMP JUMPDEST PUSH1 0x7 DUP2 DUP2 ADD DUP1 SLOAD PUSH2 0xFFFF NOT AND PUSH2 0x101 OR SWAP1 SSTORE TIMESTAMP PUSH1 0x5 DUP4 ADD SSTORE PUSH1 0x2 DUP3 ADD SLOAD DUP2 SLOAD SWAP1 SWAP2 SWAP1 PUSH1 0x0 SWAP1 PUSH2 0x13A2 SWAP1 DUP5 SWAP1 PUSH2 0x24C0 JUMP JUMPDEST SWAP1 SWAP2 SSTORE POP POP PUSH1 0x2 DUP1 DUP3 ADD SLOAD PUSH1 0x1 DUP4 ADD SLOAD PUSH1 0x1 PUSH1 0x1 PUSH1 0xA0 SHL SUB AND PUSH1 0x0 SWAP1 DUP2 MSTORE PUSH1 0x8 PUSH1 0x20 MSTORE PUSH1 0x40 DUP2 KECCAK256 SWAP1 SWAP3 ADD DUP1 SLOAD SWAP2 SWAP3 SWAP1 SWAP2 PUSH2 0x13DD SWAP1 DUP5 SWAP1 PUSH2 0x2473 JUMP JUMPDEST SWAP1 SWAP2 SSTORE POP POP PUSH1 0x2 DUP2 ADD SLOAD PUSH1 0xD DUP1 SLOAD PUSH1 0x0 SWAP1 PUSH2 0x13F9 SWAP1 DUP5 SWAP1 PUSH2 0x2473 JUMP JUMPDEST SWAP1 SWAP2 SSTORE POP POP PUSH1 0x1 DUP2 ADD SLOAD PUSH1 0x2 DUP3 ADD SLOAD PUSH1 0x40 MLOAD PUSH4 0xA9059CBB PUSH1 0xE0 SHL DUP2 MSTORE PUSH1 0x1 PUSH1 0x1 PUSH1 0xA0 SHL SUB SWAP3 DUP4 AND PUSH1 0x4 DUP3 ADD MSTORE PUSH1 0x24 DUP2 ADD SWAP2 SWAP1 SWAP2 MSTORE PUSH32 0x0 SWAP1 SWAP2 AND SWAP1 PUSH4 0xA9059CBB SWAP1 PUSH1 0x44 ADD PUSH1 0x20 PUSH1 0x40 MLOAD DUP1 DUP4 SUB DUP2 PUSH1 0x0 DUP8 GAS CALL ISZERO DUP1 ISZERO PUSH2 0x147A JUMPI RETURNDATASIZE PUSH1 0x0 DUP1 RETURNDATACOPY RETURNDATASIZE PUSH1 0x0 REVERT JUMPDEST POP POP POP POP PUSH1 0x40 MLOAD RETURNDATASIZE PUSH1 0x1F NOT PUSH1 0x1F DUP3 ADD AND DUP3 ADD DUP1 PUSH1 0x40 MSTORE POP DUP2 ADD SWAP1 PUSH2 0x149E SWAP2 SWAP1 PUSH2 0x243B JUMP JUMPDEST PUSH2 0x14E1 JUMPI PUSH1 0x40 MLOAD PUSH3 0x461BCD PUSH1 0xE5 SHL DUP2 MSTORE PUSH1 0x20 PUSH1 0x4 DUP3 ADD MSTORE PUSH1 0x14 PUSH1 0x24 DUP3 ADD MSTORE PUSH20 0x131BD85B881D1C985B9CD9995C8819985A5B1959 PUSH1 0x62 SHL PUSH1 0x44 DUP3 ADD MSTORE PUSH1 0x64 ADD PUSH2 0x88B JUMP JUMPDEST PUSH1 0x1 DUP2 ADD SLOAD PUSH1 0x2 DUP3 ADD SLOAD PUSH1 0x40 MLOAD SWAP1 DUP2 MSTORE PUSH1 0x1 PUSH1 0x1 PUSH1 0xA0 SHL SUB SWAP1 SWAP2 AND SWAP1 DUP4 SWAP1 PUSH32 0x2B993938BAA27C88E77A207903D275C96FA30AE5949A3EA5CD56E466E4F5C891 SWAP1 PUSH1 0x20 ADD PUSH1 0x40 MLOAD DUP1 SWAP2 SUB SWAP1 LOG3 POP POP JUMP JUMPDEST PUSH2 0x1548 PUSH1 0x0 DUP1 MLOAD PUSH1 0x20 PUSH2 0x2609 DUP4 CODECOPY DUP2 MLOAD SWAP2 MSTORE CALLER PUSH2 0x1212 JUMP JUMPDEST PUSH2 0x1564 JUMPI PUSH1 0x40 MLOAD PUSH3 0x461BCD PUSH1 0xE5 SHL DUP2 MSTORE PUSH1 0x4 ADD PUSH2 0x88B SWAP1 PUSH2 0x24D3 JUMP JUMPDEST PUSH1 0x0 DUP3 GT PUSH2 0x15B4 JUMPI PUSH1 0x40 MLOAD PUSH3 0x461BCD PUSH1 0xE5 SHL DUP2 MSTORE PUSH1 0x20 PUSH1 0x4 DUP3 ADD MSTORE PUSH1 0x1E PUSH1 0x24 DUP3 ADD MSTORE PUSH32 0x54617267657420616D6F756E74206D75737420626520706F7369746976650000 PUSH1 0x44 DUP3 ADD MSTORE PUSH1 0x64 ADD PUSH2 0x88B JUMP JUMPDEST PUSH1 0x0 DUP2 GT PUSH2 0x1604 JUMPI PUSH1 0x40 MLOAD PUSH3 0x461BCD PUSH1 0xE5 SHL DUP2 MSTORE PUSH1 0x20 PUSH1 0x4 DUP3 ADD MSTORE PUSH1 0x19 PUSH1 0x24 DUP3 ADD MSTORE PUSH32 0x4475726174696F6E206D75737420626520706F73697469766500000000000000 PUSH1 0x44 DUP3 ADD MSTORE PUSH1 0x64 ADD PUSH2 0x88B JUMP JUMPDEST PUSH1 0x0 PUSH1 0x10 SLOAD GT DUP1 ISZERO PUSH2 0x162A JUMPI POP PUSH1 0x10 SLOAD PUSH1 0x0 SWAP1 DUP2 MSTORE PUSH1 0xF PUSH1 0x20 MSTORE PUSH1 0x40 SWAP1 KECCAK256 PUSH1 0x5 ADD SLOAD PUSH1 0xFF AND JUMPDEST ISZERO PUSH2 0x1695 JUMPI PUSH1 0x10 DUP1 SLOAD PUSH1 0x0 SWAP1 DUP2 MSTORE PUSH1 0xF PUSH1 0x20 MSTORE PUSH1 0x40 DUP1 DUP3 KECCAK256 PUSH1 0x5 ADD DUP1 SLOAD PUSH1 0xFF NOT AND SWAP1 SSTORE SWAP2 SLOAD DUP1 DUP3 MSTORE SWAP1 DUP3 SWAP1 KECCAK256 PUSH1 0x2 ADD SLOAD SWAP2 MLOAD SWAP1 SWAP2 PUSH32 0x5D6CE35D8B5A0CD1F552BD0CE68F81BF96EADEBD1159905A8DD503FBBB029660 SWAP2 PUSH2 0x168C SWAP2 DUP2 MSTORE PUSH1 0x20 ADD SWAP1 JUMP JUMPDEST PUSH1 0x40 MLOAD DUP1 SWAP2 SUB SWAP1 LOG2 JUMPDEST PUSH1 0x10 DUP1 SLOAD SWAP1 PUSH1 0x0 PUSH2 0x16A5 DUP4 PUSH2 0x24FE JUMP JUMPDEST SWAP1 SWAP2 SSTORE POP POP PUSH1 0x10 SLOAD PUSH1 0x0 DUP2 DUP2 MSTORE PUSH1 0xF PUSH1 0x20 MSTORE PUSH1 0x40 DUP2 KECCAK256 SWAP2 DUP3 SSTORE PUSH1 0x1 DUP3 ADD DUP5 SWAP1 SSTORE PUSH1 0x2 DUP3 ADD SSTORE TIMESTAMP PUSH1 0x3 DUP3 ADD SSTORE PUSH2 0x16DD DUP3 PUSH3 0x15180 PUSH2 0x2517 JUMP JUMPDEST PUSH2 0x16E7 SWAP1 TIMESTAMP PUSH2 0x2473 JUMP JUMPDEST PUSH1 0x4 DUP3 ADD SSTORE PUSH1 0x5 DUP2 ADD DUP1 SLOAD PUSH1 0xFF NOT AND PUSH1 0x1 OR SWAP1 SSTORE PUSH1 0x10 SLOAD PUSH1 0x40 DUP1 MLOAD DUP6 DUP2 MSTORE PUSH1 0x20 DUP2 ADD DUP6 SWAP1 MSTORE PUSH32 0xE41C903D4F464AF8FDD82A2A195FB81A5B17CFE3A20585D2F10D0EEB1F1D33C SWAP2 ADD PUSH1 0x40 MLOAD DUP1 SWAP2 SUB SWAP1 LOG2 POP POP POP JUMP JUMPDEST PUSH2 0x1754 PUSH1 0x0 DUP1 MLOAD PUSH1 0x20 PUSH2 0x2609 DUP4 CODECOPY DUP2 MLOAD SWAP2 MSTORE CALLER PUSH2 0x1212 JUMP JUMPDEST PUSH2 0x1770 JUMPI PUSH1 0x40 MLOAD PUSH3 0x461BCD PUSH1 0xE5 SHL DUP2 MSTORE PUSH1 0x4 ADD PUSH2 0x88B SWAP1 PUSH2 0x24D3 JUMP JUMPDEST PUSH1 0x1 PUSH1 0x1 PUSH1 0xA0 SHL SUB DUP2 AND PUSH2 0x17BF JUMPI PUSH1 0x40 MLOAD PUSH3 0x461BCD PUSH1 0xE5 SHL DUP2 MSTORE PUSH1 0x20 PUSH1 0x4 DUP3 ADD MSTORE PUSH1 0x16 PUSH1 0x24 DUP3 ADD MSTORE PUSH22 0x496E76616C6964206D656D6265722061646472657373 PUSH1 0x50 SHL PUSH1 0x44 DUP3 ADD MSTORE PUSH1 0x64 ADD PUSH2 0x88B JUMP JUMPDEST PUSH1 0x1 PUSH1 0x1 PUSH1 0xA0 SHL SUB DUP2 AND PUSH1 0x0 SWAP1 DUP2 MSTORE PUSH1 0x8 PUSH1 0x20 MSTORE PUSH1 0x40 SWAP1 KECCAK256 PUSH1 0x4 ADD SLOAD PUSH1 0xFF AND ISZERO PUSH2 0x1823 JUMPI PUSH1 0x40 MLOAD PUSH3 0x461BCD PUSH1 0xE5 SHL DUP2 MSTORE PUSH1 0x20 PUSH1 0x4 DUP3 ADD MSTORE PUSH1 0x15 PUSH1 0x24 DUP3 ADD MSTORE PUSH21 0x4D656D62657220616C726561647920657869737473 PUSH1 0x58 SHL PUSH1 0x44 DUP3 ADD MSTORE PUSH1 0x64 ADD PUSH2 0x88B JUMP JUMPDEST PUSH1 0x40 DUP1 MLOAD PUSH1 0xE0 DUP2 ADD DUP3 MSTORE PUSH1 0x1 PUSH1 0x1 PUSH1 0xA0 SHL SUB DUP1 DUP5 AND DUP1 DUP4 MSTORE PUSH1 0x0 PUSH1 0x20 DUP1 DUP6 ADD DUP3 DUP2 MSTORE DUP6 DUP8 ADD DUP4 DUP2 MSTORE PUSH1 0x60 DUP8 ADD DUP5 DUP2 MSTORE PUSH1 0x1 PUSH1 0x80 DUP10 ADD DUP2 DUP2 MSTORE TIMESTAMP PUSH1 0xA0 DUP12 ADD SWAP1 DUP2 MSTORE PUSH2 0x1F4 PUSH1 0xC0 DUP13 ADD SWAP1 DUP2 MSTORE DUP10 DUP10 MSTORE PUSH1 0x8 SWAP1 SWAP8 MSTORE SWAP11 DUP8 KECCAK256 SWAP10 MLOAD DUP11 SLOAD SWAP10 AND PUSH1 0x1 PUSH1 0x1 PUSH1 0xA0 SHL SUB NOT SWAP10 DUP11 AND OR DUP11 SSTORE SWAP4 MLOAD DUP10 DUP3 ADD SSTORE SWAP2 MLOAD PUSH1 0x2 DUP10 ADD SSTORE MLOAD PUSH1 0x3 DUP9 ADD SSTORE SWAP1 MLOAD PUSH1 0x4 DUP8 ADD DUP1 SLOAD SWAP2 ISZERO ISZERO PUSH1 0xFF NOT SWAP1 SWAP3 AND SWAP2 SWAP1 SWAP2 OR SWAP1 SSTORE SWAP6 MLOAD PUSH1 0x5 DUP7 ADD SSTORE MLOAD PUSH1 0x6 SWAP1 SWAP5 ADD SWAP4 SWAP1 SWAP4 SSTORE PUSH1 0x9 DUP1 SLOAD SWAP5 DUP6 ADD DUP2 SSTORE DUP4 MSTORE PUSH32 0x6E1540171B6C0C960B71A7020D9F60077F6AF931A8BBF590DA0223DACF75C7AF SWAP1 SWAP4 ADD DUP1 SLOAD SWAP1 SWAP2 AND SWAP1 SWAP3 OR SWAP1 SWAP2 SSTORE PUSH1 0xA DUP1 SLOAD SWAP2 PUSH2 0x1910 DUP4 PUSH2 0x24FE JUMP JUMPDEST SWAP2 SWAP1 POP SSTORE POP PUSH2 0x193F PUSH32 0x829B824E2329E205435D941C9F13BAF578548505283D29261236D8E6596D4636 DUP3 PUSH2 0x1D5B JUMP JUMPDEST DUP1 PUSH1 0x1 PUSH1 0x1 PUSH1 0xA0 SHL SUB AND PUSH32 0xEDE8EED4383E9241982619B94DD83E488B274CCED0FD07B8C0092A393DEFD52F TIMESTAMP PUSH1 0x40 MLOAD PUSH2 0x197A SWAP2 DUP2 MSTORE PUSH1 0x20 ADD SWAP1 JUMP JUMPDEST PUSH1 0x40 MLOAD DUP1 SWAP2 SUB SWAP1 LOG2 POP JUMP JUMPDEST PUSH1 0x9 DUP2 DUP2 SLOAD DUP2 LT PUSH2 0x1995 JUMPI PUSH1 0x0 DUP1 REVERT JUMPDEST PUSH1 0x0 SWAP2 DUP3 MSTORE PUSH1 0x20 SWAP1 SWAP2 KECCAK256 ADD SLOAD PUSH1 0x1 PUSH1 0x1 PUSH1 0xA0 SHL SUB AND SWAP1 POP DUP2 JUMP JUMPDEST PUSH1 0x0 DUP3 DUP2 MSTORE PUSH1 0x1 PUSH1 0x20 DUP2 SWAP1 MSTORE PUSH1 0x40 SWAP1 SWAP2 KECCAK256 ADD SLOAD PUSH2 0x19CB DUP2 PUSH2 0x1D51 JUMP JUMPDEST PUSH2 0x831 DUP4 DUP4 PUSH2 0x1E8D JUMP JUMPDEST CALLER PUSH1 0x0 SWAP1 DUP2 MSTORE PUSH1 0x8 PUSH1 0x20 MSTORE PUSH1 0x40 DUP2 KECCAK256 PUSH1 0x4 ADD SLOAD PUSH1 0xFF AND PUSH2 0x1A2E JUMPI PUSH1 0x40 MLOAD PUSH3 0x461BCD PUSH1 0xE5 SHL DUP2 MSTORE PUSH1 0x20 PUSH1 0x4 DUP3 ADD MSTORE PUSH1 0x14 PUSH1 0x24 DUP3 ADD MSTORE PUSH20 0x4D656D626572206973206E6F7420616374697665 PUSH1 0x60 SHL PUSH1 0x44 DUP3 ADD MSTORE PUSH1 0x64 ADD PUSH2 0x88B JUMP JUMPDEST PUSH1 0x0 DUP5 GT DUP1 ISZERO PUSH2 0x1A40 JUMPI POP PUSH1 0x5 SLOAD DUP5 GT ISZERO JUMPDEST PUSH2 0x1A82 JUMPI PUSH1 0x40 MLOAD PUSH3 0x461BCD PUSH1 0xE5 SHL DUP2 MSTORE PUSH1 0x20 PUSH1 0x4 DUP3 ADD MSTORE PUSH1 0x13 PUSH1 0x24 DUP3 ADD MSTORE PUSH19 0x125B9D985B1A59081B1BD85B88185B5BDD5B9D PUSH1 0x6A SHL PUSH1 0x44 DUP3 ADD MSTORE PUSH1 0x64 ADD PUSH2 0x88B JUMP JUMPDEST PUSH1 0x0 DUP4 GT PUSH2 0x1AC5 JUMPI PUSH1 0x40 MLOAD PUSH3 0x461BCD PUSH1 0xE5 SHL DUP2 MSTORE PUSH1 0x20 PUSH1 0x4 DUP3 ADD MSTORE PUSH1 0x10 PUSH1 0x24 DUP3 ADD MSTORE PUSH16 0x24B73B30B634B210323AB930BA34B7B7 PUSH1 0x81 SHL PUSH1 0x44 DUP3 ADD MSTORE PUSH1 0x64 ADD PUSH2 0x88B JUMP JUMPDEST PUSH1 0x7 SLOAD DUP5 GT ISZERO PUSH2 0x1B12 JUMPI PUSH1 0x40 MLOAD PUSH3 0x461BCD PUSH1 0xE5 SHL DUP2 MSTORE PUSH1 0x20 PUSH1 0x4 DUP3 ADD MSTORE PUSH1 0x18 PUSH1 0x24 DUP3 ADD MSTORE PUSH24 0x496E73756666696369656E742067726F75702066756E6473 PUSH1 0x40 SHL PUSH1 0x44 DUP3 ADD MSTORE PUSH1 0x64 ADD PUSH2 0x88B JUMP JUMPDEST PUSH1 0xC DUP1 SLOAD PUSH1 0x0 SWAP2 DUP3 PUSH2 0x1B23 DUP4 PUSH2 0x24FE JUMP JUMPDEST SWAP2 SWAP1 POP SSTORE SWAP1 POP PUSH1 0x40 MLOAD DUP1 PUSH2 0x140 ADD PUSH1 0x40 MSTORE DUP1 DUP3 DUP2 MSTORE PUSH1 0x20 ADD CALLER PUSH1 0x1 PUSH1 0x1 PUSH1 0xA0 SHL SUB AND DUP2 MSTORE PUSH1 0x20 ADD DUP7 DUP2 MSTORE PUSH1 0x20 ADD PUSH2 0x1B5A CALLER DUP9 PUSH2 0x1F8D JUMP JUMPDEST DUP2 MSTORE PUSH1 0x20 DUP1 DUP3 ADD DUP8 SWAP1 MSTORE PUSH1 0x0 PUSH1 0x40 DUP1 DUP5 ADD DUP3 SWAP1 MSTORE PUSH1 0x60 DUP1 DUP6 ADD DUP4 SWAP1 MSTORE PUSH1 0x80 DUP1 DUP7 ADD DUP5 SWAP1 MSTORE PUSH1 0xA0 DUP1 DUP8 ADD DUP6 SWAP1 MSTORE PUSH1 0xC0 SWAP7 DUP8 ADD DUP12 SWAP1 MSTORE DUP9 DUP6 MSTORE PUSH1 0xB DUP7 MSTORE SWAP4 DUP4 SWAP1 KECCAK256 DUP8 MLOAD DUP2 SSTORE SWAP5 DUP8 ADD MLOAD PUSH1 0x1 DUP7 ADD DUP1 SLOAD PUSH1 0x1 PUSH1 0x1 PUSH1 0xA0 SHL SUB SWAP1 SWAP3 AND PUSH1 0x1 PUSH1 0x1 PUSH1 0xA0 SHL SUB NOT SWAP1 SWAP3 AND SWAP2 SWAP1 SWAP2 OR SWAP1 SSTORE SWAP2 DUP7 ADD MLOAD PUSH1 0x2 DUP6 ADD SSTORE DUP6 ADD MLOAD PUSH1 0x3 DUP5 ADD SSTORE DUP5 ADD MLOAD PUSH1 0x4 DUP4 ADD SSTORE DUP4 ADD MLOAD PUSH1 0x5 DUP3 ADD SSTORE SWAP1 DUP3 ADD MLOAD PUSH1 0x6 DUP3 ADD SSTORE PUSH1 0xE0 DUP3 ADD MLOAD PUSH1 0x7 DUP3 ADD DUP1 SLOAD PUSH2 0x100 DUP1 DUP7 ADD MLOAD ISZERO ISZERO MUL PUSH2 0xFF00 NOT SWAP4 ISZERO ISZERO SWAP4 SWAP1 SWAP4 AND PUSH2 0xFFFF NOT SWAP1 SWAP2 AND OR SWAP2 SWAP1 SWAP2 OR SWAP1 SSTORE PUSH2 0x120 SWAP1 SWAP2 ADD MLOAD PUSH1 0x8 SWAP1 SWAP2 ADD SSTORE DUP3 ISZERO PUSH2 0x1D12 JUMPI PUSH1 0x40 MLOAD PUSH4 0x23B872DD PUSH1 0xE0 SHL DUP2 MSTORE CALLER PUSH1 0x4 DUP3 ADD MSTORE ADDRESS PUSH1 0x24 DUP3 ADD MSTORE PUSH1 0x44 DUP2 ADD DUP5 SWAP1 MSTORE PUSH32 0x0 PUSH1 0x1 PUSH1 0x1 PUSH1 0xA0 SHL SUB AND SWAP1 PUSH4 0x23B872DD SWAP1 PUSH1 0x64 ADD PUSH1 0x20 PUSH1 0x40 MLOAD DUP1 DUP4 SUB DUP2 PUSH1 0x0 DUP8 GAS CALL ISZERO DUP1 ISZERO PUSH2 0x1CA2 JUMPI RETURNDATASIZE PUSH1 0x0 DUP1 RETURNDATACOPY RETURNDATASIZE PUSH1 0x0 REVERT JUMPDEST POP POP POP POP PUSH1 0x40 MLOAD RETURNDATASIZE PUSH1 0x1F NOT PUSH1 0x1F DUP3 ADD AND DUP3 ADD DUP1 PUSH1 0x40 MSTORE POP DUP2 ADD SWAP1 PUSH2 0x1CC6 SWAP2 SWAP1 PUSH2 0x243B JUMP JUMPDEST PUSH2 0x1D12 JUMPI PUSH1 0x40 MLOAD PUSH3 0x461BCD PUSH1 0xE5 SHL DUP2 MSTORE PUSH1 0x20 PUSH1 0x4 DUP3 ADD MSTORE PUSH1 0x1A PUSH1 0x24 DUP3 ADD MSTORE PUSH32 0x436F6C6C61746572616C207472616E73666572206661696C6564000000000000 PUSH1 0x44 DUP3 ADD MSTORE PUSH1 0x64 ADD PUSH2 0x88B JUMP JUMPDEST PUSH1 0x40 MLOAD DUP6 DUP2 MSTORE CALLER SWAP1 DUP3 SWAP1 PUSH32 0x97E04BE2FD6414727FE9D0400464568F4384AA8B06264119565CA8F6CC2A4B7A SWAP1 PUSH1 0x20 ADD PUSH1 0x40 MLOAD DUP1 SWAP2 SUB SWAP1 LOG3 SWAP5 SWAP4 POP POP POP POP JUMP JUMPDEST PUSH2 0xBBB DUP2 CALLER PUSH2 0x200A JUMP JUMPDEST PUSH2 0x1D65 DUP3 DUP3 PUSH2 0x1212 JUMP JUMPDEST PUSH2 0xC38 JUMPI PUSH1 0x0 DUP3 DUP2 MSTORE PUSH1 0x1 PUSH1 0x20 DUP2 DUP2 MSTORE PUSH1 0x40 DUP1 DUP5 KECCAK256 PUSH1 0x1 PUSH1 0x1 PUSH1 0xA0 SHL SUB DUP7 AND DUP1 DUP7 MSTORE SWAP3 MSTORE DUP1 DUP5 KECCAK256 DUP1 SLOAD PUSH1 0xFF NOT AND SWAP1 SWAP4 OR SWAP1 SWAP3 SSTORE SWAP1 MLOAD CALLER SWAP3 DUP6 SWAP2 PUSH32 0x2F8788117E7EFF1D82E926EC794901D17C78024A50270940304540A733656F0D SWAP2 SWAP1 LOG4 POP POP JUMP JUMPDEST PUSH1 0x2 PUSH1 0x0 SLOAD SUB PUSH2 0x1E18 JUMPI PUSH1 0x40 MLOAD PUSH3 0x461BCD PUSH1 0xE5 SHL DUP2 MSTORE PUSH1 0x20 PUSH1 0x4 DUP3 ADD MSTORE PUSH1 0x1F PUSH1 0x24 DUP3 ADD MSTORE PUSH32 0x5265656E7472616E637947756172643A207265656E7472616E742063616C6C00 PUSH1 0x44 DUP3 ADD MSTORE PUSH1 0x64 ADD PUSH2 0x88B JUMP JUMPDEST PUSH1 0x2 PUSH1 0x0 SSTORE JUMP JUMPDEST PUSH1 0x1 PUSH1 0x1 PUSH1 0xA0 SHL SUB DUP3 AND PUSH1 0x0 SWAP1 DUP2 MSTORE PUSH1 0x8 PUSH1 0x20 MSTORE PUSH1 0x40 SWAP1 KECCAK256 DUP2 ISZERO PUSH2 0x1E6A JUMPI PUSH2 0x352 DUP2 PUSH1 0x6 ADD SLOAD LT ISZERO PUSH2 0x831 JUMPI PUSH1 0x5 DUP2 PUSH1 0x6 ADD PUSH1 0x0 DUP3 DUP3 SLOAD PUSH2 0x1E60 SWAP2 SWAP1 PUSH2 0x2473 JUMP JUMPDEST SWAP1 SWAP2 SSTORE POP POP POP POP POP JUMP JUMPDEST PUSH2 0x352 DUP2 PUSH1 0x6 ADD SLOAD LT ISZERO PUSH2 0x831 JUMPI PUSH1 0xA DUP2 PUSH1 0x6 ADD PUSH1 0x0 DUP3 DUP3 SLOAD PUSH2 0x1E60 SWAP2 SWAP1 PUSH2 0x2473 JUMP JUMPDEST PUSH2 0x1E97 DUP3 DUP3 PUSH2 0x1212 JUMP JUMPDEST ISZERO PUSH2 0xC38 JUMPI PUSH1 0x0 DUP3 DUP2 MSTORE PUSH1 0x1 PUSH1 0x20 SWAP1 DUP2 MSTORE PUSH1 0x40 DUP1 DUP4 KECCAK256 PUSH1 0x1 PUSH1 0x1 PUSH1 0xA0 SHL SUB DUP6 AND DUP1 DUP6 MSTORE SWAP3 MSTORE DUP1 DUP4 KECCAK256 DUP1 SLOAD PUSH1 0xFF NOT AND SWAP1 SSTORE MLOAD CALLER SWAP3 DUP6 SWAP2 PUSH32 0xF6391F5C32D9C69D2A47EA670B442974B53935D1EDC7FD64EB21E047A839171B SWAP2 SWAP1 LOG4 POP POP JUMP JUMPDEST PUSH1 0x0 DUP2 DUP2 MSTORE PUSH1 0xB PUSH1 0x20 MSTORE PUSH1 0x40 DUP2 KECCAK256 PUSH1 0x7 DUP2 ADD SLOAD PUSH1 0xFF AND PUSH2 0x1F17 JUMPI POP PUSH1 0x0 SWAP3 SWAP2 POP POP JUMP JUMPDEST PUSH1 0x0 PUSH3 0x15180 DUP3 PUSH1 0x5 ADD SLOAD TIMESTAMP PUSH2 0x1F2D SWAP2 SWAP1 PUSH2 0x24C0 JUMP JUMPDEST PUSH2 0x1F37 SWAP2 SWAP1 PUSH2 0x252E JUMP JUMPDEST SWAP1 POP PUSH1 0x0 PUSH2 0x1F72 PUSH2 0x16D PUSH2 0x1F6C PUSH2 0x2710 PUSH2 0x1F6C DUP7 PUSH2 0x1F66 DUP10 PUSH1 0x3 ADD SLOAD DUP11 PUSH1 0x2 ADD SLOAD PUSH2 0x2063 SWAP1 SWAP2 SWAP1 PUSH4 0xFFFFFFFF AND JUMP JUMPDEST SWAP1 PUSH2 0x2063 JUMP JUMPDEST SWAP1 PUSH2 0x2076 JUMP JUMPDEST PUSH1 0x2 DUP5 ADD SLOAD SWAP1 SWAP2 POP PUSH2 0x1F84 SWAP1 DUP3 PUSH2 0x2082 JUMP JUMPDEST SWAP6 SWAP5 POP POP POP POP POP JUMP JUMPDEST PUSH1 0x1 PUSH1 0x1 PUSH1 0xA0 SHL SUB DUP3 AND PUSH1 0x0 SWAP1 DUP2 MSTORE PUSH1 0x8 PUSH1 0x20 MSTORE PUSH1 0x40 DUP2 KECCAK256 PUSH1 0x6 SWAP1 DUP2 ADD SLOAD SWAP1 SLOAD PUSH2 0x2BC DUP3 LT PUSH2 0x1FCF JUMPI PUSH2 0x1FC6 PUSH1 0x64 PUSH2 0x1F6C DUP4 PUSH1 0x50 PUSH2 0x2063 JUMP JUMPDEST SWAP3 POP POP POP PUSH2 0x70B JUMP JUMPDEST PUSH2 0x258 DUP3 LT PUSH2 0x1FE8 JUMPI PUSH2 0x1FC6 PUSH1 0x64 PUSH2 0x1F6C DUP4 PUSH1 0x5A PUSH2 0x2063 JUMP JUMPDEST PUSH2 0x1F4 DUP3 LT ISZERO PUSH2 0x2002 JUMPI PUSH2 0x1FC6 PUSH1 0x64 PUSH2 0x1F6C DUP4 PUSH1 0x78 PUSH2 0x2063 JUMP JUMPDEST SWAP5 SWAP4 POP POP POP POP JUMP JUMPDEST PUSH2 0x2014 DUP3 DUP3 PUSH2 0x1212 JUMP JUMPDEST PUSH2 0xC38 JUMPI PUSH2 0x2021 DUP2 PUSH2 0x208E JUMP JUMPDEST PUSH2 0x202C DUP4 PUSH1 0x20 PUSH2 0x20A0 JUMP JUMPDEST PUSH1 0x40 MLOAD PUSH1 0x20 ADD PUSH2 0x203D SWAP3 SWAP2 SWAP1 PUSH2 0x2550 JUMP JUMPDEST PUSH1 0x40 DUP1 MLOAD PUSH1 0x1F NOT DUP2 DUP5 SUB ADD DUP2 MSTORE SWAP1 DUP3 SWAP1 MSTORE PUSH3 0x461BCD PUSH1 0xE5 SHL DUP3 MSTORE PUSH2 0x88B SWAP2 PUSH1 0x4 ADD PUSH2 0x23BA JUMP JUMPDEST PUSH1 0x0 PUSH2 0x206F DUP3 DUP5 PUSH2 0x2517 JUMP JUMPDEST SWAP4 SWAP3 POP POP POP JUMP JUMPDEST PUSH1 0x0 PUSH2 0x206F DUP3 DUP5 PUSH2 0x252E JUMP JUMPDEST PUSH1 0x0 PUSH2 0x206F DUP3 DUP5 PUSH2 0x2473 JUMP JUMPDEST PUSH1 0x60 PUSH2 0x70B PUSH1 0x1 PUSH1 0x1 PUSH1 0xA0 SHL SUB DUP4 AND PUSH1 0x14 JUMPDEST PUSH1 0x60 PUSH1 0x0 PUSH2 0x20AF DUP4 PUSH1 0x2 PUSH2 0x2517 JUMP JUMPDEST PUSH2 0x20BA SWAP1 PUSH1 0x2 PUSH2 0x2473 JUMP JUMPDEST PUSH8 0xFFFFFFFFFFFFFFFF DUP2 GT ISZERO PUSH2 0x20D2 JUMPI PUSH2 0x20D2 PUSH2 0x25C5 JUMP JUMPDEST PUSH1 0x40 MLOAD SWAP1 DUP1 DUP3 MSTORE DUP1 PUSH1 0x1F ADD PUSH1 0x1F NOT AND PUSH1 0x20 ADD DUP3 ADD PUSH1 0x40 MSTORE DUP1 ISZERO PUSH2 0x20FC JUMPI PUSH1 0x20 DUP3 ADD DUP2 DUP1 CALLDATASIZE DUP4 CALLDATACOPY ADD SWAP1 POP JUMPDEST POP SWAP1 POP PUSH1 0x3 PUSH1 0xFC SHL DUP2 PUSH1 0x0 DUP2 MLOAD DUP2 LT PUSH2 0x2117 JUMPI PUSH2 0x2117 PUSH2 0x25DB JUMP JUMPDEST PUSH1 0x20 ADD ADD SWAP1 PUSH1 0x1 PUSH1 0x1 PUSH1 0xF8 SHL SUB NOT AND SWAP1 DUP2 PUSH1 0x0 BYTE SWAP1 MSTORE8 POP PUSH1 0xF PUSH1 0xFB SHL DUP2 PUSH1 0x1 DUP2 MLOAD DUP2 LT PUSH2 0x2146 JUMPI PUSH2 0x2146 PUSH2 0x25DB JUMP JUMPDEST PUSH1 0x20 ADD ADD SWAP1 PUSH1 0x1 PUSH1 0x1 PUSH1 0xF8 SHL SUB NOT AND SWAP1 DUP2 PUSH1 0x0 BYTE SWAP1 MSTORE8 POP PUSH1 0x0 PUSH2 0x216A DUP5 PUSH1 0x2 PUSH2 0x2517 JUMP JUMPDEST PUSH2 0x2175 SWAP1 PUSH1 0x1 PUSH2 0x2473 JUMP JUMPDEST SWAP1 POP JUMPDEST PUSH1 0x1 DUP2 GT ISZERO PUSH2 0x21ED JUMPI PUSH16 0x181899199A1A9B1B9C1CB0B131B232B3 PUSH1 0x81 SHL DUP6 PUSH1 0xF AND PUSH1 0x10 DUP2 LT PUSH2 0x21A9 JUMPI PUSH2 0x21A9 PUSH2 0x25DB JUMP JUMPDEST BYTE PUSH1 0xF8 SHL DUP3 DUP3 DUP2 MLOAD DUP2 LT PUSH2 0x21BF JUMPI PUSH2 0x21BF PUSH2 0x25DB JUMP JUMPDEST PUSH1 0x20 ADD ADD SWAP1 PUSH1 0x1 PUSH1 0x1 PUSH1 0xF8 SHL SUB NOT AND SWAP1 DUP2 PUSH1 0x0 BYTE SWAP1 MSTORE8 POP PUSH1 0x4 SWAP5 SWAP1 SWAP5 SHR SWAP4 PUSH2 0x21E6 DUP2 PUSH2 0x25F1 JUMP JUMPDEST SWAP1 POP PUSH2 0x2178 JUMP JUMPDEST POP DUP4 ISZERO PUSH2 0x206F JUMPI PUSH1 0x40 MLOAD PUSH3 0x461BCD PUSH1 0xE5 SHL DUP2 MSTORE PUSH1 0x20 PUSH1 0x4 DUP3 ADD DUP2 SWAP1 MSTORE PUSH1 0x24 DUP3 ADD MSTORE PUSH32 0x537472696E67733A20686578206C656E67746820696E73756666696369656E74 PUSH1 0x44 DUP3 ADD MSTORE PUSH1 0x64 ADD PUSH2 0x88B JUMP JUMPDEST PUSH1 0x0 PUSH1 0x20 DUP3 DUP5 SUB SLT ISZERO PUSH2 0x224E JUMPI PUSH1 0x0 DUP1 REVERT JUMPDEST DUP2 CALLDATALOAD PUSH1 0x1 PUSH1 0x1 PUSH1 0xE0 SHL SUB NOT DUP2 AND DUP2 EQ PUSH2 0x206F JUMPI PUSH1 0x0 DUP1 REVERT JUMPDEST PUSH1 0x0 PUSH1 0x20 DUP3 DUP5 SUB SLT ISZERO PUSH2 0x2278 JUMPI PUSH1 0x0 DUP1 REVERT JUMPDEST POP CALLDATALOAD SWAP2 SWAP1 POP JUMP JUMPDEST DUP2 MLOAD DUP2 MSTORE PUSH1 0x20 DUP1 DUP4 ADD MLOAD PUSH2 0x140 DUP4 ADD SWAP2 PUSH2 0x22A3 SWAP1 DUP5 ADD DUP3 PUSH1 0x1 PUSH1 0x1 PUSH1 0xA0 SHL SUB AND SWAP1 MSTORE JUMP JUMPDEST POP PUSH1 0x40 DUP4 ADD MLOAD PUSH1 0x40 DUP4 ADD MSTORE PUSH1 0x60 DUP4 ADD MLOAD PUSH1 0x60 DUP4 ADD MSTORE PUSH1 0x80 DUP4 ADD MLOAD PUSH1 0x80 DUP4 ADD MSTORE PUSH1 0xA0 DUP4 ADD MLOAD PUSH1 0xA0 DUP4 ADD MSTORE PUSH1 0xC0 DUP4 ADD MLOAD PUSH1 0xC0 DUP4 ADD MSTORE PUSH1 0xE0 DUP4 ADD MLOAD PUSH2 0x22E9 PUSH1 0xE0 DUP5 ADD DUP3 ISZERO ISZERO SWAP1 MSTORE JUMP JUMPDEST POP PUSH2 0x100 DUP4 DUP2 ADD MLOAD DUP1 ISZERO ISZERO DUP5 DUP4 ADD MSTORE POP POP PUSH2 0x120 SWAP3 DUP4 ADD MLOAD SWAP2 SWAP1 SWAP3 ADD MSTORE SWAP1 JUMP JUMPDEST DUP1 CALLDATALOAD PUSH1 0x1 PUSH1 0x1 PUSH1 0xA0 SHL SUB DUP2 AND DUP2 EQ PUSH2 0x2320 JUMPI PUSH1 0x0 DUP1 REVERT JUMPDEST SWAP2 SWAP1 POP JUMP JUMPDEST PUSH1 0x0 PUSH1 0x20 DUP3 DUP5 SUB SLT ISZERO PUSH2 0x2337 JUMPI PUSH1 0x0 DUP1 REVERT JUMPDEST PUSH2 0x206F DUP3 PUSH2 0x2309 JUMP JUMPDEST PUSH1 0x0 DUP1 PUSH1 0x40 DUP4 DUP6 SUB SLT ISZERO PUSH2 0x2353 JUMPI PUSH1 0x0 DUP1 REVERT JUMPDEST DUP3 CALLDATALOAD SWAP2 POP PUSH2 0x2363 PUSH1 0x20 DUP5 ADD PUSH2 0x2309 JUMP JUMPDEST SWAP1 POP SWAP3 POP SWAP3 SWAP1 POP JUMP JUMPDEST PUSH1 0x0 DUP1 PUSH1 0x40 DUP4 DUP6 SUB SLT ISZERO PUSH2 0x237F JUMPI PUSH1 0x0 DUP1 REVERT JUMPDEST PUSH2 0x2388 DUP4 PUSH2 0x2309 JUMP JUMPDEST SWAP5 PUSH1 0x20 SWAP4 SWAP1 SWAP4 ADD CALLDATALOAD SWAP4 POP POP POP JUMP JUMPDEST PUSH1 0x0 JUMPDEST DUP4 DUP2 LT ISZERO PUSH2 0x23B1 JUMPI DUP2 DUP2 ADD MLOAD DUP4 DUP3 ADD MSTORE PUSH1 0x20 ADD PUSH2 0x2399 JUMP JUMPDEST POP POP PUSH1 0x0 SWAP2 ADD MSTORE JUMP JUMPDEST PUSH1 0x20 DUP2 MSTORE PUSH1 0x0 DUP3 MLOAD DUP1 PUSH1 0x20 DUP5 ADD MSTORE PUSH2 0x23D9 DUP2 PUSH1 0x40 DUP6 ADD PUSH1 0x20 DUP8 ADD PUSH2 0x2396 JUMP JUMPDEST PUSH1 0x1F ADD PUSH1 0x1F NOT AND SWAP2 SWAP1 SWAP2 ADD PUSH1 0x40 ADD SWAP3 SWAP2 POP POP JUMP JUMPDEST PUSH1 0x0 DUP1 PUSH1 0x40 DUP4 DUP6 SUB SLT ISZERO PUSH2 0x2400 JUMPI PUSH1 0x0 DUP1 REVERT JUMPDEST POP POP DUP1 CALLDATALOAD SWAP3 PUSH1 0x20 SWAP1 SWAP2 ADD CALLDATALOAD SWAP2 POP JUMP JUMPDEST PUSH1 0x0 DUP1 PUSH1 0x0 PUSH1 0x60 DUP5 DUP7 SUB SLT ISZERO PUSH2 0x2424 JUMPI PUSH1 0x0 DUP1 REVERT JUMPDEST POP POP DUP2 CALLDATALOAD SWAP4 PUSH1 0x20 DUP4 ADD CALLDATALOAD SWAP4 POP PUSH1 0x40 SWAP1 SWAP3 ADD CALLDATALOAD SWAP2 SWAP1 POP JUMP JUMPDEST PUSH1 0x0 PUSH1 0x20 DUP3 DUP5 SUB SLT ISZERO PUSH2 0x244D JUMPI PUSH1 0x0 DUP1 REVERT JUMPDEST DUP2 MLOAD DUP1 ISZERO ISZERO DUP2 EQ PUSH2 0x206F JUMPI PUSH1 0x0 DUP1 REVERT JUMPDEST PUSH4 0x4E487B71 PUSH1 0xE0 SHL PUSH1 0x0 MSTORE PUSH1 0x11 PUSH1 0x4 MSTORE PUSH1 0x24 PUSH1 0x0 REVERT JUMPDEST DUP1 DUP3 ADD DUP1 DUP3 GT ISZERO PUSH2 0x70B JUMPI PUSH2 0x70B PUSH2 0x245D JUMP JUMPDEST PUSH1 0x1 DUP2 DUP2 SHR SWAP1 DUP3 AND DUP1 PUSH2 0x249A JUMPI PUSH1 0x7F DUP3 AND SWAP2 POP JUMPDEST PUSH1 0x20 DUP3 LT DUP2 SUB PUSH2 0x24BA JUMPI PUSH4 0x4E487B71 PUSH1 0xE0 SHL PUSH1 0x0 MSTORE PUSH1 0x22 PUSH1 0x4 MSTORE PUSH1 0x24 PUSH1 0x0 REVERT JUMPDEST POP SWAP2 SWAP1 POP JUMP JUMPDEST DUP2 DUP2 SUB DUP2 DUP2 GT ISZERO PUSH2 0x70B JUMPI PUSH2 0x70B PUSH2 0x245D JUMP JUMPDEST PUSH1 0x20 DUP1 DUP3 MSTORE PUSH1 0x11 SWAP1 DUP3 ADD MSTORE PUSH17 0x2737BA10309033B937BAB81030B236B4B7 PUSH1 0x79 SHL PUSH1 0x40 DUP3 ADD MSTORE PUSH1 0x60 ADD SWAP1 JUMP JUMPDEST PUSH1 0x0 PUSH1 0x1 DUP3 ADD PUSH2 0x2510 JUMPI PUSH2 0x2510 PUSH2 0x245D JUMP JUMPDEST POP PUSH1 0x1 ADD SWAP1 JUMP JUMPDEST DUP1 DUP3 MUL DUP2 ISZERO DUP3 DUP3 DIV DUP5 EQ OR PUSH2 0x70B JUMPI PUSH2 0x70B PUSH2 0x245D JUMP JUMPDEST PUSH1 0x0 DUP3 PUSH2 0x254B JUMPI PUSH4 0x4E487B71 PUSH1 0xE0 SHL PUSH1 0x0 MSTORE PUSH1 0x12 PUSH1 0x4 MSTORE PUSH1 0x24 PUSH1 0x0 REVERT JUMPDEST POP DIV SWAP1 JUMP JUMPDEST PUSH32 0x416363657373436F6E74726F6C3A206163636F756E7420000000000000000000 DUP2 MSTORE PUSH1 0x0 DUP4 MLOAD PUSH2 0x2588 DUP2 PUSH1 0x17 DUP6 ADD PUSH1 0x20 DUP9 ADD PUSH2 0x2396 JUMP JUMPDEST PUSH17 0x1034B99036B4B9B9B4B733903937B6329 PUSH1 0x7D SHL PUSH1 0x17 SWAP2 DUP5 ADD SWAP2 DUP3 ADD MSTORE DUP4 MLOAD PUSH2 0x25B9 DUP2 PUSH1 0x28 DUP5 ADD PUSH1 0x20 DUP9 ADD PUSH2 0x2396 JUMP JUMPDEST ADD PUSH1 0x28 ADD SWAP5 SWAP4 POP POP POP POP JUMP JUMPDEST PUSH4 0x4E487B71 PUSH1 0xE0 SHL PUSH1 0x0 MSTORE PUSH1 0x41 PUSH1 0x4 MSTORE PUSH1 0x24 PUSH1 0x0 REVERT JUMPDEST PUSH4 0x4E487B71 PUSH1 0xE0 SHL PUSH1 0x0 MSTORE PUSH1 0x32 PUSH1 0x4 MSTORE PUSH1 0x24 PUSH1 0x0 REVERT JUMPDEST PUSH1 0x0 DUP2 PUSH2 0x2600 JUMPI PUSH2 0x2600 PUSH2 0x245D JUMP JUMPDEST POP PUSH1 0x0 NOT ADD SWAP1 JUMP INVALID SWAP1 CALLDATACOPY 0xDB 0x4B PUSH0 DUP10 DUP6 GASLIMIT PUSH6 0x4918DAE90413 0xD3 PUSH15 0x46A066A2032AB38FB124FF80ECB3A5 LOG2 PUSH5 0x6970667358 0x22 SLT KECCAK256 0xDA ISZERO CREATE 0xD3 0xD1 0xAC 0x1F 0xC5 CODESIZE 0xD8 INVALID CALLDATALOAD PUSH27 0x8500E64862A084375D731B35DBE5C2875E64AF64736F6C63430008 EQ STOP CALLER "},"methodIdentifiers":{"DEFAULT_ADMIN_ROLE()":"a217fddf","GROUP_ADMIN_ROLE()":"0cec8e7a","MEMBER_ROLE()":"a10f469e","addMember(address)":"ca6d56dc","approveLoan(uint256)":"aadc1ac1","celoToken()":"e22d551a","contributionCycles(uint256)":"b9585382","creationDate()":"05b34410","currentCycleId()":"aaacdda0","defaultInterestRate()":"86c1c74d","getCurrentCycleInfo()":"4c3b1939","getLoanInfo(uint256)":"0714012c","getMemberContributionInCycle(address,uint256)":"4df46d41","getMemberInfo(address)":"5f1231ea","getRoleAdmin(bytes32)":"248a9ca3","grantRole(bytes32,address)":"2f2ff15d","groupBalance()":"c9e87b02","groupName()":"783cec80","hasRole(bytes32,address)":"91d14854","loans(uint256)":"e1ec3c68","makeContribution(uint256)":"360a2bcb","maxLoanAmount()":"72f94365","memberAddresses(uint256)":"cc4e6299","memberCount()":"11aee380","members(address)":"08ae4b0c","minimumContribution()":"937e09b1","nextLoanId()":"87c51459","renounceRole(bytes32,address)":"36568abe","repayLoan(uint256,uint256)":"8a700b53","requestLoan(uint256,uint256,uint256)":"edadbbfe","revokeRole(bytes32,address)":"d547741f","startContributionCycle(uint256,uint256)":"bf454b80","supportsInterface(bytes4)":"01ffc9a7","totalLoansIssued()":"c7959d04","totalLoansRepaid()":"549f433f"}},"storageLayout":{"storage":[{"astId":512,"contract":"contracts/SavingsGroup.sol:SavingsGroup","label":"_status","offset":0,"slot":"0","type":"t_uint256"},{"astId":24,"contract":"contracts/SavingsGroup.sol:SavingsGroup","label":"_roles","offset":0,"slot":"1","type":"t_mapping(t_bytes32,t_struct(RoleData)19_storage)"},{"astId":3906,"contract":"contracts/SavingsGroup.sol:SavingsGroup","label":"groupName","offset":0,"slot":"2","type":"t_string_storage"},{"astId":3908,"contract":"contracts/SavingsGroup.sol:SavingsGroup","label":"creationDate","offset":0,"slot":"3","type":"t_uint256"},{"astId":3910,"contract":"contracts/SavingsGroup.sol:SavingsGroup","label":"minimumContribution","offset":0,"slot":"4","type":"t_uint256"},{"astId":3912,"contract":"contracts/SavingsGroup.sol:SavingsGroup","label":"maxLoanAmount","offset":0,"slot":"5","type":"t_uint256"},{"astId":3914,"contract":"contracts/SavingsGroup.sol:SavingsGroup","label":"defaultInterestRate","offset":0,"slot":"6","type":"t_uint256"},{"astId":3916,"contract":"contracts/SavingsGroup.sol:SavingsGroup","label":"groupBalance","offset":0,"slot":"7","type":"t_uint256"},{"astId":3921,"contract":"contracts/SavingsGroup.sol:SavingsGroup","label":"members","offset":0,"slot":"8","type":"t_mapping(t_address,t_struct(Member)3866_storage)"},{"astId":3924,"contract":"contracts/SavingsGroup.sol:SavingsGroup","label":"memberAddresses","offset":0,"slot":"9","type":"t_array(t_address)dyn_storage"},{"astId":3926,"contract":"contracts/SavingsGroup.sol:SavingsGroup","label":"memberCount","offset":0,"slot":"10","type":"t_uint256"},{"astId":3931,"contract":"contracts/SavingsGroup.sol:SavingsGroup","label":"loans","offset":0,"slot":"11","type":"t_mapping(t_uint256,t_struct(Loan)3887_storage)"},{"astId":3933,"contract":"contracts/SavingsGroup.sol:SavingsGroup","label":"nextLoanId","offset":0,"slot":"12","type":"t_uint256"},{"astId":3935,"contract":"contracts/SavingsGroup.sol:SavingsGroup","label":"totalLoansIssued","offset":0,"slot":"13","type":"t_uint256"},{"astId":3937,"contract":"contracts/SavingsGroup.sol:SavingsGroup","label":"totalLoansRepaid","offset":0,"slot":"14","type":"t_uint256"},{"astId":3942,"contract":"contracts/SavingsGroup.sol:SavingsGroup","label":"contributionCycles","offset":0,"slot":"15","type":"t_mapping(t_uint256,t_struct(ContributionCycle)3904_storage)"},{"astId":3944,"contract":"contracts/SavingsGroup.sol:SavingsGroup","label":"currentCycleId","offset":0,"slot":"16","type":"t_uint256"}],"types":{"t_address":{"encoding":"inplace","label":"address","numberOfBytes":"20"},"t_array(t_address)dyn_storage":{"base":"t_address","encoding":"dynamic_array","label":"address[]","numberOfBytes":"32"},"t_bool":{"encoding":"inplace","label":"bool","numberOfBytes":"1"},"t_bytes32":{"encoding":"inplace","label":"bytes32","numberOfBytes":"32"},"t_mapping(t_address,t_bool)":{"encoding":"mapping","key":"t_address","label":"mapping(address => bool)","numberOfBytes":"32","value":"t_bool"},"t_mapping(t_address,t_struct(Member)3866_storage)":{"encoding":"mapping","key":"t_address","label":"mapping(address => struct SavingsGroup.Member)","numberOfBytes":"32","value":"t_struct(Member)3866_storage"},"t_mapping(t_address,t_uint256)":{"encoding":"mapping","key":"t_address","label":"mapping(address => uint256)","numberOfBytes":"32","value":"t_uint256"},"t_mapping(t_bytes32,t_struct(RoleData)19_storage)":{"encoding":"mapping","key":"t_bytes32","label":"mapping(bytes32 => struct AccessControl.RoleData)","numberOfBytes":"32","value":"t_struct(RoleData)19_storage"},"t_mapping(t_uint256,t_struct(ContributionCycle)3904_storage)":{"encoding":"mapping","key":"t_uint256","label":"mapping(uint256 => struct SavingsGroup.ContributionCycle)","numberOfBytes":"32","value":"t_struct(ContributionCycle)3904_storage"},"t_mapping(t_uint256,t_struct(Loan)3887_storage)":{"encoding":"mapping","key":"t_uint256","label":"mapping(uint256 => struct SavingsGroup.Loan)","numberOfBytes":"32","value":"t_struct(Loan)3887_storage"},"t_string_storage":{"encoding":"bytes","label":"string","numberOfBytes":"32"},"t_struct(ContributionCycle)3904_storage":{"encoding":"inplace","label":"struct SavingsGroup.ContributionCycle","members":[{"astId":3889,"contract":"contracts/SavingsGroup.sol:SavingsGroup","label":"cycleId","offset":0,"slot":"0","type":"t_uint256"},{"astId":3891,"contract":"contracts/SavingsGroup.sol:SavingsGroup","label":"targetAmount","offset":0,"slot":"1","type":"t_uint256"},{"astId":3893,"contract":"contracts/SavingsGroup.sol:SavingsGroup","label":"currentAmount","offset":0,"slot":"2","type":"t_uint256"},{"astId":3895,"contract":"contracts/SavingsGroup.sol:SavingsGroup","label":"startDate","offset":0,"slot":"3","type":"t_uint256"},{"astId":3897,"contract":"contracts/SavingsGroup.sol:SavingsGroup","label":"endDate","offset":0,"slot":"4","type":"t_uint256"},{"astId":3899,"contract":"contracts/SavingsGroup.sol:SavingsGroup","label":"isActive","offset":0,"slot":"5","type":"t_bool"},{"astId":3903,"contract":"contracts/SavingsGroup.sol:SavingsGroup","label":"memberContributions","offset":0,"slot":"6","type":"t_mapping(t_address,t_uint256)"}],"numberOfBytes":"224"},"t_struct(Loan)3887_storage":{"encoding":"inplace","label":"struct SavingsGroup.Loan","members":[{"astId":3868,"contract":"contracts/SavingsGroup.sol:SavingsGroup","label":"loanId","offset":0,"slot":"0","type":"t_uint256"},{"astId":3870,"contract":"contracts/SavingsGroup.sol:SavingsGroup","label":"borrower","offset":0,"slot":"1","type":"t_address"},{"astId":3872,"contract":"contracts/SavingsGroup.sol:SavingsGroup","label":"amount","offset":0,"slot":"2","type":"t_uint256"},{"astId":3874,"contract":"contracts/SavingsGroup.sol:SavingsGroup","label":"interestRate","offset":0,"slot":"3","type":"t_uint256"},{"astId":3876,"contract":"contracts/SavingsGroup.sol:SavingsGroup","label":"duration","offset":0,"slot":"4","type":"t_uint256"},{"astId":3878,"contract":"contracts/SavingsGroup.sol:SavingsGroup","label":"startDate","offset":0,"slot":"5","type":"t_uint256"},{"astId":3880,"contract":"contracts/SavingsGroup.sol:SavingsGroup","label":"repaidAmount","offset":0,"slot":"6","type":"t_uint256"},{"astId":3882,"contract":"contracts/SavingsGroup.sol:SavingsGroup","label":"isActive","offset":0,"slot":"7","type":"t_bool"},{"astId":3884,"contract":"contracts/SavingsGroup.sol:SavingsGroup","label":"isApproved","offset":1,"slot":"7","type":"t_bool"},{"astId":3886,"contract":"contracts/SavingsGroup.sol:SavingsGroup","label":"collateralAmount","offset":0,"slot":"8","type":"t_uint256"}],"numberOfBytes":"288"},"t_struct(Member)3866_storage":{"encoding":"inplace","label":"struct SavingsGroup.Member","members":[{"astId":3853,"contract":"contracts/SavingsGroup.sol:SavingsGroup","label":"memberAddress","offset":0,"slot":"0","type":"t_address"},{"astId":3855,"contract":"contracts/SavingsGroup.sol:SavingsGroup","label":"totalContributions","offset":0,"slot":"1","type":"t_uint256"},{"astId":3857,"contract":"contracts/SavingsGroup.sol:SavingsGroup","label":"totalLoans","offset":0,"slot":"2","type":"t_uint256"},{"astId":3859,"contract":"contracts/SavingsGroup.sol:SavingsGroup","label":"totalRepayments","offset":0,"slot":"3","type":"t_uint256"},{"astId":3861,"contract":"contracts/SavingsGroup.sol:SavingsGroup","label":"isActive","offset":0,"slot":"4","type":"t_bool"},{"astId":3863,"contract":"contracts/SavingsGroup.sol:SavingsGroup","label":"joinDate","offset":0,"slot":"5","type":"t_uint256"},{"astId":3865,"contract":"contracts/SavingsGroup.sol:SavingsGroup","label":"creditScore","offset":0,"slot":"6","type":"t_uint256"}],"numberOfBytes":"224"},"t_struct(RoleData)19_storage":{"encoding":"inplace","label":"struct AccessControl.RoleData","members":[{"astId":16,"contract":"contracts/SavingsGroup.sol:SavingsGroup","label":"members","offset":0,"slot":"0","type":"t_mapping(t_address,t_bool)"},{"astId":18,"contract":"contracts/SavingsGroup.sol:SavingsGroup","label":"adminRole","offset":0,"slot":"1","type":"t_bytes32"}],"numberOfBytes":"64"},"t_uint256":{"encoding":"inplace","label":"uint256","numberOfBytes":"32"}}}}}}