{"contracts/MicroloanSystem.sol":{"MicroloanSystem":{"abi":[{"inputs":[{"internalType":"address","name":"_feeReceiver","type":"address"},{"internalType":"address","name":"_creditScoringOracle","type":"address"}],"stateMutability":"nonpayable","type":"constructor"},{"anonymous":false,"inputs":[{"indexed":true,"internalType":"uint256","name":"loanId","type":"uint256"},{"indexed":true,"internalType":"address","name":"borrower","type":"address"},{"indexed":false,"internalType":"uint256","name":"amount","type":"uint256"}],"name":"CollateralDeposited","type":"event"},{"anonymous":false,"inputs":[{"indexed":true,"internalType":"uint256","name":"loanId","type":"uint256"},{"indexed":true,"internalType":"address","name":"borrower","type":"address"},{"indexed":false,"internalType":"uint256","name":"amount","type":"uint256"}],"name":"CollateralReleased","type":"event"},{"anonymous":false,"inputs":[{"indexed":true,"internalType":"address","name":"lender","type":"address"},{"indexed":false,"internalType":"uint256","name":"fundingCapacity","type":"uint256"}],"name":"LenderRegistered","type":"event"},{"anonymous":false,"inputs":[{"indexed":true,"internalType":"uint256","name":"loanId","type":"uint256"},{"indexed":true,"internalType":"address","name":"lender","type":"address"},{"indexed":false,"internalType":"uint256","name":"amount","type":"uint256"},{"indexed":false,"internalType":"uint256","name":"interestRate","type":"uint256"}],"name":"LoanApproved","type":"event"},{"anonymous":false,"inputs":[{"indexed":true,"internalType":"uint256","name":"loanId","type":"uint256"},{"indexed":true,"internalType":"address","name":"borrower","type":"address"}],"name":"LoanCompleted","type":"event"},{"anonymous":false,"inputs":[{"indexed":true,"internalType":"uint256","name":"loanId","type":"uint256"},{"indexed":true,"internalType":"address","name":"borrower","type":"address"}],"name":"LoanDefaulted","type":"event"},{"anonymous":false,"inputs":[{"indexed":true,"internalType":"uint256","name":"loanId","type":"uint256"},{"indexed":false,"internalType":"uint256","name":"amount","type":"uint256"}],"name":"LoanFunded","type":"event"},{"anonymous":false,"inputs":[{"indexed":true,"internalType":"uint256","name":"loanId","type":"uint256"},{"indexed":true,"internalType":"address","name":"borrower","type":"address"},{"indexed":false,"internalType":"uint256","name":"amount","type":"uint256"},{"indexed":false,"internalType":"uint256","name":"duration","type":"uint256"}],"name":"LoanRequested","type":"event"},{"anonymous":false,"inputs":[{"indexed":true,"internalType":"address","name":"previousOwner","type":"address"},{"indexed":true,"internalType":"address","name":"newOwner","type":"address"}],"name":"OwnershipTransferred","type":"event"},{"anonymous":false,"inputs":[{"indexed":false,"internalType":"address","name":"account","type":"address"}],"name":"Paused","type":"event"},{"anonymous":false,"inputs":[{"indexed":true,"internalType":"uint256","name":"loanId","type":"uint256"},{"indexed":true,"internalType":"address","name":"borrower","type":"address"},{"indexed":false,"internalType":"uint256","name":"amount","type":"uint256"},{"indexed":false,"internalType":"uint256","name":"installment","type":"uint256"}],"name":"RepaymentMade","type":"event"},{"anonymous":false,"inputs":[{"indexed":false,"internalType":"address","name":"account","type":"address"}],"name":"Unpaused","type":"event"},{"inputs":[{"internalType":"uint256","name":"_loanId","type":"uint256"},{"internalType":"uint256","name":"_interestRate","type":"uint256"}],"name":"approveLoan","outputs":[],"stateMutability":"nonpayable","type":"function"},{"inputs":[{"internalType":"address","name":"","type":"address"},{"internalType":"uint256","name":"","type":"uint256"}],"name":"borrowerLoans","outputs":[{"internalType":"uint256","name":"","type":"uint256"}],"stateMutability":"view","type":"function"},{"inputs":[{"internalType":"address","name":"","type":"address"}],"name":"borrowers","outputs":[{"internalType":"uint256","name":"creditScore","type":"uint256"},{"internalType":"uint256","name":"totalBorrowed","type":"uint256"},{"internalType":"uint256","name":"totalRepaid","type":"uint256"},{"internalType":"uint256","name":"activeLoans","type":"uint256"},{"internalType":"uint256","name":"completedLoans","type":"uint256"},{"internalType":"uint256","name":"defaultedLoans","type":"uint256"},{"internalType":"uint256","name":"lastLoanTime","type":"uint256"},{"internalType":"bool","name":"isBlacklisted","type":"bool"}],"stateMutability":"view","type":"function"},{"inputs":[{"internalType":"uint256","name":"_maxAmount","type":"uint256"},{"internalType":"uint256","name":"_interestRate","type":"uint256"},{"internalType":"uint256","name":"_maxDuration","type":"uint256"},{"internalType":"uint256","name":"_minCreditScore","type":"uint256"},{"internalType":"enum MicroloanSystem.LoanType[]","name":"_supportedTypes","type":"uint8[]"}],"name":"createLoanOffer","outputs":[{"internalType":"uint256","name":"","type":"uint256"}],"stateMutability":"nonpayable","type":"function"},{"inputs":[],"name":"creditScoringOracle","outputs":[{"internalType":"address","name":"","type":"address"}],"stateMutability":"view","type":"function"},{"inputs":[{"internalType":"uint256","name":"_loanId","type":"uint256"},{"internalType":"uint256","name":"_amount","type":"uint256"}],"name":"depositCollateral","outputs":[],"stateMutability":"nonpayable","type":"function"},{"inputs":[{"internalType":"address","name":"_token","type":"address"},{"internalType":"uint256","name":"_amount","type":"uint256"}],"name":"depositFunds","outputs":[],"stateMutability":"nonpayable","type":"function"},{"inputs":[],"name":"feeReceiver","outputs":[{"internalType":"address","name":"","type":"address"}],"stateMutability":"view","type":"function"},{"inputs":[{"internalType":"uint256","name":"_loanId","type":"uint256"}],"name":"fundLoan","outputs":[],"stateMutability":"nonpayable","type":"function"},{"inputs":[{"internalType":"address","name":"_borrower","type":"address"}],"name":"getBorrowerInfo","outputs":[{"internalType":"uint256","name":"creditScore","type":"uint256"},{"internalType":"uint256","name":"totalBorrowed","type":"uint256"},{"internalType":"uint256","name":"totalRepaid","type":"uint256"},{"internalType":"uint256","name":"activeLoans","type":"uint256"},{"internalType":"uint256","name":"completedLoans","type":"uint256"},{"internalType":"uint256","name":"defaultedLoans","type":"uint256"},{"internalType":"bool","name":"isBlacklisted","type":"bool"}],"stateMutability":"view","type":"function"},{"inputs":[{"internalType":"address","name":"_lender","type":"address"},{"internalType":"address","name":"_token","type":"address"}],"name":"getLenderFunds","outputs":[{"internalType":"uint256","name":"","type":"uint256"}],"stateMutability":"view","type":"function"},{"inputs":[{"internalType":"uint256","name":"_loanId","type":"uint256"}],"name":"getLoanDetails","outputs":[{"internalType":"address","name":"borrower","type":"address"},{"internalType":"address","name":"lender","type":"address"},{"internalType":"uint256","name":"principalAmount","type":"uint256"},{"internalType":"uint256","name":"interestRate","type":"uint256"},{"internalType":"uint256","name":"installmentAmount","type":"uint256"},{"internalType":"uint256","name":"installmentsPaid","type":"uint256"},{"internalType":"uint256","name":"totalInstallments","type":"uint256"},{"internalType":"enum MicroloanSystem.LoanStatus","name":"status","type":"uint8"},{"internalType":"uint256","name":"nextPaymentDue","type":"uint256"}],"stateMutability":"view","type":"function"},{"inputs":[],"name":"installmentPeriod","outputs":[{"internalType":"uint256","name":"","type":"uint256"}],"stateMutability":"view","type":"function"},{"inputs":[],"name":"latePenaltyRate","outputs":[{"internalType":"uint256","name":"","type":"uint256"}],"stateMutability":"view","type":"function"},{"inputs":[{"internalType":"address","name":"","type":"address"},{"internalType":"uint256","name":"","type":"uint256"}],"name":"lenderLoans","outputs":[{"internalType":"uint256","name":"","type":"uint256"}],"stateMutability":"view","type":"function"},{"inputs":[{"internalType":"address","name":"","type":"address"}],"name":"lenders","outputs":[{"internalType":"bool","name":"isRegistered","type":"bool"},{"internalType":"uint256","name":"fundingCapacity","type":"uint256"},{"internalType":"uint256","name":"totalLent","type":"uint256"},{"internalType":"uint256","name":"activeLoans","type":"uint256"},{"internalType":"uint256","name":"completedLoans","type":"uint256"},{"internalType":"uint256","name":"defaultRate","type":"uint256"},{"internalType":"uint256","name":"averageReturn","type":"uint256"}],"stateMutability":"view","type":"function"},{"inputs":[{"internalType":"uint256","name":"","type":"uint256"}],"name":"loanOffers","outputs":[{"internalType":"address","name":"lender","type":"address"},{"internalType":"uint256","name":"maxAmount","type":"uint256"},{"internalType":"uint256","name":"interestRate","type":"uint256"},{"internalType":"uint256","name":"maxDuration","type":"uint256"},{"internalType":"uint256","name":"minCreditScore","type":"uint256"},{"internalType":"bool","name":"isActive","type":"bool"}],"stateMutability":"view","type":"function"},{"inputs":[{"internalType":"uint256","name":"","type":"uint256"}],"name":"loans","outputs":[{"internalType":"uint256","name":"loanId","type":"uint256"},{"internalType":"address","name":"borrower","type":"address"},{"internalType":"address","name":"lender","type":"address"},{"internalType":"address","name":"token","type":"address"},{"internalType":"uint256","name":"principalAmount","type":"uint256"},{"internalType":"uint256","name":"interestRate","type":"uint256"},{"internalType":"uint256","name":"duration","type":"uint256"},{"internalType":"uint256","name":"installmentAmount","type":"uint256"},{"internalType":"uint256","name":"installmentsPaid","type":"uint256"},{"internalType":"uint256","name":"totalInstallments","type":"uint256"},{"internalType":"uint256","name":"startTime","type":"uint256"},{"internalType":"uint256","name":"nextPaymentDue","type":"uint256"},{"internalType":"enum MicroloanSystem.LoanStatus","name":"status","type":"uint8"},{"internalType":"enum MicroloanSystem.LoanType","name":"loanType","type":"uint8"},{"internalType":"string","name":"purpose","type":"string"},{"internalType":"uint256","name":"collateralAmount","type":"uint256"},{"internalType":"bool","name":"requiresCollateral","type":"bool"},{"internalType":"uint256","name":"creditScoreRequired","type":"uint256"},{"internalType":"uint256","name":"totalRepaid","type":"uint256"},{"internalType":"uint256","name":"penaltyAmount","type":"uint256"}],"stateMutability":"view","type":"function"},{"inputs":[{"internalType":"uint256","name":"_loanId","type":"uint256"}],"name":"makeRepayment","outputs":[],"stateMutability":"nonpayable","type":"function"},{"inputs":[{"internalType":"uint256","name":"_loanId","type":"uint256"}],"name":"markLoanDefaulted","outputs":[],"stateMutability":"nonpayable","type":"function"},{"inputs":[],"name":"maxLoanAmount","outputs":[{"internalType":"uint256","name":"","type":"uint256"}],"stateMutability":"view","type":"function"},{"inputs":[],"name":"minCreditScore","outputs":[{"internalType":"uint256","name":"","type":"uint256"}],"stateMutability":"view","type":"function"},{"inputs":[],"name":"nextLoanId","outputs":[{"internalType":"uint256","name":"","type":"uint256"}],"stateMutability":"view","type":"function"},{"inputs":[],"name":"nextOfferId","outputs":[{"internalType":"uint256","name":"","type":"uint256"}],"stateMutability":"view","type":"function"},{"inputs":[],"name":"owner","outputs":[{"internalType":"address","name":"","type":"address"}],"stateMutability":"view","type":"function"},{"inputs":[],"name":"pause","outputs":[],"stateMutability":"nonpayable","type":"function"},{"inputs":[],"name":"paused","outputs":[{"internalType":"bool","name":"","type":"bool"}],"stateMutability":"view","type":"function"},{"inputs":[],"name":"platformFee","outputs":[{"internalType":"uint256","name":"","type":"uint256"}],"stateMutability":"view","type":"function"},{"inputs":[{"internalType":"uint256","name":"_fundingCapacity","type":"uint256"},{"internalType":"address[]","name":"_supportedTokens","type":"address[]"}],"name":"registerLender","outputs":[],"stateMutability":"nonpayable","type":"function"},{"inputs":[],"name":"renounceOwnership","outputs":[],"stateMutability":"nonpayable","type":"function"},{"inputs":[{"internalType":"address","name":"_token","type":"address"},{"internalType":"uint256","name":"_amount","type":"uint256"},{"internalType":"uint256","name":"_duration","type":"uint256"},{"internalType":"enum MicroloanSystem.LoanType","name":"_loanType","type":"uint8"},{"internalType":"string","name":"_purpose","type":"string"},{"internalType":"bool","name":"_requiresCollateral","type":"bool"}],"name":"requestLoan","outputs":[{"internalType":"uint256","name":"","type":"uint256"}],"stateMutability":"nonpayable","type":"function"},{"inputs":[{"internalType":"address","name":"newOwner","type":"address"}],"name":"transferOwnership","outputs":[],"stateMutability":"nonpayable","type":"function"},{"inputs":[],"name":"unpause","outputs":[],"stateMutability":"nonpayable","type":"function"},{"inputs":[{"internalType":"address","name":"_borrower","type":"address"},{"internalType":"uint256","name":"_newScore","type":"uint256"}],"name":"updateCreditScore","outputs":[],"stateMutability":"nonpayable","type":"function"},{"inputs":[{"internalType":"uint256","name":"_platformFee","type":"uint256"},{"internalType":"uint256","name":"_latePenaltyRate","type":"uint256"},{"internalType":"uint256","name":"_maxLoanAmount","type":"uint256"},{"internalType":"uint256","name":"_minCreditScore","type":"uint256"}],"name":"updateSettings","outputs":[],"stateMutability":"nonpayable","type":"function"},{"inputs":[{"internalType":"address","name":"_token","type":"address"},{"internalType":"uint256","name":"_amount","type":"uint256"}],"name":"withdrawFunds","outputs":[],"stateMutability":"nonpayable","type":"function"}],"evm":{"bytecode":{"linkReferences":{},"object":"6080346200011c57601f62002d1e38819003918201601f19168301916001600160401b03831184841017620001215780849260409485528339810103126200011c576200005a6020620000528362000137565b920162000137565b6001600081815581546001600160a81b0319811633600881811b610100600160a81b03169290921790945560405195946001600160a01b03949093909290911c8416907f8be0079c531659141344cd1fd0a4f28419497f9722a3daafe3b4186f6b6457e09080a36001600855600160095560c8600a556101f4600b55690a968163f0a57b400000600c55610190600d5562278d00600e558160018060a01b0319931683600f541617600f5516906010541617601055612bd190816200014d8239f35b600080fd5b634e487b7160e01b600052604160045260246000fd5b51906001600160a01b03821682036200011c5756fe61014080604052600436101561001457600080fd5b60003560e01c90816303eebec4146122005750806323cdc1e914611e2057806326232a2e14611e0257806328fd10d714611d825780632c7bdd4b14611d125780633cdb72f114611cc85780633f4ba83a14611c3457806353e2617314611bdc5780635c975abb14611bb95780635f5d065514611b9b57806365352f9d14611afb57806366877b8d14611a415780636f653e3a146119c1578063715018a614611960578063715d4800146118a157806372f943651461188357806376f79b10146118655780637a646492146116505780637deb256f146116275780638456cb59146115ce578063846b909a1461151f57806387c5145914611501578063881805be146113015780638da5cb5b146112d4578063921b004b14611225578063b3f00674146111fc578063bf5d50c414611170578063c107532914611072578063d37415fe14610c7e578063d92d7d7714610a2b578063e1ec3c68146107ed578063e3ed190214610795578063e57330df1461046f578063ece13732146102a3578063f2fde38b146101cf5763ff3c475b146101ac57600080fd5b346101ca5760003660031901126101ca576020600b54604051908152f35b600080fd5b346101ca5760203660031901126101ca576101e861221b565b6101f0612368565b6001600160a01b0381811691821561024f5760018054610100600160a81b03198116600893841b610100600160a81b031617909155901c167f8be0079c531659141344cd1fd0a4f28419497f9722a3daafe3b4186f6b6457e0600080a3005b60405162461bcd60e51b815260206004820152602660248201527f4f776e61626c653a206e6577206f776e657220697320746865207a65726f206160448201526564647265737360d01b6064820152608490fd5b346101ca576102b1366122c0565b6102b9612485565b81151580610464575b6102cb9061291e565b816000526002602052604060002060018060a01b03906102f2826001830154163314612960565b60ff600c82015416600681101561044e57600161030f911461299f565b60ff600f82015416156104095782156103c45761033883600493600384015416309033906124db565b600e810192610348818554612704565b809455604051908152847feec2f3feb835e2f2fd44281034b04700a1ddda63dd402949d470a25a7c40b36c60203393a301546078810290808204607814901517156103ae5760649004111561039f575b6001600055005b6103a8906129df565b80610398565b634e487b7160e01b600052601160045260246000fd5b60405162461bcd60e51b815260206004820152601960248201527f496e76616c696420636f6c6c61746572616c20616d6f756e74000000000000006044820152606490fd5b60405162461bcd60e51b815260206004820152601760248201527f436f6c6c61746572616c206e6f742072657175697265640000000000000000006044820152606490fd5b634e487b7160e01b600052602160045260246000fd5b5060085482106102c2565b346101ca5760a03660031901126101ca5760843567ffffffffffffffff8082116101ca57366023830112156101ca578160040135916104ad836122d6565b906104bb6040519283612231565b838252602092838301809260249182600598891b830101913683116101ca578301905b82821061077d57505050336000526004855261050160ff604060002054166123ed565b6004359283151580610771575b6105179061276e565b81359283151580610765575b61052c906127b0565b6044359586151580610759575b610542906127f4565b60643561012c8110158061074d575b61055a90612833565b6009549761056789612876565b600955886000528a8a52604060002096336bffffffffffffffffffffffff60a01b895416178855600198898901556002880155600387015560048601555190811161073857600160401b8111610738578784019182548284558083106106e1575b50916000528087600020981c9160005b83811061067b5750601f1982169091039081610608575b505050506006019060ff19825416179055604051908152f35b906000936000905b82821061062f57505050506006939495960155849392918680806105ef565b9091929485519060048210156106665761065b8992858d939060ff809160031b9316831b921b19161790565b960193920190610610565b82634e487b7160e01b60005260216004526000fd5b86906000805b8b81106106935750818c0155016105d8565b9380929350519060048210156106cc576106bf8a92868e939060ff809160031b9316831b921b19161790565b9201930190889291610681565b87634e487b7160e01b60005260216004526000fd5b6107119084600052601f8a600020918c8c8388169182610717575b505050018b1c810190601f85018c1c016123d6565b896105c8565b6000198091868b01901c870101928354920360031b1c1690558d8c8e6106fc565b82634e487b7160e01b60005260416004526000fd5b50610352811115610551565b5061016d871115610539565b50611388841115610523565b50600c5484111561050e565b813560048110156101ca5781529087019087016104de565b346101ca5760403660031901126101ca576107ae61221b565b6001600160a01b03166000908152600660205260409020805460243591908210156101ca576020916107df91612285565b90546040519160031b1c8152f35b346101ca5760203660031901126101ca576004356000526002602052604060002061087981549160018060a01b038060018301541660c05280600283015416906003830154166004830154600584015460068501546007860154600887015491600988015493600a89015495600b8a015497600c8b01549960405160a0526000600d8d01549d8e6122ee565b9d8e60a05152600181169081600014610a0757509d9e9d6001146109ad575b8c9d9e5060a0518091036108ab91612231565b600e8c015460e052600f8c015460ff169d60108d01549c601101549d6012015461010052604051806080525260c0516080516020015260805160400152608051606001526080516080015260805160a0015260805160c0015260805160e0015260805161010001526080516101200152608051610140015260805161016001526080516101800160ff821690610940916122b3565b60081c60ff16600481101561044e576101a06080510152610972610280806101c060805101526080510160a051612328565b9260e0516101e06080510152151561020060805101526102206080510152610240608051015261010051610260608051015260805180910390f35b50600d8c016000528d6020600020906000610120525b61012051106109e257506101205160a0519d9e508e9d01602001610898565b806001915460206101205160a051010152019d60206101205101610120529d8e6109c3565b8e9f91506020925060ff19168260a0510152151560051b60a05101018e9d50610898565b346101ca576020806003193601126101ca576004359081151580610c73575b610a539061291e565b8160005260028152604060002090600282019060018060a01b039283835416918233148015610c63575b8015610c56575b15610c2157600c82019182549360ff851693600685101561044e57610aac6003809614612b50565b600b83015462093a8081018091116103ae57421115610be457916001918893600560ff19809916179055600e82015480610bce575b505001948186541660005283835283604060002001610b008154612b8e565b9055818654166000528383526005604060002001610b1e8154612876565b905554166000526004815281604060002001610b3a8154612b8e565b90558484541660005281815260406000208054908160321015600014610bbc5761012c9150555b84845416600052526040600020600260058201541015610ba8575b50505416907f13b88e6866f0156d706fecfa22b678de5fc2b749c1d2307f6f47eb541385f1ec600080a3005b600760019101918254161790558380610b7c565b60311982019182116103ae5755610b61565b610bdd91858885015416612711565b8980610ae1565b60405162461bcd60e51b815260048101859052601560248201527423b930b1b2903832b934b7b2103737ba1037bb32b960591b6044820152606490fd5b6064906040519062461bcd60e51b82526004820152600e60248201526d139bdd08185d5d1a1bdc9a5e995960921b6044820152fd5b5084601054163314610a84565b508460015460081c163314610a7d565b506008548210610a4a565b346101ca576020806003193601126101ca5760043590610c9c612485565b81151580611067575b610cae9061291e565b8160005260028082526040600020600181019260018060a01b0393610cd7858254163314612960565b60ff600c8401541692600684101561044e57610cf66003809514612b50565b6008810180549160098101928354111561102957600781015493600b82018054804211610fdc575b5087830192610d34878c865416309033906124db565b610d4d610d4760048301548854906128fe565b88612761565b906103e8918281029281840414901517156103ae578b94888c8b610da789610d7c612710601199048096612761565b938701541692836000526004835260086040600020018b875416938460005252604060002054612704565b9160005260048d526008604060002001906000528c526040600020558681610fc3575b505050610dd78654612876565b865501610de5878254612704565b9055610df58154600e5490612704565b9055541680600052858552610e11848860406000200154612704565b90600052858552866040600020015554916040519081528284820152877f0a286c61061a6ef637f0a9d98b2c8ce3e7b6c3fe924e23abd5fcb5e01102014260403393a3541115610e62576001600055005b8460005282815283604060002093600c8501600460ff19825416179055600e8501878154858582610f73575b505050505060018501948286541660005284845284604060002001610eb38154612b8e565b9055828654166000528484526004604060002001610ed18154612876565b905501818154166000526004835283604060002001610ef08154612b8e565b90555416600052600481526004604060002001610f0d8154612876565b905583835416600052526040600020805490600a82018092116103ae57818155610352809211610f6b575b50505416907e457d766f297eed4eb3ea8556a72f1864e07885b3bb2b5d2deb36c9a128f18c600080a38080808080610398565b558380610f38565b7f757b323b5139c5e30fe0a1c4b13e38dece5aad9273138c1e3d1ed9191c6e73b292610fae828b8d0154169160018d01928484541690612711565b54169354604051908152a38787818585610e8e565b610fd492541687600f541690612711565b8d8086610dca565b61016d61271061100862015180610ff66110119542612761565b04611003600b548c6123c3565b6123c3565b04048097612704565b9561102160128501918254612704565b90558b610d1e565b60405162461bcd60e51b8152600481018690526016602482015275131bd85b88185b1c9958591e4818dbdb5c1b195d195960521b6044820152606490fd5b506008548210610ca5565b346101ca5760403660031901126101ca5761108b61221b565b602435611096612485565b33600052602091600483526110b260ff604060002054166123ed565b6110bd821515612439565b336000526004835260086040600020019060018060a01b031690816000528352816040600020541061113657610398923360005260048152600860406000200182600052815261111283604060002054612761565b90336000526004815260086040600020019083600052526040600020553390612711565b60405162461bcd60e51b8152600481018490526012602482015271496e73756666696369656e742066756e647360701b6044820152606490fd5b346101ca5760203660031901126101ca576001600160a01b0361119161221b565b16600052600360205261010060406000208054906001810154906002810154600382015460048301549060058401549260ff600760068701549601541695604051978852602088015260408701526060860152608085015260a084015260c0830152151560e0820152f35b346101ca5760003660031901126101ca57600f546040516001600160a01b039091168152602090f35b346101ca5760403660031901126101ca5761123e61221b565b6112ab6024359161124d612485565b33600052600460205261126760ff604060002054166123ed565b611272831515612439565b6001600160a01b031691611288813033866124db565b336000526004602052600860406000200183600052602052604060002054612704565b903360005260046020526008604060002001906000526020526040600020556001600055600080f35b346101ca5760003660031901126101ca5760015460405160089190911c6001600160a01b03168152602090f35b346101ca5760403660031901126101ca57600435602480359067ffffffffffffffff8083116101ca57366023840112156101ca578260040135611343816122d6565b906113516040519283612231565b80825260209485830185819360051b830101913683116101ca578601905b8282106114e257505050336000526004855260ff604060002054166114a957851561146557336000526004855260406000209360076001958660ff19825416178155888782015501925193841161145157600160401b841161145157508154838355808410611434575b50906000528360002060005b83811061141a57867fa0f40b7c0f5a214073b91ac846bcc605c7c35a8fb4c4ea5399cc16746d527c67876040519283523392a2005b82516001600160a01b0316828201559185019184016113e5565b61144b9083600052848760002091820191016123d6565b866113d9565b634e487b7160e01b60009081526041600452fd5b60405162461bcd60e51b8152600481018690526018818601527f496e76616c69642066756e64696e6720636170616369747900000000000000006044820152606490fd5b60405162461bcd60e51b81526004810186905260128186015271105b1c9958591e481c9959da5cdd195c995960721b6044820152606490fd5b81356001600160a01b03811681036101ca57815290870190870161136f565b346101ca5760003660031901126101ca576020600854604051908152f35b346101ca5760203660031901126101ca57600435801515806115c3575b6115459061291e565b806000526002602052604060002060018060a01b03600282015416330361158d57600c015460ff1690600682101561044e57611586600161158b931461299f565b6129df565b005b60405162461bcd60e51b815260206004820152600e60248201526d2737ba103a3432903632b73232b960911b6044820152606490fd5b50600854811061153c565b346101ca5760003660031901126101ca576115e7612368565b6115ef6128ba565b600160ff19815416176001557f62e78cea01bee320cd4e420270b5ea74000d11b0c9f74754ebdbfc544b05a2586020604051338152a1005b346101ca5760003660031901126101ca576010546040516001600160a01b039091168152602090f35b346101ca5761165e366122c0565b908015158061185a575b6116719061291e565b336000526020916004835261168d60ff604060002054166123ed565b81600052600283526040600020600c81019081549160ff8316600681101561044e576118155783151580611809575b6116c5906127b0565b3360005260048652600860406000200160018060a01b03600384015416600052865260406000205490600483019384548093106117c4576002840180546001600160a01b031916331790556005840186905560ff1916600117905560079061175c906117519061271061016d61174961173e8a856123c3565b6006890154906123c3565b040490612704565b6009840154906128fe565b9101553360005260078452611775836040600020612885565b3360005260048452600360406000200161178f8154612876565b905554926040519384528301527fb2c6de76341d4f1188da5458fd8729cbc0e9278f99e8992f40f36900bcef78cb60403393a3005b60405162461bcd60e51b815260048101899052601960248201527f496e73756666696369656e74206c656e6465722066756e6473000000000000006044820152606490fd5b506113888411156116bc565b60405162461bcd60e51b815260048101879052601c60248201527f4c6f616e206e6f7420696e2072657175657374656420737461747573000000006044820152606490fd5b506008548110611668565b346101ca5760003660031901126101ca576020600d54604051908152f35b346101ca5760003660031901126101ca576020600c54604051908152f35b346101ca5760803660031901126101ca576024356004356118c0612368565b6103e88111611923576107d082116118e657600a55600b55604435600c55606435600d55005b60405162461bcd60e51b81526020600482015260156024820152740a0cadcc2d8e8f240e4c2e8ca40e8dede40d0d2ced605b1b6044820152606490fd5b60405162461bcd60e51b81526020600482015260156024820152740a0d8c2e8ccdee4da40cccaca40e8dede40d0d2ced605b1b6044820152606490fd5b346101ca5760003660031901126101ca57611979612368565b60018054610100600160a81b0319811690915560009060081c6001600160a01b03167f8be0079c531659141344cd1fd0a4f28419497f9722a3daafe3b4186f6b6457e08280a3005b346101ca5760203660031901126101ca576001600160a01b036119e261221b565b16600052600360205260e060406000208054906001810154906002810154600382015460048301549160ff600760058601549501541694604051968752602087015260408601526060850152608084015260a0830152151560c0820152f35b346101ca5760203660031901126101ca5760043580151580611af0575b611a679061291e565b6000526002602052610120604060002060018060a01b0390611ae8826001830154169260028301541691600481015460058201546007830154600884015491600985015493600b60ff600c8801541696015497604051998a5260208a015260408901526060880152608087015260a086015260c085015260e08401906122b3565b610100820152f35b506008548110611a5e565b346101ca5760403660031901126101ca57611b1461221b565b601054602435916001600160a01b039182163303611b615761012c83101580611b55575b611b4190612833565b166000526003602052604060002055600080f35b50610352831115611b38565b60405162461bcd60e51b81526020600482015260126024820152714f6e6c7920637265646974206f7261636c6560701b6044820152606490fd5b346101ca5760003660031901126101ca576020600954604051908152f35b346101ca5760003660031901126101ca57602060ff600154166040519015158152f35b346101ca5760403660031901126101ca57611bf561221b565b6001600160a01b0360243581811692908390036101ca571660005260046020526008604060002001906000526020526020604060002054604051908152f35b346101ca5760003660031901126101ca57611c4d612368565b60015460ff811615611c8c5760ff19166001557f5db9ee0a495bf2e6ff9c91a7834c1ba4fdd244a5e8aa4e537bd38aeae4b073aa6020604051338152a1005b60405162461bcd60e51b815260206004820152601460248201527314185d5cd8589b194e881b9bdd081c185d5cd95960621b6044820152606490fd5b346101ca5760403660031901126101ca57611ce161221b565b6001600160a01b03166000908152600760205260409020805460243591908210156101ca576020916107df91612285565b346101ca5760203660031901126101ca57600435600052600560205260c0604060002060018060a01b0381541690600181015490600281015460038201549060ff6006600485015494015416936040519586526020860152604085015260608401526080830152151560a0820152f35b346101ca5760203660031901126101ca576001600160a01b03611da361221b565b16600052600460205260e0604060002060ff815416906001810154906002810154600382015460048301549160066005850154940154946040519615158752602087015260408601526060850152608084015260a083015260c0820152f35b346101ca5760003660031901126101ca576020600a54604051908152f35b346101ca5760c03660031901126101ca57611e3961221b565b602490813560443560643560048110156101ca576084359367ffffffffffffffff8086116101ca57366023870112156101ca57856004013595611e7b87612269565b96611e896040519889612231565b808852368982840101116101ca5788918160009260209b8c9301838c01378901015260a435908115158092036101ca57611ec16128ba565b8615928315806121f4575b611ed59061276e565b861515806121e8575b611ee7906127f4565b3360005260038a5260ff600760406000200154166121ad573360005260038a52604060002054600d54116121725760085498611f228a612876565b600855601e8804946001860180961161215d576103e890818b02918b830414171561215d5785611f59612710611f5e93048c612704565b6128fe565b968a60005260028c526040600020968b8855600188016bffffffffffffffffffffffff60a01b903382825416179055600389019160018060a01b031690825416179055896004880155886006880155600c87019061ff0082549160081b169061ffff1916179055600d86019281519283116114515750611fde83546122ee565b8b601f8211612121575b50508a90601f83116001146120b3576007969594939291600091836120a8575b50508160011b916000199060031b1c19161790555b600f83019060ff80198354169116179055600d546010830155600982015501553360005260068452612053836040600020612885565b3360005260038452600360406000200161206d8154612876565b905560405191825283820152817f68595dbe887ae7f496f2c88735019a8918919a1decfdee6bdb460480ab87decb60403393a3604051908152f35b015190508c80612008565b60008481528c8120929190601f198516908e5b82821061210957505091600193918560079a9998979694106120f0575b505050811b01905561201d565b015160001960f88460031b161c191690558c80806120e3565b806001869782949787015181550196019401906120c6565b61214c91856000528160002090601f860160051c8201928610612153575b601f0160051c01906123d6565b8b8b611fe8565b909150819061213f565b83634e487b7160e01b60005260116004526000fd5b60405162461bcd60e51b8152600481018b9052601481840152734372656469742073636f726520746f6f206c6f7760601b6044820152606490fd5b60405162461bcd60e51b8152600481018b905260148184015273109bdc9c9bddd95c88189b1858dadb1a5cdd195960621b6044820152606490fd5b5061016d871115611ede565b50600c54881115611ecc565b346101ca5760003660031901126101ca57602090600e548152f35b600435906001600160a01b03821682036101ca57565b90601f8019910116810190811067ffffffffffffffff82111761225357604052565b634e487b7160e01b600052604160045260246000fd5b67ffffffffffffffff811161225357601f01601f191660200190565b805482101561229d5760005260206000200190600090565b634e487b7160e01b600052603260045260246000fd5b90600682101561044e5752565b60409060031901126101ca576004359060243590565b67ffffffffffffffff81116122535760051b60200190565b90600182811c9216801561231e575b602083101461230857565b634e487b7160e01b600052602260045260246000fd5b91607f16916122fd565b919082519283825260005b848110612354575050826000602080949584010152601f8019910116010190565b602081830181015184830182015201612333565b60015460081c6001600160a01b0316330361237f57565b606460405162461bcd60e51b815260206004820152602060248201527f4f776e61626c653a2063616c6c6572206973206e6f7420746865206f776e65726044820152fd5b818102929181159184041417156103ae57565b8181106123e1575050565b600081556001016123d6565b156123f457565b60405162461bcd60e51b815260206004820152601760248201527f4e6f7420612072656769737465726564206c656e6465720000000000000000006044820152606490fd5b1561244057565b60405162461bcd60e51b815260206004820152601d60248201527f416d6f756e74206d7573742062652067726561746572207468616e20300000006044820152606490fd5b600260005414612496576002600055565b60405162461bcd60e51b815260206004820152601f60248201527f5265656e7472616e637947756172643a207265656e7472616e742063616c6c006044820152606490fd5b6040516323b872dd60e01b60208201526001600160a01b03928316602482015292909116604483015260648083019390935291815260a081019181831067ffffffffffffffff8411176122535761253492604052612536565b565b60018060a01b031690604051604081019080821067ffffffffffffffff831117612253576125c6916040526020938482527f5361666545524332303a206c6f772d6c6576656c2063616c6c206661696c6564858301526000808587829751910182855af13d15612663573d916125ab83612269565b926125b96040519485612231565b83523d868885013e612667565b805191821591848315612638575b5050509050156125e15750565b6084906040519062461bcd60e51b82526004820152602a60248201527f5361666545524332303a204552433230206f7065726174696f6e20646964206e6044820152691bdd081cdd58d8d9595960b21b6064820152fd5b91938180945001031261265f5782015190811515820361265c5750803880846125d4565b80fd5b5080fd5b6060915b919290156126c9575081511561267b575090565b3b156126845790565b60405162461bcd60e51b815260206004820152601d60248201527f416464726573733a2063616c6c20746f206e6f6e2d636f6e74726163740000006044820152606490fd5b8251909150156126dc5750805190602001fd5b60405162461bcd60e51b815260206004820152908190612700906024830190612328565b0390fd5b919082018092116103ae57565b60405163a9059cbb60e01b60208201526001600160a01b039092166024830152604480830193909352918152608081019167ffffffffffffffff8311828410176122535761253492604052612536565b919082039182116103ae57565b1561277557565b60405162461bcd60e51b8152602060048201526013602482015272125b9d985b1a59081b1bd85b88185b5bdd5b9d606a1b6044820152606490fd5b156127b757565b60405162461bcd60e51b8152602060048201526015602482015274496e76616c696420696e746572657374207261746560581b6044820152606490fd5b156127fb57565b60405162461bcd60e51b815260206004820152601060248201526f24b73b30b634b210323ab930ba34b7b760811b6044820152606490fd5b1561283a57565b60405162461bcd60e51b8152602060048201526014602482015273496e76616c6964206372656469742073636f726560601b6044820152606490fd5b60001981146103ae5760010190565b8054600160401b811015612253576128a291600182018155612285565b819291549060031b91821b91600019901b1916179055565b60ff600154166128c657565b60405162461bcd60e51b815260206004820152601060248201526f14185d5cd8589b194e881c185d5cd95960821b6044820152606490fd5b8115612908570490565b634e487b7160e01b600052601260045260246000fd5b1561292557565b60405162461bcd60e51b8152602060048201526013602482015272131bd85b88191bd95cc81b9bdd08195e1a5cdd606a1b6044820152606490fd5b1561296757565b60405162461bcd60e51b815260206004820152601060248201526f2737ba103a3432903137b93937bbb2b960811b6044820152606490fd5b156129a657565b60405162461bcd60e51b8152602060048201526011602482015270131bd85b881b9bdd08185c1c1c9bdd9959607a1b6044820152606490fd5b7fea9cce54fc29194e0a726c8d4d5462633f965462664714b80ce5c52d3f94b96060008281526020906002825260408260028280852094612b2683870160018060a01b03908180825416998a8652600489526008878720019a600382019b838d5416908189528b526004898920549b612a5d8286019d8e5490612761565b938a52526008898920019088528d5287872055885490612a8d612710612a85600a54856123c3565b048093612761565b9b8c92612aa7858354169460018501958787541690612711565b8481612b37575b505050600c8101600360ff1982541617905542600a820155600b612ad4600e5442612704565b9101558181541680875260038d52612af4600189892001548b5490612704565b90875260038d526001888820015554168452426006868620015554169485835260048952848484200154905490612704565b9381526004875220015551908152a2565b612b4892541685600f541690612711565b388084612aae565b15612b5757565b60405162461bcd60e51b815260206004820152600f60248201526e4c6f616e206e6f742061637469766560881b6044820152606490fd5b80156103ae57600019019056fea2646970667358221220c90e712386350ac1063f85f595eb1970c4000841ebf96f840eafe11de386a3b564736f6c63430008130033","opcodes":"PUSH1 0x80 CALLVALUE PUSH3 0x11C JUMPI PUSH1 0x1F PUSH3 0x2D1E CODESIZE DUP2 SWAP1 SUB SWAP2 DUP3 ADD PUSH1 0x1F NOT AND DUP4 ADD SWAP2 PUSH1 0x1 PUSH1 0x1 PUSH1 0x40 SHL SUB DUP4 GT DUP5 DUP5 LT OR PUSH3 0x121 JUMPI DUP1 DUP5 SWAP3 PUSH1 0x40 SWAP5 DUP6 MSTORE DUP4 CODECOPY DUP2 ADD SUB SLT PUSH3 0x11C JUMPI PUSH3 0x5A PUSH1 0x20 PUSH3 0x52 DUP4 PUSH3 0x137 JUMP JUMPDEST SWAP3 ADD PUSH3 0x137 JUMP JUMPDEST PUSH1 0x1 PUSH1 0x0 DUP2 DUP2 SSTORE DUP2 SLOAD PUSH1 0x1 PUSH1 0x1 PUSH1 0xA8 SHL SUB NOT DUP2 AND CALLER PUSH1 0x8 DUP2 DUP2 SHL PUSH2 0x100 PUSH1 0x1 PUSH1 0xA8 SHL SUB AND SWAP3 SWAP1 SWAP3 OR SWAP1 SWAP5 SSTORE PUSH1 0x40 MLOAD SWAP6 SWAP5 PUSH1 0x1 PUSH1 0x1 PUSH1 0xA0 SHL SUB SWAP5 SWAP1 SWAP4 SWAP1 SWAP3 SWAP1 SWAP2 SHR DUP5 AND SWAP1 PUSH32 0x8BE0079C531659141344CD1FD0A4F28419497F9722A3DAAFE3B4186F6B6457E0 SWAP1 DUP1 LOG3 PUSH1 0x1 PUSH1 0x8 SSTORE PUSH1 0x1 PUSH1 0x9 SSTORE PUSH1 0xC8 PUSH1 0xA SSTORE PUSH2 0x1F4 PUSH1 0xB SSTORE PUSH10 0xA968163F0A57B400000 PUSH1 0xC SSTORE PUSH2 0x190 PUSH1 0xD SSTORE PUSH3 0x278D00 PUSH1 0xE SSTORE DUP2 PUSH1 0x1 DUP1 PUSH1 0xA0 SHL SUB NOT SWAP4 AND DUP4 PUSH1 0xF SLOAD AND OR PUSH1 0xF SSTORE AND SWAP1 PUSH1 0x10 SLOAD AND OR PUSH1 0x10 SSTORE PUSH2 0x2BD1 SWAP1 DUP2 PUSH3 0x14D DUP3 CODECOPY RETURN JUMPDEST PUSH1 0x0 DUP1 REVERT JUMPDEST PUSH4 0x4E487B71 PUSH1 0xE0 SHL PUSH1 0x0 MSTORE PUSH1 0x41 PUSH1 0x4 MSTORE PUSH1 0x24 PUSH1 0x0 REVERT JUMPDEST MLOAD SWAP1 PUSH1 0x1 PUSH1 0x1 PUSH1 0xA0 SHL SUB DUP3 AND DUP3 SUB PUSH3 0x11C JUMPI JUMP INVALID PUSH2 0x140 DUP1 PUSH1 0x40 MSTORE PUSH1 0x4 CALLDATASIZE LT ISZERO PUSH2 0x14 JUMPI PUSH1 0x0 DUP1 REVERT JUMPDEST PUSH1 0x0 CALLDATALOAD PUSH1 0xE0 SHR SWAP1 DUP2 PUSH4 0x3EEBEC4 EQ PUSH2 0x2200 JUMPI POP DUP1 PUSH4 0x23CDC1E9 EQ PUSH2 0x1E20 JUMPI DUP1 PUSH4 0x26232A2E EQ PUSH2 0x1E02 JUMPI DUP1 PUSH4 0x28FD10D7 EQ PUSH2 0x1D82 JUMPI DUP1 PUSH4 0x2C7BDD4B EQ PUSH2 0x1D12 JUMPI DUP1 PUSH4 0x3CDB72F1 EQ PUSH2 0x1CC8 JUMPI DUP1 PUSH4 0x3F4BA83A EQ PUSH2 0x1C34 JUMPI DUP1 PUSH4 0x53E26173 EQ PUSH2 0x1BDC JUMPI DUP1 PUSH4 0x5C975ABB EQ PUSH2 0x1BB9 JUMPI DUP1 PUSH4 0x5F5D0655 EQ PUSH2 0x1B9B JUMPI DUP1 PUSH4 0x65352F9D EQ PUSH2 0x1AFB JUMPI DUP1 PUSH4 0x66877B8D EQ PUSH2 0x1A41 JUMPI DUP1 PUSH4 0x6F653E3A EQ PUSH2 0x19C1 JUMPI DUP1 PUSH4 0x715018A6 EQ PUSH2 0x1960 JUMPI DUP1 PUSH4 0x715D4800 EQ PUSH2 0x18A1 JUMPI DUP1 PUSH4 0x72F94365 EQ PUSH2 0x1883 JUMPI DUP1 PUSH4 0x76F79B10 EQ PUSH2 0x1865 JUMPI DUP1 PUSH4 0x7A646492 EQ PUSH2 0x1650 JUMPI DUP1 PUSH4 0x7DEB256F EQ PUSH2 0x1627 JUMPI DUP1 PUSH4 0x8456CB59 EQ PUSH2 0x15CE JUMPI DUP1 PUSH4 0x846B909A EQ PUSH2 0x151F JUMPI DUP1 PUSH4 0x87C51459 EQ PUSH2 0x1501 JUMPI DUP1 PUSH4 0x881805BE EQ PUSH2 0x1301 JUMPI DUP1 PUSH4 0x8DA5CB5B EQ PUSH2 0x12D4 JUMPI DUP1 PUSH4 0x921B004B EQ PUSH2 0x1225 JUMPI DUP1 PUSH4 0xB3F00674 EQ PUSH2 0x11FC JUMPI DUP1 PUSH4 0xBF5D50C4 EQ PUSH2 0x1170 JUMPI DUP1 PUSH4 0xC1075329 EQ PUSH2 0x1072 JUMPI DUP1 PUSH4 0xD37415FE EQ PUSH2 0xC7E JUMPI DUP1 PUSH4 0xD92D7D77 EQ PUSH2 0xA2B JUMPI DUP1 PUSH4 0xE1EC3C68 EQ PUSH2 0x7ED JUMPI DUP1 PUSH4 0xE3ED1902 EQ PUSH2 0x795 JUMPI DUP1 PUSH4 0xE57330DF EQ PUSH2 0x46F JUMPI DUP1 PUSH4 0xECE13732 EQ PUSH2 0x2A3 JUMPI DUP1 PUSH4 0xF2FDE38B EQ PUSH2 0x1CF JUMPI PUSH4 0xFF3C475B EQ PUSH2 0x1AC JUMPI PUSH1 0x0 DUP1 REVERT JUMPDEST CALLVALUE PUSH2 0x1CA JUMPI PUSH1 0x0 CALLDATASIZE PUSH1 0x3 NOT ADD SLT PUSH2 0x1CA JUMPI PUSH1 0x20 PUSH1 0xB SLOAD PUSH1 0x40 MLOAD SWAP1 DUP2 MSTORE RETURN JUMPDEST PUSH1 0x0 DUP1 REVERT JUMPDEST CALLVALUE PUSH2 0x1CA JUMPI PUSH1 0x20 CALLDATASIZE PUSH1 0x3 NOT ADD SLT PUSH2 0x1CA JUMPI PUSH2 0x1E8 PUSH2 0x221B JUMP JUMPDEST PUSH2 0x1F0 PUSH2 0x2368 JUMP JUMPDEST PUSH1 0x1 PUSH1 0x1 PUSH1 0xA0 SHL SUB DUP2 DUP2 AND SWAP2 DUP3 ISZERO PUSH2 0x24F JUMPI PUSH1 0x1 DUP1 SLOAD PUSH2 0x100 PUSH1 0x1 PUSH1 0xA8 SHL SUB NOT DUP2 AND PUSH1 0x8 SWAP4 DUP5 SHL PUSH2 0x100 PUSH1 0x1 PUSH1 0xA8 SHL SUB AND OR SWAP1 SWAP2 SSTORE SWAP1 SHR AND PUSH32 0x8BE0079C531659141344CD1FD0A4F28419497F9722A3DAAFE3B4186F6B6457E0 PUSH1 0x0 DUP1 LOG3 STOP JUMPDEST PUSH1 0x40 MLOAD PUSH3 0x461BCD PUSH1 0xE5 SHL DUP2 MSTORE PUSH1 0x20 PUSH1 0x4 DUP3 ADD MSTORE PUSH1 0x26 PUSH1 0x24 DUP3 ADD MSTORE PUSH32 0x4F776E61626C653A206E6577206F776E657220697320746865207A65726F2061 PUSH1 0x44 DUP3 ADD MSTORE PUSH6 0x646472657373 PUSH1 0xD0 SHL PUSH1 0x64 DUP3 ADD MSTORE PUSH1 0x84 SWAP1 REVERT JUMPDEST CALLVALUE PUSH2 0x1CA JUMPI PUSH2 0x2B1 CALLDATASIZE PUSH2 0x22C0 JUMP JUMPDEST PUSH2 0x2B9 PUSH2 0x2485 JUMP JUMPDEST DUP2 ISZERO ISZERO DUP1 PUSH2 0x464 JUMPI JUMPDEST PUSH2 0x2CB SWAP1 PUSH2 0x291E JUMP JUMPDEST DUP2 PUSH1 0x0 MSTORE PUSH1 0x2 PUSH1 0x20 MSTORE PUSH1 0x40 PUSH1 0x0 KECCAK256 PUSH1 0x1 DUP1 PUSH1 0xA0 SHL SUB SWAP1 PUSH2 0x2F2 DUP3 PUSH1 0x1 DUP4 ADD SLOAD AND CALLER EQ PUSH2 0x2960 JUMP JUMPDEST PUSH1 0xFF PUSH1 0xC DUP3 ADD SLOAD AND PUSH1 0x6 DUP2 LT ISZERO PUSH2 0x44E JUMPI PUSH1 0x1 PUSH2 0x30F SWAP2 EQ PUSH2 0x299F JUMP JUMPDEST PUSH1 0xFF PUSH1 0xF DUP3 ADD SLOAD AND ISZERO PUSH2 0x409 JUMPI DUP3 ISZERO PUSH2 0x3C4 JUMPI PUSH2 0x338 DUP4 PUSH1 0x4 SWAP4 PUSH1 0x3 DUP5 ADD SLOAD AND ADDRESS SWAP1 CALLER SWAP1 PUSH2 0x24DB JUMP JUMPDEST PUSH1 0xE DUP2 ADD SWAP3 PUSH2 0x348 DUP2 DUP6 SLOAD PUSH2 0x2704 JUMP JUMPDEST DUP1 SWAP5 SSTORE PUSH1 0x40 MLOAD SWAP1 DUP2 MSTORE DUP5 PUSH32 0xEEC2F3FEB835E2F2FD44281034B04700A1DDDA63DD402949D470A25A7C40B36C PUSH1 0x20 CALLER SWAP4 LOG3 ADD SLOAD PUSH1 0x78 DUP2 MUL SWAP1 DUP1 DUP3 DIV PUSH1 0x78 EQ SWAP1 ISZERO OR ISZERO PUSH2 0x3AE JUMPI PUSH1 0x64 SWAP1 DIV GT ISZERO PUSH2 0x39F JUMPI JUMPDEST PUSH1 0x1 PUSH1 0x0 SSTORE STOP JUMPDEST PUSH2 0x3A8 SWAP1 PUSH2 0x29DF JUMP JUMPDEST DUP1 PUSH2 0x398 JUMP JUMPDEST PUSH4 0x4E487B71 PUSH1 0xE0 SHL PUSH1 0x0 MSTORE PUSH1 0x11 PUSH1 0x4 MSTORE PUSH1 0x24 PUSH1 0x0 REVERT JUMPDEST PUSH1 0x40 MLOAD PUSH3 0x461BCD PUSH1 0xE5 SHL DUP2 MSTORE PUSH1 0x20 PUSH1 0x4 DUP3 ADD MSTORE PUSH1 0x19 PUSH1 0x24 DUP3 ADD MSTORE PUSH32 0x496E76616C696420636F6C6C61746572616C20616D6F756E7400000000000000 PUSH1 0x44 DUP3 ADD MSTORE PUSH1 0x64 SWAP1 REVERT JUMPDEST PUSH1 0x40 MLOAD PUSH3 0x461BCD PUSH1 0xE5 SHL DUP2 MSTORE PUSH1 0x20 PUSH1 0x4 DUP3 ADD MSTORE PUSH1 0x17 PUSH1 0x24 DUP3 ADD MSTORE PUSH32 0x436F6C6C61746572616C206E6F74207265717569726564000000000000000000 PUSH1 0x44 DUP3 ADD MSTORE PUSH1 0x64 SWAP1 REVERT JUMPDEST PUSH4 0x4E487B71 PUSH1 0xE0 SHL PUSH1 0x0 MSTORE PUSH1 0x21 PUSH1 0x4 MSTORE PUSH1 0x24 PUSH1 0x0 REVERT JUMPDEST POP PUSH1 0x8 SLOAD DUP3 LT PUSH2 0x2C2 JUMP JUMPDEST CALLVALUE PUSH2 0x1CA JUMPI PUSH1 0xA0 CALLDATASIZE PUSH1 0x3 NOT ADD SLT PUSH2 0x1CA JUMPI PUSH1 0x84 CALLDATALOAD PUSH8 0xFFFFFFFFFFFFFFFF DUP1 DUP3 GT PUSH2 0x1CA JUMPI CALLDATASIZE PUSH1 0x23 DUP4 ADD SLT ISZERO PUSH2 0x1CA JUMPI DUP2 PUSH1 0x4 ADD CALLDATALOAD SWAP2 PUSH2 0x4AD DUP4 PUSH2 0x22D6 JUMP JUMPDEST SWAP1 PUSH2 0x4BB PUSH1 0x40 MLOAD SWAP3 DUP4 PUSH2 0x2231 JUMP JUMPDEST DUP4 DUP3 MSTORE PUSH1 0x20 SWAP3 DUP4 DUP4 ADD DUP1 SWAP3 PUSH1 0x24 SWAP2 DUP3 PUSH1 0x5 SWAP9 DUP10 SHL DUP4 ADD ADD SWAP2 CALLDATASIZE DUP4 GT PUSH2 0x1CA JUMPI DUP4 ADD SWAP1 JUMPDEST DUP3 DUP3 LT PUSH2 0x77D JUMPI POP POP POP CALLER PUSH1 0x0 MSTORE PUSH1 0x4 DUP6 MSTORE PUSH2 0x501 PUSH1 0xFF PUSH1 0x40 PUSH1 0x0 KECCAK256 SLOAD AND PUSH2 0x23ED JUMP JUMPDEST PUSH1 0x4 CALLDATALOAD SWAP3 DUP4 ISZERO ISZERO DUP1 PUSH2 0x771 JUMPI JUMPDEST PUSH2 0x517 SWAP1 PUSH2 0x276E JUMP JUMPDEST DUP2 CALLDATALOAD SWAP3 DUP4 ISZERO ISZERO DUP1 PUSH2 0x765 JUMPI JUMPDEST PUSH2 0x52C SWAP1 PUSH2 0x27B0 JUMP JUMPDEST PUSH1 0x44 CALLDATALOAD SWAP6 DUP7 ISZERO ISZERO DUP1 PUSH2 0x759 JUMPI JUMPDEST PUSH2 0x542 SWAP1 PUSH2 0x27F4 JUMP JUMPDEST PUSH1 0x64 CALLDATALOAD PUSH2 0x12C DUP2 LT ISZERO DUP1 PUSH2 0x74D JUMPI JUMPDEST PUSH2 0x55A SWAP1 PUSH2 0x2833 JUMP JUMPDEST PUSH1 0x9 SLOAD SWAP8 PUSH2 0x567 DUP10 PUSH2 0x2876 JUMP JUMPDEST PUSH1 0x9 SSTORE DUP9 PUSH1 0x0 MSTORE DUP11 DUP11 MSTORE PUSH1 0x40 PUSH1 0x0 KECCAK256 SWAP7 CALLER PUSH12 0xFFFFFFFFFFFFFFFFFFFFFFFF PUSH1 0xA0 SHL DUP10 SLOAD AND OR DUP9 SSTORE PUSH1 0x1 SWAP9 DUP10 DUP10 ADD SSTORE PUSH1 0x2 DUP9 ADD SSTORE PUSH1 0x3 DUP8 ADD SSTORE PUSH1 0x4 DUP7 ADD SSTORE MLOAD SWAP1 DUP2 GT PUSH2 0x738 JUMPI PUSH1 0x1 PUSH1 0x40 SHL DUP2 GT PUSH2 0x738 JUMPI DUP8 DUP5 ADD SWAP2 DUP3 SLOAD DUP3 DUP5 SSTORE DUP1 DUP4 LT PUSH2 0x6E1 JUMPI JUMPDEST POP SWAP2 PUSH1 0x0 MSTORE DUP1 DUP8 PUSH1 0x0 KECCAK256 SWAP9 SHR SWAP2 PUSH1 0x0 JUMPDEST DUP4 DUP2 LT PUSH2 0x67B JUMPI POP PUSH1 0x1F NOT DUP3 AND SWAP1 SWAP2 SUB SWAP1 DUP2 PUSH2 0x608 JUMPI JUMPDEST POP POP POP POP PUSH1 0x6 ADD SWAP1 PUSH1 0xFF NOT DUP3 SLOAD AND OR SWAP1 SSTORE PUSH1 0x40 MLOAD SWAP1 DUP2 MSTORE RETURN JUMPDEST SWAP1 PUSH1 0x0 SWAP4 PUSH1 0x0 SWAP1 JUMPDEST DUP3 DUP3 LT PUSH2 0x62F JUMPI POP POP POP POP PUSH1 0x6 SWAP4 SWAP5 SWAP6 SWAP7 ADD SSTORE DUP5 SWAP4 SWAP3 SWAP2 DUP7 DUP1 DUP1 PUSH2 0x5EF JUMP JUMPDEST SWAP1 SWAP2 SWAP3 SWAP5 DUP6 MLOAD SWAP1 PUSH1 0x4 DUP3 LT ISZERO PUSH2 0x666 JUMPI PUSH2 0x65B DUP10 SWAP3 DUP6 DUP14 SWAP4 SWAP1 PUSH1 0xFF DUP1 SWAP2 PUSH1 0x3 SHL SWAP4 AND DUP4 SHL SWAP3 SHL NOT AND OR SWAP1 JUMP JUMPDEST SWAP7 ADD SWAP4 SWAP3 ADD SWAP1 PUSH2 0x610 JUMP JUMPDEST DUP3 PUSH4 0x4E487B71 PUSH1 0xE0 SHL PUSH1 0x0 MSTORE PUSH1 0x21 PUSH1 0x4 MSTORE PUSH1 0x0 REVERT JUMPDEST DUP7 SWAP1 PUSH1 0x0 DUP1 JUMPDEST DUP12 DUP2 LT PUSH2 0x693 JUMPI POP DUP2 DUP13 ADD SSTORE ADD PUSH2 0x5D8 JUMP JUMPDEST SWAP4 DUP1 SWAP3 SWAP4 POP MLOAD SWAP1 PUSH1 0x4 DUP3 LT ISZERO PUSH2 0x6CC JUMPI PUSH2 0x6BF DUP11 SWAP3 DUP7 DUP15 SWAP4 SWAP1 PUSH1 0xFF DUP1 SWAP2 PUSH1 0x3 SHL SWAP4 AND DUP4 SHL SWAP3 SHL NOT AND OR SWAP1 JUMP JUMPDEST SWAP3 ADD SWAP4 ADD SWAP1 DUP9 SWAP3 SWAP2 PUSH2 0x681 JUMP JUMPDEST DUP8 PUSH4 0x4E487B71 PUSH1 0xE0 SHL PUSH1 0x0 MSTORE PUSH1 0x21 PUSH1 0x4 MSTORE PUSH1 0x0 REVERT JUMPDEST PUSH2 0x711 SWAP1 DUP5 PUSH1 0x0 MSTORE PUSH1 0x1F DUP11 PUSH1 0x0 KECCAK256 SWAP2 DUP13 DUP13 DUP4 DUP9 AND SWAP2 DUP3 PUSH2 0x717 JUMPI JUMPDEST POP POP POP ADD DUP12 SHR DUP2 ADD SWAP1 PUSH1 0x1F DUP6 ADD DUP13 SHR ADD PUSH2 0x23D6 JUMP JUMPDEST DUP10 PUSH2 0x5C8 JUMP JUMPDEST PUSH1 0x0 NOT DUP1 SWAP2 DUP7 DUP12 ADD SWAP1 SHR DUP8 ADD ADD SWAP3 DUP4 SLOAD SWAP3 SUB PUSH1 0x3 SHL SHR AND SWAP1 SSTORE DUP14 DUP13 DUP15 PUSH2 0x6FC JUMP JUMPDEST DUP3 PUSH4 0x4E487B71 PUSH1 0xE0 SHL PUSH1 0x0 MSTORE PUSH1 0x41 PUSH1 0x4 MSTORE PUSH1 0x0 REVERT JUMPDEST POP PUSH2 0x352 DUP2 GT ISZERO PUSH2 0x551 JUMP JUMPDEST POP PUSH2 0x16D DUP8 GT ISZERO PUSH2 0x539 JUMP JUMPDEST POP PUSH2 0x1388 DUP5 GT ISZERO PUSH2 0x523 JUMP JUMPDEST POP PUSH1 0xC SLOAD DUP5 GT ISZERO PUSH2 0x50E JUMP JUMPDEST DUP2 CALLDATALOAD PUSH1 0x4 DUP2 LT ISZERO PUSH2 0x1CA JUMPI DUP2 MSTORE SWAP1 DUP8 ADD SWAP1 DUP8 ADD PUSH2 0x4DE JUMP JUMPDEST CALLVALUE PUSH2 0x1CA JUMPI PUSH1 0x40 CALLDATASIZE PUSH1 0x3 NOT ADD SLT PUSH2 0x1CA JUMPI PUSH2 0x7AE PUSH2 0x221B JUMP JUMPDEST PUSH1 0x1 PUSH1 0x1 PUSH1 0xA0 SHL SUB AND PUSH1 0x0 SWAP1 DUP2 MSTORE PUSH1 0x6 PUSH1 0x20 MSTORE PUSH1 0x40 SWAP1 KECCAK256 DUP1 SLOAD PUSH1 0x24 CALLDATALOAD SWAP2 SWAP1 DUP3 LT ISZERO PUSH2 0x1CA JUMPI PUSH1 0x20 SWAP2 PUSH2 0x7DF SWAP2 PUSH2 0x2285 JUMP JUMPDEST SWAP1 SLOAD PUSH1 0x40 MLOAD SWAP2 PUSH1 0x3 SHL SHR DUP2 MSTORE RETURN JUMPDEST CALLVALUE PUSH2 0x1CA JUMPI PUSH1 0x20 CALLDATASIZE PUSH1 0x3 NOT ADD SLT PUSH2 0x1CA JUMPI PUSH1 0x4 CALLDATALOAD PUSH1 0x0 MSTORE PUSH1 0x2 PUSH1 0x20 MSTORE PUSH1 0x40 PUSH1 0x0 KECCAK256 PUSH2 0x879 DUP2 SLOAD SWAP2 PUSH1 0x1 DUP1 PUSH1 0xA0 SHL SUB DUP1 PUSH1 0x1 DUP4 ADD SLOAD AND PUSH1 0xC0 MSTORE DUP1 PUSH1 0x2 DUP4 ADD SLOAD AND SWAP1 PUSH1 0x3 DUP4 ADD SLOAD AND PUSH1 0x4 DUP4 ADD SLOAD PUSH1 0x5 DUP5 ADD SLOAD PUSH1 0x6 DUP6 ADD SLOAD PUSH1 0x7 DUP7 ADD SLOAD PUSH1 0x8 DUP8 ADD SLOAD SWAP2 PUSH1 0x9 DUP9 ADD SLOAD SWAP4 PUSH1 0xA DUP10 ADD SLOAD SWAP6 PUSH1 0xB DUP11 ADD SLOAD SWAP8 PUSH1 0xC DUP12 ADD SLOAD SWAP10 PUSH1 0x40 MLOAD PUSH1 0xA0 MSTORE PUSH1 0x0 PUSH1 0xD DUP14 ADD SLOAD SWAP14 DUP15 PUSH2 0x22EE JUMP JUMPDEST SWAP14 DUP15 PUSH1 0xA0 MLOAD MSTORE PUSH1 0x1 DUP2 AND SWAP1 DUP2 PUSH1 0x0 EQ PUSH2 0xA07 JUMPI POP SWAP14 SWAP15 SWAP14 PUSH1 0x1 EQ PUSH2 0x9AD JUMPI JUMPDEST DUP13 SWAP14 SWAP15 POP PUSH1 0xA0 MLOAD DUP1 SWAP2 SUB PUSH2 0x8AB SWAP2 PUSH2 0x2231 JUMP JUMPDEST PUSH1 0xE DUP13 ADD SLOAD PUSH1 0xE0 MSTORE PUSH1 0xF DUP13 ADD SLOAD PUSH1 0xFF AND SWAP14 PUSH1 0x10 DUP14 ADD SLOAD SWAP13 PUSH1 0x11 ADD SLOAD SWAP14 PUSH1 0x12 ADD SLOAD PUSH2 0x100 MSTORE PUSH1 0x40 MLOAD DUP1 PUSH1 0x80 MSTORE MSTORE PUSH1 0xC0 MLOAD PUSH1 0x80 MLOAD PUSH1 0x20 ADD MSTORE PUSH1 0x80 MLOAD PUSH1 0x40 ADD MSTORE PUSH1 0x80 MLOAD PUSH1 0x60 ADD MSTORE PUSH1 0x80 MLOAD PUSH1 0x80 ADD MSTORE PUSH1 0x80 MLOAD PUSH1 0xA0 ADD MSTORE PUSH1 0x80 MLOAD PUSH1 0xC0 ADD MSTORE PUSH1 0x80 MLOAD PUSH1 0xE0 ADD MSTORE PUSH1 0x80 MLOAD PUSH2 0x100 ADD MSTORE PUSH1 0x80 MLOAD PUSH2 0x120 ADD MSTORE PUSH1 0x80 MLOAD PUSH2 0x140 ADD MSTORE PUSH1 0x80 MLOAD PUSH2 0x160 ADD MSTORE PUSH1 0x80 MLOAD PUSH2 0x180 ADD PUSH1 0xFF DUP3 AND SWAP1 PUSH2 0x940 SWAP2 PUSH2 0x22B3 JUMP JUMPDEST PUSH1 0x8 SHR PUSH1 0xFF AND PUSH1 0x4 DUP2 LT ISZERO PUSH2 0x44E JUMPI PUSH2 0x1A0 PUSH1 0x80 MLOAD ADD MSTORE PUSH2 0x972 PUSH2 0x280 DUP1 PUSH2 0x1C0 PUSH1 0x80 MLOAD ADD MSTORE PUSH1 0x80 MLOAD ADD PUSH1 0xA0 MLOAD PUSH2 0x2328 JUMP JUMPDEST SWAP3 PUSH1 0xE0 MLOAD PUSH2 0x1E0 PUSH1 0x80 MLOAD ADD MSTORE ISZERO ISZERO PUSH2 0x200 PUSH1 0x80 MLOAD ADD MSTORE PUSH2 0x220 PUSH1 0x80 MLOAD ADD MSTORE PUSH2 0x240 PUSH1 0x80 MLOAD ADD MSTORE PUSH2 0x100 MLOAD PUSH2 0x260 PUSH1 0x80 MLOAD ADD MSTORE PUSH1 0x80 MLOAD DUP1 SWAP2 SUB SWAP1 RETURN JUMPDEST POP PUSH1 0xD DUP13 ADD PUSH1 0x0 MSTORE DUP14 PUSH1 0x20 PUSH1 0x0 KECCAK256 SWAP1 PUSH1 0x0 PUSH2 0x120 MSTORE JUMPDEST PUSH2 0x120 MLOAD LT PUSH2 0x9E2 JUMPI POP PUSH2 0x120 MLOAD PUSH1 0xA0 MLOAD SWAP14 SWAP15 POP DUP15 SWAP14 ADD PUSH1 0x20 ADD PUSH2 0x898 JUMP JUMPDEST DUP1 PUSH1 0x1 SWAP2 SLOAD PUSH1 0x20 PUSH2 0x120 MLOAD PUSH1 0xA0 MLOAD ADD ADD MSTORE ADD SWAP14 PUSH1 0x20 PUSH2 0x120 MLOAD ADD PUSH2 0x120 MSTORE SWAP14 DUP15 PUSH2 0x9C3 JUMP JUMPDEST DUP15 SWAP16 SWAP2 POP PUSH1 0x20 SWAP3 POP PUSH1 0xFF NOT AND DUP3 PUSH1 0xA0 MLOAD ADD MSTORE ISZERO ISZERO PUSH1 0x5 SHL PUSH1 0xA0 MLOAD ADD ADD DUP15 SWAP14 POP PUSH2 0x898 JUMP JUMPDEST CALLVALUE PUSH2 0x1CA JUMPI PUSH1 0x20 DUP1 PUSH1 0x3 NOT CALLDATASIZE ADD SLT PUSH2 0x1CA JUMPI PUSH1 0x4 CALLDATALOAD SWAP1 DUP2 ISZERO ISZERO DUP1 PUSH2 0xC73 JUMPI JUMPDEST PUSH2 0xA53 SWAP1 PUSH2 0x291E JUMP JUMPDEST DUP2 PUSH1 0x0 MSTORE PUSH1 0x2 DUP2 MSTORE PUSH1 0x40 PUSH1 0x0 KECCAK256 SWAP1 PUSH1 0x2 DUP3 ADD SWAP1 PUSH1 0x1 DUP1 PUSH1 0xA0 SHL SUB SWAP3 DUP4 DUP4 SLOAD AND SWAP2 DUP3 CALLER EQ DUP1 ISZERO PUSH2 0xC63 JUMPI JUMPDEST DUP1 ISZERO PUSH2 0xC56 JUMPI JUMPDEST ISZERO PUSH2 0xC21 JUMPI PUSH1 0xC DUP3 ADD SWAP2 DUP3 SLOAD SWAP4 PUSH1 0xFF DUP6 AND SWAP4 PUSH1 0x6 DUP6 LT ISZERO PUSH2 0x44E JUMPI PUSH2 0xAAC PUSH1 0x3 DUP1 SWAP7 EQ PUSH2 0x2B50 JUMP JUMPDEST PUSH1 0xB DUP4 ADD SLOAD PUSH3 0x93A80 DUP2 ADD DUP1 SWAP2 GT PUSH2 0x3AE JUMPI TIMESTAMP GT ISZERO PUSH2 0xBE4 JUMPI SWAP2 PUSH1 0x1 SWAP2 DUP9 SWAP4 PUSH1 0x5 PUSH1 0xFF NOT DUP1 SWAP10 AND OR SWAP1 SSTORE PUSH1 0xE DUP3 ADD SLOAD DUP1 PUSH2 0xBCE JUMPI JUMPDEST POP POP ADD SWAP5 DUP2 DUP7 SLOAD AND PUSH1 0x0 MSTORE DUP4 DUP4 MSTORE DUP4 PUSH1 0x40 PUSH1 0x0 KECCAK256 ADD PUSH2 0xB00 DUP2 SLOAD PUSH2 0x2B8E JUMP JUMPDEST SWAP1 SSTORE DUP2 DUP7 SLOAD AND PUSH1 0x0 MSTORE DUP4 DUP4 MSTORE PUSH1 0x5 PUSH1 0x40 PUSH1 0x0 KECCAK256 ADD PUSH2 0xB1E DUP2 SLOAD PUSH2 0x2876 JUMP JUMPDEST SWAP1 SSTORE SLOAD AND PUSH1 0x0 MSTORE PUSH1 0x4 DUP2 MSTORE DUP2 PUSH1 0x40 PUSH1 0x0 KECCAK256 ADD PUSH2 0xB3A DUP2 SLOAD PUSH2 0x2B8E JUMP JUMPDEST SWAP1 SSTORE DUP5 DUP5 SLOAD AND PUSH1 0x0 MSTORE DUP2 DUP2 MSTORE PUSH1 0x40 PUSH1 0x0 KECCAK256 DUP1 SLOAD SWAP1 DUP2 PUSH1 0x32 LT ISZERO PUSH1 0x0 EQ PUSH2 0xBBC JUMPI PUSH2 0x12C SWAP2 POP SSTORE JUMPDEST DUP5 DUP5 SLOAD AND PUSH1 0x0 MSTORE MSTORE PUSH1 0x40 PUSH1 0x0 KECCAK256 PUSH1 0x2 PUSH1 0x5 DUP3 ADD SLOAD LT ISZERO PUSH2 0xBA8 JUMPI JUMPDEST POP POP SLOAD AND SWAP1 PUSH32 0x13B88E6866F0156D706FECFA22B678DE5FC2B749C1D2307F6F47EB541385F1EC PUSH1 0x0 DUP1 LOG3 STOP JUMPDEST PUSH1 0x7 PUSH1 0x1 SWAP2 ADD SWAP2 DUP3 SLOAD AND OR SWAP1 SSTORE DUP4 DUP1 PUSH2 0xB7C JUMP JUMPDEST PUSH1 0x31 NOT DUP3 ADD SWAP2 DUP3 GT PUSH2 0x3AE JUMPI SSTORE PUSH2 0xB61 JUMP JUMPDEST PUSH2 0xBDD SWAP2 DUP6 DUP9 DUP6 ADD SLOAD AND PUSH2 0x2711 JUMP JUMPDEST DUP10 DUP1 PUSH2 0xAE1 JUMP JUMPDEST PUSH1 0x40 MLOAD PUSH3 0x461BCD PUSH1 0xE5 SHL DUP2 MSTORE PUSH1 0x4 DUP2 ADD DUP6 SWAP1 MSTORE PUSH1 0x15 PUSH1 0x24 DUP3 ADD MSTORE PUSH21 0x23B930B1B2903832B934B7B2103737BA1037BB32B9 PUSH1 0x59 SHL PUSH1 0x44 DUP3 ADD MSTORE PUSH1 0x64 SWAP1 REVERT JUMPDEST PUSH1 0x64 SWAP1 PUSH1 0x40 MLOAD SWAP1 PUSH3 0x461BCD PUSH1 0xE5 SHL DUP3 MSTORE PUSH1 0x4 DUP3 ADD MSTORE PUSH1 0xE PUSH1 0x24 DUP3 ADD MSTORE PUSH14 0x139BDD08185D5D1A1BDC9A5E9959 PUSH1 0x92 SHL PUSH1 0x44 DUP3 ADD MSTORE REVERT JUMPDEST POP DUP5 PUSH1 0x10 SLOAD AND CALLER EQ PUSH2 0xA84 JUMP JUMPDEST POP DUP5 PUSH1 0x1 SLOAD PUSH1 0x8 SHR AND CALLER EQ PUSH2 0xA7D JUMP JUMPDEST POP PUSH1 0x8 SLOAD DUP3 LT PUSH2 0xA4A JUMP JUMPDEST CALLVALUE PUSH2 0x1CA JUMPI PUSH1 0x20 DUP1 PUSH1 0x3 NOT CALLDATASIZE ADD SLT PUSH2 0x1CA JUMPI PUSH1 0x4 CALLDATALOAD SWAP1 PUSH2 0xC9C PUSH2 0x2485 JUMP JUMPDEST DUP2 ISZERO ISZERO DUP1 PUSH2 0x1067 JUMPI JUMPDEST PUSH2 0xCAE SWAP1 PUSH2 0x291E JUMP JUMPDEST DUP2 PUSH1 0x0 MSTORE PUSH1 0x2 DUP1 DUP3 MSTORE PUSH1 0x40 PUSH1 0x0 KECCAK256 PUSH1 0x1 DUP2 ADD SWAP3 PUSH1 0x1 DUP1 PUSH1 0xA0 SHL SUB SWAP4 PUSH2 0xCD7 DUP6 DUP3 SLOAD AND CALLER EQ PUSH2 0x2960 JUMP JUMPDEST PUSH1 0xFF PUSH1 0xC DUP5 ADD SLOAD AND SWAP3 PUSH1 0x6 DUP5 LT ISZERO PUSH2 0x44E JUMPI PUSH2 0xCF6 PUSH1 0x3 DUP1 SWAP6 EQ PUSH2 0x2B50 JUMP JUMPDEST PUSH1 0x8 DUP2 ADD DUP1 SLOAD SWAP2 PUSH1 0x9 DUP2 ADD SWAP3 DUP4 SLOAD GT ISZERO PUSH2 0x1029 JUMPI PUSH1 0x7 DUP2 ADD SLOAD SWAP4 PUSH1 0xB DUP3 ADD DUP1 SLOAD DUP1 TIMESTAMP GT PUSH2 0xFDC JUMPI JUMPDEST POP DUP8 DUP4 ADD SWAP3 PUSH2 0xD34 DUP8 DUP13 DUP7 SLOAD AND ADDRESS SWAP1 CALLER SWAP1 PUSH2 0x24DB JUMP JUMPDEST PUSH2 0xD4D PUSH2 0xD47 PUSH1 0x4 DUP4 ADD SLOAD DUP9 SLOAD SWAP1 PUSH2 0x28FE JUMP JUMPDEST DUP9 PUSH2 0x2761 JUMP JUMPDEST SWAP1 PUSH2 0x3E8 SWAP2 DUP3 DUP2 MUL SWAP3 DUP2 DUP5 DIV EQ SWAP1 ISZERO OR ISZERO PUSH2 0x3AE JUMPI DUP12 SWAP5 DUP9 DUP13 DUP12 PUSH2 0xDA7 DUP10 PUSH2 0xD7C PUSH2 0x2710 PUSH1 0x11 SWAP10 DIV DUP1 SWAP7 PUSH2 0x2761 JUMP JUMPDEST SWAP4 DUP8 ADD SLOAD AND SWAP3 DUP4 PUSH1 0x0 MSTORE PUSH1 0x4 DUP4 MSTORE PUSH1 0x8 PUSH1 0x40 PUSH1 0x0 KECCAK256 ADD DUP12 DUP8 SLOAD AND SWAP4 DUP5 PUSH1 0x0 MSTORE MSTORE PUSH1 0x40 PUSH1 0x0 KECCAK256 SLOAD PUSH2 0x2704 JUMP JUMPDEST SWAP2 PUSH1 0x0 MSTORE PUSH1 0x4 DUP14 MSTORE PUSH1 0x8 PUSH1 0x40 PUSH1 0x0 KECCAK256 ADD SWAP1 PUSH1 0x0 MSTORE DUP13 MSTORE PUSH1 0x40 PUSH1 0x0 KECCAK256 SSTORE DUP7 DUP2 PUSH2 0xFC3 JUMPI JUMPDEST POP POP POP PUSH2 0xDD7 DUP7 SLOAD PUSH2 0x2876 JUMP JUMPDEST DUP7 SSTORE ADD PUSH2 0xDE5 DUP8 DUP3 SLOAD PUSH2 0x2704 JUMP JUMPDEST SWAP1 SSTORE PUSH2 0xDF5 DUP2 SLOAD PUSH1 0xE SLOAD SWAP1 PUSH2 0x2704 JUMP JUMPDEST SWAP1 SSTORE SLOAD AND DUP1 PUSH1 0x0 MSTORE DUP6 DUP6 MSTORE PUSH2 0xE11 DUP5 DUP9 PUSH1 0x40 PUSH1 0x0 KECCAK256 ADD SLOAD PUSH2 0x2704 JUMP JUMPDEST SWAP1 PUSH1 0x0 MSTORE DUP6 DUP6 MSTORE DUP7 PUSH1 0x40 PUSH1 0x0 KECCAK256 ADD SSTORE SLOAD SWAP2 PUSH1 0x40 MLOAD SWAP1 DUP2 MSTORE DUP3 DUP5 DUP3 ADD MSTORE DUP8 PUSH32 0xA286C61061A6EF637F0A9D98B2C8CE3E7B6C3FE924E23ABD5FCB5E011020142 PUSH1 0x40 CALLER SWAP4 LOG3 SLOAD GT ISZERO PUSH2 0xE62 JUMPI PUSH1 0x1 PUSH1 0x0 SSTORE STOP JUMPDEST DUP5 PUSH1 0x0 MSTORE DUP3 DUP2 MSTORE DUP4 PUSH1 0x40 PUSH1 0x0 KECCAK256 SWAP4 PUSH1 0xC DUP6 ADD PUSH1 0x4 PUSH1 0xFF NOT DUP3 SLOAD AND OR SWAP1 SSTORE PUSH1 0xE DUP6 ADD DUP8 DUP2 SLOAD DUP6 DUP6 DUP3 PUSH2 0xF73 JUMPI JUMPDEST POP POP POP POP POP PUSH1 0x1 DUP6 ADD SWAP5 DUP3 DUP7 SLOAD AND PUSH1 0x0 MSTORE DUP5 DUP5 MSTORE DUP5 PUSH1 0x40 PUSH1 0x0 KECCAK256 ADD PUSH2 0xEB3 DUP2 SLOAD PUSH2 0x2B8E JUMP JUMPDEST SWAP1 SSTORE DUP3 DUP7 SLOAD AND PUSH1 0x0 MSTORE DUP5 DUP5 MSTORE PUSH1 0x4 PUSH1 0x40 PUSH1 0x0 KECCAK256 ADD PUSH2 0xED1 DUP2 SLOAD PUSH2 0x2876 JUMP JUMPDEST SWAP1 SSTORE ADD DUP2 DUP2 SLOAD AND PUSH1 0x0 MSTORE PUSH1 0x4 DUP4 MSTORE DUP4 PUSH1 0x40 PUSH1 0x0 KECCAK256 ADD PUSH2 0xEF0 DUP2 SLOAD PUSH2 0x2B8E JUMP JUMPDEST SWAP1 SSTORE SLOAD AND PUSH1 0x0 MSTORE PUSH1 0x4 DUP2 MSTORE PUSH1 0x4 PUSH1 0x40 PUSH1 0x0 KECCAK256 ADD PUSH2 0xF0D DUP2 SLOAD PUSH2 0x2876 JUMP JUMPDEST SWAP1 SSTORE DUP4 DUP4 SLOAD AND PUSH1 0x0 MSTORE MSTORE PUSH1 0x40 PUSH1 0x0 KECCAK256 DUP1 SLOAD SWAP1 PUSH1 0xA DUP3 ADD DUP1 SWAP3 GT PUSH2 0x3AE JUMPI DUP2 DUP2 SSTORE PUSH2 0x352 DUP1 SWAP3 GT PUSH2 0xF6B JUMPI JUMPDEST POP POP SLOAD AND SWAP1 PUSH31 0x457D766F297EED4EB3EA8556A72F1864E07885B3BB2B5D2DEB36C9A128F18C PUSH1 0x0 DUP1 LOG3 DUP1 DUP1 DUP1 DUP1 DUP1 PUSH2 0x398 JUMP JUMPDEST SSTORE DUP4 DUP1 PUSH2 0xF38 JUMP JUMPDEST PUSH32 0x757B323B5139C5E30FE0A1C4B13E38DECE5AAD9273138C1E3D1ED9191C6E73B2 SWAP3 PUSH2 0xFAE DUP3 DUP12 DUP14 ADD SLOAD AND SWAP2 PUSH1 0x1 DUP14 ADD SWAP3 DUP5 DUP5 SLOAD AND SWAP1 PUSH2 0x2711 JUMP JUMPDEST SLOAD AND SWAP4 SLOAD PUSH1 0x40 MLOAD SWAP1 DUP2 MSTORE LOG3 DUP8 DUP8 DUP2 DUP6 DUP6 PUSH2 0xE8E JUMP JUMPDEST PUSH2 0xFD4 SWAP3 SLOAD AND DUP8 PUSH1 0xF SLOAD AND SWAP1 PUSH2 0x2711 JUMP JUMPDEST DUP14 DUP1 DUP7 PUSH2 0xDCA JUMP JUMPDEST PUSH2 0x16D PUSH2 0x2710 PUSH2 0x1008 PUSH3 0x15180 PUSH2 0xFF6 PUSH2 0x1011 SWAP6 TIMESTAMP PUSH2 0x2761 JUMP JUMPDEST DIV PUSH2 0x1003 PUSH1 0xB SLOAD DUP13 PUSH2 0x23C3 JUMP JUMPDEST PUSH2 0x23C3 JUMP JUMPDEST DIV DIV DUP1 SWAP8 PUSH2 0x2704 JUMP JUMPDEST SWAP6 PUSH2 0x1021 PUSH1 0x12 DUP6 ADD SWAP2 DUP3 SLOAD PUSH2 0x2704 JUMP JUMPDEST SWAP1 SSTORE DUP12 PUSH2 0xD1E JUMP JUMPDEST PUSH1 0x40 MLOAD PUSH3 0x461BCD PUSH1 0xE5 SHL DUP2 MSTORE PUSH1 0x4 DUP2 ADD DUP7 SWAP1 MSTORE PUSH1 0x16 PUSH1 0x24 DUP3 ADD MSTORE PUSH22 0x131BD85B88185B1C9958591E4818DBDB5C1B195D1959 PUSH1 0x52 SHL PUSH1 0x44 DUP3 ADD MSTORE PUSH1 0x64 SWAP1 REVERT JUMPDEST POP PUSH1 0x8 SLOAD DUP3 LT PUSH2 0xCA5 JUMP JUMPDEST CALLVALUE PUSH2 0x1CA JUMPI PUSH1 0x40 CALLDATASIZE PUSH1 0x3 NOT ADD SLT PUSH2 0x1CA JUMPI PUSH2 0x108B PUSH2 0x221B JUMP JUMPDEST PUSH1 0x24 CALLDATALOAD PUSH2 0x1096 PUSH2 0x2485 JUMP JUMPDEST CALLER PUSH1 0x0 MSTORE PUSH1 0x20 SWAP2 PUSH1 0x4 DUP4 MSTORE PUSH2 0x10B2 PUSH1 0xFF PUSH1 0x40 PUSH1 0x0 KECCAK256 SLOAD AND PUSH2 0x23ED JUMP JUMPDEST PUSH2 0x10BD DUP3 ISZERO ISZERO PUSH2 0x2439 JUMP JUMPDEST CALLER PUSH1 0x0 MSTORE PUSH1 0x4 DUP4 MSTORE PUSH1 0x8 PUSH1 0x40 PUSH1 0x0 KECCAK256 ADD SWAP1 PUSH1 0x1 DUP1 PUSH1 0xA0 SHL SUB AND SWAP1 DUP2 PUSH1 0x0 MSTORE DUP4 MSTORE DUP2 PUSH1 0x40 PUSH1 0x0 KECCAK256 SLOAD LT PUSH2 0x1136 JUMPI PUSH2 0x398 SWAP3 CALLER PUSH1 0x0 MSTORE PUSH1 0x4 DUP2 MSTORE PUSH1 0x8 PUSH1 0x40 PUSH1 0x0 KECCAK256 ADD DUP3 PUSH1 0x0 MSTORE DUP2 MSTORE PUSH2 0x1112 DUP4 PUSH1 0x40 PUSH1 0x0 KECCAK256 SLOAD PUSH2 0x2761 JUMP JUMPDEST SWAP1 CALLER PUSH1 0x0 MSTORE PUSH1 0x4 DUP2 MSTORE PUSH1 0x8 PUSH1 0x40 PUSH1 0x0 KECCAK256 ADD SWAP1 DUP4 PUSH1 0x0 MSTORE MSTORE PUSH1 0x40 PUSH1 0x0 KECCAK256 SSTORE CALLER SWAP1 PUSH2 0x2711 JUMP JUMPDEST PUSH1 0x40 MLOAD PUSH3 0x461BCD PUSH1 0xE5 SHL DUP2 MSTORE PUSH1 0x4 DUP2 ADD DUP5 SWAP1 MSTORE PUSH1 0x12 PUSH1 0x24 DUP3 ADD MSTORE PUSH18 0x496E73756666696369656E742066756E6473 PUSH1 0x70 SHL PUSH1 0x44 DUP3 ADD MSTORE PUSH1 0x64 SWAP1 REVERT JUMPDEST CALLVALUE PUSH2 0x1CA JUMPI PUSH1 0x20 CALLDATASIZE PUSH1 0x3 NOT ADD SLT PUSH2 0x1CA JUMPI PUSH1 0x1 PUSH1 0x1 PUSH1 0xA0 SHL SUB PUSH2 0x1191 PUSH2 0x221B JUMP JUMPDEST AND PUSH1 0x0 MSTORE PUSH1 0x3 PUSH1 0x20 MSTORE PUSH2 0x100 PUSH1 0x40 PUSH1 0x0 KECCAK256 DUP1 SLOAD SWAP1 PUSH1 0x1 DUP2 ADD SLOAD SWAP1 PUSH1 0x2 DUP2 ADD SLOAD PUSH1 0x3 DUP3 ADD SLOAD PUSH1 0x4 DUP4 ADD SLOAD SWAP1 PUSH1 0x5 DUP5 ADD SLOAD SWAP3 PUSH1 0xFF PUSH1 0x7 PUSH1 0x6 DUP8 ADD SLOAD SWAP7 ADD SLOAD AND SWAP6 PUSH1 0x40 MLOAD SWAP8 DUP9 MSTORE PUSH1 0x20 DUP9 ADD MSTORE PUSH1 0x40 DUP8 ADD MSTORE PUSH1 0x60 DUP7 ADD MSTORE PUSH1 0x80 DUP6 ADD MSTORE PUSH1 0xA0 DUP5 ADD MSTORE PUSH1 0xC0 DUP4 ADD MSTORE ISZERO ISZERO PUSH1 0xE0 DUP3 ADD MSTORE RETURN JUMPDEST CALLVALUE PUSH2 0x1CA JUMPI PUSH1 0x0 CALLDATASIZE PUSH1 0x3 NOT ADD SLT PUSH2 0x1CA JUMPI PUSH1 0xF SLOAD PUSH1 0x40 MLOAD PUSH1 0x1 PUSH1 0x1 PUSH1 0xA0 SHL SUB SWAP1 SWAP2 AND DUP2 MSTORE PUSH1 0x20 SWAP1 RETURN JUMPDEST CALLVALUE PUSH2 0x1CA JUMPI PUSH1 0x40 CALLDATASIZE PUSH1 0x3 NOT ADD SLT PUSH2 0x1CA JUMPI PUSH2 0x123E PUSH2 0x221B JUMP JUMPDEST PUSH2 0x12AB PUSH1 0x24 CALLDATALOAD SWAP2 PUSH2 0x124D PUSH2 0x2485 JUMP JUMPDEST CALLER PUSH1 0x0 MSTORE PUSH1 0x4 PUSH1 0x20 MSTORE PUSH2 0x1267 PUSH1 0xFF PUSH1 0x40 PUSH1 0x0 KECCAK256 SLOAD AND PUSH2 0x23ED JUMP JUMPDEST PUSH2 0x1272 DUP4 ISZERO ISZERO PUSH2 0x2439 JUMP JUMPDEST PUSH1 0x1 PUSH1 0x1 PUSH1 0xA0 SHL SUB AND SWAP2 PUSH2 0x1288 DUP2 ADDRESS CALLER DUP7 PUSH2 0x24DB JUMP JUMPDEST CALLER PUSH1 0x0 MSTORE PUSH1 0x4 PUSH1 0x20 MSTORE PUSH1 0x8 PUSH1 0x40 PUSH1 0x0 KECCAK256 ADD DUP4 PUSH1 0x0 MSTORE PUSH1 0x20 MSTORE PUSH1 0x40 PUSH1 0x0 KECCAK256 SLOAD PUSH2 0x2704 JUMP JUMPDEST SWAP1 CALLER PUSH1 0x0 MSTORE PUSH1 0x4 PUSH1 0x20 MSTORE PUSH1 0x8 PUSH1 0x40 PUSH1 0x0 KECCAK256 ADD SWAP1 PUSH1 0x0 MSTORE PUSH1 0x20 MSTORE PUSH1 0x40 PUSH1 0x0 KECCAK256 SSTORE PUSH1 0x1 PUSH1 0x0 SSTORE PUSH1 0x0 DUP1 RETURN JUMPDEST CALLVALUE PUSH2 0x1CA JUMPI PUSH1 0x0 CALLDATASIZE PUSH1 0x3 NOT ADD SLT PUSH2 0x1CA JUMPI PUSH1 0x1 SLOAD PUSH1 0x40 MLOAD PUSH1 0x8 SWAP2 SWAP1 SWAP2 SHR PUSH1 0x1 PUSH1 0x1 PUSH1 0xA0 SHL SUB AND DUP2 MSTORE PUSH1 0x20 SWAP1 RETURN JUMPDEST CALLVALUE PUSH2 0x1CA JUMPI PUSH1 0x40 CALLDATASIZE PUSH1 0x3 NOT ADD SLT PUSH2 0x1CA JUMPI PUSH1 0x4 CALLDATALOAD PUSH1 0x24 DUP1 CALLDATALOAD SWAP1 PUSH8 0xFFFFFFFFFFFFFFFF DUP1 DUP4 GT PUSH2 0x1CA JUMPI CALLDATASIZE PUSH1 0x23 DUP5 ADD SLT ISZERO PUSH2 0x1CA JUMPI DUP3 PUSH1 0x4 ADD CALLDATALOAD PUSH2 0x1343 DUP2 PUSH2 0x22D6 JUMP JUMPDEST SWAP1 PUSH2 0x1351 PUSH1 0x40 MLOAD SWAP3 DUP4 PUSH2 0x2231 JUMP JUMPDEST DUP1 DUP3 MSTORE PUSH1 0x20 SWAP5 DUP6 DUP4 ADD DUP6 DUP2 SWAP4 PUSH1 0x5 SHL DUP4 ADD ADD SWAP2 CALLDATASIZE DUP4 GT PUSH2 0x1CA JUMPI DUP7 ADD SWAP1 JUMPDEST DUP3 DUP3 LT PUSH2 0x14E2 JUMPI POP POP POP CALLER PUSH1 0x0 MSTORE PUSH1 0x4 DUP6 MSTORE PUSH1 0xFF PUSH1 0x40 PUSH1 0x0 KECCAK256 SLOAD AND PUSH2 0x14A9 JUMPI DUP6 ISZERO PUSH2 0x1465 JUMPI CALLER PUSH1 0x0 MSTORE PUSH1 0x4 DUP6 MSTORE PUSH1 0x40 PUSH1 0x0 KECCAK256 SWAP4 PUSH1 0x7 PUSH1 0x1 SWAP6 DUP7 PUSH1 0xFF NOT DUP3 SLOAD AND OR DUP2 SSTORE DUP9 DUP8 DUP3 ADD SSTORE ADD SWAP3 MLOAD SWAP4 DUP5 GT PUSH2 0x1451 JUMPI PUSH1 0x1 PUSH1 0x40 SHL DUP5 GT PUSH2 0x1451 JUMPI POP DUP2 SLOAD DUP4 DUP4 SSTORE DUP1 DUP5 LT PUSH2 0x1434 JUMPI JUMPDEST POP SWAP1 PUSH1 0x0 MSTORE DUP4 PUSH1 0x0 KECCAK256 PUSH1 0x0 JUMPDEST DUP4 DUP2 LT PUSH2 0x141A JUMPI DUP7 PUSH32 0xA0F40B7C0F5A214073B91AC846BCC605C7C35A8FB4C4EA5399CC16746D527C67 DUP8 PUSH1 0x40 MLOAD SWAP3 DUP4 MSTORE CALLER SWAP3 LOG2 STOP JUMPDEST DUP3 MLOAD PUSH1 0x1 PUSH1 0x1 PUSH1 0xA0 SHL SUB AND DUP3 DUP3 ADD SSTORE SWAP2 DUP6 ADD SWAP2 DUP5 ADD PUSH2 0x13E5 JUMP JUMPDEST PUSH2 0x144B SWAP1 DUP4 PUSH1 0x0 MSTORE DUP5 DUP8 PUSH1 0x0 KECCAK256 SWAP2 DUP3 ADD SWAP2 ADD PUSH2 0x23D6 JUMP JUMPDEST DUP7 PUSH2 0x13D9 JUMP JUMPDEST PUSH4 0x4E487B71 PUSH1 0xE0 SHL PUSH1 0x0 SWAP1 DUP2 MSTORE PUSH1 0x41 PUSH1 0x4 MSTORE REVERT JUMPDEST PUSH1 0x40 MLOAD PUSH3 0x461BCD PUSH1 0xE5 SHL DUP2 MSTORE PUSH1 0x4 DUP2 ADD DUP7 SWAP1 MSTORE PUSH1 0x18 DUP2 DUP7 ADD MSTORE PUSH32 0x496E76616C69642066756E64696E672063617061636974790000000000000000 PUSH1 0x44 DUP3 ADD MSTORE PUSH1 0x64 SWAP1 REVERT JUMPDEST PUSH1 0x40 MLOAD PUSH3 0x461BCD PUSH1 0xE5 SHL DUP2 MSTORE PUSH1 0x4 DUP2 ADD DUP7 SWAP1 MSTORE PUSH1 0x12 DUP2 DUP7 ADD MSTORE PUSH18 0x105B1C9958591E481C9959DA5CDD195C9959 PUSH1 0x72 SHL PUSH1 0x44 DUP3 ADD MSTORE PUSH1 0x64 SWAP1 REVERT JUMPDEST DUP2 CALLDATALOAD PUSH1 0x1 PUSH1 0x1 PUSH1 0xA0 SHL SUB DUP2 AND DUP2 SUB PUSH2 0x1CA JUMPI DUP2 MSTORE SWAP1 DUP8 ADD SWAP1 DUP8 ADD PUSH2 0x136F JUMP JUMPDEST CALLVALUE PUSH2 0x1CA JUMPI PUSH1 0x0 CALLDATASIZE PUSH1 0x3 NOT ADD SLT PUSH2 0x1CA JUMPI PUSH1 0x20 PUSH1 0x8 SLOAD PUSH1 0x40 MLOAD SWAP1 DUP2 MSTORE RETURN JUMPDEST CALLVALUE PUSH2 0x1CA JUMPI PUSH1 0x20 CALLDATASIZE PUSH1 0x3 NOT ADD SLT PUSH2 0x1CA JUMPI PUSH1 0x4 CALLDATALOAD DUP1 ISZERO ISZERO DUP1 PUSH2 0x15C3 JUMPI JUMPDEST PUSH2 0x1545 SWAP1 PUSH2 0x291E JUMP JUMPDEST DUP1 PUSH1 0x0 MSTORE PUSH1 0x2 PUSH1 0x20 MSTORE PUSH1 0x40 PUSH1 0x0 KECCAK256 PUSH1 0x1 DUP1 PUSH1 0xA0 SHL SUB PUSH1 0x2 DUP3 ADD SLOAD AND CALLER SUB PUSH2 0x158D JUMPI PUSH1 0xC ADD SLOAD PUSH1 0xFF AND SWAP1 PUSH1 0x6 DUP3 LT ISZERO PUSH2 0x44E JUMPI PUSH2 0x1586 PUSH1 0x1 PUSH2 0x158B SWAP4 EQ PUSH2 0x299F JUMP JUMPDEST PUSH2 0x29DF JUMP JUMPDEST STOP JUMPDEST PUSH1 0x40 MLOAD PUSH3 0x461BCD PUSH1 0xE5 SHL DUP2 MSTORE PUSH1 0x20 PUSH1 0x4 DUP3 ADD MSTORE PUSH1 0xE PUSH1 0x24 DUP3 ADD MSTORE PUSH14 0x2737BA103A3432903632B73232B9 PUSH1 0x91 SHL PUSH1 0x44 DUP3 ADD MSTORE PUSH1 0x64 SWAP1 REVERT JUMPDEST POP PUSH1 0x8 SLOAD DUP2 LT PUSH2 0x153C JUMP JUMPDEST CALLVALUE PUSH2 0x1CA JUMPI PUSH1 0x0 CALLDATASIZE PUSH1 0x3 NOT ADD SLT PUSH2 0x1CA JUMPI PUSH2 0x15E7 PUSH2 0x2368 JUMP JUMPDEST PUSH2 0x15EF PUSH2 0x28BA JUMP JUMPDEST PUSH1 0x1 PUSH1 0xFF NOT DUP2 SLOAD AND OR PUSH1 0x1 SSTORE PUSH32 0x62E78CEA01BEE320CD4E420270B5EA74000D11B0C9F74754EBDBFC544B05A258 PUSH1 0x20 PUSH1 0x40 MLOAD CALLER DUP2 MSTORE LOG1 STOP JUMPDEST CALLVALUE PUSH2 0x1CA JUMPI PUSH1 0x0 CALLDATASIZE PUSH1 0x3 NOT ADD SLT PUSH2 0x1CA JUMPI PUSH1 0x10 SLOAD PUSH1 0x40 MLOAD PUSH1 0x1 PUSH1 0x1 PUSH1 0xA0 SHL SUB SWAP1 SWAP2 AND DUP2 MSTORE PUSH1 0x20 SWAP1 RETURN JUMPDEST CALLVALUE PUSH2 0x1CA JUMPI PUSH2 0x165E CALLDATASIZE PUSH2 0x22C0 JUMP JUMPDEST SWAP1 DUP1 ISZERO ISZERO DUP1 PUSH2 0x185A JUMPI JUMPDEST PUSH2 0x1671 SWAP1 PUSH2 0x291E JUMP JUMPDEST CALLER PUSH1 0x0 MSTORE PUSH1 0x20 SWAP2 PUSH1 0x4 DUP4 MSTORE PUSH2 0x168D PUSH1 0xFF PUSH1 0x40 PUSH1 0x0 KECCAK256 SLOAD AND PUSH2 0x23ED JUMP JUMPDEST DUP2 PUSH1 0x0 MSTORE PUSH1 0x2 DUP4 MSTORE PUSH1 0x40 PUSH1 0x0 KECCAK256 PUSH1 0xC DUP2 ADD SWAP1 DUP2 SLOAD SWAP2 PUSH1 0xFF DUP4 AND PUSH1 0x6 DUP2 LT ISZERO PUSH2 0x44E JUMPI PUSH2 0x1815 JUMPI DUP4 ISZERO ISZERO DUP1 PUSH2 0x1809 JUMPI JUMPDEST PUSH2 0x16C5 SWAP1 PUSH2 0x27B0 JUMP JUMPDEST CALLER PUSH1 0x0 MSTORE PUSH1 0x4 DUP7 MSTORE PUSH1 0x8 PUSH1 0x40 PUSH1 0x0 KECCAK256 ADD PUSH1 0x1 DUP1 PUSH1 0xA0 SHL SUB PUSH1 0x3 DUP5 ADD SLOAD AND PUSH1 0x0 MSTORE DUP7 MSTORE PUSH1 0x40 PUSH1 0x0 KECCAK256 SLOAD SWAP1 PUSH1 0x4 DUP4 ADD SWAP4 DUP5 SLOAD DUP1 SWAP4 LT PUSH2 0x17C4 JUMPI PUSH1 0x2 DUP5 ADD DUP1 SLOAD PUSH1 0x1 PUSH1 0x1 PUSH1 0xA0 SHL SUB NOT AND CALLER OR SWAP1 SSTORE PUSH1 0x5 DUP5 ADD DUP7 SWAP1 SSTORE PUSH1 0xFF NOT AND PUSH1 0x1 OR SWAP1 SSTORE PUSH1 0x7 SWAP1 PUSH2 0x175C SWAP1 PUSH2 0x1751 SWAP1 PUSH2 0x2710 PUSH2 0x16D PUSH2 0x1749 PUSH2 0x173E DUP11 DUP6 PUSH2 0x23C3 JUMP JUMPDEST PUSH1 0x6 DUP10 ADD SLOAD SWAP1 PUSH2 0x23C3 JUMP JUMPDEST DIV DIV SWAP1 PUSH2 0x2704 JUMP JUMPDEST PUSH1 0x9 DUP5 ADD SLOAD SWAP1 PUSH2 0x28FE JUMP JUMPDEST SWAP2 ADD SSTORE CALLER PUSH1 0x0 MSTORE PUSH1 0x7 DUP5 MSTORE PUSH2 0x1775 DUP4 PUSH1 0x40 PUSH1 0x0 KECCAK256 PUSH2 0x2885 JUMP JUMPDEST CALLER PUSH1 0x0 MSTORE PUSH1 0x4 DUP5 MSTORE PUSH1 0x3 PUSH1 0x40 PUSH1 0x0 KECCAK256 ADD PUSH2 0x178F DUP2 SLOAD PUSH2 0x2876 JUMP JUMPDEST SWAP1 SSTORE SLOAD SWAP3 PUSH1 0x40 MLOAD SWAP4 DUP5 MSTORE DUP4 ADD MSTORE PUSH32 0xB2C6DE76341D4F1188DA5458FD8729CBC0E9278F99E8992F40F36900BCEF78CB PUSH1 0x40 CALLER SWAP4 LOG3 STOP JUMPDEST PUSH1 0x40 MLOAD PUSH3 0x461BCD PUSH1 0xE5 SHL DUP2 MSTORE PUSH1 0x4 DUP2 ADD DUP10 SWAP1 MSTORE PUSH1 0x19 PUSH1 0x24 DUP3 ADD MSTORE PUSH32 0x496E73756666696369656E74206C656E6465722066756E647300000000000000 PUSH1 0x44 DUP3 ADD MSTORE PUSH1 0x64 SWAP1 REVERT JUMPDEST POP PUSH2 0x1388 DUP5 GT ISZERO PUSH2 0x16BC JUMP JUMPDEST PUSH1 0x40 MLOAD PUSH3 0x461BCD PUSH1 0xE5 SHL DUP2 MSTORE PUSH1 0x4 DUP2 ADD DUP8 SWAP1 MSTORE PUSH1 0x1C PUSH1 0x24 DUP3 ADD MSTORE PUSH32 0x4C6F616E206E6F7420696E207265717565737465642073746174757300000000 PUSH1 0x44 DUP3 ADD MSTORE PUSH1 0x64 SWAP1 REVERT JUMPDEST POP PUSH1 0x8 SLOAD DUP2 LT PUSH2 0x1668 JUMP JUMPDEST CALLVALUE PUSH2 0x1CA JUMPI PUSH1 0x0 CALLDATASIZE PUSH1 0x3 NOT ADD SLT PUSH2 0x1CA JUMPI PUSH1 0x20 PUSH1 0xD SLOAD PUSH1 0x40 MLOAD SWAP1 DUP2 MSTORE RETURN JUMPDEST CALLVALUE PUSH2 0x1CA JUMPI PUSH1 0x0 CALLDATASIZE PUSH1 0x3 NOT ADD SLT PUSH2 0x1CA JUMPI PUSH1 0x20 PUSH1 0xC SLOAD PUSH1 0x40 MLOAD SWAP1 DUP2 MSTORE RETURN JUMPDEST CALLVALUE PUSH2 0x1CA JUMPI PUSH1 0x80 CALLDATASIZE PUSH1 0x3 NOT ADD SLT PUSH2 0x1CA JUMPI PUSH1 0x24 CALLDATALOAD PUSH1 0x4 CALLDATALOAD PUSH2 0x18C0 PUSH2 0x2368 JUMP JUMPDEST PUSH2 0x3E8 DUP2 GT PUSH2 0x1923 JUMPI PUSH2 0x7D0 DUP3 GT PUSH2 0x18E6 JUMPI PUSH1 0xA SSTORE PUSH1 0xB SSTORE PUSH1 0x44 CALLDATALOAD PUSH1 0xC SSTORE PUSH1 0x64 CALLDATALOAD PUSH1 0xD SSTORE STOP JUMPDEST PUSH1 0x40 MLOAD PUSH3 0x461BCD PUSH1 0xE5 SHL DUP2 MSTORE PUSH1 0x20 PUSH1 0x4 DUP3 ADD MSTORE PUSH1 0x15 PUSH1 0x24 DUP3 ADD MSTORE PUSH21 0xA0CADCC2D8E8F240E4C2E8CA40E8DEDE40D0D2CED PUSH1 0x5B SHL PUSH1 0x44 DUP3 ADD MSTORE PUSH1 0x64 SWAP1 REVERT JUMPDEST PUSH1 0x40 MLOAD PUSH3 0x461BCD PUSH1 0xE5 SHL DUP2 MSTORE PUSH1 0x20 PUSH1 0x4 DUP3 ADD MSTORE PUSH1 0x15 PUSH1 0x24 DUP3 ADD MSTORE PUSH21 0xA0D8C2E8CCDEE4DA40CCCACA40E8DEDE40D0D2CED PUSH1 0x5B SHL PUSH1 0x44 DUP3 ADD MSTORE PUSH1 0x64 SWAP1 REVERT JUMPDEST CALLVALUE PUSH2 0x1CA JUMPI PUSH1 0x0 CALLDATASIZE PUSH1 0x3 NOT ADD SLT PUSH2 0x1CA JUMPI PUSH2 0x1979 PUSH2 0x2368 JUMP JUMPDEST PUSH1 0x1 DUP1 SLOAD PUSH2 0x100 PUSH1 0x1 PUSH1 0xA8 SHL SUB NOT DUP2 AND SWAP1 SWAP2 SSTORE PUSH1 0x0 SWAP1 PUSH1 0x8 SHR PUSH1 0x1 PUSH1 0x1 PUSH1 0xA0 SHL SUB AND PUSH32 0x8BE0079C531659141344CD1FD0A4F28419497F9722A3DAAFE3B4186F6B6457E0 DUP3 DUP1 LOG3 STOP JUMPDEST CALLVALUE PUSH2 0x1CA JUMPI PUSH1 0x20 CALLDATASIZE PUSH1 0x3 NOT ADD SLT PUSH2 0x1CA JUMPI PUSH1 0x1 PUSH1 0x1 PUSH1 0xA0 SHL SUB PUSH2 0x19E2 PUSH2 0x221B JUMP JUMPDEST AND PUSH1 0x0 MSTORE PUSH1 0x3 PUSH1 0x20 MSTORE PUSH1 0xE0 PUSH1 0x40 PUSH1 0x0 KECCAK256 DUP1 SLOAD SWAP1 PUSH1 0x1 DUP2 ADD SLOAD SWAP1 PUSH1 0x2 DUP2 ADD SLOAD PUSH1 0x3 DUP3 ADD SLOAD PUSH1 0x4 DUP4 ADD SLOAD SWAP2 PUSH1 0xFF PUSH1 0x7 PUSH1 0x5 DUP7 ADD SLOAD SWAP6 ADD SLOAD AND SWAP5 PUSH1 0x40 MLOAD SWAP7 DUP8 MSTORE PUSH1 0x20 DUP8 ADD MSTORE PUSH1 0x40 DUP7 ADD MSTORE PUSH1 0x60 DUP6 ADD MSTORE PUSH1 0x80 DUP5 ADD MSTORE PUSH1 0xA0 DUP4 ADD MSTORE ISZERO ISZERO PUSH1 0xC0 DUP3 ADD MSTORE RETURN JUMPDEST CALLVALUE PUSH2 0x1CA JUMPI PUSH1 0x20 CALLDATASIZE PUSH1 0x3 NOT ADD SLT PUSH2 0x1CA JUMPI PUSH1 0x4 CALLDATALOAD DUP1 ISZERO ISZERO DUP1 PUSH2 0x1AF0 JUMPI JUMPDEST PUSH2 0x1A67 SWAP1 PUSH2 0x291E JUMP JUMPDEST PUSH1 0x0 MSTORE PUSH1 0x2 PUSH1 0x20 MSTORE PUSH2 0x120 PUSH1 0x40 PUSH1 0x0 KECCAK256 PUSH1 0x1 DUP1 PUSH1 0xA0 SHL SUB SWAP1 PUSH2 0x1AE8 DUP3 PUSH1 0x1 DUP4 ADD SLOAD AND SWAP3 PUSH1 0x2 DUP4 ADD SLOAD AND SWAP2 PUSH1 0x4 DUP2 ADD SLOAD PUSH1 0x5 DUP3 ADD SLOAD PUSH1 0x7 DUP4 ADD SLOAD PUSH1 0x8 DUP5 ADD SLOAD SWAP2 PUSH1 0x9 DUP6 ADD SLOAD SWAP4 PUSH1 0xB PUSH1 0xFF PUSH1 0xC DUP9 ADD SLOAD AND SWAP7 ADD SLOAD SWAP8 PUSH1 0x40 MLOAD SWAP10 DUP11 MSTORE PUSH1 0x20 DUP11 ADD MSTORE PUSH1 0x40 DUP10 ADD MSTORE PUSH1 0x60 DUP9 ADD MSTORE PUSH1 0x80 DUP8 ADD MSTORE PUSH1 0xA0 DUP7 ADD MSTORE PUSH1 0xC0 DUP6 ADD MSTORE PUSH1 0xE0 DUP5 ADD SWAP1 PUSH2 0x22B3 JUMP JUMPDEST PUSH2 0x100 DUP3 ADD MSTORE RETURN JUMPDEST POP PUSH1 0x8 SLOAD DUP2 LT PUSH2 0x1A5E JUMP JUMPDEST CALLVALUE PUSH2 0x1CA JUMPI PUSH1 0x40 CALLDATASIZE PUSH1 0x3 NOT ADD SLT PUSH2 0x1CA JUMPI PUSH2 0x1B14 PUSH2 0x221B JUMP JUMPDEST PUSH1 0x10 SLOAD PUSH1 0x24 CALLDATALOAD SWAP2 PUSH1 0x1 PUSH1 0x1 PUSH1 0xA0 SHL SUB SWAP2 DUP3 AND CALLER SUB PUSH2 0x1B61 JUMPI PUSH2 0x12C DUP4 LT ISZERO DUP1 PUSH2 0x1B55 JUMPI JUMPDEST PUSH2 0x1B41 SWAP1 PUSH2 0x2833 JUMP JUMPDEST AND PUSH1 0x0 MSTORE PUSH1 0x3 PUSH1 0x20 MSTORE PUSH1 0x40 PUSH1 0x0 KECCAK256 SSTORE PUSH1 0x0 DUP1 RETURN JUMPDEST POP PUSH2 0x352 DUP4 GT ISZERO PUSH2 0x1B38 JUMP JUMPDEST PUSH1 0x40 MLOAD PUSH3 0x461BCD PUSH1 0xE5 SHL DUP2 MSTORE PUSH1 0x20 PUSH1 0x4 DUP3 ADD MSTORE PUSH1 0x12 PUSH1 0x24 DUP3 ADD MSTORE PUSH18 0x4F6E6C7920637265646974206F7261636C65 PUSH1 0x70 SHL PUSH1 0x44 DUP3 ADD MSTORE PUSH1 0x64 SWAP1 REVERT JUMPDEST CALLVALUE PUSH2 0x1CA JUMPI PUSH1 0x0 CALLDATASIZE PUSH1 0x3 NOT ADD SLT PUSH2 0x1CA JUMPI PUSH1 0x20 PUSH1 0x9 SLOAD PUSH1 0x40 MLOAD SWAP1 DUP2 MSTORE RETURN JUMPDEST CALLVALUE PUSH2 0x1CA JUMPI PUSH1 0x0 CALLDATASIZE PUSH1 0x3 NOT ADD SLT PUSH2 0x1CA JUMPI PUSH1 0x20 PUSH1 0xFF PUSH1 0x1 SLOAD AND PUSH1 0x40 MLOAD SWAP1 ISZERO ISZERO DUP2 MSTORE RETURN JUMPDEST CALLVALUE PUSH2 0x1CA JUMPI PUSH1 0x40 CALLDATASIZE PUSH1 0x3 NOT ADD SLT PUSH2 0x1CA JUMPI PUSH2 0x1BF5 PUSH2 0x221B JUMP JUMPDEST PUSH1 0x1 PUSH1 0x1 PUSH1 0xA0 SHL SUB PUSH1 0x24 CALLDATALOAD DUP2 DUP2 AND SWAP3 SWAP1 DUP4 SWAP1 SUB PUSH2 0x1CA JUMPI AND PUSH1 0x0 MSTORE PUSH1 0x4 PUSH1 0x20 MSTORE PUSH1 0x8 PUSH1 0x40 PUSH1 0x0 KECCAK256 ADD SWAP1 PUSH1 0x0 MSTORE PUSH1 0x20 MSTORE PUSH1 0x20 PUSH1 0x40 PUSH1 0x0 KECCAK256 SLOAD PUSH1 0x40 MLOAD SWAP1 DUP2 MSTORE RETURN JUMPDEST CALLVALUE PUSH2 0x1CA JUMPI PUSH1 0x0 CALLDATASIZE PUSH1 0x3 NOT ADD SLT PUSH2 0x1CA JUMPI PUSH2 0x1C4D PUSH2 0x2368 JUMP JUMPDEST PUSH1 0x1 SLOAD PUSH1 0xFF DUP2 AND ISZERO PUSH2 0x1C8C JUMPI PUSH1 0xFF NOT AND PUSH1 0x1 SSTORE PUSH32 0x5DB9EE0A495BF2E6FF9C91A7834C1BA4FDD244A5E8AA4E537BD38AEAE4B073AA PUSH1 0x20 PUSH1 0x40 MLOAD CALLER DUP2 MSTORE LOG1 STOP JUMPDEST PUSH1 0x40 MLOAD PUSH3 0x461BCD PUSH1 0xE5 SHL DUP2 MSTORE PUSH1 0x20 PUSH1 0x4 DUP3 ADD MSTORE PUSH1 0x14 PUSH1 0x24 DUP3 ADD MSTORE PUSH20 0x14185D5CD8589B194E881B9BDD081C185D5CD959 PUSH1 0x62 SHL PUSH1 0x44 DUP3 ADD MSTORE PUSH1 0x64 SWAP1 REVERT JUMPDEST CALLVALUE PUSH2 0x1CA JUMPI PUSH1 0x40 CALLDATASIZE PUSH1 0x3 NOT ADD SLT PUSH2 0x1CA JUMPI PUSH2 0x1CE1 PUSH2 0x221B JUMP JUMPDEST PUSH1 0x1 PUSH1 0x1 PUSH1 0xA0 SHL SUB AND PUSH1 0x0 SWAP1 DUP2 MSTORE PUSH1 0x7 PUSH1 0x20 MSTORE PUSH1 0x40 SWAP1 KECCAK256 DUP1 SLOAD PUSH1 0x24 CALLDATALOAD SWAP2 SWAP1 DUP3 LT ISZERO PUSH2 0x1CA JUMPI PUSH1 0x20 SWAP2 PUSH2 0x7DF SWAP2 PUSH2 0x2285 JUMP JUMPDEST CALLVALUE PUSH2 0x1CA JUMPI PUSH1 0x20 CALLDATASIZE PUSH1 0x3 NOT ADD SLT PUSH2 0x1CA JUMPI PUSH1 0x4 CALLDATALOAD PUSH1 0x0 MSTORE PUSH1 0x5 PUSH1 0x20 MSTORE PUSH1 0xC0 PUSH1 0x40 PUSH1 0x0 KECCAK256 PUSH1 0x1 DUP1 PUSH1 0xA0 SHL SUB DUP2 SLOAD AND SWAP1 PUSH1 0x1 DUP2 ADD SLOAD SWAP1 PUSH1 0x2 DUP2 ADD SLOAD PUSH1 0x3 DUP3 ADD SLOAD SWAP1 PUSH1 0xFF PUSH1 0x6 PUSH1 0x4 DUP6 ADD SLOAD SWAP5 ADD SLOAD AND SWAP4 PUSH1 0x40 MLOAD SWAP6 DUP7 MSTORE PUSH1 0x20 DUP7 ADD MSTORE PUSH1 0x40 DUP6 ADD MSTORE PUSH1 0x60 DUP5 ADD MSTORE PUSH1 0x80 DUP4 ADD MSTORE ISZERO ISZERO PUSH1 0xA0 DUP3 ADD MSTORE RETURN JUMPDEST CALLVALUE PUSH2 0x1CA JUMPI PUSH1 0x20 CALLDATASIZE PUSH1 0x3 NOT ADD SLT PUSH2 0x1CA JUMPI PUSH1 0x1 PUSH1 0x1 PUSH1 0xA0 SHL SUB PUSH2 0x1DA3 PUSH2 0x221B JUMP JUMPDEST AND PUSH1 0x0 MSTORE PUSH1 0x4 PUSH1 0x20 MSTORE PUSH1 0xE0 PUSH1 0x40 PUSH1 0x0 KECCAK256 PUSH1 0xFF DUP2 SLOAD AND SWAP1 PUSH1 0x1 DUP2 ADD SLOAD SWAP1 PUSH1 0x2 DUP2 ADD SLOAD PUSH1 0x3 DUP3 ADD SLOAD PUSH1 0x4 DUP4 ADD SLOAD SWAP2 PUSH1 0x6 PUSH1 0x5 DUP6 ADD SLOAD SWAP5 ADD SLOAD SWAP5 PUSH1 0x40 MLOAD SWAP7 ISZERO ISZERO DUP8 MSTORE PUSH1 0x20 DUP8 ADD MSTORE PUSH1 0x40 DUP7 ADD MSTORE PUSH1 0x60 DUP6 ADD MSTORE PUSH1 0x80 DUP5 ADD MSTORE PUSH1 0xA0 DUP4 ADD MSTORE PUSH1 0xC0 DUP3 ADD MSTORE RETURN JUMPDEST CALLVALUE PUSH2 0x1CA JUMPI PUSH1 0x0 CALLDATASIZE PUSH1 0x3 NOT ADD SLT PUSH2 0x1CA JUMPI PUSH1 0x20 PUSH1 0xA SLOAD PUSH1 0x40 MLOAD SWAP1 DUP2 MSTORE RETURN JUMPDEST CALLVALUE PUSH2 0x1CA JUMPI PUSH1 0xC0 CALLDATASIZE PUSH1 0x3 NOT ADD SLT PUSH2 0x1CA JUMPI PUSH2 0x1E39 PUSH2 0x221B JUMP JUMPDEST PUSH1 0x24 SWAP1 DUP2 CALLDATALOAD PUSH1 0x44 CALLDATALOAD PUSH1 0x64 CALLDATALOAD PUSH1 0x4 DUP2 LT ISZERO PUSH2 0x1CA JUMPI PUSH1 0x84 CALLDATALOAD SWAP4 PUSH8 0xFFFFFFFFFFFFFFFF DUP1 DUP7 GT PUSH2 0x1CA JUMPI CALLDATASIZE PUSH1 0x23 DUP8 ADD SLT ISZERO PUSH2 0x1CA JUMPI DUP6 PUSH1 0x4 ADD CALLDATALOAD SWAP6 PUSH2 0x1E7B DUP8 PUSH2 0x2269 JUMP JUMPDEST SWAP7 PUSH2 0x1E89 PUSH1 0x40 MLOAD SWAP9 DUP10 PUSH2 0x2231 JUMP JUMPDEST DUP1 DUP9 MSTORE CALLDATASIZE DUP10 DUP3 DUP5 ADD ADD GT PUSH2 0x1CA JUMPI DUP9 SWAP2 DUP2 PUSH1 0x0 SWAP3 PUSH1 0x20 SWAP12 DUP13 SWAP4 ADD DUP4 DUP13 ADD CALLDATACOPY DUP10 ADD ADD MSTORE PUSH1 0xA4 CALLDATALOAD SWAP1 DUP2 ISZERO ISZERO DUP1 SWAP3 SUB PUSH2 0x1CA JUMPI PUSH2 0x1EC1 PUSH2 0x28BA JUMP JUMPDEST DUP7 ISZERO SWAP3 DUP4 ISZERO DUP1 PUSH2 0x21F4 JUMPI JUMPDEST PUSH2 0x1ED5 SWAP1 PUSH2 0x276E JUMP JUMPDEST DUP7 ISZERO ISZERO DUP1 PUSH2 0x21E8 JUMPI JUMPDEST PUSH2 0x1EE7 SWAP1 PUSH2 0x27F4 JUMP JUMPDEST CALLER PUSH1 0x0 MSTORE PUSH1 0x3 DUP11 MSTORE PUSH1 0xFF PUSH1 0x7 PUSH1 0x40 PUSH1 0x0 KECCAK256 ADD SLOAD AND PUSH2 0x21AD JUMPI CALLER PUSH1 0x0 MSTORE PUSH1 0x3 DUP11 MSTORE PUSH1 0x40 PUSH1 0x0 KECCAK256 SLOAD PUSH1 0xD SLOAD GT PUSH2 0x2172 JUMPI PUSH1 0x8 SLOAD SWAP9 PUSH2 0x1F22 DUP11 PUSH2 0x2876 JUMP JUMPDEST PUSH1 0x8 SSTORE PUSH1 0x1E DUP9 DIV SWAP5 PUSH1 0x1 DUP7 ADD DUP1 SWAP7 GT PUSH2 0x215D JUMPI PUSH2 0x3E8 SWAP1 DUP2 DUP12 MUL SWAP2 DUP12 DUP4 DIV EQ OR ISZERO PUSH2 0x215D JUMPI DUP6 PUSH2 0x1F59 PUSH2 0x2710 PUSH2 0x1F5E SWAP4 DIV DUP13 PUSH2 0x2704 JUMP JUMPDEST PUSH2 0x28FE JUMP JUMPDEST SWAP7 DUP11 PUSH1 0x0 MSTORE PUSH1 0x2 DUP13 MSTORE PUSH1 0x40 PUSH1 0x0 KECCAK256 SWAP7 DUP12 DUP9 SSTORE PUSH1 0x1 DUP9 ADD PUSH12 0xFFFFFFFFFFFFFFFFFFFFFFFF PUSH1 0xA0 SHL SWAP1 CALLER DUP3 DUP3 SLOAD AND OR SWAP1 SSTORE PUSH1 0x3 DUP10 ADD SWAP2 PUSH1 0x1 DUP1 PUSH1 0xA0 SHL SUB AND SWAP1 DUP3 SLOAD AND OR SWAP1 SSTORE DUP10 PUSH1 0x4 DUP9 ADD SSTORE DUP9 PUSH1 0x6 DUP9 ADD SSTORE PUSH1 0xC DUP8 ADD SWAP1 PUSH2 0xFF00 DUP3 SLOAD SWAP2 PUSH1 0x8 SHL AND SWAP1 PUSH2 0xFFFF NOT AND OR SWAP1 SSTORE PUSH1 0xD DUP7 ADD SWAP3 DUP2 MLOAD SWAP3 DUP4 GT PUSH2 0x1451 JUMPI POP PUSH2 0x1FDE DUP4 SLOAD PUSH2 0x22EE JUMP JUMPDEST DUP12 PUSH1 0x1F DUP3 GT PUSH2 0x2121 JUMPI JUMPDEST POP POP DUP11 SWAP1 PUSH1 0x1F DUP4 GT PUSH1 0x1 EQ PUSH2 0x20B3 JUMPI PUSH1 0x7 SWAP7 SWAP6 SWAP5 SWAP4 SWAP3 SWAP2 PUSH1 0x0 SWAP2 DUP4 PUSH2 0x20A8 JUMPI JUMPDEST POP POP DUP2 PUSH1 0x1 SHL SWAP2 PUSH1 0x0 NOT SWAP1 PUSH1 0x3 SHL SHR NOT AND OR SWAP1 SSTORE JUMPDEST PUSH1 0xF DUP4 ADD SWAP1 PUSH1 0xFF DUP1 NOT DUP4 SLOAD AND SWAP2 AND OR SWAP1 SSTORE PUSH1 0xD SLOAD PUSH1 0x10 DUP4 ADD SSTORE PUSH1 0x9 DUP3 ADD SSTORE ADD SSTORE CALLER PUSH1 0x0 MSTORE PUSH1 0x6 DUP5 MSTORE PUSH2 0x2053 DUP4 PUSH1 0x40 PUSH1 0x0 KECCAK256 PUSH2 0x2885 JUMP JUMPDEST CALLER PUSH1 0x0 MSTORE PUSH1 0x3 DUP5 MSTORE PUSH1 0x3 PUSH1 0x40 PUSH1 0x0 KECCAK256 ADD PUSH2 0x206D DUP2 SLOAD PUSH2 0x2876 JUMP JUMPDEST SWAP1 SSTORE PUSH1 0x40 MLOAD SWAP2 DUP3 MSTORE DUP4 DUP3 ADD MSTORE DUP2 PUSH32 0x68595DBE887AE7F496F2C88735019A8918919A1DECFDEE6BDB460480AB87DECB PUSH1 0x40 CALLER SWAP4 LOG3 PUSH1 0x40 MLOAD SWAP1 DUP2 MSTORE RETURN JUMPDEST ADD MLOAD SWAP1 POP DUP13 DUP1 PUSH2 0x2008 JUMP JUMPDEST PUSH1 0x0 DUP5 DUP2 MSTORE DUP13 DUP2 KECCAK256 SWAP3 SWAP2 SWAP1 PUSH1 0x1F NOT DUP6 AND SWAP1 DUP15 JUMPDEST DUP3 DUP3 LT PUSH2 0x2109 JUMPI POP POP SWAP2 PUSH1 0x1 SWAP4 SWAP2 DUP6 PUSH1 0x7 SWAP11 SWAP10 SWAP9 SWAP8 SWAP7 SWAP5 LT PUSH2 0x20F0 JUMPI JUMPDEST POP POP POP DUP2 SHL ADD SWAP1 SSTORE PUSH2 0x201D JUMP JUMPDEST ADD MLOAD PUSH1 0x0 NOT PUSH1 0xF8 DUP5 PUSH1 0x3 SHL AND SHR NOT AND SWAP1 SSTORE DUP13 DUP1 DUP1 PUSH2 0x20E3 JUMP JUMPDEST DUP1 PUSH1 0x1 DUP7 SWAP8 DUP3 SWAP5 SWAP8 DUP8 ADD MLOAD DUP2 SSTORE ADD SWAP7 ADD SWAP5 ADD SWAP1 PUSH2 0x20C6 JUMP JUMPDEST PUSH2 0x214C SWAP2 DUP6 PUSH1 0x0 MSTORE DUP2 PUSH1 0x0 KECCAK256 SWAP1 PUSH1 0x1F DUP7 ADD PUSH1 0x5 SHR DUP3 ADD SWAP3 DUP7 LT PUSH2 0x2153 JUMPI JUMPDEST PUSH1 0x1F ADD PUSH1 0x5 SHR ADD SWAP1 PUSH2 0x23D6 JUMP JUMPDEST DUP12 DUP12 PUSH2 0x1FE8 JUMP JUMPDEST SWAP1 SWAP2 POP DUP2 SWAP1 PUSH2 0x213F JUMP JUMPDEST DUP4 PUSH4 0x4E487B71 PUSH1 0xE0 SHL PUSH1 0x0 MSTORE PUSH1 0x11 PUSH1 0x4 MSTORE PUSH1 0x0 REVERT JUMPDEST PUSH1 0x40 MLOAD PUSH3 0x461BCD PUSH1 0xE5 SHL DUP2 MSTORE PUSH1 0x4 DUP2 ADD DUP12 SWAP1 MSTORE PUSH1 0x14 DUP2 DUP5 ADD MSTORE PUSH20 0x4372656469742073636F726520746F6F206C6F77 PUSH1 0x60 SHL PUSH1 0x44 DUP3 ADD MSTORE PUSH1 0x64 SWAP1 REVERT JUMPDEST PUSH1 0x40 MLOAD PUSH3 0x461BCD PUSH1 0xE5 SHL DUP2 MSTORE PUSH1 0x4 DUP2 ADD DUP12 SWAP1 MSTORE PUSH1 0x14 DUP2 DUP5 ADD MSTORE PUSH20 0x109BDC9C9BDDD95C88189B1858DADB1A5CDD1959 PUSH1 0x62 SHL PUSH1 0x44 DUP3 ADD MSTORE PUSH1 0x64 SWAP1 REVERT JUMPDEST POP PUSH2 0x16D DUP8 GT ISZERO PUSH2 0x1EDE JUMP JUMPDEST POP PUSH1 0xC SLOAD DUP9 GT ISZERO PUSH2 0x1ECC JUMP JUMPDEST CALLVALUE PUSH2 0x1CA JUMPI PUSH1 0x0 CALLDATASIZE PUSH1 0x3 NOT ADD SLT PUSH2 0x1CA JUMPI PUSH1 0x20 SWAP1 PUSH1 0xE SLOAD DUP2 MSTORE RETURN JUMPDEST PUSH1 0x4 CALLDATALOAD SWAP1 PUSH1 0x1 PUSH1 0x1 PUSH1 0xA0 SHL SUB DUP3 AND DUP3 SUB PUSH2 0x1CA JUMPI JUMP JUMPDEST SWAP1 PUSH1 0x1F DUP1 NOT SWAP2 ADD AND DUP2 ADD SWAP1 DUP2 LT PUSH8 0xFFFFFFFFFFFFFFFF DUP3 GT OR PUSH2 0x2253 JUMPI PUSH1 0x40 MSTORE JUMP JUMPDEST PUSH4 0x4E487B71 PUSH1 0xE0 SHL PUSH1 0x0 MSTORE PUSH1 0x41 PUSH1 0x4 MSTORE PUSH1 0x24 PUSH1 0x0 REVERT JUMPDEST PUSH8 0xFFFFFFFFFFFFFFFF DUP2 GT PUSH2 0x2253 JUMPI PUSH1 0x1F ADD PUSH1 0x1F NOT AND PUSH1 0x20 ADD SWAP1 JUMP JUMPDEST DUP1 SLOAD DUP3 LT ISZERO PUSH2 0x229D JUMPI PUSH1 0x0 MSTORE PUSH1 0x20 PUSH1 0x0 KECCAK256 ADD SWAP1 PUSH1 0x0 SWAP1 JUMP JUMPDEST PUSH4 0x4E487B71 PUSH1 0xE0 SHL PUSH1 0x0 MSTORE PUSH1 0x32 PUSH1 0x4 MSTORE PUSH1 0x24 PUSH1 0x0 REVERT JUMPDEST SWAP1 PUSH1 0x6 DUP3 LT ISZERO PUSH2 0x44E JUMPI MSTORE JUMP JUMPDEST PUSH1 0x40 SWAP1 PUSH1 0x3 NOT ADD SLT PUSH2 0x1CA JUMPI PUSH1 0x4 CALLDATALOAD SWAP1 PUSH1 0x24 CALLDATALOAD SWAP1 JUMP JUMPDEST PUSH8 0xFFFFFFFFFFFFFFFF DUP2 GT PUSH2 0x2253 JUMPI PUSH1 0x5 SHL PUSH1 0x20 ADD SWAP1 JUMP JUMPDEST SWAP1 PUSH1 0x1 DUP3 DUP2 SHR SWAP3 AND DUP1 ISZERO PUSH2 0x231E JUMPI JUMPDEST PUSH1 0x20 DUP4 LT EQ PUSH2 0x2308 JUMPI JUMP JUMPDEST PUSH4 0x4E487B71 PUSH1 0xE0 SHL PUSH1 0x0 MSTORE PUSH1 0x22 PUSH1 0x4 MSTORE PUSH1 0x24 PUSH1 0x0 REVERT JUMPDEST SWAP2 PUSH1 0x7F AND SWAP2 PUSH2 0x22FD JUMP JUMPDEST SWAP2 SWAP1 DUP3 MLOAD SWAP3 DUP4 DUP3 MSTORE PUSH1 0x0 JUMPDEST DUP5 DUP2 LT PUSH2 0x2354 JUMPI POP POP DUP3 PUSH1 0x0 PUSH1 0x20 DUP1 SWAP5 SWAP6 DUP5 ADD ADD MSTORE PUSH1 0x1F DUP1 NOT SWAP2 ADD AND ADD ADD SWAP1 JUMP JUMPDEST PUSH1 0x20 DUP2 DUP4 ADD DUP2 ADD MLOAD DUP5 DUP4 ADD DUP3 ADD MSTORE ADD PUSH2 0x2333 JUMP JUMPDEST PUSH1 0x1 SLOAD PUSH1 0x8 SHR PUSH1 0x1 PUSH1 0x1 PUSH1 0xA0 SHL SUB AND CALLER SUB PUSH2 0x237F JUMPI JUMP JUMPDEST PUSH1 0x64 PUSH1 0x40 MLOAD PUSH3 0x461BCD PUSH1 0xE5 SHL DUP2 MSTORE PUSH1 0x20 PUSH1 0x4 DUP3 ADD MSTORE PUSH1 0x20 PUSH1 0x24 DUP3 ADD MSTORE PUSH32 0x4F776E61626C653A2063616C6C6572206973206E6F7420746865206F776E6572 PUSH1 0x44 DUP3 ADD MSTORE REVERT JUMPDEST DUP2 DUP2 MUL SWAP3 SWAP2 DUP2 ISZERO SWAP2 DUP5 DIV EQ OR ISZERO PUSH2 0x3AE JUMPI JUMP JUMPDEST DUP2 DUP2 LT PUSH2 0x23E1 JUMPI POP POP JUMP JUMPDEST PUSH1 0x0 DUP2 SSTORE PUSH1 0x1 ADD PUSH2 0x23D6 JUMP JUMPDEST ISZERO PUSH2 0x23F4 JUMPI JUMP JUMPDEST PUSH1 0x40 MLOAD PUSH3 0x461BCD PUSH1 0xE5 SHL DUP2 MSTORE PUSH1 0x20 PUSH1 0x4 DUP3 ADD MSTORE PUSH1 0x17 PUSH1 0x24 DUP3 ADD MSTORE PUSH32 0x4E6F7420612072656769737465726564206C656E646572000000000000000000 PUSH1 0x44 DUP3 ADD MSTORE PUSH1 0x64 SWAP1 REVERT JUMPDEST ISZERO PUSH2 0x2440 JUMPI JUMP JUMPDEST PUSH1 0x40 MLOAD PUSH3 0x461BCD PUSH1 0xE5 SHL DUP2 MSTORE PUSH1 0x20 PUSH1 0x4 DUP3 ADD MSTORE PUSH1 0x1D PUSH1 0x24 DUP3 ADD MSTORE PUSH32 0x416D6F756E74206D7573742062652067726561746572207468616E2030000000 PUSH1 0x44 DUP3 ADD MSTORE PUSH1 0x64 SWAP1 REVERT JUMPDEST PUSH1 0x2 PUSH1 0x0 SLOAD EQ PUSH2 0x2496 JUMPI PUSH1 0x2 PUSH1 0x0 SSTORE JUMP JUMPDEST PUSH1 0x40 MLOAD PUSH3 0x461BCD PUSH1 0xE5 SHL DUP2 MSTORE PUSH1 0x20 PUSH1 0x4 DUP3 ADD MSTORE PUSH1 0x1F PUSH1 0x24 DUP3 ADD MSTORE PUSH32 0x5265656E7472616E637947756172643A207265656E7472616E742063616C6C00 PUSH1 0x44 DUP3 ADD MSTORE PUSH1 0x64 SWAP1 REVERT JUMPDEST PUSH1 0x40 MLOAD PUSH4 0x23B872DD PUSH1 0xE0 SHL PUSH1 0x20 DUP3 ADD MSTORE PUSH1 0x1 PUSH1 0x1 PUSH1 0xA0 SHL SUB SWAP3 DUP4 AND PUSH1 0x24 DUP3 ADD MSTORE SWAP3 SWAP1 SWAP2 AND PUSH1 0x44 DUP4 ADD MSTORE PUSH1 0x64 DUP1 DUP4 ADD SWAP4 SWAP1 SWAP4 MSTORE SWAP2 DUP2 MSTORE PUSH1 0xA0 DUP2 ADD SWAP2 DUP2 DUP4 LT PUSH8 0xFFFFFFFFFFFFFFFF DUP5 GT OR PUSH2 0x2253 JUMPI PUSH2 0x2534 SWAP3 PUSH1 0x40 MSTORE PUSH2 0x2536 JUMP JUMPDEST JUMP JUMPDEST PUSH1 0x1 DUP1 PUSH1 0xA0 SHL SUB AND SWAP1 PUSH1 0x40 MLOAD PUSH1 0x40 DUP2 ADD SWAP1 DUP1 DUP3 LT PUSH8 0xFFFFFFFFFFFFFFFF DUP4 GT OR PUSH2 0x2253 JUMPI PUSH2 0x25C6 SWAP2 PUSH1 0x40 MSTORE PUSH1 0x20 SWAP4 DUP5 DUP3 MSTORE PUSH32 0x5361666545524332303A206C6F772D6C6576656C2063616C6C206661696C6564 DUP6 DUP4 ADD MSTORE PUSH1 0x0 DUP1 DUP6 DUP8 DUP3 SWAP8 MLOAD SWAP2 ADD DUP3 DUP6 GAS CALL RETURNDATASIZE ISZERO PUSH2 0x2663 JUMPI RETURNDATASIZE SWAP2 PUSH2 0x25AB DUP4 PUSH2 0x2269 JUMP JUMPDEST SWAP3 PUSH2 0x25B9 PUSH1 0x40 MLOAD SWAP5 DUP6 PUSH2 0x2231 JUMP JUMPDEST DUP4 MSTORE RETURNDATASIZE DUP7 DUP9 DUP6 ADD RETURNDATACOPY PUSH2 0x2667 JUMP JUMPDEST DUP1 MLOAD SWAP2 DUP3 ISZERO SWAP2 DUP5 DUP4 ISZERO PUSH2 0x2638 JUMPI JUMPDEST POP POP POP SWAP1 POP ISZERO PUSH2 0x25E1 JUMPI POP JUMP JUMPDEST PUSH1 0x84 SWAP1 PUSH1 0x40 MLOAD SWAP1 PUSH3 0x461BCD PUSH1 0xE5 SHL DUP3 MSTORE PUSH1 0x4 DUP3 ADD MSTORE PUSH1 0x2A PUSH1 0x24 DUP3 ADD MSTORE PUSH32 0x5361666545524332303A204552433230206F7065726174696F6E20646964206E PUSH1 0x44 DUP3 ADD MSTORE PUSH10 0x1BDD081CDD58D8D95959 PUSH1 0xB2 SHL PUSH1 0x64 DUP3 ADD MSTORE REVERT JUMPDEST SWAP2 SWAP4 DUP2 DUP1 SWAP5 POP ADD SUB SLT PUSH2 0x265F JUMPI DUP3 ADD MLOAD SWAP1 DUP2 ISZERO ISZERO DUP3 SUB PUSH2 0x265C JUMPI POP DUP1 CODESIZE DUP1 DUP5 PUSH2 0x25D4 JUMP JUMPDEST DUP1 REVERT JUMPDEST POP DUP1 REVERT JUMPDEST PUSH1 0x60 SWAP2 JUMPDEST SWAP2 SWAP3 SWAP1 ISZERO PUSH2 0x26C9 JUMPI POP DUP2 MLOAD ISZERO PUSH2 0x267B JUMPI POP SWAP1 JUMP JUMPDEST EXTCODESIZE ISZERO PUSH2 0x2684 JUMPI SWAP1 JUMP JUMPDEST PUSH1 0x40 MLOAD PUSH3 0x461BCD PUSH1 0xE5 SHL DUP2 MSTORE PUSH1 0x20 PUSH1 0x4 DUP3 ADD MSTORE PUSH1 0x1D PUSH1 0x24 DUP3 ADD MSTORE PUSH32 0x416464726573733A2063616C6C20746F206E6F6E2D636F6E7472616374000000 PUSH1 0x44 DUP3 ADD MSTORE PUSH1 0x64 SWAP1 REVERT JUMPDEST DUP3 MLOAD SWAP1 SWAP2 POP ISZERO PUSH2 0x26DC JUMPI POP DUP1 MLOAD SWAP1 PUSH1 0x20 ADD REVERT JUMPDEST PUSH1 0x40 MLOAD PUSH3 0x461BCD PUSH1 0xE5 SHL DUP2 MSTORE PUSH1 0x20 PUSH1 0x4 DUP3 ADD MSTORE SWAP1 DUP2 SWAP1 PUSH2 0x2700 SWAP1 PUSH1 0x24 DUP4 ADD SWAP1 PUSH2 0x2328 JUMP JUMPDEST SUB SWAP1 REVERT JUMPDEST SWAP2 SWAP1 DUP3 ADD DUP1 SWAP3 GT PUSH2 0x3AE JUMPI JUMP JUMPDEST PUSH1 0x40 MLOAD PUSH4 0xA9059CBB PUSH1 0xE0 SHL PUSH1 0x20 DUP3 ADD MSTORE PUSH1 0x1 PUSH1 0x1 PUSH1 0xA0 SHL SUB SWAP1 SWAP3 AND PUSH1 0x24 DUP4 ADD MSTORE PUSH1 0x44 DUP1 DUP4 ADD SWAP4 SWAP1 SWAP4 MSTORE SWAP2 DUP2 MSTORE PUSH1 0x80 DUP2 ADD SWAP2 PUSH8 0xFFFFFFFFFFFFFFFF DUP4 GT DUP3 DUP5 LT OR PUSH2 0x2253 JUMPI PUSH2 0x2534 SWAP3 PUSH1 0x40 MSTORE PUSH2 0x2536 JUMP JUMPDEST SWAP2 SWAP1 DUP3 SUB SWAP2 DUP3 GT PUSH2 0x3AE JUMPI JUMP JUMPDEST ISZERO PUSH2 0x2775 JUMPI JUMP JUMPDEST PUSH1 0x40 MLOAD PUSH3 0x461BCD PUSH1 0xE5 SHL DUP2 MSTORE PUSH1 0x20 PUSH1 0x4 DUP3 ADD MSTORE PUSH1 0x13 PUSH1 0x24 DUP3 ADD MSTORE PUSH19 0x125B9D985B1A59081B1BD85B88185B5BDD5B9D PUSH1 0x6A SHL PUSH1 0x44 DUP3 ADD MSTORE PUSH1 0x64 SWAP1 REVERT JUMPDEST ISZERO PUSH2 0x27B7 JUMPI JUMP JUMPDEST PUSH1 0x40 MLOAD PUSH3 0x461BCD PUSH1 0xE5 SHL DUP2 MSTORE PUSH1 0x20 PUSH1 0x4 DUP3 ADD MSTORE PUSH1 0x15 PUSH1 0x24 DUP3 ADD MSTORE PUSH21 0x496E76616C696420696E7465726573742072617465 PUSH1 0x58 SHL PUSH1 0x44 DUP3 ADD MSTORE PUSH1 0x64 SWAP1 REVERT JUMPDEST ISZERO PUSH2 0x27FB JUMPI JUMP JUMPDEST PUSH1 0x40 MLOAD PUSH3 0x461BCD PUSH1 0xE5 SHL DUP2 MSTORE PUSH1 0x20 PUSH1 0x4 DUP3 ADD MSTORE PUSH1 0x10 PUSH1 0x24 DUP3 ADD MSTORE PUSH16 0x24B73B30B634B210323AB930BA34B7B7 PUSH1 0x81 SHL PUSH1 0x44 DUP3 ADD MSTORE PUSH1 0x64 SWAP1 REVERT JUMPDEST ISZERO PUSH2 0x283A JUMPI JUMP JUMPDEST PUSH1 0x40 MLOAD PUSH3 0x461BCD PUSH1 0xE5 SHL DUP2 MSTORE PUSH1 0x20 PUSH1 0x4 DUP3 ADD MSTORE PUSH1 0x14 PUSH1 0x24 DUP3 ADD MSTORE PUSH20 0x496E76616C6964206372656469742073636F7265 PUSH1 0x60 SHL PUSH1 0x44 DUP3 ADD MSTORE PUSH1 0x64 SWAP1 REVERT JUMPDEST PUSH1 0x0 NOT DUP2 EQ PUSH2 0x3AE JUMPI PUSH1 0x1 ADD SWAP1 JUMP JUMPDEST DUP1 SLOAD PUSH1 0x1 PUSH1 0x40 SHL DUP2 LT ISZERO PUSH2 0x2253 JUMPI PUSH2 0x28A2 SWAP2 PUSH1 0x1 DUP3 ADD DUP2 SSTORE PUSH2 0x2285 JUMP JUMPDEST DUP2 SWAP3 SWAP2 SLOAD SWAP1 PUSH1 0x3 SHL SWAP2 DUP3 SHL SWAP2 PUSH1 0x0 NOT SWAP1 SHL NOT AND OR SWAP1 SSTORE JUMP JUMPDEST PUSH1 0xFF PUSH1 0x1 SLOAD AND PUSH2 0x28C6 JUMPI JUMP JUMPDEST PUSH1 0x40 MLOAD PUSH3 0x461BCD PUSH1 0xE5 SHL DUP2 MSTORE PUSH1 0x20 PUSH1 0x4 DUP3 ADD MSTORE PUSH1 0x10 PUSH1 0x24 DUP3 ADD MSTORE PUSH16 0x14185D5CD8589B194E881C185D5CD959 PUSH1 0x82 SHL PUSH1 0x44 DUP3 ADD MSTORE PUSH1 0x64 SWAP1 REVERT JUMPDEST DUP2 ISZERO PUSH2 0x2908 JUMPI DIV SWAP1 JUMP JUMPDEST PUSH4 0x4E487B71 PUSH1 0xE0 SHL PUSH1 0x0 MSTORE PUSH1 0x12 PUSH1 0x4 MSTORE PUSH1 0x24 PUSH1 0x0 REVERT JUMPDEST ISZERO PUSH2 0x2925 JUMPI JUMP JUMPDEST PUSH1 0x40 MLOAD PUSH3 0x461BCD PUSH1 0xE5 SHL DUP2 MSTORE PUSH1 0x20 PUSH1 0x4 DUP3 ADD MSTORE PUSH1 0x13 PUSH1 0x24 DUP3 ADD MSTORE PUSH19 0x131BD85B88191BD95CC81B9BDD08195E1A5CDD PUSH1 0x6A SHL PUSH1 0x44 DUP3 ADD MSTORE PUSH1 0x64 SWAP1 REVERT JUMPDEST ISZERO PUSH2 0x2967 JUMPI JUMP JUMPDEST PUSH1 0x40 MLOAD PUSH3 0x461BCD PUSH1 0xE5 SHL DUP2 MSTORE PUSH1 0x20 PUSH1 0x4 DUP3 ADD MSTORE PUSH1 0x10 PUSH1 0x24 DUP3 ADD MSTORE PUSH16 0x2737BA103A3432903137B93937BBB2B9 PUSH1 0x81 SHL PUSH1 0x44 DUP3 ADD MSTORE PUSH1 0x64 SWAP1 REVERT JUMPDEST ISZERO PUSH2 0x29A6 JUMPI JUMP JUMPDEST PUSH1 0x40 MLOAD PUSH3 0x461BCD PUSH1 0xE5 SHL DUP2 MSTORE PUSH1 0x20 PUSH1 0x4 DUP3 ADD MSTORE PUSH1 0x11 PUSH1 0x24 DUP3 ADD MSTORE PUSH17 0x131BD85B881B9BDD08185C1C1C9BDD9959 PUSH1 0x7A SHL PUSH1 0x44 DUP3 ADD MSTORE PUSH1 0x64 SWAP1 REVERT JUMPDEST PUSH32 0xEA9CCE54FC29194E0A726C8D4D5462633F965462664714B80CE5C52D3F94B960 PUSH1 0x0 DUP3 DUP2 MSTORE PUSH1 0x20 SWAP1 PUSH1 0x2 DUP3 MSTORE PUSH1 0x40 DUP3 PUSH1 0x2 DUP3 DUP1 DUP6 KECCAK256 SWAP5 PUSH2 0x2B26 DUP4 DUP8 ADD PUSH1 0x1 DUP1 PUSH1 0xA0 SHL SUB SWAP1 DUP2 DUP1 DUP3 SLOAD AND SWAP10 DUP11 DUP7 MSTORE PUSH1 0x4 DUP10 MSTORE PUSH1 0x8 DUP8 DUP8 KECCAK256 ADD SWAP11 PUSH1 0x3 DUP3 ADD SWAP12 DUP4 DUP14 SLOAD AND SWAP1 DUP2 DUP10 MSTORE DUP12 MSTORE PUSH1 0x4 DUP10 DUP10 KECCAK256 SLOAD SWAP12 PUSH2 0x2A5D DUP3 DUP7 ADD SWAP14 DUP15 SLOAD SWAP1 PUSH2 0x2761 JUMP JUMPDEST SWAP4 DUP11 MSTORE MSTORE PUSH1 0x8 DUP10 DUP10 KECCAK256 ADD SWAP1 DUP9 MSTORE DUP14 MSTORE DUP8 DUP8 KECCAK256 SSTORE DUP9 SLOAD SWAP1 PUSH2 0x2A8D PUSH2 0x2710 PUSH2 0x2A85 PUSH1 0xA SLOAD DUP6 PUSH2 0x23C3 JUMP JUMPDEST DIV DUP1 SWAP4 PUSH2 0x2761 JUMP JUMPDEST SWAP12 DUP13 SWAP3 PUSH2 0x2AA7 DUP6 DUP4 SLOAD AND SWAP5 PUSH1 0x1 DUP6 ADD SWAP6 DUP8 DUP8 SLOAD AND SWAP1 PUSH2 0x2711 JUMP JUMPDEST DUP5 DUP2 PUSH2 0x2B37 JUMPI JUMPDEST POP POP POP PUSH1 0xC DUP2 ADD PUSH1 0x3 PUSH1 0xFF NOT DUP3 SLOAD AND OR SWAP1 SSTORE TIMESTAMP PUSH1 0xA DUP3 ADD SSTORE PUSH1 0xB PUSH2 0x2AD4 PUSH1 0xE SLOAD TIMESTAMP PUSH2 0x2704 JUMP JUMPDEST SWAP2 ADD SSTORE DUP2 DUP2 SLOAD AND DUP1 DUP8 MSTORE PUSH1 0x3 DUP14 MSTORE PUSH2 0x2AF4 PUSH1 0x1 DUP10 DUP10 KECCAK256 ADD SLOAD DUP12 SLOAD SWAP1 PUSH2 0x2704 JUMP JUMPDEST SWAP1 DUP8 MSTORE PUSH1 0x3 DUP14 MSTORE PUSH1 0x1 DUP9 DUP9 KECCAK256 ADD SSTORE SLOAD AND DUP5 MSTORE TIMESTAMP PUSH1 0x6 DUP7 DUP7 KECCAK256 ADD SSTORE SLOAD AND SWAP5 DUP6 DUP4 MSTORE PUSH1 0x4 DUP10 MSTORE DUP5 DUP5 DUP5 KECCAK256 ADD SLOAD SWAP1 SLOAD SWAP1 PUSH2 0x2704 JUMP JUMPDEST SWAP4 DUP2 MSTORE PUSH1 0x4 DUP8 MSTORE KECCAK256 ADD SSTORE MLOAD SWAP1 DUP2 MSTORE LOG2 JUMP JUMPDEST PUSH2 0x2B48 SWAP3 SLOAD AND DUP6 PUSH1 0xF SLOAD AND SWAP1 PUSH2 0x2711 JUMP JUMPDEST CODESIZE DUP1 DUP5 PUSH2 0x2AAE JUMP JUMPDEST ISZERO PUSH2 0x2B57 JUMPI JUMP JUMPDEST PUSH1 0x40 MLOAD PUSH3 0x461BCD PUSH1 0xE5 SHL DUP2 MSTORE PUSH1 0x20 PUSH1 0x4 DUP3 ADD MSTORE PUSH1 0xF PUSH1 0x24 DUP3 ADD MSTORE PUSH15 0x4C6F616E206E6F7420616374697665 PUSH1 0x88 SHL PUSH1 0x44 DUP3 ADD MSTORE PUSH1 0x64 SWAP1 REVERT JUMPDEST DUP1 ISZERO PUSH2 0x3AE JUMPI PUSH1 0x0 NOT ADD SWAP1 JUMP INVALID LOG2 PUSH5 0x6970667358 0x22 SLT KECCAK256 0xC9 0xE PUSH18 0x2386350AC1063F85F595EB1970C4000841EB 0xF9 PUSH16 0x840EAFE11DE386A3B564736F6C634300 ADDMOD SGT STOP CALLER "},"methodIdentifiers":{"approveLoan(uint256,uint256)":"7a646492","borrowerLoans(address,uint256)":"e3ed1902","borrowers(address)":"bf5d50c4","createLoanOffer(uint256,uint256,uint256,uint256,uint8[])":"e57330df","creditScoringOracle()":"7deb256f","depositCollateral(uint256,uint256)":"ece13732","depositFunds(address,uint256)":"921b004b","feeReceiver()":"b3f00674","fundLoan(uint256)":"846b909a","getBorrowerInfo(address)":"6f653e3a","getLenderFunds(address,address)":"53e26173","getLoanDetails(uint256)":"66877b8d","installmentPeriod()":"03eebec4","latePenaltyRate()":"ff3c475b","lenderLoans(address,uint256)":"3cdb72f1","lenders(address)":"28fd10d7","loanOffers(uint256)":"2c7bdd4b","loans(uint256)":"e1ec3c68","makeRepayment(uint256)":"d37415fe","markLoanDefaulted(uint256)":"d92d7d77","maxLoanAmount()":"72f94365","minCreditScore()":"76f79b10","nextLoanId()":"87c51459","nextOfferId()":"5f5d0655","owner()":"8da5cb5b","pause()":"8456cb59","paused()":"5c975abb","platformFee()":"26232a2e","registerLender(uint256,address[])":"881805be","renounceOwnership()":"715018a6","requestLoan(address,uint256,uint256,uint8,string,bool)":"23cdc1e9","transferOwnership(address)":"f2fde38b","unpause()":"3f4ba83a","updateCreditScore(address,uint256)":"65352f9d","updateSettings(uint256,uint256,uint256,uint256)":"715d4800","withdrawFunds(address,uint256)":"c1075329"}},"storageLayout":{"storage":[{"astId":256,"contract":"contracts/MicroloanSystem.sol:MicroloanSystem","label":"_status","offset":0,"slot":"0","type":"t_uint256"},{"astId":155,"contract":"contracts/MicroloanSystem.sol:MicroloanSystem","label":"_paused","offset":0,"slot":"1","type":"t_bool"},{"astId":7,"contract":"contracts/MicroloanSystem.sol:MicroloanSystem","label":"_owner","offset":1,"slot":"1","type":"t_address"},{"astId":4678,"contract":"contracts/MicroloanSystem.sol:MicroloanSystem","label":"loans","offset":0,"slot":"2","type":"t_mapping(t_uint256,t_struct(Loan)4617_storage)"},{"astId":4683,"contract":"contracts/MicroloanSystem.sol:MicroloanSystem","label":"borrowers","offset":0,"slot":"3","type":"t_mapping(t_address,t_struct(Borrower)4634_storage)"},{"astId":4688,"contract":"contracts/MicroloanSystem.sol:MicroloanSystem","label":"lenders","offset":0,"slot":"4","type":"t_mapping(t_address,t_struct(Lender)4656_storage)"},{"astId":4693,"contract":"contracts/MicroloanSystem.sol:MicroloanSystem","label":"loanOffers","offset":0,"slot":"5","type":"t_mapping(t_uint256,t_struct(LoanOffer)4673_storage)"},{"astId":4698,"contract":"contracts/MicroloanSystem.sol:MicroloanSystem","label":"borrowerLoans","offset":0,"slot":"6","type":"t_mapping(t_address,t_array(t_uint256)dyn_storage)"},{"astId":4703,"contract":"contracts/MicroloanSystem.sol:MicroloanSystem","label":"lenderLoans","offset":0,"slot":"7","type":"t_mapping(t_address,t_array(t_uint256)dyn_storage)"},{"astId":4706,"contract":"contracts/MicroloanSystem.sol:MicroloanSystem","label":"nextLoanId","offset":0,"slot":"8","type":"t_uint256"},{"astId":4709,"contract":"contracts/MicroloanSystem.sol:MicroloanSystem","label":"nextOfferId","offset":0,"slot":"9","type":"t_uint256"},{"astId":4712,"contract":"contracts/MicroloanSystem.sol:MicroloanSystem","label":"platformFee","offset":0,"slot":"10","type":"t_uint256"},{"astId":4715,"contract":"contracts/MicroloanSystem.sol:MicroloanSystem","label":"latePenaltyRate","offset":0,"slot":"11","type":"t_uint256"},{"astId":4722,"contract":"contracts/MicroloanSystem.sol:MicroloanSystem","label":"maxLoanAmount","offset":0,"slot":"12","type":"t_uint256"},{"astId":4725,"contract":"contracts/MicroloanSystem.sol:MicroloanSystem","label":"minCreditScore","offset":0,"slot":"13","type":"t_uint256"},{"astId":4728,"contract":"contracts/MicroloanSystem.sol:MicroloanSystem","label":"installmentPeriod","offset":0,"slot":"14","type":"t_uint256"},{"astId":4730,"contract":"contracts/MicroloanSystem.sol:MicroloanSystem","label":"feeReceiver","offset":0,"slot":"15","type":"t_address"},{"astId":4732,"contract":"contracts/MicroloanSystem.sol:MicroloanSystem","label":"creditScoringOracle","offset":0,"slot":"16","type":"t_address"}],"types":{"t_address":{"encoding":"inplace","label":"address","numberOfBytes":"20"},"t_array(t_address)dyn_storage":{"base":"t_address","encoding":"dynamic_array","label":"address[]","numberOfBytes":"32"},"t_array(t_enum(LoanType)4574)dyn_storage":{"base":"t_enum(LoanType)4574","encoding":"dynamic_array","label":"enum MicroloanSystem.LoanType[]","numberOfBytes":"32"},"t_array(t_uint256)dyn_storage":{"base":"t_uint256","encoding":"dynamic_array","label":"uint256[]","numberOfBytes":"32"},"t_bool":{"encoding":"inplace","label":"bool","numberOfBytes":"1"},"t_enum(LoanStatus)4569":{"encoding":"inplace","label":"enum MicroloanSystem.LoanStatus","numberOfBytes":"1"},"t_enum(LoanType)4574":{"encoding":"inplace","label":"enum MicroloanSystem.LoanType","numberOfBytes":"1"},"t_mapping(t_address,t_array(t_uint256)dyn_storage)":{"encoding":"mapping","key":"t_address","label":"mapping(address => uint256[])","numberOfBytes":"32","value":"t_array(t_uint256)dyn_storage"},"t_mapping(t_address,t_struct(Borrower)4634_storage)":{"encoding":"mapping","key":"t_address","label":"mapping(address => struct MicroloanSystem.Borrower)","numberOfBytes":"32","value":"t_struct(Borrower)4634_storage"},"t_mapping(t_address,t_struct(Lender)4656_storage)":{"encoding":"mapping","key":"t_address","label":"mapping(address => struct MicroloanSystem.Lender)","numberOfBytes":"32","value":"t_struct(Lender)4656_storage"},"t_mapping(t_address,t_uint256)":{"encoding":"mapping","key":"t_address","label":"mapping(address => uint256)","numberOfBytes":"32","value":"t_uint256"},"t_mapping(t_uint256,t_struct(Loan)4617_storage)":{"encoding":"mapping","key":"t_uint256","label":"mapping(uint256 => struct MicroloanSystem.Loan)","numberOfBytes":"32","value":"t_struct(Loan)4617_storage"},"t_mapping(t_uint256,t_struct(LoanOffer)4673_storage)":{"encoding":"mapping","key":"t_uint256","label":"mapping(uint256 => struct MicroloanSystem.LoanOffer)","numberOfBytes":"32","value":"t_struct(LoanOffer)4673_storage"},"t_string_storage":{"encoding":"bytes","label":"string","numberOfBytes":"32"},"t_struct(Borrower)4634_storage":{"encoding":"inplace","label":"struct MicroloanSystem.Borrower","members":[{"astId":4619,"contract":"contracts/MicroloanSystem.sol:MicroloanSystem","label":"creditScore","offset":0,"slot":"0","type":"t_uint256"},{"astId":4621,"contract":"contracts/MicroloanSystem.sol:MicroloanSystem","label":"totalBorrowed","offset":0,"slot":"1","type":"t_uint256"},{"astId":4623,"contract":"contracts/MicroloanSystem.sol:MicroloanSystem","label":"totalRepaid","offset":0,"slot":"2","type":"t_uint256"},{"astId":4625,"contract":"contracts/MicroloanSystem.sol:MicroloanSystem","label":"activeLoans","offset":0,"slot":"3","type":"t_uint256"},{"astId":4627,"contract":"contracts/MicroloanSystem.sol:MicroloanSystem","label":"completedLoans","offset":0,"slot":"4","type":"t_uint256"},{"astId":4629,"contract":"contracts/MicroloanSystem.sol:MicroloanSystem","label":"defaultedLoans","offset":0,"slot":"5","type":"t_uint256"},{"astId":4631,"contract":"contracts/MicroloanSystem.sol:MicroloanSystem","label":"lastLoanTime","offset":0,"slot":"6","type":"t_uint256"},{"astId":4633,"contract":"contracts/MicroloanSystem.sol:MicroloanSystem","label":"isBlacklisted","offset":0,"slot":"7","type":"t_bool"}],"numberOfBytes":"256"},"t_struct(Lender)4656_storage":{"encoding":"inplace","label":"struct MicroloanSystem.Lender","members":[{"astId":4636,"contract":"contracts/MicroloanSystem.sol:MicroloanSystem","label":"isRegistered","offset":0,"slot":"0","type":"t_bool"},{"astId":4638,"contract":"contracts/MicroloanSystem.sol:MicroloanSystem","label":"fundingCapacity","offset":0,"slot":"1","type":"t_uint256"},{"astId":4640,"contract":"contracts/MicroloanSystem.sol:MicroloanSystem","label":"totalLent","offset":0,"slot":"2","type":"t_uint256"},{"astId":4642,"contract":"contracts/MicroloanSystem.sol:MicroloanSystem","label":"activeLoans","offset":0,"slot":"3","type":"t_uint256"},{"astId":4644,"contract":"contracts/MicroloanSystem.sol:MicroloanSystem","label":"completedLoans","offset":0,"slot":"4","type":"t_uint256"},{"astId":4646,"contract":"contracts/MicroloanSystem.sol:MicroloanSystem","label":"defaultRate","offset":0,"slot":"5","type":"t_uint256"},{"astId":4648,"contract":"contracts/MicroloanSystem.sol:MicroloanSystem","label":"averageReturn","offset":0,"slot":"6","type":"t_uint256"},{"astId":4651,"contract":"contracts/MicroloanSystem.sol:MicroloanSystem","label":"supportedTokens","offset":0,"slot":"7","type":"t_array(t_address)dyn_storage"},{"astId":4655,"contract":"contracts/MicroloanSystem.sol:MicroloanSystem","label":"availableFunds","offset":0,"slot":"8","type":"t_mapping(t_address,t_uint256)"}],"numberOfBytes":"288"},"t_struct(Loan)4617_storage":{"encoding":"inplace","label":"struct MicroloanSystem.Loan","members":[{"astId":4576,"contract":"contracts/MicroloanSystem.sol:MicroloanSystem","label":"loanId","offset":0,"slot":"0","type":"t_uint256"},{"astId":4578,"contract":"contracts/MicroloanSystem.sol:MicroloanSystem","label":"borrower","offset":0,"slot":"1","type":"t_address"},{"astId":4580,"contract":"contracts/MicroloanSystem.sol:MicroloanSystem","label":"lender","offset":0,"slot":"2","type":"t_address"},{"astId":4582,"contract":"contracts/MicroloanSystem.sol:MicroloanSystem","label":"token","offset":0,"slot":"3","type":"t_address"},{"astId":4584,"contract":"contracts/MicroloanSystem.sol:MicroloanSystem","label":"principalAmount","offset":0,"slot":"4","type":"t_uint256"},{"astId":4586,"contract":"contracts/MicroloanSystem.sol:MicroloanSystem","label":"interestRate","offset":0,"slot":"5","type":"t_uint256"},{"astId":4588,"contract":"contracts/MicroloanSystem.sol:MicroloanSystem","label":"duration","offset":0,"slot":"6","type":"t_uint256"},{"astId":4590,"contract":"contracts/MicroloanSystem.sol:MicroloanSystem","label":"installmentAmount","offset":0,"slot":"7","type":"t_uint256"},{"astId":4592,"contract":"contracts/MicroloanSystem.sol:MicroloanSystem","label":"installmentsPaid","offset":0,"slot":"8","type":"t_uint256"},{"astId":4594,"contract":"contracts/MicroloanSystem.sol:MicroloanSystem","label":"totalInstallments","offset":0,"slot":"9","type":"t_uint256"},{"astId":4596,"contract":"contracts/MicroloanSystem.sol:MicroloanSystem","label":"startTime","offset":0,"slot":"10","type":"t_uint256"},{"astId":4598,"contract":"contracts/MicroloanSystem.sol:MicroloanSystem","label":"nextPaymentDue","offset":0,"slot":"11","type":"t_uint256"},{"astId":4601,"contract":"contracts/MicroloanSystem.sol:MicroloanSystem","label":"status","offset":0,"slot":"12","type":"t_enum(LoanStatus)4569"},{"astId":4604,"contract":"contracts/MicroloanSystem.sol:MicroloanSystem","label":"loanType","offset":1,"slot":"12","type":"t_enum(LoanType)4574"},{"astId":4606,"contract":"contracts/MicroloanSystem.sol:MicroloanSystem","label":"purpose","offset":0,"slot":"13","type":"t_string_storage"},{"astId":4608,"contract":"contracts/MicroloanSystem.sol:MicroloanSystem","label":"collateralAmount","offset":0,"slot":"14","type":"t_uint256"},{"astId":4610,"contract":"contracts/MicroloanSystem.sol:MicroloanSystem","label":"requiresCollateral","offset":0,"slot":"15","type":"t_bool"},{"astId":4612,"contract":"contracts/MicroloanSystem.sol:MicroloanSystem","label":"creditScoreRequired","offset":0,"slot":"16","type":"t_uint256"},{"astId":4614,"contract":"contracts/MicroloanSystem.sol:MicroloanSystem","label":"totalRepaid","offset":0,"slot":"17","type":"t_uint256"},{"astId":4616,"contract":"contracts/MicroloanSystem.sol:MicroloanSystem","label":"penaltyAmount","offset":0,"slot":"18","type":"t_uint256"}],"numberOfBytes":"608"},"t_struct(LoanOffer)4673_storage":{"encoding":"inplace","label":"struct MicroloanSystem.LoanOffer","members":[{"astId":4658,"contract":"contracts/MicroloanSystem.sol:MicroloanSystem","label":"lender","offset":0,"slot":"0","type":"t_address"},{"astId":4660,"contract":"contracts/MicroloanSystem.sol:MicroloanSystem","label":"maxAmount","offset":0,"slot":"1","type":"t_uint256"},{"astId":4662,"contract":"contracts/MicroloanSystem.sol:MicroloanSystem","label":"interestRate","offset":0,"slot":"2","type":"t_uint256"},{"astId":4664,"contract":"contracts/MicroloanSystem.sol:MicroloanSystem","label":"maxDuration","offset":0,"slot":"3","type":"t_uint256"},{"astId":4666,"contract":"contracts/MicroloanSystem.sol:MicroloanSystem","label":"minCreditScore","offset":0,"slot":"4","type":"t_uint256"},{"astId":4670,"contract":"contracts/MicroloanSystem.sol:MicroloanSystem","label":"supportedTypes","offset":0,"slot":"5","type":"t_array(t_enum(LoanType)4574)dyn_storage"},{"astId":4672,"contract":"contracts/MicroloanSystem.sol:MicroloanSystem","label":"isActive","offset":0,"slot":"6","type":"t_bool"}],"numberOfBytes":"224"},"t_uint256":{"encoding":"inplace","label":"uint256","numberOfBytes":"32"}}}}}}