{"contracts/VillageWallet.sol":{"VillageWallet":{"abi":[{"inputs":[{"internalType":"address","name":"_feeReceiver","type":"address"}],"stateMutability":"nonpayable","type":"constructor"},{"anonymous":false,"inputs":[{"indexed":true,"internalType":"address","name":"agent","type":"address"},{"indexed":false,"internalType":"string","name":"location","type":"string"},{"indexed":false,"internalType":"uint256","name":"commission","type":"uint256"}],"name":"AgentRegistered","type":"event"},{"anonymous":false,"inputs":[{"indexed":true,"internalType":"address","name":"user","type":"address"},{"indexed":true,"internalType":"address","name":"agent","type":"address"},{"indexed":false,"internalType":"uint256","name":"amount","type":"uint256"},{"indexed":false,"internalType":"bool","name":"isCashIn","type":"bool"}],"name":"CashInOutCompleted","type":"event"},{"anonymous":false,"inputs":[{"indexed":true,"internalType":"address","name":"user","type":"address"},{"indexed":true,"internalType":"address","name":"token","type":"address"},{"indexed":false,"internalType":"uint256","name":"amount","type":"uint256"}],"name":"DepositMade","type":"event"},{"anonymous":false,"inputs":[{"indexed":true,"internalType":"address","name":"previousOwner","type":"address"},{"indexed":true,"internalType":"address","name":"newOwner","type":"address"}],"name":"OwnershipTransferred","type":"event"},{"anonymous":false,"inputs":[{"indexed":false,"internalType":"address","name":"account","type":"address"}],"name":"Paused","type":"event"},{"anonymous":false,"inputs":[{"indexed":true,"internalType":"address","name":"from","type":"address"},{"indexed":true,"internalType":"address","name":"to","type":"address"},{"indexed":true,"internalType":"address","name":"token","type":"address"},{"indexed":false,"internalType":"uint256","name":"amount","type":"uint256"}],"name":"TransferMade","type":"event"},{"anonymous":false,"inputs":[{"indexed":false,"internalType":"address","name":"account","type":"address"}],"name":"Unpaused","type":"event"},{"anonymous":false,"inputs":[{"indexed":true,"internalType":"address","name":"user","type":"address"},{"indexed":false,"internalType":"string","name":"phoneNumber","type":"string"},{"indexed":false,"internalType":"string","name":"country","type":"string"}],"name":"UserRegistered","type":"event"},{"anonymous":false,"inputs":[{"indexed":true,"internalType":"address","name":"user","type":"address"},{"indexed":true,"internalType":"address","name":"token","type":"address"},{"indexed":false,"internalType":"uint256","name":"amount","type":"uint256"}],"name":"WithdrawalMade","type":"event"},{"inputs":[{"internalType":"address","name":"_token","type":"address"}],"name":"addSupportedToken","outputs":[],"stateMutability":"nonpayable","type":"function"},{"inputs":[],"name":"agentCommission","outputs":[{"internalType":"uint256","name":"","type":"uint256"}],"stateMutability":"view","type":"function"},{"inputs":[{"internalType":"address","name":"","type":"address"}],"name":"agents","outputs":[{"internalType":"string","name":"location","type":"string"},{"internalType":"string","name":"businessName","type":"string"},{"internalType":"uint256","name":"commissionRate","type":"uint256"},{"internalType":"bool","name":"isActive","type":"bool"},{"internalType":"uint256","name":"totalVolume","type":"uint256"},{"internalType":"uint256","name":"successfulTransactions","type":"uint256"},{"internalType":"uint256","name":"registrationTime","type":"uint256"}],"stateMutability":"view","type":"function"},{"inputs":[{"internalType":"address","name":"","type":"address"},{"internalType":"address","name":"","type":"address"}],"name":"balances","outputs":[{"internalType":"uint256","name":"available","type":"uint256"},{"internalType":"uint256","name":"locked","type":"uint256"}],"stateMutability":"view","type":"function"},{"inputs":[{"internalType":"address","name":"_user","type":"address"},{"internalType":"address","name":"_token","type":"address"},{"internalType":"uint256","name":"_amount","type":"uint256"}],"name":"cashIn","outputs":[],"stateMutability":"nonpayable","type":"function"},{"inputs":[{"internalType":"address","name":"_agent","type":"address"},{"internalType":"address","name":"_token","type":"address"},{"internalType":"uint256","name":"_amount","type":"uint256"}],"name":"cashOut","outputs":[],"stateMutability":"nonpayable","type":"function"},{"inputs":[],"name":"dailyLimit","outputs":[{"internalType":"uint256","name":"","type":"uint256"}],"stateMutability":"view","type":"function"},{"inputs":[{"internalType":"address","name":"","type":"address"},{"internalType":"uint256","name":"","type":"uint256"}],"name":"dailySpent","outputs":[{"internalType":"uint256","name":"","type":"uint256"}],"stateMutability":"view","type":"function"},{"inputs":[{"internalType":"address","name":"_token","type":"address"},{"internalType":"uint256","name":"_amount","type":"uint256"}],"name":"deposit","outputs":[],"stateMutability":"nonpayable","type":"function"},{"inputs":[{"internalType":"address","name":"_token","type":"address"},{"internalType":"uint256","name":"_amount","type":"uint256"}],"name":"emergencyWithdraw","outputs":[],"stateMutability":"nonpayable","type":"function"},{"inputs":[],"name":"feeReceiver","outputs":[{"internalType":"address","name":"","type":"address"}],"stateMutability":"view","type":"function"},{"inputs":[{"internalType":"address","name":"_user","type":"address"},{"internalType":"address","name":"_token","type":"address"}],"name":"getBalance","outputs":[{"internalType":"uint256","name":"available","type":"uint256"},{"internalType":"uint256","name":"locked","type":"uint256"}],"stateMutability":"view","type":"function"},{"inputs":[],"name":"getSupportedTokens","outputs":[{"internalType":"address[]","name":"","type":"address[]"}],"stateMutability":"view","type":"function"},{"inputs":[{"internalType":"string","name":"_phoneNumber","type":"string"}],"name":"getUserByPhone","outputs":[{"internalType":"address","name":"","type":"address"}],"stateMutability":"view","type":"function"},{"inputs":[],"name":"monthlyLimit","outputs":[{"internalType":"uint256","name":"","type":"uint256"}],"stateMutability":"view","type":"function"},{"inputs":[{"internalType":"address","name":"","type":"address"},{"internalType":"uint256","name":"","type":"uint256"}],"name":"monthlySpent","outputs":[{"internalType":"uint256","name":"","type":"uint256"}],"stateMutability":"view","type":"function"},{"inputs":[],"name":"owner","outputs":[{"internalType":"address","name":"","type":"address"}],"stateMutability":"view","type":"function"},{"inputs":[],"name":"pause","outputs":[],"stateMutability":"nonpayable","type":"function"},{"inputs":[],"name":"paused","outputs":[{"internalType":"bool","name":"","type":"bool"}],"stateMutability":"view","type":"function"},{"inputs":[{"internalType":"string","name":"","type":"string"}],"name":"phoneToAddress","outputs":[{"internalType":"address","name":"","type":"address"}],"stateMutability":"view","type":"function"},{"inputs":[],"name":"platformFee","outputs":[{"internalType":"uint256","name":"","type":"uint256"}],"stateMutability":"view","type":"function"},{"inputs":[{"internalType":"string","name":"_location","type":"string"},{"internalType":"string","name":"_businessName","type":"string"},{"internalType":"uint256","name":"_commissionRate","type":"uint256"}],"name":"registerAgent","outputs":[],"stateMutability":"nonpayable","type":"function"},{"inputs":[{"internalType":"string","name":"_phoneNumber","type":"string"},{"internalType":"string","name":"_country","type":"string"}],"name":"registerUser","outputs":[],"stateMutability":"nonpayable","type":"function"},{"inputs":[{"internalType":"address","name":"_token","type":"address"}],"name":"removeSupportedToken","outputs":[],"stateMutability":"nonpayable","type":"function"},{"inputs":[],"name":"renounceOwnership","outputs":[],"stateMutability":"nonpayable","type":"function"},{"inputs":[{"internalType":"address","name":"","type":"address"}],"name":"supportedTokens","outputs":[{"internalType":"bool","name":"","type":"bool"}],"stateMutability":"view","type":"function"},{"inputs":[{"internalType":"uint256","name":"","type":"uint256"}],"name":"tokenList","outputs":[{"internalType":"address","name":"","type":"address"}],"stateMutability":"view","type":"function"},{"inputs":[{"internalType":"address","name":"_to","type":"address"},{"internalType":"address","name":"_token","type":"address"},{"internalType":"uint256","name":"_amount","type":"uint256"}],"name":"transfer","outputs":[],"stateMutability":"nonpayable","type":"function"},{"inputs":[{"internalType":"address","name":"newOwner","type":"address"}],"name":"transferOwnership","outputs":[],"stateMutability":"nonpayable","type":"function"},{"inputs":[],"name":"unpause","outputs":[],"stateMutability":"nonpayable","type":"function"},{"inputs":[{"internalType":"address","name":"_feeReceiver","type":"address"}],"name":"updateFeeReceiver","outputs":[],"stateMutability":"nonpayable","type":"function"},{"inputs":[{"internalType":"uint256","name":"_dailyLimit","type":"uint256"},{"internalType":"uint256","name":"_monthlyLimit","type":"uint256"}],"name":"updateLimits","outputs":[],"stateMutability":"nonpayable","type":"function"},{"inputs":[{"internalType":"uint256","name":"_platformFee","type":"uint256"}],"name":"updatePlatformFee","outputs":[],"stateMutability":"nonpayable","type":"function"},{"inputs":[{"internalType":"address","name":"","type":"address"}],"name":"users","outputs":[{"internalType":"string","name":"phoneNumber","type":"string"},{"internalType":"string","name":"country","type":"string"},{"internalType":"bool","name":"isRegistered","type":"bool"},{"internalType":"bool","name":"isVerified","type":"bool"},{"internalType":"uint256","name":"registrationTime","type":"uint256"},{"internalType":"uint256","name":"totalTransactions","type":"uint256"},{"internalType":"uint256","name":"creditScore","type":"uint256"}],"stateMutability":"view","type":"function"},{"inputs":[{"internalType":"address","name":"_user","type":"address"}],"name":"verifyUser","outputs":[],"stateMutability":"nonpayable","type":"function"},{"inputs":[{"internalType":"address","name":"_token","type":"address"},{"internalType":"uint256","name":"_amount","type":"uint256"}],"name":"withdraw","outputs":[],"stateMutability":"nonpayable","type":"function"}],"evm":{"bytecode":{"linkReferences":{},"object":"6080346100f157601f612a3838819003918201601f19168301916001600160401b038311848410176100f6578084926020946040528339810103126100f157516001600160a01b0390818116908190036100f1576001600081815581546001600160a81b0319811633600881811b610100600160a81b0316929092179094556040519591901c16907f8be0079c531659141344cd1fd0a4f28419497f9722a3daafe3b4186f6b6457e09080a36032600855606460095569021e19e0c9bab2400000600b5569152d02c7e14af6800000600c55600a80546001600160a01b03191691909117905561292b908161010d8239f35b600080fd5b634e487b7160e01b600052604160045260246000fdfe608080604052600436101561001357600080fd5b60003560e01c90816307e2587614611f90575080630a6005da14611f725780631d2e4afd14611ac1578063230e7c32146104d857806326232a2e14611aa35780633f4ba83a14611a4c57806347e7ef241461191e5780634d813120146118b6578063593ee5be146118985780635c975abb1461187557806367eeba0c1461185757806368c4ac26146118185780636d69fcaf14611752578063715018a6146116f157806376319190146115cf5780637982f5b414611340578063810e4ff0146110d55780638456cb591461107c5780638da5cb5b1461104f5780639061a57f1461100757806395ccea6714610fbb5780639ead722214610f79578063a2240e1914610f52578063a87430ba14610eb2578063aa0b598814610e4b578063b3f0067414610e22578063beabacc814610b79578063c23f001f14610b1f578063c69bebe414610a96578063d3c7c2c7146109ce578063d4fac45d1461095c578063da6b03bc14610540578063eada609d146104d8578063f2fde38b14610404578063f3fef3a31461025c5763fd66091e146101ab57600080fd5b34610257576020366003190112610257576001600160a01b036101cc611fd3565b16600052600360205261022960406000206101e68161217c565b906101f36001820161217c565b60028201549160ff600382015416600482015490610237600660058501549401549460405198899860e08a5260e08a0190612222565b9088820360208a0152612222565b94604087015215156060860152608085015260a084015260c08301520390f35b600080fd5b3461025757604036600319011261025757610275611fd3565b602435906102816123d2565b61028961238e565b33600052602091600283526102ab60ff60026040600020015460081c16612602565b60018060a01b038092169283600052600681526102cf60ff604060002054166122e4565b81156102db8115612342565b336000526004825260406000208560005282526102ff836040600020541015612642565b61031161030c843361275f565b612685565b3360005260048252604060002085600052825261033383604060002054612335565b3360005260048352604060002086600052835260406000205560085490818402918483041417156103ee577f26aabd0b187d03562b9e52195f1ff57274164c7fd5588254b7654cc27dde2b00926127106103ad9204946103938683612335565b9561039f87338a6126d1565b806103d9575b5050336127d3565b336000526002815260046040600020016103c78154612326565b90556040519283523392a36001600055005b6103e791600a5416886126d1565b86806103a5565b634e487b7160e01b600052601160045260246000fd5b346102575760203660031901126102575761041d611fd3565b610425612247565b6001600160a01b038181169182156104845760018054610100600160a81b03198116600893841b610100600160a81b031617909155901c167f8be0079c531659141344cd1fd0a4f28419497f9722a3daafe3b4186f6b6457e0600080a3005b60405162461bcd60e51b815260206004820152602660248201527f4f776e61626c653a206e6577206f776e657220697320746865207a65726f206160448201526564647265737360d01b6064820152608490fd5b34610257576020366003190112610257576004356001600160401b0381116102575761050a6020913690600401612056565b8161051e604051928381519384920161209d565b600590820190815281900382019020546040516001600160a01b039091168152f35b34610257576060366003190112610257576004356001600160401b03811161025757610570903690600401612056565b6024356001600160401b0381116102575761058f903690600401612056565b9033600052600360205260ff60036040600020015416610917576103e8604435116108d257604051916105c183611fff565b818352602083015260443560408301526001606083015260006080830152600060a08301524260c0830152336000526003602052604060002082519283516001600160401b038111610804576106178354612142565b601f811161088e575b506020601f821160011461082557819293949560009261081a575b50508160011b916000199060031b1c19161782555b60208101518051906001600160401b038211610804576106736001850154612142565b601f81116107bd575b50602090601f83116001146107485791806006949260c09460009261073d575b50508160011b916000199060031b1c19161760018501555b604081015160028501556106dd60608201511515600386019060ff801983541691151516179055565b6080810151600485015560a0810151600585015501519101557f023c5efe572c42192271951adb0e77f97d7fc84bc761d026189ac0861734682461072c60405192604084526040840190612222565b9160443560208201528033930390a2005b01519050878061069c565b906001850160005260206000209160005b601f19851681106107a55750926006949260019260c09583601f1981161061078c575b505050811b0160018501556106b4565b015160001960f88460031b161c1916905587808061077c565b91926020600181928685015181550194019201610759565b600185016000526020600020601f840160051c8101602085106107fd575b601f830160051c820181106107f157505061067c565b600081556001016107db565b50806107db565b634e487b7160e01b600052604160045260246000fd5b01519050858061063b565b8360005260206000209060005b601f1984168110610876575060019394959683601f1981161061085d575b505050811b018255610650565b015160001960f88460031b161c19169055858080610850565b9091602060018192858b015181550193019101610832565b836000526020600020601f830160051c8101602084106108cb575b601f830160051c820181106108bf575050610620565b600081556001016108a9565b50806108a9565b60405162461bcd60e51b815260206004820152601860248201527f436f6d6d697373696f6e207261746520746f6f206869676800000000000000006044820152606490fd5b60405162461bcd60e51b815260206004820152601860248201527f4167656e7420616c7265616479207265676973746572656400000000000000006044820152606490fd5b34610257576040366003190112610257576040610977611fd3565b61097f611fe9565b60018060a01b0380921691826000526004602052836000209116908160005260205282600020549160005260046020528260002090600052602052600182600020015482519182526020820152f35b3461025757600036600319011261025757604051806007548083526020809301809160076000527fa66cc928b5edb82af9bd49922954155ab7b0942694bea4ce44661d9a8736c6889060005b86828210610a79578686610a308288038361201a565b604051928392818401908285525180915260408401929160005b828110610a5957505050500390f35b83516001600160a01b031685528695509381019392810192600101610a4a565b83546001600160a01b031685529093019260019283019201610a1a565b3461025757602036600319011261025757610aaf611fd3565b610ab7612247565b6001600160a01b03168015610ae3576bffffffffffffffffffffffff60a01b600a541617600a55600080f35b60405162461bcd60e51b815260206004820152601460248201527324b73b30b634b2103332b2903932b1b2b4bb32b960611b6044820152606490fd5b3461025757604036600319011261025757610b38611fd3565b610b40611fe9565b9060018060a01b038091166000526004602052604060002091166000526020526040806000206001815491015482519182526020820152f35b3461025757610b87366120c0565b9190610b916123d2565b610b9961238e565b3360005260026020818152610bba60ff836040600020015460081c16612602565b60018060a01b03809316948560005260068252610bde60ff604060002054166122e4565b838516948515610de957811593610bf58515612342565b8660005280845260ff81604060002001541615610da45733600052600484526040600020886000528452610c30836040600020541015612642565b610c3d61030c843361275f565b60085494858402958487041417156103ee57610d0a610d4d936127107f979ece407f0f9d2e856185e9ad64957140d0f2085942c94da79e6507903c5de79704610c868183612335565b98336000526004885260406000208c6000528852610ca983604060002054612335565b336000526004895260406000208d60005289526040600020558a6000526004885260406000208c6000528852610ce48a6040600020546125f5565b8b6000526004895260406000208d600052895260406000205581610d5d575050336127d3565b336000528084526004604060002001610d238154612326565b90558660005283526004604060002001610d3d8154612326565b9055610d4833612851565b612851565b6040519283523392a46001600055005b610d8490600a541691826000526004895260406000208d60005289526040600020546125f5565b906000526004875260406000208b60005287526040600020558a806103a5565b60405162461bcd60e51b815260048101859052601860248201527f526563697069656e74206e6f74207265676973746572656400000000000000006044820152606490fd5b60405162461bcd60e51b8152600481018490526011602482015270125b9d985b1a59081c9958da5c1a595b9d607a1b6044820152606490fd5b3461025757600036600319011261025757600a546040516001600160a01b039091168152602090f35b3461025757602036600319011261025757600435610e67612247565b6103e88111610e7557600855005b60405162461bcd60e51b81526020600482015260156024820152740a0d8c2e8ccdee4da40cccaca40e8dede40d0d2ced605b1b6044820152606490fd5b34610257576020366003190112610257576001600160a01b03610ed3611fd3565b1660005260026020526102296040600020610eed8161217c565b90610efa6001820161217c565b600282015491600381015460ff610f29600560048501549401549460405198899860e08a5260e08a0190612222565b948181161515604088015260081c1615156060860152608085015260a084015260c08301520390f35b3461025757604036600319011261025757610f6b612247565b600435600b55602435600c55005b346102575760203660031901126102575760043560075481101561025757610fa26020916120f5565b905460405160039290921b1c6001600160a01b03168152f35b3461025757604036600319011261025757611005610fd7611fd3565b610fdf612247565b610fe76128ac565b600154602435916001600160a01b0360089290921c821691166126d1565b005b34610257576040366003190112610257576001600160a01b03611028611fd3565b16600052600d60205260406000206024356000526020526020604060002054604051908152f35b346102575760003660031901126102575760015460405160089190911c6001600160a01b03168152602090f35b3461025757600036600319011261025757611095612247565b61109d61238e565b600160ff19815416176001557f62e78cea01bee320cd4e420270b5ea74000d11b0c9f74754ebdbfc544b05a2586020604051338152a1005b34610257576110e3366120c0565b6110ee9291926123d2565b6110f661238e565b336000526020926002845261111860ff60026040600020015460081c16612602565b60018060a01b0380911692836000526006855261113c60ff604060002054166122e4565b1692831561130c578115916111518315612342565b846000526003825261116d60ff60036040600020015416612720565b33600052600482526040600020846000528252611191816040600020541015612642565b61119e61030c823361275f565b846000526003825260026040600020015492838202938285041417156103ee5761127d60059161271060009504956111d68783612335565b96338752600486526040872082885286526111f5836040892054612335565b338852600487526040882083895287526040882055888752600486526040872082885286526112288860408920546125f5565b898852600487526040882083895287526040882055806112d1575b505061124f81336127d3565b33855260028452600460408620016112678154612326565b90558685526003845260046040862001546125f5565b8584526003835260408420906004820155016112998154612326565b90556040519283528201527fce52eb65327b74f350e4e03f380dcc941aa67074d05dee2205453fbd1d60620460403392a36001600055005b6112ef908988526004875260408820838952875260408820546125f5565b908887526004865260408720908752855260408620558780611243565b6064906040519062461bcd60e51b82526004820152600d60248201526c125b9d985b1a59081859d95b9d609a1b6044820152fd5b346102575761134e366120c0565b6113566123d2565b61135e61238e565b336000526020916003835261137d60ff60036040600020015416612720565b60018060a01b038091169384600052600684526113a160ff604060002054166122e4565b1691821561159c578115916113b68315612342565b83600052600282526113d260ff600260406000200154166122a2565b33600052600482526040600020856000528252806040600020541061155757336000526003825260026040600020015492838202938285041417156103ee576114be60059161271060019504966114298883612335565b973360005260048652604060002082600052865261144c83604060002054612335565b3360005260048752604060002083600052875260406000205587600052600486526040600020826000528652611487896040600020546125f5565b8860005260048752604060002083600052875260406000205580611514575b505033600052600384526004604060002001546125f5565b33600052600383526040600020906004820155016114dc8154612326565b90556040519384528301527fce52eb65327b74f350e4e03f380dcc941aa67074d05dee2205453fbd1d60620460403393a36001600055005b61153690336000526004875260406000208360005287526040600020546125f5565b903360005260048652604060002090600052855260406000205587806114a6565b60405162461bcd60e51b815260048101839052601a60248201527f496e73756666696369656e74206167656e742062616c616e63650000000000006044820152606490fd5b6064906040519062461bcd60e51b82526004820152600c60248201526b24b73b30b634b2103ab9b2b960a11b6044820152fd5b34610257576020366003190112610257576115e8611fd3565b6115f0612247565b6001600160a01b039081166000818152600660205260409020546116169060ff166122e4565b6000818152600660205260408120805460ff19169055905b6007918254928382101561100557849383611648846120f5565b979054600398891b1c161461166b57505061166591929350612326565b9061162e565b90939250600019918282019182116103ee5761169a8461168d6116b9946120f5565b905490891b1c16916120f5565b90919082549060031b9160018060a01b03809116831b921b1916179055565b825480156116db5701926116cc846120f5565b8154921b9290921b1916905555005b634e487b7160e01b600052603160045260246000fd5b346102575760003660031901126102575761170a612247565b60018054610100600160a81b0319811690915560009060081c6001600160a01b03167f8be0079c531659141344cd1fd0a4f28419497f9722a3daafe3b4186f6b6457e08280a3005b346102575760203660031901126102575761176b611fd3565b611773612247565b6001600160a01b03811660008181526006602052604090205460ff166117d35760005260066020526040600020600160ff1982541617905560075490680100000000000000008210156108045761169a82600161100594016007556120f5565b60405162461bcd60e51b815260206004820152601760248201527f546f6b656e20616c726561647920737570706f727465640000000000000000006044820152606490fd5b34610257576020366003190112610257576001600160a01b03611839611fd3565b166000526006602052602060ff604060002054166040519015158152f35b34610257576000366003190112610257576020600b54604051908152f35b3461025757600036600319011261025757602060ff600154166040519015158152f35b34610257576000366003190112610257576020600954604051908152f35b34610257576020366003190112610257576118cf611fd3565b6118d7612247565b60018060a01b03168060005260026020526118fc60ff600260406000200154166122a2565b6000526002602052600260406000200161010061ff0019825416179055600080f35b3461025757604036600319011261025757611937611fd3565b6024356119426123d2565b61194a61238e565b336000526020916002835261196960ff600260406000200154166122a2565b60018060a01b031691826000526006815261198b60ff604060002054166122e4565b611996821515612342565b6040516323b872dd60e01b82820152336024820152306044820152606480820184905281529060a082016001600160401b03811183821017610804577f1de3ece35391f6bba650736f2d5d3f12e2cfc54538a340cc5d762d34ca449de792611a019160405285612428565b33600052600481526040600020846000528152611a23836040600020546125f5565b336000526004825260406000208560005282526040600020556040519283523392a36001600055005b3461025757600036600319011261025757611a65612247565b611a6d6128ac565b60ff19600154166001557f5db9ee0a495bf2e6ff9c91a7834c1ba4fdd244a5e8aa4e537bd38aeae4b073aa6020604051338152a1005b34610257576000366003190112610257576020600854604051908152f35b34610257576040366003190112610257576004356001600160401b03811161025757611af1903690600401612056565b6024356001600160401b03811161025757611b10903690600401612056565b9033600052600260205260ff60026040600020015416611f2d576040518151611b3d81836020860161209d565b60059082019081528190036020019020546001600160a01b0316611ee857604051611b6781611fff565b8181528260208201526001604082015260006060820152426080820152600060a08201526101f460c082015233600052600260205260406000209080518051906001600160401b038211610804578190611bc18554612142565b601f8111611e98575b50602090601f8311600114611e2c57600092611e21575b50508160011b916000199060031b1c19161782555b60208101518051906001600160401b03821161080457611c196001850154612142565b601f8111611dda575b50602090601f8311600114611d3f577f92822564bab8864c3a47b34e8d23fbce5c46234eb5da261f94087b995ac0f33b959383611d20969460059460c094600092611d34575b50508160011b916000199060031b1c19161760018501555b60028401611ca060408301511515829060ff801983541691151516179055565b6060820151151561ff0082549160081b169061ff0019161790556080810151600385015560a0810151600485015501519101556040516020818351611ce8818385880161209d565b81016005815203019020336bffffffffffffffffffffffff60a01b825416179055611d2f604051928392604084526040840190612222565b82810360208401523395612222565b0390a2005b015190508a80611c68565b906001850160005260206000209160005b601f1985168110611dc257509360018460059460c0947f92822564bab8864c3a47b34e8d23fbce5c46234eb5da261f94087b995ac0f33b9a98611d209a98601f19811610611da9575b505050811b016001850155611c80565b015160001960f88460031b161c191690558a8080611d99565b91926020600181928685015181550194019201611d50565b600185016000526020600020601f840160051c810160208510611e1a575b601f830160051c82018110611e0e575050611c22565b60008155600101611df8565b5080611df8565b015190508680611be1565b9250846000526020600020906000935b601f1984168510611e7d576001945083601f19811610611e64575b505050811b018255611bf6565b015160001960f88460031b161c19169055868080611e57565b81810151835560209485019460019093019290910190611e3c565b909150846000526020600020601f840160051c810160208510611ee1575b90849392915b601f830160051c82018110611ed2575050611bca565b60008155859450600101611ebc565b5080611eb6565b60405162461bcd60e51b815260206004820152601f60248201527f50686f6e65206e756d62657220616c72656164792072656769737465726564006044820152606490fd5b60405162461bcd60e51b815260206004820152601760248201527f5573657220616c726561647920726567697374657265640000000000000000006044820152606490fd5b34610257576000366003190112610257576020600c54604051908152f35b34610257576040366003190112610257576020906001600160a01b03611fb4611fd3565b16600052600e8252604060002060243560005282526040600020548152f35b600435906001600160a01b038216820361025757565b602435906001600160a01b038216820361025757565b60e081019081106001600160401b0382111761080457604052565b90601f801991011681019081106001600160401b0382111761080457604052565b6001600160401b03811161080457601f01601f191660200190565b81601f820112156102575780359061206d8261203b565b9261207b604051948561201a565b8284526020838301011161025757816000926020809301838601378301015290565b60005b8381106120b05750506000910152565b81810151838201526020016120a0565b6060906003190112610257576001600160a01b0390600435828116810361025757916024359081168103610257579060443590565b60075481101561212c5760076000527fa66cc928b5edb82af9bd49922954155ab7b0942694bea4ce44661d9a8736c6880190600090565b634e487b7160e01b600052603260045260246000fd5b90600182811c92168015612172575b602083101461215c57565b634e487b7160e01b600052602260045260246000fd5b91607f1691612151565b906040519182600082549261219084612142565b9081845260019485811690816000146121ff57506001146121bc575b50506121ba9250038361201a565b565b9093915060005260209081600020936000915b8183106121e75750506121ba935082010138806121ac565b855488840185015294850194879450918301916121cf565b9150506121ba94506020925060ff191682840152151560051b82010138806121ac565b9060209161223b8151809281855285808601910161209d565b601f01601f1916010190565b60015460081c6001600160a01b0316330361225e57565b606460405162461bcd60e51b815260206004820152602060248201527f4f776e61626c653a2063616c6c6572206973206e6f7420746865206f776e65726044820152fd5b156122a957565b60405162461bcd60e51b8152602060048201526013602482015272155cd95c881b9bdd081c9959da5cdd195c9959606a1b6044820152606490fd5b156122eb57565b60405162461bcd60e51b8152602060048201526013602482015272151bdad95b881b9bdd081cdd5c1c1bdc9d1959606a1b6044820152606490fd5b60001981146103ee5760010190565b919082039182116103ee57565b1561234957565b60405162461bcd60e51b815260206004820152601d60248201527f416d6f756e74206d7573742062652067726561746572207468616e20300000006044820152606490fd5b60ff6001541661239a57565b60405162461bcd60e51b815260206004820152601060248201526f14185d5cd8589b194e881c185d5cd95960821b6044820152606490fd5b6002600054146123e3576002600055565b60405162461bcd60e51b815260206004820152601f60248201527f5265656e7472616e637947756172643a207265656e7472616e742063616c6c006044820152606490fd5b60018060a01b03169060405160408101908082106001600160401b03831117610804576124b7916040526020938482527f5361666545524332303a206c6f772d6c6576656c2063616c6c206661696c6564858301526000808587829751910182855af13d15612554573d9161249c8361203b565b926124aa604051948561201a565b83523d868885013e612558565b805191821591848315612529575b5050509050156124d25750565b6084906040519062461bcd60e51b82526004820152602a60248201527f5361666545524332303a204552433230206f7065726174696f6e20646964206e6044820152691bdd081cdd58d8d9595960b21b6064820152fd5b9193818094500103126125505782015190811515820361254d5750803880846124c5565b80fd5b5080fd5b6060915b919290156125ba575081511561256c575090565b3b156125755790565b60405162461bcd60e51b815260206004820152601d60248201527f416464726573733a2063616c6c20746f206e6f6e2d636f6e74726163740000006044820152606490fd5b8251909150156125cd5750805190602001fd5b60405162461bcd60e51b8152602060048201529081906125f1906024830190612222565b0390fd5b919082018092116103ee57565b1561260957565b60405162461bcd60e51b8152602060048201526011602482015270155cd95c881b9bdd081d995c9a599a5959607a1b6044820152606490fd5b1561264957565b60405162461bcd60e51b8152602060048201526014602482015273496e73756666696369656e742062616c616e636560601b6044820152606490fd5b1561268c57565b60405162461bcd60e51b815260206004820152601a60248201527f5472616e73616374696f6e206c696d69742065786365656465640000000000006044820152606490fd5b60405163a9059cbb60e01b60208201526001600160a01b03909216602483015260448083019390935291815260808101916001600160401b03831182841017610804576121ba92604052612428565b1561272757565b60405162461bcd60e51b815260206004820152601060248201526f4167656e74206e6f742061637469766560801b6044820152606490fd5b60018060a01b0316906000828152600d60205260408120620151804204825260205261278f8260408320546125f5565b600b54101592836127a1575b50505090565b6127c69350906040918152600e60205281812062278d004204825260205220546125f5565b600c54101538808061279b565b906201518042049062278d0042049260018060a01b03169260009184835261283f602091600d8352604095868620818752845261281382888820546125f5565b90888752600d8552878720908752845286862055868552600e83528585208486528352858520546125f5565b948352600e8152838320918352522055565b6001600160a01b0316600081815260026020526040812060050154916103528310156128a7576001830180931161289357815260026020526040902060050155565b634e487b7160e01b82526011600452602482fd5b505050565b60ff60015416156128b957565b60405162461bcd60e51b815260206004820152601460248201527314185d5cd8589b194e881b9bdd081c185d5cd95960621b6044820152606490fdfea2646970667358221220d3ff1c27d1f97738dd311f1c7b0930929b47d9a9986c0d2fa0323d54974867d264736f6c63430008130033","opcodes":"PUSH1 0x80 CALLVALUE PUSH2 0xF1 JUMPI PUSH1 0x1F PUSH2 0x2A38 CODESIZE DUP2 SWAP1 SUB SWAP2 DUP3 ADD PUSH1 0x1F NOT AND DUP4 ADD SWAP2 PUSH1 0x1 PUSH1 0x1 PUSH1 0x40 SHL SUB DUP4 GT DUP5 DUP5 LT OR PUSH2 0xF6 JUMPI DUP1 DUP5 SWAP3 PUSH1 0x20 SWAP5 PUSH1 0x40 MSTORE DUP4 CODECOPY DUP2 ADD SUB SLT PUSH2 0xF1 JUMPI MLOAD PUSH1 0x1 PUSH1 0x1 PUSH1 0xA0 SHL SUB SWAP1 DUP2 DUP2 AND SWAP1 DUP2 SWAP1 SUB PUSH2 0xF1 JUMPI PUSH1 0x1 PUSH1 0x0 DUP2 DUP2 SSTORE DUP2 SLOAD PUSH1 0x1 PUSH1 0x1 PUSH1 0xA8 SHL SUB NOT DUP2 AND CALLER PUSH1 0x8 DUP2 DUP2 SHL PUSH2 0x100 PUSH1 0x1 PUSH1 0xA8 SHL SUB AND SWAP3 SWAP1 SWAP3 OR SWAP1 SWAP5 SSTORE PUSH1 0x40 MLOAD SWAP6 SWAP2 SWAP1 SHR AND SWAP1 PUSH32 0x8BE0079C531659141344CD1FD0A4F28419497F9722A3DAAFE3B4186F6B6457E0 SWAP1 DUP1 LOG3 PUSH1 0x32 PUSH1 0x8 SSTORE PUSH1 0x64 PUSH1 0x9 SSTORE PUSH10 0x21E19E0C9BAB2400000 PUSH1 0xB SSTORE PUSH10 0x152D02C7E14AF6800000 PUSH1 0xC SSTORE PUSH1 0xA DUP1 SLOAD PUSH1 0x1 PUSH1 0x1 PUSH1 0xA0 SHL SUB NOT AND SWAP2 SWAP1 SWAP2 OR SWAP1 SSTORE PUSH2 0x292B SWAP1 DUP2 PUSH2 0x10D DUP3 CODECOPY RETURN JUMPDEST PUSH1 0x0 DUP1 REVERT JUMPDEST PUSH4 0x4E487B71 PUSH1 0xE0 SHL PUSH1 0x0 MSTORE PUSH1 0x41 PUSH1 0x4 MSTORE PUSH1 0x24 PUSH1 0x0 REVERT INVALID PUSH1 0x80 DUP1 PUSH1 0x40 MSTORE PUSH1 0x4 CALLDATASIZE LT ISZERO PUSH2 0x13 JUMPI PUSH1 0x0 DUP1 REVERT JUMPDEST PUSH1 0x0 CALLDATALOAD PUSH1 0xE0 SHR SWAP1 DUP2 PUSH4 0x7E25876 EQ PUSH2 0x1F90 JUMPI POP DUP1 PUSH4 0xA6005DA EQ PUSH2 0x1F72 JUMPI DUP1 PUSH4 0x1D2E4AFD EQ PUSH2 0x1AC1 JUMPI DUP1 PUSH4 0x230E7C32 EQ PUSH2 0x4D8 JUMPI DUP1 PUSH4 0x26232A2E EQ PUSH2 0x1AA3 JUMPI DUP1 PUSH4 0x3F4BA83A EQ PUSH2 0x1A4C JUMPI DUP1 PUSH4 0x47E7EF24 EQ PUSH2 0x191E JUMPI DUP1 PUSH4 0x4D813120 EQ PUSH2 0x18B6 JUMPI DUP1 PUSH4 0x593EE5BE EQ PUSH2 0x1898 JUMPI DUP1 PUSH4 0x5C975ABB EQ PUSH2 0x1875 JUMPI DUP1 PUSH4 0x67EEBA0C EQ PUSH2 0x1857 JUMPI DUP1 PUSH4 0x68C4AC26 EQ PUSH2 0x1818 JUMPI DUP1 PUSH4 0x6D69FCAF EQ PUSH2 0x1752 JUMPI DUP1 PUSH4 0x715018A6 EQ PUSH2 0x16F1 JUMPI DUP1 PUSH4 0x76319190 EQ PUSH2 0x15CF JUMPI DUP1 PUSH4 0x7982F5B4 EQ PUSH2 0x1340 JUMPI DUP1 PUSH4 0x810E4FF0 EQ PUSH2 0x10D5 JUMPI DUP1 PUSH4 0x8456CB59 EQ PUSH2 0x107C JUMPI DUP1 PUSH4 0x8DA5CB5B EQ PUSH2 0x104F JUMPI DUP1 PUSH4 0x9061A57F EQ PUSH2 0x1007 JUMPI DUP1 PUSH4 0x95CCEA67 EQ PUSH2 0xFBB JUMPI DUP1 PUSH4 0x9EAD7222 EQ PUSH2 0xF79 JUMPI DUP1 PUSH4 0xA2240E19 EQ PUSH2 0xF52 JUMPI DUP1 PUSH4 0xA87430BA EQ PUSH2 0xEB2 JUMPI DUP1 PUSH4 0xAA0B5988 EQ PUSH2 0xE4B JUMPI DUP1 PUSH4 0xB3F00674 EQ PUSH2 0xE22 JUMPI DUP1 PUSH4 0xBEABACC8 EQ PUSH2 0xB79 JUMPI DUP1 PUSH4 0xC23F001F EQ PUSH2 0xB1F JUMPI DUP1 PUSH4 0xC69BEBE4 EQ PUSH2 0xA96 JUMPI DUP1 PUSH4 0xD3C7C2C7 EQ PUSH2 0x9CE JUMPI DUP1 PUSH4 0xD4FAC45D EQ PUSH2 0x95C JUMPI DUP1 PUSH4 0xDA6B03BC EQ PUSH2 0x540 JUMPI DUP1 PUSH4 0xEADA609D EQ PUSH2 0x4D8 JUMPI DUP1 PUSH4 0xF2FDE38B EQ PUSH2 0x404 JUMPI DUP1 PUSH4 0xF3FEF3A3 EQ PUSH2 0x25C JUMPI PUSH4 0xFD66091E EQ PUSH2 0x1AB JUMPI PUSH1 0x0 DUP1 REVERT JUMPDEST CALLVALUE PUSH2 0x257 JUMPI PUSH1 0x20 CALLDATASIZE PUSH1 0x3 NOT ADD SLT PUSH2 0x257 JUMPI PUSH1 0x1 PUSH1 0x1 PUSH1 0xA0 SHL SUB PUSH2 0x1CC PUSH2 0x1FD3 JUMP JUMPDEST AND PUSH1 0x0 MSTORE PUSH1 0x3 PUSH1 0x20 MSTORE PUSH2 0x229 PUSH1 0x40 PUSH1 0x0 KECCAK256 PUSH2 0x1E6 DUP2 PUSH2 0x217C JUMP JUMPDEST SWAP1 PUSH2 0x1F3 PUSH1 0x1 DUP3 ADD PUSH2 0x217C JUMP JUMPDEST PUSH1 0x2 DUP3 ADD SLOAD SWAP2 PUSH1 0xFF PUSH1 0x3 DUP3 ADD SLOAD AND PUSH1 0x4 DUP3 ADD SLOAD SWAP1 PUSH2 0x237 PUSH1 0x6 PUSH1 0x5 DUP6 ADD SLOAD SWAP5 ADD SLOAD SWAP5 PUSH1 0x40 MLOAD SWAP9 DUP10 SWAP9 PUSH1 0xE0 DUP11 MSTORE PUSH1 0xE0 DUP11 ADD SWAP1 PUSH2 0x2222 JUMP JUMPDEST SWAP1 DUP9 DUP3 SUB PUSH1 0x20 DUP11 ADD MSTORE PUSH2 0x2222 JUMP JUMPDEST SWAP5 PUSH1 0x40 DUP8 ADD MSTORE ISZERO ISZERO PUSH1 0x60 DUP7 ADD MSTORE PUSH1 0x80 DUP6 ADD MSTORE PUSH1 0xA0 DUP5 ADD MSTORE PUSH1 0xC0 DUP4 ADD MSTORE SUB SWAP1 RETURN JUMPDEST PUSH1 0x0 DUP1 REVERT JUMPDEST CALLVALUE PUSH2 0x257 JUMPI PUSH1 0x40 CALLDATASIZE PUSH1 0x3 NOT ADD SLT PUSH2 0x257 JUMPI PUSH2 0x275 PUSH2 0x1FD3 JUMP JUMPDEST PUSH1 0x24 CALLDATALOAD SWAP1 PUSH2 0x281 PUSH2 0x23D2 JUMP JUMPDEST PUSH2 0x289 PUSH2 0x238E JUMP JUMPDEST CALLER PUSH1 0x0 MSTORE PUSH1 0x20 SWAP2 PUSH1 0x2 DUP4 MSTORE PUSH2 0x2AB PUSH1 0xFF PUSH1 0x2 PUSH1 0x40 PUSH1 0x0 KECCAK256 ADD SLOAD PUSH1 0x8 SHR AND PUSH2 0x2602 JUMP JUMPDEST PUSH1 0x1 DUP1 PUSH1 0xA0 SHL SUB DUP1 SWAP3 AND SWAP3 DUP4 PUSH1 0x0 MSTORE PUSH1 0x6 DUP2 MSTORE PUSH2 0x2CF PUSH1 0xFF PUSH1 0x40 PUSH1 0x0 KECCAK256 SLOAD AND PUSH2 0x22E4 JUMP JUMPDEST DUP2 ISZERO PUSH2 0x2DB DUP2 ISZERO PUSH2 0x2342 JUMP JUMPDEST CALLER PUSH1 0x0 MSTORE PUSH1 0x4 DUP3 MSTORE PUSH1 0x40 PUSH1 0x0 KECCAK256 DUP6 PUSH1 0x0 MSTORE DUP3 MSTORE PUSH2 0x2FF DUP4 PUSH1 0x40 PUSH1 0x0 KECCAK256 SLOAD LT ISZERO PUSH2 0x2642 JUMP JUMPDEST PUSH2 0x311 PUSH2 0x30C DUP5 CALLER PUSH2 0x275F JUMP JUMPDEST PUSH2 0x2685 JUMP JUMPDEST CALLER PUSH1 0x0 MSTORE PUSH1 0x4 DUP3 MSTORE PUSH1 0x40 PUSH1 0x0 KECCAK256 DUP6 PUSH1 0x0 MSTORE DUP3 MSTORE PUSH2 0x333 DUP4 PUSH1 0x40 PUSH1 0x0 KECCAK256 SLOAD PUSH2 0x2335 JUMP JUMPDEST CALLER PUSH1 0x0 MSTORE PUSH1 0x4 DUP4 MSTORE PUSH1 0x40 PUSH1 0x0 KECCAK256 DUP7 PUSH1 0x0 MSTORE DUP4 MSTORE PUSH1 0x40 PUSH1 0x0 KECCAK256 SSTORE PUSH1 0x8 SLOAD SWAP1 DUP2 DUP5 MUL SWAP2 DUP5 DUP4 DIV EQ OR ISZERO PUSH2 0x3EE JUMPI PUSH32 0x26AABD0B187D03562B9E52195F1FF57274164C7FD5588254B7654CC27DDE2B00 SWAP3 PUSH2 0x2710 PUSH2 0x3AD SWAP3 DIV SWAP5 PUSH2 0x393 DUP7 DUP4 PUSH2 0x2335 JUMP JUMPDEST SWAP6 PUSH2 0x39F DUP8 CALLER DUP11 PUSH2 0x26D1 JUMP JUMPDEST DUP1 PUSH2 0x3D9 JUMPI JUMPDEST POP POP CALLER PUSH2 0x27D3 JUMP JUMPDEST CALLER PUSH1 0x0 MSTORE PUSH1 0x2 DUP2 MSTORE PUSH1 0x4 PUSH1 0x40 PUSH1 0x0 KECCAK256 ADD PUSH2 0x3C7 DUP2 SLOAD PUSH2 0x2326 JUMP JUMPDEST SWAP1 SSTORE PUSH1 0x40 MLOAD SWAP3 DUP4 MSTORE CALLER SWAP3 LOG3 PUSH1 0x1 PUSH1 0x0 SSTORE STOP JUMPDEST PUSH2 0x3E7 SWAP2 PUSH1 0xA SLOAD AND DUP9 PUSH2 0x26D1 JUMP JUMPDEST DUP7 DUP1 PUSH2 0x3A5 JUMP JUMPDEST PUSH4 0x4E487B71 PUSH1 0xE0 SHL PUSH1 0x0 MSTORE PUSH1 0x11 PUSH1 0x4 MSTORE PUSH1 0x24 PUSH1 0x0 REVERT JUMPDEST CALLVALUE PUSH2 0x257 JUMPI PUSH1 0x20 CALLDATASIZE PUSH1 0x3 NOT ADD SLT PUSH2 0x257 JUMPI PUSH2 0x41D PUSH2 0x1FD3 JUMP JUMPDEST PUSH2 0x425 PUSH2 0x2247 JUMP JUMPDEST PUSH1 0x1 PUSH1 0x1 PUSH1 0xA0 SHL SUB DUP2 DUP2 AND SWAP2 DUP3 ISZERO PUSH2 0x484 JUMPI PUSH1 0x1 DUP1 SLOAD PUSH2 0x100 PUSH1 0x1 PUSH1 0xA8 SHL SUB NOT DUP2 AND PUSH1 0x8 SWAP4 DUP5 SHL PUSH2 0x100 PUSH1 0x1 PUSH1 0xA8 SHL SUB AND OR SWAP1 SWAP2 SSTORE SWAP1 SHR AND PUSH32 0x8BE0079C531659141344CD1FD0A4F28419497F9722A3DAAFE3B4186F6B6457E0 PUSH1 0x0 DUP1 LOG3 STOP JUMPDEST PUSH1 0x40 MLOAD PUSH3 0x461BCD PUSH1 0xE5 SHL DUP2 MSTORE PUSH1 0x20 PUSH1 0x4 DUP3 ADD MSTORE PUSH1 0x26 PUSH1 0x24 DUP3 ADD MSTORE PUSH32 0x4F776E61626C653A206E6577206F776E657220697320746865207A65726F2061 PUSH1 0x44 DUP3 ADD MSTORE PUSH6 0x646472657373 PUSH1 0xD0 SHL PUSH1 0x64 DUP3 ADD MSTORE PUSH1 0x84 SWAP1 REVERT JUMPDEST CALLVALUE PUSH2 0x257 JUMPI PUSH1 0x20 CALLDATASIZE PUSH1 0x3 NOT ADD SLT PUSH2 0x257 JUMPI PUSH1 0x4 CALLDATALOAD PUSH1 0x1 PUSH1 0x1 PUSH1 0x40 SHL SUB DUP2 GT PUSH2 0x257 JUMPI PUSH2 0x50A PUSH1 0x20 SWAP2 CALLDATASIZE SWAP1 PUSH1 0x4 ADD PUSH2 0x2056 JUMP JUMPDEST DUP2 PUSH2 0x51E PUSH1 0x40 MLOAD SWAP3 DUP4 DUP2 MLOAD SWAP4 DUP5 SWAP3 ADD PUSH2 0x209D JUMP JUMPDEST PUSH1 0x5 SWAP1 DUP3 ADD SWAP1 DUP2 MSTORE DUP2 SWAP1 SUB DUP3 ADD SWAP1 KECCAK256 SLOAD PUSH1 0x40 MLOAD PUSH1 0x1 PUSH1 0x1 PUSH1 0xA0 SHL SUB SWAP1 SWAP2 AND DUP2 MSTORE RETURN JUMPDEST CALLVALUE PUSH2 0x257 JUMPI PUSH1 0x60 CALLDATASIZE PUSH1 0x3 NOT ADD SLT PUSH2 0x257 JUMPI PUSH1 0x4 CALLDATALOAD PUSH1 0x1 PUSH1 0x1 PUSH1 0x40 SHL SUB DUP2 GT PUSH2 0x257 JUMPI PUSH2 0x570 SWAP1 CALLDATASIZE SWAP1 PUSH1 0x4 ADD PUSH2 0x2056 JUMP JUMPDEST PUSH1 0x24 CALLDATALOAD PUSH1 0x1 PUSH1 0x1 PUSH1 0x40 SHL SUB DUP2 GT PUSH2 0x257 JUMPI PUSH2 0x58F SWAP1 CALLDATASIZE SWAP1 PUSH1 0x4 ADD PUSH2 0x2056 JUMP JUMPDEST SWAP1 CALLER PUSH1 0x0 MSTORE PUSH1 0x3 PUSH1 0x20 MSTORE PUSH1 0xFF PUSH1 0x3 PUSH1 0x40 PUSH1 0x0 KECCAK256 ADD SLOAD AND PUSH2 0x917 JUMPI PUSH2 0x3E8 PUSH1 0x44 CALLDATALOAD GT PUSH2 0x8D2 JUMPI PUSH1 0x40 MLOAD SWAP2 PUSH2 0x5C1 DUP4 PUSH2 0x1FFF JUMP JUMPDEST DUP2 DUP4 MSTORE PUSH1 0x20 DUP4 ADD MSTORE PUSH1 0x44 CALLDATALOAD PUSH1 0x40 DUP4 ADD MSTORE PUSH1 0x1 PUSH1 0x60 DUP4 ADD MSTORE PUSH1 0x0 PUSH1 0x80 DUP4 ADD MSTORE PUSH1 0x0 PUSH1 0xA0 DUP4 ADD MSTORE TIMESTAMP PUSH1 0xC0 DUP4 ADD MSTORE CALLER PUSH1 0x0 MSTORE PUSH1 0x3 PUSH1 0x20 MSTORE PUSH1 0x40 PUSH1 0x0 KECCAK256 DUP3 MLOAD SWAP3 DUP4 MLOAD PUSH1 0x1 PUSH1 0x1 PUSH1 0x40 SHL SUB DUP2 GT PUSH2 0x804 JUMPI PUSH2 0x617 DUP4 SLOAD PUSH2 0x2142 JUMP JUMPDEST PUSH1 0x1F DUP2 GT PUSH2 0x88E JUMPI JUMPDEST POP PUSH1 0x20 PUSH1 0x1F DUP3 GT PUSH1 0x1 EQ PUSH2 0x825 JUMPI DUP2 SWAP3 SWAP4 SWAP5 SWAP6 PUSH1 0x0 SWAP3 PUSH2 0x81A JUMPI JUMPDEST POP POP DUP2 PUSH1 0x1 SHL SWAP2 PUSH1 0x0 NOT SWAP1 PUSH1 0x3 SHL SHR NOT AND OR DUP3 SSTORE JUMPDEST PUSH1 0x20 DUP2 ADD MLOAD DUP1 MLOAD SWAP1 PUSH1 0x1 PUSH1 0x1 PUSH1 0x40 SHL SUB DUP3 GT PUSH2 0x804 JUMPI PUSH2 0x673 PUSH1 0x1 DUP6 ADD SLOAD PUSH2 0x2142 JUMP JUMPDEST PUSH1 0x1F DUP2 GT PUSH2 0x7BD JUMPI JUMPDEST POP PUSH1 0x20 SWAP1 PUSH1 0x1F DUP4 GT PUSH1 0x1 EQ PUSH2 0x748 JUMPI SWAP2 DUP1 PUSH1 0x6 SWAP5 SWAP3 PUSH1 0xC0 SWAP5 PUSH1 0x0 SWAP3 PUSH2 0x73D JUMPI JUMPDEST POP POP DUP2 PUSH1 0x1 SHL SWAP2 PUSH1 0x0 NOT SWAP1 PUSH1 0x3 SHL SHR NOT AND OR PUSH1 0x1 DUP6 ADD SSTORE JUMPDEST PUSH1 0x40 DUP2 ADD MLOAD PUSH1 0x2 DUP6 ADD SSTORE PUSH2 0x6DD PUSH1 0x60 DUP3 ADD MLOAD ISZERO ISZERO PUSH1 0x3 DUP7 ADD SWAP1 PUSH1 0xFF DUP1 NOT DUP4 SLOAD AND SWAP2 ISZERO ISZERO AND OR SWAP1 SSTORE JUMP JUMPDEST PUSH1 0x80 DUP2 ADD MLOAD PUSH1 0x4 DUP6 ADD SSTORE PUSH1 0xA0 DUP2 ADD MLOAD PUSH1 0x5 DUP6 ADD SSTORE ADD MLOAD SWAP2 ADD SSTORE PUSH32 0x23C5EFE572C42192271951ADB0E77F97D7FC84BC761D026189AC08617346824 PUSH2 0x72C PUSH1 0x40 MLOAD SWAP3 PUSH1 0x40 DUP5 MSTORE PUSH1 0x40 DUP5 ADD SWAP1 PUSH2 0x2222 JUMP JUMPDEST SWAP2 PUSH1 0x44 CALLDATALOAD PUSH1 0x20 DUP3 ADD MSTORE DUP1 CALLER SWAP4 SUB SWAP1 LOG2 STOP JUMPDEST ADD MLOAD SWAP1 POP DUP8 DUP1 PUSH2 0x69C JUMP JUMPDEST SWAP1 PUSH1 0x1 DUP6 ADD PUSH1 0x0 MSTORE PUSH1 0x20 PUSH1 0x0 KECCAK256 SWAP2 PUSH1 0x0 JUMPDEST PUSH1 0x1F NOT DUP6 AND DUP2 LT PUSH2 0x7A5 JUMPI POP SWAP3 PUSH1 0x6 SWAP5 SWAP3 PUSH1 0x1 SWAP3 PUSH1 0xC0 SWAP6 DUP4 PUSH1 0x1F NOT DUP2 AND LT PUSH2 0x78C JUMPI JUMPDEST POP POP POP DUP2 SHL ADD PUSH1 0x1 DUP6 ADD SSTORE PUSH2 0x6B4 JUMP JUMPDEST ADD MLOAD PUSH1 0x0 NOT PUSH1 0xF8 DUP5 PUSH1 0x3 SHL AND SHR NOT AND SWAP1 SSTORE DUP8 DUP1 DUP1 PUSH2 0x77C JUMP JUMPDEST SWAP2 SWAP3 PUSH1 0x20 PUSH1 0x1 DUP2 SWAP3 DUP7 DUP6 ADD MLOAD DUP2 SSTORE ADD SWAP5 ADD SWAP3 ADD PUSH2 0x759 JUMP JUMPDEST PUSH1 0x1 DUP6 ADD PUSH1 0x0 MSTORE PUSH1 0x20 PUSH1 0x0 KECCAK256 PUSH1 0x1F DUP5 ADD PUSH1 0x5 SHR DUP2 ADD PUSH1 0x20 DUP6 LT PUSH2 0x7FD JUMPI JUMPDEST PUSH1 0x1F DUP4 ADD PUSH1 0x5 SHR DUP3 ADD DUP2 LT PUSH2 0x7F1 JUMPI POP POP PUSH2 0x67C JUMP JUMPDEST PUSH1 0x0 DUP2 SSTORE PUSH1 0x1 ADD PUSH2 0x7DB JUMP JUMPDEST POP DUP1 PUSH2 0x7DB JUMP JUMPDEST PUSH4 0x4E487B71 PUSH1 0xE0 SHL PUSH1 0x0 MSTORE PUSH1 0x41 PUSH1 0x4 MSTORE PUSH1 0x24 PUSH1 0x0 REVERT JUMPDEST ADD MLOAD SWAP1 POP DUP6 DUP1 PUSH2 0x63B JUMP JUMPDEST DUP4 PUSH1 0x0 MSTORE PUSH1 0x20 PUSH1 0x0 KECCAK256 SWAP1 PUSH1 0x0 JUMPDEST PUSH1 0x1F NOT DUP5 AND DUP2 LT PUSH2 0x876 JUMPI POP PUSH1 0x1 SWAP4 SWAP5 SWAP6 SWAP7 DUP4 PUSH1 0x1F NOT DUP2 AND LT PUSH2 0x85D JUMPI JUMPDEST POP POP POP DUP2 SHL ADD DUP3 SSTORE PUSH2 0x650 JUMP JUMPDEST ADD MLOAD PUSH1 0x0 NOT PUSH1 0xF8 DUP5 PUSH1 0x3 SHL AND SHR NOT AND SWAP1 SSTORE DUP6 DUP1 DUP1 PUSH2 0x850 JUMP JUMPDEST SWAP1 SWAP2 PUSH1 0x20 PUSH1 0x1 DUP2 SWAP3 DUP6 DUP12 ADD MLOAD DUP2 SSTORE ADD SWAP4 ADD SWAP2 ADD PUSH2 0x832 JUMP JUMPDEST DUP4 PUSH1 0x0 MSTORE PUSH1 0x20 PUSH1 0x0 KECCAK256 PUSH1 0x1F DUP4 ADD PUSH1 0x5 SHR DUP2 ADD PUSH1 0x20 DUP5 LT PUSH2 0x8CB JUMPI JUMPDEST PUSH1 0x1F DUP4 ADD PUSH1 0x5 SHR DUP3 ADD DUP2 LT PUSH2 0x8BF JUMPI POP POP PUSH2 0x620 JUMP JUMPDEST PUSH1 0x0 DUP2 SSTORE PUSH1 0x1 ADD PUSH2 0x8A9 JUMP JUMPDEST POP DUP1 PUSH2 0x8A9 JUMP JUMPDEST PUSH1 0x40 MLOAD PUSH3 0x461BCD PUSH1 0xE5 SHL DUP2 MSTORE PUSH1 0x20 PUSH1 0x4 DUP3 ADD MSTORE PUSH1 0x18 PUSH1 0x24 DUP3 ADD MSTORE PUSH32 0x436F6D6D697373696F6E207261746520746F6F20686967680000000000000000 PUSH1 0x44 DUP3 ADD MSTORE PUSH1 0x64 SWAP1 REVERT JUMPDEST PUSH1 0x40 MLOAD PUSH3 0x461BCD PUSH1 0xE5 SHL DUP2 MSTORE PUSH1 0x20 PUSH1 0x4 DUP3 ADD MSTORE PUSH1 0x18 PUSH1 0x24 DUP3 ADD MSTORE PUSH32 0x4167656E7420616C726561647920726567697374657265640000000000000000 PUSH1 0x44 DUP3 ADD MSTORE PUSH1 0x64 SWAP1 REVERT JUMPDEST CALLVALUE PUSH2 0x257 JUMPI PUSH1 0x40 CALLDATASIZE PUSH1 0x3 NOT ADD SLT PUSH2 0x257 JUMPI PUSH1 0x40 PUSH2 0x977 PUSH2 0x1FD3 JUMP JUMPDEST PUSH2 0x97F PUSH2 0x1FE9 JUMP JUMPDEST PUSH1 0x1 DUP1 PUSH1 0xA0 SHL SUB DUP1 SWAP3 AND SWAP2 DUP3 PUSH1 0x0 MSTORE PUSH1 0x4 PUSH1 0x20 MSTORE DUP4 PUSH1 0x0 KECCAK256 SWAP2 AND SWAP1 DUP2 PUSH1 0x0 MSTORE PUSH1 0x20 MSTORE DUP3 PUSH1 0x0 KECCAK256 SLOAD SWAP2 PUSH1 0x0 MSTORE PUSH1 0x4 PUSH1 0x20 MSTORE DUP3 PUSH1 0x0 KECCAK256 SWAP1 PUSH1 0x0 MSTORE PUSH1 0x20 MSTORE PUSH1 0x1 DUP3 PUSH1 0x0 KECCAK256 ADD SLOAD DUP3 MLOAD SWAP2 DUP3 MSTORE PUSH1 0x20 DUP3 ADD MSTORE RETURN JUMPDEST CALLVALUE PUSH2 0x257 JUMPI PUSH1 0x0 CALLDATASIZE PUSH1 0x3 NOT ADD SLT PUSH2 0x257 JUMPI PUSH1 0x40 MLOAD DUP1 PUSH1 0x7 SLOAD DUP1 DUP4 MSTORE PUSH1 0x20 DUP1 SWAP4 ADD DUP1 SWAP2 PUSH1 0x7 PUSH1 0x0 MSTORE PUSH32 0xA66CC928B5EDB82AF9BD49922954155AB7B0942694BEA4CE44661D9A8736C688 SWAP1 PUSH1 0x0 JUMPDEST DUP7 DUP3 DUP3 LT PUSH2 0xA79 JUMPI DUP7 DUP7 PUSH2 0xA30 DUP3 DUP9 SUB DUP4 PUSH2 0x201A JUMP JUMPDEST PUSH1 0x40 MLOAD SWAP3 DUP4 SWAP3 DUP2 DUP5 ADD SWAP1 DUP3 DUP6 MSTORE MLOAD DUP1 SWAP2 MSTORE PUSH1 0x40 DUP5 ADD SWAP3 SWAP2 PUSH1 0x0 JUMPDEST DUP3 DUP2 LT PUSH2 0xA59 JUMPI POP POP POP POP SUB SWAP1 RETURN JUMPDEST DUP4 MLOAD PUSH1 0x1 PUSH1 0x1 PUSH1 0xA0 SHL SUB AND DUP6 MSTORE DUP7 SWAP6 POP SWAP4 DUP2 ADD SWAP4 SWAP3 DUP2 ADD SWAP3 PUSH1 0x1 ADD PUSH2 0xA4A JUMP JUMPDEST DUP4 SLOAD PUSH1 0x1 PUSH1 0x1 PUSH1 0xA0 SHL SUB AND DUP6 MSTORE SWAP1 SWAP4 ADD SWAP3 PUSH1 0x1 SWAP3 DUP4 ADD SWAP3 ADD PUSH2 0xA1A JUMP JUMPDEST CALLVALUE PUSH2 0x257 JUMPI PUSH1 0x20 CALLDATASIZE PUSH1 0x3 NOT ADD SLT PUSH2 0x257 JUMPI PUSH2 0xAAF PUSH2 0x1FD3 JUMP JUMPDEST PUSH2 0xAB7 PUSH2 0x2247 JUMP JUMPDEST PUSH1 0x1 PUSH1 0x1 PUSH1 0xA0 SHL SUB AND DUP1 ISZERO PUSH2 0xAE3 JUMPI PUSH12 0xFFFFFFFFFFFFFFFFFFFFFFFF PUSH1 0xA0 SHL PUSH1 0xA SLOAD AND OR PUSH1 0xA SSTORE PUSH1 0x0 DUP1 RETURN JUMPDEST PUSH1 0x40 MLOAD PUSH3 0x461BCD PUSH1 0xE5 SHL DUP2 MSTORE PUSH1 0x20 PUSH1 0x4 DUP3 ADD MSTORE PUSH1 0x14 PUSH1 0x24 DUP3 ADD MSTORE PUSH20 0x24B73B30B634B2103332B2903932B1B2B4BB32B9 PUSH1 0x61 SHL PUSH1 0x44 DUP3 ADD MSTORE PUSH1 0x64 SWAP1 REVERT JUMPDEST CALLVALUE PUSH2 0x257 JUMPI PUSH1 0x40 CALLDATASIZE PUSH1 0x3 NOT ADD SLT PUSH2 0x257 JUMPI PUSH2 0xB38 PUSH2 0x1FD3 JUMP JUMPDEST PUSH2 0xB40 PUSH2 0x1FE9 JUMP JUMPDEST SWAP1 PUSH1 0x1 DUP1 PUSH1 0xA0 SHL SUB DUP1 SWAP2 AND PUSH1 0x0 MSTORE PUSH1 0x4 PUSH1 0x20 MSTORE PUSH1 0x40 PUSH1 0x0 KECCAK256 SWAP2 AND PUSH1 0x0 MSTORE PUSH1 0x20 MSTORE PUSH1 0x40 DUP1 PUSH1 0x0 KECCAK256 PUSH1 0x1 DUP2 SLOAD SWAP2 ADD SLOAD DUP3 MLOAD SWAP2 DUP3 MSTORE PUSH1 0x20 DUP3 ADD MSTORE RETURN JUMPDEST CALLVALUE PUSH2 0x257 JUMPI PUSH2 0xB87 CALLDATASIZE PUSH2 0x20C0 JUMP JUMPDEST SWAP2 SWAP1 PUSH2 0xB91 PUSH2 0x23D2 JUMP JUMPDEST PUSH2 0xB99 PUSH2 0x238E JUMP JUMPDEST CALLER PUSH1 0x0 MSTORE PUSH1 0x2 PUSH1 0x20 DUP2 DUP2 MSTORE PUSH2 0xBBA PUSH1 0xFF DUP4 PUSH1 0x40 PUSH1 0x0 KECCAK256 ADD SLOAD PUSH1 0x8 SHR AND PUSH2 0x2602 JUMP JUMPDEST PUSH1 0x1 DUP1 PUSH1 0xA0 SHL SUB DUP1 SWAP4 AND SWAP5 DUP6 PUSH1 0x0 MSTORE PUSH1 0x6 DUP3 MSTORE PUSH2 0xBDE PUSH1 0xFF PUSH1 0x40 PUSH1 0x0 KECCAK256 SLOAD AND PUSH2 0x22E4 JUMP JUMPDEST DUP4 DUP6 AND SWAP5 DUP6 ISZERO PUSH2 0xDE9 JUMPI DUP2 ISZERO SWAP4 PUSH2 0xBF5 DUP6 ISZERO PUSH2 0x2342 JUMP JUMPDEST DUP7 PUSH1 0x0 MSTORE DUP1 DUP5 MSTORE PUSH1 0xFF DUP2 PUSH1 0x40 PUSH1 0x0 KECCAK256 ADD SLOAD AND ISZERO PUSH2 0xDA4 JUMPI CALLER PUSH1 0x0 MSTORE PUSH1 0x4 DUP5 MSTORE PUSH1 0x40 PUSH1 0x0 KECCAK256 DUP9 PUSH1 0x0 MSTORE DUP5 MSTORE PUSH2 0xC30 DUP4 PUSH1 0x40 PUSH1 0x0 KECCAK256 SLOAD LT ISZERO PUSH2 0x2642 JUMP JUMPDEST PUSH2 0xC3D PUSH2 0x30C DUP5 CALLER PUSH2 0x275F JUMP JUMPDEST PUSH1 0x8 SLOAD SWAP5 DUP6 DUP5 MUL SWAP6 DUP5 DUP8 DIV EQ OR ISZERO PUSH2 0x3EE JUMPI PUSH2 0xD0A PUSH2 0xD4D SWAP4 PUSH2 0x2710 PUSH32 0x979ECE407F0F9D2E856185E9AD64957140D0F2085942C94DA79E6507903C5DE7 SWAP8 DIV PUSH2 0xC86 DUP2 DUP4 PUSH2 0x2335 JUMP JUMPDEST SWAP9 CALLER PUSH1 0x0 MSTORE PUSH1 0x4 DUP9 MSTORE PUSH1 0x40 PUSH1 0x0 KECCAK256 DUP13 PUSH1 0x0 MSTORE DUP9 MSTORE PUSH2 0xCA9 DUP4 PUSH1 0x40 PUSH1 0x0 KECCAK256 SLOAD PUSH2 0x2335 JUMP JUMPDEST CALLER PUSH1 0x0 MSTORE PUSH1 0x4 DUP10 MSTORE PUSH1 0x40 PUSH1 0x0 KECCAK256 DUP14 PUSH1 0x0 MSTORE DUP10 MSTORE PUSH1 0x40 PUSH1 0x0 KECCAK256 SSTORE DUP11 PUSH1 0x0 MSTORE PUSH1 0x4 DUP9 MSTORE PUSH1 0x40 PUSH1 0x0 KECCAK256 DUP13 PUSH1 0x0 MSTORE DUP9 MSTORE PUSH2 0xCE4 DUP11 PUSH1 0x40 PUSH1 0x0 KECCAK256 SLOAD PUSH2 0x25F5 JUMP JUMPDEST DUP12 PUSH1 0x0 MSTORE PUSH1 0x4 DUP10 MSTORE PUSH1 0x40 PUSH1 0x0 KECCAK256 DUP14 PUSH1 0x0 MSTORE DUP10 MSTORE PUSH1 0x40 PUSH1 0x0 KECCAK256 SSTORE DUP2 PUSH2 0xD5D JUMPI POP POP CALLER PUSH2 0x27D3 JUMP JUMPDEST CALLER PUSH1 0x0 MSTORE DUP1 DUP5 MSTORE PUSH1 0x4 PUSH1 0x40 PUSH1 0x0 KECCAK256 ADD PUSH2 0xD23 DUP2 SLOAD PUSH2 0x2326 JUMP JUMPDEST SWAP1 SSTORE DUP7 PUSH1 0x0 MSTORE DUP4 MSTORE PUSH1 0x4 PUSH1 0x40 PUSH1 0x0 KECCAK256 ADD PUSH2 0xD3D DUP2 SLOAD PUSH2 0x2326 JUMP JUMPDEST SWAP1 SSTORE PUSH2 0xD48 CALLER PUSH2 0x2851 JUMP JUMPDEST PUSH2 0x2851 JUMP JUMPDEST PUSH1 0x40 MLOAD SWAP3 DUP4 MSTORE CALLER SWAP3 LOG4 PUSH1 0x1 PUSH1 0x0 SSTORE STOP JUMPDEST PUSH2 0xD84 SWAP1 PUSH1 0xA SLOAD AND SWAP2 DUP3 PUSH1 0x0 MSTORE PUSH1 0x4 DUP10 MSTORE PUSH1 0x40 PUSH1 0x0 KECCAK256 DUP14 PUSH1 0x0 MSTORE DUP10 MSTORE PUSH1 0x40 PUSH1 0x0 KECCAK256 SLOAD PUSH2 0x25F5 JUMP JUMPDEST SWAP1 PUSH1 0x0 MSTORE PUSH1 0x4 DUP8 MSTORE PUSH1 0x40 PUSH1 0x0 KECCAK256 DUP12 PUSH1 0x0 MSTORE DUP8 MSTORE PUSH1 0x40 PUSH1 0x0 KECCAK256 SSTORE DUP11 DUP1 PUSH2 0x3A5 JUMP JUMPDEST PUSH1 0x40 MLOAD PUSH3 0x461BCD PUSH1 0xE5 SHL DUP2 MSTORE PUSH1 0x4 DUP2 ADD DUP6 SWAP1 MSTORE PUSH1 0x18 PUSH1 0x24 DUP3 ADD MSTORE PUSH32 0x526563697069656E74206E6F7420726567697374657265640000000000000000 PUSH1 0x44 DUP3 ADD MSTORE PUSH1 0x64 SWAP1 REVERT JUMPDEST PUSH1 0x40 MLOAD PUSH3 0x461BCD PUSH1 0xE5 SHL DUP2 MSTORE PUSH1 0x4 DUP2 ADD DUP5 SWAP1 MSTORE PUSH1 0x11 PUSH1 0x24 DUP3 ADD MSTORE PUSH17 0x125B9D985B1A59081C9958DA5C1A595B9D PUSH1 0x7A SHL PUSH1 0x44 DUP3 ADD MSTORE PUSH1 0x64 SWAP1 REVERT JUMPDEST CALLVALUE PUSH2 0x257 JUMPI PUSH1 0x0 CALLDATASIZE PUSH1 0x3 NOT ADD SLT PUSH2 0x257 JUMPI PUSH1 0xA SLOAD PUSH1 0x40 MLOAD PUSH1 0x1 PUSH1 0x1 PUSH1 0xA0 SHL SUB SWAP1 SWAP2 AND DUP2 MSTORE PUSH1 0x20 SWAP1 RETURN JUMPDEST CALLVALUE PUSH2 0x257 JUMPI PUSH1 0x20 CALLDATASIZE PUSH1 0x3 NOT ADD SLT PUSH2 0x257 JUMPI PUSH1 0x4 CALLDATALOAD PUSH2 0xE67 PUSH2 0x2247 JUMP JUMPDEST PUSH2 0x3E8 DUP2 GT PUSH2 0xE75 JUMPI PUSH1 0x8 SSTORE STOP JUMPDEST PUSH1 0x40 MLOAD PUSH3 0x461BCD PUSH1 0xE5 SHL DUP2 MSTORE PUSH1 0x20 PUSH1 0x4 DUP3 ADD MSTORE PUSH1 0x15 PUSH1 0x24 DUP3 ADD MSTORE PUSH21 0xA0D8C2E8CCDEE4DA40CCCACA40E8DEDE40D0D2CED PUSH1 0x5B SHL PUSH1 0x44 DUP3 ADD MSTORE PUSH1 0x64 SWAP1 REVERT JUMPDEST CALLVALUE PUSH2 0x257 JUMPI PUSH1 0x20 CALLDATASIZE PUSH1 0x3 NOT ADD SLT PUSH2 0x257 JUMPI PUSH1 0x1 PUSH1 0x1 PUSH1 0xA0 SHL SUB PUSH2 0xED3 PUSH2 0x1FD3 JUMP JUMPDEST AND PUSH1 0x0 MSTORE PUSH1 0x2 PUSH1 0x20 MSTORE PUSH2 0x229 PUSH1 0x40 PUSH1 0x0 KECCAK256 PUSH2 0xEED DUP2 PUSH2 0x217C JUMP JUMPDEST SWAP1 PUSH2 0xEFA PUSH1 0x1 DUP3 ADD PUSH2 0x217C JUMP JUMPDEST PUSH1 0x2 DUP3 ADD SLOAD SWAP2 PUSH1 0x3 DUP2 ADD SLOAD PUSH1 0xFF PUSH2 0xF29 PUSH1 0x5 PUSH1 0x4 DUP6 ADD SLOAD SWAP5 ADD SLOAD SWAP5 PUSH1 0x40 MLOAD SWAP9 DUP10 SWAP9 PUSH1 0xE0 DUP11 MSTORE PUSH1 0xE0 DUP11 ADD SWAP1 PUSH2 0x2222 JUMP JUMPDEST SWAP5 DUP2 DUP2 AND ISZERO ISZERO PUSH1 0x40 DUP9 ADD MSTORE PUSH1 0x8 SHR AND ISZERO ISZERO PUSH1 0x60 DUP7 ADD MSTORE PUSH1 0x80 DUP6 ADD MSTORE PUSH1 0xA0 DUP5 ADD MSTORE PUSH1 0xC0 DUP4 ADD MSTORE SUB SWAP1 RETURN JUMPDEST CALLVALUE PUSH2 0x257 JUMPI PUSH1 0x40 CALLDATASIZE PUSH1 0x3 NOT ADD SLT PUSH2 0x257 JUMPI PUSH2 0xF6B PUSH2 0x2247 JUMP JUMPDEST PUSH1 0x4 CALLDATALOAD PUSH1 0xB SSTORE PUSH1 0x24 CALLDATALOAD PUSH1 0xC SSTORE STOP JUMPDEST CALLVALUE PUSH2 0x257 JUMPI PUSH1 0x20 CALLDATASIZE PUSH1 0x3 NOT ADD SLT PUSH2 0x257 JUMPI PUSH1 0x4 CALLDATALOAD PUSH1 0x7 SLOAD DUP2 LT ISZERO PUSH2 0x257 JUMPI PUSH2 0xFA2 PUSH1 0x20 SWAP2 PUSH2 0x20F5 JUMP JUMPDEST SWAP1 SLOAD PUSH1 0x40 MLOAD PUSH1 0x3 SWAP3 SWAP1 SWAP3 SHL SHR PUSH1 0x1 PUSH1 0x1 PUSH1 0xA0 SHL SUB AND DUP2 MSTORE RETURN JUMPDEST CALLVALUE PUSH2 0x257 JUMPI PUSH1 0x40 CALLDATASIZE PUSH1 0x3 NOT ADD SLT PUSH2 0x257 JUMPI PUSH2 0x1005 PUSH2 0xFD7 PUSH2 0x1FD3 JUMP JUMPDEST PUSH2 0xFDF PUSH2 0x2247 JUMP JUMPDEST PUSH2 0xFE7 PUSH2 0x28AC JUMP JUMPDEST PUSH1 0x1 SLOAD PUSH1 0x24 CALLDATALOAD SWAP2 PUSH1 0x1 PUSH1 0x1 PUSH1 0xA0 SHL SUB PUSH1 0x8 SWAP3 SWAP1 SWAP3 SHR DUP3 AND SWAP2 AND PUSH2 0x26D1 JUMP JUMPDEST STOP JUMPDEST CALLVALUE PUSH2 0x257 JUMPI PUSH1 0x40 CALLDATASIZE PUSH1 0x3 NOT ADD SLT PUSH2 0x257 JUMPI PUSH1 0x1 PUSH1 0x1 PUSH1 0xA0 SHL SUB PUSH2 0x1028 PUSH2 0x1FD3 JUMP JUMPDEST AND PUSH1 0x0 MSTORE PUSH1 0xD PUSH1 0x20 MSTORE PUSH1 0x40 PUSH1 0x0 KECCAK256 PUSH1 0x24 CALLDATALOAD PUSH1 0x0 MSTORE PUSH1 0x20 MSTORE PUSH1 0x20 PUSH1 0x40 PUSH1 0x0 KECCAK256 SLOAD PUSH1 0x40 MLOAD SWAP1 DUP2 MSTORE RETURN JUMPDEST CALLVALUE PUSH2 0x257 JUMPI PUSH1 0x0 CALLDATASIZE PUSH1 0x3 NOT ADD SLT PUSH2 0x257 JUMPI PUSH1 0x1 SLOAD PUSH1 0x40 MLOAD PUSH1 0x8 SWAP2 SWAP1 SWAP2 SHR PUSH1 0x1 PUSH1 0x1 PUSH1 0xA0 SHL SUB AND DUP2 MSTORE PUSH1 0x20 SWAP1 RETURN JUMPDEST CALLVALUE PUSH2 0x257 JUMPI PUSH1 0x0 CALLDATASIZE PUSH1 0x3 NOT ADD SLT PUSH2 0x257 JUMPI PUSH2 0x1095 PUSH2 0x2247 JUMP JUMPDEST PUSH2 0x109D PUSH2 0x238E JUMP JUMPDEST PUSH1 0x1 PUSH1 0xFF NOT DUP2 SLOAD AND OR PUSH1 0x1 SSTORE PUSH32 0x62E78CEA01BEE320CD4E420270B5EA74000D11B0C9F74754EBDBFC544B05A258 PUSH1 0x20 PUSH1 0x40 MLOAD CALLER DUP2 MSTORE LOG1 STOP JUMPDEST CALLVALUE PUSH2 0x257 JUMPI PUSH2 0x10E3 CALLDATASIZE PUSH2 0x20C0 JUMP JUMPDEST PUSH2 0x10EE SWAP3 SWAP2 SWAP3 PUSH2 0x23D2 JUMP JUMPDEST PUSH2 0x10F6 PUSH2 0x238E JUMP JUMPDEST CALLER PUSH1 0x0 MSTORE PUSH1 0x20 SWAP3 PUSH1 0x2 DUP5 MSTORE PUSH2 0x1118 PUSH1 0xFF PUSH1 0x2 PUSH1 0x40 PUSH1 0x0 KECCAK256 ADD SLOAD PUSH1 0x8 SHR AND PUSH2 0x2602 JUMP JUMPDEST PUSH1 0x1 DUP1 PUSH1 0xA0 SHL SUB DUP1 SWAP2 AND SWAP3 DUP4 PUSH1 0x0 MSTORE PUSH1 0x6 DUP6 MSTORE PUSH2 0x113C PUSH1 0xFF PUSH1 0x40 PUSH1 0x0 KECCAK256 SLOAD AND PUSH2 0x22E4 JUMP JUMPDEST AND SWAP3 DUP4 ISZERO PUSH2 0x130C JUMPI DUP2 ISZERO SWAP2 PUSH2 0x1151 DUP4 ISZERO PUSH2 0x2342 JUMP JUMPDEST DUP5 PUSH1 0x0 MSTORE PUSH1 0x3 DUP3 MSTORE PUSH2 0x116D PUSH1 0xFF PUSH1 0x3 PUSH1 0x40 PUSH1 0x0 KECCAK256 ADD SLOAD AND PUSH2 0x2720 JUMP JUMPDEST CALLER PUSH1 0x0 MSTORE PUSH1 0x4 DUP3 MSTORE PUSH1 0x40 PUSH1 0x0 KECCAK256 DUP5 PUSH1 0x0 MSTORE DUP3 MSTORE PUSH2 0x1191 DUP2 PUSH1 0x40 PUSH1 0x0 KECCAK256 SLOAD LT ISZERO PUSH2 0x2642 JUMP JUMPDEST PUSH2 0x119E PUSH2 0x30C DUP3 CALLER PUSH2 0x275F JUMP JUMPDEST DUP5 PUSH1 0x0 MSTORE PUSH1 0x3 DUP3 MSTORE PUSH1 0x2 PUSH1 0x40 PUSH1 0x0 KECCAK256 ADD SLOAD SWAP3 DUP4 DUP3 MUL SWAP4 DUP3 DUP6 DIV EQ OR ISZERO PUSH2 0x3EE JUMPI PUSH2 0x127D PUSH1 0x5 SWAP2 PUSH2 0x2710 PUSH1 0x0 SWAP6 DIV SWAP6 PUSH2 0x11D6 DUP8 DUP4 PUSH2 0x2335 JUMP JUMPDEST SWAP7 CALLER DUP8 MSTORE PUSH1 0x4 DUP7 MSTORE PUSH1 0x40 DUP8 KECCAK256 DUP3 DUP9 MSTORE DUP7 MSTORE PUSH2 0x11F5 DUP4 PUSH1 0x40 DUP10 KECCAK256 SLOAD PUSH2 0x2335 JUMP JUMPDEST CALLER DUP9 MSTORE PUSH1 0x4 DUP8 MSTORE PUSH1 0x40 DUP9 KECCAK256 DUP4 DUP10 MSTORE DUP8 MSTORE PUSH1 0x40 DUP9 KECCAK256 SSTORE DUP9 DUP8 MSTORE PUSH1 0x4 DUP7 MSTORE PUSH1 0x40 DUP8 KECCAK256 DUP3 DUP9 MSTORE DUP7 MSTORE PUSH2 0x1228 DUP9 PUSH1 0x40 DUP10 KECCAK256 SLOAD PUSH2 0x25F5 JUMP JUMPDEST DUP10 DUP9 MSTORE PUSH1 0x4 DUP8 MSTORE PUSH1 0x40 DUP9 KECCAK256 DUP4 DUP10 MSTORE DUP8 MSTORE PUSH1 0x40 DUP9 KECCAK256 SSTORE DUP1 PUSH2 0x12D1 JUMPI JUMPDEST POP POP PUSH2 0x124F DUP2 CALLER PUSH2 0x27D3 JUMP JUMPDEST CALLER DUP6 MSTORE PUSH1 0x2 DUP5 MSTORE PUSH1 0x4 PUSH1 0x40 DUP7 KECCAK256 ADD PUSH2 0x1267 DUP2 SLOAD PUSH2 0x2326 JUMP JUMPDEST SWAP1 SSTORE DUP7 DUP6 MSTORE PUSH1 0x3 DUP5 MSTORE PUSH1 0x4 PUSH1 0x40 DUP7 KECCAK256 ADD SLOAD PUSH2 0x25F5 JUMP JUMPDEST DUP6 DUP5 MSTORE PUSH1 0x3 DUP4 MSTORE PUSH1 0x40 DUP5 KECCAK256 SWAP1 PUSH1 0x4 DUP3 ADD SSTORE ADD PUSH2 0x1299 DUP2 SLOAD PUSH2 0x2326 JUMP JUMPDEST SWAP1 SSTORE PUSH1 0x40 MLOAD SWAP3 DUP4 MSTORE DUP3 ADD MSTORE PUSH32 0xCE52EB65327B74F350E4E03F380DCC941AA67074D05DEE2205453FBD1D606204 PUSH1 0x40 CALLER SWAP3 LOG3 PUSH1 0x1 PUSH1 0x0 SSTORE STOP JUMPDEST PUSH2 0x12EF SWAP1 DUP10 DUP9 MSTORE PUSH1 0x4 DUP8 MSTORE PUSH1 0x40 DUP9 KECCAK256 DUP4 DUP10 MSTORE DUP8 MSTORE PUSH1 0x40 DUP9 KECCAK256 SLOAD PUSH2 0x25F5 JUMP JUMPDEST SWAP1 DUP9 DUP8 MSTORE PUSH1 0x4 DUP7 MSTORE PUSH1 0x40 DUP8 KECCAK256 SWAP1 DUP8 MSTORE DUP6 MSTORE PUSH1 0x40 DUP7 KECCAK256 SSTORE DUP8 DUP1 PUSH2 0x1243 JUMP JUMPDEST PUSH1 0x64 SWAP1 PUSH1 0x40 MLOAD SWAP1 PUSH3 0x461BCD PUSH1 0xE5 SHL DUP3 MSTORE PUSH1 0x4 DUP3 ADD MSTORE PUSH1 0xD PUSH1 0x24 DUP3 ADD MSTORE PUSH13 0x125B9D985B1A59081859D95B9D PUSH1 0x9A SHL PUSH1 0x44 DUP3 ADD MSTORE REVERT JUMPDEST CALLVALUE PUSH2 0x257 JUMPI PUSH2 0x134E CALLDATASIZE PUSH2 0x20C0 JUMP JUMPDEST PUSH2 0x1356 PUSH2 0x23D2 JUMP JUMPDEST PUSH2 0x135E PUSH2 0x238E JUMP JUMPDEST CALLER PUSH1 0x0 MSTORE PUSH1 0x20 SWAP2 PUSH1 0x3 DUP4 MSTORE PUSH2 0x137D PUSH1 0xFF PUSH1 0x3 PUSH1 0x40 PUSH1 0x0 KECCAK256 ADD SLOAD AND PUSH2 0x2720 JUMP JUMPDEST PUSH1 0x1 DUP1 PUSH1 0xA0 SHL SUB DUP1 SWAP2 AND SWAP4 DUP5 PUSH1 0x0 MSTORE PUSH1 0x6 DUP5 MSTORE PUSH2 0x13A1 PUSH1 0xFF PUSH1 0x40 PUSH1 0x0 KECCAK256 SLOAD AND PUSH2 0x22E4 JUMP JUMPDEST AND SWAP2 DUP3 ISZERO PUSH2 0x159C JUMPI DUP2 ISZERO SWAP2 PUSH2 0x13B6 DUP4 ISZERO PUSH2 0x2342 JUMP JUMPDEST DUP4 PUSH1 0x0 MSTORE PUSH1 0x2 DUP3 MSTORE PUSH2 0x13D2 PUSH1 0xFF PUSH1 0x2 PUSH1 0x40 PUSH1 0x0 KECCAK256 ADD SLOAD AND PUSH2 0x22A2 JUMP JUMPDEST CALLER PUSH1 0x0 MSTORE PUSH1 0x4 DUP3 MSTORE PUSH1 0x40 PUSH1 0x0 KECCAK256 DUP6 PUSH1 0x0 MSTORE DUP3 MSTORE DUP1 PUSH1 0x40 PUSH1 0x0 KECCAK256 SLOAD LT PUSH2 0x1557 JUMPI CALLER PUSH1 0x0 MSTORE PUSH1 0x3 DUP3 MSTORE PUSH1 0x2 PUSH1 0x40 PUSH1 0x0 KECCAK256 ADD SLOAD SWAP3 DUP4 DUP3 MUL SWAP4 DUP3 DUP6 DIV EQ OR ISZERO PUSH2 0x3EE JUMPI PUSH2 0x14BE PUSH1 0x5 SWAP2 PUSH2 0x2710 PUSH1 0x1 SWAP6 DIV SWAP7 PUSH2 0x1429 DUP9 DUP4 PUSH2 0x2335 JUMP JUMPDEST SWAP8 CALLER PUSH1 0x0 MSTORE PUSH1 0x4 DUP7 MSTORE PUSH1 0x40 PUSH1 0x0 KECCAK256 DUP3 PUSH1 0x0 MSTORE DUP7 MSTORE PUSH2 0x144C DUP4 PUSH1 0x40 PUSH1 0x0 KECCAK256 SLOAD PUSH2 0x2335 JUMP JUMPDEST CALLER PUSH1 0x0 MSTORE PUSH1 0x4 DUP8 MSTORE PUSH1 0x40 PUSH1 0x0 KECCAK256 DUP4 PUSH1 0x0 MSTORE DUP8 MSTORE PUSH1 0x40 PUSH1 0x0 KECCAK256 SSTORE DUP8 PUSH1 0x0 MSTORE PUSH1 0x4 DUP7 MSTORE PUSH1 0x40 PUSH1 0x0 KECCAK256 DUP3 PUSH1 0x0 MSTORE DUP7 MSTORE PUSH2 0x1487 DUP10 PUSH1 0x40 PUSH1 0x0 KECCAK256 SLOAD PUSH2 0x25F5 JUMP JUMPDEST DUP9 PUSH1 0x0 MSTORE PUSH1 0x4 DUP8 MSTORE PUSH1 0x40 PUSH1 0x0 KECCAK256 DUP4 PUSH1 0x0 MSTORE DUP8 MSTORE PUSH1 0x40 PUSH1 0x0 KECCAK256 SSTORE DUP1 PUSH2 0x1514 JUMPI JUMPDEST POP POP CALLER PUSH1 0x0 MSTORE PUSH1 0x3 DUP5 MSTORE PUSH1 0x4 PUSH1 0x40 PUSH1 0x0 KECCAK256 ADD SLOAD PUSH2 0x25F5 JUMP JUMPDEST CALLER PUSH1 0x0 MSTORE PUSH1 0x3 DUP4 MSTORE PUSH1 0x40 PUSH1 0x0 KECCAK256 SWAP1 PUSH1 0x4 DUP3 ADD SSTORE ADD PUSH2 0x14DC DUP2 SLOAD PUSH2 0x2326 JUMP JUMPDEST SWAP1 SSTORE PUSH1 0x40 MLOAD SWAP4 DUP5 MSTORE DUP4 ADD MSTORE PUSH32 0xCE52EB65327B74F350E4E03F380DCC941AA67074D05DEE2205453FBD1D606204 PUSH1 0x40 CALLER SWAP4 LOG3 PUSH1 0x1 PUSH1 0x0 SSTORE STOP JUMPDEST PUSH2 0x1536 SWAP1 CALLER PUSH1 0x0 MSTORE PUSH1 0x4 DUP8 MSTORE PUSH1 0x40 PUSH1 0x0 KECCAK256 DUP4 PUSH1 0x0 MSTORE DUP8 MSTORE PUSH1 0x40 PUSH1 0x0 KECCAK256 SLOAD PUSH2 0x25F5 JUMP JUMPDEST SWAP1 CALLER PUSH1 0x0 MSTORE PUSH1 0x4 DUP7 MSTORE PUSH1 0x40 PUSH1 0x0 KECCAK256 SWAP1 PUSH1 0x0 MSTORE DUP6 MSTORE PUSH1 0x40 PUSH1 0x0 KECCAK256 SSTORE DUP8 DUP1 PUSH2 0x14A6 JUMP JUMPDEST PUSH1 0x40 MLOAD PUSH3 0x461BCD PUSH1 0xE5 SHL DUP2 MSTORE PUSH1 0x4 DUP2 ADD DUP4 SWAP1 MSTORE PUSH1 0x1A PUSH1 0x24 DUP3 ADD MSTORE PUSH32 0x496E73756666696369656E74206167656E742062616C616E6365000000000000 PUSH1 0x44 DUP3 ADD MSTORE PUSH1 0x64 SWAP1 REVERT JUMPDEST PUSH1 0x64 SWAP1 PUSH1 0x40 MLOAD SWAP1 PUSH3 0x461BCD PUSH1 0xE5 SHL DUP3 MSTORE PUSH1 0x4 DUP3 ADD MSTORE PUSH1 0xC PUSH1 0x24 DUP3 ADD MSTORE PUSH12 0x24B73B30B634B2103AB9B2B9 PUSH1 0xA1 SHL PUSH1 0x44 DUP3 ADD MSTORE REVERT JUMPDEST CALLVALUE PUSH2 0x257 JUMPI PUSH1 0x20 CALLDATASIZE PUSH1 0x3 NOT ADD SLT PUSH2 0x257 JUMPI PUSH2 0x15E8 PUSH2 0x1FD3 JUMP JUMPDEST PUSH2 0x15F0 PUSH2 0x2247 JUMP JUMPDEST PUSH1 0x1 PUSH1 0x1 PUSH1 0xA0 SHL SUB SWAP1 DUP2 AND PUSH1 0x0 DUP2 DUP2 MSTORE PUSH1 0x6 PUSH1 0x20 MSTORE PUSH1 0x40 SWAP1 KECCAK256 SLOAD PUSH2 0x1616 SWAP1 PUSH1 0xFF AND PUSH2 0x22E4 JUMP JUMPDEST PUSH1 0x0 DUP2 DUP2 MSTORE PUSH1 0x6 PUSH1 0x20 MSTORE PUSH1 0x40 DUP2 KECCAK256 DUP1 SLOAD PUSH1 0xFF NOT AND SWAP1 SSTORE SWAP1 JUMPDEST PUSH1 0x7 SWAP2 DUP3 SLOAD SWAP3 DUP4 DUP3 LT ISZERO PUSH2 0x1005 JUMPI DUP5 SWAP4 DUP4 PUSH2 0x1648 DUP5 PUSH2 0x20F5 JUMP JUMPDEST SWAP8 SWAP1 SLOAD PUSH1 0x3 SWAP9 DUP10 SHL SHR AND EQ PUSH2 0x166B JUMPI POP POP PUSH2 0x1665 SWAP2 SWAP3 SWAP4 POP PUSH2 0x2326 JUMP JUMPDEST SWAP1 PUSH2 0x162E JUMP JUMPDEST SWAP1 SWAP4 SWAP3 POP PUSH1 0x0 NOT SWAP2 DUP3 DUP3 ADD SWAP2 DUP3 GT PUSH2 0x3EE JUMPI PUSH2 0x169A DUP5 PUSH2 0x168D PUSH2 0x16B9 SWAP5 PUSH2 0x20F5 JUMP JUMPDEST SWAP1 SLOAD SWAP1 DUP10 SHL SHR AND SWAP2 PUSH2 0x20F5 JUMP JUMPDEST SWAP1 SWAP2 SWAP1 DUP3 SLOAD SWAP1 PUSH1 0x3 SHL SWAP2 PUSH1 0x1 DUP1 PUSH1 0xA0 SHL SUB DUP1 SWAP2 AND DUP4 SHL SWAP3 SHL NOT AND OR SWAP1 SSTORE JUMP JUMPDEST DUP3 SLOAD DUP1 ISZERO PUSH2 0x16DB JUMPI ADD SWAP3 PUSH2 0x16CC DUP5 PUSH2 0x20F5 JUMP JUMPDEST DUP2 SLOAD SWAP3 SHL SWAP3 SWAP1 SWAP3 SHL NOT AND SWAP1 SSTORE SSTORE STOP JUMPDEST PUSH4 0x4E487B71 PUSH1 0xE0 SHL PUSH1 0x0 MSTORE PUSH1 0x31 PUSH1 0x4 MSTORE PUSH1 0x24 PUSH1 0x0 REVERT JUMPDEST CALLVALUE PUSH2 0x257 JUMPI PUSH1 0x0 CALLDATASIZE PUSH1 0x3 NOT ADD SLT PUSH2 0x257 JUMPI PUSH2 0x170A PUSH2 0x2247 JUMP JUMPDEST PUSH1 0x1 DUP1 SLOAD PUSH2 0x100 PUSH1 0x1 PUSH1 0xA8 SHL SUB NOT DUP2 AND SWAP1 SWAP2 SSTORE PUSH1 0x0 SWAP1 PUSH1 0x8 SHR PUSH1 0x1 PUSH1 0x1 PUSH1 0xA0 SHL SUB AND PUSH32 0x8BE0079C531659141344CD1FD0A4F28419497F9722A3DAAFE3B4186F6B6457E0 DUP3 DUP1 LOG3 STOP JUMPDEST CALLVALUE PUSH2 0x257 JUMPI PUSH1 0x20 CALLDATASIZE PUSH1 0x3 NOT ADD SLT PUSH2 0x257 JUMPI PUSH2 0x176B PUSH2 0x1FD3 JUMP JUMPDEST PUSH2 0x1773 PUSH2 0x2247 JUMP JUMPDEST PUSH1 0x1 PUSH1 0x1 PUSH1 0xA0 SHL SUB DUP2 AND PUSH1 0x0 DUP2 DUP2 MSTORE PUSH1 0x6 PUSH1 0x20 MSTORE PUSH1 0x40 SWAP1 KECCAK256 SLOAD PUSH1 0xFF AND PUSH2 0x17D3 JUMPI PUSH1 0x0 MSTORE PUSH1 0x6 PUSH1 0x20 MSTORE PUSH1 0x40 PUSH1 0x0 KECCAK256 PUSH1 0x1 PUSH1 0xFF NOT DUP3 SLOAD AND OR SWAP1 SSTORE PUSH1 0x7 SLOAD SWAP1 PUSH9 0x10000000000000000 DUP3 LT ISZERO PUSH2 0x804 JUMPI PUSH2 0x169A DUP3 PUSH1 0x1 PUSH2 0x1005 SWAP5 ADD PUSH1 0x7 SSTORE PUSH2 0x20F5 JUMP JUMPDEST PUSH1 0x40 MLOAD PUSH3 0x461BCD PUSH1 0xE5 SHL DUP2 MSTORE PUSH1 0x20 PUSH1 0x4 DUP3 ADD MSTORE PUSH1 0x17 PUSH1 0x24 DUP3 ADD MSTORE PUSH32 0x546F6B656E20616C726561647920737570706F72746564000000000000000000 PUSH1 0x44 DUP3 ADD MSTORE PUSH1 0x64 SWAP1 REVERT JUMPDEST CALLVALUE PUSH2 0x257 JUMPI PUSH1 0x20 CALLDATASIZE PUSH1 0x3 NOT ADD SLT PUSH2 0x257 JUMPI PUSH1 0x1 PUSH1 0x1 PUSH1 0xA0 SHL SUB PUSH2 0x1839 PUSH2 0x1FD3 JUMP JUMPDEST AND PUSH1 0x0 MSTORE PUSH1 0x6 PUSH1 0x20 MSTORE PUSH1 0x20 PUSH1 0xFF PUSH1 0x40 PUSH1 0x0 KECCAK256 SLOAD AND PUSH1 0x40 MLOAD SWAP1 ISZERO ISZERO DUP2 MSTORE RETURN JUMPDEST CALLVALUE PUSH2 0x257 JUMPI PUSH1 0x0 CALLDATASIZE PUSH1 0x3 NOT ADD SLT PUSH2 0x257 JUMPI PUSH1 0x20 PUSH1 0xB SLOAD PUSH1 0x40 MLOAD SWAP1 DUP2 MSTORE RETURN JUMPDEST CALLVALUE PUSH2 0x257 JUMPI PUSH1 0x0 CALLDATASIZE PUSH1 0x3 NOT ADD SLT PUSH2 0x257 JUMPI PUSH1 0x20 PUSH1 0xFF PUSH1 0x1 SLOAD AND PUSH1 0x40 MLOAD SWAP1 ISZERO ISZERO DUP2 MSTORE RETURN JUMPDEST CALLVALUE PUSH2 0x257 JUMPI PUSH1 0x0 CALLDATASIZE PUSH1 0x3 NOT ADD SLT PUSH2 0x257 JUMPI PUSH1 0x20 PUSH1 0x9 SLOAD PUSH1 0x40 MLOAD SWAP1 DUP2 MSTORE RETURN JUMPDEST CALLVALUE PUSH2 0x257 JUMPI PUSH1 0x20 CALLDATASIZE PUSH1 0x3 NOT ADD SLT PUSH2 0x257 JUMPI PUSH2 0x18CF PUSH2 0x1FD3 JUMP JUMPDEST PUSH2 0x18D7 PUSH2 0x2247 JUMP JUMPDEST PUSH1 0x1 DUP1 PUSH1 0xA0 SHL SUB AND DUP1 PUSH1 0x0 MSTORE PUSH1 0x2 PUSH1 0x20 MSTORE PUSH2 0x18FC PUSH1 0xFF PUSH1 0x2 PUSH1 0x40 PUSH1 0x0 KECCAK256 ADD SLOAD AND PUSH2 0x22A2 JUMP JUMPDEST PUSH1 0x0 MSTORE PUSH1 0x2 PUSH1 0x20 MSTORE PUSH1 0x2 PUSH1 0x40 PUSH1 0x0 KECCAK256 ADD PUSH2 0x100 PUSH2 0xFF00 NOT DUP3 SLOAD AND OR SWAP1 SSTORE PUSH1 0x0 DUP1 RETURN JUMPDEST CALLVALUE PUSH2 0x257 JUMPI PUSH1 0x40 CALLDATASIZE PUSH1 0x3 NOT ADD SLT PUSH2 0x257 JUMPI PUSH2 0x1937 PUSH2 0x1FD3 JUMP JUMPDEST PUSH1 0x24 CALLDATALOAD PUSH2 0x1942 PUSH2 0x23D2 JUMP JUMPDEST PUSH2 0x194A PUSH2 0x238E JUMP JUMPDEST CALLER PUSH1 0x0 MSTORE PUSH1 0x20 SWAP2 PUSH1 0x2 DUP4 MSTORE PUSH2 0x1969 PUSH1 0xFF PUSH1 0x2 PUSH1 0x40 PUSH1 0x0 KECCAK256 ADD SLOAD AND PUSH2 0x22A2 JUMP JUMPDEST PUSH1 0x1 DUP1 PUSH1 0xA0 SHL SUB AND SWAP2 DUP3 PUSH1 0x0 MSTORE PUSH1 0x6 DUP2 MSTORE PUSH2 0x198B PUSH1 0xFF PUSH1 0x40 PUSH1 0x0 KECCAK256 SLOAD AND PUSH2 0x22E4 JUMP JUMPDEST PUSH2 0x1996 DUP3 ISZERO ISZERO PUSH2 0x2342 JUMP JUMPDEST PUSH1 0x40 MLOAD PUSH4 0x23B872DD PUSH1 0xE0 SHL DUP3 DUP3 ADD MSTORE CALLER PUSH1 0x24 DUP3 ADD MSTORE ADDRESS PUSH1 0x44 DUP3 ADD MSTORE PUSH1 0x64 DUP1 DUP3 ADD DUP5 SWAP1 MSTORE DUP2 MSTORE SWAP1 PUSH1 0xA0 DUP3 ADD PUSH1 0x1 PUSH1 0x1 PUSH1 0x40 SHL SUB DUP2 GT DUP4 DUP3 LT OR PUSH2 0x804 JUMPI PUSH32 0x1DE3ECE35391F6BBA650736F2D5D3F12E2CFC54538A340CC5D762D34CA449DE7 SWAP3 PUSH2 0x1A01 SWAP2 PUSH1 0x40 MSTORE DUP6 PUSH2 0x2428 JUMP JUMPDEST CALLER PUSH1 0x0 MSTORE PUSH1 0x4 DUP2 MSTORE PUSH1 0x40 PUSH1 0x0 KECCAK256 DUP5 PUSH1 0x0 MSTORE DUP2 MSTORE PUSH2 0x1A23 DUP4 PUSH1 0x40 PUSH1 0x0 KECCAK256 SLOAD PUSH2 0x25F5 JUMP JUMPDEST CALLER PUSH1 0x0 MSTORE PUSH1 0x4 DUP3 MSTORE PUSH1 0x40 PUSH1 0x0 KECCAK256 DUP6 PUSH1 0x0 MSTORE DUP3 MSTORE PUSH1 0x40 PUSH1 0x0 KECCAK256 SSTORE PUSH1 0x40 MLOAD SWAP3 DUP4 MSTORE CALLER SWAP3 LOG3 PUSH1 0x1 PUSH1 0x0 SSTORE STOP JUMPDEST CALLVALUE PUSH2 0x257 JUMPI PUSH1 0x0 CALLDATASIZE PUSH1 0x3 NOT ADD SLT PUSH2 0x257 JUMPI PUSH2 0x1A65 PUSH2 0x2247 JUMP JUMPDEST PUSH2 0x1A6D PUSH2 0x28AC JUMP JUMPDEST PUSH1 0xFF NOT PUSH1 0x1 SLOAD AND PUSH1 0x1 SSTORE PUSH32 0x5DB9EE0A495BF2E6FF9C91A7834C1BA4FDD244A5E8AA4E537BD38AEAE4B073AA PUSH1 0x20 PUSH1 0x40 MLOAD CALLER DUP2 MSTORE LOG1 STOP JUMPDEST CALLVALUE PUSH2 0x257 JUMPI PUSH1 0x0 CALLDATASIZE PUSH1 0x3 NOT ADD SLT PUSH2 0x257 JUMPI PUSH1 0x20 PUSH1 0x8 SLOAD PUSH1 0x40 MLOAD SWAP1 DUP2 MSTORE RETURN JUMPDEST CALLVALUE PUSH2 0x257 JUMPI PUSH1 0x40 CALLDATASIZE PUSH1 0x3 NOT ADD SLT PUSH2 0x257 JUMPI PUSH1 0x4 CALLDATALOAD PUSH1 0x1 PUSH1 0x1 PUSH1 0x40 SHL SUB DUP2 GT PUSH2 0x257 JUMPI PUSH2 0x1AF1 SWAP1 CALLDATASIZE SWAP1 PUSH1 0x4 ADD PUSH2 0x2056 JUMP JUMPDEST PUSH1 0x24 CALLDATALOAD PUSH1 0x1 PUSH1 0x1 PUSH1 0x40 SHL SUB DUP2 GT PUSH2 0x257 JUMPI PUSH2 0x1B10 SWAP1 CALLDATASIZE SWAP1 PUSH1 0x4 ADD PUSH2 0x2056 JUMP JUMPDEST SWAP1 CALLER PUSH1 0x0 MSTORE PUSH1 0x2 PUSH1 0x20 MSTORE PUSH1 0xFF PUSH1 0x2 PUSH1 0x40 PUSH1 0x0 KECCAK256 ADD SLOAD AND PUSH2 0x1F2D JUMPI PUSH1 0x40 MLOAD DUP2 MLOAD PUSH2 0x1B3D DUP2 DUP4 PUSH1 0x20 DUP7 ADD PUSH2 0x209D JUMP JUMPDEST PUSH1 0x5 SWAP1 DUP3 ADD SWAP1 DUP2 MSTORE DUP2 SWAP1 SUB PUSH1 0x20 ADD SWAP1 KECCAK256 SLOAD PUSH1 0x1 PUSH1 0x1 PUSH1 0xA0 SHL SUB AND PUSH2 0x1EE8 JUMPI PUSH1 0x40 MLOAD PUSH2 0x1B67 DUP2 PUSH2 0x1FFF JUMP JUMPDEST DUP2 DUP2 MSTORE DUP3 PUSH1 0x20 DUP3 ADD MSTORE PUSH1 0x1 PUSH1 0x40 DUP3 ADD MSTORE PUSH1 0x0 PUSH1 0x60 DUP3 ADD MSTORE TIMESTAMP PUSH1 0x80 DUP3 ADD MSTORE PUSH1 0x0 PUSH1 0xA0 DUP3 ADD MSTORE PUSH2 0x1F4 PUSH1 0xC0 DUP3 ADD MSTORE CALLER PUSH1 0x0 MSTORE PUSH1 0x2 PUSH1 0x20 MSTORE PUSH1 0x40 PUSH1 0x0 KECCAK256 SWAP1 DUP1 MLOAD DUP1 MLOAD SWAP1 PUSH1 0x1 PUSH1 0x1 PUSH1 0x40 SHL SUB DUP3 GT PUSH2 0x804 JUMPI DUP2 SWAP1 PUSH2 0x1BC1 DUP6 SLOAD PUSH2 0x2142 JUMP JUMPDEST PUSH1 0x1F DUP2 GT PUSH2 0x1E98 JUMPI JUMPDEST POP PUSH1 0x20 SWAP1 PUSH1 0x1F DUP4 GT PUSH1 0x1 EQ PUSH2 0x1E2C JUMPI PUSH1 0x0 SWAP3 PUSH2 0x1E21 JUMPI JUMPDEST POP POP DUP2 PUSH1 0x1 SHL SWAP2 PUSH1 0x0 NOT SWAP1 PUSH1 0x3 SHL SHR NOT AND OR DUP3 SSTORE JUMPDEST PUSH1 0x20 DUP2 ADD MLOAD DUP1 MLOAD SWAP1 PUSH1 0x1 PUSH1 0x1 PUSH1 0x40 SHL SUB DUP3 GT PUSH2 0x804 JUMPI PUSH2 0x1C19 PUSH1 0x1 DUP6 ADD SLOAD PUSH2 0x2142 JUMP JUMPDEST PUSH1 0x1F DUP2 GT PUSH2 0x1DDA JUMPI JUMPDEST POP PUSH1 0x20 SWAP1 PUSH1 0x1F DUP4 GT PUSH1 0x1 EQ PUSH2 0x1D3F JUMPI PUSH32 0x92822564BAB8864C3A47B34E8D23FBCE5C46234EB5DA261F94087B995AC0F33B SWAP6 SWAP4 DUP4 PUSH2 0x1D20 SWAP7 SWAP5 PUSH1 0x5 SWAP5 PUSH1 0xC0 SWAP5 PUSH1 0x0 SWAP3 PUSH2 0x1D34 JUMPI JUMPDEST POP POP DUP2 PUSH1 0x1 SHL SWAP2 PUSH1 0x0 NOT SWAP1 PUSH1 0x3 SHL SHR NOT AND OR PUSH1 0x1 DUP6 ADD SSTORE JUMPDEST PUSH1 0x2 DUP5 ADD PUSH2 0x1CA0 PUSH1 0x40 DUP4 ADD MLOAD ISZERO ISZERO DUP3 SWAP1 PUSH1 0xFF DUP1 NOT DUP4 SLOAD AND SWAP2 ISZERO ISZERO AND OR SWAP1 SSTORE JUMP JUMPDEST PUSH1 0x60 DUP3 ADD MLOAD ISZERO ISZERO PUSH2 0xFF00 DUP3 SLOAD SWAP2 PUSH1 0x8 SHL AND SWAP1 PUSH2 0xFF00 NOT AND OR SWAP1 SSTORE PUSH1 0x80 DUP2 ADD MLOAD PUSH1 0x3 DUP6 ADD SSTORE PUSH1 0xA0 DUP2 ADD MLOAD PUSH1 0x4 DUP6 ADD SSTORE ADD MLOAD SWAP2 ADD SSTORE PUSH1 0x40 MLOAD PUSH1 0x20 DUP2 DUP4 MLOAD PUSH2 0x1CE8 DUP2 DUP4 DUP6 DUP9 ADD PUSH2 0x209D JUMP JUMPDEST DUP2 ADD PUSH1 0x5 DUP2 MSTORE SUB ADD SWAP1 KECCAK256 CALLER PUSH12 0xFFFFFFFFFFFFFFFFFFFFFFFF PUSH1 0xA0 SHL DUP3 SLOAD AND OR SWAP1 SSTORE PUSH2 0x1D2F PUSH1 0x40 MLOAD SWAP3 DUP4 SWAP3 PUSH1 0x40 DUP5 MSTORE PUSH1 0x40 DUP5 ADD SWAP1 PUSH2 0x2222 JUMP JUMPDEST DUP3 DUP2 SUB PUSH1 0x20 DUP5 ADD MSTORE CALLER SWAP6 PUSH2 0x2222 JUMP JUMPDEST SUB SWAP1 LOG2 STOP JUMPDEST ADD MLOAD SWAP1 POP DUP11 DUP1 PUSH2 0x1C68 JUMP JUMPDEST SWAP1 PUSH1 0x1 DUP6 ADD PUSH1 0x0 MSTORE PUSH1 0x20 PUSH1 0x0 KECCAK256 SWAP2 PUSH1 0x0 JUMPDEST PUSH1 0x1F NOT DUP6 AND DUP2 LT PUSH2 0x1DC2 JUMPI POP SWAP4 PUSH1 0x1 DUP5 PUSH1 0x5 SWAP5 PUSH1 0xC0 SWAP5 PUSH32 0x92822564BAB8864C3A47B34E8D23FBCE5C46234EB5DA261F94087B995AC0F33B SWAP11 SWAP9 PUSH2 0x1D20 SWAP11 SWAP9 PUSH1 0x1F NOT DUP2 AND LT PUSH2 0x1DA9 JUMPI JUMPDEST POP POP POP DUP2 SHL ADD PUSH1 0x1 DUP6 ADD SSTORE PUSH2 0x1C80 JUMP JUMPDEST ADD MLOAD PUSH1 0x0 NOT PUSH1 0xF8 DUP5 PUSH1 0x3 SHL AND SHR NOT AND SWAP1 SSTORE DUP11 DUP1 DUP1 PUSH2 0x1D99 JUMP JUMPDEST SWAP2 SWAP3 PUSH1 0x20 PUSH1 0x1 DUP2 SWAP3 DUP7 DUP6 ADD MLOAD DUP2 SSTORE ADD SWAP5 ADD SWAP3 ADD PUSH2 0x1D50 JUMP JUMPDEST PUSH1 0x1 DUP6 ADD PUSH1 0x0 MSTORE PUSH1 0x20 PUSH1 0x0 KECCAK256 PUSH1 0x1F DUP5 ADD PUSH1 0x5 SHR DUP2 ADD PUSH1 0x20 DUP6 LT PUSH2 0x1E1A JUMPI JUMPDEST PUSH1 0x1F DUP4 ADD PUSH1 0x5 SHR DUP3 ADD DUP2 LT PUSH2 0x1E0E JUMPI POP POP PUSH2 0x1C22 JUMP JUMPDEST PUSH1 0x0 DUP2 SSTORE PUSH1 0x1 ADD PUSH2 0x1DF8 JUMP JUMPDEST POP DUP1 PUSH2 0x1DF8 JUMP JUMPDEST ADD MLOAD SWAP1 POP DUP7 DUP1 PUSH2 0x1BE1 JUMP JUMPDEST SWAP3 POP DUP5 PUSH1 0x0 MSTORE PUSH1 0x20 PUSH1 0x0 KECCAK256 SWAP1 PUSH1 0x0 SWAP4 JUMPDEST PUSH1 0x1F NOT DUP5 AND DUP6 LT PUSH2 0x1E7D JUMPI PUSH1 0x1 SWAP5 POP DUP4 PUSH1 0x1F NOT DUP2 AND LT PUSH2 0x1E64 JUMPI JUMPDEST POP POP POP DUP2 SHL ADD DUP3 SSTORE PUSH2 0x1BF6 JUMP JUMPDEST ADD MLOAD PUSH1 0x0 NOT PUSH1 0xF8 DUP5 PUSH1 0x3 SHL AND SHR NOT AND SWAP1 SSTORE DUP7 DUP1 DUP1 PUSH2 0x1E57 JUMP JUMPDEST DUP2 DUP2 ADD MLOAD DUP4 SSTORE PUSH1 0x20 SWAP5 DUP6 ADD SWAP5 PUSH1 0x1 SWAP1 SWAP4 ADD SWAP3 SWAP1 SWAP2 ADD SWAP1 PUSH2 0x1E3C JUMP JUMPDEST SWAP1 SWAP2 POP DUP5 PUSH1 0x0 MSTORE PUSH1 0x20 PUSH1 0x0 KECCAK256 PUSH1 0x1F DUP5 ADD PUSH1 0x5 SHR DUP2 ADD PUSH1 0x20 DUP6 LT PUSH2 0x1EE1 JUMPI JUMPDEST SWAP1 DUP5 SWAP4 SWAP3 SWAP2 JUMPDEST PUSH1 0x1F DUP4 ADD PUSH1 0x5 SHR DUP3 ADD DUP2 LT PUSH2 0x1ED2 JUMPI POP POP PUSH2 0x1BCA JUMP JUMPDEST PUSH1 0x0 DUP2 SSTORE DUP6 SWAP5 POP PUSH1 0x1 ADD PUSH2 0x1EBC JUMP JUMPDEST POP DUP1 PUSH2 0x1EB6 JUMP JUMPDEST PUSH1 0x40 MLOAD PUSH3 0x461BCD PUSH1 0xE5 SHL DUP2 MSTORE PUSH1 0x20 PUSH1 0x4 DUP3 ADD MSTORE PUSH1 0x1F PUSH1 0x24 DUP3 ADD MSTORE PUSH32 0x50686F6E65206E756D62657220616C7265616479207265676973746572656400 PUSH1 0x44 DUP3 ADD MSTORE PUSH1 0x64 SWAP1 REVERT JUMPDEST PUSH1 0x40 MLOAD PUSH3 0x461BCD PUSH1 0xE5 SHL DUP2 MSTORE PUSH1 0x20 PUSH1 0x4 DUP3 ADD MSTORE PUSH1 0x17 PUSH1 0x24 DUP3 ADD MSTORE PUSH32 0x5573657220616C72656164792072656769737465726564000000000000000000 PUSH1 0x44 DUP3 ADD MSTORE PUSH1 0x64 SWAP1 REVERT JUMPDEST CALLVALUE PUSH2 0x257 JUMPI PUSH1 0x0 CALLDATASIZE PUSH1 0x3 NOT ADD SLT PUSH2 0x257 JUMPI PUSH1 0x20 PUSH1 0xC SLOAD PUSH1 0x40 MLOAD SWAP1 DUP2 MSTORE RETURN JUMPDEST CALLVALUE PUSH2 0x257 JUMPI PUSH1 0x40 CALLDATASIZE PUSH1 0x3 NOT ADD SLT PUSH2 0x257 JUMPI PUSH1 0x20 SWAP1 PUSH1 0x1 PUSH1 0x1 PUSH1 0xA0 SHL SUB PUSH2 0x1FB4 PUSH2 0x1FD3 JUMP JUMPDEST AND PUSH1 0x0 MSTORE PUSH1 0xE DUP3 MSTORE PUSH1 0x40 PUSH1 0x0 KECCAK256 PUSH1 0x24 CALLDATALOAD PUSH1 0x0 MSTORE DUP3 MSTORE PUSH1 0x40 PUSH1 0x0 KECCAK256 SLOAD DUP2 MSTORE RETURN JUMPDEST PUSH1 0x4 CALLDATALOAD SWAP1 PUSH1 0x1 PUSH1 0x1 PUSH1 0xA0 SHL SUB DUP3 AND DUP3 SUB PUSH2 0x257 JUMPI JUMP JUMPDEST PUSH1 0x24 CALLDATALOAD SWAP1 PUSH1 0x1 PUSH1 0x1 PUSH1 0xA0 SHL SUB DUP3 AND DUP3 SUB PUSH2 0x257 JUMPI JUMP JUMPDEST PUSH1 0xE0 DUP2 ADD SWAP1 DUP2 LT PUSH1 0x1 PUSH1 0x1 PUSH1 0x40 SHL SUB DUP3 GT OR PUSH2 0x804 JUMPI PUSH1 0x40 MSTORE JUMP JUMPDEST SWAP1 PUSH1 0x1F DUP1 NOT SWAP2 ADD AND DUP2 ADD SWAP1 DUP2 LT PUSH1 0x1 PUSH1 0x1 PUSH1 0x40 SHL SUB DUP3 GT OR PUSH2 0x804 JUMPI PUSH1 0x40 MSTORE JUMP JUMPDEST PUSH1 0x1 PUSH1 0x1 PUSH1 0x40 SHL SUB DUP2 GT PUSH2 0x804 JUMPI PUSH1 0x1F ADD PUSH1 0x1F NOT AND PUSH1 0x20 ADD SWAP1 JUMP JUMPDEST DUP2 PUSH1 0x1F DUP3 ADD SLT ISZERO PUSH2 0x257 JUMPI DUP1 CALLDATALOAD SWAP1 PUSH2 0x206D DUP3 PUSH2 0x203B JUMP JUMPDEST SWAP3 PUSH2 0x207B PUSH1 0x40 MLOAD SWAP5 DUP6 PUSH2 0x201A JUMP JUMPDEST DUP3 DUP5 MSTORE PUSH1 0x20 DUP4 DUP4 ADD ADD GT PUSH2 0x257 JUMPI DUP2 PUSH1 0x0 SWAP3 PUSH1 0x20 DUP1 SWAP4 ADD DUP4 DUP7 ADD CALLDATACOPY DUP4 ADD ADD MSTORE SWAP1 JUMP JUMPDEST PUSH1 0x0 JUMPDEST DUP4 DUP2 LT PUSH2 0x20B0 JUMPI POP POP PUSH1 0x0 SWAP2 ADD MSTORE JUMP JUMPDEST DUP2 DUP2 ADD MLOAD DUP4 DUP3 ADD MSTORE PUSH1 0x20 ADD PUSH2 0x20A0 JUMP JUMPDEST PUSH1 0x60 SWAP1 PUSH1 0x3 NOT ADD SLT PUSH2 0x257 JUMPI PUSH1 0x1 PUSH1 0x1 PUSH1 0xA0 SHL SUB SWAP1 PUSH1 0x4 CALLDATALOAD DUP3 DUP2 AND DUP2 SUB PUSH2 0x257 JUMPI SWAP2 PUSH1 0x24 CALLDATALOAD SWAP1 DUP2 AND DUP2 SUB PUSH2 0x257 JUMPI SWAP1 PUSH1 0x44 CALLDATALOAD SWAP1 JUMP JUMPDEST PUSH1 0x7 SLOAD DUP2 LT ISZERO PUSH2 0x212C JUMPI PUSH1 0x7 PUSH1 0x0 MSTORE PUSH32 0xA66CC928B5EDB82AF9BD49922954155AB7B0942694BEA4CE44661D9A8736C688 ADD SWAP1 PUSH1 0x0 SWAP1 JUMP JUMPDEST PUSH4 0x4E487B71 PUSH1 0xE0 SHL PUSH1 0x0 MSTORE PUSH1 0x32 PUSH1 0x4 MSTORE PUSH1 0x24 PUSH1 0x0 REVERT JUMPDEST SWAP1 PUSH1 0x1 DUP3 DUP2 SHR SWAP3 AND DUP1 ISZERO PUSH2 0x2172 JUMPI JUMPDEST PUSH1 0x20 DUP4 LT EQ PUSH2 0x215C JUMPI JUMP JUMPDEST PUSH4 0x4E487B71 PUSH1 0xE0 SHL PUSH1 0x0 MSTORE PUSH1 0x22 PUSH1 0x4 MSTORE PUSH1 0x24 PUSH1 0x0 REVERT JUMPDEST SWAP2 PUSH1 0x7F AND SWAP2 PUSH2 0x2151 JUMP JUMPDEST SWAP1 PUSH1 0x40 MLOAD SWAP2 DUP3 PUSH1 0x0 DUP3 SLOAD SWAP3 PUSH2 0x2190 DUP5 PUSH2 0x2142 JUMP JUMPDEST SWAP1 DUP2 DUP5 MSTORE PUSH1 0x1 SWAP5 DUP6 DUP2 AND SWAP1 DUP2 PUSH1 0x0 EQ PUSH2 0x21FF JUMPI POP PUSH1 0x1 EQ PUSH2 0x21BC JUMPI JUMPDEST POP POP PUSH2 0x21BA SWAP3 POP SUB DUP4 PUSH2 0x201A JUMP JUMPDEST JUMP JUMPDEST SWAP1 SWAP4 SWAP2 POP PUSH1 0x0 MSTORE PUSH1 0x20 SWAP1 DUP2 PUSH1 0x0 KECCAK256 SWAP4 PUSH1 0x0 SWAP2 JUMPDEST DUP2 DUP4 LT PUSH2 0x21E7 JUMPI POP POP PUSH2 0x21BA SWAP4 POP DUP3 ADD ADD CODESIZE DUP1 PUSH2 0x21AC JUMP JUMPDEST DUP6 SLOAD DUP9 DUP5 ADD DUP6 ADD MSTORE SWAP5 DUP6 ADD SWAP5 DUP8 SWAP5 POP SWAP2 DUP4 ADD SWAP2 PUSH2 0x21CF JUMP JUMPDEST SWAP2 POP POP PUSH2 0x21BA SWAP5 POP PUSH1 0x20 SWAP3 POP PUSH1 0xFF NOT AND DUP3 DUP5 ADD MSTORE ISZERO ISZERO PUSH1 0x5 SHL DUP3 ADD ADD CODESIZE DUP1 PUSH2 0x21AC JUMP JUMPDEST SWAP1 PUSH1 0x20 SWAP2 PUSH2 0x223B DUP2 MLOAD DUP1 SWAP3 DUP2 DUP6 MSTORE DUP6 DUP1 DUP7 ADD SWAP2 ADD PUSH2 0x209D JUMP JUMPDEST PUSH1 0x1F ADD PUSH1 0x1F NOT AND ADD ADD SWAP1 JUMP JUMPDEST PUSH1 0x1 SLOAD PUSH1 0x8 SHR PUSH1 0x1 PUSH1 0x1 PUSH1 0xA0 SHL SUB AND CALLER SUB PUSH2 0x225E JUMPI JUMP JUMPDEST PUSH1 0x64 PUSH1 0x40 MLOAD PUSH3 0x461BCD PUSH1 0xE5 SHL DUP2 MSTORE PUSH1 0x20 PUSH1 0x4 DUP3 ADD MSTORE PUSH1 0x20 PUSH1 0x24 DUP3 ADD MSTORE PUSH32 0x4F776E61626C653A2063616C6C6572206973206E6F7420746865206F776E6572 PUSH1 0x44 DUP3 ADD MSTORE REVERT JUMPDEST ISZERO PUSH2 0x22A9 JUMPI JUMP JUMPDEST PUSH1 0x40 MLOAD PUSH3 0x461BCD PUSH1 0xE5 SHL DUP2 MSTORE PUSH1 0x20 PUSH1 0x4 DUP3 ADD MSTORE PUSH1 0x13 PUSH1 0x24 DUP3 ADD MSTORE PUSH19 0x155CD95C881B9BDD081C9959DA5CDD195C9959 PUSH1 0x6A SHL PUSH1 0x44 DUP3 ADD MSTORE PUSH1 0x64 SWAP1 REVERT JUMPDEST ISZERO PUSH2 0x22EB JUMPI JUMP JUMPDEST PUSH1 0x40 MLOAD PUSH3 0x461BCD PUSH1 0xE5 SHL DUP2 MSTORE PUSH1 0x20 PUSH1 0x4 DUP3 ADD MSTORE PUSH1 0x13 PUSH1 0x24 DUP3 ADD MSTORE PUSH19 0x151BDAD95B881B9BDD081CDD5C1C1BDC9D1959 PUSH1 0x6A SHL PUSH1 0x44 DUP3 ADD MSTORE PUSH1 0x64 SWAP1 REVERT JUMPDEST PUSH1 0x0 NOT DUP2 EQ PUSH2 0x3EE JUMPI PUSH1 0x1 ADD SWAP1 JUMP JUMPDEST SWAP2 SWAP1 DUP3 SUB SWAP2 DUP3 GT PUSH2 0x3EE JUMPI JUMP JUMPDEST ISZERO PUSH2 0x2349 JUMPI JUMP JUMPDEST PUSH1 0x40 MLOAD PUSH3 0x461BCD PUSH1 0xE5 SHL DUP2 MSTORE PUSH1 0x20 PUSH1 0x4 DUP3 ADD MSTORE PUSH1 0x1D PUSH1 0x24 DUP3 ADD MSTORE PUSH32 0x416D6F756E74206D7573742062652067726561746572207468616E2030000000 PUSH1 0x44 DUP3 ADD MSTORE PUSH1 0x64 SWAP1 REVERT JUMPDEST PUSH1 0xFF PUSH1 0x1 SLOAD AND PUSH2 0x239A JUMPI JUMP JUMPDEST PUSH1 0x40 MLOAD PUSH3 0x461BCD PUSH1 0xE5 SHL DUP2 MSTORE PUSH1 0x20 PUSH1 0x4 DUP3 ADD MSTORE PUSH1 0x10 PUSH1 0x24 DUP3 ADD MSTORE PUSH16 0x14185D5CD8589B194E881C185D5CD959 PUSH1 0x82 SHL PUSH1 0x44 DUP3 ADD MSTORE PUSH1 0x64 SWAP1 REVERT JUMPDEST PUSH1 0x2 PUSH1 0x0 SLOAD EQ PUSH2 0x23E3 JUMPI PUSH1 0x2 PUSH1 0x0 SSTORE JUMP JUMPDEST PUSH1 0x40 MLOAD PUSH3 0x461BCD PUSH1 0xE5 SHL DUP2 MSTORE PUSH1 0x20 PUSH1 0x4 DUP3 ADD MSTORE PUSH1 0x1F PUSH1 0x24 DUP3 ADD MSTORE PUSH32 0x5265656E7472616E637947756172643A207265656E7472616E742063616C6C00 PUSH1 0x44 DUP3 ADD MSTORE PUSH1 0x64 SWAP1 REVERT JUMPDEST PUSH1 0x1 DUP1 PUSH1 0xA0 SHL SUB AND SWAP1 PUSH1 0x40 MLOAD PUSH1 0x40 DUP2 ADD SWAP1 DUP1 DUP3 LT PUSH1 0x1 PUSH1 0x1 PUSH1 0x40 SHL SUB DUP4 GT OR PUSH2 0x804 JUMPI PUSH2 0x24B7 SWAP2 PUSH1 0x40 MSTORE PUSH1 0x20 SWAP4 DUP5 DUP3 MSTORE PUSH32 0x5361666545524332303A206C6F772D6C6576656C2063616C6C206661696C6564 DUP6 DUP4 ADD MSTORE PUSH1 0x0 DUP1 DUP6 DUP8 DUP3 SWAP8 MLOAD SWAP2 ADD DUP3 DUP6 GAS CALL RETURNDATASIZE ISZERO PUSH2 0x2554 JUMPI RETURNDATASIZE SWAP2 PUSH2 0x249C DUP4 PUSH2 0x203B JUMP JUMPDEST SWAP3 PUSH2 0x24AA PUSH1 0x40 MLOAD SWAP5 DUP6 PUSH2 0x201A JUMP JUMPDEST DUP4 MSTORE RETURNDATASIZE DUP7 DUP9 DUP6 ADD RETURNDATACOPY PUSH2 0x2558 JUMP JUMPDEST DUP1 MLOAD SWAP2 DUP3 ISZERO SWAP2 DUP5 DUP4 ISZERO PUSH2 0x2529 JUMPI JUMPDEST POP POP POP SWAP1 POP ISZERO PUSH2 0x24D2 JUMPI POP JUMP JUMPDEST PUSH1 0x84 SWAP1 PUSH1 0x40 MLOAD SWAP1 PUSH3 0x461BCD PUSH1 0xE5 SHL DUP3 MSTORE PUSH1 0x4 DUP3 ADD MSTORE PUSH1 0x2A PUSH1 0x24 DUP3 ADD MSTORE PUSH32 0x5361666545524332303A204552433230206F7065726174696F6E20646964206E PUSH1 0x44 DUP3 ADD MSTORE PUSH10 0x1BDD081CDD58D8D95959 PUSH1 0xB2 SHL PUSH1 0x64 DUP3 ADD MSTORE REVERT JUMPDEST SWAP2 SWAP4 DUP2 DUP1 SWAP5 POP ADD SUB SLT PUSH2 0x2550 JUMPI DUP3 ADD MLOAD SWAP1 DUP2 ISZERO ISZERO DUP3 SUB PUSH2 0x254D JUMPI POP DUP1 CODESIZE DUP1 DUP5 PUSH2 0x24C5 JUMP JUMPDEST DUP1 REVERT JUMPDEST POP DUP1 REVERT JUMPDEST PUSH1 0x60 SWAP2 JUMPDEST SWAP2 SWAP3 SWAP1 ISZERO PUSH2 0x25BA JUMPI POP DUP2 MLOAD ISZERO PUSH2 0x256C JUMPI POP SWAP1 JUMP JUMPDEST EXTCODESIZE ISZERO PUSH2 0x2575 JUMPI SWAP1 JUMP JUMPDEST PUSH1 0x40 MLOAD PUSH3 0x461BCD PUSH1 0xE5 SHL DUP2 MSTORE PUSH1 0x20 PUSH1 0x4 DUP3 ADD MSTORE PUSH1 0x1D PUSH1 0x24 DUP3 ADD MSTORE PUSH32 0x416464726573733A2063616C6C20746F206E6F6E2D636F6E7472616374000000 PUSH1 0x44 DUP3 ADD MSTORE PUSH1 0x64 SWAP1 REVERT JUMPDEST DUP3 MLOAD SWAP1 SWAP2 POP ISZERO PUSH2 0x25CD JUMPI POP DUP1 MLOAD SWAP1 PUSH1 0x20 ADD REVERT JUMPDEST PUSH1 0x40 MLOAD PUSH3 0x461BCD PUSH1 0xE5 SHL DUP2 MSTORE PUSH1 0x20 PUSH1 0x4 DUP3 ADD MSTORE SWAP1 DUP2 SWAP1 PUSH2 0x25F1 SWAP1 PUSH1 0x24 DUP4 ADD SWAP1 PUSH2 0x2222 JUMP JUMPDEST SUB SWAP1 REVERT JUMPDEST SWAP2 SWAP1 DUP3 ADD DUP1 SWAP3 GT PUSH2 0x3EE JUMPI JUMP JUMPDEST ISZERO PUSH2 0x2609 JUMPI JUMP JUMPDEST PUSH1 0x40 MLOAD PUSH3 0x461BCD PUSH1 0xE5 SHL DUP2 MSTORE PUSH1 0x20 PUSH1 0x4 DUP3 ADD MSTORE PUSH1 0x11 PUSH1 0x24 DUP3 ADD MSTORE PUSH17 0x155CD95C881B9BDD081D995C9A599A5959 PUSH1 0x7A SHL PUSH1 0x44 DUP3 ADD MSTORE PUSH1 0x64 SWAP1 REVERT JUMPDEST ISZERO PUSH2 0x2649 JUMPI JUMP JUMPDEST PUSH1 0x40 MLOAD PUSH3 0x461BCD PUSH1 0xE5 SHL DUP2 MSTORE PUSH1 0x20 PUSH1 0x4 DUP3 ADD MSTORE PUSH1 0x14 PUSH1 0x24 DUP3 ADD MSTORE PUSH20 0x496E73756666696369656E742062616C616E6365 PUSH1 0x60 SHL PUSH1 0x44 DUP3 ADD MSTORE PUSH1 0x64 SWAP1 REVERT JUMPDEST ISZERO PUSH2 0x268C JUMPI JUMP JUMPDEST PUSH1 0x40 MLOAD PUSH3 0x461BCD PUSH1 0xE5 SHL DUP2 MSTORE PUSH1 0x20 PUSH1 0x4 DUP3 ADD MSTORE PUSH1 0x1A PUSH1 0x24 DUP3 ADD MSTORE PUSH32 0x5472616E73616374696F6E206C696D6974206578636565646564000000000000 PUSH1 0x44 DUP3 ADD MSTORE PUSH1 0x64 SWAP1 REVERT JUMPDEST PUSH1 0x40 MLOAD PUSH4 0xA9059CBB PUSH1 0xE0 SHL PUSH1 0x20 DUP3 ADD MSTORE PUSH1 0x1 PUSH1 0x1 PUSH1 0xA0 SHL SUB SWAP1 SWAP3 AND PUSH1 0x24 DUP4 ADD MSTORE PUSH1 0x44 DUP1 DUP4 ADD SWAP4 SWAP1 SWAP4 MSTORE SWAP2 DUP2 MSTORE PUSH1 0x80 DUP2 ADD SWAP2 PUSH1 0x1 PUSH1 0x1 PUSH1 0x40 SHL SUB DUP4 GT DUP3 DUP5 LT OR PUSH2 0x804 JUMPI PUSH2 0x21BA SWAP3 PUSH1 0x40 MSTORE PUSH2 0x2428 JUMP JUMPDEST ISZERO PUSH2 0x2727 JUMPI JUMP JUMPDEST PUSH1 0x40 MLOAD PUSH3 0x461BCD PUSH1 0xE5 SHL DUP2 MSTORE PUSH1 0x20 PUSH1 0x4 DUP3 ADD MSTORE PUSH1 0x10 PUSH1 0x24 DUP3 ADD MSTORE PUSH16 0x4167656E74206E6F7420616374697665 PUSH1 0x80 SHL PUSH1 0x44 DUP3 ADD MSTORE PUSH1 0x64 SWAP1 REVERT JUMPDEST PUSH1 0x1 DUP1 PUSH1 0xA0 SHL SUB AND SWAP1 PUSH1 0x0 DUP3 DUP2 MSTORE PUSH1 0xD PUSH1 0x20 MSTORE PUSH1 0x40 DUP2 KECCAK256 PUSH3 0x15180 TIMESTAMP DIV DUP3 MSTORE PUSH1 0x20 MSTORE PUSH2 0x278F DUP3 PUSH1 0x40 DUP4 KECCAK256 SLOAD PUSH2 0x25F5 JUMP JUMPDEST PUSH1 0xB SLOAD LT ISZERO SWAP3 DUP4 PUSH2 0x27A1 JUMPI JUMPDEST POP POP POP SWAP1 JUMP JUMPDEST PUSH2 0x27C6 SWAP4 POP SWAP1 PUSH1 0x40 SWAP2 DUP2 MSTORE PUSH1 0xE PUSH1 0x20 MSTORE DUP2 DUP2 KECCAK256 PUSH3 0x278D00 TIMESTAMP DIV DUP3 MSTORE PUSH1 0x20 MSTORE KECCAK256 SLOAD PUSH2 0x25F5 JUMP JUMPDEST PUSH1 0xC SLOAD LT ISZERO CODESIZE DUP1 DUP1 PUSH2 0x279B JUMP JUMPDEST SWAP1 PUSH3 0x15180 TIMESTAMP DIV SWAP1 PUSH3 0x278D00 TIMESTAMP DIV SWAP3 PUSH1 0x1 DUP1 PUSH1 0xA0 SHL SUB AND SWAP3 PUSH1 0x0 SWAP2 DUP5 DUP4 MSTORE PUSH2 0x283F PUSH1 0x20 SWAP2 PUSH1 0xD DUP4 MSTORE PUSH1 0x40 SWAP6 DUP7 DUP7 KECCAK256 DUP2 DUP8 MSTORE DUP5 MSTORE PUSH2 0x2813 DUP3 DUP9 DUP9 KECCAK256 SLOAD PUSH2 0x25F5 JUMP JUMPDEST SWAP1 DUP9 DUP8 MSTORE PUSH1 0xD DUP6 MSTORE DUP8 DUP8 KECCAK256 SWAP1 DUP8 MSTORE DUP5 MSTORE DUP7 DUP7 KECCAK256 SSTORE DUP7 DUP6 MSTORE PUSH1 0xE DUP4 MSTORE DUP6 DUP6 KECCAK256 DUP5 DUP7 MSTORE DUP4 MSTORE DUP6 DUP6 KECCAK256 SLOAD PUSH2 0x25F5 JUMP JUMPDEST SWAP5 DUP4 MSTORE PUSH1 0xE DUP2 MSTORE DUP4 DUP4 KECCAK256 SWAP2 DUP4 MSTORE MSTORE KECCAK256 SSTORE JUMP JUMPDEST PUSH1 0x1 PUSH1 0x1 PUSH1 0xA0 SHL SUB AND PUSH1 0x0 DUP2 DUP2 MSTORE PUSH1 0x2 PUSH1 0x20 MSTORE PUSH1 0x40 DUP2 KECCAK256 PUSH1 0x5 ADD SLOAD SWAP2 PUSH2 0x352 DUP4 LT ISZERO PUSH2 0x28A7 JUMPI PUSH1 0x1 DUP4 ADD DUP1 SWAP4 GT PUSH2 0x2893 JUMPI DUP2 MSTORE PUSH1 0x2 PUSH1 0x20 MSTORE PUSH1 0x40 SWAP1 KECCAK256 PUSH1 0x5 ADD SSTORE JUMP JUMPDEST PUSH4 0x4E487B71 PUSH1 0xE0 SHL DUP3 MSTORE PUSH1 0x11 PUSH1 0x4 MSTORE PUSH1 0x24 DUP3 REVERT JUMPDEST POP POP POP JUMP JUMPDEST PUSH1 0xFF PUSH1 0x1 SLOAD AND ISZERO PUSH2 0x28B9 JUMPI JUMP JUMPDEST PUSH1 0x40 MLOAD PUSH3 0x461BCD PUSH1 0xE5 SHL DUP2 MSTORE PUSH1 0x20 PUSH1 0x4 DUP3 ADD MSTORE PUSH1 0x14 PUSH1 0x24 DUP3 ADD MSTORE PUSH20 0x14185D5CD8589B194E881B9BDD081C185D5CD959 PUSH1 0x62 SHL PUSH1 0x44 DUP3 ADD MSTORE PUSH1 0x64 SWAP1 REVERT INVALID LOG2 PUSH5 0x6970667358 0x22 SLT KECCAK256 0xD3 SELFDESTRUCT SHR 0x27 0xD1 0xF9 PUSH24 0x38DD311F1C7B0930929B47D9A9986C0D2FA0323D54974867 0xD2 PUSH5 0x736F6C6343 STOP ADDMOD SGT STOP CALLER "},"methodIdentifiers":{"addSupportedToken(address)":"6d69fcaf","agentCommission()":"593ee5be","agents(address)":"fd66091e","balances(address,address)":"c23f001f","cashIn(address,address,uint256)":"7982f5b4","cashOut(address,address,uint256)":"810e4ff0","dailyLimit()":"67eeba0c","dailySpent(address,uint256)":"9061a57f","deposit(address,uint256)":"47e7ef24","emergencyWithdraw(address,uint256)":"95ccea67","feeReceiver()":"b3f00674","getBalance(address,address)":"d4fac45d","getSupportedTokens()":"d3c7c2c7","getUserByPhone(string)":"eada609d","monthlyLimit()":"0a6005da","monthlySpent(address,uint256)":"07e25876","owner()":"8da5cb5b","pause()":"8456cb59","paused()":"5c975abb","phoneToAddress(string)":"230e7c32","platformFee()":"26232a2e","registerAgent(string,string,uint256)":"da6b03bc","registerUser(string,string)":"1d2e4afd","removeSupportedToken(address)":"76319190","renounceOwnership()":"715018a6","supportedTokens(address)":"68c4ac26","tokenList(uint256)":"9ead7222","transfer(address,address,uint256)":"beabacc8","transferOwnership(address)":"f2fde38b","unpause()":"3f4ba83a","updateFeeReceiver(address)":"c69bebe4","updateLimits(uint256,uint256)":"a2240e19","updatePlatformFee(uint256)":"aa0b5988","users(address)":"a87430ba","verifyUser(address)":"4d813120","withdraw(address,uint256)":"f3fef3a3"}},"storageLayout":{"storage":[{"astId":256,"contract":"contracts/VillageWallet.sol:VillageWallet","label":"_status","offset":0,"slot":"0","type":"t_uint256"},{"astId":155,"contract":"contracts/VillageWallet.sol:VillageWallet","label":"_paused","offset":0,"slot":"1","type":"t_bool"},{"astId":7,"contract":"contracts/VillageWallet.sol:VillageWallet","label":"_owner","offset":1,"slot":"1","type":"t_address"},{"astId":8994,"contract":"contracts/VillageWallet.sol:VillageWallet","label":"users","offset":0,"slot":"2","type":"t_mapping(t_address,t_struct(User)8969_storage)"},{"astId":8999,"contract":"contracts/VillageWallet.sol:VillageWallet","label":"agents","offset":0,"slot":"3","type":"t_mapping(t_address,t_struct(Agent)8984_storage)"},{"astId":9006,"contract":"contracts/VillageWallet.sol:VillageWallet","label":"balances","offset":0,"slot":"4","type":"t_mapping(t_address,t_mapping(t_address,t_struct(Balance)8989_storage))"},{"astId":9010,"contract":"contracts/VillageWallet.sol:VillageWallet","label":"phoneToAddress","offset":0,"slot":"5","type":"t_mapping(t_string_memory_ptr,t_address)"},{"astId":9014,"contract":"contracts/VillageWallet.sol:VillageWallet","label":"supportedTokens","offset":0,"slot":"6","type":"t_mapping(t_address,t_bool)"},{"astId":9017,"contract":"contracts/VillageWallet.sol:VillageWallet","label":"tokenList","offset":0,"slot":"7","type":"t_array(t_address)dyn_storage"},{"astId":9020,"contract":"contracts/VillageWallet.sol:VillageWallet","label":"platformFee","offset":0,"slot":"8","type":"t_uint256"},{"astId":9023,"contract":"contracts/VillageWallet.sol:VillageWallet","label":"agentCommission","offset":0,"slot":"9","type":"t_uint256"},{"astId":9025,"contract":"contracts/VillageWallet.sol:VillageWallet","label":"feeReceiver","offset":0,"slot":"10","type":"t_address"},{"astId":9032,"contract":"contracts/VillageWallet.sol:VillageWallet","label":"dailyLimit","offset":0,"slot":"11","type":"t_uint256"},{"astId":9039,"contract":"contracts/VillageWallet.sol:VillageWallet","label":"monthlyLimit","offset":0,"slot":"12","type":"t_uint256"},{"astId":9045,"contract":"contracts/VillageWallet.sol:VillageWallet","label":"dailySpent","offset":0,"slot":"13","type":"t_mapping(t_address,t_mapping(t_uint256,t_uint256))"},{"astId":9051,"contract":"contracts/VillageWallet.sol:VillageWallet","label":"monthlySpent","offset":0,"slot":"14","type":"t_mapping(t_address,t_mapping(t_uint256,t_uint256))"}],"types":{"t_address":{"encoding":"inplace","label":"address","numberOfBytes":"20"},"t_array(t_address)dyn_storage":{"base":"t_address","encoding":"dynamic_array","label":"address[]","numberOfBytes":"32"},"t_bool":{"encoding":"inplace","label":"bool","numberOfBytes":"1"},"t_mapping(t_address,t_bool)":{"encoding":"mapping","key":"t_address","label":"mapping(address => bool)","numberOfBytes":"32","value":"t_bool"},"t_mapping(t_address,t_mapping(t_address,t_struct(Balance)8989_storage))":{"encoding":"mapping","key":"t_address","label":"mapping(address => mapping(address => struct VillageWallet.Balance))","numberOfBytes":"32","value":"t_mapping(t_address,t_struct(Balance)8989_storage)"},"t_mapping(t_address,t_mapping(t_uint256,t_uint256))":{"encoding":"mapping","key":"t_address","label":"mapping(address => mapping(uint256 => uint256))","numberOfBytes":"32","value":"t_mapping(t_uint256,t_uint256)"},"t_mapping(t_address,t_struct(Agent)8984_storage)":{"encoding":"mapping","key":"t_address","label":"mapping(address => struct VillageWallet.Agent)","numberOfBytes":"32","value":"t_struct(Agent)8984_storage"},"t_mapping(t_address,t_struct(Balance)8989_storage)":{"encoding":"mapping","key":"t_address","label":"mapping(address => struct VillageWallet.Balance)","numberOfBytes":"32","value":"t_struct(Balance)8989_storage"},"t_mapping(t_address,t_struct(User)8969_storage)":{"encoding":"mapping","key":"t_address","label":"mapping(address => struct VillageWallet.User)","numberOfBytes":"32","value":"t_struct(User)8969_storage"},"t_mapping(t_string_memory_ptr,t_address)":{"encoding":"mapping","key":"t_string_memory_ptr","label":"mapping(string => address)","numberOfBytes":"32","value":"t_address"},"t_mapping(t_uint256,t_uint256)":{"encoding":"mapping","key":"t_uint256","label":"mapping(uint256 => uint256)","numberOfBytes":"32","value":"t_uint256"},"t_string_memory_ptr":{"encoding":"bytes","label":"string","numberOfBytes":"32"},"t_string_storage":{"encoding":"bytes","label":"string","numberOfBytes":"32"},"t_struct(Agent)8984_storage":{"encoding":"inplace","label":"struct VillageWallet.Agent","members":[{"astId":8971,"contract":"contracts/VillageWallet.sol:VillageWallet","label":"location","offset":0,"slot":"0","type":"t_string_storage"},{"astId":8973,"contract":"contracts/VillageWallet.sol:VillageWallet","label":"businessName","offset":0,"slot":"1","type":"t_string_storage"},{"astId":8975,"contract":"contracts/VillageWallet.sol:VillageWallet","label":"commissionRate","offset":0,"slot":"2","type":"t_uint256"},{"astId":8977,"contract":"contracts/VillageWallet.sol:VillageWallet","label":"isActive","offset":0,"slot":"3","type":"t_bool"},{"astId":8979,"contract":"contracts/VillageWallet.sol:VillageWallet","label":"totalVolume","offset":0,"slot":"4","type":"t_uint256"},{"astId":8981,"contract":"contracts/VillageWallet.sol:VillageWallet","label":"successfulTransactions","offset":0,"slot":"5","type":"t_uint256"},{"astId":8983,"contract":"contracts/VillageWallet.sol:VillageWallet","label":"registrationTime","offset":0,"slot":"6","type":"t_uint256"}],"numberOfBytes":"224"},"t_struct(Balance)8989_storage":{"encoding":"inplace","label":"struct VillageWallet.Balance","members":[{"astId":8986,"contract":"contracts/VillageWallet.sol:VillageWallet","label":"available","offset":0,"slot":"0","type":"t_uint256"},{"astId":8988,"contract":"contracts/VillageWallet.sol:VillageWallet","label":"locked","offset":0,"slot":"1","type":"t_uint256"}],"numberOfBytes":"64"},"t_struct(User)8969_storage":{"encoding":"inplace","label":"struct VillageWallet.User","members":[{"astId":8956,"contract":"contracts/VillageWallet.sol:VillageWallet","label":"phoneNumber","offset":0,"slot":"0","type":"t_string_storage"},{"astId":8958,"contract":"contracts/VillageWallet.sol:VillageWallet","label":"country","offset":0,"slot":"1","type":"t_string_storage"},{"astId":8960,"contract":"contracts/VillageWallet.sol:VillageWallet","label":"isRegistered","offset":0,"slot":"2","type":"t_bool"},{"astId":8962,"contract":"contracts/VillageWallet.sol:VillageWallet","label":"isVerified","offset":1,"slot":"2","type":"t_bool"},{"astId":8964,"contract":"contracts/VillageWallet.sol:VillageWallet","label":"registrationTime","offset":0,"slot":"3","type":"t_uint256"},{"astId":8966,"contract":"contracts/VillageWallet.sol:VillageWallet","label":"totalTransactions","offset":0,"slot":"4","type":"t_uint256"},{"astId":8968,"contract":"contracts/VillageWallet.sol:VillageWallet","label":"creditScore","offset":0,"slot":"5","type":"t_uint256"}],"numberOfBytes":"192"},"t_uint256":{"encoding":"inplace","label":"uint256","numberOfBytes":"32"}}}}}}