{"contracts/SavingsGroups.sol":{"SavingsGroups":{"abi":[{"inputs":[{"internalType":"address","name":"_feeReceiver","type":"address"}],"stateMutability":"nonpayable","type":"constructor"},{"anonymous":false,"inputs":[{"indexed":true,"internalType":"uint256","name":"groupId","type":"uint256"},{"indexed":true,"internalType":"address","name":"member","type":"address"},{"indexed":false,"internalType":"uint256","name":"amount","type":"uint256"},{"indexed":false,"internalType":"uint256","name":"round","type":"uint256"}],"name":"ContributionMade","type":"event"},{"anonymous":false,"inputs":[{"indexed":true,"internalType":"uint256","name":"groupId","type":"uint256"},{"indexed":true,"internalType":"address","name":"member","type":"address"},{"indexed":false,"internalType":"uint256","name":"amount","type":"uint256"}],"name":"EmergencyLoanApproved","type":"event"},{"anonymous":false,"inputs":[{"indexed":true,"internalType":"uint256","name":"groupId","type":"uint256"},{"indexed":true,"internalType":"address","name":"member","type":"address"},{"indexed":false,"internalType":"uint256","name":"amount","type":"uint256"}],"name":"EmergencyLoanRequested","type":"event"},{"anonymous":false,"inputs":[{"indexed":true,"internalType":"uint256","name":"groupId","type":"uint256"},{"indexed":false,"internalType":"uint256","name":"totalRounds","type":"uint256"}],"name":"GroupCompleted","type":"event"},{"anonymous":false,"inputs":[{"indexed":true,"internalType":"uint256","name":"groupId","type":"uint256"},{"indexed":true,"internalType":"address","name":"creator","type":"address"},{"indexed":false,"internalType":"string","name":"name","type":"string"},{"indexed":false,"internalType":"uint256","name":"contributionAmount","type":"uint256"}],"name":"GroupCreated","type":"event"},{"anonymous":false,"inputs":[{"indexed":true,"internalType":"uint256","name":"groupId","type":"uint256"},{"indexed":true,"internalType":"address","name":"member","type":"address"},{"indexed":false,"internalType":"uint256","name":"position","type":"uint256"}],"name":"MemberJoined","type":"event"},{"anonymous":false,"inputs":[{"indexed":true,"internalType":"address","name":"previousOwner","type":"address"},{"indexed":true,"internalType":"address","name":"newOwner","type":"address"}],"name":"OwnershipTransferred","type":"event"},{"anonymous":false,"inputs":[{"indexed":false,"internalType":"address","name":"account","type":"address"}],"name":"Paused","type":"event"},{"anonymous":false,"inputs":[{"indexed":true,"internalType":"uint256","name":"groupId","type":"uint256"},{"indexed":true,"internalType":"address","name":"recipient","type":"address"},{"indexed":false,"internalType":"uint256","name":"amount","type":"uint256"},{"indexed":false,"internalType":"uint256","name":"round","type":"uint256"}],"name":"PayoutDistributed","type":"event"},{"anonymous":false,"inputs":[{"indexed":false,"internalType":"address","name":"account","type":"address"}],"name":"Unpaused","type":"event"},{"inputs":[{"internalType":"uint256","name":"_loanId","type":"uint256"}],"name":"approveEmergencyLoan","outputs":[],"stateMutability":"nonpayable","type":"function"},{"inputs":[{"internalType":"uint256","name":"_groupId","type":"uint256"}],"name":"contribute","outputs":[],"stateMutability":"nonpayable","type":"function"},{"inputs":[{"internalType":"string","name":"_name","type":"string"},{"internalType":"string","name":"_description","type":"string"},{"internalType":"address","name":"_token","type":"address"},{"internalType":"uint256","name":"_contributionAmount","type":"uint256"},{"internalType":"uint256","name":"_maxMembers","type":"uint256"},{"internalType":"enum SavingsGroups.ContributionFrequency","name":"_frequency","type":"uint8"},{"internalType":"bool","name":"_emergencyFundEnabled","type":"bool"}],"name":"createGroup","outputs":[{"internalType":"uint256","name":"","type":"uint256"}],"stateMutability":"nonpayable","type":"function"},{"inputs":[],"name":"emergencyFundPercentage","outputs":[{"internalType":"uint256","name":"","type":"uint256"}],"stateMutability":"view","type":"function"},{"inputs":[{"internalType":"uint256","name":"","type":"uint256"}],"name":"emergencyLoans","outputs":[{"internalType":"uint256","name":"groupId","type":"uint256"},{"internalType":"address","name":"borrower","type":"address"},{"internalType":"uint256","name":"amount","type":"uint256"},{"internalType":"uint256","name":"requestTime","type":"uint256"},{"internalType":"uint256","name":"approvalCount","type":"uint256"},{"internalType":"bool","name":"isApproved","type":"bool"},{"internalType":"bool","name":"isRepaid","type":"bool"}],"stateMutability":"view","type":"function"},{"inputs":[],"name":"feeReceiver","outputs":[{"internalType":"address","name":"","type":"address"}],"stateMutability":"view","type":"function"},{"inputs":[{"internalType":"uint256","name":"_groupId","type":"uint256"}],"name":"getGroupInfo","outputs":[{"internalType":"string","name":"name","type":"string"},{"internalType":"string","name":"description","type":"string"},{"internalType":"address","name":"creator","type":"address"},{"internalType":"address","name":"token","type":"address"},{"internalType":"uint256","name":"contributionAmount","type":"uint256"},{"internalType":"uint256","name":"currentMembers","type":"uint256"},{"internalType":"uint256","name":"maxMembers","type":"uint256"},{"internalType":"enum SavingsGroups.GroupStatus","name":"status","type":"uint8"},{"internalType":"uint256","name":"currentRound","type":"uint256"},{"internalType":"uint256","name":"emergencyFundBalance","type":"uint256"}],"stateMutability":"view","type":"function"},{"inputs":[{"internalType":"uint256","name":"_groupId","type":"uint256"},{"internalType":"address","name":"_member","type":"address"}],"name":"getMemberInfo","outputs":[{"internalType":"bool","name":"isActive","type":"bool"},{"internalType":"uint256","name":"position","type":"uint256"},{"internalType":"uint256","name":"totalContributions","type":"uint256"},{"internalType":"uint256","name":"missedContributions","type":"uint256"},{"internalType":"bool","name":"hasReceivedPayout","type":"bool"},{"internalType":"uint256","name":"payoutRound","type":"uint256"}],"stateMutability":"view","type":"function"},{"inputs":[{"internalType":"address","name":"_user","type":"address"}],"name":"getUserGroups","outputs":[{"internalType":"uint256[]","name":"","type":"uint256[]"}],"stateMutability":"view","type":"function"},{"inputs":[{"internalType":"uint256","name":"_groupId","type":"uint256"}],"name":"joinGroup","outputs":[],"stateMutability":"nonpayable","type":"function"},{"inputs":[],"name":"maximumMembers","outputs":[{"internalType":"uint256","name":"","type":"uint256"}],"stateMutability":"view","type":"function"},{"inputs":[],"name":"minimumContribution","outputs":[{"internalType":"uint256","name":"","type":"uint256"}],"stateMutability":"view","type":"function"},{"inputs":[],"name":"nextGroupId","outputs":[{"internalType":"uint256","name":"","type":"uint256"}],"stateMutability":"view","type":"function"},{"inputs":[],"name":"nextLoanId","outputs":[{"internalType":"uint256","name":"","type":"uint256"}],"stateMutability":"view","type":"function"},{"inputs":[],"name":"owner","outputs":[{"internalType":"address","name":"","type":"address"}],"stateMutability":"view","type":"function"},{"inputs":[],"name":"pause","outputs":[],"stateMutability":"nonpayable","type":"function"},{"inputs":[],"name":"paused","outputs":[{"internalType":"bool","name":"","type":"bool"}],"stateMutability":"view","type":"function"},{"inputs":[],"name":"platformFee","outputs":[{"internalType":"uint256","name":"","type":"uint256"}],"stateMutability":"view","type":"function"},{"inputs":[],"name":"renounceOwnership","outputs":[],"stateMutability":"nonpayable","type":"function"},{"inputs":[{"internalType":"uint256","name":"_loanId","type":"uint256"}],"name":"repayEmergencyLoan","outputs":[],"stateMutability":"nonpayable","type":"function"},{"inputs":[{"internalType":"uint256","name":"_groupId","type":"uint256"},{"internalType":"uint256","name":"_amount","type":"uint256"},{"internalType":"string","name":"_reason","type":"string"}],"name":"requestEmergencyLoan","outputs":[{"internalType":"uint256","name":"","type":"uint256"}],"stateMutability":"nonpayable","type":"function"},{"inputs":[{"internalType":"uint256","name":"","type":"uint256"}],"name":"savingsGroups","outputs":[{"internalType":"uint256","name":"groupId","type":"uint256"},{"internalType":"string","name":"name","type":"string"},{"internalType":"string","name":"description","type":"string"},{"internalType":"address","name":"creator","type":"address"},{"internalType":"address","name":"token","type":"address"},{"internalType":"uint256","name":"contributionAmount","type":"uint256"},{"internalType":"uint256","name":"maxMembers","type":"uint256"},{"internalType":"uint256","name":"currentMembers","type":"uint256"},{"internalType":"enum SavingsGroups.ContributionFrequency","name":"frequency","type":"uint8"},{"internalType":"uint256","name":"startTime","type":"uint256"},{"internalType":"uint256","name":"lastPayoutTime","type":"uint256"},{"internalType":"uint256","name":"currentRound","type":"uint256"},{"internalType":"enum SavingsGroups.GroupStatus","name":"status","type":"uint8"},{"internalType":"bool","name":"emergencyFundEnabled","type":"bool"},{"internalType":"uint256","name":"emergencyFundBalance","type":"uint256"},{"internalType":"uint256","name":"totalContributions","type":"uint256"}],"stateMutability":"view","type":"function"},{"inputs":[{"internalType":"address","name":"newOwner","type":"address"}],"name":"transferOwnership","outputs":[],"stateMutability":"nonpayable","type":"function"},{"inputs":[],"name":"unpause","outputs":[],"stateMutability":"nonpayable","type":"function"},{"inputs":[{"internalType":"uint256","name":"_percentage","type":"uint256"}],"name":"updateEmergencyFundPercentage","outputs":[],"stateMutability":"nonpayable","type":"function"},{"inputs":[{"internalType":"uint256","name":"_platformFee","type":"uint256"}],"name":"updatePlatformFee","outputs":[],"stateMutability":"nonpayable","type":"function"},{"inputs":[{"internalType":"address","name":"","type":"address"},{"internalType":"uint256","name":"","type":"uint256"}],"name":"userGroups","outputs":[{"internalType":"uint256","name":"","type":"uint256"}],"stateMutability":"view","type":"function"}],"evm":{"bytecode":{"linkReferences":{},"object":"6080346100ee57601f61242538819003918201601f19168301916001600160401b038311848410176100f3578084926020946040528339810103126100ee57516001600160a01b0390818116908190036100ee576001600081815581546001600160a81b0319811633600881811b610100600160a81b0316929092179094556040519591901c16907f8be0079c531659141344cd1fd0a4f28419497f9722a3daafe3b4186f6b6457e09080a3600160055560016006556019600755683635c9adc5dea000006009556032600a556101f4600b5560018060a01b0319600854161760085561231b908161010a8239f35b600080fd5b634e487b7160e01b600052604160045260246000fdfe6080604052600436101561001257600080fd5b60003560e01c80631e67939e14611afd57806326232a2e14611adf57806336ffd7781461195e578063384e77db146118f95780633da04e4a146118455780633f4ba83a146117b157806355b8d7d4146117935780635c975abb146117705780635eda7a761461175257806360a9e097146116fa578063715018a61461169957806376aac0111461167b5780638456cb591461162257806387c51459146116045780638da5cb5b146115d75780638fffc6691461155a57806390cfb5f414611357578063937e09b11461133957806399d4360f14611249578063aa0b5988146111e2578063b3f00674146111b9578063bcc74bfc14610f84578063c1cbbca714610b70578063c1d4eea2146105a4578063e0e2cc4414610478578063eed02e4b1461021e5763f2fde38b1461014557600080fd5b346102195760203660031901126102195761015e611bac565b610166611dd2565b6001600160a01b038181169182156101c55760018054610100600160a81b03198116600893841b610100600160a81b031617909155901c167f8be0079c531659141344cd1fd0a4f28419497f9722a3daafe3b4186f6b6457e0600080a3005b60405162461bcd60e51b815260206004820152602660248201527f4f776e61626c653a206e6577206f776e657220697320746865207a65726f206160448201526564647265737360d01b6064820152608490fd5b600080fd5b34610219576020806003193601126102195760043561023b611eac565b8015158061046d575b61024d90611ef0565b806000526002825260406000209161027560ff600c8501541661026f81611cd2565b15611f33565b600f8301923360005283825260ff604060002054166104355760078101938454600683015481101561040057916103b46010926102d37ff4f82575ee84a81aac4be52b6a368e9ba9df524b4f5cf8177d7cfbabe861820c9695611e2d565b809855600985604051926102e684611bf0565b60018452818401428152610392604086018d81526060870160008152608088016000815260a08901916000835260c08a01936000855260e08b0196600088526101008c019860008a526101208d019a60008c52336000525261035c60406000209c5115158d9060ff801983541691151516179055565b5160018c01555160028b01555160038a0155516004890155516005880155511515600687019060ff801983541691151516179055565b51600785015551600884015551151591019060ff801983541691151516179055565b6103c13360118301611e3c565b856000520181526040600020336001600160601b0360a01b82541617905533600052600481526103f5836040600020611e77565b6040519384523393a3005b60405162461bcd60e51b815260048101859052600d60248201526c11dc9bdd5c081a5cc8199d5b1b609a1b6044820152606490fd5b60405162461bcd60e51b815260048101839052601060248201526f20b63932b0b23c90309036b2b6b132b960811b6044820152606490fd5b506005548110610244565b3461021957602036600319011261021957600435600052600260205260406000208054600182016104a890611d2c565b6104b460028401611d2c565b92600160a01b60019003908160038201541691600482015416600582015460068301546007840154600885015460ff16600986015491600a87015493600b88015495600c89015497600d8a015499600e01549a6040519e8f9e8f9e8f918252610200806020840152820161052791611c92565b90808203906040015261053991611c92565b9c6060015260808d015260a08c015260c08b015260e08a015261055b81611cd2565b61010089015261012088015261014087015261016086015260ff811661058081611cd2565b61018086015260081c60ff1615156101a08501526101c08401526101e08301520390f35b346102195760e03660031901126102195760043567ffffffffffffffff8111610219576105d5903690600401611c4b565b60243567ffffffffffffffff8111610219576105f5903690600401611c4b565b90604435906001600160a01b038216820361021957600360a43510156102195760c4359081151582036102195761062a611eac565b805115610b355760095460643510610af9576003608435101580610aeb575b15610aaf576001600160a01b03831615610a72576005549161066a83611e2d565b600555826000526002602052604060002090838255825167ffffffffffffffff811161099d5761069d6001840154611cf2565b601f8111610a2b575b50806020601f82116001146109be576000916109b3575b508160011b916000199060031b1c19161760018301555b85519467ffffffffffffffff861161099d576106f36002840154611cf2565b96601f8811610956575b602097508790601f88116001146108e45796809160109697986000926108d9575b50508160011b916000199060031b1c19161760028401555b6003830180546001600160a01b031990811633179091556004840180549091166001600160a01b0390921691909117905560643560058301556084356006830155600160078301556008820161078d60a435611cd2565b60ff1981541660ff60a43516179055426009830155600c82019061ff00825491151560081b169061ffff191617905561084a6040516107cb81611bf0565b6001815260098388830142815260408401600181526103926060860160008152608087016000815260a08801906000825260c08901926000845260e08a0195600087526101008b019760008952600f6101208d019a60008c52336000520160205261035c60406000209c5115158d9060ff801983541691151516179055565b6108573360118301611e3c565b60016000520183526040600020336001600160601b0360a01b825416179055336000526004835261088c826040600020611e77565b817f71bc968adbe37d4b6377f6e730eecbb608ef8ff87106c881b9ab8929302a3f666108c360405193604085526040850190611c92565b92606435868201528033940390a3604051908152f35b01519050898061071e565b9060028501600052886000209160005b601f198a16811061093f5750918891600193601098999a601f19811610610926575b505050811b016002840155610736565b015160001960f88460031b161c19169055898080610916565b91928a6001819286850151815501940192016108f4565b600284016000526020600020601f880160051c810160208910610996575b601f8a0160051c8201811061098a5750506106fd565b60008155600101610974565b5080610974565b634e487b7160e01b600052604160045260246000fd5b9050840151886106bd565b91506001840160005260206000206000925b601f1983168410610a13576001935082601f198116106109fa575b5050811b0160018301556106d4565b86015160001960f88460031b161c1916905588806109eb565b868101518255602093840193600190920191016109d0565b600184016000526020600020601f830160051c810160208410610a6b575b601f830160051c82018110610a5f5750506106a6565b60008155600101610a49565b5080610a49565b60405162461bcd60e51b8152602060048201526015602482015274496e76616c696420746f6b656e206164647265737360581b6044820152606490fd5b60405162461bcd60e51b8152602060048201526014602482015273125b9d985b1a59081b595b58995c8818dbdd5b9d60621b6044820152606490fd5b50600a546084351115610649565b60405162461bcd60e51b8152602060048201526014602482015273436f6e747269627574696f6e20746f6f206c6f7760601b6044820152606490fd5b60405162461bcd60e51b815260206004820152601360248201527211dc9bdd5c081b985b59481c995c5d5a5c9959606a1b6044820152606490fd5b3461021957602036600319011261021957610b89611fb3565b610b91611eac565b6004356000526002602052600f60406000200133600052602052610bbc60ff60406000205416611f72565b60043560005260026020526040600020600c81015490610be260ff831661026f81611cd2565b60058101549160ff839160081c16610f45575b6004820154610c119190309033906001600160a01b0316612009565b33600052600f8101602052604060002091600392838101610c38815460058601549061222c565b9055600542910155610c4f600e830191825461222c565b9055600b6005820154910154604051918252602082015233907ff9b7589b7a8d939b9da5dae90770378fe5fd7802be5d66432e85bedbdbfbcb7a604060043592a360043560005260026020526040600020600091600090601183018054925b838110610e915785600786015414610cc8575b6001600055005b60043560005260026020526040600020600b8101610ce68154611e2d565b80825560009081526010830160205260409020546001600160a01b0316918215610e4c57600e8101928354600754808202908282041482151715610e3657600795610d38612710600093048094612239565b926004860190610d52858760018060a01b03855416612246565b80610e13575b5050838252600f850160205260408220600681019660ff19976001898254161790555497889101555542600a8401556040519081528460208201527f9855065419f7dab68a92d0ec83da9f1e50736415843c7849733eed78ce0c1360604060043592a36007810154831015610dd0575b505050610cc1565b600c60019101918254161790556040519081527f6d68ab904b0772380ada6eeda83e5370494b359983026ffb8fcabc07605f6a47602060043592a2808080610dc8565b9054600854610e2f92916001600160a01b039182169116612246565b8780610d58565b634e487b7160e01b600052601160045260246000fd5b60405162461bcd60e51b815260206004820152601860248201527f496e76616c6964207061796f757420726563697069656e7400000000000000006044820152606490fd5b610e9b8183611bc2565b60018060a01b03915490851b1c166004356000526002602052604060002090600052600f81016020526040600020906005610edc60ff600884015416612296565b600a83015490928115610f395750925b015490828210159283610f25575b505050610f10575b610f0b90611e2d565b610cae565b94610f1d610f0b91611e2d565b959050610f02565b610f3092935061222c565b11878080610efa565b60099150015492610eec565b600b5490818402918483041484151715610e3657610f6b612710610c1193048095612239565b93610f7b600d850191825461222c565b90559050610bf5565b3461021957602080600319360112610219576004356000818152600383526040902060018082015491939092916001600160a01b039081161561117e57600685013360005280835260ff604060002054166111465785546000526002835260406000209033600052600f8201845261100360ff60406000205416611f72565b60ff600588015416611109573360005283526007600460406000209760ff1998888a82541617905501916110378354611e2d565b8093550154851c90858201809211610e3657101561105157005b7fd0ab1d85e3efae244ae208956fcd6849c887b57dd433e5faa1e16d0684230a9c926000526003825260406000208054600052600283526110fa6040600020600583018789825416179055600d8101978854986110b4600286019a8b5490612239565b90558784019785895416600052600f83018752600960406000200191825416179055836004895492828a5416600052836008604060002001550154168488541690612246565b549354169354604051908152a3005b60405162461bcd60e51b8152600481018590526015602482015274131bd85b88185b1c9958591e48185c1c1c9bdd9959605a1b6044820152606490fd5b60405162461bcd60e51b815260048101849052601060248201526f105b1c9958591e48185c1c1c9bdd995960821b6044820152606490fd5b60405162461bcd60e51b8152600481018390526013602482015272131bd85b88191bd95cc81b9bdd08195e1a5cdd606a1b6044820152606490fd5b34610219576000366003190112610219576008546040516001600160a01b039091168152602090f35b34610219576020366003190112610219576004356111fe611dd2565b6103e8811161120c57600755005b60405162461bcd60e51b81526020600482015260156024820152740a0d8c2e8ccdee4da40cccaca40e8dede40d0d2ced605b1b6044820152606490fd5b34610219576020366003190112610219576004358015158061132e575b61126f90611ef0565b60005260026020526112e8604060002060018060a01b03806003830154169060048301541660058301546007840154600685015460ff600c8701541691600b87015493600d880154956112f66112d360026112cc60018d01611d2c565b9b01611d2c565b6040519b8c9b8c6101408091528d0190611c92565b908b820360208d0152611c92565b9760408a01526060890152608088015260a087015260c086015261131981611cd2565b60e08501526101008401526101208301520390f35b506005548110611266565b34610219576000366003190112610219576020600954604051908152f35b346102195760603660031901126102195760243560043560443567ffffffffffffffff81116102195761138e903690600401611c4b565b50611397611eac565b8060005260209160028352600f6040600020013360005283526113c160ff60406000205416611f72565b8160005260028352604060002060ff600c82015460081c161561151557600d81015482116114d057600f903360005201835260ff6009604060002001541661148b576006549161141083611e2d565b60065582600052600384526005604060002082815560018101336001600160601b0360a01b825416179055836002820155426003820155600060048201550161ffff1981541690556040519182527fdc001d438904e2d3352c19f8905c42cc137bf6530e135bbfcb436a764a599521843393a3604051908152f35b60405162461bcd60e51b815260048101849052601760248201527f416c72656164792068617320616374697665206c6f616e0000000000000000006044820152606490fd5b60405162461bcd60e51b815260048101859052601b60248201527f496e73756666696369656e7420656d657267656e63792066756e6400000000006044820152606490fd5b60405162461bcd60e51b815260048101859052601a60248201527f456d657267656e63792066756e64206e6f7420656e61626c65640000000000006044820152606490fd5b3461021957602036600319011261021957600435600052600360205260e0604060002060ff81549160018060a01b0360018201541690600281015460038201549060056004840154930154936040519687526020870152604086015260608501526080840152818116151560a084015260081c16151560c0820152f35b346102195760003660031901126102195760015460405160089190911c6001600160a01b03168152602090f35b34610219576000366003190112610219576020600654604051908152f35b346102195760003660031901126102195761163b611dd2565b611643611eac565b600160ff19815416176001557f62e78cea01bee320cd4e420270b5ea74000d11b0c9f74754ebdbfc544b05a2586020604051338152a1005b34610219576000366003190112610219576020600a54604051908152f35b34610219576000366003190112610219576116b2611dd2565b60018054610100600160a81b0319811690915560009060081c6001600160a01b03167f8be0079c531659141344cd1fd0a4f28419497f9722a3daafe3b4186f6b6457e08280a3005b3461021957604036600319011261021957611713611bac565b6001600160a01b03166000908152600460205260409020805460243591908210156102195760209161174491611bc2565b90546040519160031b1c8152f35b34610219576000366003190112610219576020600554604051908152f35b3461021957600036600319011261021957602060ff600154166040519015158152f35b34610219576000366003190112610219576020600b54604051908152f35b34610219576000366003190112610219576117ca611dd2565b60015460ff8116156118095760ff19166001557f5db9ee0a495bf2e6ff9c91a7834c1ba4fdd244a5e8aa4e537bd38aeae4b073aa6020604051338152a1005b60405162461bcd60e51b815260206004820152601460248201527314185d5cd8589b194e881b9bdd081c185d5cd95960621b6044820152606490fd5b3461021957602080600319360112610219576001600160a01b03611867611bac565b1660005260048152604060002060405190818382549182815201908192600052846000209060005b868282106118e55786866118a582880383611c0d565b604051928392818401908285525180915260408401929160005b8281106118ce57505050500390f35b8351855286955093810193928101926001016118bf565b83548552909301926001928301920161188f565b3461021957602036600319011261021957600435611915611dd2565b6103e8811161192357600b55005b60405162461bcd60e51b81526020600482015260136024820152720a0cae4c6cadce8c2ceca40e8dede40d0d2ced606b1b6044820152606490fd5b346102195760208060031936011261021957611978611fb3565b611980611eac565b6004356000526003815260406000209060018060a01b03806001840154163303611aa7576005830192835460ff811615611a6e5760081c60ff16611a3357600f92938154600052600285526119eb600260406000209460048601541693019283549030903390612009565b61010061ff0019825416179055611a0a600d830191825490549061222c565b90553360005201905260006008604082206009810160ff19815416905501556001600055600080f35b60405162461bcd60e51b8152600481018490526013602482015272131bd85b88185b1c9958591e481c995c185a59606a1b6044820152606490fd5b60405162461bcd60e51b8152600481018590526011602482015270131bd85b881b9bdd08185c1c1c9bdd9959607a1b6044820152606490fd5b60405162461bcd60e51b815260048101839052601060248201526f2737ba103a3432903137b93937bbb2b960811b6044820152606490fd5b34610219576000366003190112610219576020600754604051908152f35b34610219576040366003190112610219576024356001600160a01b03811690600435908290036102195780151580611ba1575b611b3990611ef0565b6000526002602052600f6040600020019060005260205260c0604060002060ff815416906002810154906003810154600482015490600760ff6006850154169301549360405195151586526020860152604085015260608401521515608083015260a0820152f35b506005548110611b30565b600435906001600160a01b038216820361021957565b8054821015611bda5760005260206000200190600090565b634e487b7160e01b600052603260045260246000fd5b610140810190811067ffffffffffffffff82111761099d57604052565b90601f8019910116810190811067ffffffffffffffff82111761099d57604052565b67ffffffffffffffff811161099d57601f01601f191660200190565b81601f8201121561021957803590611c6282611c2f565b92611c706040519485611c0d565b8284526020838301011161021957816000926020809301838601378301015290565b919082519283825260005b848110611cbe575050826000602080949584010152601f8019910116010190565b602081830181015184830182015201611c9d565b60031115611cdc57565b634e487b7160e01b600052602160045260246000fd5b90600182811c92168015611d22575b6020831014611d0c57565b634e487b7160e01b600052602260045260246000fd5b91607f1691611d01565b9060405191826000825492611d4084611cf2565b908184526001948581169081600014611daf5750600114611d6c575b5050611d6a92500383611c0d565b565b9093915060005260209081600020936000915b818310611d97575050611d6a93508201013880611d5c565b85548884018501529485019487945091830191611d7f565b915050611d6a94506020925060ff191682840152151560051b8201013880611d5c565b60015460081c6001600160a01b03163303611de957565b606460405162461bcd60e51b815260206004820152602060248201527f4f776e61626c653a2063616c6c6572206973206e6f7420746865206f776e65726044820152fd5b6000198114610e365760010190565b8054600160401b81101561099d57611e5991600182018155611bc2565b819291549060031b9160018060a01b03809116831b921b1916179055565b8054600160401b81101561099d57611e9491600182018155611bc2565b819291549060031b91821b91600019901b1916179055565b60ff60015416611eb857565b60405162461bcd60e51b815260206004820152601060248201526f14185d5cd8589b194e881c185d5cd95960821b6044820152606490fd5b15611ef757565b60405162461bcd60e51b815260206004820152601460248201527311dc9bdd5c08191bd95cc81b9bdd08195e1a5cdd60621b6044820152606490fd5b15611f3a57565b60405162461bcd60e51b815260206004820152601060248201526f47726f7570206e6f742061637469766560801b6044820152606490fd5b15611f7957565b60405162461bcd60e51b81526020600482015260126024820152712737ba10309033b937bab81036b2b6b132b960711b6044820152606490fd5b600260005414611fc4576002600055565b60405162461bcd60e51b815260206004820152601f60248201527f5265656e7472616e637947756172643a207265656e7472616e742063616c6c006044820152606490fd5b6040516323b872dd60e01b60208201526001600160a01b03928316602482015292909116604483015260648083019390935291815260a081019181831067ffffffffffffffff84111761099d57611d6a926040525b60018060a01b031690604051604081019080821067ffffffffffffffff83111761099d576120ee916040526020938482527f5361666545524332303a206c6f772d6c6576656c2063616c6c206661696c6564858301526000808587829751910182855af13d1561218b573d916120d383611c2f565b926120e16040519485611c0d565b83523d868885013e61218f565b805191821591848315612160575b5050509050156121095750565b6084906040519062461bcd60e51b82526004820152602a60248201527f5361666545524332303a204552433230206f7065726174696f6e20646964206e6044820152691bdd081cdd58d8d9595960b21b6064820152fd5b919381809450010312612187578201519081151582036121845750803880846120fc565b80fd5b5080fd5b6060915b919290156121f157508151156121a3575090565b3b156121ac5790565b60405162461bcd60e51b815260206004820152601d60248201527f416464726573733a2063616c6c20746f206e6f6e2d636f6e74726163740000006044820152606490fd5b8251909150156122045750805190602001fd5b60405162461bcd60e51b815260206004820152908190612228906024830190611c92565b0390fd5b91908201809211610e3657565b91908203918211610e3657565b60405163a9059cbb60e01b60208201526001600160a01b039092166024830152604480830193909352918152608081019167ffffffffffffffff83118284101761099d57611d6a9260405261205e565b61229f81611cd2565b80156122dd576122ae81611cd2565b600181146122d557806122c2600292611cd2565b146122ce5762093a8090565b62278d0090565b5062093a8090565b50620151809056fea2646970667358221220dbda6c61f120c6d6bda85cc65c92e868615ecaae0415d703867a056110795b6464736f6c63430008130033","opcodes":"PUSH1 0x80 CALLVALUE PUSH2 0xEE JUMPI PUSH1 0x1F PUSH2 0x2425 CODESIZE DUP2 SWAP1 SUB SWAP2 DUP3 ADD PUSH1 0x1F NOT AND DUP4 ADD SWAP2 PUSH1 0x1 PUSH1 0x1 PUSH1 0x40 SHL SUB DUP4 GT DUP5 DUP5 LT OR PUSH2 0xF3 JUMPI DUP1 DUP5 SWAP3 PUSH1 0x20 SWAP5 PUSH1 0x40 MSTORE DUP4 CODECOPY DUP2 ADD SUB SLT PUSH2 0xEE JUMPI MLOAD PUSH1 0x1 PUSH1 0x1 PUSH1 0xA0 SHL SUB SWAP1 DUP2 DUP2 AND SWAP1 DUP2 SWAP1 SUB PUSH2 0xEE JUMPI PUSH1 0x1 PUSH1 0x0 DUP2 DUP2 SSTORE DUP2 SLOAD PUSH1 0x1 PUSH1 0x1 PUSH1 0xA8 SHL SUB NOT DUP2 AND CALLER PUSH1 0x8 DUP2 DUP2 SHL PUSH2 0x100 PUSH1 0x1 PUSH1 0xA8 SHL SUB AND SWAP3 SWAP1 SWAP3 OR SWAP1 SWAP5 SSTORE PUSH1 0x40 MLOAD SWAP6 SWAP2 SWAP1 SHR AND SWAP1 PUSH32 0x8BE0079C531659141344CD1FD0A4F28419497F9722A3DAAFE3B4186F6B6457E0 SWAP1 DUP1 LOG3 PUSH1 0x1 PUSH1 0x5 SSTORE PUSH1 0x1 PUSH1 0x6 SSTORE PUSH1 0x19 PUSH1 0x7 SSTORE PUSH9 0x3635C9ADC5DEA00000 PUSH1 0x9 SSTORE PUSH1 0x32 PUSH1 0xA SSTORE PUSH2 0x1F4 PUSH1 0xB SSTORE PUSH1 0x1 DUP1 PUSH1 0xA0 SHL SUB NOT PUSH1 0x8 SLOAD AND OR PUSH1 0x8 SSTORE PUSH2 0x231B SWAP1 DUP2 PUSH2 0x10A DUP3 CODECOPY RETURN JUMPDEST PUSH1 0x0 DUP1 REVERT JUMPDEST PUSH4 0x4E487B71 PUSH1 0xE0 SHL PUSH1 0x0 MSTORE PUSH1 0x41 PUSH1 0x4 MSTORE PUSH1 0x24 PUSH1 0x0 REVERT INVALID PUSH1 0x80 PUSH1 0x40 MSTORE PUSH1 0x4 CALLDATASIZE LT ISZERO PUSH2 0x12 JUMPI PUSH1 0x0 DUP1 REVERT JUMPDEST PUSH1 0x0 CALLDATALOAD PUSH1 0xE0 SHR DUP1 PUSH4 0x1E67939E EQ PUSH2 0x1AFD JUMPI DUP1 PUSH4 0x26232A2E EQ PUSH2 0x1ADF JUMPI DUP1 PUSH4 0x36FFD778 EQ PUSH2 0x195E JUMPI DUP1 PUSH4 0x384E77DB EQ PUSH2 0x18F9 JUMPI DUP1 PUSH4 0x3DA04E4A EQ PUSH2 0x1845 JUMPI DUP1 PUSH4 0x3F4BA83A EQ PUSH2 0x17B1 JUMPI DUP1 PUSH4 0x55B8D7D4 EQ PUSH2 0x1793 JUMPI DUP1 PUSH4 0x5C975ABB EQ PUSH2 0x1770 JUMPI DUP1 PUSH4 0x5EDA7A76 EQ PUSH2 0x1752 JUMPI DUP1 PUSH4 0x60A9E097 EQ PUSH2 0x16FA JUMPI DUP1 PUSH4 0x715018A6 EQ PUSH2 0x1699 JUMPI DUP1 PUSH4 0x76AAC011 EQ PUSH2 0x167B JUMPI DUP1 PUSH4 0x8456CB59 EQ PUSH2 0x1622 JUMPI DUP1 PUSH4 0x87C51459 EQ PUSH2 0x1604 JUMPI DUP1 PUSH4 0x8DA5CB5B EQ PUSH2 0x15D7 JUMPI DUP1 PUSH4 0x8FFFC669 EQ PUSH2 0x155A JUMPI DUP1 PUSH4 0x90CFB5F4 EQ PUSH2 0x1357 JUMPI DUP1 PUSH4 0x937E09B1 EQ PUSH2 0x1339 JUMPI DUP1 PUSH4 0x99D4360F EQ PUSH2 0x1249 JUMPI DUP1 PUSH4 0xAA0B5988 EQ PUSH2 0x11E2 JUMPI DUP1 PUSH4 0xB3F00674 EQ PUSH2 0x11B9 JUMPI DUP1 PUSH4 0xBCC74BFC EQ PUSH2 0xF84 JUMPI DUP1 PUSH4 0xC1CBBCA7 EQ PUSH2 0xB70 JUMPI DUP1 PUSH4 0xC1D4EEA2 EQ PUSH2 0x5A4 JUMPI DUP1 PUSH4 0xE0E2CC44 EQ PUSH2 0x478 JUMPI DUP1 PUSH4 0xEED02E4B EQ PUSH2 0x21E JUMPI PUSH4 0xF2FDE38B EQ PUSH2 0x145 JUMPI PUSH1 0x0 DUP1 REVERT JUMPDEST CALLVALUE PUSH2 0x219 JUMPI PUSH1 0x20 CALLDATASIZE PUSH1 0x3 NOT ADD SLT PUSH2 0x219 JUMPI PUSH2 0x15E PUSH2 0x1BAC JUMP JUMPDEST PUSH2 0x166 PUSH2 0x1DD2 JUMP JUMPDEST PUSH1 0x1 PUSH1 0x1 PUSH1 0xA0 SHL SUB DUP2 DUP2 AND SWAP2 DUP3 ISZERO PUSH2 0x1C5 JUMPI PUSH1 0x1 DUP1 SLOAD PUSH2 0x100 PUSH1 0x1 PUSH1 0xA8 SHL SUB NOT DUP2 AND PUSH1 0x8 SWAP4 DUP5 SHL PUSH2 0x100 PUSH1 0x1 PUSH1 0xA8 SHL SUB AND OR SWAP1 SWAP2 SSTORE SWAP1 SHR AND PUSH32 0x8BE0079C531659141344CD1FD0A4F28419497F9722A3DAAFE3B4186F6B6457E0 PUSH1 0x0 DUP1 LOG3 STOP JUMPDEST PUSH1 0x40 MLOAD PUSH3 0x461BCD PUSH1 0xE5 SHL DUP2 MSTORE PUSH1 0x20 PUSH1 0x4 DUP3 ADD MSTORE PUSH1 0x26 PUSH1 0x24 DUP3 ADD MSTORE PUSH32 0x4F776E61626C653A206E6577206F776E657220697320746865207A65726F2061 PUSH1 0x44 DUP3 ADD MSTORE PUSH6 0x646472657373 PUSH1 0xD0 SHL PUSH1 0x64 DUP3 ADD MSTORE PUSH1 0x84 SWAP1 REVERT JUMPDEST PUSH1 0x0 DUP1 REVERT JUMPDEST CALLVALUE PUSH2 0x219 JUMPI PUSH1 0x20 DUP1 PUSH1 0x3 NOT CALLDATASIZE ADD SLT PUSH2 0x219 JUMPI PUSH1 0x4 CALLDATALOAD PUSH2 0x23B PUSH2 0x1EAC JUMP JUMPDEST DUP1 ISZERO ISZERO DUP1 PUSH2 0x46D JUMPI JUMPDEST PUSH2 0x24D SWAP1 PUSH2 0x1EF0 JUMP JUMPDEST DUP1 PUSH1 0x0 MSTORE PUSH1 0x2 DUP3 MSTORE PUSH1 0x40 PUSH1 0x0 KECCAK256 SWAP2 PUSH2 0x275 PUSH1 0xFF PUSH1 0xC DUP6 ADD SLOAD AND PUSH2 0x26F DUP2 PUSH2 0x1CD2 JUMP JUMPDEST ISZERO PUSH2 0x1F33 JUMP JUMPDEST PUSH1 0xF DUP4 ADD SWAP3 CALLER PUSH1 0x0 MSTORE DUP4 DUP3 MSTORE PUSH1 0xFF PUSH1 0x40 PUSH1 0x0 KECCAK256 SLOAD AND PUSH2 0x435 JUMPI PUSH1 0x7 DUP2 ADD SWAP4 DUP5 SLOAD PUSH1 0x6 DUP4 ADD SLOAD DUP2 LT ISZERO PUSH2 0x400 JUMPI SWAP2 PUSH2 0x3B4 PUSH1 0x10 SWAP3 PUSH2 0x2D3 PUSH32 0xF4F82575EE84A81AAC4BE52B6A368E9BA9DF524B4F5CF8177D7CFBABE861820C SWAP7 SWAP6 PUSH2 0x1E2D JUMP JUMPDEST DUP1 SWAP9 SSTORE PUSH1 0x9 DUP6 PUSH1 0x40 MLOAD SWAP3 PUSH2 0x2E6 DUP5 PUSH2 0x1BF0 JUMP JUMPDEST PUSH1 0x1 DUP5 MSTORE DUP2 DUP5 ADD TIMESTAMP DUP2 MSTORE PUSH2 0x392 PUSH1 0x40 DUP7 ADD DUP14 DUP2 MSTORE PUSH1 0x60 DUP8 ADD PUSH1 0x0 DUP2 MSTORE PUSH1 0x80 DUP9 ADD PUSH1 0x0 DUP2 MSTORE PUSH1 0xA0 DUP10 ADD SWAP2 PUSH1 0x0 DUP4 MSTORE PUSH1 0xC0 DUP11 ADD SWAP4 PUSH1 0x0 DUP6 MSTORE PUSH1 0xE0 DUP12 ADD SWAP7 PUSH1 0x0 DUP9 MSTORE PUSH2 0x100 DUP13 ADD SWAP9 PUSH1 0x0 DUP11 MSTORE PUSH2 0x120 DUP14 ADD SWAP11 PUSH1 0x0 DUP13 MSTORE CALLER PUSH1 0x0 MSTORE MSTORE PUSH2 0x35C PUSH1 0x40 PUSH1 0x0 KECCAK256 SWAP13 MLOAD ISZERO ISZERO DUP14 SWAP1 PUSH1 0xFF DUP1 NOT DUP4 SLOAD AND SWAP2 ISZERO ISZERO AND OR SWAP1 SSTORE JUMP JUMPDEST MLOAD PUSH1 0x1 DUP13 ADD SSTORE MLOAD PUSH1 0x2 DUP12 ADD SSTORE MLOAD PUSH1 0x3 DUP11 ADD SSTORE MLOAD PUSH1 0x4 DUP10 ADD SSTORE MLOAD PUSH1 0x5 DUP9 ADD SSTORE MLOAD ISZERO ISZERO PUSH1 0x6 DUP8 ADD SWAP1 PUSH1 0xFF DUP1 NOT DUP4 SLOAD AND SWAP2 ISZERO ISZERO AND OR SWAP1 SSTORE JUMP JUMPDEST MLOAD PUSH1 0x7 DUP6 ADD SSTORE MLOAD PUSH1 0x8 DUP5 ADD SSTORE MLOAD ISZERO ISZERO SWAP2 ADD SWAP1 PUSH1 0xFF DUP1 NOT DUP4 SLOAD AND SWAP2 ISZERO ISZERO AND OR SWAP1 SSTORE JUMP JUMPDEST PUSH2 0x3C1 CALLER PUSH1 0x11 DUP4 ADD PUSH2 0x1E3C JUMP JUMPDEST DUP6 PUSH1 0x0 MSTORE ADD DUP2 MSTORE PUSH1 0x40 PUSH1 0x0 KECCAK256 CALLER PUSH1 0x1 PUSH1 0x1 PUSH1 0x60 SHL SUB PUSH1 0xA0 SHL DUP3 SLOAD AND OR SWAP1 SSTORE CALLER PUSH1 0x0 MSTORE PUSH1 0x4 DUP2 MSTORE PUSH2 0x3F5 DUP4 PUSH1 0x40 PUSH1 0x0 KECCAK256 PUSH2 0x1E77 JUMP JUMPDEST PUSH1 0x40 MLOAD SWAP4 DUP5 MSTORE CALLER SWAP4 LOG3 STOP JUMPDEST PUSH1 0x40 MLOAD PUSH3 0x461BCD PUSH1 0xE5 SHL DUP2 MSTORE PUSH1 0x4 DUP2 ADD DUP6 SWAP1 MSTORE PUSH1 0xD PUSH1 0x24 DUP3 ADD MSTORE PUSH13 0x11DC9BDD5C081A5CC8199D5B1B PUSH1 0x9A SHL PUSH1 0x44 DUP3 ADD MSTORE PUSH1 0x64 SWAP1 REVERT JUMPDEST PUSH1 0x40 MLOAD PUSH3 0x461BCD PUSH1 0xE5 SHL DUP2 MSTORE PUSH1 0x4 DUP2 ADD DUP4 SWAP1 MSTORE PUSH1 0x10 PUSH1 0x24 DUP3 ADD MSTORE PUSH16 0x20B63932B0B23C90309036B2B6B132B9 PUSH1 0x81 SHL PUSH1 0x44 DUP3 ADD MSTORE PUSH1 0x64 SWAP1 REVERT JUMPDEST POP PUSH1 0x5 SLOAD DUP2 LT PUSH2 0x244 JUMP JUMPDEST CALLVALUE PUSH2 0x219 JUMPI PUSH1 0x20 CALLDATASIZE PUSH1 0x3 NOT ADD SLT PUSH2 0x219 JUMPI PUSH1 0x4 CALLDATALOAD PUSH1 0x0 MSTORE PUSH1 0x2 PUSH1 0x20 MSTORE PUSH1 0x40 PUSH1 0x0 KECCAK256 DUP1 SLOAD PUSH1 0x1 DUP3 ADD PUSH2 0x4A8 SWAP1 PUSH2 0x1D2C JUMP JUMPDEST PUSH2 0x4B4 PUSH1 0x2 DUP5 ADD PUSH2 0x1D2C JUMP JUMPDEST SWAP3 PUSH1 0x1 PUSH1 0xA0 SHL PUSH1 0x1 SWAP1 SUB SWAP1 DUP2 PUSH1 0x3 DUP3 ADD SLOAD AND SWAP2 PUSH1 0x4 DUP3 ADD SLOAD AND PUSH1 0x5 DUP3 ADD SLOAD PUSH1 0x6 DUP4 ADD SLOAD PUSH1 0x7 DUP5 ADD SLOAD PUSH1 0x8 DUP6 ADD SLOAD PUSH1 0xFF AND PUSH1 0x9 DUP7 ADD SLOAD SWAP2 PUSH1 0xA DUP8 ADD SLOAD SWAP4 PUSH1 0xB DUP9 ADD SLOAD SWAP6 PUSH1 0xC DUP10 ADD SLOAD SWAP8 PUSH1 0xD DUP11 ADD SLOAD SWAP10 PUSH1 0xE ADD SLOAD SWAP11 PUSH1 0x40 MLOAD SWAP15 DUP16 SWAP15 DUP16 SWAP15 DUP16 SWAP2 DUP3 MSTORE PUSH2 0x200 DUP1 PUSH1 0x20 DUP5 ADD MSTORE DUP3 ADD PUSH2 0x527 SWAP2 PUSH2 0x1C92 JUMP JUMPDEST SWAP1 DUP1 DUP3 SUB SWAP1 PUSH1 0x40 ADD MSTORE PUSH2 0x539 SWAP2 PUSH2 0x1C92 JUMP JUMPDEST SWAP13 PUSH1 0x60 ADD MSTORE PUSH1 0x80 DUP14 ADD MSTORE PUSH1 0xA0 DUP13 ADD MSTORE PUSH1 0xC0 DUP12 ADD MSTORE PUSH1 0xE0 DUP11 ADD MSTORE PUSH2 0x55B DUP2 PUSH2 0x1CD2 JUMP JUMPDEST PUSH2 0x100 DUP10 ADD MSTORE PUSH2 0x120 DUP9 ADD MSTORE PUSH2 0x140 DUP8 ADD MSTORE PUSH2 0x160 DUP7 ADD MSTORE PUSH1 0xFF DUP2 AND PUSH2 0x580 DUP2 PUSH2 0x1CD2 JUMP JUMPDEST PUSH2 0x180 DUP7 ADD MSTORE PUSH1 0x8 SHR PUSH1 0xFF AND ISZERO ISZERO PUSH2 0x1A0 DUP6 ADD MSTORE PUSH2 0x1C0 DUP5 ADD MSTORE PUSH2 0x1E0 DUP4 ADD MSTORE SUB SWAP1 RETURN JUMPDEST CALLVALUE PUSH2 0x219 JUMPI PUSH1 0xE0 CALLDATASIZE PUSH1 0x3 NOT ADD SLT PUSH2 0x219 JUMPI PUSH1 0x4 CALLDATALOAD PUSH8 0xFFFFFFFFFFFFFFFF DUP2 GT PUSH2 0x219 JUMPI PUSH2 0x5D5 SWAP1 CALLDATASIZE SWAP1 PUSH1 0x4 ADD PUSH2 0x1C4B JUMP JUMPDEST PUSH1 0x24 CALLDATALOAD PUSH8 0xFFFFFFFFFFFFFFFF DUP2 GT PUSH2 0x219 JUMPI PUSH2 0x5F5 SWAP1 CALLDATASIZE SWAP1 PUSH1 0x4 ADD PUSH2 0x1C4B JUMP JUMPDEST SWAP1 PUSH1 0x44 CALLDATALOAD SWAP1 PUSH1 0x1 PUSH1 0x1 PUSH1 0xA0 SHL SUB DUP3 AND DUP3 SUB PUSH2 0x219 JUMPI PUSH1 0x3 PUSH1 0xA4 CALLDATALOAD LT ISZERO PUSH2 0x219 JUMPI PUSH1 0xC4 CALLDATALOAD SWAP1 DUP2 ISZERO ISZERO DUP3 SUB PUSH2 0x219 JUMPI PUSH2 0x62A PUSH2 0x1EAC JUMP JUMPDEST DUP1 MLOAD ISZERO PUSH2 0xB35 JUMPI PUSH1 0x9 SLOAD PUSH1 0x64 CALLDATALOAD LT PUSH2 0xAF9 JUMPI PUSH1 0x3 PUSH1 0x84 CALLDATALOAD LT ISZERO DUP1 PUSH2 0xAEB JUMPI JUMPDEST ISZERO PUSH2 0xAAF JUMPI PUSH1 0x1 PUSH1 0x1 PUSH1 0xA0 SHL SUB DUP4 AND ISZERO PUSH2 0xA72 JUMPI PUSH1 0x5 SLOAD SWAP2 PUSH2 0x66A DUP4 PUSH2 0x1E2D JUMP JUMPDEST PUSH1 0x5 SSTORE DUP3 PUSH1 0x0 MSTORE PUSH1 0x2 PUSH1 0x20 MSTORE PUSH1 0x40 PUSH1 0x0 KECCAK256 SWAP1 DUP4 DUP3 SSTORE DUP3 MLOAD PUSH8 0xFFFFFFFFFFFFFFFF DUP2 GT PUSH2 0x99D JUMPI PUSH2 0x69D PUSH1 0x1 DUP5 ADD SLOAD PUSH2 0x1CF2 JUMP JUMPDEST PUSH1 0x1F DUP2 GT PUSH2 0xA2B JUMPI JUMPDEST POP DUP1 PUSH1 0x20 PUSH1 0x1F DUP3 GT PUSH1 0x1 EQ PUSH2 0x9BE JUMPI PUSH1 0x0 SWAP2 PUSH2 0x9B3 JUMPI JUMPDEST POP DUP2 PUSH1 0x1 SHL SWAP2 PUSH1 0x0 NOT SWAP1 PUSH1 0x3 SHL SHR NOT AND OR PUSH1 0x1 DUP4 ADD SSTORE JUMPDEST DUP6 MLOAD SWAP5 PUSH8 0xFFFFFFFFFFFFFFFF DUP7 GT PUSH2 0x99D JUMPI PUSH2 0x6F3 PUSH1 0x2 DUP5 ADD SLOAD PUSH2 0x1CF2 JUMP JUMPDEST SWAP7 PUSH1 0x1F DUP9 GT PUSH2 0x956 JUMPI JUMPDEST PUSH1 0x20 SWAP8 POP DUP8 SWAP1 PUSH1 0x1F DUP9 GT PUSH1 0x1 EQ PUSH2 0x8E4 JUMPI SWAP7 DUP1 SWAP2 PUSH1 0x10 SWAP7 SWAP8 SWAP9 PUSH1 0x0 SWAP3 PUSH2 0x8D9 JUMPI JUMPDEST POP POP DUP2 PUSH1 0x1 SHL SWAP2 PUSH1 0x0 NOT SWAP1 PUSH1 0x3 SHL SHR NOT AND OR PUSH1 0x2 DUP5 ADD SSTORE JUMPDEST PUSH1 0x3 DUP4 ADD DUP1 SLOAD PUSH1 0x1 PUSH1 0x1 PUSH1 0xA0 SHL SUB NOT SWAP1 DUP2 AND CALLER OR SWAP1 SWAP2 SSTORE PUSH1 0x4 DUP5 ADD DUP1 SLOAD SWAP1 SWAP2 AND PUSH1 0x1 PUSH1 0x1 PUSH1 0xA0 SHL SUB SWAP1 SWAP3 AND SWAP2 SWAP1 SWAP2 OR SWAP1 SSTORE PUSH1 0x64 CALLDATALOAD PUSH1 0x5 DUP4 ADD SSTORE PUSH1 0x84 CALLDATALOAD PUSH1 0x6 DUP4 ADD SSTORE PUSH1 0x1 PUSH1 0x7 DUP4 ADD SSTORE PUSH1 0x8 DUP3 ADD PUSH2 0x78D PUSH1 0xA4 CALLDATALOAD PUSH2 0x1CD2 JUMP JUMPDEST PUSH1 0xFF NOT DUP2 SLOAD AND PUSH1 0xFF PUSH1 0xA4 CALLDATALOAD AND OR SWAP1 SSTORE TIMESTAMP PUSH1 0x9 DUP4 ADD SSTORE PUSH1 0xC DUP3 ADD SWAP1 PUSH2 0xFF00 DUP3 SLOAD SWAP2 ISZERO ISZERO PUSH1 0x8 SHL AND SWAP1 PUSH2 0xFFFF NOT AND OR SWAP1 SSTORE PUSH2 0x84A PUSH1 0x40 MLOAD PUSH2 0x7CB DUP2 PUSH2 0x1BF0 JUMP JUMPDEST PUSH1 0x1 DUP2 MSTORE PUSH1 0x9 DUP4 DUP9 DUP4 ADD TIMESTAMP DUP2 MSTORE PUSH1 0x40 DUP5 ADD PUSH1 0x1 DUP2 MSTORE PUSH2 0x392 PUSH1 0x60 DUP7 ADD PUSH1 0x0 DUP2 MSTORE PUSH1 0x80 DUP8 ADD PUSH1 0x0 DUP2 MSTORE PUSH1 0xA0 DUP9 ADD SWAP1 PUSH1 0x0 DUP3 MSTORE PUSH1 0xC0 DUP10 ADD SWAP3 PUSH1 0x0 DUP5 MSTORE PUSH1 0xE0 DUP11 ADD SWAP6 PUSH1 0x0 DUP8 MSTORE PUSH2 0x100 DUP12 ADD SWAP8 PUSH1 0x0 DUP10 MSTORE PUSH1 0xF PUSH2 0x120 DUP14 ADD SWAP11 PUSH1 0x0 DUP13 MSTORE CALLER PUSH1 0x0 MSTORE ADD PUSH1 0x20 MSTORE PUSH2 0x35C PUSH1 0x40 PUSH1 0x0 KECCAK256 SWAP13 MLOAD ISZERO ISZERO DUP14 SWAP1 PUSH1 0xFF DUP1 NOT DUP4 SLOAD AND SWAP2 ISZERO ISZERO AND OR SWAP1 SSTORE JUMP JUMPDEST PUSH2 0x857 CALLER PUSH1 0x11 DUP4 ADD PUSH2 0x1E3C JUMP JUMPDEST PUSH1 0x1 PUSH1 0x0 MSTORE ADD DUP4 MSTORE PUSH1 0x40 PUSH1 0x0 KECCAK256 CALLER PUSH1 0x1 PUSH1 0x1 PUSH1 0x60 SHL SUB PUSH1 0xA0 SHL DUP3 SLOAD AND OR SWAP1 SSTORE CALLER PUSH1 0x0 MSTORE PUSH1 0x4 DUP4 MSTORE PUSH2 0x88C DUP3 PUSH1 0x40 PUSH1 0x0 KECCAK256 PUSH2 0x1E77 JUMP JUMPDEST DUP2 PUSH32 0x71BC968ADBE37D4B6377F6E730EECBB608EF8FF87106C881B9AB8929302A3F66 PUSH2 0x8C3 PUSH1 0x40 MLOAD SWAP4 PUSH1 0x40 DUP6 MSTORE PUSH1 0x40 DUP6 ADD SWAP1 PUSH2 0x1C92 JUMP JUMPDEST SWAP3 PUSH1 0x64 CALLDATALOAD DUP7 DUP3 ADD MSTORE DUP1 CALLER SWAP5 SUB SWAP1 LOG3 PUSH1 0x40 MLOAD SWAP1 DUP2 MSTORE RETURN JUMPDEST ADD MLOAD SWAP1 POP DUP10 DUP1 PUSH2 0x71E JUMP JUMPDEST SWAP1 PUSH1 0x2 DUP6 ADD PUSH1 0x0 MSTORE DUP9 PUSH1 0x0 KECCAK256 SWAP2 PUSH1 0x0 JUMPDEST PUSH1 0x1F NOT DUP11 AND DUP2 LT PUSH2 0x93F JUMPI POP SWAP2 DUP9 SWAP2 PUSH1 0x1 SWAP4 PUSH1 0x10 SWAP9 SWAP10 SWAP11 PUSH1 0x1F NOT DUP2 AND LT PUSH2 0x926 JUMPI JUMPDEST POP POP POP DUP2 SHL ADD PUSH1 0x2 DUP5 ADD SSTORE PUSH2 0x736 JUMP JUMPDEST ADD MLOAD PUSH1 0x0 NOT PUSH1 0xF8 DUP5 PUSH1 0x3 SHL AND SHR NOT AND SWAP1 SSTORE DUP10 DUP1 DUP1 PUSH2 0x916 JUMP JUMPDEST SWAP2 SWAP3 DUP11 PUSH1 0x1 DUP2 SWAP3 DUP7 DUP6 ADD MLOAD DUP2 SSTORE ADD SWAP5 ADD SWAP3 ADD PUSH2 0x8F4 JUMP JUMPDEST PUSH1 0x2 DUP5 ADD PUSH1 0x0 MSTORE PUSH1 0x20 PUSH1 0x0 KECCAK256 PUSH1 0x1F DUP9 ADD PUSH1 0x5 SHR DUP2 ADD PUSH1 0x20 DUP10 LT PUSH2 0x996 JUMPI JUMPDEST PUSH1 0x1F DUP11 ADD PUSH1 0x5 SHR DUP3 ADD DUP2 LT PUSH2 0x98A JUMPI POP POP PUSH2 0x6FD JUMP JUMPDEST PUSH1 0x0 DUP2 SSTORE PUSH1 0x1 ADD PUSH2 0x974 JUMP JUMPDEST POP DUP1 PUSH2 0x974 JUMP JUMPDEST PUSH4 0x4E487B71 PUSH1 0xE0 SHL PUSH1 0x0 MSTORE PUSH1 0x41 PUSH1 0x4 MSTORE PUSH1 0x24 PUSH1 0x0 REVERT JUMPDEST SWAP1 POP DUP5 ADD MLOAD DUP9 PUSH2 0x6BD JUMP JUMPDEST SWAP2 POP PUSH1 0x1 DUP5 ADD PUSH1 0x0 MSTORE PUSH1 0x20 PUSH1 0x0 KECCAK256 PUSH1 0x0 SWAP3 JUMPDEST PUSH1 0x1F NOT DUP4 AND DUP5 LT PUSH2 0xA13 JUMPI PUSH1 0x1 SWAP4 POP DUP3 PUSH1 0x1F NOT DUP2 AND LT PUSH2 0x9FA JUMPI JUMPDEST POP POP DUP2 SHL ADD PUSH1 0x1 DUP4 ADD SSTORE PUSH2 0x6D4 JUMP JUMPDEST DUP7 ADD MLOAD PUSH1 0x0 NOT PUSH1 0xF8 DUP5 PUSH1 0x3 SHL AND SHR NOT AND SWAP1 SSTORE DUP9 DUP1 PUSH2 0x9EB JUMP JUMPDEST DUP7 DUP2 ADD MLOAD DUP3 SSTORE PUSH1 0x20 SWAP4 DUP5 ADD SWAP4 PUSH1 0x1 SWAP1 SWAP3 ADD SWAP2 ADD PUSH2 0x9D0 JUMP JUMPDEST PUSH1 0x1 DUP5 ADD PUSH1 0x0 MSTORE PUSH1 0x20 PUSH1 0x0 KECCAK256 PUSH1 0x1F DUP4 ADD PUSH1 0x5 SHR DUP2 ADD PUSH1 0x20 DUP5 LT PUSH2 0xA6B JUMPI JUMPDEST PUSH1 0x1F DUP4 ADD PUSH1 0x5 SHR DUP3 ADD DUP2 LT PUSH2 0xA5F JUMPI POP POP PUSH2 0x6A6 JUMP JUMPDEST PUSH1 0x0 DUP2 SSTORE PUSH1 0x1 ADD PUSH2 0xA49 JUMP JUMPDEST POP DUP1 PUSH2 0xA49 JUMP JUMPDEST PUSH1 0x40 MLOAD PUSH3 0x461BCD PUSH1 0xE5 SHL DUP2 MSTORE PUSH1 0x20 PUSH1 0x4 DUP3 ADD MSTORE PUSH1 0x15 PUSH1 0x24 DUP3 ADD MSTORE PUSH21 0x496E76616C696420746F6B656E2061646472657373 PUSH1 0x58 SHL PUSH1 0x44 DUP3 ADD MSTORE PUSH1 0x64 SWAP1 REVERT JUMPDEST PUSH1 0x40 MLOAD PUSH3 0x461BCD PUSH1 0xE5 SHL DUP2 MSTORE PUSH1 0x20 PUSH1 0x4 DUP3 ADD MSTORE PUSH1 0x14 PUSH1 0x24 DUP3 ADD MSTORE PUSH20 0x125B9D985B1A59081B595B58995C8818DBDD5B9D PUSH1 0x62 SHL PUSH1 0x44 DUP3 ADD MSTORE PUSH1 0x64 SWAP1 REVERT JUMPDEST POP PUSH1 0xA SLOAD PUSH1 0x84 CALLDATALOAD GT ISZERO PUSH2 0x649 JUMP JUMPDEST PUSH1 0x40 MLOAD PUSH3 0x461BCD PUSH1 0xE5 SHL DUP2 MSTORE PUSH1 0x20 PUSH1 0x4 DUP3 ADD MSTORE PUSH1 0x14 PUSH1 0x24 DUP3 ADD MSTORE PUSH20 0x436F6E747269627574696F6E20746F6F206C6F77 PUSH1 0x60 SHL PUSH1 0x44 DUP3 ADD MSTORE PUSH1 0x64 SWAP1 REVERT JUMPDEST PUSH1 0x40 MLOAD PUSH3 0x461BCD PUSH1 0xE5 SHL DUP2 MSTORE PUSH1 0x20 PUSH1 0x4 DUP3 ADD MSTORE PUSH1 0x13 PUSH1 0x24 DUP3 ADD MSTORE PUSH19 0x11DC9BDD5C081B985B59481C995C5D5A5C9959 PUSH1 0x6A SHL PUSH1 0x44 DUP3 ADD MSTORE PUSH1 0x64 SWAP1 REVERT JUMPDEST CALLVALUE PUSH2 0x219 JUMPI PUSH1 0x20 CALLDATASIZE PUSH1 0x3 NOT ADD SLT PUSH2 0x219 JUMPI PUSH2 0xB89 PUSH2 0x1FB3 JUMP JUMPDEST PUSH2 0xB91 PUSH2 0x1EAC JUMP JUMPDEST PUSH1 0x4 CALLDATALOAD PUSH1 0x0 MSTORE PUSH1 0x2 PUSH1 0x20 MSTORE PUSH1 0xF PUSH1 0x40 PUSH1 0x0 KECCAK256 ADD CALLER PUSH1 0x0 MSTORE PUSH1 0x20 MSTORE PUSH2 0xBBC PUSH1 0xFF PUSH1 0x40 PUSH1 0x0 KECCAK256 SLOAD AND PUSH2 0x1F72 JUMP JUMPDEST PUSH1 0x4 CALLDATALOAD PUSH1 0x0 MSTORE PUSH1 0x2 PUSH1 0x20 MSTORE PUSH1 0x40 PUSH1 0x0 KECCAK256 PUSH1 0xC DUP2 ADD SLOAD SWAP1 PUSH2 0xBE2 PUSH1 0xFF DUP4 AND PUSH2 0x26F DUP2 PUSH2 0x1CD2 JUMP JUMPDEST PUSH1 0x5 DUP2 ADD SLOAD SWAP2 PUSH1 0xFF DUP4 SWAP2 PUSH1 0x8 SHR AND PUSH2 0xF45 JUMPI JUMPDEST PUSH1 0x4 DUP3 ADD SLOAD PUSH2 0xC11 SWAP2 SWAP1 ADDRESS SWAP1 CALLER SWAP1 PUSH1 0x1 PUSH1 0x1 PUSH1 0xA0 SHL SUB AND PUSH2 0x2009 JUMP JUMPDEST CALLER PUSH1 0x0 MSTORE PUSH1 0xF DUP2 ADD PUSH1 0x20 MSTORE PUSH1 0x40 PUSH1 0x0 KECCAK256 SWAP2 PUSH1 0x3 SWAP3 DUP4 DUP2 ADD PUSH2 0xC38 DUP2 SLOAD PUSH1 0x5 DUP7 ADD SLOAD SWAP1 PUSH2 0x222C JUMP JUMPDEST SWAP1 SSTORE PUSH1 0x5 TIMESTAMP SWAP2 ADD SSTORE PUSH2 0xC4F PUSH1 0xE DUP4 ADD SWAP2 DUP3 SLOAD PUSH2 0x222C JUMP JUMPDEST SWAP1 SSTORE PUSH1 0xB PUSH1 0x5 DUP3 ADD SLOAD SWAP2 ADD SLOAD PUSH1 0x40 MLOAD SWAP2 DUP3 MSTORE PUSH1 0x20 DUP3 ADD MSTORE CALLER SWAP1 PUSH32 0xF9B7589B7A8D939B9DA5DAE90770378FE5FD7802BE5D66432E85BEDBDBFBCB7A PUSH1 0x40 PUSH1 0x4 CALLDATALOAD SWAP3 LOG3 PUSH1 0x4 CALLDATALOAD PUSH1 0x0 MSTORE PUSH1 0x2 PUSH1 0x20 MSTORE PUSH1 0x40 PUSH1 0x0 KECCAK256 PUSH1 0x0 SWAP2 PUSH1 0x0 SWAP1 PUSH1 0x11 DUP4 ADD DUP1 SLOAD SWAP3 JUMPDEST DUP4 DUP2 LT PUSH2 0xE91 JUMPI DUP6 PUSH1 0x7 DUP7 ADD SLOAD EQ PUSH2 0xCC8 JUMPI JUMPDEST PUSH1 0x1 PUSH1 0x0 SSTORE STOP JUMPDEST PUSH1 0x4 CALLDATALOAD PUSH1 0x0 MSTORE PUSH1 0x2 PUSH1 0x20 MSTORE PUSH1 0x40 PUSH1 0x0 KECCAK256 PUSH1 0xB DUP2 ADD PUSH2 0xCE6 DUP2 SLOAD PUSH2 0x1E2D JUMP JUMPDEST DUP1 DUP3 SSTORE PUSH1 0x0 SWAP1 DUP2 MSTORE PUSH1 0x10 DUP4 ADD PUSH1 0x20 MSTORE PUSH1 0x40 SWAP1 KECCAK256 SLOAD PUSH1 0x1 PUSH1 0x1 PUSH1 0xA0 SHL SUB AND SWAP2 DUP3 ISZERO PUSH2 0xE4C JUMPI PUSH1 0xE DUP2 ADD SWAP3 DUP4 SLOAD PUSH1 0x7 SLOAD DUP1 DUP3 MUL SWAP1 DUP3 DUP3 DIV EQ DUP3 ISZERO OR ISZERO PUSH2 0xE36 JUMPI PUSH1 0x7 SWAP6 PUSH2 0xD38 PUSH2 0x2710 PUSH1 0x0 SWAP4 DIV DUP1 SWAP5 PUSH2 0x2239 JUMP JUMPDEST SWAP3 PUSH1 0x4 DUP7 ADD SWAP1 PUSH2 0xD52 DUP6 DUP8 PUSH1 0x1 DUP1 PUSH1 0xA0 SHL SUB DUP6 SLOAD AND PUSH2 0x2246 JUMP JUMPDEST DUP1 PUSH2 0xE13 JUMPI JUMPDEST POP POP DUP4 DUP3 MSTORE PUSH1 0xF DUP6 ADD PUSH1 0x20 MSTORE PUSH1 0x40 DUP3 KECCAK256 PUSH1 0x6 DUP2 ADD SWAP7 PUSH1 0xFF NOT SWAP8 PUSH1 0x1 DUP10 DUP3 SLOAD AND OR SWAP1 SSTORE SLOAD SWAP8 DUP9 SWAP2 ADD SSTORE SSTORE TIMESTAMP PUSH1 0xA DUP5 ADD SSTORE PUSH1 0x40 MLOAD SWAP1 DUP2 MSTORE DUP5 PUSH1 0x20 DUP3 ADD MSTORE PUSH32 0x9855065419F7DAB68A92D0EC83DA9F1E50736415843C7849733EED78CE0C1360 PUSH1 0x40 PUSH1 0x4 CALLDATALOAD SWAP3 LOG3 PUSH1 0x7 DUP2 ADD SLOAD DUP4 LT ISZERO PUSH2 0xDD0 JUMPI JUMPDEST POP POP POP PUSH2 0xCC1 JUMP JUMPDEST PUSH1 0xC PUSH1 0x1 SWAP2 ADD SWAP2 DUP3 SLOAD AND OR SWAP1 SSTORE PUSH1 0x40 MLOAD SWAP1 DUP2 MSTORE PUSH32 0x6D68AB904B0772380ADA6EEDA83E5370494B359983026FFB8FCABC07605F6A47 PUSH1 0x20 PUSH1 0x4 CALLDATALOAD SWAP3 LOG2 DUP1 DUP1 DUP1 PUSH2 0xDC8 JUMP JUMPDEST SWAP1 SLOAD PUSH1 0x8 SLOAD PUSH2 0xE2F SWAP3 SWAP2 PUSH1 0x1 PUSH1 0x1 PUSH1 0xA0 SHL SUB SWAP2 DUP3 AND SWAP2 AND PUSH2 0x2246 JUMP JUMPDEST DUP8 DUP1 PUSH2 0xD58 JUMP JUMPDEST PUSH4 0x4E487B71 PUSH1 0xE0 SHL PUSH1 0x0 MSTORE PUSH1 0x11 PUSH1 0x4 MSTORE PUSH1 0x24 PUSH1 0x0 REVERT JUMPDEST PUSH1 0x40 MLOAD PUSH3 0x461BCD PUSH1 0xE5 SHL DUP2 MSTORE PUSH1 0x20 PUSH1 0x4 DUP3 ADD MSTORE PUSH1 0x18 PUSH1 0x24 DUP3 ADD MSTORE PUSH32 0x496E76616C6964207061796F757420726563697069656E740000000000000000 PUSH1 0x44 DUP3 ADD MSTORE PUSH1 0x64 SWAP1 REVERT JUMPDEST PUSH2 0xE9B DUP2 DUP4 PUSH2 0x1BC2 JUMP JUMPDEST PUSH1 0x1 DUP1 PUSH1 0xA0 SHL SUB SWAP2 SLOAD SWAP1 DUP6 SHL SHR AND PUSH1 0x4 CALLDATALOAD PUSH1 0x0 MSTORE PUSH1 0x2 PUSH1 0x20 MSTORE PUSH1 0x40 PUSH1 0x0 KECCAK256 SWAP1 PUSH1 0x0 MSTORE PUSH1 0xF DUP2 ADD PUSH1 0x20 MSTORE PUSH1 0x40 PUSH1 0x0 KECCAK256 SWAP1 PUSH1 0x5 PUSH2 0xEDC PUSH1 0xFF PUSH1 0x8 DUP5 ADD SLOAD AND PUSH2 0x2296 JUMP JUMPDEST PUSH1 0xA DUP4 ADD SLOAD SWAP1 SWAP3 DUP2 ISZERO PUSH2 0xF39 JUMPI POP SWAP3 JUMPDEST ADD SLOAD SWAP1 DUP3 DUP3 LT ISZERO SWAP3 DUP4 PUSH2 0xF25 JUMPI JUMPDEST POP POP POP PUSH2 0xF10 JUMPI JUMPDEST PUSH2 0xF0B SWAP1 PUSH2 0x1E2D JUMP JUMPDEST PUSH2 0xCAE JUMP JUMPDEST SWAP5 PUSH2 0xF1D PUSH2 0xF0B SWAP2 PUSH2 0x1E2D JUMP JUMPDEST SWAP6 SWAP1 POP PUSH2 0xF02 JUMP JUMPDEST PUSH2 0xF30 SWAP3 SWAP4 POP PUSH2 0x222C JUMP JUMPDEST GT DUP8 DUP1 DUP1 PUSH2 0xEFA JUMP JUMPDEST PUSH1 0x9 SWAP2 POP ADD SLOAD SWAP3 PUSH2 0xEEC JUMP JUMPDEST PUSH1 0xB SLOAD SWAP1 DUP2 DUP5 MUL SWAP2 DUP5 DUP4 DIV EQ DUP5 ISZERO OR ISZERO PUSH2 0xE36 JUMPI PUSH2 0xF6B PUSH2 0x2710 PUSH2 0xC11 SWAP4 DIV DUP1 SWAP6 PUSH2 0x2239 JUMP JUMPDEST SWAP4 PUSH2 0xF7B PUSH1 0xD DUP6 ADD SWAP2 DUP3 SLOAD PUSH2 0x222C JUMP JUMPDEST SWAP1 SSTORE SWAP1 POP PUSH2 0xBF5 JUMP JUMPDEST CALLVALUE PUSH2 0x219 JUMPI PUSH1 0x20 DUP1 PUSH1 0x3 NOT CALLDATASIZE ADD SLT PUSH2 0x219 JUMPI PUSH1 0x4 CALLDATALOAD PUSH1 0x0 DUP2 DUP2 MSTORE PUSH1 0x3 DUP4 MSTORE PUSH1 0x40 SWAP1 KECCAK256 PUSH1 0x1 DUP1 DUP3 ADD SLOAD SWAP2 SWAP4 SWAP1 SWAP3 SWAP2 PUSH1 0x1 PUSH1 0x1 PUSH1 0xA0 SHL SUB SWAP1 DUP2 AND ISZERO PUSH2 0x117E JUMPI PUSH1 0x6 DUP6 ADD CALLER PUSH1 0x0 MSTORE DUP1 DUP4 MSTORE PUSH1 0xFF PUSH1 0x40 PUSH1 0x0 KECCAK256 SLOAD AND PUSH2 0x1146 JUMPI DUP6 SLOAD PUSH1 0x0 MSTORE PUSH1 0x2 DUP4 MSTORE PUSH1 0x40 PUSH1 0x0 KECCAK256 SWAP1 CALLER PUSH1 0x0 MSTORE PUSH1 0xF DUP3 ADD DUP5 MSTORE PUSH2 0x1003 PUSH1 0xFF PUSH1 0x40 PUSH1 0x0 KECCAK256 SLOAD AND PUSH2 0x1F72 JUMP JUMPDEST PUSH1 0xFF PUSH1 0x5 DUP9 ADD SLOAD AND PUSH2 0x1109 JUMPI CALLER PUSH1 0x0 MSTORE DUP4 MSTORE PUSH1 0x7 PUSH1 0x4 PUSH1 0x40 PUSH1 0x0 KECCAK256 SWAP8 PUSH1 0xFF NOT SWAP9 DUP9 DUP11 DUP3 SLOAD AND OR SWAP1 SSTORE ADD SWAP2 PUSH2 0x1037 DUP4 SLOAD PUSH2 0x1E2D JUMP JUMPDEST DUP1 SWAP4 SSTORE ADD SLOAD DUP6 SHR SWAP1 DUP6 DUP3 ADD DUP1 SWAP3 GT PUSH2 0xE36 JUMPI LT ISZERO PUSH2 0x1051 JUMPI STOP JUMPDEST PUSH32 0xD0AB1D85E3EFAE244AE208956FCD6849C887B57DD433E5FAA1E16D0684230A9C SWAP3 PUSH1 0x0 MSTORE PUSH1 0x3 DUP3 MSTORE PUSH1 0x40 PUSH1 0x0 KECCAK256 DUP1 SLOAD PUSH1 0x0 MSTORE PUSH1 0x2 DUP4 MSTORE PUSH2 0x10FA PUSH1 0x40 PUSH1 0x0 KECCAK256 PUSH1 0x5 DUP4 ADD DUP8 DUP10 DUP3 SLOAD AND OR SWAP1 SSTORE PUSH1 0xD DUP2 ADD SWAP8 DUP9 SLOAD SWAP9 PUSH2 0x10B4 PUSH1 0x2 DUP7 ADD SWAP11 DUP12 SLOAD SWAP1 PUSH2 0x2239 JUMP JUMPDEST SWAP1 SSTORE DUP8 DUP5 ADD SWAP8 DUP6 DUP10 SLOAD AND PUSH1 0x0 MSTORE PUSH1 0xF DUP4 ADD DUP8 MSTORE PUSH1 0x9 PUSH1 0x40 PUSH1 0x0 KECCAK256 ADD SWAP2 DUP3 SLOAD AND OR SWAP1 SSTORE DUP4 PUSH1 0x4 DUP10 SLOAD SWAP3 DUP3 DUP11 SLOAD AND PUSH1 0x0 MSTORE DUP4 PUSH1 0x8 PUSH1 0x40 PUSH1 0x0 KECCAK256 ADD SSTORE ADD SLOAD AND DUP5 DUP9 SLOAD AND SWAP1 PUSH2 0x2246 JUMP JUMPDEST SLOAD SWAP4 SLOAD AND SWAP4 SLOAD PUSH1 0x40 MLOAD SWAP1 DUP2 MSTORE LOG3 STOP JUMPDEST PUSH1 0x40 MLOAD PUSH3 0x461BCD PUSH1 0xE5 SHL DUP2 MSTORE PUSH1 0x4 DUP2 ADD DUP6 SWAP1 MSTORE PUSH1 0x15 PUSH1 0x24 DUP3 ADD MSTORE PUSH21 0x131BD85B88185B1C9958591E48185C1C1C9BDD9959 PUSH1 0x5A SHL PUSH1 0x44 DUP3 ADD MSTORE PUSH1 0x64 SWAP1 REVERT JUMPDEST PUSH1 0x40 MLOAD PUSH3 0x461BCD PUSH1 0xE5 SHL DUP2 MSTORE PUSH1 0x4 DUP2 ADD DUP5 SWAP1 MSTORE PUSH1 0x10 PUSH1 0x24 DUP3 ADD MSTORE PUSH16 0x105B1C9958591E48185C1C1C9BDD9959 PUSH1 0x82 SHL PUSH1 0x44 DUP3 ADD MSTORE PUSH1 0x64 SWAP1 REVERT JUMPDEST PUSH1 0x40 MLOAD PUSH3 0x461BCD PUSH1 0xE5 SHL DUP2 MSTORE PUSH1 0x4 DUP2 ADD DUP4 SWAP1 MSTORE PUSH1 0x13 PUSH1 0x24 DUP3 ADD MSTORE PUSH19 0x131BD85B88191BD95CC81B9BDD08195E1A5CDD PUSH1 0x6A SHL PUSH1 0x44 DUP3 ADD MSTORE PUSH1 0x64 SWAP1 REVERT JUMPDEST CALLVALUE PUSH2 0x219 JUMPI PUSH1 0x0 CALLDATASIZE PUSH1 0x3 NOT ADD SLT PUSH2 0x219 JUMPI PUSH1 0x8 SLOAD PUSH1 0x40 MLOAD PUSH1 0x1 PUSH1 0x1 PUSH1 0xA0 SHL SUB SWAP1 SWAP2 AND DUP2 MSTORE PUSH1 0x20 SWAP1 RETURN JUMPDEST CALLVALUE PUSH2 0x219 JUMPI PUSH1 0x20 CALLDATASIZE PUSH1 0x3 NOT ADD SLT PUSH2 0x219 JUMPI PUSH1 0x4 CALLDATALOAD PUSH2 0x11FE PUSH2 0x1DD2 JUMP JUMPDEST PUSH2 0x3E8 DUP2 GT PUSH2 0x120C JUMPI PUSH1 0x7 SSTORE STOP JUMPDEST PUSH1 0x40 MLOAD PUSH3 0x461BCD PUSH1 0xE5 SHL DUP2 MSTORE PUSH1 0x20 PUSH1 0x4 DUP3 ADD MSTORE PUSH1 0x15 PUSH1 0x24 DUP3 ADD MSTORE PUSH21 0xA0D8C2E8CCDEE4DA40CCCACA40E8DEDE40D0D2CED PUSH1 0x5B SHL PUSH1 0x44 DUP3 ADD MSTORE PUSH1 0x64 SWAP1 REVERT JUMPDEST CALLVALUE PUSH2 0x219 JUMPI PUSH1 0x20 CALLDATASIZE PUSH1 0x3 NOT ADD SLT PUSH2 0x219 JUMPI PUSH1 0x4 CALLDATALOAD DUP1 ISZERO ISZERO DUP1 PUSH2 0x132E JUMPI JUMPDEST PUSH2 0x126F SWAP1 PUSH2 0x1EF0 JUMP JUMPDEST PUSH1 0x0 MSTORE PUSH1 0x2 PUSH1 0x20 MSTORE PUSH2 0x12E8 PUSH1 0x40 PUSH1 0x0 KECCAK256 PUSH1 0x1 DUP1 PUSH1 0xA0 SHL SUB DUP1 PUSH1 0x3 DUP4 ADD SLOAD AND SWAP1 PUSH1 0x4 DUP4 ADD SLOAD AND PUSH1 0x5 DUP4 ADD SLOAD PUSH1 0x7 DUP5 ADD SLOAD PUSH1 0x6 DUP6 ADD SLOAD PUSH1 0xFF PUSH1 0xC DUP8 ADD SLOAD AND SWAP2 PUSH1 0xB DUP8 ADD SLOAD SWAP4 PUSH1 0xD DUP9 ADD SLOAD SWAP6 PUSH2 0x12F6 PUSH2 0x12D3 PUSH1 0x2 PUSH2 0x12CC PUSH1 0x1 DUP14 ADD PUSH2 0x1D2C JUMP JUMPDEST SWAP12 ADD PUSH2 0x1D2C JUMP JUMPDEST PUSH1 0x40 MLOAD SWAP12 DUP13 SWAP12 DUP13 PUSH2 0x140 DUP1 SWAP2 MSTORE DUP14 ADD SWAP1 PUSH2 0x1C92 JUMP JUMPDEST SWAP1 DUP12 DUP3 SUB PUSH1 0x20 DUP14 ADD MSTORE PUSH2 0x1C92 JUMP JUMPDEST SWAP8 PUSH1 0x40 DUP11 ADD MSTORE PUSH1 0x60 DUP10 ADD MSTORE PUSH1 0x80 DUP9 ADD MSTORE PUSH1 0xA0 DUP8 ADD MSTORE PUSH1 0xC0 DUP7 ADD MSTORE PUSH2 0x1319 DUP2 PUSH2 0x1CD2 JUMP JUMPDEST PUSH1 0xE0 DUP6 ADD MSTORE PUSH2 0x100 DUP5 ADD MSTORE PUSH2 0x120 DUP4 ADD MSTORE SUB SWAP1 RETURN JUMPDEST POP PUSH1 0x5 SLOAD DUP2 LT PUSH2 0x1266 JUMP JUMPDEST CALLVALUE PUSH2 0x219 JUMPI PUSH1 0x0 CALLDATASIZE PUSH1 0x3 NOT ADD SLT PUSH2 0x219 JUMPI PUSH1 0x20 PUSH1 0x9 SLOAD PUSH1 0x40 MLOAD SWAP1 DUP2 MSTORE RETURN JUMPDEST CALLVALUE PUSH2 0x219 JUMPI PUSH1 0x60 CALLDATASIZE PUSH1 0x3 NOT ADD SLT PUSH2 0x219 JUMPI PUSH1 0x24 CALLDATALOAD PUSH1 0x4 CALLDATALOAD PUSH1 0x44 CALLDATALOAD PUSH8 0xFFFFFFFFFFFFFFFF DUP2 GT PUSH2 0x219 JUMPI PUSH2 0x138E SWAP1 CALLDATASIZE SWAP1 PUSH1 0x4 ADD PUSH2 0x1C4B JUMP JUMPDEST POP PUSH2 0x1397 PUSH2 0x1EAC JUMP JUMPDEST DUP1 PUSH1 0x0 MSTORE PUSH1 0x20 SWAP2 PUSH1 0x2 DUP4 MSTORE PUSH1 0xF PUSH1 0x40 PUSH1 0x0 KECCAK256 ADD CALLER PUSH1 0x0 MSTORE DUP4 MSTORE PUSH2 0x13C1 PUSH1 0xFF PUSH1 0x40 PUSH1 0x0 KECCAK256 SLOAD AND PUSH2 0x1F72 JUMP JUMPDEST DUP2 PUSH1 0x0 MSTORE PUSH1 0x2 DUP4 MSTORE PUSH1 0x40 PUSH1 0x0 KECCAK256 PUSH1 0xFF PUSH1 0xC DUP3 ADD SLOAD PUSH1 0x8 SHR AND ISZERO PUSH2 0x1515 JUMPI PUSH1 0xD DUP2 ADD SLOAD DUP3 GT PUSH2 0x14D0 JUMPI PUSH1 0xF SWAP1 CALLER PUSH1 0x0 MSTORE ADD DUP4 MSTORE PUSH1 0xFF PUSH1 0x9 PUSH1 0x40 PUSH1 0x0 KECCAK256 ADD SLOAD AND PUSH2 0x148B JUMPI PUSH1 0x6 SLOAD SWAP2 PUSH2 0x1410 DUP4 PUSH2 0x1E2D JUMP JUMPDEST PUSH1 0x6 SSTORE DUP3 PUSH1 0x0 MSTORE PUSH1 0x3 DUP5 MSTORE PUSH1 0x5 PUSH1 0x40 PUSH1 0x0 KECCAK256 DUP3 DUP2 SSTORE PUSH1 0x1 DUP2 ADD CALLER PUSH1 0x1 PUSH1 0x1 PUSH1 0x60 SHL SUB PUSH1 0xA0 SHL DUP3 SLOAD AND OR SWAP1 SSTORE DUP4 PUSH1 0x2 DUP3 ADD SSTORE TIMESTAMP PUSH1 0x3 DUP3 ADD SSTORE PUSH1 0x0 PUSH1 0x4 DUP3 ADD SSTORE ADD PUSH2 0xFFFF NOT DUP2 SLOAD AND SWAP1 SSTORE PUSH1 0x40 MLOAD SWAP2 DUP3 MSTORE PUSH32 0xDC001D438904E2D3352C19F8905C42CC137BF6530E135BBFCB436A764A599521 DUP5 CALLER SWAP4 LOG3 PUSH1 0x40 MLOAD SWAP1 DUP2 MSTORE RETURN JUMPDEST PUSH1 0x40 MLOAD PUSH3 0x461BCD PUSH1 0xE5 SHL DUP2 MSTORE PUSH1 0x4 DUP2 ADD DUP5 SWAP1 MSTORE PUSH1 0x17 PUSH1 0x24 DUP3 ADD MSTORE PUSH32 0x416C72656164792068617320616374697665206C6F616E000000000000000000 PUSH1 0x44 DUP3 ADD MSTORE PUSH1 0x64 SWAP1 REVERT JUMPDEST PUSH1 0x40 MLOAD PUSH3 0x461BCD PUSH1 0xE5 SHL DUP2 MSTORE PUSH1 0x4 DUP2 ADD DUP6 SWAP1 MSTORE PUSH1 0x1B PUSH1 0x24 DUP3 ADD MSTORE PUSH32 0x496E73756666696369656E7420656D657267656E63792066756E640000000000 PUSH1 0x44 DUP3 ADD MSTORE PUSH1 0x64 SWAP1 REVERT JUMPDEST PUSH1 0x40 MLOAD PUSH3 0x461BCD PUSH1 0xE5 SHL DUP2 MSTORE PUSH1 0x4 DUP2 ADD DUP6 SWAP1 MSTORE PUSH1 0x1A PUSH1 0x24 DUP3 ADD MSTORE PUSH32 0x456D657267656E63792066756E64206E6F7420656E61626C6564000000000000 PUSH1 0x44 DUP3 ADD MSTORE PUSH1 0x64 SWAP1 REVERT JUMPDEST CALLVALUE PUSH2 0x219 JUMPI PUSH1 0x20 CALLDATASIZE PUSH1 0x3 NOT ADD SLT PUSH2 0x219 JUMPI PUSH1 0x4 CALLDATALOAD PUSH1 0x0 MSTORE PUSH1 0x3 PUSH1 0x20 MSTORE PUSH1 0xE0 PUSH1 0x40 PUSH1 0x0 KECCAK256 PUSH1 0xFF DUP2 SLOAD SWAP2 PUSH1 0x1 DUP1 PUSH1 0xA0 SHL SUB PUSH1 0x1 DUP3 ADD SLOAD AND SWAP1 PUSH1 0x2 DUP2 ADD SLOAD PUSH1 0x3 DUP3 ADD SLOAD SWAP1 PUSH1 0x5 PUSH1 0x4 DUP5 ADD SLOAD SWAP4 ADD SLOAD SWAP4 PUSH1 0x40 MLOAD SWAP7 DUP8 MSTORE PUSH1 0x20 DUP8 ADD MSTORE PUSH1 0x40 DUP7 ADD MSTORE PUSH1 0x60 DUP6 ADD MSTORE PUSH1 0x80 DUP5 ADD MSTORE DUP2 DUP2 AND ISZERO ISZERO PUSH1 0xA0 DUP5 ADD MSTORE PUSH1 0x8 SHR AND ISZERO ISZERO PUSH1 0xC0 DUP3 ADD MSTORE RETURN JUMPDEST CALLVALUE PUSH2 0x219 JUMPI PUSH1 0x0 CALLDATASIZE PUSH1 0x3 NOT ADD SLT PUSH2 0x219 JUMPI PUSH1 0x1 SLOAD PUSH1 0x40 MLOAD PUSH1 0x8 SWAP2 SWAP1 SWAP2 SHR PUSH1 0x1 PUSH1 0x1 PUSH1 0xA0 SHL SUB AND DUP2 MSTORE PUSH1 0x20 SWAP1 RETURN JUMPDEST CALLVALUE PUSH2 0x219 JUMPI PUSH1 0x0 CALLDATASIZE PUSH1 0x3 NOT ADD SLT PUSH2 0x219 JUMPI PUSH1 0x20 PUSH1 0x6 SLOAD PUSH1 0x40 MLOAD SWAP1 DUP2 MSTORE RETURN JUMPDEST CALLVALUE PUSH2 0x219 JUMPI PUSH1 0x0 CALLDATASIZE PUSH1 0x3 NOT ADD SLT PUSH2 0x219 JUMPI PUSH2 0x163B PUSH2 0x1DD2 JUMP JUMPDEST PUSH2 0x1643 PUSH2 0x1EAC JUMP JUMPDEST PUSH1 0x1 PUSH1 0xFF NOT DUP2 SLOAD AND OR PUSH1 0x1 SSTORE PUSH32 0x62E78CEA01BEE320CD4E420270B5EA74000D11B0C9F74754EBDBFC544B05A258 PUSH1 0x20 PUSH1 0x40 MLOAD CALLER DUP2 MSTORE LOG1 STOP JUMPDEST CALLVALUE PUSH2 0x219 JUMPI PUSH1 0x0 CALLDATASIZE PUSH1 0x3 NOT ADD SLT PUSH2 0x219 JUMPI PUSH1 0x20 PUSH1 0xA SLOAD PUSH1 0x40 MLOAD SWAP1 DUP2 MSTORE RETURN JUMPDEST CALLVALUE PUSH2 0x219 JUMPI PUSH1 0x0 CALLDATASIZE PUSH1 0x3 NOT ADD SLT PUSH2 0x219 JUMPI PUSH2 0x16B2 PUSH2 0x1DD2 JUMP JUMPDEST PUSH1 0x1 DUP1 SLOAD PUSH2 0x100 PUSH1 0x1 PUSH1 0xA8 SHL SUB NOT DUP2 AND SWAP1 SWAP2 SSTORE PUSH1 0x0 SWAP1 PUSH1 0x8 SHR PUSH1 0x1 PUSH1 0x1 PUSH1 0xA0 SHL SUB AND PUSH32 0x8BE0079C531659141344CD1FD0A4F28419497F9722A3DAAFE3B4186F6B6457E0 DUP3 DUP1 LOG3 STOP JUMPDEST CALLVALUE PUSH2 0x219 JUMPI PUSH1 0x40 CALLDATASIZE PUSH1 0x3 NOT ADD SLT PUSH2 0x219 JUMPI PUSH2 0x1713 PUSH2 0x1BAC JUMP JUMPDEST PUSH1 0x1 PUSH1 0x1 PUSH1 0xA0 SHL SUB AND PUSH1 0x0 SWAP1 DUP2 MSTORE PUSH1 0x4 PUSH1 0x20 MSTORE PUSH1 0x40 SWAP1 KECCAK256 DUP1 SLOAD PUSH1 0x24 CALLDATALOAD SWAP2 SWAP1 DUP3 LT ISZERO PUSH2 0x219 JUMPI PUSH1 0x20 SWAP2 PUSH2 0x1744 SWAP2 PUSH2 0x1BC2 JUMP JUMPDEST SWAP1 SLOAD PUSH1 0x40 MLOAD SWAP2 PUSH1 0x3 SHL SHR DUP2 MSTORE RETURN JUMPDEST CALLVALUE PUSH2 0x219 JUMPI PUSH1 0x0 CALLDATASIZE PUSH1 0x3 NOT ADD SLT PUSH2 0x219 JUMPI PUSH1 0x20 PUSH1 0x5 SLOAD PUSH1 0x40 MLOAD SWAP1 DUP2 MSTORE RETURN JUMPDEST CALLVALUE PUSH2 0x219 JUMPI PUSH1 0x0 CALLDATASIZE PUSH1 0x3 NOT ADD SLT PUSH2 0x219 JUMPI PUSH1 0x20 PUSH1 0xFF PUSH1 0x1 SLOAD AND PUSH1 0x40 MLOAD SWAP1 ISZERO ISZERO DUP2 MSTORE RETURN JUMPDEST CALLVALUE PUSH2 0x219 JUMPI PUSH1 0x0 CALLDATASIZE PUSH1 0x3 NOT ADD SLT PUSH2 0x219 JUMPI PUSH1 0x20 PUSH1 0xB SLOAD PUSH1 0x40 MLOAD SWAP1 DUP2 MSTORE RETURN JUMPDEST CALLVALUE PUSH2 0x219 JUMPI PUSH1 0x0 CALLDATASIZE PUSH1 0x3 NOT ADD SLT PUSH2 0x219 JUMPI PUSH2 0x17CA PUSH2 0x1DD2 JUMP JUMPDEST PUSH1 0x1 SLOAD PUSH1 0xFF DUP2 AND ISZERO PUSH2 0x1809 JUMPI PUSH1 0xFF NOT AND PUSH1 0x1 SSTORE PUSH32 0x5DB9EE0A495BF2E6FF9C91A7834C1BA4FDD244A5E8AA4E537BD38AEAE4B073AA PUSH1 0x20 PUSH1 0x40 MLOAD CALLER DUP2 MSTORE LOG1 STOP JUMPDEST PUSH1 0x40 MLOAD PUSH3 0x461BCD PUSH1 0xE5 SHL DUP2 MSTORE PUSH1 0x20 PUSH1 0x4 DUP3 ADD MSTORE PUSH1 0x14 PUSH1 0x24 DUP3 ADD MSTORE PUSH20 0x14185D5CD8589B194E881B9BDD081C185D5CD959 PUSH1 0x62 SHL PUSH1 0x44 DUP3 ADD MSTORE PUSH1 0x64 SWAP1 REVERT JUMPDEST CALLVALUE PUSH2 0x219 JUMPI PUSH1 0x20 DUP1 PUSH1 0x3 NOT CALLDATASIZE ADD SLT PUSH2 0x219 JUMPI PUSH1 0x1 PUSH1 0x1 PUSH1 0xA0 SHL SUB PUSH2 0x1867 PUSH2 0x1BAC JUMP JUMPDEST AND PUSH1 0x0 MSTORE PUSH1 0x4 DUP2 MSTORE PUSH1 0x40 PUSH1 0x0 KECCAK256 PUSH1 0x40 MLOAD SWAP1 DUP2 DUP4 DUP3 SLOAD SWAP2 DUP3 DUP2 MSTORE ADD SWAP1 DUP2 SWAP3 PUSH1 0x0 MSTORE DUP5 PUSH1 0x0 KECCAK256 SWAP1 PUSH1 0x0 JUMPDEST DUP7 DUP3 DUP3 LT PUSH2 0x18E5 JUMPI DUP7 DUP7 PUSH2 0x18A5 DUP3 DUP9 SUB DUP4 PUSH2 0x1C0D JUMP JUMPDEST PUSH1 0x40 MLOAD SWAP3 DUP4 SWAP3 DUP2 DUP5 ADD SWAP1 DUP3 DUP6 MSTORE MLOAD DUP1 SWAP2 MSTORE PUSH1 0x40 DUP5 ADD SWAP3 SWAP2 PUSH1 0x0 JUMPDEST DUP3 DUP2 LT PUSH2 0x18CE JUMPI POP POP POP POP SUB SWAP1 RETURN JUMPDEST DUP4 MLOAD DUP6 MSTORE DUP7 SWAP6 POP SWAP4 DUP2 ADD SWAP4 SWAP3 DUP2 ADD SWAP3 PUSH1 0x1 ADD PUSH2 0x18BF JUMP JUMPDEST DUP4 SLOAD DUP6 MSTORE SWAP1 SWAP4 ADD SWAP3 PUSH1 0x1 SWAP3 DUP4 ADD SWAP3 ADD PUSH2 0x188F JUMP JUMPDEST CALLVALUE PUSH2 0x219 JUMPI PUSH1 0x20 CALLDATASIZE PUSH1 0x3 NOT ADD SLT PUSH2 0x219 JUMPI PUSH1 0x4 CALLDATALOAD PUSH2 0x1915 PUSH2 0x1DD2 JUMP JUMPDEST PUSH2 0x3E8 DUP2 GT PUSH2 0x1923 JUMPI PUSH1 0xB SSTORE STOP JUMPDEST PUSH1 0x40 MLOAD PUSH3 0x461BCD PUSH1 0xE5 SHL DUP2 MSTORE PUSH1 0x20 PUSH1 0x4 DUP3 ADD MSTORE PUSH1 0x13 PUSH1 0x24 DUP3 ADD MSTORE PUSH19 0xA0CAE4C6CADCE8C2CECA40E8DEDE40D0D2CED PUSH1 0x6B SHL PUSH1 0x44 DUP3 ADD MSTORE PUSH1 0x64 SWAP1 REVERT JUMPDEST CALLVALUE PUSH2 0x219 JUMPI PUSH1 0x20 DUP1 PUSH1 0x3 NOT CALLDATASIZE ADD SLT PUSH2 0x219 JUMPI PUSH2 0x1978 PUSH2 0x1FB3 JUMP JUMPDEST PUSH2 0x1980 PUSH2 0x1EAC JUMP JUMPDEST PUSH1 0x4 CALLDATALOAD PUSH1 0x0 MSTORE PUSH1 0x3 DUP2 MSTORE PUSH1 0x40 PUSH1 0x0 KECCAK256 SWAP1 PUSH1 0x1 DUP1 PUSH1 0xA0 SHL SUB DUP1 PUSH1 0x1 DUP5 ADD SLOAD AND CALLER SUB PUSH2 0x1AA7 JUMPI PUSH1 0x5 DUP4 ADD SWAP3 DUP4 SLOAD PUSH1 0xFF DUP2 AND ISZERO PUSH2 0x1A6E JUMPI PUSH1 0x8 SHR PUSH1 0xFF AND PUSH2 0x1A33 JUMPI PUSH1 0xF SWAP3 SWAP4 DUP2 SLOAD PUSH1 0x0 MSTORE PUSH1 0x2 DUP6 MSTORE PUSH2 0x19EB PUSH1 0x2 PUSH1 0x40 PUSH1 0x0 KECCAK256 SWAP5 PUSH1 0x4 DUP7 ADD SLOAD AND SWAP4 ADD SWAP3 DUP4 SLOAD SWAP1 ADDRESS SWAP1 CALLER SWAP1 PUSH2 0x2009 JUMP JUMPDEST PUSH2 0x100 PUSH2 0xFF00 NOT DUP3 SLOAD AND OR SWAP1 SSTORE PUSH2 0x1A0A PUSH1 0xD DUP4 ADD SWAP2 DUP3 SLOAD SWAP1 SLOAD SWAP1 PUSH2 0x222C JUMP JUMPDEST SWAP1 SSTORE CALLER PUSH1 0x0 MSTORE ADD SWAP1 MSTORE PUSH1 0x0 PUSH1 0x8 PUSH1 0x40 DUP3 KECCAK256 PUSH1 0x9 DUP2 ADD PUSH1 0xFF NOT DUP2 SLOAD AND SWAP1 SSTORE ADD SSTORE PUSH1 0x1 PUSH1 0x0 SSTORE PUSH1 0x0 DUP1 RETURN JUMPDEST PUSH1 0x40 MLOAD PUSH3 0x461BCD PUSH1 0xE5 SHL DUP2 MSTORE PUSH1 0x4 DUP2 ADD DUP5 SWAP1 MSTORE PUSH1 0x13 PUSH1 0x24 DUP3 ADD MSTORE PUSH19 0x131BD85B88185B1C9958591E481C995C185A59 PUSH1 0x6A SHL PUSH1 0x44 DUP3 ADD MSTORE PUSH1 0x64 SWAP1 REVERT JUMPDEST PUSH1 0x40 MLOAD PUSH3 0x461BCD PUSH1 0xE5 SHL DUP2 MSTORE PUSH1 0x4 DUP2 ADD DUP6 SWAP1 MSTORE PUSH1 0x11 PUSH1 0x24 DUP3 ADD MSTORE PUSH17 0x131BD85B881B9BDD08185C1C1C9BDD9959 PUSH1 0x7A SHL PUSH1 0x44 DUP3 ADD MSTORE PUSH1 0x64 SWAP1 REVERT JUMPDEST PUSH1 0x40 MLOAD PUSH3 0x461BCD PUSH1 0xE5 SHL DUP2 MSTORE PUSH1 0x4 DUP2 ADD DUP4 SWAP1 MSTORE PUSH1 0x10 PUSH1 0x24 DUP3 ADD MSTORE PUSH16 0x2737BA103A3432903137B93937BBB2B9 PUSH1 0x81 SHL PUSH1 0x44 DUP3 ADD MSTORE PUSH1 0x64 SWAP1 REVERT JUMPDEST CALLVALUE PUSH2 0x219 JUMPI PUSH1 0x0 CALLDATASIZE PUSH1 0x3 NOT ADD SLT PUSH2 0x219 JUMPI PUSH1 0x20 PUSH1 0x7 SLOAD PUSH1 0x40 MLOAD SWAP1 DUP2 MSTORE RETURN JUMPDEST CALLVALUE PUSH2 0x219 JUMPI PUSH1 0x40 CALLDATASIZE PUSH1 0x3 NOT ADD SLT PUSH2 0x219 JUMPI PUSH1 0x24 CALLDATALOAD PUSH1 0x1 PUSH1 0x1 PUSH1 0xA0 SHL SUB DUP2 AND SWAP1 PUSH1 0x4 CALLDATALOAD SWAP1 DUP3 SWAP1 SUB PUSH2 0x219 JUMPI DUP1 ISZERO ISZERO DUP1 PUSH2 0x1BA1 JUMPI JUMPDEST PUSH2 0x1B39 SWAP1 PUSH2 0x1EF0 JUMP JUMPDEST PUSH1 0x0 MSTORE PUSH1 0x2 PUSH1 0x20 MSTORE PUSH1 0xF PUSH1 0x40 PUSH1 0x0 KECCAK256 ADD SWAP1 PUSH1 0x0 MSTORE PUSH1 0x20 MSTORE PUSH1 0xC0 PUSH1 0x40 PUSH1 0x0 KECCAK256 PUSH1 0xFF DUP2 SLOAD AND SWAP1 PUSH1 0x2 DUP2 ADD SLOAD SWAP1 PUSH1 0x3 DUP2 ADD SLOAD PUSH1 0x4 DUP3 ADD SLOAD SWAP1 PUSH1 0x7 PUSH1 0xFF PUSH1 0x6 DUP6 ADD SLOAD AND SWAP4 ADD SLOAD SWAP4 PUSH1 0x40 MLOAD SWAP6 ISZERO ISZERO DUP7 MSTORE PUSH1 0x20 DUP7 ADD MSTORE PUSH1 0x40 DUP6 ADD MSTORE PUSH1 0x60 DUP5 ADD MSTORE ISZERO ISZERO PUSH1 0x80 DUP4 ADD MSTORE PUSH1 0xA0 DUP3 ADD MSTORE RETURN JUMPDEST POP PUSH1 0x5 SLOAD DUP2 LT PUSH2 0x1B30 JUMP JUMPDEST PUSH1 0x4 CALLDATALOAD SWAP1 PUSH1 0x1 PUSH1 0x1 PUSH1 0xA0 SHL SUB DUP3 AND DUP3 SUB PUSH2 0x219 JUMPI JUMP JUMPDEST DUP1 SLOAD DUP3 LT ISZERO PUSH2 0x1BDA JUMPI PUSH1 0x0 MSTORE PUSH1 0x20 PUSH1 0x0 KECCAK256 ADD SWAP1 PUSH1 0x0 SWAP1 JUMP JUMPDEST PUSH4 0x4E487B71 PUSH1 0xE0 SHL PUSH1 0x0 MSTORE PUSH1 0x32 PUSH1 0x4 MSTORE PUSH1 0x24 PUSH1 0x0 REVERT JUMPDEST PUSH2 0x140 DUP2 ADD SWAP1 DUP2 LT PUSH8 0xFFFFFFFFFFFFFFFF DUP3 GT OR PUSH2 0x99D JUMPI PUSH1 0x40 MSTORE JUMP JUMPDEST SWAP1 PUSH1 0x1F DUP1 NOT SWAP2 ADD AND DUP2 ADD SWAP1 DUP2 LT PUSH8 0xFFFFFFFFFFFFFFFF DUP3 GT OR PUSH2 0x99D JUMPI PUSH1 0x40 MSTORE JUMP JUMPDEST PUSH8 0xFFFFFFFFFFFFFFFF DUP2 GT PUSH2 0x99D JUMPI PUSH1 0x1F ADD PUSH1 0x1F NOT AND PUSH1 0x20 ADD SWAP1 JUMP JUMPDEST DUP2 PUSH1 0x1F DUP3 ADD SLT ISZERO PUSH2 0x219 JUMPI DUP1 CALLDATALOAD SWAP1 PUSH2 0x1C62 DUP3 PUSH2 0x1C2F JUMP JUMPDEST SWAP3 PUSH2 0x1C70 PUSH1 0x40 MLOAD SWAP5 DUP6 PUSH2 0x1C0D JUMP JUMPDEST DUP3 DUP5 MSTORE PUSH1 0x20 DUP4 DUP4 ADD ADD GT PUSH2 0x219 JUMPI DUP2 PUSH1 0x0 SWAP3 PUSH1 0x20 DUP1 SWAP4 ADD DUP4 DUP7 ADD CALLDATACOPY DUP4 ADD ADD MSTORE SWAP1 JUMP JUMPDEST SWAP2 SWAP1 DUP3 MLOAD SWAP3 DUP4 DUP3 MSTORE PUSH1 0x0 JUMPDEST DUP5 DUP2 LT PUSH2 0x1CBE JUMPI POP POP DUP3 PUSH1 0x0 PUSH1 0x20 DUP1 SWAP5 SWAP6 DUP5 ADD ADD MSTORE PUSH1 0x1F DUP1 NOT SWAP2 ADD AND ADD ADD SWAP1 JUMP JUMPDEST PUSH1 0x20 DUP2 DUP4 ADD DUP2 ADD MLOAD DUP5 DUP4 ADD DUP3 ADD MSTORE ADD PUSH2 0x1C9D JUMP JUMPDEST PUSH1 0x3 GT ISZERO PUSH2 0x1CDC JUMPI JUMP JUMPDEST PUSH4 0x4E487B71 PUSH1 0xE0 SHL PUSH1 0x0 MSTORE PUSH1 0x21 PUSH1 0x4 MSTORE PUSH1 0x24 PUSH1 0x0 REVERT JUMPDEST SWAP1 PUSH1 0x1 DUP3 DUP2 SHR SWAP3 AND DUP1 ISZERO PUSH2 0x1D22 JUMPI JUMPDEST PUSH1 0x20 DUP4 LT EQ PUSH2 0x1D0C JUMPI JUMP JUMPDEST PUSH4 0x4E487B71 PUSH1 0xE0 SHL PUSH1 0x0 MSTORE PUSH1 0x22 PUSH1 0x4 MSTORE PUSH1 0x24 PUSH1 0x0 REVERT JUMPDEST SWAP2 PUSH1 0x7F AND SWAP2 PUSH2 0x1D01 JUMP JUMPDEST SWAP1 PUSH1 0x40 MLOAD SWAP2 DUP3 PUSH1 0x0 DUP3 SLOAD SWAP3 PUSH2 0x1D40 DUP5 PUSH2 0x1CF2 JUMP JUMPDEST SWAP1 DUP2 DUP5 MSTORE PUSH1 0x1 SWAP5 DUP6 DUP2 AND SWAP1 DUP2 PUSH1 0x0 EQ PUSH2 0x1DAF JUMPI POP PUSH1 0x1 EQ PUSH2 0x1D6C JUMPI JUMPDEST POP POP PUSH2 0x1D6A SWAP3 POP SUB DUP4 PUSH2 0x1C0D JUMP JUMPDEST JUMP JUMPDEST SWAP1 SWAP4 SWAP2 POP PUSH1 0x0 MSTORE PUSH1 0x20 SWAP1 DUP2 PUSH1 0x0 KECCAK256 SWAP4 PUSH1 0x0 SWAP2 JUMPDEST DUP2 DUP4 LT PUSH2 0x1D97 JUMPI POP POP PUSH2 0x1D6A SWAP4 POP DUP3 ADD ADD CODESIZE DUP1 PUSH2 0x1D5C JUMP JUMPDEST DUP6 SLOAD DUP9 DUP5 ADD DUP6 ADD MSTORE SWAP5 DUP6 ADD SWAP5 DUP8 SWAP5 POP SWAP2 DUP4 ADD SWAP2 PUSH2 0x1D7F JUMP JUMPDEST SWAP2 POP POP PUSH2 0x1D6A SWAP5 POP PUSH1 0x20 SWAP3 POP PUSH1 0xFF NOT AND DUP3 DUP5 ADD MSTORE ISZERO ISZERO PUSH1 0x5 SHL DUP3 ADD ADD CODESIZE DUP1 PUSH2 0x1D5C JUMP JUMPDEST PUSH1 0x1 SLOAD PUSH1 0x8 SHR PUSH1 0x1 PUSH1 0x1 PUSH1 0xA0 SHL SUB AND CALLER SUB PUSH2 0x1DE9 JUMPI JUMP JUMPDEST PUSH1 0x64 PUSH1 0x40 MLOAD PUSH3 0x461BCD PUSH1 0xE5 SHL DUP2 MSTORE PUSH1 0x20 PUSH1 0x4 DUP3 ADD MSTORE PUSH1 0x20 PUSH1 0x24 DUP3 ADD MSTORE PUSH32 0x4F776E61626C653A2063616C6C6572206973206E6F7420746865206F776E6572 PUSH1 0x44 DUP3 ADD MSTORE REVERT JUMPDEST PUSH1 0x0 NOT DUP2 EQ PUSH2 0xE36 JUMPI PUSH1 0x1 ADD SWAP1 JUMP JUMPDEST DUP1 SLOAD PUSH1 0x1 PUSH1 0x40 SHL DUP2 LT ISZERO PUSH2 0x99D JUMPI PUSH2 0x1E59 SWAP2 PUSH1 0x1 DUP3 ADD DUP2 SSTORE PUSH2 0x1BC2 JUMP JUMPDEST DUP2 SWAP3 SWAP2 SLOAD SWAP1 PUSH1 0x3 SHL SWAP2 PUSH1 0x1 DUP1 PUSH1 0xA0 SHL SUB DUP1 SWAP2 AND DUP4 SHL SWAP3 SHL NOT AND OR SWAP1 SSTORE JUMP JUMPDEST DUP1 SLOAD PUSH1 0x1 PUSH1 0x40 SHL DUP2 LT ISZERO PUSH2 0x99D JUMPI PUSH2 0x1E94 SWAP2 PUSH1 0x1 DUP3 ADD DUP2 SSTORE PUSH2 0x1BC2 JUMP JUMPDEST DUP2 SWAP3 SWAP2 SLOAD SWAP1 PUSH1 0x3 SHL SWAP2 DUP3 SHL SWAP2 PUSH1 0x0 NOT SWAP1 SHL NOT AND OR SWAP1 SSTORE JUMP JUMPDEST PUSH1 0xFF PUSH1 0x1 SLOAD AND PUSH2 0x1EB8 JUMPI JUMP JUMPDEST PUSH1 0x40 MLOAD PUSH3 0x461BCD PUSH1 0xE5 SHL DUP2 MSTORE PUSH1 0x20 PUSH1 0x4 DUP3 ADD MSTORE PUSH1 0x10 PUSH1 0x24 DUP3 ADD MSTORE PUSH16 0x14185D5CD8589B194E881C185D5CD959 PUSH1 0x82 SHL PUSH1 0x44 DUP3 ADD MSTORE PUSH1 0x64 SWAP1 REVERT JUMPDEST ISZERO PUSH2 0x1EF7 JUMPI JUMP JUMPDEST PUSH1 0x40 MLOAD PUSH3 0x461BCD PUSH1 0xE5 SHL DUP2 MSTORE PUSH1 0x20 PUSH1 0x4 DUP3 ADD MSTORE PUSH1 0x14 PUSH1 0x24 DUP3 ADD MSTORE PUSH20 0x11DC9BDD5C08191BD95CC81B9BDD08195E1A5CDD PUSH1 0x62 SHL PUSH1 0x44 DUP3 ADD MSTORE PUSH1 0x64 SWAP1 REVERT JUMPDEST ISZERO PUSH2 0x1F3A JUMPI JUMP JUMPDEST PUSH1 0x40 MLOAD PUSH3 0x461BCD PUSH1 0xE5 SHL DUP2 MSTORE PUSH1 0x20 PUSH1 0x4 DUP3 ADD MSTORE PUSH1 0x10 PUSH1 0x24 DUP3 ADD MSTORE PUSH16 0x47726F7570206E6F7420616374697665 PUSH1 0x80 SHL PUSH1 0x44 DUP3 ADD MSTORE PUSH1 0x64 SWAP1 REVERT JUMPDEST ISZERO PUSH2 0x1F79 JUMPI JUMP JUMPDEST PUSH1 0x40 MLOAD PUSH3 0x461BCD PUSH1 0xE5 SHL DUP2 MSTORE PUSH1 0x20 PUSH1 0x4 DUP3 ADD MSTORE PUSH1 0x12 PUSH1 0x24 DUP3 ADD MSTORE PUSH18 0x2737BA10309033B937BAB81036B2B6B132B9 PUSH1 0x71 SHL PUSH1 0x44 DUP3 ADD MSTORE PUSH1 0x64 SWAP1 REVERT JUMPDEST PUSH1 0x2 PUSH1 0x0 SLOAD EQ PUSH2 0x1FC4 JUMPI PUSH1 0x2 PUSH1 0x0 SSTORE JUMP JUMPDEST PUSH1 0x40 MLOAD PUSH3 0x461BCD PUSH1 0xE5 SHL DUP2 MSTORE PUSH1 0x20 PUSH1 0x4 DUP3 ADD MSTORE PUSH1 0x1F PUSH1 0x24 DUP3 ADD MSTORE PUSH32 0x5265656E7472616E637947756172643A207265656E7472616E742063616C6C00 PUSH1 0x44 DUP3 ADD MSTORE PUSH1 0x64 SWAP1 REVERT JUMPDEST PUSH1 0x40 MLOAD PUSH4 0x23B872DD PUSH1 0xE0 SHL PUSH1 0x20 DUP3 ADD MSTORE PUSH1 0x1 PUSH1 0x1 PUSH1 0xA0 SHL SUB SWAP3 DUP4 AND PUSH1 0x24 DUP3 ADD MSTORE SWAP3 SWAP1 SWAP2 AND PUSH1 0x44 DUP4 ADD MSTORE PUSH1 0x64 DUP1 DUP4 ADD SWAP4 SWAP1 SWAP4 MSTORE SWAP2 DUP2 MSTORE PUSH1 0xA0 DUP2 ADD SWAP2 DUP2 DUP4 LT PUSH8 0xFFFFFFFFFFFFFFFF DUP5 GT OR PUSH2 0x99D JUMPI PUSH2 0x1D6A SWAP3 PUSH1 0x40 MSTORE JUMPDEST PUSH1 0x1 DUP1 PUSH1 0xA0 SHL SUB AND SWAP1 PUSH1 0x40 MLOAD PUSH1 0x40 DUP2 ADD SWAP1 DUP1 DUP3 LT PUSH8 0xFFFFFFFFFFFFFFFF DUP4 GT OR PUSH2 0x99D JUMPI PUSH2 0x20EE SWAP2 PUSH1 0x40 MSTORE PUSH1 0x20 SWAP4 DUP5 DUP3 MSTORE PUSH32 0x5361666545524332303A206C6F772D6C6576656C2063616C6C206661696C6564 DUP6 DUP4 ADD MSTORE PUSH1 0x0 DUP1 DUP6 DUP8 DUP3 SWAP8 MLOAD SWAP2 ADD DUP3 DUP6 GAS CALL RETURNDATASIZE ISZERO PUSH2 0x218B JUMPI RETURNDATASIZE SWAP2 PUSH2 0x20D3 DUP4 PUSH2 0x1C2F JUMP JUMPDEST SWAP3 PUSH2 0x20E1 PUSH1 0x40 MLOAD SWAP5 DUP6 PUSH2 0x1C0D JUMP JUMPDEST DUP4 MSTORE RETURNDATASIZE DUP7 DUP9 DUP6 ADD RETURNDATACOPY PUSH2 0x218F JUMP JUMPDEST DUP1 MLOAD SWAP2 DUP3 ISZERO SWAP2 DUP5 DUP4 ISZERO PUSH2 0x2160 JUMPI JUMPDEST POP POP POP SWAP1 POP ISZERO PUSH2 0x2109 JUMPI POP JUMP JUMPDEST PUSH1 0x84 SWAP1 PUSH1 0x40 MLOAD SWAP1 PUSH3 0x461BCD PUSH1 0xE5 SHL DUP3 MSTORE PUSH1 0x4 DUP3 ADD MSTORE PUSH1 0x2A PUSH1 0x24 DUP3 ADD MSTORE PUSH32 0x5361666545524332303A204552433230206F7065726174696F6E20646964206E PUSH1 0x44 DUP3 ADD MSTORE PUSH10 0x1BDD081CDD58D8D95959 PUSH1 0xB2 SHL PUSH1 0x64 DUP3 ADD MSTORE REVERT JUMPDEST SWAP2 SWAP4 DUP2 DUP1 SWAP5 POP ADD SUB SLT PUSH2 0x2187 JUMPI DUP3 ADD MLOAD SWAP1 DUP2 ISZERO ISZERO DUP3 SUB PUSH2 0x2184 JUMPI POP DUP1 CODESIZE DUP1 DUP5 PUSH2 0x20FC JUMP JUMPDEST DUP1 REVERT JUMPDEST POP DUP1 REVERT JUMPDEST PUSH1 0x60 SWAP2 JUMPDEST SWAP2 SWAP3 SWAP1 ISZERO PUSH2 0x21F1 JUMPI POP DUP2 MLOAD ISZERO PUSH2 0x21A3 JUMPI POP SWAP1 JUMP JUMPDEST EXTCODESIZE ISZERO PUSH2 0x21AC JUMPI SWAP1 JUMP JUMPDEST PUSH1 0x40 MLOAD PUSH3 0x461BCD PUSH1 0xE5 SHL DUP2 MSTORE PUSH1 0x20 PUSH1 0x4 DUP3 ADD MSTORE PUSH1 0x1D PUSH1 0x24 DUP3 ADD MSTORE PUSH32 0x416464726573733A2063616C6C20746F206E6F6E2D636F6E7472616374000000 PUSH1 0x44 DUP3 ADD MSTORE PUSH1 0x64 SWAP1 REVERT JUMPDEST DUP3 MLOAD SWAP1 SWAP2 POP ISZERO PUSH2 0x2204 JUMPI POP DUP1 MLOAD SWAP1 PUSH1 0x20 ADD REVERT JUMPDEST PUSH1 0x40 MLOAD PUSH3 0x461BCD PUSH1 0xE5 SHL DUP2 MSTORE PUSH1 0x20 PUSH1 0x4 DUP3 ADD MSTORE SWAP1 DUP2 SWAP1 PUSH2 0x2228 SWAP1 PUSH1 0x24 DUP4 ADD SWAP1 PUSH2 0x1C92 JUMP JUMPDEST SUB SWAP1 REVERT JUMPDEST SWAP2 SWAP1 DUP3 ADD DUP1 SWAP3 GT PUSH2 0xE36 JUMPI JUMP JUMPDEST SWAP2 SWAP1 DUP3 SUB SWAP2 DUP3 GT PUSH2 0xE36 JUMPI JUMP JUMPDEST PUSH1 0x40 MLOAD PUSH4 0xA9059CBB PUSH1 0xE0 SHL PUSH1 0x20 DUP3 ADD MSTORE PUSH1 0x1 PUSH1 0x1 PUSH1 0xA0 SHL SUB SWAP1 SWAP3 AND PUSH1 0x24 DUP4 ADD MSTORE PUSH1 0x44 DUP1 DUP4 ADD SWAP4 SWAP1 SWAP4 MSTORE SWAP2 DUP2 MSTORE PUSH1 0x80 DUP2 ADD SWAP2 PUSH8 0xFFFFFFFFFFFFFFFF DUP4 GT DUP3 DUP5 LT OR PUSH2 0x99D JUMPI PUSH2 0x1D6A SWAP3 PUSH1 0x40 MSTORE PUSH2 0x205E JUMP JUMPDEST PUSH2 0x229F DUP2 PUSH2 0x1CD2 JUMP JUMPDEST DUP1 ISZERO PUSH2 0x22DD JUMPI PUSH2 0x22AE DUP2 PUSH2 0x1CD2 JUMP JUMPDEST PUSH1 0x1 DUP2 EQ PUSH2 0x22D5 JUMPI DUP1 PUSH2 0x22C2 PUSH1 0x2 SWAP3 PUSH2 0x1CD2 JUMP JUMPDEST EQ PUSH2 0x22CE JUMPI PUSH3 0x93A80 SWAP1 JUMP JUMPDEST PUSH3 0x278D00 SWAP1 JUMP JUMPDEST POP PUSH3 0x93A80 SWAP1 JUMP JUMPDEST POP PUSH3 0x15180 SWAP1 JUMP INVALID LOG2 PUSH5 0x6970667358 0x22 SLT KECCAK256 0xDB 0xDA PUSH13 0x61F120C6D6BDA85CC65C92E868 PUSH2 0x5ECA 0xAE DIV ISZERO 0xD7 SUB DUP7 PUSH27 0x56110795B6464736F6C6343000813003300000000000000000000 "},"methodIdentifiers":{"approveEmergencyLoan(uint256)":"bcc74bfc","contribute(uint256)":"c1cbbca7","createGroup(string,string,address,uint256,uint256,uint8,bool)":"c1d4eea2","emergencyFundPercentage()":"55b8d7d4","emergencyLoans(uint256)":"8fffc669","feeReceiver()":"b3f00674","getGroupInfo(uint256)":"99d4360f","getMemberInfo(uint256,address)":"1e67939e","getUserGroups(address)":"3da04e4a","joinGroup(uint256)":"eed02e4b","maximumMembers()":"76aac011","minimumContribution()":"937e09b1","nextGroupId()":"5eda7a76","nextLoanId()":"87c51459","owner()":"8da5cb5b","pause()":"8456cb59","paused()":"5c975abb","platformFee()":"26232a2e","renounceOwnership()":"715018a6","repayEmergencyLoan(uint256)":"36ffd778","requestEmergencyLoan(uint256,uint256,string)":"90cfb5f4","savingsGroups(uint256)":"e0e2cc44","transferOwnership(address)":"f2fde38b","unpause()":"3f4ba83a","updateEmergencyFundPercentage(uint256)":"384e77db","updatePlatformFee(uint256)":"aa0b5988","userGroups(address,uint256)":"60a9e097"}},"storageLayout":{"storage":[{"astId":256,"contract":"contracts/SavingsGroups.sol:SavingsGroups","label":"_status","offset":0,"slot":"0","type":"t_uint256"},{"astId":155,"contract":"contracts/SavingsGroups.sol:SavingsGroups","label":"_paused","offset":0,"slot":"1","type":"t_bool"},{"astId":7,"contract":"contracts/SavingsGroups.sol:SavingsGroups","label":"_owner","offset":1,"slot":"1","type":"t_address"},{"astId":6651,"contract":"contracts/SavingsGroups.sol:SavingsGroups","label":"savingsGroups","offset":0,"slot":"2","type":"t_mapping(t_uint256,t_struct(SavingsGroup)6606_storage)"},{"astId":6656,"contract":"contracts/SavingsGroups.sol:SavingsGroups","label":"emergencyLoans","offset":0,"slot":"3","type":"t_mapping(t_uint256,t_struct(EmergencyLoan)6646_storage)"},{"astId":6661,"contract":"contracts/SavingsGroups.sol:SavingsGroups","label":"userGroups","offset":0,"slot":"4","type":"t_mapping(t_address,t_array(t_uint256)dyn_storage)"},{"astId":6664,"contract":"contracts/SavingsGroups.sol:SavingsGroups","label":"nextGroupId","offset":0,"slot":"5","type":"t_uint256"},{"astId":6667,"contract":"contracts/SavingsGroups.sol:SavingsGroups","label":"nextLoanId","offset":0,"slot":"6","type":"t_uint256"},{"astId":6670,"contract":"contracts/SavingsGroups.sol:SavingsGroups","label":"platformFee","offset":0,"slot":"7","type":"t_uint256"},{"astId":6672,"contract":"contracts/SavingsGroups.sol:SavingsGroups","label":"feeReceiver","offset":0,"slot":"8","type":"t_address"},{"astId":6679,"contract":"contracts/SavingsGroups.sol:SavingsGroups","label":"minimumContribution","offset":0,"slot":"9","type":"t_uint256"},{"astId":6682,"contract":"contracts/SavingsGroups.sol:SavingsGroups","label":"maximumMembers","offset":0,"slot":"10","type":"t_uint256"},{"astId":6685,"contract":"contracts/SavingsGroups.sol:SavingsGroups","label":"emergencyFundPercentage","offset":0,"slot":"11","type":"t_uint256"}],"types":{"t_address":{"encoding":"inplace","label":"address","numberOfBytes":"20"},"t_array(t_address)dyn_storage":{"base":"t_address","encoding":"dynamic_array","label":"address[]","numberOfBytes":"32"},"t_array(t_uint256)dyn_storage":{"base":"t_uint256","encoding":"dynamic_array","label":"uint256[]","numberOfBytes":"32"},"t_bool":{"encoding":"inplace","label":"bool","numberOfBytes":"1"},"t_enum(ContributionFrequency)6559":{"encoding":"inplace","label":"enum SavingsGroups.ContributionFrequency","numberOfBytes":"1"},"t_enum(GroupStatus)6555":{"encoding":"inplace","label":"enum SavingsGroups.GroupStatus","numberOfBytes":"1"},"t_mapping(t_address,t_array(t_uint256)dyn_storage)":{"encoding":"mapping","key":"t_address","label":"mapping(address => uint256[])","numberOfBytes":"32","value":"t_array(t_uint256)dyn_storage"},"t_mapping(t_address,t_bool)":{"encoding":"mapping","key":"t_address","label":"mapping(address => bool)","numberOfBytes":"32","value":"t_bool"},"t_mapping(t_address,t_struct(Member)6627_storage)":{"encoding":"mapping","key":"t_address","label":"mapping(address => struct SavingsGroups.Member)","numberOfBytes":"32","value":"t_struct(Member)6627_storage"},"t_mapping(t_uint256,t_address)":{"encoding":"mapping","key":"t_uint256","label":"mapping(uint256 => address)","numberOfBytes":"32","value":"t_address"},"t_mapping(t_uint256,t_struct(EmergencyLoan)6646_storage)":{"encoding":"mapping","key":"t_uint256","label":"mapping(uint256 => struct SavingsGroups.EmergencyLoan)","numberOfBytes":"32","value":"t_struct(EmergencyLoan)6646_storage"},"t_mapping(t_uint256,t_struct(SavingsGroup)6606_storage)":{"encoding":"mapping","key":"t_uint256","label":"mapping(uint256 => struct SavingsGroups.SavingsGroup)","numberOfBytes":"32","value":"t_struct(SavingsGroup)6606_storage"},"t_string_storage":{"encoding":"bytes","label":"string","numberOfBytes":"32"},"t_struct(EmergencyLoan)6646_storage":{"encoding":"inplace","label":"struct SavingsGroups.EmergencyLoan","members":[{"astId":6629,"contract":"contracts/SavingsGroups.sol:SavingsGroups","label":"groupId","offset":0,"slot":"0","type":"t_uint256"},{"astId":6631,"contract":"contracts/SavingsGroups.sol:SavingsGroups","label":"borrower","offset":0,"slot":"1","type":"t_address"},{"astId":6633,"contract":"contracts/SavingsGroups.sol:SavingsGroups","label":"amount","offset":0,"slot":"2","type":"t_uint256"},{"astId":6635,"contract":"contracts/SavingsGroups.sol:SavingsGroups","label":"requestTime","offset":0,"slot":"3","type":"t_uint256"},{"astId":6637,"contract":"contracts/SavingsGroups.sol:SavingsGroups","label":"approvalCount","offset":0,"slot":"4","type":"t_uint256"},{"astId":6639,"contract":"contracts/SavingsGroups.sol:SavingsGroups","label":"isApproved","offset":0,"slot":"5","type":"t_bool"},{"astId":6641,"contract":"contracts/SavingsGroups.sol:SavingsGroups","label":"isRepaid","offset":1,"slot":"5","type":"t_bool"},{"astId":6645,"contract":"contracts/SavingsGroups.sol:SavingsGroups","label":"approvals","offset":0,"slot":"6","type":"t_mapping(t_address,t_bool)"}],"numberOfBytes":"224"},"t_struct(Member)6627_storage":{"encoding":"inplace","label":"struct SavingsGroups.Member","members":[{"astId":6608,"contract":"contracts/SavingsGroups.sol:SavingsGroups","label":"isActive","offset":0,"slot":"0","type":"t_bool"},{"astId":6610,"contract":"contracts/SavingsGroups.sol:SavingsGroups","label":"joinTime","offset":0,"slot":"1","type":"t_uint256"},{"astId":6612,"contract":"contracts/SavingsGroups.sol:SavingsGroups","label":"position","offset":0,"slot":"2","type":"t_uint256"},{"astId":6614,"contract":"contracts/SavingsGroups.sol:SavingsGroups","label":"totalContributions","offset":0,"slot":"3","type":"t_uint256"},{"astId":6616,"contract":"contracts/SavingsGroups.sol:SavingsGroups","label":"missedContributions","offset":0,"slot":"4","type":"t_uint256"},{"astId":6618,"contract":"contracts/SavingsGroups.sol:SavingsGroups","label":"lastContributionTime","offset":0,"slot":"5","type":"t_uint256"},{"astId":6620,"contract":"contracts/SavingsGroups.sol:SavingsGroups","label":"hasReceivedPayout","offset":0,"slot":"6","type":"t_bool"},{"astId":6622,"contract":"contracts/SavingsGroups.sol:SavingsGroups","label":"payoutRound","offset":0,"slot":"7","type":"t_uint256"},{"astId":6624,"contract":"contracts/SavingsGroups.sol:SavingsGroups","label":"emergencyLoanAmount","offset":0,"slot":"8","type":"t_uint256"},{"astId":6626,"contract":"contracts/SavingsGroups.sol:SavingsGroups","label":"hasEmergencyLoan","offset":0,"slot":"9","type":"t_bool"}],"numberOfBytes":"320"},"t_struct(SavingsGroup)6606_storage":{"encoding":"inplace","label":"struct SavingsGroups.SavingsGroup","members":[{"astId":6561,"contract":"contracts/SavingsGroups.sol:SavingsGroups","label":"groupId","offset":0,"slot":"0","type":"t_uint256"},{"astId":6563,"contract":"contracts/SavingsGroups.sol:SavingsGroups","label":"name","offset":0,"slot":"1","type":"t_string_storage"},{"astId":6565,"contract":"contracts/SavingsGroups.sol:SavingsGroups","label":"description","offset":0,"slot":"2","type":"t_string_storage"},{"astId":6567,"contract":"contracts/SavingsGroups.sol:SavingsGroups","label":"creator","offset":0,"slot":"3","type":"t_address"},{"astId":6569,"contract":"contracts/SavingsGroups.sol:SavingsGroups","label":"token","offset":0,"slot":"4","type":"t_address"},{"astId":6571,"contract":"contracts/SavingsGroups.sol:SavingsGroups","label":"contributionAmount","offset":0,"slot":"5","type":"t_uint256"},{"astId":6573,"contract":"contracts/SavingsGroups.sol:SavingsGroups","label":"maxMembers","offset":0,"slot":"6","type":"t_uint256"},{"astId":6575,"contract":"contracts/SavingsGroups.sol:SavingsGroups","label":"currentMembers","offset":0,"slot":"7","type":"t_uint256"},{"astId":6578,"contract":"contracts/SavingsGroups.sol:SavingsGroups","label":"frequency","offset":0,"slot":"8","type":"t_enum(ContributionFrequency)6559"},{"astId":6580,"contract":"contracts/SavingsGroups.sol:SavingsGroups","label":"startTime","offset":0,"slot":"9","type":"t_uint256"},{"astId":6582,"contract":"contracts/SavingsGroups.sol:SavingsGroups","label":"lastPayoutTime","offset":0,"slot":"10","type":"t_uint256"},{"astId":6584,"contract":"contracts/SavingsGroups.sol:SavingsGroups","label":"currentRound","offset":0,"slot":"11","type":"t_uint256"},{"astId":6587,"contract":"contracts/SavingsGroups.sol:SavingsGroups","label":"status","offset":0,"slot":"12","type":"t_enum(GroupStatus)6555"},{"astId":6589,"contract":"contracts/SavingsGroups.sol:SavingsGroups","label":"emergencyFundEnabled","offset":1,"slot":"12","type":"t_bool"},{"astId":6591,"contract":"contracts/SavingsGroups.sol:SavingsGroups","label":"emergencyFundBalance","offset":0,"slot":"13","type":"t_uint256"},{"astId":6593,"contract":"contracts/SavingsGroups.sol:SavingsGroups","label":"totalContributions","offset":0,"slot":"14","type":"t_uint256"},{"astId":6598,"contract":"contracts/SavingsGroups.sol:SavingsGroups","label":"members","offset":0,"slot":"15","type":"t_mapping(t_address,t_struct(Member)6627_storage)"},{"astId":6602,"contract":"contracts/SavingsGroups.sol:SavingsGroups","label":"payoutOrder","offset":0,"slot":"16","type":"t_mapping(t_uint256,t_address)"},{"astId":6605,"contract":"contracts/SavingsGroups.sol:SavingsGroups","label":"memberList","offset":0,"slot":"17","type":"t_array(t_address)dyn_storage"}],"numberOfBytes":"576"},"t_uint256":{"encoding":"inplace","label":"uint256","numberOfBytes":"32"}}}}}}