{"contracts/VillageToken.sol":{"VillageToken":{"abi":[{"inputs":[],"stateMutability":"nonpayable","type":"constructor"},{"inputs":[],"name":"InvalidShortString","type":"error"},{"inputs":[{"internalType":"string","name":"str","type":"string"}],"name":"StringTooLong","type":"error"},{"anonymous":false,"inputs":[{"indexed":true,"internalType":"address","name":"owner","type":"address"},{"indexed":true,"internalType":"address","name":"spender","type":"address"},{"indexed":false,"internalType":"uint256","name":"value","type":"uint256"}],"name":"Approval","type":"event"},{"anonymous":false,"inputs":[],"name":"EIP712DomainChanged","type":"event"},{"anonymous":false,"inputs":[{"indexed":true,"internalType":"address","name":"previousOwner","type":"address"},{"indexed":true,"internalType":"address","name":"newOwner","type":"address"}],"name":"OwnershipTransferred","type":"event"},{"anonymous":false,"inputs":[{"indexed":false,"internalType":"address","name":"account","type":"address"}],"name":"Paused","type":"event"},{"anonymous":false,"inputs":[{"indexed":true,"internalType":"address","name":"recipient","type":"address"},{"indexed":false,"internalType":"uint256","name":"amount","type":"uint256"},{"indexed":false,"internalType":"string","name":"rewardType","type":"string"}],"name":"RewardDistributed","type":"event"},{"anonymous":false,"inputs":[{"indexed":true,"internalType":"address","name":"user","type":"address"},{"indexed":false,"internalType":"uint256","name":"amount","type":"uint256"}],"name":"StakingRewardClaimed","type":"event"},{"anonymous":false,"inputs":[{"indexed":true,"internalType":"address","name":"user","type":"address"},{"indexed":false,"internalType":"uint256","name":"amount","type":"uint256"}],"name":"TokensStaked","type":"event"},{"anonymous":false,"inputs":[{"indexed":true,"internalType":"address","name":"user","type":"address"},{"indexed":false,"internalType":"uint256","name":"amount","type":"uint256"}],"name":"TokensUnstaked","type":"event"},{"anonymous":false,"inputs":[{"indexed":true,"internalType":"address","name":"from","type":"address"},{"indexed":true,"internalType":"address","name":"to","type":"address"},{"indexed":false,"internalType":"uint256","name":"value","type":"uint256"}],"name":"Transfer","type":"event"},{"anonymous":false,"inputs":[{"indexed":false,"internalType":"address","name":"account","type":"address"}],"name":"Unpaused","type":"event"},{"inputs":[],"name":"DOMAIN_SEPARATOR","outputs":[{"internalType":"bytes32","name":"","type":"bytes32"}],"stateMutability":"view","type":"function"},{"inputs":[],"name":"INITIAL_SUPPLY","outputs":[{"internalType":"uint256","name":"","type":"uint256"}],"stateMutability":"view","type":"function"},{"inputs":[],"name":"MAX_SUPPLY","outputs":[{"internalType":"uint256","name":"","type":"uint256"}],"stateMutability":"view","type":"function"},{"inputs":[{"internalType":"address","name":"_distributor","type":"address"}],"name":"addRewardDistributor","outputs":[],"stateMutability":"nonpayable","type":"function"},{"inputs":[{"internalType":"string","name":"_poolName","type":"string"},{"internalType":"uint256","name":"_amount","type":"uint256"}],"name":"addToRewardPool","outputs":[],"stateMutability":"nonpayable","type":"function"},{"inputs":[],"name":"agentCommissionReward","outputs":[{"internalType":"uint256","name":"","type":"uint256"}],"stateMutability":"view","type":"function"},{"inputs":[{"internalType":"address","name":"owner","type":"address"},{"internalType":"address","name":"spender","type":"address"}],"name":"allowance","outputs":[{"internalType":"uint256","name":"","type":"uint256"}],"stateMutability":"view","type":"function"},{"inputs":[{"internalType":"address","name":"spender","type":"address"},{"internalType":"uint256","name":"amount","type":"uint256"}],"name":"approve","outputs":[{"internalType":"bool","name":"","type":"bool"}],"stateMutability":"nonpayable","type":"function"},{"inputs":[{"internalType":"address","name":"account","type":"address"}],"name":"balanceOf","outputs":[{"internalType":"uint256","name":"","type":"uint256"}],"stateMutability":"view","type":"function"},{"inputs":[{"internalType":"uint256","name":"amount","type":"uint256"}],"name":"burn","outputs":[],"stateMutability":"nonpayable","type":"function"},{"inputs":[{"internalType":"address","name":"account","type":"address"},{"internalType":"uint256","name":"amount","type":"uint256"}],"name":"burnFrom","outputs":[],"stateMutability":"nonpayable","type":"function"},{"inputs":[],"name":"claimStakingReward","outputs":[],"stateMutability":"nonpayable","type":"function"},{"inputs":[],"name":"decimals","outputs":[{"internalType":"uint8","name":"","type":"uint8"}],"stateMutability":"view","type":"function"},{"inputs":[{"internalType":"address","name":"spender","type":"address"},{"internalType":"uint256","name":"subtractedValue","type":"uint256"}],"name":"decreaseAllowance","outputs":[{"internalType":"bool","name":"","type":"bool"}],"stateMutability":"nonpayable","type":"function"},{"inputs":[{"internalType":"address","name":"_recipient","type":"address"}],"name":"distributeAgentReward","outputs":[],"stateMutability":"nonpayable","type":"function"},{"inputs":[{"internalType":"address","name":"_recipient","type":"address"}],"name":"distributeLoanReward","outputs":[],"stateMutability":"nonpayable","type":"function"},{"inputs":[{"internalType":"address","name":"_recipient","type":"address"}],"name":"distributeReferralReward","outputs":[],"stateMutability":"nonpayable","type":"function"},{"inputs":[{"internalType":"address","name":"_recipient","type":"address"}],"name":"distributeSavingsReward","outputs":[],"stateMutability":"nonpayable","type":"function"},{"inputs":[],"name":"eip712Domain","outputs":[{"internalType":"bytes1","name":"fields","type":"bytes1"},{"internalType":"string","name":"name","type":"string"},{"internalType":"string","name":"version","type":"string"},{"internalType":"uint256","name":"chainId","type":"uint256"},{"internalType":"address","name":"verifyingContract","type":"address"},{"internalType":"bytes32","name":"salt","type":"bytes32"},{"internalType":"uint256[]","name":"extensions","type":"uint256[]"}],"stateMutability":"view","type":"function"},{"inputs":[{"internalType":"address","name":"_user","type":"address"}],"name":"getPendingStakingReward","outputs":[{"internalType":"uint256","name":"","type":"uint256"}],"stateMutability":"view","type":"function"},{"inputs":[{"internalType":"address","name":"_user","type":"address"}],"name":"getVotingPower","outputs":[{"internalType":"uint256","name":"","type":"uint256"}],"stateMutability":"view","type":"function"},{"inputs":[{"internalType":"address","name":"spender","type":"address"},{"internalType":"uint256","name":"addedValue","type":"uint256"}],"name":"increaseAllowance","outputs":[{"internalType":"bool","name":"","type":"bool"}],"stateMutability":"nonpayable","type":"function"},{"inputs":[],"name":"loanRepaymentReward","outputs":[{"internalType":"uint256","name":"","type":"uint256"}],"stateMutability":"view","type":"function"},{"inputs":[{"internalType":"address","name":"_recipient","type":"address"},{"internalType":"uint256","name":"_amount","type":"uint256"}],"name":"mintForEcosystem","outputs":[],"stateMutability":"nonpayable","type":"function"},{"inputs":[],"name":"name","outputs":[{"internalType":"string","name":"","type":"string"}],"stateMutability":"view","type":"function"},{"inputs":[{"internalType":"address","name":"owner","type":"address"}],"name":"nonces","outputs":[{"internalType":"uint256","name":"","type":"uint256"}],"stateMutability":"view","type":"function"},{"inputs":[],"name":"owner","outputs":[{"internalType":"address","name":"","type":"address"}],"stateMutability":"view","type":"function"},{"inputs":[],"name":"pause","outputs":[],"stateMutability":"nonpayable","type":"function"},{"inputs":[],"name":"paused","outputs":[{"internalType":"bool","name":"","type":"bool"}],"stateMutability":"view","type":"function"},{"inputs":[{"internalType":"address","name":"owner","type":"address"},{"internalType":"address","name":"spender","type":"address"},{"internalType":"uint256","name":"value","type":"uint256"},{"internalType":"uint256","name":"deadline","type":"uint256"},{"internalType":"uint8","name":"v","type":"uint8"},{"internalType":"bytes32","name":"r","type":"bytes32"},{"internalType":"bytes32","name":"s","type":"bytes32"}],"name":"permit","outputs":[],"stateMutability":"nonpayable","type":"function"},{"inputs":[],"name":"referralReward","outputs":[{"internalType":"uint256","name":"","type":"uint256"}],"stateMutability":"view","type":"function"},{"inputs":[{"internalType":"address","name":"_distributor","type":"address"}],"name":"removeRewardDistributor","outputs":[],"stateMutability":"nonpayable","type":"function"},{"inputs":[],"name":"renounceOwnership","outputs":[],"stateMutability":"nonpayable","type":"function"},{"inputs":[{"internalType":"address","name":"","type":"address"}],"name":"rewardDistributors","outputs":[{"internalType":"bool","name":"","type":"bool"}],"stateMutability":"view","type":"function"},{"inputs":[{"internalType":"string","name":"","type":"string"}],"name":"rewardPools","outputs":[{"internalType":"uint256","name":"","type":"uint256"}],"stateMutability":"view","type":"function"},{"inputs":[],"name":"savingsReward","outputs":[{"internalType":"uint256","name":"","type":"uint256"}],"stateMutability":"view","type":"function"},{"inputs":[{"internalType":"uint256","name":"_amount","type":"uint256"}],"name":"stakeTokens","outputs":[],"stateMutability":"nonpayable","type":"function"},{"inputs":[{"internalType":"address","name":"","type":"address"}],"name":"stakedBalance","outputs":[{"internalType":"uint256","name":"","type":"uint256"}],"stateMutability":"view","type":"function"},{"inputs":[],"name":"stakingRewardRate","outputs":[{"internalType":"uint256","name":"","type":"uint256"}],"stateMutability":"view","type":"function"},{"inputs":[{"internalType":"address","name":"","type":"address"}],"name":"stakingTimestamp","outputs":[{"internalType":"uint256","name":"","type":"uint256"}],"stateMutability":"view","type":"function"},{"inputs":[],"name":"symbol","outputs":[{"internalType":"string","name":"","type":"string"}],"stateMutability":"view","type":"function"},{"inputs":[],"name":"totalStaked","outputs":[{"internalType":"uint256","name":"","type":"uint256"}],"stateMutability":"view","type":"function"},{"inputs":[],"name":"totalSupply","outputs":[{"internalType":"uint256","name":"","type":"uint256"}],"stateMutability":"view","type":"function"},{"inputs":[{"internalType":"address","name":"to","type":"address"},{"internalType":"uint256","name":"amount","type":"uint256"}],"name":"transfer","outputs":[{"internalType":"bool","name":"","type":"bool"}],"stateMutability":"nonpayable","type":"function"},{"inputs":[{"internalType":"address","name":"from","type":"address"},{"internalType":"address","name":"to","type":"address"},{"internalType":"uint256","name":"amount","type":"uint256"}],"name":"transferFrom","outputs":[{"internalType":"bool","name":"","type":"bool"}],"stateMutability":"nonpayable","type":"function"},{"inputs":[{"internalType":"address","name":"newOwner","type":"address"}],"name":"transferOwnership","outputs":[],"stateMutability":"nonpayable","type":"function"},{"inputs":[],"name":"unpause","outputs":[],"stateMutability":"nonpayable","type":"function"},{"inputs":[{"internalType":"uint256","name":"_amount","type":"uint256"}],"name":"unstakeTokens","outputs":[],"stateMutability":"nonpayable","type":"function"},{"inputs":[{"internalType":"uint256","name":"_savingsReward","type":"uint256"},{"internalType":"uint256","name":"_loanRepaymentReward","type":"uint256"},{"internalType":"uint256","name":"_referralReward","type":"uint256"},{"internalType":"uint256","name":"_agentCommissionReward","type":"uint256"}],"name":"updateRewardRates","outputs":[],"stateMutability":"nonpayable","type":"function"},{"inputs":[{"internalType":"uint256","name":"_stakingRewardRate","type":"uint256"}],"name":"updateStakingRewardRate","outputs":[],"stateMutability":"nonpayable","type":"function"}],"evm":{"bytecode":{"linkReferences":{},"object":"6101606040818152346200066f57620000188262000674565b600d8252602091828101916c2b34b63630b3b2902a37b5b2b760991b93848452815194620000468662000674565b600d8652818601528151906200005c8262000674565b600782526656494c4c41474560c81b818301528251956200007d8762000674565b6001808852603160f81b83890190815282516001600160401b039392908481116200056f576003908154948386811c9616801562000664575b888710146200064e578190601f96878111620005f8575b508890878311600114620005915760009262000585575b505060001982841b1c191690831b1781555b8651908582116200056f5760049788548481811c9116801562000564575b898210146200054f5786811162000504575b50879086841160011462000499579383949184926000956200048d575b50501b92600019911b1c19161785555b600580546001600160a81b0319811633600881811b610100600160a81b0316929092179093551c6001600160a01b03167f8be0079c531659141344cd1fd0a4f28419497f9722a3daafe3b4186f6b6457e0600080a3620001b38762000690565b97610120988952620001c58a62000857565b97610140988952519020988960e0525190209061010098828a524660a052865192858401917f8b73c3c69bb8fe3d512ecc4cf759cc79239f7b179b0ffacaa9a75d522b39400f83528885015260608401524660808401523060a084015260a0835260c0830193838510908511176200047857838752825190206080523060c052678ac7230489e80000600a55674563918244f40000600b5568015af1d78b58c40000600c55671bc16d674ec80000600d5560646013553315620004385750505060ff6005541662000405576002546a52b7d2dcc80cd2e400000092838201809211620003f057506000917fddf252ad1be2c89b69c2b068fc378daa952ba7f163c4a11628f55a4df523b3ef9160025533835282815284832084815401905584519384523393a36a295be96e640669720000006027825166736176696e677360c81b8152600e600782015220556a18d0bf423c03d8de00000060258251646c6f616e7360d81b8152600e600582015220556a0c685fa11e01ec6f0000006029825168726566657272616c7360b81b8152600e600982015220556a108b2a2c2802909400000060268251656167656e747360d01b8152600e600682015220556a084595161401484a00000060278251667374616b696e6760c81b8152600e6007820152205551916125b8938462000a10853960805184611f7f015260a0518461204b015260c05184611f49015260e05184611fce01525183611ff4015251826109ab015251816109d50152f35b601190634e487b7160e01b6000525260246000fd5b606492519162461bcd60e51b8352820152601060248201526f14185d5cd8589b194e881c185d5cd95960821b6044820152fd5b7f45524332303a206d696e7420746f20746865207a65726f206164647265737300916101049160649562461bcd60e51b865260c483015260e48201520152fd5b604186634e487b7160e01b6000525260246000fd5b01519350388062000143565b9190601f198416928a600052848a6000209460005b8c89838310620004ec5750505010620004d1575b50505050811b01855562000153565b01519060f884600019921b161c1916905538808080620004c2565b868601518955909701969485019488935001620004ae565b89600052886000208780860160051c8201928b871062000545575b0160051c019085905b8281106200053857505062000126565b6000815501859062000528565b925081926200051f565b60228a634e487b7160e01b6000525260246000fd5b90607f169062000114565b634e487b7160e01b600052604160045260246000fd5b015190503880620000e4565b90859350601f19831691856000528a6000209260005b8c828210620005e15750508411620005c8575b505050811b018155620000f6565b015160001983861b60f8161c19169055388080620005ba565b8385015186558997909501949384019301620005a7565b90915083600052886000208780850160051c8201928b861062000644575b918791869594930160051c01915b82811062000634575050620000cd565b6000815585945087910162000624565b9250819262000616565b634e487b7160e01b600052602260045260246000fd5b95607f1695620000b6565b600080fd5b604081019081106001600160401b038211176200056f57604052565b8051602090818110156200072d5750601f825111620006cc5780825192015190808310620006bd57501790565b82600019910360031b1b161790565b90604051809263305a27a960e01b82528060048301528251908160248401526000935b82851062000713575050604492506000838284010152601f80199101168101030190fd5b8481018201518686016044015293810193859350620006ef565b906001600160401b0382116200056f57600654926001938481811c911680156200084c575b838210146200064e57601f811162000812575b5081601f8411600114620007a657509282939183926000946200079a575b50501b916000199060031b1c19161760065560ff90565b01519250388062000783565b919083601f198116600660005284600020946000905b88838310620007f75750505010620007dd575b505050811b0160065560ff90565b015160001960f88460031b161c19169055388080620007cf565b858701518855909601959485019487935090810190620007bc565b600660005284601f84600020920160051c820191601f860160051c015b8281106200083f57505062000765565b600081550185906200082f565b90607f169062000752565b805160209081811015620008e55750601f825111620008845780825192015190808310620006bd57501790565b90604051809263305a27a960e01b82528060048301528251908160248401526000935b828510620008cb575050604492506000838284010152601f80199101168101030190fd5b8481018201518686016044015293810193859350620008a7565b906001600160401b0382116200056f57600754926001938481811c9116801562000a04575b838210146200064e57601f8111620009ca575b5081601f84116001146200095e575092829391839260009462000952575b50501b916000199060031b1c19161760075560ff90565b0151925038806200093b565b919083601f198116600760005284600020946000905b88838310620009af575050501062000995575b505050811b0160075560ff90565b015160001960f88460031b161c1916905538808062000987565b85870151885590960195948501948793509081019062000974565b600760005284601f84600020920160051c820191601f860160051c015b828110620009f75750506200091d565b60008155018590620009e7565b90607f16906200090a56fe6080604081815260048036101561001557600080fd5b600092833560e01c90816306fdde03146116d157508063072d11e9146115bf578063095ea7b3146115955780630bd9ec2c146114865780631374a5241461138657806318160ddd14611367578063199013681461125057806319e6af1c146112075780631c96e950146111c45780631dd5109e1461119057806323b872dd146111535780632ff2e9dc1461112d578063313ce5671461111157806332cb6b0c146110ea57806333290145146110cb5780633644e515146110ae578063395093511461105e5780633f4ba83a14610fc957806342966c6814610fab578063456aaa3f14610f3a5780634d68367414610f1b5780634f3fc2df14610efc5780635c975abb14610ed857806360217267146105f7578063608e4dd014610d645780636982a77f14610d4557806370a0823114610d0e578063715018a614610cad5780637547c7a314610bb257806379cc679014610b825780637a40ecf114610b635780637ecebe0014610b2b578063817b1cd214610b0c5780638456cb5914610ab157806384b0196e146109945780638da5cb5b146109675780638f0794fe1461092f57806395d89b4114610845578063a457c2d7146107a1578063a4d1deca14610708578063a9059cbb146106d7578063a9c12f0c14610699578063afc695ce1461062f578063bb4d4436146105f7578063bb6d890f146105b7578063c49f479714610557578063d505accf1461039e578063dd62ed3e14610355578063ef59da63146103245763f2fde38b1461024957600080fd5b34610320576020366003190112610320576102626117ea565b61026a6118c6565b6001600160a01b038181169390929084156102ce57505060058054610100600160a81b03198116600893841b610100600160a81b031617909155901c167f8be0079c531659141344cd1fd0a4f28419497f9722a3daafe3b4186f6b6457e08380a380f35b906020608492519162461bcd60e51b8352820152602660248201527f4f776e61626c653a206e6577206f776e657220697320746865207a65726f206160448201526564647265737360d01b6064820152fd5b8280fd5b5050346103515760203660031901126103515760209061034a6103456117ea565b6124b9565b9051908152f35b5080fd5b505034610351578060031936011261035157806020926103736117ea565b61037b611805565b6001600160a01b0391821683526001865283832091168252845220549051908152f35b508290346103515760e0366003190112610351576103ba6117ea565b6103c2611805565b906044359260643560843560ff81168103610553578142116105105760018060a01b0390818516928389526008602052898920908154916001830190558a519060208201927f6e71edae12b1b97f4d1f60370fef10105fa2faae0126114a169c64845d6126c98452868d840152858a1660608401528a608084015260a083015260c082015260c0815260e0810181811067ffffffffffffffff8211176104fd578b525190206104a59161049d91610477611f46565b908c519161190160f01b83526002830152602282015260c43591604260a4359220611eb7565b919091611d9d565b16036104ba57506104b7939450611af4565b80f35b606490602087519162461bcd60e51b8352820152601e60248201527f45524332305065726d69743a20696e76616c6964207369676e617475726500006044820152fd5b634e487b7160e01b8b526041875260248bfd5b875162461bcd60e51b8152602081850152601d60248201527f45524332305065726d69743a206578706972656420646561646c696e650000006044820152606490fd5b8680fd5b5091346105b45760203660031901126105b45782359067ffffffffffffffff82116105b45750602061059081946105a29336910161186f565b818451938285809451938492016117a2565b8101600e815203019020549051908152f35b80fd5b505034610351576020366003190112610351576105d26117ea565b6105da6118c6565b6001600160a01b03168252600f6020528120805460ff1916905580f35b5050346103515760203660031901126103515760209181906001600160a01b0361061f6117ea565b1681526010845220549051908152f35b509034610320578260031936011261032057610649612383565b3383526010602052808320541561066357826104b76123da565b906020606492519162461bcd60e51b8352820152601060248201526f139bc81d1bdad95b9cc81cdd185ad95960821b6044820152fd5b5050346103515760203660031901126103515760209160ff9082906001600160a01b036106c46117ea565b168152600f855220541690519015158152f35b5050346103515780600319360112610351576020906107016106f76117ea565b602435903361197e565b5160018152f35b509034610320578060031936011261032057813567ffffffffffffffff811161079d5760206107406104b7946107809336910161186f565b816024359461074d6118c6565b6107706b033b2e3c9fd0803ce80000006107698860025461195b565b1115612516565b51938285809451938492016117a2565b8101600e81520301902061079582825461195b565b90553061228c565b8380fd5b5082346105b457826003193601126105b4576107bb6117ea565b918360243592338152600160205281812060018060a01b03861682526020522054908282106107f4576020856107018585038733611af4565b608490602086519162461bcd60e51b8352820152602560248201527f45524332303a2064656372656173656420616c6c6f77616e63652062656c6f77604482015264207a65726f60d81b6064820152fd5b5090346103205782600319360112610320578051918381549061086782611921565b8086529260019280841690811561090457506001146108a8575b6108a48686610892828b038361184d565b519182916020835260208301906117c5565b0390f35b815294507f8a35acfbc15ff81a39ae7d344fd709f28e8600b4aa8c65c6b64bfe7fe36bd19b5b8286106108ec575050506108928260206108a4958201019438610881565b805460208787018101919091529095019481016108ce565b90506108a497508693506020925061089294915060ff191682840152151560051b8201019438610881565b5050346103515760203660031901126103515760209181906001600160a01b036109576117ea565b1681526011845220549051908152f35b505034610351578160031936011261035157600554905160089190911c6001600160a01b03168152602090f35b5090346103205782600319360112610320576109cf7f0000000000000000000000000000000000000000000000000000000000000000612071565b926109f97f000000000000000000000000000000000000000000000000000000000000000061216d565b908251926020928385019585871067ffffffffffffffff881117610a9e57509280610a54838896610a47998b9996528686528151998a99600f60f81b8b5260e0868c015260e08b01906117c5565b91898303908a01526117c5565b924660608801523060808801528460a088015286840360c088015251928381520193925b828110610a8757505050500390f35b835185528695509381019392810192600101610a78565b634e487b7160e01b845260419052602483fd5b50503461035157816003193601126103515760207f62e78cea01bee320cd4e420270b5ea74000d11b0c9f74754ebdbfc544b05a25891610aef6118c6565b610af7612383565b600160ff19600554161760055551338152a180f35b5050346103515781600319360112610351576020906012549051908152f35b5050346103515760203660031901126103515760209181906001600160a01b03610b536117ea565b1681526008845220549051908152f35b505034610351578160031936011261035157602090600a549051908152f35b505034610351573660031901126105b4576104b7610b9e6117ea565b60243590610bad823383611bf6565b611c8e565b509034610320576020908160031936011261079d57823592610bd2612383565b610bdd841515612337565b338552848352838286205410610c755750907fb539ca1e5c8d398ddf1c41c30166f33404941683be4683319b57669a93dad4ef913385526010825280852054610c68575b610c2c84303361197e565b33855260108252808520610c4185825461195b565b9055338552601182524281862055610c5b8460125461195b565b601255519283523392a280f35b610c706123da565b610c21565b82606492519162461bcd60e51b83528201526014602482015273496e73756666696369656e742062616c616e636560601b6044820152fd5b83346105b457806003193601126105b457610cc66118c6565b60058054610100600160a81b03198116909155819060081c6001600160a01b03167f8be0079c531659141344cd1fd0a4f28419497f9722a3daafe3b4186f6b6457e08280a380f35b5050346103515760203660031901126103515760209181906001600160a01b03610d366117ea565b16815280845220549051908152f35b505034610351578160031936011261035157602090600b549051908152f35b509034610320576020908160031936011261079d57823592610d84612383565b610d8f841515612337565b33855260108352838286205410610e9757338552601183528185205462093a808101809111610e84574210610e435750907f9845e367b683334e5c0b12d7b81721ac518e649376fa65e3d68324e8f34f267991610dea6123da565b33855260108252808520610dff85825461227f565b9055610e0d8460125461227f565b601255610e1b84333061197e565b3385526010825280852054610e35575b519283523392a280f35b601182524281862055610e2b565b82606492519162461bcd60e51b8352820152601860248201527f546f6b656e73206c6f636b656420666f722037206461797300000000000000006044820152fd5b634e487b7160e01b865260118252602486fd5b82606492519162461bcd60e51b8352820152601b60248201527f496e73756666696369656e74207374616b65642062616c616e636500000000006044820152fd5b50503461035157816003193601126103515760209060ff6005541690519015158152f35b5050346103515781600319360112610351576020906013549051908152f35b505034610351578160031936011261035157602090600c549051908152f35b503461032057602036600319011261032057803591610f576118c6565b6107d08311610f6857505060135580f35b906020606492519162461bcd60e51b8352820152601c60248201527f5374616b696e6720726577617264207261746520746f6f2068696768000000006044820152fd5b838234610351576020366003190112610351576104b7903533611c8e565b5034610320578260031936011261032057610fe26118c6565b6005549060ff821615611024575060ff1916600555513381527f5db9ee0a495bf2e6ff9c91a7834c1ba4fdd244a5e8aa4e537bd38aeae4b073aa90602090a180f35b606490602084519162461bcd60e51b8352820152601460248201527314185d5cd8589b194e881b9bdd081c185d5cd95960621b6044820152fd5b5050346103515780600319360112610351576107016020926110a76110816117ea565b338352600186528483206001600160a01b0382168452865291849020546024359061195b565b9033611af4565b50503461035157816003193601126103515760209061034a611f46565b505034610351578160031936011261035157602090600d549051908152f35b505034610351578160031936011261035157602090516b033b2e3c9fd0803ce80000008152f35b5050346103515781600319360112610351576020905160128152f35b505034610351578160031936011261035157602090516a52b7d2dcc80cd2e40000008152f35b505034610351576060366003190112610351576020906107016111746117ea565b61117c611805565b6044359161118b833383611bf6565b61197e565b838234610351576080366003190112610351576111ab6118c6565b35600a55602435600b55604435600c55606435600d5580f35b505034610351576020366003190112610351576111df6117ea565b6111e76118c6565b6001600160a01b03168252600f6020528120805460ff1916600117905580f35b505034610351573660031901126105b4576104b76112236117ea565b6024359061122f6118c6565b61124b6b033b2e3c9fd0803ce80000006107698460025461195b565b61228c565b50346103205760203660031901126103205761126a6117ea565b90338452600f60205261128260ff8486205416612227565b8251602968726566657272616c7360b81b91828152600e6009820152205491600c5480931061131a5750916080916112da6029600080516020612563833981519152958751908152600e60098201522091825461227f565b90556112e8600c548261228c565b6008600c54948051958652806020870152850152671c9959995c9c985b60c21b606085015260018060a01b031692a280f35b608490602086519162461bcd60e51b8352820152602160248201527f496e73756666696369656e7420726566657272616c2072657761726420706f6f6044820152601b60fa1b6064820152fd5b5050346103515781600319360112610351576020906002549051908152f35b5034610320576020366003190112610320576113a06117ea565b90338452600f6020526113b860ff8486205416612227565b825190602766736176696e677360c81b92838152600e6007820152205490600a548092106114435750916080916000805160206125638339815191529361140f60278751848152600e60078201522091825461227f565b905561141d600a548361228c565b6007600a54958051968752806020880152860152606085015260018060a01b031692a280f35b606490602086519162461bcd60e51b8352820152602060248201527f496e73756666696369656e7420736176696e67732072657761726420706f6f6c6044820152fd5b5034610320576020366003190112610320576114a06117ea565b90338452600f6020526114b860ff8486205416612227565b82516025646c6f616e7360d81b91828152600e6005820152205491600b5480931061155257509160809161150c6025600080516020612563833981519152958751908152600e60058201522091825461227f565b905561151a600b548261228c565b600e600b549480519586528060208701528501526d1b1bd85b97dc995c185e5b595b9d60921b606085015260018060a01b031692a280f35b606490602086519162461bcd60e51b8352820152601d60248201527f496e73756666696369656e74206c6f616e2072657761726420706f6f6c0000006044820152fd5b5050346103515780600319360112610351576020906107016115b56117ea565b6024359033611af4565b5034610320576020366003190112610320576115d96117ea565b90338452600f6020526115f160ff8486205416612227565b82516026656167656e747360d01b91828152600e6006820152205491600d5480931061168e5750916080916116466026600080516020612563833981519152958751908152600e60068201522091825461227f565b9055611654600d548261228c565b6010600d549480519586528060208701528501526f30b3b2b73a2fb1b7b6b6b4b9b9b4b7b760811b606085015260018060a01b031692a280f35b606490602086519162461bcd60e51b8352820152601e60248201527f496e73756666696369656e74206167656e742072657761726420706f6f6c00006044820152fd5b84908434610320578260031936011261032057826003546116f181611921565b8085529160019180831690811561177a575060011461171d575b505050610892826108a494038361184d565b9450600385527fc2575a0e9e593c00f959f8c92f12db2869c3395a3b0502d05e2516446f71f85b5b828610611762575050506108928260206108a4958201019461170b565b80546020878701810191909152909501948101611745565b6108a497508693506020925061089294915060ff191682840152151560051b8201019461170b565b60005b8381106117b55750506000910152565b81810151838201526020016117a5565b906020916117de815180928185528580860191016117a2565b601f01601f1916010190565b600435906001600160a01b038216820361180057565b600080fd5b602435906001600160a01b038216820361180057565b6040810190811067ffffffffffffffff82111761183757604052565b634e487b7160e01b600052604160045260246000fd5b90601f8019910116810190811067ffffffffffffffff82111761183757604052565b81601f820112156118005780359067ffffffffffffffff821161183757604051926118a4601f8401601f19166020018561184d565b8284526020838301011161180057816000926020809301838601378301015290565b60055460081c6001600160a01b031633036118dd57565b606460405162461bcd60e51b815260206004820152602060248201527f4f776e61626c653a2063616c6c6572206973206e6f7420746865206f776e65726044820152fd5b90600182811c92168015611951575b602083101461193b57565b634e487b7160e01b600052602260045260246000fd5b91607f1691611930565b9190820180921161196857565b634e487b7160e01b600052601160045260246000fd5b6001600160a01b03908116918215611aa15716918215611a50576119a0612383565b6000828152806020526040812054918083106119fc57604082827fddf252ad1be2c89b69c2b068fc378daa952ba7f163c4a11628f55a4df523b3ef958760209652828652038282205586815220818154019055604051908152a3565b60405162461bcd60e51b815260206004820152602660248201527f45524332303a207472616e7366657220616d6f756e7420657863656564732062604482015265616c616e636560d01b6064820152608490fd5b60405162461bcd60e51b815260206004820152602360248201527f45524332303a207472616e7366657220746f20746865207a65726f206164647260448201526265737360e81b6064820152608490fd5b60405162461bcd60e51b815260206004820152602560248201527f45524332303a207472616e736665722066726f6d20746865207a65726f206164604482015264647265737360d81b6064820152608490fd5b6001600160a01b03908116918215611ba55716918215611b555760207f8c5be1e5ebec7d5bd14f71427d1e84f3dd0314c0f7b2291e5b200ac8c7c3b925918360005260018252604060002085600052825280604060002055604051908152a3565b60405162461bcd60e51b815260206004820152602260248201527f45524332303a20617070726f766520746f20746865207a65726f206164647265604482015261737360f01b6064820152608490fd5b60405162461bcd60e51b8152602060048201526024808201527f45524332303a20617070726f76652066726f6d20746865207a65726f206164646044820152637265737360e01b6064820152608490fd5b9060018060a01b0380831660005260016020526040600020908216600052602052604060002054926000198403611c2e575b50505050565b808410611c4957611c40930391611af4565b38808080611c28565b60405162461bcd60e51b815260206004820152601d60248201527f45524332303a20696e73756666696369656e7420616c6c6f77616e63650000006044820152606490fd5b6001600160a01b03168015611d4e57611ca5612383565b600091818352826020526040832054818110611cfe57817fddf252ad1be2c89b69c2b068fc378daa952ba7f163c4a11628f55a4df523b3ef926020928587528684520360408620558060025403600255604051908152a3565b60405162461bcd60e51b815260206004820152602260248201527f45524332303a206275726e20616d6f756e7420657863656564732062616c616e604482015261636560f01b6064820152608490fd5b60405162461bcd60e51b815260206004820152602160248201527f45524332303a206275726e2066726f6d20746865207a65726f206164647265736044820152607360f81b6064820152608490fd5b6005811015611ea15780611dae5750565b60018103611dfb5760405162461bcd60e51b815260206004820152601860248201527f45434453413a20696e76616c6964207369676e617475726500000000000000006044820152606490fd5b60028103611e485760405162461bcd60e51b815260206004820152601f60248201527f45434453413a20696e76616c6964207369676e6174757265206c656e677468006044820152606490fd5b600314611e5157565b60405162461bcd60e51b815260206004820152602260248201527f45434453413a20696e76616c6964207369676e6174757265202773272076616c604482015261756560f01b6064820152608490fd5b634e487b7160e01b600052602160045260246000fd5b9291907f7fffffffffffffffffffffffffffffff5d576e7357a4501ddfe92f46681b20a08311611f3a5791608094939160ff602094604051948552168484015260408301526060820152600093849182805260015afa15611f2d5781516001600160a01b03811615611f27579190565b50600190565b50604051903d90823e3d90fd5b50505050600090600390565b307f00000000000000000000000000000000000000000000000000000000000000006001600160a01b03161480612048575b15611fa1577f000000000000000000000000000000000000000000000000000000000000000090565b60405160208101907f8b73c3c69bb8fe3d512ecc4cf759cc79239f7b179b0ffacaa9a75d522b39400f82527f000000000000000000000000000000000000000000000000000000000000000060408201527f000000000000000000000000000000000000000000000000000000000000000060608201524660808201523060a082015260a0815260c0810181811067ffffffffffffffff8211176118375760405251902090565b507f00000000000000000000000000000000000000000000000000000000000000004614611f78565b60ff81146120af5760ff811690601f821161209d57604051916120938361181b565b8252602082015290565b604051632cd44ac360e21b8152600490fd5b506040516006548160006120c283611921565b8083529260019081811690811561214b57506001146120ec575b506120e99250038261184d565b90565b6006600090815291507ff652222313e28459528d920b65115c16c04f3efc82aaedc97be59f3f377c0d3f5b84831061213057506120e99350508101602001386120dc565b81935090816020925483858901015201910190918492612117565b9050602092506120e994915060ff191682840152151560051b820101386120dc565b60ff811461218f5760ff811690601f821161209d57604051916120938361181b565b506040516007548160006121a283611921565b8083529260019081811690811561214b57506001146121c857506120e99250038261184d565b6007600090815291507fa66cc928b5edb82af9bd49922954155ab7b0942694bea4ce44661d9a8736c6885b84831061220c57506120e99350508101602001386120dc565b819350908160209254838589010152019101909184926121f3565b1561222e57565b60405162461bcd60e51b8152602060048201526024808201527f4e6f7420617574686f72697a656420746f2064697374726962757465207265776044820152636172647360e01b6064820152608490fd5b9190820391821161196857565b6001600160a01b03169081156122f2577fddf252ad1be2c89b69c2b068fc378daa952ba7f163c4a11628f55a4df523b3ef60206000926122ca612383565b6122d68160025461195b565b60025584845283825260408420818154019055604051908152a3565b60405162461bcd60e51b815260206004820152601f60248201527f45524332303a206d696e7420746f20746865207a65726f2061646472657373006044820152606490fd5b1561233e57565b60405162461bcd60e51b815260206004820152601d60248201527f416d6f756e74206d7573742062652067726561746572207468616e20300000006044820152606490fd5b60ff6005541661238f57565b60405162461bcd60e51b815260206004820152601060248201526f14185d5cd8589b194e881c185d5cd95960821b6044820152606490fd5b8181029291811591840414171561196857565b60003381526011602052604064496cebb8006124196123fc838520544261227f565b338552601060205261241484862054601354906123c7565b6123c7565b049182151580612496575b61242d57505050565b60278251667374616b696e6760c81b8152600e60078201522061245184825461227f565b905561245d833361228c565b33815260116020528142912055519081527f6dd401e61ba732582a5eba3d54ccc3afb3609cd3ac1a166d1d36f75fc0aedcda60203392a2565b5060278251667374616b696e6760c81b8152600e60078201522054831115612424565b6001600160a01b0316600081815260106020526040812054909190156125125761250e90612414604064496cebb8009460116020526124fb828220544261227f565b93815260106020522054601354906123c7565b0490565b5090565b1561251d57565b60405162461bcd60e51b815260206004820152601760248201527f576f756c6420657863656564206d617820737570706c790000000000000000006044820152606490fdfe49649141d16971a88c3cfdd73fec34babb1cf163cf8b804c8f537a023c6ce506a2646970667358221220626f1efb694b025a388da3a3029d3aea2b2a2af7b2efa96afb014fb279b3968064736f6c63430008130033","opcodes":"PUSH2 0x160 PUSH1 0x40 DUP2 DUP2 MSTORE CALLVALUE PUSH3 0x66F JUMPI PUSH3 0x18 DUP3 PUSH3 0x674 JUMP JUMPDEST PUSH1 0xD DUP3 MSTORE PUSH1 0x20 SWAP2 DUP3 DUP2 ADD SWAP2 PUSH13 0x2B34B63630B3B2902A37B5B2B7 PUSH1 0x99 SHL SWAP4 DUP5 DUP5 MSTORE DUP2 MLOAD SWAP5 PUSH3 0x46 DUP7 PUSH3 0x674 JUMP JUMPDEST PUSH1 0xD DUP7 MSTORE DUP2 DUP7 ADD MSTORE DUP2 MLOAD SWAP1 PUSH3 0x5C DUP3 PUSH3 0x674 JUMP JUMPDEST PUSH1 0x7 DUP3 MSTORE PUSH7 0x56494C4C414745 PUSH1 0xC8 SHL DUP2 DUP4 ADD MSTORE DUP3 MLOAD SWAP6 PUSH3 0x7D DUP8 PUSH3 0x674 JUMP JUMPDEST PUSH1 0x1 DUP1 DUP9 MSTORE PUSH1 0x31 PUSH1 0xF8 SHL DUP4 DUP10 ADD SWAP1 DUP2 MSTORE DUP3 MLOAD PUSH1 0x1 PUSH1 0x1 PUSH1 0x40 SHL SUB SWAP4 SWAP3 SWAP1 DUP5 DUP2 GT PUSH3 0x56F JUMPI PUSH1 0x3 SWAP1 DUP2 SLOAD SWAP5 DUP4 DUP7 DUP2 SHR SWAP7 AND DUP1 ISZERO PUSH3 0x664 JUMPI JUMPDEST DUP9 DUP8 LT EQ PUSH3 0x64E JUMPI DUP2 SWAP1 PUSH1 0x1F SWAP7 DUP8 DUP2 GT PUSH3 0x5F8 JUMPI JUMPDEST POP DUP9 SWAP1 DUP8 DUP4 GT PUSH1 0x1 EQ PUSH3 0x591 JUMPI PUSH1 0x0 SWAP3 PUSH3 0x585 JUMPI JUMPDEST POP POP PUSH1 0x0 NOT DUP3 DUP5 SHL SHR NOT AND SWAP1 DUP4 SHL OR DUP2 SSTORE JUMPDEST DUP7 MLOAD SWAP1 DUP6 DUP3 GT PUSH3 0x56F JUMPI PUSH1 0x4 SWAP8 DUP9 SLOAD DUP5 DUP2 DUP2 SHR SWAP2 AND DUP1 ISZERO PUSH3 0x564 JUMPI JUMPDEST DUP10 DUP3 LT EQ PUSH3 0x54F JUMPI DUP7 DUP2 GT PUSH3 0x504 JUMPI JUMPDEST POP DUP8 SWAP1 DUP7 DUP5 GT PUSH1 0x1 EQ PUSH3 0x499 JUMPI SWAP4 DUP4 SWAP5 SWAP2 DUP5 SWAP3 PUSH1 0x0 SWAP6 PUSH3 0x48D JUMPI JUMPDEST POP POP SHL SWAP3 PUSH1 0x0 NOT SWAP2 SHL SHR NOT AND OR DUP6 SSTORE JUMPDEST PUSH1 0x5 DUP1 SLOAD PUSH1 0x1 PUSH1 0x1 PUSH1 0xA8 SHL SUB NOT DUP2 AND CALLER PUSH1 0x8 DUP2 DUP2 SHL PUSH2 0x100 PUSH1 0x1 PUSH1 0xA8 SHL SUB AND SWAP3 SWAP1 SWAP3 OR SWAP1 SWAP4 SSTORE SHR PUSH1 0x1 PUSH1 0x1 PUSH1 0xA0 SHL SUB AND PUSH32 0x8BE0079C531659141344CD1FD0A4F28419497F9722A3DAAFE3B4186F6B6457E0 PUSH1 0x0 DUP1 LOG3 PUSH3 0x1B3 DUP8 PUSH3 0x690 JUMP JUMPDEST SWAP8 PUSH2 0x120 SWAP9 DUP10 MSTORE PUSH3 0x1C5 DUP11 PUSH3 0x857 JUMP JUMPDEST SWAP8 PUSH2 0x140 SWAP9 DUP10 MSTORE MLOAD SWAP1 KECCAK256 SWAP9 DUP10 PUSH1 0xE0 MSTORE MLOAD SWAP1 KECCAK256 SWAP1 PUSH2 0x100 SWAP9 DUP3 DUP11 MSTORE CHAINID PUSH1 0xA0 MSTORE DUP7 MLOAD SWAP3 DUP6 DUP5 ADD SWAP2 PUSH32 0x8B73C3C69BB8FE3D512ECC4CF759CC79239F7B179B0FFACAA9A75D522B39400F DUP4 MSTORE DUP9 DUP6 ADD MSTORE PUSH1 0x60 DUP5 ADD MSTORE CHAINID PUSH1 0x80 DUP5 ADD MSTORE ADDRESS PUSH1 0xA0 DUP5 ADD MSTORE PUSH1 0xA0 DUP4 MSTORE PUSH1 0xC0 DUP4 ADD SWAP4 DUP4 DUP6 LT SWAP1 DUP6 GT OR PUSH3 0x478 JUMPI DUP4 DUP8 MSTORE DUP3 MLOAD SWAP1 KECCAK256 PUSH1 0x80 MSTORE ADDRESS PUSH1 0xC0 MSTORE PUSH8 0x8AC7230489E80000 PUSH1 0xA SSTORE PUSH8 0x4563918244F40000 PUSH1 0xB SSTORE PUSH9 0x15AF1D78B58C40000 PUSH1 0xC SSTORE PUSH8 0x1BC16D674EC80000 PUSH1 0xD SSTORE PUSH1 0x64 PUSH1 0x13 SSTORE CALLER ISZERO PUSH3 0x438 JUMPI POP POP POP PUSH1 0xFF PUSH1 0x5 SLOAD AND PUSH3 0x405 JUMPI PUSH1 0x2 SLOAD PUSH11 0x52B7D2DCC80CD2E4000000 SWAP3 DUP4 DUP3 ADD DUP1 SWAP3 GT PUSH3 0x3F0 JUMPI POP PUSH1 0x0 SWAP2 PUSH32 0xDDF252AD1BE2C89B69C2B068FC378DAA952BA7F163C4A11628F55A4DF523B3EF SWAP2 PUSH1 0x2 SSTORE CALLER DUP4 MSTORE DUP3 DUP2 MSTORE DUP5 DUP4 KECCAK256 DUP5 DUP2 SLOAD ADD SWAP1 SSTORE DUP5 MLOAD SWAP4 DUP5 MSTORE CALLER SWAP4 LOG3 PUSH11 0x295BE96E64066972000000 PUSH1 0x27 DUP3 MLOAD PUSH7 0x736176696E6773 PUSH1 0xC8 SHL DUP2 MSTORE PUSH1 0xE PUSH1 0x7 DUP3 ADD MSTORE KECCAK256 SSTORE PUSH11 0x18D0BF423C03D8DE000000 PUSH1 0x25 DUP3 MLOAD PUSH5 0x6C6F616E73 PUSH1 0xD8 SHL DUP2 MSTORE PUSH1 0xE PUSH1 0x5 DUP3 ADD MSTORE KECCAK256 SSTORE PUSH11 0xC685FA11E01EC6F000000 PUSH1 0x29 DUP3 MLOAD PUSH9 0x726566657272616C73 PUSH1 0xB8 SHL DUP2 MSTORE PUSH1 0xE PUSH1 0x9 DUP3 ADD MSTORE KECCAK256 SSTORE PUSH11 0x108B2A2C28029094000000 PUSH1 0x26 DUP3 MLOAD PUSH6 0x6167656E7473 PUSH1 0xD0 SHL DUP2 MSTORE PUSH1 0xE PUSH1 0x6 DUP3 ADD MSTORE KECCAK256 SSTORE PUSH11 0x84595161401484A000000 PUSH1 0x27 DUP3 MLOAD PUSH7 0x7374616B696E67 PUSH1 0xC8 SHL DUP2 MSTORE PUSH1 0xE PUSH1 0x7 DUP3 ADD MSTORE KECCAK256 SSTORE MLOAD SWAP2 PUSH2 0x25B8 SWAP4 DUP5 PUSH3 0xA10 DUP6 CODECOPY PUSH1 0x80 MLOAD DUP5 PUSH2 0x1F7F ADD MSTORE PUSH1 0xA0 MLOAD DUP5 PUSH2 0x204B ADD MSTORE PUSH1 0xC0 MLOAD DUP5 PUSH2 0x1F49 ADD MSTORE PUSH1 0xE0 MLOAD DUP5 PUSH2 0x1FCE ADD MSTORE MLOAD DUP4 PUSH2 0x1FF4 ADD MSTORE MLOAD DUP3 PUSH2 0x9AB ADD MSTORE MLOAD DUP2 PUSH2 0x9D5 ADD MSTORE RETURN JUMPDEST PUSH1 0x11 SWAP1 PUSH4 0x4E487B71 PUSH1 0xE0 SHL PUSH1 0x0 MSTORE MSTORE PUSH1 0x24 PUSH1 0x0 REVERT JUMPDEST PUSH1 0x64 SWAP3 MLOAD SWAP2 PUSH3 0x461BCD PUSH1 0xE5 SHL DUP4 MSTORE DUP3 ADD MSTORE PUSH1 0x10 PUSH1 0x24 DUP3 ADD MSTORE PUSH16 0x14185D5CD8589B194E881C185D5CD959 PUSH1 0x82 SHL PUSH1 0x44 DUP3 ADD MSTORE REVERT JUMPDEST PUSH32 0x45524332303A206D696E7420746F20746865207A65726F206164647265737300 SWAP2 PUSH2 0x104 SWAP2 PUSH1 0x64 SWAP6 PUSH3 0x461BCD PUSH1 0xE5 SHL DUP7 MSTORE PUSH1 0xC4 DUP4 ADD MSTORE PUSH1 0xE4 DUP3 ADD MSTORE ADD MSTORE REVERT JUMPDEST PUSH1 0x41 DUP7 PUSH4 0x4E487B71 PUSH1 0xE0 SHL PUSH1 0x0 MSTORE MSTORE PUSH1 0x24 PUSH1 0x0 REVERT JUMPDEST ADD MLOAD SWAP4 POP CODESIZE DUP1 PUSH3 0x143 JUMP JUMPDEST SWAP2 SWAP1 PUSH1 0x1F NOT DUP5 AND SWAP3 DUP11 PUSH1 0x0 MSTORE DUP5 DUP11 PUSH1 0x0 KECCAK256 SWAP5 PUSH1 0x0 JUMPDEST DUP13 DUP10 DUP4 DUP4 LT PUSH3 0x4EC JUMPI POP POP POP LT PUSH3 0x4D1 JUMPI JUMPDEST POP POP POP POP DUP2 SHL ADD DUP6 SSTORE PUSH3 0x153 JUMP JUMPDEST ADD MLOAD SWAP1 PUSH1 0xF8 DUP5 PUSH1 0x0 NOT SWAP3 SHL AND SHR NOT AND SWAP1 SSTORE CODESIZE DUP1 DUP1 DUP1 PUSH3 0x4C2 JUMP JUMPDEST DUP7 DUP7 ADD MLOAD DUP10 SSTORE SWAP1 SWAP8 ADD SWAP7 SWAP5 DUP6 ADD SWAP5 DUP9 SWAP4 POP ADD PUSH3 0x4AE JUMP JUMPDEST DUP10 PUSH1 0x0 MSTORE DUP9 PUSH1 0x0 KECCAK256 DUP8 DUP1 DUP7 ADD PUSH1 0x5 SHR DUP3 ADD SWAP3 DUP12 DUP8 LT PUSH3 0x545 JUMPI JUMPDEST ADD PUSH1 0x5 SHR ADD SWAP1 DUP6 SWAP1 JUMPDEST DUP3 DUP2 LT PUSH3 0x538 JUMPI POP POP PUSH3 0x126 JUMP JUMPDEST PUSH1 0x0 DUP2 SSTORE ADD DUP6 SWAP1 PUSH3 0x528 JUMP JUMPDEST SWAP3 POP DUP2 SWAP3 PUSH3 0x51F JUMP JUMPDEST PUSH1 0x22 DUP11 PUSH4 0x4E487B71 PUSH1 0xE0 SHL PUSH1 0x0 MSTORE MSTORE PUSH1 0x24 PUSH1 0x0 REVERT JUMPDEST SWAP1 PUSH1 0x7F AND SWAP1 PUSH3 0x114 JUMP JUMPDEST PUSH4 0x4E487B71 PUSH1 0xE0 SHL PUSH1 0x0 MSTORE PUSH1 0x41 PUSH1 0x4 MSTORE PUSH1 0x24 PUSH1 0x0 REVERT JUMPDEST ADD MLOAD SWAP1 POP CODESIZE DUP1 PUSH3 0xE4 JUMP JUMPDEST SWAP1 DUP6 SWAP4 POP PUSH1 0x1F NOT DUP4 AND SWAP2 DUP6 PUSH1 0x0 MSTORE DUP11 PUSH1 0x0 KECCAK256 SWAP3 PUSH1 0x0 JUMPDEST DUP13 DUP3 DUP3 LT PUSH3 0x5E1 JUMPI POP POP DUP5 GT PUSH3 0x5C8 JUMPI JUMPDEST POP POP POP DUP2 SHL ADD DUP2 SSTORE PUSH3 0xF6 JUMP JUMPDEST ADD MLOAD PUSH1 0x0 NOT DUP4 DUP7 SHL PUSH1 0xF8 AND SHR NOT AND SWAP1 SSTORE CODESIZE DUP1 DUP1 PUSH3 0x5BA JUMP JUMPDEST DUP4 DUP6 ADD MLOAD DUP7 SSTORE DUP10 SWAP8 SWAP1 SWAP6 ADD SWAP5 SWAP4 DUP5 ADD SWAP4 ADD PUSH3 0x5A7 JUMP JUMPDEST SWAP1 SWAP2 POP DUP4 PUSH1 0x0 MSTORE DUP9 PUSH1 0x0 KECCAK256 DUP8 DUP1 DUP6 ADD PUSH1 0x5 SHR DUP3 ADD SWAP3 DUP12 DUP7 LT PUSH3 0x644 JUMPI JUMPDEST SWAP2 DUP8 SWAP2 DUP7 SWAP6 SWAP5 SWAP4 ADD PUSH1 0x5 SHR ADD SWAP2 JUMPDEST DUP3 DUP2 LT PUSH3 0x634 JUMPI POP POP PUSH3 0xCD JUMP JUMPDEST PUSH1 0x0 DUP2 SSTORE DUP6 SWAP5 POP DUP8 SWAP2 ADD PUSH3 0x624 JUMP JUMPDEST SWAP3 POP DUP2 SWAP3 PUSH3 0x616 JUMP JUMPDEST PUSH4 0x4E487B71 PUSH1 0xE0 SHL PUSH1 0x0 MSTORE PUSH1 0x22 PUSH1 0x4 MSTORE PUSH1 0x24 PUSH1 0x0 REVERT JUMPDEST SWAP6 PUSH1 0x7F AND SWAP6 PUSH3 0xB6 JUMP JUMPDEST PUSH1 0x0 DUP1 REVERT JUMPDEST PUSH1 0x40 DUP2 ADD SWAP1 DUP2 LT PUSH1 0x1 PUSH1 0x1 PUSH1 0x40 SHL SUB DUP3 GT OR PUSH3 0x56F JUMPI PUSH1 0x40 MSTORE JUMP JUMPDEST DUP1 MLOAD PUSH1 0x20 SWAP1 DUP2 DUP2 LT ISZERO PUSH3 0x72D JUMPI POP PUSH1 0x1F DUP3 MLOAD GT PUSH3 0x6CC JUMPI DUP1 DUP3 MLOAD SWAP3 ADD MLOAD SWAP1 DUP1 DUP4 LT PUSH3 0x6BD JUMPI POP OR SWAP1 JUMP JUMPDEST DUP3 PUSH1 0x0 NOT SWAP2 SUB PUSH1 0x3 SHL SHL AND OR SWAP1 JUMP JUMPDEST SWAP1 PUSH1 0x40 MLOAD DUP1 SWAP3 PUSH4 0x305A27A9 PUSH1 0xE0 SHL DUP3 MSTORE DUP1 PUSH1 0x4 DUP4 ADD MSTORE DUP3 MLOAD SWAP1 DUP2 PUSH1 0x24 DUP5 ADD MSTORE PUSH1 0x0 SWAP4 JUMPDEST DUP3 DUP6 LT PUSH3 0x713 JUMPI POP POP PUSH1 0x44 SWAP3 POP PUSH1 0x0 DUP4 DUP3 DUP5 ADD ADD MSTORE PUSH1 0x1F DUP1 NOT SWAP2 ADD AND DUP2 ADD SUB ADD SWAP1 REVERT JUMPDEST DUP5 DUP2 ADD DUP3 ADD MLOAD DUP7 DUP7 ADD PUSH1 0x44 ADD MSTORE SWAP4 DUP2 ADD SWAP4 DUP6 SWAP4 POP PUSH3 0x6EF JUMP JUMPDEST SWAP1 PUSH1 0x1 PUSH1 0x1 PUSH1 0x40 SHL SUB DUP3 GT PUSH3 0x56F JUMPI PUSH1 0x6 SLOAD SWAP3 PUSH1 0x1 SWAP4 DUP5 DUP2 DUP2 SHR SWAP2 AND DUP1 ISZERO PUSH3 0x84C JUMPI JUMPDEST DUP4 DUP3 LT EQ PUSH3 0x64E JUMPI PUSH1 0x1F DUP2 GT PUSH3 0x812 JUMPI JUMPDEST POP DUP2 PUSH1 0x1F DUP5 GT PUSH1 0x1 EQ PUSH3 0x7A6 JUMPI POP SWAP3 DUP3 SWAP4 SWAP2 DUP4 SWAP3 PUSH1 0x0 SWAP5 PUSH3 0x79A JUMPI JUMPDEST POP POP SHL SWAP2 PUSH1 0x0 NOT SWAP1 PUSH1 0x3 SHL SHR NOT AND OR PUSH1 0x6 SSTORE PUSH1 0xFF SWAP1 JUMP JUMPDEST ADD MLOAD SWAP3 POP CODESIZE DUP1 PUSH3 0x783 JUMP JUMPDEST SWAP2 SWAP1 DUP4 PUSH1 0x1F NOT DUP2 AND PUSH1 0x6 PUSH1 0x0 MSTORE DUP5 PUSH1 0x0 KECCAK256 SWAP5 PUSH1 0x0 SWAP1 JUMPDEST DUP9 DUP4 DUP4 LT PUSH3 0x7F7 JUMPI POP POP POP LT PUSH3 0x7DD JUMPI JUMPDEST POP POP POP DUP2 SHL ADD PUSH1 0x6 SSTORE PUSH1 0xFF SWAP1 JUMP JUMPDEST ADD MLOAD PUSH1 0x0 NOT PUSH1 0xF8 DUP5 PUSH1 0x3 SHL AND SHR NOT AND SWAP1 SSTORE CODESIZE DUP1 DUP1 PUSH3 0x7CF JUMP JUMPDEST DUP6 DUP8 ADD MLOAD DUP9 SSTORE SWAP1 SWAP7 ADD SWAP6 SWAP5 DUP6 ADD SWAP5 DUP8 SWAP4 POP SWAP1 DUP2 ADD SWAP1 PUSH3 0x7BC JUMP JUMPDEST PUSH1 0x6 PUSH1 0x0 MSTORE DUP5 PUSH1 0x1F DUP5 PUSH1 0x0 KECCAK256 SWAP3 ADD PUSH1 0x5 SHR DUP3 ADD SWAP2 PUSH1 0x1F DUP7 ADD PUSH1 0x5 SHR ADD JUMPDEST DUP3 DUP2 LT PUSH3 0x83F JUMPI POP POP PUSH3 0x765 JUMP JUMPDEST PUSH1 0x0 DUP2 SSTORE ADD DUP6 SWAP1 PUSH3 0x82F JUMP JUMPDEST SWAP1 PUSH1 0x7F AND SWAP1 PUSH3 0x752 JUMP JUMPDEST DUP1 MLOAD PUSH1 0x20 SWAP1 DUP2 DUP2 LT ISZERO PUSH3 0x8E5 JUMPI POP PUSH1 0x1F DUP3 MLOAD GT PUSH3 0x884 JUMPI DUP1 DUP3 MLOAD SWAP3 ADD MLOAD SWAP1 DUP1 DUP4 LT PUSH3 0x6BD JUMPI POP OR SWAP1 JUMP JUMPDEST SWAP1 PUSH1 0x40 MLOAD DUP1 SWAP3 PUSH4 0x305A27A9 PUSH1 0xE0 SHL DUP3 MSTORE DUP1 PUSH1 0x4 DUP4 ADD MSTORE DUP3 MLOAD SWAP1 DUP2 PUSH1 0x24 DUP5 ADD MSTORE PUSH1 0x0 SWAP4 JUMPDEST DUP3 DUP6 LT PUSH3 0x8CB JUMPI POP POP PUSH1 0x44 SWAP3 POP PUSH1 0x0 DUP4 DUP3 DUP5 ADD ADD MSTORE PUSH1 0x1F DUP1 NOT SWAP2 ADD AND DUP2 ADD SUB ADD SWAP1 REVERT JUMPDEST DUP5 DUP2 ADD DUP3 ADD MLOAD DUP7 DUP7 ADD PUSH1 0x44 ADD MSTORE SWAP4 DUP2 ADD SWAP4 DUP6 SWAP4 POP PUSH3 0x8A7 JUMP JUMPDEST SWAP1 PUSH1 0x1 PUSH1 0x1 PUSH1 0x40 SHL SUB DUP3 GT PUSH3 0x56F JUMPI PUSH1 0x7 SLOAD SWAP3 PUSH1 0x1 SWAP4 DUP5 DUP2 DUP2 SHR SWAP2 AND DUP1 ISZERO PUSH3 0xA04 JUMPI JUMPDEST DUP4 DUP3 LT EQ PUSH3 0x64E JUMPI PUSH1 0x1F DUP2 GT PUSH3 0x9CA JUMPI JUMPDEST POP DUP2 PUSH1 0x1F DUP5 GT PUSH1 0x1 EQ PUSH3 0x95E JUMPI POP SWAP3 DUP3 SWAP4 SWAP2 DUP4 SWAP3 PUSH1 0x0 SWAP5 PUSH3 0x952 JUMPI JUMPDEST POP POP SHL SWAP2 PUSH1 0x0 NOT SWAP1 PUSH1 0x3 SHL SHR NOT AND OR PUSH1 0x7 SSTORE PUSH1 0xFF SWAP1 JUMP JUMPDEST ADD MLOAD SWAP3 POP CODESIZE DUP1 PUSH3 0x93B JUMP JUMPDEST SWAP2 SWAP1 DUP4 PUSH1 0x1F NOT DUP2 AND PUSH1 0x7 PUSH1 0x0 MSTORE DUP5 PUSH1 0x0 KECCAK256 SWAP5 PUSH1 0x0 SWAP1 JUMPDEST DUP9 DUP4 DUP4 LT PUSH3 0x9AF JUMPI POP POP POP LT PUSH3 0x995 JUMPI JUMPDEST POP POP POP DUP2 SHL ADD PUSH1 0x7 SSTORE PUSH1 0xFF SWAP1 JUMP JUMPDEST ADD MLOAD PUSH1 0x0 NOT PUSH1 0xF8 DUP5 PUSH1 0x3 SHL AND SHR NOT AND SWAP1 SSTORE CODESIZE DUP1 DUP1 PUSH3 0x987 JUMP JUMPDEST DUP6 DUP8 ADD MLOAD DUP9 SSTORE SWAP1 SWAP7 ADD SWAP6 SWAP5 DUP6 ADD SWAP5 DUP8 SWAP4 POP SWAP1 DUP2 ADD SWAP1 PUSH3 0x974 JUMP JUMPDEST PUSH1 0x7 PUSH1 0x0 MSTORE DUP5 PUSH1 0x1F DUP5 PUSH1 0x0 KECCAK256 SWAP3 ADD PUSH1 0x5 SHR DUP3 ADD SWAP2 PUSH1 0x1F DUP7 ADD PUSH1 0x5 SHR ADD JUMPDEST DUP3 DUP2 LT PUSH3 0x9F7 JUMPI POP POP PUSH3 0x91D JUMP JUMPDEST PUSH1 0x0 DUP2 SSTORE ADD DUP6 SWAP1 PUSH3 0x9E7 JUMP JUMPDEST SWAP1 PUSH1 0x7F AND SWAP1 PUSH3 0x90A JUMP INVALID PUSH1 0x80 PUSH1 0x40 DUP2 DUP2 MSTORE PUSH1 0x4 DUP1 CALLDATASIZE LT ISZERO PUSH2 0x15 JUMPI PUSH1 0x0 DUP1 REVERT JUMPDEST PUSH1 0x0 SWAP3 DUP4 CALLDATALOAD PUSH1 0xE0 SHR SWAP1 DUP2 PUSH4 0x6FDDE03 EQ PUSH2 0x16D1 JUMPI POP DUP1 PUSH4 0x72D11E9 EQ PUSH2 0x15BF JUMPI DUP1 PUSH4 0x95EA7B3 EQ PUSH2 0x1595 JUMPI DUP1 PUSH4 0xBD9EC2C EQ PUSH2 0x1486 JUMPI DUP1 PUSH4 0x1374A524 EQ PUSH2 0x1386 JUMPI DUP1 PUSH4 0x18160DDD EQ PUSH2 0x1367 JUMPI DUP1 PUSH4 0x19901368 EQ PUSH2 0x1250 JUMPI DUP1 PUSH4 0x19E6AF1C EQ PUSH2 0x1207 JUMPI DUP1 PUSH4 0x1C96E950 EQ PUSH2 0x11C4 JUMPI DUP1 PUSH4 0x1DD5109E EQ PUSH2 0x1190 JUMPI DUP1 PUSH4 0x23B872DD EQ PUSH2 0x1153 JUMPI DUP1 PUSH4 0x2FF2E9DC EQ PUSH2 0x112D JUMPI DUP1 PUSH4 0x313CE567 EQ PUSH2 0x1111 JUMPI DUP1 PUSH4 0x32CB6B0C EQ PUSH2 0x10EA JUMPI DUP1 PUSH4 0x33290145 EQ PUSH2 0x10CB JUMPI DUP1 PUSH4 0x3644E515 EQ PUSH2 0x10AE JUMPI DUP1 PUSH4 0x39509351 EQ PUSH2 0x105E JUMPI DUP1 PUSH4 0x3F4BA83A EQ PUSH2 0xFC9 JUMPI DUP1 PUSH4 0x42966C68 EQ PUSH2 0xFAB JUMPI DUP1 PUSH4 0x456AAA3F EQ PUSH2 0xF3A JUMPI DUP1 PUSH4 0x4D683674 EQ PUSH2 0xF1B JUMPI DUP1 PUSH4 0x4F3FC2DF EQ PUSH2 0xEFC JUMPI DUP1 PUSH4 0x5C975ABB EQ PUSH2 0xED8 JUMPI DUP1 PUSH4 0x60217267 EQ PUSH2 0x5F7 JUMPI DUP1 PUSH4 0x608E4DD0 EQ PUSH2 0xD64 JUMPI DUP1 PUSH4 0x6982A77F EQ PUSH2 0xD45 JUMPI DUP1 PUSH4 0x70A08231 EQ PUSH2 0xD0E JUMPI DUP1 PUSH4 0x715018A6 EQ PUSH2 0xCAD JUMPI DUP1 PUSH4 0x7547C7A3 EQ PUSH2 0xBB2 JUMPI DUP1 PUSH4 0x79CC6790 EQ PUSH2 0xB82 JUMPI DUP1 PUSH4 0x7A40ECF1 EQ PUSH2 0xB63 JUMPI DUP1 PUSH4 0x7ECEBE00 EQ PUSH2 0xB2B JUMPI DUP1 PUSH4 0x817B1CD2 EQ PUSH2 0xB0C JUMPI DUP1 PUSH4 0x8456CB59 EQ PUSH2 0xAB1 JUMPI DUP1 PUSH4 0x84B0196E EQ PUSH2 0x994 JUMPI DUP1 PUSH4 0x8DA5CB5B EQ PUSH2 0x967 JUMPI DUP1 PUSH4 0x8F0794FE EQ PUSH2 0x92F JUMPI DUP1 PUSH4 0x95D89B41 EQ PUSH2 0x845 JUMPI DUP1 PUSH4 0xA457C2D7 EQ PUSH2 0x7A1 JUMPI DUP1 PUSH4 0xA4D1DECA EQ PUSH2 0x708 JUMPI DUP1 PUSH4 0xA9059CBB EQ PUSH2 0x6D7 JUMPI DUP1 PUSH4 0xA9C12F0C EQ PUSH2 0x699 JUMPI DUP1 PUSH4 0xAFC695CE EQ PUSH2 0x62F JUMPI DUP1 PUSH4 0xBB4D4436 EQ PUSH2 0x5F7 JUMPI DUP1 PUSH4 0xBB6D890F EQ PUSH2 0x5B7 JUMPI DUP1 PUSH4 0xC49F4797 EQ PUSH2 0x557 JUMPI DUP1 PUSH4 0xD505ACCF EQ PUSH2 0x39E JUMPI DUP1 PUSH4 0xDD62ED3E EQ PUSH2 0x355 JUMPI DUP1 PUSH4 0xEF59DA63 EQ PUSH2 0x324 JUMPI PUSH4 0xF2FDE38B EQ PUSH2 0x249 JUMPI PUSH1 0x0 DUP1 REVERT JUMPDEST CALLVALUE PUSH2 0x320 JUMPI PUSH1 0x20 CALLDATASIZE PUSH1 0x3 NOT ADD SLT PUSH2 0x320 JUMPI PUSH2 0x262 PUSH2 0x17EA JUMP JUMPDEST PUSH2 0x26A PUSH2 0x18C6 JUMP JUMPDEST PUSH1 0x1 PUSH1 0x1 PUSH1 0xA0 SHL SUB DUP2 DUP2 AND SWAP4 SWAP1 SWAP3 SWAP1 DUP5 ISZERO PUSH2 0x2CE JUMPI POP POP PUSH1 0x5 DUP1 SLOAD PUSH2 0x100 PUSH1 0x1 PUSH1 0xA8 SHL SUB NOT DUP2 AND PUSH1 0x8 SWAP4 DUP5 SHL PUSH2 0x100 PUSH1 0x1 PUSH1 0xA8 SHL SUB AND OR SWAP1 SWAP2 SSTORE SWAP1 SHR AND PUSH32 0x8BE0079C531659141344CD1FD0A4F28419497F9722A3DAAFE3B4186F6B6457E0 DUP4 DUP1 LOG3 DUP1 RETURN JUMPDEST SWAP1 PUSH1 0x20 PUSH1 0x84 SWAP3 MLOAD SWAP2 PUSH3 0x461BCD PUSH1 0xE5 SHL DUP4 MSTORE DUP3 ADD MSTORE PUSH1 0x26 PUSH1 0x24 DUP3 ADD MSTORE PUSH32 0x4F776E61626C653A206E6577206F776E657220697320746865207A65726F2061 PUSH1 0x44 DUP3 ADD MSTORE PUSH6 0x646472657373 PUSH1 0xD0 SHL PUSH1 0x64 DUP3 ADD MSTORE REVERT JUMPDEST DUP3 DUP1 REVERT JUMPDEST POP POP CALLVALUE PUSH2 0x351 JUMPI PUSH1 0x20 CALLDATASIZE PUSH1 0x3 NOT ADD SLT PUSH2 0x351 JUMPI PUSH1 0x20 SWAP1 PUSH2 0x34A PUSH2 0x345 PUSH2 0x17EA JUMP JUMPDEST PUSH2 0x24B9 JUMP JUMPDEST SWAP1 MLOAD SWAP1 DUP2 MSTORE RETURN JUMPDEST POP DUP1 REVERT JUMPDEST POP POP CALLVALUE PUSH2 0x351 JUMPI DUP1 PUSH1 0x3 NOT CALLDATASIZE ADD SLT PUSH2 0x351 JUMPI DUP1 PUSH1 0x20 SWAP3 PUSH2 0x373 PUSH2 0x17EA JUMP JUMPDEST PUSH2 0x37B PUSH2 0x1805 JUMP JUMPDEST PUSH1 0x1 PUSH1 0x1 PUSH1 0xA0 SHL SUB SWAP2 DUP3 AND DUP4 MSTORE PUSH1 0x1 DUP7 MSTORE DUP4 DUP4 KECCAK256 SWAP2 AND DUP3 MSTORE DUP5 MSTORE KECCAK256 SLOAD SWAP1 MLOAD SWAP1 DUP2 MSTORE RETURN JUMPDEST POP DUP3 SWAP1 CALLVALUE PUSH2 0x351 JUMPI PUSH1 0xE0 CALLDATASIZE PUSH1 0x3 NOT ADD SLT PUSH2 0x351 JUMPI PUSH2 0x3BA PUSH2 0x17EA JUMP JUMPDEST PUSH2 0x3C2 PUSH2 0x1805 JUMP JUMPDEST SWAP1 PUSH1 0x44 CALLDATALOAD SWAP3 PUSH1 0x64 CALLDATALOAD PUSH1 0x84 CALLDATALOAD PUSH1 0xFF DUP2 AND DUP2 SUB PUSH2 0x553 JUMPI DUP2 TIMESTAMP GT PUSH2 0x510 JUMPI PUSH1 0x1 DUP1 PUSH1 0xA0 SHL SUB SWAP1 DUP2 DUP6 AND SWAP3 DUP4 DUP10 MSTORE PUSH1 0x8 PUSH1 0x20 MSTORE DUP10 DUP10 KECCAK256 SWAP1 DUP2 SLOAD SWAP2 PUSH1 0x1 DUP4 ADD SWAP1 SSTORE DUP11 MLOAD SWAP1 PUSH1 0x20 DUP3 ADD SWAP3 PUSH32 0x6E71EDAE12B1B97F4D1F60370FEF10105FA2FAAE0126114A169C64845D6126C9 DUP5 MSTORE DUP7 DUP14 DUP5 ADD MSTORE DUP6 DUP11 AND PUSH1 0x60 DUP5 ADD MSTORE DUP11 PUSH1 0x80 DUP5 ADD MSTORE PUSH1 0xA0 DUP4 ADD MSTORE PUSH1 0xC0 DUP3 ADD MSTORE PUSH1 0xC0 DUP2 MSTORE PUSH1 0xE0 DUP2 ADD DUP2 DUP2 LT PUSH8 0xFFFFFFFFFFFFFFFF DUP3 GT OR PUSH2 0x4FD JUMPI DUP12 MSTORE MLOAD SWAP1 KECCAK256 PUSH2 0x4A5 SWAP2 PUSH2 0x49D SWAP2 PUSH2 0x477 PUSH2 0x1F46 JUMP JUMPDEST SWAP1 DUP13 MLOAD SWAP2 PUSH2 0x1901 PUSH1 0xF0 SHL DUP4 MSTORE PUSH1 0x2 DUP4 ADD MSTORE PUSH1 0x22 DUP3 ADD MSTORE PUSH1 0xC4 CALLDATALOAD SWAP2 PUSH1 0x42 PUSH1 0xA4 CALLDATALOAD SWAP3 KECCAK256 PUSH2 0x1EB7 JUMP JUMPDEST SWAP2 SWAP1 SWAP2 PUSH2 0x1D9D JUMP JUMPDEST AND SUB PUSH2 0x4BA JUMPI POP PUSH2 0x4B7 SWAP4 SWAP5 POP PUSH2 0x1AF4 JUMP JUMPDEST DUP1 RETURN JUMPDEST PUSH1 0x64 SWAP1 PUSH1 0x20 DUP8 MLOAD SWAP2 PUSH3 0x461BCD PUSH1 0xE5 SHL DUP4 MSTORE DUP3 ADD MSTORE PUSH1 0x1E PUSH1 0x24 DUP3 ADD MSTORE PUSH32 0x45524332305065726D69743A20696E76616C6964207369676E61747572650000 PUSH1 0x44 DUP3 ADD MSTORE REVERT JUMPDEST PUSH4 0x4E487B71 PUSH1 0xE0 SHL DUP12 MSTORE PUSH1 0x41 DUP8 MSTORE PUSH1 0x24 DUP12 REVERT JUMPDEST DUP8 MLOAD PUSH3 0x461BCD PUSH1 0xE5 SHL DUP2 MSTORE PUSH1 0x20 DUP2 DUP6 ADD MSTORE PUSH1 0x1D PUSH1 0x24 DUP3 ADD MSTORE PUSH32 0x45524332305065726D69743A206578706972656420646561646C696E65000000 PUSH1 0x44 DUP3 ADD MSTORE PUSH1 0x64 SWAP1 REVERT JUMPDEST DUP7 DUP1 REVERT JUMPDEST POP SWAP2 CALLVALUE PUSH2 0x5B4 JUMPI PUSH1 0x20 CALLDATASIZE PUSH1 0x3 NOT ADD SLT PUSH2 0x5B4 JUMPI DUP3 CALLDATALOAD SWAP1 PUSH8 0xFFFFFFFFFFFFFFFF DUP3 GT PUSH2 0x5B4 JUMPI POP PUSH1 0x20 PUSH2 0x590 DUP2 SWAP5 PUSH2 0x5A2 SWAP4 CALLDATASIZE SWAP2 ADD PUSH2 0x186F JUMP JUMPDEST DUP2 DUP5 MLOAD SWAP4 DUP3 DUP6 DUP1 SWAP5 MLOAD SWAP4 DUP5 SWAP3 ADD PUSH2 0x17A2 JUMP JUMPDEST DUP2 ADD PUSH1 0xE DUP2 MSTORE SUB ADD SWAP1 KECCAK256 SLOAD SWAP1 MLOAD SWAP1 DUP2 MSTORE RETURN JUMPDEST DUP1 REVERT JUMPDEST POP POP CALLVALUE PUSH2 0x351 JUMPI PUSH1 0x20 CALLDATASIZE PUSH1 0x3 NOT ADD SLT PUSH2 0x351 JUMPI PUSH2 0x5D2 PUSH2 0x17EA JUMP JUMPDEST PUSH2 0x5DA PUSH2 0x18C6 JUMP JUMPDEST PUSH1 0x1 PUSH1 0x1 PUSH1 0xA0 SHL SUB AND DUP3 MSTORE PUSH1 0xF PUSH1 0x20 MSTORE DUP2 KECCAK256 DUP1 SLOAD PUSH1 0xFF NOT AND SWAP1 SSTORE DUP1 RETURN JUMPDEST POP POP CALLVALUE PUSH2 0x351 JUMPI PUSH1 0x20 CALLDATASIZE PUSH1 0x3 NOT ADD SLT PUSH2 0x351 JUMPI PUSH1 0x20 SWAP2 DUP2 SWAP1 PUSH1 0x1 PUSH1 0x1 PUSH1 0xA0 SHL SUB PUSH2 0x61F PUSH2 0x17EA JUMP JUMPDEST AND DUP2 MSTORE PUSH1 0x10 DUP5 MSTORE KECCAK256 SLOAD SWAP1 MLOAD SWAP1 DUP2 MSTORE RETURN JUMPDEST POP SWAP1 CALLVALUE PUSH2 0x320 JUMPI DUP3 PUSH1 0x3 NOT CALLDATASIZE ADD SLT PUSH2 0x320 JUMPI PUSH2 0x649 PUSH2 0x2383 JUMP JUMPDEST CALLER DUP4 MSTORE PUSH1 0x10 PUSH1 0x20 MSTORE DUP1 DUP4 KECCAK256 SLOAD ISZERO PUSH2 0x663 JUMPI DUP3 PUSH2 0x4B7 PUSH2 0x23DA JUMP JUMPDEST SWAP1 PUSH1 0x20 PUSH1 0x64 SWAP3 MLOAD SWAP2 PUSH3 0x461BCD PUSH1 0xE5 SHL DUP4 MSTORE DUP3 ADD MSTORE PUSH1 0x10 PUSH1 0x24 DUP3 ADD MSTORE PUSH16 0x139BC81D1BDAD95B9CC81CDD185AD959 PUSH1 0x82 SHL PUSH1 0x44 DUP3 ADD MSTORE REVERT JUMPDEST POP POP CALLVALUE PUSH2 0x351 JUMPI PUSH1 0x20 CALLDATASIZE PUSH1 0x3 NOT ADD SLT PUSH2 0x351 JUMPI PUSH1 0x20 SWAP2 PUSH1 0xFF SWAP1 DUP3 SWAP1 PUSH1 0x1 PUSH1 0x1 PUSH1 0xA0 SHL SUB PUSH2 0x6C4 PUSH2 0x17EA JUMP JUMPDEST AND DUP2 MSTORE PUSH1 0xF DUP6 MSTORE KECCAK256 SLOAD AND SWAP1 MLOAD SWAP1 ISZERO ISZERO DUP2 MSTORE RETURN JUMPDEST POP POP CALLVALUE PUSH2 0x351 JUMPI DUP1 PUSH1 0x3 NOT CALLDATASIZE ADD SLT PUSH2 0x351 JUMPI PUSH1 0x20 SWAP1 PUSH2 0x701 PUSH2 0x6F7 PUSH2 0x17EA JUMP JUMPDEST PUSH1 0x24 CALLDATALOAD SWAP1 CALLER PUSH2 0x197E JUMP JUMPDEST MLOAD PUSH1 0x1 DUP2 MSTORE RETURN JUMPDEST POP SWAP1 CALLVALUE PUSH2 0x320 JUMPI DUP1 PUSH1 0x3 NOT CALLDATASIZE ADD SLT PUSH2 0x320 JUMPI DUP2 CALLDATALOAD PUSH8 0xFFFFFFFFFFFFFFFF DUP2 GT PUSH2 0x79D JUMPI PUSH1 0x20 PUSH2 0x740 PUSH2 0x4B7 SWAP5 PUSH2 0x780 SWAP4 CALLDATASIZE SWAP2 ADD PUSH2 0x186F JUMP JUMPDEST DUP2 PUSH1 0x24 CALLDATALOAD SWAP5 PUSH2 0x74D PUSH2 0x18C6 JUMP JUMPDEST PUSH2 0x770 PUSH12 0x33B2E3C9FD0803CE8000000 PUSH2 0x769 DUP9 PUSH1 0x2 SLOAD PUSH2 0x195B JUMP JUMPDEST GT ISZERO PUSH2 0x2516 JUMP JUMPDEST MLOAD SWAP4 DUP3 DUP6 DUP1 SWAP5 MLOAD SWAP4 DUP5 SWAP3 ADD PUSH2 0x17A2 JUMP JUMPDEST DUP2 ADD PUSH1 0xE DUP2 MSTORE SUB ADD SWAP1 KECCAK256 PUSH2 0x795 DUP3 DUP3 SLOAD PUSH2 0x195B JUMP JUMPDEST SWAP1 SSTORE ADDRESS PUSH2 0x228C JUMP JUMPDEST DUP4 DUP1 REVERT JUMPDEST POP DUP3 CALLVALUE PUSH2 0x5B4 JUMPI DUP3 PUSH1 0x3 NOT CALLDATASIZE ADD SLT PUSH2 0x5B4 JUMPI PUSH2 0x7BB PUSH2 0x17EA JUMP JUMPDEST SWAP2 DUP4 PUSH1 0x24 CALLDATALOAD SWAP3 CALLER DUP2 MSTORE PUSH1 0x1 PUSH1 0x20 MSTORE DUP2 DUP2 KECCAK256 PUSH1 0x1 DUP1 PUSH1 0xA0 SHL SUB DUP7 AND DUP3 MSTORE PUSH1 0x20 MSTORE KECCAK256 SLOAD SWAP1 DUP3 DUP3 LT PUSH2 0x7F4 JUMPI PUSH1 0x20 DUP6 PUSH2 0x701 DUP6 DUP6 SUB DUP8 CALLER PUSH2 0x1AF4 JUMP JUMPDEST PUSH1 0x84 SWAP1 PUSH1 0x20 DUP7 MLOAD SWAP2 PUSH3 0x461BCD PUSH1 0xE5 SHL DUP4 MSTORE DUP3 ADD MSTORE PUSH1 0x25 PUSH1 0x24 DUP3 ADD MSTORE PUSH32 0x45524332303A2064656372656173656420616C6C6F77616E63652062656C6F77 PUSH1 0x44 DUP3 ADD MSTORE PUSH5 0x207A65726F PUSH1 0xD8 SHL PUSH1 0x64 DUP3 ADD MSTORE REVERT JUMPDEST POP SWAP1 CALLVALUE PUSH2 0x320 JUMPI DUP3 PUSH1 0x3 NOT CALLDATASIZE ADD SLT PUSH2 0x320 JUMPI DUP1 MLOAD SWAP2 DUP4 DUP2 SLOAD SWAP1 PUSH2 0x867 DUP3 PUSH2 0x1921 JUMP JUMPDEST DUP1 DUP7 MSTORE SWAP3 PUSH1 0x1 SWAP3 DUP1 DUP5 AND SWAP1 DUP2 ISZERO PUSH2 0x904 JUMPI POP PUSH1 0x1 EQ PUSH2 0x8A8 JUMPI JUMPDEST PUSH2 0x8A4 DUP7 DUP7 PUSH2 0x892 DUP3 DUP12 SUB DUP4 PUSH2 0x184D JUMP JUMPDEST MLOAD SWAP2 DUP3 SWAP2 PUSH1 0x20 DUP4 MSTORE PUSH1 0x20 DUP4 ADD SWAP1 PUSH2 0x17C5 JUMP JUMPDEST SUB SWAP1 RETURN JUMPDEST DUP2 MSTORE SWAP5 POP PUSH32 0x8A35ACFBC15FF81A39AE7D344FD709F28E8600B4AA8C65C6B64BFE7FE36BD19B JUMPDEST DUP3 DUP7 LT PUSH2 0x8EC JUMPI POP POP POP PUSH2 0x892 DUP3 PUSH1 0x20 PUSH2 0x8A4 SWAP6 DUP3 ADD ADD SWAP5 CODESIZE PUSH2 0x881 JUMP JUMPDEST DUP1 SLOAD PUSH1 0x20 DUP8 DUP8 ADD DUP2 ADD SWAP2 SWAP1 SWAP2 MSTORE SWAP1 SWAP6 ADD SWAP5 DUP2 ADD PUSH2 0x8CE JUMP JUMPDEST SWAP1 POP PUSH2 0x8A4 SWAP8 POP DUP7 SWAP4 POP PUSH1 0x20 SWAP3 POP PUSH2 0x892 SWAP5 SWAP2 POP PUSH1 0xFF NOT AND DUP3 DUP5 ADD MSTORE ISZERO ISZERO PUSH1 0x5 SHL DUP3 ADD ADD SWAP5 CODESIZE PUSH2 0x881 JUMP JUMPDEST POP POP CALLVALUE PUSH2 0x351 JUMPI PUSH1 0x20 CALLDATASIZE PUSH1 0x3 NOT ADD SLT PUSH2 0x351 JUMPI PUSH1 0x20 SWAP2 DUP2 SWAP1 PUSH1 0x1 PUSH1 0x1 PUSH1 0xA0 SHL SUB PUSH2 0x957 PUSH2 0x17EA JUMP JUMPDEST AND DUP2 MSTORE PUSH1 0x11 DUP5 MSTORE KECCAK256 SLOAD SWAP1 MLOAD SWAP1 DUP2 MSTORE RETURN JUMPDEST POP POP CALLVALUE PUSH2 0x351 JUMPI DUP2 PUSH1 0x3 NOT CALLDATASIZE ADD SLT PUSH2 0x351 JUMPI PUSH1 0x5 SLOAD SWAP1 MLOAD PUSH1 0x8 SWAP2 SWAP1 SWAP2 SHR PUSH1 0x1 PUSH1 0x1 PUSH1 0xA0 SHL SUB AND DUP2 MSTORE PUSH1 0x20 SWAP1 RETURN JUMPDEST POP SWAP1 CALLVALUE PUSH2 0x320 JUMPI DUP3 PUSH1 0x3 NOT CALLDATASIZE ADD SLT PUSH2 0x320 JUMPI PUSH2 0x9CF PUSH32 0x0 PUSH2 0x2071 JUMP JUMPDEST SWAP3 PUSH2 0x9F9 PUSH32 0x0 PUSH2 0x216D JUMP JUMPDEST SWAP1 DUP3 MLOAD SWAP3 PUSH1 0x20 SWAP3 DUP4 DUP6 ADD SWAP6 DUP6 DUP8 LT PUSH8 0xFFFFFFFFFFFFFFFF DUP9 GT OR PUSH2 0xA9E JUMPI POP SWAP3 DUP1 PUSH2 0xA54 DUP4 DUP9 SWAP7 PUSH2 0xA47 SWAP10 DUP12 SWAP10 SWAP7 MSTORE DUP7 DUP7 MSTORE DUP2 MLOAD SWAP10 DUP11 SWAP10 PUSH1 0xF PUSH1 0xF8 SHL DUP12 MSTORE PUSH1 0xE0 DUP7 DUP13 ADD MSTORE PUSH1 0xE0 DUP12 ADD SWAP1 PUSH2 0x17C5 JUMP JUMPDEST SWAP2 DUP10 DUP4 SUB SWAP1 DUP11 ADD MSTORE PUSH2 0x17C5 JUMP JUMPDEST SWAP3 CHAINID PUSH1 0x60 DUP9 ADD MSTORE ADDRESS PUSH1 0x80 DUP9 ADD MSTORE DUP5 PUSH1 0xA0 DUP9 ADD MSTORE DUP7 DUP5 SUB PUSH1 0xC0 DUP9 ADD MSTORE MLOAD SWAP3 DUP4 DUP2 MSTORE ADD SWAP4 SWAP3 JUMPDEST DUP3 DUP2 LT PUSH2 0xA87 JUMPI POP POP POP POP SUB SWAP1 RETURN JUMPDEST DUP4 MLOAD DUP6 MSTORE DUP7 SWAP6 POP SWAP4 DUP2 ADD SWAP4 SWAP3 DUP2 ADD SWAP3 PUSH1 0x1 ADD PUSH2 0xA78 JUMP JUMPDEST PUSH4 0x4E487B71 PUSH1 0xE0 SHL DUP5 MSTORE PUSH1 0x41 SWAP1 MSTORE PUSH1 0x24 DUP4 REVERT JUMPDEST POP POP CALLVALUE PUSH2 0x351 JUMPI DUP2 PUSH1 0x3 NOT CALLDATASIZE ADD SLT PUSH2 0x351 JUMPI PUSH1 0x20 PUSH32 0x62E78CEA01BEE320CD4E420270B5EA74000D11B0C9F74754EBDBFC544B05A258 SWAP2 PUSH2 0xAEF PUSH2 0x18C6 JUMP JUMPDEST PUSH2 0xAF7 PUSH2 0x2383 JUMP JUMPDEST PUSH1 0x1 PUSH1 0xFF NOT PUSH1 0x5 SLOAD AND OR PUSH1 0x5 SSTORE MLOAD CALLER DUP2 MSTORE LOG1 DUP1 RETURN JUMPDEST POP POP CALLVALUE PUSH2 0x351 JUMPI DUP2 PUSH1 0x3 NOT CALLDATASIZE ADD SLT PUSH2 0x351 JUMPI PUSH1 0x20 SWAP1 PUSH1 0x12 SLOAD SWAP1 MLOAD SWAP1 DUP2 MSTORE RETURN JUMPDEST POP POP CALLVALUE PUSH2 0x351 JUMPI PUSH1 0x20 CALLDATASIZE PUSH1 0x3 NOT ADD SLT PUSH2 0x351 JUMPI PUSH1 0x20 SWAP2 DUP2 SWAP1 PUSH1 0x1 PUSH1 0x1 PUSH1 0xA0 SHL SUB PUSH2 0xB53 PUSH2 0x17EA JUMP JUMPDEST AND DUP2 MSTORE PUSH1 0x8 DUP5 MSTORE KECCAK256 SLOAD SWAP1 MLOAD SWAP1 DUP2 MSTORE RETURN JUMPDEST POP POP CALLVALUE PUSH2 0x351 JUMPI DUP2 PUSH1 0x3 NOT CALLDATASIZE ADD SLT PUSH2 0x351 JUMPI PUSH1 0x20 SWAP1 PUSH1 0xA SLOAD SWAP1 MLOAD SWAP1 DUP2 MSTORE RETURN JUMPDEST POP POP CALLVALUE PUSH2 0x351 JUMPI CALLDATASIZE PUSH1 0x3 NOT ADD SLT PUSH2 0x5B4 JUMPI PUSH2 0x4B7 PUSH2 0xB9E PUSH2 0x17EA JUMP JUMPDEST PUSH1 0x24 CALLDATALOAD SWAP1 PUSH2 0xBAD DUP3 CALLER DUP4 PUSH2 0x1BF6 JUMP JUMPDEST PUSH2 0x1C8E JUMP JUMPDEST POP SWAP1 CALLVALUE PUSH2 0x320 JUMPI PUSH1 0x20 SWAP1 DUP2 PUSH1 0x3 NOT CALLDATASIZE ADD SLT PUSH2 0x79D JUMPI DUP3 CALLDATALOAD SWAP3 PUSH2 0xBD2 PUSH2 0x2383 JUMP JUMPDEST PUSH2 0xBDD DUP5 ISZERO ISZERO PUSH2 0x2337 JUMP JUMPDEST CALLER DUP6 MSTORE DUP5 DUP4 MSTORE DUP4 DUP3 DUP7 KECCAK256 SLOAD LT PUSH2 0xC75 JUMPI POP SWAP1 PUSH32 0xB539CA1E5C8D398DDF1C41C30166F33404941683BE4683319B57669A93DAD4EF SWAP2 CALLER DUP6 MSTORE PUSH1 0x10 DUP3 MSTORE DUP1 DUP6 KECCAK256 SLOAD PUSH2 0xC68 JUMPI JUMPDEST PUSH2 0xC2C DUP5 ADDRESS CALLER PUSH2 0x197E JUMP JUMPDEST CALLER DUP6 MSTORE PUSH1 0x10 DUP3 MSTORE DUP1 DUP6 KECCAK256 PUSH2 0xC41 DUP6 DUP3 SLOAD PUSH2 0x195B JUMP JUMPDEST SWAP1 SSTORE CALLER DUP6 MSTORE PUSH1 0x11 DUP3 MSTORE TIMESTAMP DUP2 DUP7 KECCAK256 SSTORE PUSH2 0xC5B DUP5 PUSH1 0x12 SLOAD PUSH2 0x195B JUMP JUMPDEST PUSH1 0x12 SSTORE MLOAD SWAP3 DUP4 MSTORE CALLER SWAP3 LOG2 DUP1 RETURN JUMPDEST PUSH2 0xC70 PUSH2 0x23DA JUMP JUMPDEST PUSH2 0xC21 JUMP JUMPDEST DUP3 PUSH1 0x64 SWAP3 MLOAD SWAP2 PUSH3 0x461BCD PUSH1 0xE5 SHL DUP4 MSTORE DUP3 ADD MSTORE PUSH1 0x14 PUSH1 0x24 DUP3 ADD MSTORE PUSH20 0x496E73756666696369656E742062616C616E6365 PUSH1 0x60 SHL PUSH1 0x44 DUP3 ADD MSTORE REVERT JUMPDEST DUP4 CALLVALUE PUSH2 0x5B4 JUMPI DUP1 PUSH1 0x3 NOT CALLDATASIZE ADD SLT PUSH2 0x5B4 JUMPI PUSH2 0xCC6 PUSH2 0x18C6 JUMP JUMPDEST PUSH1 0x5 DUP1 SLOAD PUSH2 0x100 PUSH1 0x1 PUSH1 0xA8 SHL SUB NOT DUP2 AND SWAP1 SWAP2 SSTORE DUP2 SWAP1 PUSH1 0x8 SHR PUSH1 0x1 PUSH1 0x1 PUSH1 0xA0 SHL SUB AND PUSH32 0x8BE0079C531659141344CD1FD0A4F28419497F9722A3DAAFE3B4186F6B6457E0 DUP3 DUP1 LOG3 DUP1 RETURN JUMPDEST POP POP CALLVALUE PUSH2 0x351 JUMPI PUSH1 0x20 CALLDATASIZE PUSH1 0x3 NOT ADD SLT PUSH2 0x351 JUMPI PUSH1 0x20 SWAP2 DUP2 SWAP1 PUSH1 0x1 PUSH1 0x1 PUSH1 0xA0 SHL SUB PUSH2 0xD36 PUSH2 0x17EA JUMP JUMPDEST AND DUP2 MSTORE DUP1 DUP5 MSTORE KECCAK256 SLOAD SWAP1 MLOAD SWAP1 DUP2 MSTORE RETURN JUMPDEST POP POP CALLVALUE PUSH2 0x351 JUMPI DUP2 PUSH1 0x3 NOT CALLDATASIZE ADD SLT PUSH2 0x351 JUMPI PUSH1 0x20 SWAP1 PUSH1 0xB SLOAD SWAP1 MLOAD SWAP1 DUP2 MSTORE RETURN JUMPDEST POP SWAP1 CALLVALUE PUSH2 0x320 JUMPI PUSH1 0x20 SWAP1 DUP2 PUSH1 0x3 NOT CALLDATASIZE ADD SLT PUSH2 0x79D JUMPI DUP3 CALLDATALOAD SWAP3 PUSH2 0xD84 PUSH2 0x2383 JUMP JUMPDEST PUSH2 0xD8F DUP5 ISZERO ISZERO PUSH2 0x2337 JUMP JUMPDEST CALLER DUP6 MSTORE PUSH1 0x10 DUP4 MSTORE DUP4 DUP3 DUP7 KECCAK256 SLOAD LT PUSH2 0xE97 JUMPI CALLER DUP6 MSTORE PUSH1 0x11 DUP4 MSTORE DUP2 DUP6 KECCAK256 SLOAD PUSH3 0x93A80 DUP2 ADD DUP1 SWAP2 GT PUSH2 0xE84 JUMPI TIMESTAMP LT PUSH2 0xE43 JUMPI POP SWAP1 PUSH32 0x9845E367B683334E5C0B12D7B81721AC518E649376FA65E3D68324E8F34F2679 SWAP2 PUSH2 0xDEA PUSH2 0x23DA JUMP JUMPDEST CALLER DUP6 MSTORE PUSH1 0x10 DUP3 MSTORE DUP1 DUP6 KECCAK256 PUSH2 0xDFF DUP6 DUP3 SLOAD PUSH2 0x227F JUMP JUMPDEST SWAP1 SSTORE PUSH2 0xE0D DUP5 PUSH1 0x12 SLOAD PUSH2 0x227F JUMP JUMPDEST PUSH1 0x12 SSTORE PUSH2 0xE1B DUP5 CALLER ADDRESS PUSH2 0x197E JUMP JUMPDEST CALLER DUP6 MSTORE PUSH1 0x10 DUP3 MSTORE DUP1 DUP6 KECCAK256 SLOAD PUSH2 0xE35 JUMPI JUMPDEST MLOAD SWAP3 DUP4 MSTORE CALLER SWAP3 LOG2 DUP1 RETURN JUMPDEST PUSH1 0x11 DUP3 MSTORE TIMESTAMP DUP2 DUP7 KECCAK256 SSTORE PUSH2 0xE2B JUMP JUMPDEST DUP3 PUSH1 0x64 SWAP3 MLOAD SWAP2 PUSH3 0x461BCD PUSH1 0xE5 SHL DUP4 MSTORE DUP3 ADD MSTORE PUSH1 0x18 PUSH1 0x24 DUP3 ADD MSTORE PUSH32 0x546F6B656E73206C6F636B656420666F72203720646179730000000000000000 PUSH1 0x44 DUP3 ADD MSTORE REVERT JUMPDEST PUSH4 0x4E487B71 PUSH1 0xE0 SHL DUP7 MSTORE PUSH1 0x11 DUP3 MSTORE PUSH1 0x24 DUP7 REVERT JUMPDEST DUP3 PUSH1 0x64 SWAP3 MLOAD SWAP2 PUSH3 0x461BCD PUSH1 0xE5 SHL DUP4 MSTORE DUP3 ADD MSTORE PUSH1 0x1B PUSH1 0x24 DUP3 ADD MSTORE PUSH32 0x496E73756666696369656E74207374616B65642062616C616E63650000000000 PUSH1 0x44 DUP3 ADD MSTORE REVERT JUMPDEST POP POP CALLVALUE PUSH2 0x351 JUMPI DUP2 PUSH1 0x3 NOT CALLDATASIZE ADD SLT PUSH2 0x351 JUMPI PUSH1 0x20 SWAP1 PUSH1 0xFF PUSH1 0x5 SLOAD AND SWAP1 MLOAD SWAP1 ISZERO ISZERO DUP2 MSTORE RETURN JUMPDEST POP POP CALLVALUE PUSH2 0x351 JUMPI DUP2 PUSH1 0x3 NOT CALLDATASIZE ADD SLT PUSH2 0x351 JUMPI PUSH1 0x20 SWAP1 PUSH1 0x13 SLOAD SWAP1 MLOAD SWAP1 DUP2 MSTORE RETURN JUMPDEST POP POP CALLVALUE PUSH2 0x351 JUMPI DUP2 PUSH1 0x3 NOT CALLDATASIZE ADD SLT PUSH2 0x351 JUMPI PUSH1 0x20 SWAP1 PUSH1 0xC SLOAD SWAP1 MLOAD SWAP1 DUP2 MSTORE RETURN JUMPDEST POP CALLVALUE PUSH2 0x320 JUMPI PUSH1 0x20 CALLDATASIZE PUSH1 0x3 NOT ADD SLT PUSH2 0x320 JUMPI DUP1 CALLDATALOAD SWAP2 PUSH2 0xF57 PUSH2 0x18C6 JUMP JUMPDEST PUSH2 0x7D0 DUP4 GT PUSH2 0xF68 JUMPI POP POP PUSH1 0x13 SSTORE DUP1 RETURN JUMPDEST SWAP1 PUSH1 0x20 PUSH1 0x64 SWAP3 MLOAD SWAP2 PUSH3 0x461BCD PUSH1 0xE5 SHL DUP4 MSTORE DUP3 ADD MSTORE PUSH1 0x1C PUSH1 0x24 DUP3 ADD MSTORE PUSH32 0x5374616B696E6720726577617264207261746520746F6F206869676800000000 PUSH1 0x44 DUP3 ADD MSTORE REVERT JUMPDEST DUP4 DUP3 CALLVALUE PUSH2 0x351 JUMPI PUSH1 0x20 CALLDATASIZE PUSH1 0x3 NOT ADD SLT PUSH2 0x351 JUMPI PUSH2 0x4B7 SWAP1 CALLDATALOAD CALLER PUSH2 0x1C8E JUMP JUMPDEST POP CALLVALUE PUSH2 0x320 JUMPI DUP3 PUSH1 0x3 NOT CALLDATASIZE ADD SLT PUSH2 0x320 JUMPI PUSH2 0xFE2 PUSH2 0x18C6 JUMP JUMPDEST PUSH1 0x5 SLOAD SWAP1 PUSH1 0xFF DUP3 AND ISZERO PUSH2 0x1024 JUMPI POP PUSH1 0xFF NOT AND PUSH1 0x5 SSTORE MLOAD CALLER DUP2 MSTORE PUSH32 0x5DB9EE0A495BF2E6FF9C91A7834C1BA4FDD244A5E8AA4E537BD38AEAE4B073AA SWAP1 PUSH1 0x20 SWAP1 LOG1 DUP1 RETURN JUMPDEST PUSH1 0x64 SWAP1 PUSH1 0x20 DUP5 MLOAD SWAP2 PUSH3 0x461BCD PUSH1 0xE5 SHL DUP4 MSTORE DUP3 ADD MSTORE PUSH1 0x14 PUSH1 0x24 DUP3 ADD MSTORE PUSH20 0x14185D5CD8589B194E881B9BDD081C185D5CD959 PUSH1 0x62 SHL PUSH1 0x44 DUP3 ADD MSTORE REVERT JUMPDEST POP POP CALLVALUE PUSH2 0x351 JUMPI DUP1 PUSH1 0x3 NOT CALLDATASIZE ADD SLT PUSH2 0x351 JUMPI PUSH2 0x701 PUSH1 0x20 SWAP3 PUSH2 0x10A7 PUSH2 0x1081 PUSH2 0x17EA JUMP JUMPDEST CALLER DUP4 MSTORE PUSH1 0x1 DUP7 MSTORE DUP5 DUP4 KECCAK256 PUSH1 0x1 PUSH1 0x1 PUSH1 0xA0 SHL SUB DUP3 AND DUP5 MSTORE DUP7 MSTORE SWAP2 DUP5 SWAP1 KECCAK256 SLOAD PUSH1 0x24 CALLDATALOAD SWAP1 PUSH2 0x195B JUMP JUMPDEST SWAP1 CALLER PUSH2 0x1AF4 JUMP JUMPDEST POP POP CALLVALUE PUSH2 0x351 JUMPI DUP2 PUSH1 0x3 NOT CALLDATASIZE ADD SLT PUSH2 0x351 JUMPI PUSH1 0x20 SWAP1 PUSH2 0x34A PUSH2 0x1F46 JUMP JUMPDEST POP POP CALLVALUE PUSH2 0x351 JUMPI DUP2 PUSH1 0x3 NOT CALLDATASIZE ADD SLT PUSH2 0x351 JUMPI PUSH1 0x20 SWAP1 PUSH1 0xD SLOAD SWAP1 MLOAD SWAP1 DUP2 MSTORE RETURN JUMPDEST POP POP CALLVALUE PUSH2 0x351 JUMPI DUP2 PUSH1 0x3 NOT CALLDATASIZE ADD SLT PUSH2 0x351 JUMPI PUSH1 0x20 SWAP1 MLOAD PUSH12 0x33B2E3C9FD0803CE8000000 DUP2 MSTORE RETURN JUMPDEST POP POP CALLVALUE PUSH2 0x351 JUMPI DUP2 PUSH1 0x3 NOT CALLDATASIZE ADD SLT PUSH2 0x351 JUMPI PUSH1 0x20 SWAP1 MLOAD PUSH1 0x12 DUP2 MSTORE RETURN JUMPDEST POP POP CALLVALUE PUSH2 0x351 JUMPI DUP2 PUSH1 0x3 NOT CALLDATASIZE ADD SLT PUSH2 0x351 JUMPI PUSH1 0x20 SWAP1 MLOAD PUSH11 0x52B7D2DCC80CD2E4000000 DUP2 MSTORE RETURN JUMPDEST POP POP CALLVALUE PUSH2 0x351 JUMPI PUSH1 0x60 CALLDATASIZE PUSH1 0x3 NOT ADD SLT PUSH2 0x351 JUMPI PUSH1 0x20 SWAP1 PUSH2 0x701 PUSH2 0x1174 PUSH2 0x17EA JUMP JUMPDEST PUSH2 0x117C PUSH2 0x1805 JUMP JUMPDEST PUSH1 0x44 CALLDATALOAD SWAP2 PUSH2 0x118B DUP4 CALLER DUP4 PUSH2 0x1BF6 JUMP JUMPDEST PUSH2 0x197E JUMP JUMPDEST DUP4 DUP3 CALLVALUE PUSH2 0x351 JUMPI PUSH1 0x80 CALLDATASIZE PUSH1 0x3 NOT ADD SLT PUSH2 0x351 JUMPI PUSH2 0x11AB PUSH2 0x18C6 JUMP JUMPDEST CALLDATALOAD PUSH1 0xA SSTORE PUSH1 0x24 CALLDATALOAD PUSH1 0xB SSTORE PUSH1 0x44 CALLDATALOAD PUSH1 0xC SSTORE PUSH1 0x64 CALLDATALOAD PUSH1 0xD SSTORE DUP1 RETURN JUMPDEST POP POP CALLVALUE PUSH2 0x351 JUMPI PUSH1 0x20 CALLDATASIZE PUSH1 0x3 NOT ADD SLT PUSH2 0x351 JUMPI PUSH2 0x11DF PUSH2 0x17EA JUMP JUMPDEST PUSH2 0x11E7 PUSH2 0x18C6 JUMP JUMPDEST PUSH1 0x1 PUSH1 0x1 PUSH1 0xA0 SHL SUB AND DUP3 MSTORE PUSH1 0xF PUSH1 0x20 MSTORE DUP2 KECCAK256 DUP1 SLOAD PUSH1 0xFF NOT AND PUSH1 0x1 OR SWAP1 SSTORE DUP1 RETURN JUMPDEST POP POP CALLVALUE PUSH2 0x351 JUMPI CALLDATASIZE PUSH1 0x3 NOT ADD SLT PUSH2 0x5B4 JUMPI PUSH2 0x4B7 PUSH2 0x1223 PUSH2 0x17EA JUMP JUMPDEST PUSH1 0x24 CALLDATALOAD SWAP1 PUSH2 0x122F PUSH2 0x18C6 JUMP JUMPDEST PUSH2 0x124B PUSH12 0x33B2E3C9FD0803CE8000000 PUSH2 0x769 DUP5 PUSH1 0x2 SLOAD PUSH2 0x195B JUMP JUMPDEST PUSH2 0x228C JUMP JUMPDEST POP CALLVALUE PUSH2 0x320 JUMPI PUSH1 0x20 CALLDATASIZE PUSH1 0x3 NOT ADD SLT PUSH2 0x320 JUMPI PUSH2 0x126A PUSH2 0x17EA JUMP JUMPDEST SWAP1 CALLER DUP5 MSTORE PUSH1 0xF PUSH1 0x20 MSTORE PUSH2 0x1282 PUSH1 0xFF DUP5 DUP7 KECCAK256 SLOAD AND PUSH2 0x2227 JUMP JUMPDEST DUP3 MLOAD PUSH1 0x29 PUSH9 0x726566657272616C73 PUSH1 0xB8 SHL SWAP2 DUP3 DUP2 MSTORE PUSH1 0xE PUSH1 0x9 DUP3 ADD MSTORE KECCAK256 SLOAD SWAP2 PUSH1 0xC SLOAD DUP1 SWAP4 LT PUSH2 0x131A JUMPI POP SWAP2 PUSH1 0x80 SWAP2 PUSH2 0x12DA PUSH1 0x29 PUSH1 0x0 DUP1 MLOAD PUSH1 0x20 PUSH2 0x2563 DUP4 CODECOPY DUP2 MLOAD SWAP2 MSTORE SWAP6 DUP8 MLOAD SWAP1 DUP2 MSTORE PUSH1 0xE PUSH1 0x9 DUP3 ADD MSTORE KECCAK256 SWAP2 DUP3 SLOAD PUSH2 0x227F JUMP JUMPDEST SWAP1 SSTORE PUSH2 0x12E8 PUSH1 0xC SLOAD DUP3 PUSH2 0x228C JUMP JUMPDEST PUSH1 0x8 PUSH1 0xC SLOAD SWAP5 DUP1 MLOAD SWAP6 DUP7 MSTORE DUP1 PUSH1 0x20 DUP8 ADD MSTORE DUP6 ADD MSTORE PUSH8 0x1C9959995C9C985B PUSH1 0xC2 SHL PUSH1 0x60 DUP6 ADD MSTORE PUSH1 0x1 DUP1 PUSH1 0xA0 SHL SUB AND SWAP3 LOG2 DUP1 RETURN JUMPDEST PUSH1 0x84 SWAP1 PUSH1 0x20 DUP7 MLOAD SWAP2 PUSH3 0x461BCD PUSH1 0xE5 SHL DUP4 MSTORE DUP3 ADD MSTORE PUSH1 0x21 PUSH1 0x24 DUP3 ADD MSTORE PUSH32 0x496E73756666696369656E7420726566657272616C2072657761726420706F6F PUSH1 0x44 DUP3 ADD MSTORE PUSH1 0x1B PUSH1 0xFA SHL PUSH1 0x64 DUP3 ADD MSTORE REVERT JUMPDEST POP POP CALLVALUE PUSH2 0x351 JUMPI DUP2 PUSH1 0x3 NOT CALLDATASIZE ADD SLT PUSH2 0x351 JUMPI PUSH1 0x20 SWAP1 PUSH1 0x2 SLOAD SWAP1 MLOAD SWAP1 DUP2 MSTORE RETURN JUMPDEST POP CALLVALUE PUSH2 0x320 JUMPI PUSH1 0x20 CALLDATASIZE PUSH1 0x3 NOT ADD SLT PUSH2 0x320 JUMPI PUSH2 0x13A0 PUSH2 0x17EA JUMP JUMPDEST SWAP1 CALLER DUP5 MSTORE PUSH1 0xF PUSH1 0x20 MSTORE PUSH2 0x13B8 PUSH1 0xFF DUP5 DUP7 KECCAK256 SLOAD AND PUSH2 0x2227 JUMP JUMPDEST DUP3 MLOAD SWAP1 PUSH1 0x27 PUSH7 0x736176696E6773 PUSH1 0xC8 SHL SWAP3 DUP4 DUP2 MSTORE PUSH1 0xE PUSH1 0x7 DUP3 ADD MSTORE KECCAK256 SLOAD SWAP1 PUSH1 0xA SLOAD DUP1 SWAP3 LT PUSH2 0x1443 JUMPI POP SWAP2 PUSH1 0x80 SWAP2 PUSH1 0x0 DUP1 MLOAD PUSH1 0x20 PUSH2 0x2563 DUP4 CODECOPY DUP2 MLOAD SWAP2 MSTORE SWAP4 PUSH2 0x140F PUSH1 0x27 DUP8 MLOAD DUP5 DUP2 MSTORE PUSH1 0xE PUSH1 0x7 DUP3 ADD MSTORE KECCAK256 SWAP2 DUP3 SLOAD PUSH2 0x227F JUMP JUMPDEST SWAP1 SSTORE PUSH2 0x141D PUSH1 0xA SLOAD DUP4 PUSH2 0x228C JUMP JUMPDEST PUSH1 0x7 PUSH1 0xA SLOAD SWAP6 DUP1 MLOAD SWAP7 DUP8 MSTORE DUP1 PUSH1 0x20 DUP9 ADD MSTORE DUP7 ADD MSTORE PUSH1 0x60 DUP6 ADD MSTORE PUSH1 0x1 DUP1 PUSH1 0xA0 SHL SUB AND SWAP3 LOG2 DUP1 RETURN JUMPDEST PUSH1 0x64 SWAP1 PUSH1 0x20 DUP7 MLOAD SWAP2 PUSH3 0x461BCD PUSH1 0xE5 SHL DUP4 MSTORE DUP3 ADD MSTORE PUSH1 0x20 PUSH1 0x24 DUP3 ADD MSTORE PUSH32 0x496E73756666696369656E7420736176696E67732072657761726420706F6F6C PUSH1 0x44 DUP3 ADD MSTORE REVERT JUMPDEST POP CALLVALUE PUSH2 0x320 JUMPI PUSH1 0x20 CALLDATASIZE PUSH1 0x3 NOT ADD SLT PUSH2 0x320 JUMPI PUSH2 0x14A0 PUSH2 0x17EA JUMP JUMPDEST SWAP1 CALLER DUP5 MSTORE PUSH1 0xF PUSH1 0x20 MSTORE PUSH2 0x14B8 PUSH1 0xFF DUP5 DUP7 KECCAK256 SLOAD AND PUSH2 0x2227 JUMP JUMPDEST DUP3 MLOAD PUSH1 0x25 PUSH5 0x6C6F616E73 PUSH1 0xD8 SHL SWAP2 DUP3 DUP2 MSTORE PUSH1 0xE PUSH1 0x5 DUP3 ADD MSTORE KECCAK256 SLOAD SWAP2 PUSH1 0xB SLOAD DUP1 SWAP4 LT PUSH2 0x1552 JUMPI POP SWAP2 PUSH1 0x80 SWAP2 PUSH2 0x150C PUSH1 0x25 PUSH1 0x0 DUP1 MLOAD PUSH1 0x20 PUSH2 0x2563 DUP4 CODECOPY DUP2 MLOAD SWAP2 MSTORE SWAP6 DUP8 MLOAD SWAP1 DUP2 MSTORE PUSH1 0xE PUSH1 0x5 DUP3 ADD MSTORE KECCAK256 SWAP2 DUP3 SLOAD PUSH2 0x227F JUMP JUMPDEST SWAP1 SSTORE PUSH2 0x151A PUSH1 0xB SLOAD DUP3 PUSH2 0x228C JUMP JUMPDEST PUSH1 0xE PUSH1 0xB SLOAD SWAP5 DUP1 MLOAD SWAP6 DUP7 MSTORE DUP1 PUSH1 0x20 DUP8 ADD MSTORE DUP6 ADD MSTORE PUSH14 0x1B1BD85B97DC995C185E5B595B9D PUSH1 0x92 SHL PUSH1 0x60 DUP6 ADD MSTORE PUSH1 0x1 DUP1 PUSH1 0xA0 SHL SUB AND SWAP3 LOG2 DUP1 RETURN JUMPDEST PUSH1 0x64 SWAP1 PUSH1 0x20 DUP7 MLOAD SWAP2 PUSH3 0x461BCD PUSH1 0xE5 SHL DUP4 MSTORE DUP3 ADD MSTORE PUSH1 0x1D PUSH1 0x24 DUP3 ADD MSTORE PUSH32 0x496E73756666696369656E74206C6F616E2072657761726420706F6F6C000000 PUSH1 0x44 DUP3 ADD MSTORE REVERT JUMPDEST POP POP CALLVALUE PUSH2 0x351 JUMPI DUP1 PUSH1 0x3 NOT CALLDATASIZE ADD SLT PUSH2 0x351 JUMPI PUSH1 0x20 SWAP1 PUSH2 0x701 PUSH2 0x15B5 PUSH2 0x17EA JUMP JUMPDEST PUSH1 0x24 CALLDATALOAD SWAP1 CALLER PUSH2 0x1AF4 JUMP JUMPDEST POP CALLVALUE PUSH2 0x320 JUMPI PUSH1 0x20 CALLDATASIZE PUSH1 0x3 NOT ADD SLT PUSH2 0x320 JUMPI PUSH2 0x15D9 PUSH2 0x17EA JUMP JUMPDEST SWAP1 CALLER DUP5 MSTORE PUSH1 0xF PUSH1 0x20 MSTORE PUSH2 0x15F1 PUSH1 0xFF DUP5 DUP7 KECCAK256 SLOAD AND PUSH2 0x2227 JUMP JUMPDEST DUP3 MLOAD PUSH1 0x26 PUSH6 0x6167656E7473 PUSH1 0xD0 SHL SWAP2 DUP3 DUP2 MSTORE PUSH1 0xE PUSH1 0x6 DUP3 ADD MSTORE KECCAK256 SLOAD SWAP2 PUSH1 0xD SLOAD DUP1 SWAP4 LT PUSH2 0x168E JUMPI POP SWAP2 PUSH1 0x80 SWAP2 PUSH2 0x1646 PUSH1 0x26 PUSH1 0x0 DUP1 MLOAD PUSH1 0x20 PUSH2 0x2563 DUP4 CODECOPY DUP2 MLOAD SWAP2 MSTORE SWAP6 DUP8 MLOAD SWAP1 DUP2 MSTORE PUSH1 0xE PUSH1 0x6 DUP3 ADD MSTORE KECCAK256 SWAP2 DUP3 SLOAD PUSH2 0x227F JUMP JUMPDEST SWAP1 SSTORE PUSH2 0x1654 PUSH1 0xD SLOAD DUP3 PUSH2 0x228C JUMP JUMPDEST PUSH1 0x10 PUSH1 0xD SLOAD SWAP5 DUP1 MLOAD SWAP6 DUP7 MSTORE DUP1 PUSH1 0x20 DUP8 ADD MSTORE DUP6 ADD MSTORE PUSH16 0x30B3B2B73A2FB1B7B6B6B4B9B9B4B7B7 PUSH1 0x81 SHL PUSH1 0x60 DUP6 ADD MSTORE PUSH1 0x1 DUP1 PUSH1 0xA0 SHL SUB AND SWAP3 LOG2 DUP1 RETURN JUMPDEST PUSH1 0x64 SWAP1 PUSH1 0x20 DUP7 MLOAD SWAP2 PUSH3 0x461BCD PUSH1 0xE5 SHL DUP4 MSTORE DUP3 ADD MSTORE PUSH1 0x1E PUSH1 0x24 DUP3 ADD MSTORE PUSH32 0x496E73756666696369656E74206167656E742072657761726420706F6F6C0000 PUSH1 0x44 DUP3 ADD MSTORE REVERT JUMPDEST DUP5 SWAP1 DUP5 CALLVALUE PUSH2 0x320 JUMPI DUP3 PUSH1 0x3 NOT CALLDATASIZE ADD SLT PUSH2 0x320 JUMPI DUP3 PUSH1 0x3 SLOAD PUSH2 0x16F1 DUP2 PUSH2 0x1921 JUMP JUMPDEST DUP1 DUP6 MSTORE SWAP2 PUSH1 0x1 SWAP2 DUP1 DUP4 AND SWAP1 DUP2 ISZERO PUSH2 0x177A JUMPI POP PUSH1 0x1 EQ PUSH2 0x171D JUMPI JUMPDEST POP POP POP PUSH2 0x892 DUP3 PUSH2 0x8A4 SWAP5 SUB DUP4 PUSH2 0x184D JUMP JUMPDEST SWAP5 POP PUSH1 0x3 DUP6 MSTORE PUSH32 0xC2575A0E9E593C00F959F8C92F12DB2869C3395A3B0502D05E2516446F71F85B JUMPDEST DUP3 DUP7 LT PUSH2 0x1762 JUMPI POP POP POP PUSH2 0x892 DUP3 PUSH1 0x20 PUSH2 0x8A4 SWAP6 DUP3 ADD ADD SWAP5 PUSH2 0x170B JUMP JUMPDEST DUP1 SLOAD PUSH1 0x20 DUP8 DUP8 ADD DUP2 ADD SWAP2 SWAP1 SWAP2 MSTORE SWAP1 SWAP6 ADD SWAP5 DUP2 ADD PUSH2 0x1745 JUMP JUMPDEST PUSH2 0x8A4 SWAP8 POP DUP7 SWAP4 POP PUSH1 0x20 SWAP3 POP PUSH2 0x892 SWAP5 SWAP2 POP PUSH1 0xFF NOT AND DUP3 DUP5 ADD MSTORE ISZERO ISZERO PUSH1 0x5 SHL DUP3 ADD ADD SWAP5 PUSH2 0x170B JUMP JUMPDEST PUSH1 0x0 JUMPDEST DUP4 DUP2 LT PUSH2 0x17B5 JUMPI POP POP PUSH1 0x0 SWAP2 ADD MSTORE JUMP JUMPDEST DUP2 DUP2 ADD MLOAD DUP4 DUP3 ADD MSTORE PUSH1 0x20 ADD PUSH2 0x17A5 JUMP JUMPDEST SWAP1 PUSH1 0x20 SWAP2 PUSH2 0x17DE DUP2 MLOAD DUP1 SWAP3 DUP2 DUP6 MSTORE DUP6 DUP1 DUP7 ADD SWAP2 ADD PUSH2 0x17A2 JUMP JUMPDEST PUSH1 0x1F ADD PUSH1 0x1F NOT AND ADD ADD SWAP1 JUMP JUMPDEST PUSH1 0x4 CALLDATALOAD SWAP1 PUSH1 0x1 PUSH1 0x1 PUSH1 0xA0 SHL SUB DUP3 AND DUP3 SUB PUSH2 0x1800 JUMPI JUMP JUMPDEST PUSH1 0x0 DUP1 REVERT JUMPDEST PUSH1 0x24 CALLDATALOAD SWAP1 PUSH1 0x1 PUSH1 0x1 PUSH1 0xA0 SHL SUB DUP3 AND DUP3 SUB PUSH2 0x1800 JUMPI JUMP JUMPDEST PUSH1 0x40 DUP2 ADD SWAP1 DUP2 LT PUSH8 0xFFFFFFFFFFFFFFFF DUP3 GT OR PUSH2 0x1837 JUMPI PUSH1 0x40 MSTORE JUMP JUMPDEST PUSH4 0x4E487B71 PUSH1 0xE0 SHL PUSH1 0x0 MSTORE PUSH1 0x41 PUSH1 0x4 MSTORE PUSH1 0x24 PUSH1 0x0 REVERT JUMPDEST SWAP1 PUSH1 0x1F DUP1 NOT SWAP2 ADD AND DUP2 ADD SWAP1 DUP2 LT PUSH8 0xFFFFFFFFFFFFFFFF DUP3 GT OR PUSH2 0x1837 JUMPI PUSH1 0x40 MSTORE JUMP JUMPDEST DUP2 PUSH1 0x1F DUP3 ADD SLT ISZERO PUSH2 0x1800 JUMPI DUP1 CALLDATALOAD SWAP1 PUSH8 0xFFFFFFFFFFFFFFFF DUP3 GT PUSH2 0x1837 JUMPI PUSH1 0x40 MLOAD SWAP3 PUSH2 0x18A4 PUSH1 0x1F DUP5 ADD PUSH1 0x1F NOT AND PUSH1 0x20 ADD DUP6 PUSH2 0x184D JUMP JUMPDEST DUP3 DUP5 MSTORE PUSH1 0x20 DUP4 DUP4 ADD ADD GT PUSH2 0x1800 JUMPI DUP2 PUSH1 0x0 SWAP3 PUSH1 0x20 DUP1 SWAP4 ADD DUP4 DUP7 ADD CALLDATACOPY DUP4 ADD ADD MSTORE SWAP1 JUMP JUMPDEST PUSH1 0x5 SLOAD PUSH1 0x8 SHR PUSH1 0x1 PUSH1 0x1 PUSH1 0xA0 SHL SUB AND CALLER SUB PUSH2 0x18DD JUMPI JUMP JUMPDEST PUSH1 0x64 PUSH1 0x40 MLOAD PUSH3 0x461BCD PUSH1 0xE5 SHL DUP2 MSTORE PUSH1 0x20 PUSH1 0x4 DUP3 ADD MSTORE PUSH1 0x20 PUSH1 0x24 DUP3 ADD MSTORE PUSH32 0x4F776E61626C653A2063616C6C6572206973206E6F7420746865206F776E6572 PUSH1 0x44 DUP3 ADD MSTORE REVERT JUMPDEST SWAP1 PUSH1 0x1 DUP3 DUP2 SHR SWAP3 AND DUP1 ISZERO PUSH2 0x1951 JUMPI JUMPDEST PUSH1 0x20 DUP4 LT EQ PUSH2 0x193B JUMPI JUMP JUMPDEST PUSH4 0x4E487B71 PUSH1 0xE0 SHL PUSH1 0x0 MSTORE PUSH1 0x22 PUSH1 0x4 MSTORE PUSH1 0x24 PUSH1 0x0 REVERT JUMPDEST SWAP2 PUSH1 0x7F AND SWAP2 PUSH2 0x1930 JUMP JUMPDEST SWAP2 SWAP1 DUP3 ADD DUP1 SWAP3 GT PUSH2 0x1968 JUMPI JUMP JUMPDEST PUSH4 0x4E487B71 PUSH1 0xE0 SHL PUSH1 0x0 MSTORE PUSH1 0x11 PUSH1 0x4 MSTORE PUSH1 0x24 PUSH1 0x0 REVERT JUMPDEST PUSH1 0x1 PUSH1 0x1 PUSH1 0xA0 SHL SUB SWAP1 DUP2 AND SWAP2 DUP3 ISZERO PUSH2 0x1AA1 JUMPI AND SWAP2 DUP3 ISZERO PUSH2 0x1A50 JUMPI PUSH2 0x19A0 PUSH2 0x2383 JUMP JUMPDEST PUSH1 0x0 DUP3 DUP2 MSTORE DUP1 PUSH1 0x20 MSTORE PUSH1 0x40 DUP2 KECCAK256 SLOAD SWAP2 DUP1 DUP4 LT PUSH2 0x19FC JUMPI PUSH1 0x40 DUP3 DUP3 PUSH32 0xDDF252AD1BE2C89B69C2B068FC378DAA952BA7F163C4A11628F55A4DF523B3EF SWAP6 DUP8 PUSH1 0x20 SWAP7 MSTORE DUP3 DUP7 MSTORE SUB DUP3 DUP3 KECCAK256 SSTORE DUP7 DUP2 MSTORE KECCAK256 DUP2 DUP2 SLOAD ADD SWAP1 SSTORE PUSH1 0x40 MLOAD SWAP1 DUP2 MSTORE LOG3 JUMP JUMPDEST PUSH1 0x40 MLOAD PUSH3 0x461BCD PUSH1 0xE5 SHL DUP2 MSTORE PUSH1 0x20 PUSH1 0x4 DUP3 ADD MSTORE PUSH1 0x26 PUSH1 0x24 DUP3 ADD MSTORE PUSH32 0x45524332303A207472616E7366657220616D6F756E7420657863656564732062 PUSH1 0x44 DUP3 ADD MSTORE PUSH6 0x616C616E6365 PUSH1 0xD0 SHL PUSH1 0x64 DUP3 ADD MSTORE PUSH1 0x84 SWAP1 REVERT JUMPDEST PUSH1 0x40 MLOAD PUSH3 0x461BCD PUSH1 0xE5 SHL DUP2 MSTORE PUSH1 0x20 PUSH1 0x4 DUP3 ADD MSTORE PUSH1 0x23 PUSH1 0x24 DUP3 ADD MSTORE PUSH32 0x45524332303A207472616E7366657220746F20746865207A65726F2061646472 PUSH1 0x44 DUP3 ADD MSTORE PUSH3 0x657373 PUSH1 0xE8 SHL PUSH1 0x64 DUP3 ADD MSTORE PUSH1 0x84 SWAP1 REVERT JUMPDEST PUSH1 0x40 MLOAD PUSH3 0x461BCD PUSH1 0xE5 SHL DUP2 MSTORE PUSH1 0x20 PUSH1 0x4 DUP3 ADD MSTORE PUSH1 0x25 PUSH1 0x24 DUP3 ADD MSTORE PUSH32 0x45524332303A207472616E736665722066726F6D20746865207A65726F206164 PUSH1 0x44 DUP3 ADD MSTORE PUSH5 0x6472657373 PUSH1 0xD8 SHL PUSH1 0x64 DUP3 ADD MSTORE PUSH1 0x84 SWAP1 REVERT JUMPDEST PUSH1 0x1 PUSH1 0x1 PUSH1 0xA0 SHL SUB SWAP1 DUP2 AND SWAP2 DUP3 ISZERO PUSH2 0x1BA5 JUMPI AND SWAP2 DUP3 ISZERO PUSH2 0x1B55 JUMPI PUSH1 0x20 PUSH32 0x8C5BE1E5EBEC7D5BD14F71427D1E84F3DD0314C0F7B2291E5B200AC8C7C3B925 SWAP2 DUP4 PUSH1 0x0 MSTORE PUSH1 0x1 DUP3 MSTORE PUSH1 0x40 PUSH1 0x0 KECCAK256 DUP6 PUSH1 0x0 MSTORE DUP3 MSTORE DUP1 PUSH1 0x40 PUSH1 0x0 KECCAK256 SSTORE PUSH1 0x40 MLOAD SWAP1 DUP2 MSTORE LOG3 JUMP JUMPDEST PUSH1 0x40 MLOAD PUSH3 0x461BCD PUSH1 0xE5 SHL DUP2 MSTORE PUSH1 0x20 PUSH1 0x4 DUP3 ADD MSTORE PUSH1 0x22 PUSH1 0x24 DUP3 ADD MSTORE PUSH32 0x45524332303A20617070726F766520746F20746865207A65726F206164647265 PUSH1 0x44 DUP3 ADD MSTORE PUSH2 0x7373 PUSH1 0xF0 SHL PUSH1 0x64 DUP3 ADD MSTORE PUSH1 0x84 SWAP1 REVERT JUMPDEST PUSH1 0x40 MLOAD PUSH3 0x461BCD PUSH1 0xE5 SHL DUP2 MSTORE PUSH1 0x20 PUSH1 0x4 DUP3 ADD MSTORE PUSH1 0x24 DUP1 DUP3 ADD MSTORE PUSH32 0x45524332303A20617070726F76652066726F6D20746865207A65726F20616464 PUSH1 0x44 DUP3 ADD MSTORE PUSH4 0x72657373 PUSH1 0xE0 SHL PUSH1 0x64 DUP3 ADD MSTORE PUSH1 0x84 SWAP1 REVERT JUMPDEST SWAP1 PUSH1 0x1 DUP1 PUSH1 0xA0 SHL SUB DUP1 DUP4 AND PUSH1 0x0 MSTORE PUSH1 0x1 PUSH1 0x20 MSTORE PUSH1 0x40 PUSH1 0x0 KECCAK256 SWAP1 DUP3 AND PUSH1 0x0 MSTORE PUSH1 0x20 MSTORE PUSH1 0x40 PUSH1 0x0 KECCAK256 SLOAD SWAP3 PUSH1 0x0 NOT DUP5 SUB PUSH2 0x1C2E JUMPI JUMPDEST POP POP POP POP JUMP JUMPDEST DUP1 DUP5 LT PUSH2 0x1C49 JUMPI PUSH2 0x1C40 SWAP4 SUB SWAP2 PUSH2 0x1AF4 JUMP JUMPDEST CODESIZE DUP1 DUP1 DUP1 PUSH2 0x1C28 JUMP JUMPDEST PUSH1 0x40 MLOAD PUSH3 0x461BCD PUSH1 0xE5 SHL DUP2 MSTORE PUSH1 0x20 PUSH1 0x4 DUP3 ADD MSTORE PUSH1 0x1D PUSH1 0x24 DUP3 ADD MSTORE PUSH32 0x45524332303A20696E73756666696369656E7420616C6C6F77616E6365000000 PUSH1 0x44 DUP3 ADD MSTORE PUSH1 0x64 SWAP1 REVERT JUMPDEST PUSH1 0x1 PUSH1 0x1 PUSH1 0xA0 SHL SUB AND DUP1 ISZERO PUSH2 0x1D4E JUMPI PUSH2 0x1CA5 PUSH2 0x2383 JUMP JUMPDEST PUSH1 0x0 SWAP2 DUP2 DUP4 MSTORE DUP3 PUSH1 0x20 MSTORE PUSH1 0x40 DUP4 KECCAK256 SLOAD DUP2 DUP2 LT PUSH2 0x1CFE JUMPI DUP2 PUSH32 0xDDF252AD1BE2C89B69C2B068FC378DAA952BA7F163C4A11628F55A4DF523B3EF SWAP3 PUSH1 0x20 SWAP3 DUP6 DUP8 MSTORE DUP7 DUP5 MSTORE SUB PUSH1 0x40 DUP7 KECCAK256 SSTORE DUP1 PUSH1 0x2 SLOAD SUB PUSH1 0x2 SSTORE PUSH1 0x40 MLOAD SWAP1 DUP2 MSTORE LOG3 JUMP JUMPDEST PUSH1 0x40 MLOAD PUSH3 0x461BCD PUSH1 0xE5 SHL DUP2 MSTORE PUSH1 0x20 PUSH1 0x4 DUP3 ADD MSTORE PUSH1 0x22 PUSH1 0x24 DUP3 ADD MSTORE PUSH32 0x45524332303A206275726E20616D6F756E7420657863656564732062616C616E PUSH1 0x44 DUP3 ADD MSTORE PUSH2 0x6365 PUSH1 0xF0 SHL PUSH1 0x64 DUP3 ADD MSTORE PUSH1 0x84 SWAP1 REVERT JUMPDEST PUSH1 0x40 MLOAD PUSH3 0x461BCD PUSH1 0xE5 SHL DUP2 MSTORE PUSH1 0x20 PUSH1 0x4 DUP3 ADD MSTORE PUSH1 0x21 PUSH1 0x24 DUP3 ADD MSTORE PUSH32 0x45524332303A206275726E2066726F6D20746865207A65726F20616464726573 PUSH1 0x44 DUP3 ADD MSTORE PUSH1 0x73 PUSH1 0xF8 SHL PUSH1 0x64 DUP3 ADD MSTORE PUSH1 0x84 SWAP1 REVERT JUMPDEST PUSH1 0x5 DUP2 LT ISZERO PUSH2 0x1EA1 JUMPI DUP1 PUSH2 0x1DAE JUMPI POP JUMP JUMPDEST PUSH1 0x1 DUP2 SUB PUSH2 0x1DFB JUMPI PUSH1 0x40 MLOAD PUSH3 0x461BCD PUSH1 0xE5 SHL DUP2 MSTORE PUSH1 0x20 PUSH1 0x4 DUP3 ADD MSTORE PUSH1 0x18 PUSH1 0x24 DUP3 ADD MSTORE PUSH32 0x45434453413A20696E76616C6964207369676E61747572650000000000000000 PUSH1 0x44 DUP3 ADD MSTORE PUSH1 0x64 SWAP1 REVERT JUMPDEST PUSH1 0x2 DUP2 SUB PUSH2 0x1E48 JUMPI PUSH1 0x40 MLOAD PUSH3 0x461BCD PUSH1 0xE5 SHL DUP2 MSTORE PUSH1 0x20 PUSH1 0x4 DUP3 ADD MSTORE PUSH1 0x1F PUSH1 0x24 DUP3 ADD MSTORE PUSH32 0x45434453413A20696E76616C6964207369676E6174757265206C656E67746800 PUSH1 0x44 DUP3 ADD MSTORE PUSH1 0x64 SWAP1 REVERT JUMPDEST PUSH1 0x3 EQ PUSH2 0x1E51 JUMPI JUMP JUMPDEST PUSH1 0x40 MLOAD PUSH3 0x461BCD PUSH1 0xE5 SHL DUP2 MSTORE PUSH1 0x20 PUSH1 0x4 DUP3 ADD MSTORE PUSH1 0x22 PUSH1 0x24 DUP3 ADD MSTORE PUSH32 0x45434453413A20696E76616C6964207369676E6174757265202773272076616C PUSH1 0x44 DUP3 ADD MSTORE PUSH2 0x7565 PUSH1 0xF0 SHL PUSH1 0x64 DUP3 ADD MSTORE PUSH1 0x84 SWAP1 REVERT JUMPDEST PUSH4 0x4E487B71 PUSH1 0xE0 SHL PUSH1 0x0 MSTORE PUSH1 0x21 PUSH1 0x4 MSTORE PUSH1 0x24 PUSH1 0x0 REVERT JUMPDEST SWAP3 SWAP2 SWAP1 PUSH32 0x7FFFFFFFFFFFFFFFFFFFFFFFFFFFFFFF5D576E7357A4501DDFE92F46681B20A0 DUP4 GT PUSH2 0x1F3A JUMPI SWAP2 PUSH1 0x80 SWAP5 SWAP4 SWAP2 PUSH1 0xFF PUSH1 0x20 SWAP5 PUSH1 0x40 MLOAD SWAP5 DUP6 MSTORE AND DUP5 DUP5 ADD MSTORE PUSH1 0x40 DUP4 ADD MSTORE PUSH1 0x60 DUP3 ADD MSTORE PUSH1 0x0 SWAP4 DUP5 SWAP2 DUP3 DUP1 MSTORE PUSH1 0x1 GAS STATICCALL ISZERO PUSH2 0x1F2D JUMPI DUP2 MLOAD PUSH1 0x1 PUSH1 0x1 PUSH1 0xA0 SHL SUB DUP2 AND ISZERO PUSH2 0x1F27 JUMPI SWAP2 SWAP1 JUMP JUMPDEST POP PUSH1 0x1 SWAP1 JUMP JUMPDEST POP PUSH1 0x40 MLOAD SWAP1 RETURNDATASIZE SWAP1 DUP3 RETURNDATACOPY RETURNDATASIZE SWAP1 REVERT JUMPDEST POP POP POP POP PUSH1 0x0 SWAP1 PUSH1 0x3 SWAP1 JUMP JUMPDEST ADDRESS PUSH32 0x0 PUSH1 0x1 PUSH1 0x1 PUSH1 0xA0 SHL SUB AND EQ DUP1 PUSH2 0x2048 JUMPI JUMPDEST ISZERO PUSH2 0x1FA1 JUMPI PUSH32 0x0 SWAP1 JUMP JUMPDEST PUSH1 0x40 MLOAD PUSH1 0x20 DUP2 ADD SWAP1 PUSH32 0x8B73C3C69BB8FE3D512ECC4CF759CC79239F7B179B0FFACAA9A75D522B39400F DUP3 MSTORE PUSH32 0x0 PUSH1 0x40 DUP3 ADD MSTORE PUSH32 0x0 PUSH1 0x60 DUP3 ADD MSTORE CHAINID PUSH1 0x80 DUP3 ADD MSTORE ADDRESS PUSH1 0xA0 DUP3 ADD MSTORE PUSH1 0xA0 DUP2 MSTORE PUSH1 0xC0 DUP2 ADD DUP2 DUP2 LT PUSH8 0xFFFFFFFFFFFFFFFF DUP3 GT OR PUSH2 0x1837 JUMPI PUSH1 0x40 MSTORE MLOAD SWAP1 KECCAK256 SWAP1 JUMP JUMPDEST POP PUSH32 0x0 CHAINID EQ PUSH2 0x1F78 JUMP JUMPDEST PUSH1 0xFF DUP2 EQ PUSH2 0x20AF JUMPI PUSH1 0xFF DUP2 AND SWAP1 PUSH1 0x1F DUP3 GT PUSH2 0x209D JUMPI PUSH1 0x40 MLOAD SWAP2 PUSH2 0x2093 DUP4 PUSH2 0x181B JUMP JUMPDEST DUP3 MSTORE PUSH1 0x20 DUP3 ADD MSTORE SWAP1 JUMP JUMPDEST PUSH1 0x40 MLOAD PUSH4 0x2CD44AC3 PUSH1 0xE2 SHL DUP2 MSTORE PUSH1 0x4 SWAP1 REVERT JUMPDEST POP PUSH1 0x40 MLOAD PUSH1 0x6 SLOAD DUP2 PUSH1 0x0 PUSH2 0x20C2 DUP4 PUSH2 0x1921 JUMP JUMPDEST DUP1 DUP4 MSTORE SWAP3 PUSH1 0x1 SWAP1 DUP2 DUP2 AND SWAP1 DUP2 ISZERO PUSH2 0x214B JUMPI POP PUSH1 0x1 EQ PUSH2 0x20EC JUMPI JUMPDEST POP PUSH2 0x20E9 SWAP3 POP SUB DUP3 PUSH2 0x184D JUMP JUMPDEST SWAP1 JUMP JUMPDEST PUSH1 0x6 PUSH1 0x0 SWAP1 DUP2 MSTORE SWAP2 POP PUSH32 0xF652222313E28459528D920B65115C16C04F3EFC82AAEDC97BE59F3F377C0D3F JUMPDEST DUP5 DUP4 LT PUSH2 0x2130 JUMPI POP PUSH2 0x20E9 SWAP4 POP POP DUP2 ADD PUSH1 0x20 ADD CODESIZE PUSH2 0x20DC JUMP JUMPDEST DUP2 SWAP4 POP SWAP1 DUP2 PUSH1 0x20 SWAP3 SLOAD DUP4 DUP6 DUP10 ADD ADD MSTORE ADD SWAP2 ADD SWAP1 SWAP2 DUP5 SWAP3 PUSH2 0x2117 JUMP JUMPDEST SWAP1 POP PUSH1 0x20 SWAP3 POP PUSH2 0x20E9 SWAP5 SWAP2 POP PUSH1 0xFF NOT AND DUP3 DUP5 ADD MSTORE ISZERO ISZERO PUSH1 0x5 SHL DUP3 ADD ADD CODESIZE PUSH2 0x20DC JUMP JUMPDEST PUSH1 0xFF DUP2 EQ PUSH2 0x218F JUMPI PUSH1 0xFF DUP2 AND SWAP1 PUSH1 0x1F DUP3 GT PUSH2 0x209D JUMPI PUSH1 0x40 MLOAD SWAP2 PUSH2 0x2093 DUP4 PUSH2 0x181B JUMP JUMPDEST POP PUSH1 0x40 MLOAD PUSH1 0x7 SLOAD DUP2 PUSH1 0x0 PUSH2 0x21A2 DUP4 PUSH2 0x1921 JUMP JUMPDEST DUP1 DUP4 MSTORE SWAP3 PUSH1 0x1 SWAP1 DUP2 DUP2 AND SWAP1 DUP2 ISZERO PUSH2 0x214B JUMPI POP PUSH1 0x1 EQ PUSH2 0x21C8 JUMPI POP PUSH2 0x20E9 SWAP3 POP SUB DUP3 PUSH2 0x184D JUMP JUMPDEST PUSH1 0x7 PUSH1 0x0 SWAP1 DUP2 MSTORE SWAP2 POP PUSH32 0xA66CC928B5EDB82AF9BD49922954155AB7B0942694BEA4CE44661D9A8736C688 JUMPDEST DUP5 DUP4 LT PUSH2 0x220C JUMPI POP PUSH2 0x20E9 SWAP4 POP POP DUP2 ADD PUSH1 0x20 ADD CODESIZE PUSH2 0x20DC JUMP JUMPDEST DUP2 SWAP4 POP SWAP1 DUP2 PUSH1 0x20 SWAP3 SLOAD DUP4 DUP6 DUP10 ADD ADD MSTORE ADD SWAP2 ADD SWAP1 SWAP2 DUP5 SWAP3 PUSH2 0x21F3 JUMP JUMPDEST ISZERO PUSH2 0x222E JUMPI JUMP JUMPDEST PUSH1 0x40 MLOAD PUSH3 0x461BCD PUSH1 0xE5 SHL DUP2 MSTORE PUSH1 0x20 PUSH1 0x4 DUP3 ADD MSTORE PUSH1 0x24 DUP1 DUP3 ADD MSTORE PUSH32 0x4E6F7420617574686F72697A656420746F206469737472696275746520726577 PUSH1 0x44 DUP3 ADD MSTORE PUSH4 0x61726473 PUSH1 0xE0 SHL PUSH1 0x64 DUP3 ADD MSTORE PUSH1 0x84 SWAP1 REVERT JUMPDEST SWAP2 SWAP1 DUP3 SUB SWAP2 DUP3 GT PUSH2 0x1968 JUMPI JUMP JUMPDEST PUSH1 0x1 PUSH1 0x1 PUSH1 0xA0 SHL SUB AND SWAP1 DUP2 ISZERO PUSH2 0x22F2 JUMPI PUSH32 0xDDF252AD1BE2C89B69C2B068FC378DAA952BA7F163C4A11628F55A4DF523B3EF PUSH1 0x20 PUSH1 0x0 SWAP3 PUSH2 0x22CA PUSH2 0x2383 JUMP JUMPDEST PUSH2 0x22D6 DUP2 PUSH1 0x2 SLOAD PUSH2 0x195B JUMP JUMPDEST PUSH1 0x2 SSTORE DUP5 DUP5 MSTORE DUP4 DUP3 MSTORE PUSH1 0x40 DUP5 KECCAK256 DUP2 DUP2 SLOAD ADD SWAP1 SSTORE PUSH1 0x40 MLOAD SWAP1 DUP2 MSTORE LOG3 JUMP JUMPDEST PUSH1 0x40 MLOAD PUSH3 0x461BCD PUSH1 0xE5 SHL DUP2 MSTORE PUSH1 0x20 PUSH1 0x4 DUP3 ADD MSTORE PUSH1 0x1F PUSH1 0x24 DUP3 ADD MSTORE PUSH32 0x45524332303A206D696E7420746F20746865207A65726F206164647265737300 PUSH1 0x44 DUP3 ADD MSTORE PUSH1 0x64 SWAP1 REVERT JUMPDEST ISZERO PUSH2 0x233E JUMPI JUMP JUMPDEST PUSH1 0x40 MLOAD PUSH3 0x461BCD PUSH1 0xE5 SHL DUP2 MSTORE PUSH1 0x20 PUSH1 0x4 DUP3 ADD MSTORE PUSH1 0x1D PUSH1 0x24 DUP3 ADD MSTORE PUSH32 0x416D6F756E74206D7573742062652067726561746572207468616E2030000000 PUSH1 0x44 DUP3 ADD MSTORE PUSH1 0x64 SWAP1 REVERT JUMPDEST PUSH1 0xFF PUSH1 0x5 SLOAD AND PUSH2 0x238F JUMPI JUMP JUMPDEST PUSH1 0x40 MLOAD PUSH3 0x461BCD PUSH1 0xE5 SHL DUP2 MSTORE PUSH1 0x20 PUSH1 0x4 DUP3 ADD MSTORE PUSH1 0x10 PUSH1 0x24 DUP3 ADD MSTORE PUSH16 0x14185D5CD8589B194E881C185D5CD959 PUSH1 0x82 SHL PUSH1 0x44 DUP3 ADD MSTORE PUSH1 0x64 SWAP1 REVERT JUMPDEST DUP2 DUP2 MUL SWAP3 SWAP2 DUP2 ISZERO SWAP2 DUP5 DIV EQ OR ISZERO PUSH2 0x1968 JUMPI JUMP JUMPDEST PUSH1 0x0 CALLER DUP2 MSTORE PUSH1 0x11 PUSH1 0x20 MSTORE PUSH1 0x40 PUSH5 0x496CEBB800 PUSH2 0x2419 PUSH2 0x23FC DUP4 DUP6 KECCAK256 SLOAD TIMESTAMP PUSH2 0x227F JUMP JUMPDEST CALLER DUP6 MSTORE PUSH1 0x10 PUSH1 0x20 MSTORE PUSH2 0x2414 DUP5 DUP7 KECCAK256 SLOAD PUSH1 0x13 SLOAD SWAP1 PUSH2 0x23C7 JUMP JUMPDEST PUSH2 0x23C7 JUMP JUMPDEST DIV SWAP2 DUP3 ISZERO ISZERO DUP1 PUSH2 0x2496 JUMPI JUMPDEST PUSH2 0x242D JUMPI POP POP POP JUMP JUMPDEST PUSH1 0x27 DUP3 MLOAD PUSH7 0x7374616B696E67 PUSH1 0xC8 SHL DUP2 MSTORE PUSH1 0xE PUSH1 0x7 DUP3 ADD MSTORE KECCAK256 PUSH2 0x2451 DUP5 DUP3 SLOAD PUSH2 0x227F JUMP JUMPDEST SWAP1 SSTORE PUSH2 0x245D DUP4 CALLER PUSH2 0x228C JUMP JUMPDEST CALLER DUP2 MSTORE PUSH1 0x11 PUSH1 0x20 MSTORE DUP2 TIMESTAMP SWAP2 KECCAK256 SSTORE MLOAD SWAP1 DUP2 MSTORE PUSH32 0x6DD401E61BA732582A5EBA3D54CCC3AFB3609CD3AC1A166D1D36F75FC0AEDCDA PUSH1 0x20 CALLER SWAP3 LOG2 JUMP JUMPDEST POP PUSH1 0x27 DUP3 MLOAD PUSH7 0x7374616B696E67 PUSH1 0xC8 SHL DUP2 MSTORE PUSH1 0xE PUSH1 0x7 DUP3 ADD MSTORE KECCAK256 SLOAD DUP4 GT ISZERO PUSH2 0x2424 JUMP JUMPDEST PUSH1 0x1 PUSH1 0x1 PUSH1 0xA0 SHL SUB AND PUSH1 0x0 DUP2 DUP2 MSTORE PUSH1 0x10 PUSH1 0x20 MSTORE PUSH1 0x40 DUP2 KECCAK256 SLOAD SWAP1 SWAP2 SWAP1 ISZERO PUSH2 0x2512 JUMPI PUSH2 0x250E SWAP1 PUSH2 0x2414 PUSH1 0x40 PUSH5 0x496CEBB800 SWAP5 PUSH1 0x11 PUSH1 0x20 MSTORE PUSH2 0x24FB DUP3 DUP3 KECCAK256 SLOAD TIMESTAMP PUSH2 0x227F JUMP JUMPDEST SWAP4 DUP2 MSTORE PUSH1 0x10 PUSH1 0x20 MSTORE KECCAK256 SLOAD PUSH1 0x13 SLOAD SWAP1 PUSH2 0x23C7 JUMP JUMPDEST DIV SWAP1 JUMP JUMPDEST POP SWAP1 JUMP JUMPDEST ISZERO PUSH2 0x251D JUMPI JUMP JUMPDEST PUSH1 0x40 MLOAD PUSH3 0x461BCD PUSH1 0xE5 SHL DUP2 MSTORE PUSH1 0x20 PUSH1 0x4 DUP3 ADD MSTORE PUSH1 0x17 PUSH1 0x24 DUP3 ADD MSTORE PUSH32 0x576F756C6420657863656564206D617820737570706C79000000000000000000 PUSH1 0x44 DUP3 ADD MSTORE PUSH1 0x64 SWAP1 REVERT INVALID 0x49 PUSH5 0x9141D16971 0xA8 DUP13 EXTCODECOPY REVERT 0xD7 EXTCODEHASH 0xEC CALLVALUE 0xBA 0xBB SHR CALL PUSH4 0xCF8B804C DUP16 MSTORE8 PUSH27 0x23C6CE506A2646970667358221220626F1EFB694B025A388DA3A3 MUL SWAP14 GASPRICE 0xEA 0x2B 0x2A 0x2A 0xF7 0xB2 0xEF 0xA9 PUSH11 0xFB014FB279B3968064736F PUSH13 0x63430008130033000000000000 "},"methodIdentifiers":{"DOMAIN_SEPARATOR()":"3644e515","INITIAL_SUPPLY()":"2ff2e9dc","MAX_SUPPLY()":"32cb6b0c","addRewardDistributor(address)":"1c96e950","addToRewardPool(string,uint256)":"a4d1deca","agentCommissionReward()":"33290145","allowance(address,address)":"dd62ed3e","approve(address,uint256)":"095ea7b3","balanceOf(address)":"70a08231","burn(uint256)":"42966c68","burnFrom(address,uint256)":"79cc6790","claimStakingReward()":"afc695ce","decimals()":"313ce567","decreaseAllowance(address,uint256)":"a457c2d7","distributeAgentReward(address)":"072d11e9","distributeLoanReward(address)":"0bd9ec2c","distributeReferralReward(address)":"19901368","distributeSavingsReward(address)":"1374a524","eip712Domain()":"84b0196e","getPendingStakingReward(address)":"ef59da63","getVotingPower(address)":"bb4d4436","increaseAllowance(address,uint256)":"39509351","loanRepaymentReward()":"6982a77f","mintForEcosystem(address,uint256)":"19e6af1c","name()":"06fdde03","nonces(address)":"7ecebe00","owner()":"8da5cb5b","pause()":"8456cb59","paused()":"5c975abb","permit(address,address,uint256,uint256,uint8,bytes32,bytes32)":"d505accf","referralReward()":"4d683674","removeRewardDistributor(address)":"bb6d890f","renounceOwnership()":"715018a6","rewardDistributors(address)":"a9c12f0c","rewardPools(string)":"c49f4797","savingsReward()":"7a40ecf1","stakeTokens(uint256)":"7547c7a3","stakedBalance(address)":"60217267","stakingRewardRate()":"4f3fc2df","stakingTimestamp(address)":"8f0794fe","symbol()":"95d89b41","totalStaked()":"817b1cd2","totalSupply()":"18160ddd","transfer(address,uint256)":"a9059cbb","transferFrom(address,address,uint256)":"23b872dd","transferOwnership(address)":"f2fde38b","unpause()":"3f4ba83a","unstakeTokens(uint256)":"608e4dd0","updateRewardRates(uint256,uint256,uint256,uint256)":"1dd5109e","updateStakingRewardRate(uint256)":"456aaa3f"}},"storageLayout":{"storage":[{"astId":326,"contract":"contracts/VillageToken.sol:VillageToken","label":"_balances","offset":0,"slot":"0","type":"t_mapping(t_address,t_uint256)"},{"astId":332,"contract":"contracts/VillageToken.sol:VillageToken","label":"_allowances","offset":0,"slot":"1","type":"t_mapping(t_address,t_mapping(t_address,t_uint256))"},{"astId":334,"contract":"contracts/VillageToken.sol:VillageToken","label":"_totalSupply","offset":0,"slot":"2","type":"t_uint256"},{"astId":336,"contract":"contracts/VillageToken.sol:VillageToken","label":"_name","offset":0,"slot":"3","type":"t_string_storage"},{"astId":338,"contract":"contracts/VillageToken.sol:VillageToken","label":"_symbol","offset":0,"slot":"4","type":"t_string_storage"},{"astId":155,"contract":"contracts/VillageToken.sol:VillageToken","label":"_paused","offset":0,"slot":"5","type":"t_bool"},{"astId":7,"contract":"contracts/VillageToken.sol:VillageToken","label":"_owner","offset":1,"slot":"5","type":"t_address"},{"astId":3016,"contract":"contracts/VillageToken.sol:VillageToken","label":"_nameFallback","offset":0,"slot":"6","type":"t_string_storage"},{"astId":3018,"contract":"contracts/VillageToken.sol:VillageToken","label":"_versionFallback","offset":0,"slot":"7","type":"t_string_storage"},{"astId":1042,"contract":"contracts/VillageToken.sol:VillageToken","label":"_nonces","offset":0,"slot":"8","type":"t_mapping(t_address,t_struct(Counter)1994_storage)"},{"astId":1050,"contract":"contracts/VillageToken.sol:VillageToken","label":"_PERMIT_TYPEHASH_DEPRECATED_SLOT","offset":0,"slot":"9","type":"t_bytes32"},{"astId":8109,"contract":"contracts/VillageToken.sol:VillageToken","label":"savingsReward","offset":0,"slot":"10","type":"t_uint256"},{"astId":8116,"contract":"contracts/VillageToken.sol:VillageToken","label":"loanRepaymentReward","offset":0,"slot":"11","type":"t_uint256"},{"astId":8123,"contract":"contracts/VillageToken.sol:VillageToken","label":"referralReward","offset":0,"slot":"12","type":"t_uint256"},{"astId":8130,"contract":"contracts/VillageToken.sol:VillageToken","label":"agentCommissionReward","offset":0,"slot":"13","type":"t_uint256"},{"astId":8134,"contract":"contracts/VillageToken.sol:VillageToken","label":"rewardPools","offset":0,"slot":"14","type":"t_mapping(t_string_memory_ptr,t_uint256)"},{"astId":8138,"contract":"contracts/VillageToken.sol:VillageToken","label":"rewardDistributors","offset":0,"slot":"15","type":"t_mapping(t_address,t_bool)"},{"astId":8142,"contract":"contracts/VillageToken.sol:VillageToken","label":"stakedBalance","offset":0,"slot":"16","type":"t_mapping(t_address,t_uint256)"},{"astId":8146,"contract":"contracts/VillageToken.sol:VillageToken","label":"stakingTimestamp","offset":0,"slot":"17","type":"t_mapping(t_address,t_uint256)"},{"astId":8148,"contract":"contracts/VillageToken.sol:VillageToken","label":"totalStaked","offset":0,"slot":"18","type":"t_uint256"},{"astId":8151,"contract":"contracts/VillageToken.sol:VillageToken","label":"stakingRewardRate","offset":0,"slot":"19","type":"t_uint256"}],"types":{"t_address":{"encoding":"inplace","label":"address","numberOfBytes":"20"},"t_bool":{"encoding":"inplace","label":"bool","numberOfBytes":"1"},"t_bytes32":{"encoding":"inplace","label":"bytes32","numberOfBytes":"32"},"t_mapping(t_address,t_bool)":{"encoding":"mapping","key":"t_address","label":"mapping(address => bool)","numberOfBytes":"32","value":"t_bool"},"t_mapping(t_address,t_mapping(t_address,t_uint256))":{"encoding":"mapping","key":"t_address","label":"mapping(address => mapping(address => uint256))","numberOfBytes":"32","value":"t_mapping(t_address,t_uint256)"},"t_mapping(t_address,t_struct(Counter)1994_storage)":{"encoding":"mapping","key":"t_address","label":"mapping(address => struct Counters.Counter)","numberOfBytes":"32","value":"t_struct(Counter)1994_storage"},"t_mapping(t_address,t_uint256)":{"encoding":"mapping","key":"t_address","label":"mapping(address => uint256)","numberOfBytes":"32","value":"t_uint256"},"t_mapping(t_string_memory_ptr,t_uint256)":{"encoding":"mapping","key":"t_string_memory_ptr","label":"mapping(string => uint256)","numberOfBytes":"32","value":"t_uint256"},"t_string_memory_ptr":{"encoding":"bytes","label":"string","numberOfBytes":"32"},"t_string_storage":{"encoding":"bytes","label":"string","numberOfBytes":"32"},"t_struct(Counter)1994_storage":{"encoding":"inplace","label":"struct Counters.Counter","members":[{"astId":1993,"contract":"contracts/VillageToken.sol:VillageToken","label":"_value","offset":0,"slot":"0","type":"t_uint256"}],"numberOfBytes":"32"},"t_uint256":{"encoding":"inplace","label":"uint256","numberOfBytes":"32"}}}}}}