{
  "_format": "hh-sol-artifact-1",
  "contractName": "SavingsGroup",
  "sourceName": "contracts/SavingsGroup.sol",
  "abi": [
    {
      "inputs": [
        {
          "internalType": "string",
          "name": "_groupName",
          "type": "string"
        },
        {
          "internalType": "address",
          "name": "_celoToken",
          "type": "address"
        },
        {
          "internalType": "uint256",
          "name": "_minimumContribution",
          "type": "uint256"
        },
        {
          "internalType": "uint256",
          "name": "_maxLoanAmount",
          "type": "uint256"
        },
        {
          "internalType": "uint256",
          "name": "_defaultInterestRate",
          "type": "uint256"
        },
        {
          "internalType": "address",
          "name": "_groupAdmin",
          "type": "address"
        }
      ],
      "stateMutability": "nonpayable",
      "type": "constructor"
    },
    {
      "anonymous": false,
      "inputs": [
        {
          "indexed": true,
          "internalType": "address",
          "name": "member",
          "type": "address"
        },
        {
          "indexed": false,
          "internalType": "uint256",
          "name": "amount",
          "type": "uint256"
        },
        {
          "indexed": false,
          "internalType": "uint256",
          "name": "cycleId",
          "type": "uint256"
        }
      ],
      "name": "ContributionMade",
      "type": "event"
    },
    {
      "anonymous": false,
      "inputs": [
        {
          "indexed": true,
          "internalType": "uint256",
          "name": "cycleId",
          "type": "uint256"
        },
        {
          "indexed": false,
          "internalType": "uint256",
          "name": "totalCollected",
          "type": "uint256"
        }
      ],
      "name": "CycleCompleted",
      "type": "event"
    },
    {
      "anonymous": false,
      "inputs": [
        {
          "indexed": true,
          "internalType": "uint256",
          "name": "cycleId",
          "type": "uint256"
        },
        {
          "indexed": false,
          "internalType": "uint256",
          "name": "targetAmount",
          "type": "uint256"
        },
        {
          "indexed": false,
          "internalType": "uint256",
          "name": "duration",
          "type": "uint256"
        }
      ],
      "name": "CycleStarted",
      "type": "event"
    },
    {
      "anonymous": false,
      "inputs": [
        {
          "indexed": true,
          "internalType": "uint256",
          "name": "loanId",
          "type": "uint256"
        },
        {
          "indexed": true,
          "internalType": "address",
          "name": "borrower",
          "type": "address"
        },
        {
          "indexed": false,
          "internalType": "uint256",
          "name": "amount",
          "type": "uint256"
        }
      ],
      "name": "LoanApproved",
      "type": "event"
    },
    {
      "anonymous": false,
      "inputs": [
        {
          "indexed": true,
          "internalType": "uint256",
          "name": "loanId",
          "type": "uint256"
        },
        {
          "indexed": true,
          "internalType": "address",
          "name": "borrower",
          "type": "address"
        },
        {
          "indexed": false,
          "internalType": "uint256",
          "name": "amount",
          "type": "uint256"
        }
      ],
      "name": "LoanRepayment",
      "type": "event"
    },
    {
      "anonymous": false,
      "inputs": [
        {
          "indexed": true,
          "internalType": "uint256",
          "name": "loanId",
          "type": "uint256"
        },
        {
          "indexed": true,
          "internalType": "address",
          "name": "borrower",
          "type": "address"
        },
        {
          "indexed": false,
          "internalType": "uint256",
          "name": "amount",
          "type": "uint256"
        }
      ],
      "name": "LoanRequested",
      "type": "event"
    },
    {
      "anonymous": false,
      "inputs": [
        {
          "indexed": true,
          "internalType": "address",
          "name": "member",
          "type": "address"
        },
        {
          "indexed": false,
          "internalType": "uint256",
          "name": "timestamp",
          "type": "uint256"
        }
      ],
      "name": "MemberAdded",
      "type": "event"
    },
    {
      "anonymous": false,
      "inputs": [
        {
          "indexed": true,
          "internalType": "address",
          "name": "member",
          "type": "address"
        },
        {
          "indexed": false,
          "internalType": "uint256",
          "name": "timestamp",
          "type": "uint256"
        }
      ],
      "name": "MemberRemoved",
      "type": "event"
    },
    {
      "anonymous": false,
      "inputs": [
        {
          "indexed": true,
          "internalType": "bytes32",
          "name": "role",
          "type": "bytes32"
        },
        {
          "indexed": true,
          "internalType": "bytes32",
          "name": "previousAdminRole",
          "type": "bytes32"
        },
        {
          "indexed": true,
          "internalType": "bytes32",
          "name": "newAdminRole",
          "type": "bytes32"
        }
      ],
      "name": "RoleAdminChanged",
      "type": "event"
    },
    {
      "anonymous": false,
      "inputs": [
        {
          "indexed": true,
          "internalType": "bytes32",
          "name": "role",
          "type": "bytes32"
        },
        {
          "indexed": true,
          "internalType": "address",
          "name": "account",
          "type": "address"
        },
        {
          "indexed": true,
          "internalType": "address",
          "name": "sender",
          "type": "address"
        }
      ],
      "name": "RoleGranted",
      "type": "event"
    },
    {
      "anonymous": false,
      "inputs": [
        {
          "indexed": true,
          "internalType": "bytes32",
          "name": "role",
          "type": "bytes32"
        },
        {
          "indexed": true,
          "internalType": "address",
          "name": "account",
          "type": "address"
        },
        {
          "indexed": true,
          "internalType": "address",
          "name": "sender",
          "type": "address"
        }
      ],
      "name": "RoleRevoked",
      "type": "event"
    },
    {
      "inputs": [],
      "name": "DEFAULT_ADMIN_ROLE",
      "outputs": [
        {
          "internalType": "bytes32",
          "name": "",
          "type": "bytes32"
        }
      ],
      "stateMutability": "view",
      "type": "function"
    },
    {
      "inputs": [],
      "name": "GROUP_ADMIN_ROLE",
      "outputs": [
        {
          "internalType": "bytes32",
          "name": "",
          "type": "bytes32"
        }
      ],
      "stateMutability": "view",
      "type": "function"
    },
    {
      "inputs": [],
      "name": "MEMBER_ROLE",
      "outputs": [
        {
          "internalType": "bytes32",
          "name": "",
          "type": "bytes32"
        }
      ],
      "stateMutability": "view",
      "type": "function"
    },
    {
      "inputs": [
        {
          "internalType": "address",
          "name": "_member",
          "type": "address"
        }
      ],
      "name": "addMember",
      "outputs": [],
      "stateMutability": "nonpayable",
      "type": "function"
    },
    {
      "inputs": [
        {
          "internalType": "uint256",
          "name": "_loanId",
          "type": "uint256"
        }
      ],
      "name": "approveLoan",
      "outputs": [],
      "stateMutability": "nonpayable",
      "type": "function"
    },
    {
      "inputs": [],
      "name": "celoToken",
      "outputs": [
        {
          "internalType": "contract IERC20",
          "name": "",
          "type": "address"
        }
      ],
      "stateMutability": "view",
      "type": "function"
    },
    {
      "inputs": [
        {
          "internalType": "uint256",
          "name": "",
          "type": "uint256"
        }
      ],
      "name": "contributionCycles",
      "outputs": [
        {
          "internalType": "uint256",
          "name": "cycleId",
          "type": "uint256"
        },
        {
          "internalType": "uint256",
          "name": "targetAmount",
          "type": "uint256"
        },
        {
          "internalType": "uint256",
          "name": "currentAmount",
          "type": "uint256"
        },
        {
          "internalType": "uint256",
          "name": "startDate",
          "type": "uint256"
        },
        {
          "internalType": "uint256",
          "name": "endDate",
          "type": "uint256"
        },
        {
          "internalType": "bool",
          "name": "isActive",
          "type": "bool"
        }
      ],
      "stateMutability": "view",
      "type": "function"
    },
    {
      "inputs": [],
      "name": "creationDate",
      "outputs": [
        {
          "internalType": "uint256",
          "name": "",
          "type": "uint256"
        }
      ],
      "stateMutability": "view",
      "type": "function"
    },
    {
      "inputs": [],
      "name": "currentCycleId",
      "outputs": [
        {
          "internalType": "uint256",
          "name": "",
          "type": "uint256"
        }
      ],
      "stateMutability": "view",
      "type": "function"
    },
    {
      "inputs": [],
      "name": "defaultInterestRate",
      "outputs": [
        {
          "internalType": "uint256",
          "name": "",
          "type": "uint256"
        }
      ],
      "stateMutability": "view",
      "type": "function"
    },
    {
      "inputs": [],
      "name": "getCurrentCycleInfo",
      "outputs": [
        {
          "internalType": "uint256",
          "name": "cycleId",
          "type": "uint256"
        },
        {
          "internalType": "uint256",
          "name": "targetAmount",
          "type": "uint256"
        },
        {
          "internalType": "uint256",
          "name": "currentAmount",
          "type": "uint256"
        },
        {
          "internalType": "uint256",
          "name": "startDate",
          "type": "uint256"
        },
        {
          "internalType": "uint256",
          "name": "endDate",
          "type": "uint256"
        },
        {
          "internalType": "bool",
          "name": "isActive",
          "type": "bool"
        }
      ],
      "stateMutability": "view",
      "type": "function"
    },
    {
      "inputs": [
        {
          "internalType": "uint256",
          "name": "_loanId",
          "type": "uint256"
        }
      ],
      "name": "getLoanInfo",
      "outputs": [
        {
          "components": [
            {
              "internalType": "uint256",
              "name": "loanId",
              "type": "uint256"
            },
            {
              "internalType": "address",
              "name": "borrower",
              "type": "address"
            },
            {
              "internalType": "uint256",
              "name": "amount",
              "type": "uint256"
            },
            {
              "internalType": "uint256",
              "name": "interestRate",
              "type": "uint256"
            },
            {
              "internalType": "uint256",
              "name": "duration",
              "type": "uint256"
            },
            {
              "internalType": "uint256",
              "name": "startDate",
              "type": "uint256"
            },
            {
              "internalType": "uint256",
              "name": "repaidAmount",
              "type": "uint256"
            },
            {
              "internalType": "bool",
              "name": "isActive",
              "type": "bool"
            },
            {
              "internalType": "bool",
              "name": "isApproved",
              "type": "bool"
            },
            {
              "internalType": "uint256",
              "name": "collateralAmount",
              "type": "uint256"
            }
          ],
          "internalType": "struct SavingsGroup.Loan",
          "name": "",
          "type": "tuple"
        }
      ],
      "stateMutability": "view",
      "type": "function"
    },
    {
      "inputs": [
        {
          "internalType": "address",
          "name": "_member",
          "type": "address"
        },
        {
          "internalType": "uint256",
          "name": "_cycleId",
          "type": "uint256"
        }
      ],
      "name": "getMemberContributionInCycle",
      "outputs": [
        {
          "internalType": "uint256",
          "name": "",
          "type": "uint256"
        }
      ],
      "stateMutability": "view",
      "type": "function"
    },
    {
      "inputs": [
        {
          "internalType": "address",
          "name": "_member",
          "type": "address"
        }
      ],
      "name": "getMemberInfo",
      "outputs": [
        {
          "components": [
            {
              "internalType": "address",
              "name": "memberAddress",
              "type": "address"
            },
            {
              "internalType": "uint256",
              "name": "totalContributions",
              "type": "uint256"
            },
            {
              "internalType": "uint256",
              "name": "totalLoans",
              "type": "uint256"
            },
            {
              "internalType": "uint256",
              "name": "totalRepayments",
              "type": "uint256"
            },
            {
              "internalType": "bool",
              "name": "isActive",
              "type": "bool"
            },
            {
              "internalType": "uint256",
              "name": "joinDate",
              "type": "uint256"
            },
            {
              "internalType": "uint256",
              "name": "creditScore",
              "type": "uint256"
            }
          ],
          "internalType": "struct SavingsGroup.Member",
          "name": "",
          "type": "tuple"
        }
      ],
      "stateMutability": "view",
      "type": "function"
    },
    {
      "inputs": [
        {
          "internalType": "bytes32",
          "name": "role",
          "type": "bytes32"
        }
      ],
      "name": "getRoleAdmin",
      "outputs": [
        {
          "internalType": "bytes32",
          "name": "",
          "type": "bytes32"
        }
      ],
      "stateMutability": "view",
      "type": "function"
    },
    {
      "inputs": [
        {
          "internalType": "bytes32",
          "name": "role",
          "type": "bytes32"
        },
        {
          "internalType": "address",
          "name": "account",
          "type": "address"
        }
      ],
      "name": "grantRole",
      "outputs": [],
      "stateMutability": "nonpayable",
      "type": "function"
    },
    {
      "inputs": [],
      "name": "groupBalance",
      "outputs": [
        {
          "internalType": "uint256",
          "name": "",
          "type": "uint256"
        }
      ],
      "stateMutability": "view",
      "type": "function"
    },
    {
      "inputs": [],
      "name": "groupName",
      "outputs": [
        {
          "internalType": "string",
          "name": "",
          "type": "string"
        }
      ],
      "stateMutability": "view",
      "type": "function"
    },
    {
      "inputs": [
        {
          "internalType": "bytes32",
          "name": "role",
          "type": "bytes32"
        },
        {
          "internalType": "address",
          "name": "account",
          "type": "address"
        }
      ],
      "name": "hasRole",
      "outputs": [
        {
          "internalType": "bool",
          "name": "",
          "type": "bool"
        }
      ],
      "stateMutability": "view",
      "type": "function"
    },
    {
      "inputs": [
        {
          "internalType": "uint256",
          "name": "",
          "type": "uint256"
        }
      ],
      "name": "loans",
      "outputs": [
        {
          "internalType": "uint256",
          "name": "loanId",
          "type": "uint256"
        },
        {
          "internalType": "address",
          "name": "borrower",
          "type": "address"
        },
        {
          "internalType": "uint256",
          "name": "amount",
          "type": "uint256"
        },
        {
          "internalType": "uint256",
          "name": "interestRate",
          "type": "uint256"
        },
        {
          "internalType": "uint256",
          "name": "duration",
          "type": "uint256"
        },
        {
          "internalType": "uint256",
          "name": "startDate",
          "type": "uint256"
        },
        {
          "internalType": "uint256",
          "name": "repaidAmount",
          "type": "uint256"
        },
        {
          "internalType": "bool",
          "name": "isActive",
          "type": "bool"
        },
        {
          "internalType": "bool",
          "name": "isApproved",
          "type": "bool"
        },
        {
          "internalType": "uint256",
          "name": "collateralAmount",
          "type": "uint256"
        }
      ],
      "stateMutability": "view",
      "type": "function"
    },
    {
      "inputs": [
        {
          "internalType": "uint256",
          "name": "_amount",
          "type": "uint256"
        }
      ],
      "name": "makeContribution",
      "outputs": [],
      "stateMutability": "nonpayable",
      "type": "function"
    },
    {
      "inputs": [],
      "name": "maxLoanAmount",
      "outputs": [
        {
          "internalType": "uint256",
          "name": "",
          "type": "uint256"
        }
      ],
      "stateMutability": "view",
      "type": "function"
    },
    {
      "inputs": [
        {
          "internalType": "uint256",
          "name": "",
          "type": "uint256"
        }
      ],
      "name": "memberAddresses",
      "outputs": [
        {
          "internalType": "address",
          "name": "",
          "type": "address"
        }
      ],
      "stateMutability": "view",
      "type": "function"
    },
    {
      "inputs": [],
      "name": "memberCount",
      "outputs": [
        {
          "internalType": "uint256",
          "name": "",
          "type": "uint256"
        }
      ],
      "stateMutability": "view",
      "type": "function"
    },
    {
      "inputs": [
        {
          "internalType": "address",
          "name": "",
          "type": "address"
        }
      ],
      "name": "members",
      "outputs": [
        {
          "internalType": "address",
          "name": "memberAddress",
          "type": "address"
        },
        {
          "internalType": "uint256",
          "name": "totalContributions",
          "type": "uint256"
        },
        {
          "internalType": "uint256",
          "name": "totalLoans",
          "type": "uint256"
        },
        {
          "internalType": "uint256",
          "name": "totalRepayments",
          "type": "uint256"
        },
        {
          "internalType": "bool",
          "name": "isActive",
          "type": "bool"
        },
        {
          "internalType": "uint256",
          "name": "joinDate",
          "type": "uint256"
        },
        {
          "internalType": "uint256",
          "name": "creditScore",
          "type": "uint256"
        }
      ],
      "stateMutability": "view",
      "type": "function"
    },
    {
      "inputs": [],
      "name": "minimumContribution",
      "outputs": [
        {
          "internalType": "uint256",
          "name": "",
          "type": "uint256"
        }
      ],
      "stateMutability": "view",
      "type": "function"
    },
    {
      "inputs": [],
      "name": "nextLoanId",
      "outputs": [
        {
          "internalType": "uint256",
          "name": "",
          "type": "uint256"
        }
      ],
      "stateMutability": "view",
      "type": "function"
    },
    {
      "inputs": [
        {
          "internalType": "bytes32",
          "name": "role",
          "type": "bytes32"
        },
        {
          "internalType": "address",
          "name": "account",
          "type": "address"
        }
      ],
      "name": "renounceRole",
      "outputs": [],
      "stateMutability": "nonpayable",
      "type": "function"
    },
    {
      "inputs": [
        {
          "internalType": "uint256",
          "name": "_loanId",
          "type": "uint256"
        },
        {
          "internalType": "uint256",
          "name": "_amount",
          "type": "uint256"
        }
      ],
      "name": "repayLoan",
      "outputs": [],
      "stateMutability": "nonpayable",
      "type": "function"
    },
    {
      "inputs": [
        {
          "internalType": "uint256",
          "name": "_amount",
          "type": "uint256"
        },
        {
          "internalType": "uint256",
          "name": "_duration",
          "type": "uint256"
        },
        {
          "internalType": "uint256",
          "name": "_collateralAmount",
          "type": "uint256"
        }
      ],
      "name": "requestLoan",
      "outputs": [
        {
          "internalType": "uint256",
          "name": "",
          "type": "uint256"
        }
      ],
      "stateMutability": "nonpayable",
      "type": "function"
    },
    {
      "inputs": [
        {
          "internalType": "bytes32",
          "name": "role",
          "type": "bytes32"
        },
        {
          "internalType": "address",
          "name": "account",
          "type": "address"
        }
      ],
      "name": "revokeRole",
      "outputs": [],
      "stateMutability": "nonpayable",
      "type": "function"
    },
    {
      "inputs": [
        {
          "internalType": "uint256",
          "name": "_targetAmount",
          "type": "uint256"
        },
        {
          "internalType": "uint256",
          "name": "_duration",
          "type": "uint256"
        }
      ],
      "name": "startContributionCycle",
      "outputs": [],
      "stateMutability": "nonpayable",
      "type": "function"
    },
    {
      "inputs": [
        {
          "internalType": "bytes4",
          "name": "interfaceId",
          "type": "bytes4"
        }
      ],
      "name": "supportsInterface",
      "outputs": [
        {
          "internalType": "bool",
          "name": "",
          "type": "bool"
        }
      ],
      "stateMutability": "view",
      "type": "function"
    },
    {
      "inputs": [],
      "name": "totalLoansIssued",
      "outputs": [
        {
          "internalType": "uint256",
          "name": "",
          "type": "uint256"
        }
      ],
      "stateMutability": "view",
      "type": "function"
    },
    {
      "inputs": [],
      "name": "totalLoansRepaid",
      "outputs": [
        {
          "internalType": "uint256",
          "name": "",
          "type": "uint256"
        }
      ],
      "stateMutability": "view",
      "type": "function"
    }
  ],
  "bytecode": "0x60a06040523480156200001157600080fd5b5060405162002a8238038062002a82833981016040819052620000349162000174565b6001600055600262000047878262000319565b506001600160a01b0385166080526004849055600583905560068290554260035562000075600082620000b8565b620000a17f9037db4b5f898545654918dae90413d36e46a066a2032ab38fb124ff80ecb3a582620000b8565b50506001600c555050600060105550620003e59050565b60008281526001602090815260408083206001600160a01b038516845290915290205460ff166200013d5760008281526001602081815260408084206001600160a01b0386168086529252808420805460ff19169093179092559051339285917f2f8788117e7eff1d82e926ec794901d17c78024a50270940304540a733656f0d9190a45b5050565b634e487b7160e01b600052604160045260246000fd5b80516001600160a01b03811681146200016f57600080fd5b919050565b60008060008060008060c087890312156200018e57600080fd5b86516001600160401b0380821115620001a657600080fd5b818901915089601f830112620001bb57600080fd5b815181811115620001d057620001d062000141565b604051601f8201601f19908116603f01168101908382118183101715620001fb57620001fb62000141565b81604052828152602093508c848487010111156200021857600080fd5b600091505b828210156200023c57848201840151818301850152908301906200021d565b6000848483010152809a5050505062000257818a0162000157565b965050506040870151935060608701519250608087015191506200027e60a0880162000157565b90509295509295509295565b600181811c908216806200029f57607f821691505b602082108103620002c057634e487b7160e01b600052602260045260246000fd5b50919050565b601f8211156200031457600081815260208120601f850160051c81016020861015620002ef5750805b601f850160051c820191505b818110156200031057828155600101620002fb565b5050505b505050565b81516001600160401b0381111562000335576200033562000141565b6200034d816200034684546200028a565b84620002c6565b602080601f8311600181146200038557600084156200036c5750858301515b600019600386901b1c1916600185901b17855562000310565b600085815260208120601f198616915b82811015620003b65788860151825594840194600190910190840162000395565b5085821015620003d55787850151600019600388901b60f8161c191681555b5050505050600190811b01905550565b60805161265e62000424600039600081816106a501528181610a1c01528181610f89015281816111020152818161142f0152611c51015261265e6000f3fe608060405234801561001057600080fd5b50600436106102115760003560e01c806387c5145911610125578063bf454b80116100ad578063cc4e62991161007c578063cc4e62991461059c578063d547741f146105c7578063e1ec3c68146105da578063e22d551a146106a0578063edadbbfe146106c757600080fd5b8063bf454b8014610564578063c7959d0414610577578063c9e87b0214610580578063ca6d56dc1461058957600080fd5b8063a10f469e116100f4578063a10f469e146104d3578063a217fddf146104fa578063aaacdda014610502578063aadc1ac11461050b578063b95853821461051e57600080fd5b806387c514591461049b5780638a700b53146104a457806391d14854146104b7578063937e09b1146104ca57600080fd5b8063360a2bcb116101a8578063549f433f11610177578063549f433f146103fc5780635f1231ea1461040557806372f9436514610474578063783cec801461047d57806386c1c74d1461049257600080fd5b8063360a2bcb1461036657806336568abe146103795780634c3b19391461038c5780634df46d41146103c357600080fd5b80630cec8e7a116101e45780630cec8e7a1461030f57806311aee38014610324578063248a9ca31461032d5780632f2ff15d1461035157600080fd5b806301ffc9a71461021657806305b344101461023e5780630714012c1461025557806308ae4b0c14610275575b600080fd5b61022961022436600461223c565b6106da565b60405190151581526020015b60405180910390f35b61024760035481565b604051908152602001610235565b610268610263366004612266565b610711565b604051610235919061227f565b6102ce610283366004612325565b60086020526000908152604090208054600182015460028301546003840154600485015460058601546006909601546001600160a01b039095169593949293919260ff909116919087565b604080516001600160a01b03909816885260208801969096529486019390935260608501919091521515608084015260a083015260c082015260e001610235565b61024760008051602061260983398151915281565b610247600a5481565b61024761033b366004612266565b6000908152600160208190526040909120015490565b61036461035f366004612340565b61080b565b005b610364610374366004612266565b610836565b610364610387366004612340565b610bbe565b610394610c3c565b6040805196875260208701959095529385019290925260608401526080830152151560a082015260c001610235565b6102476103d136600461236c565b6000908152600f602090815260408083206001600160a01b0394909416835260069093019052205490565b610247600e5481565b610418610413366004612325565b610cab565b604051610235919081516001600160a01b0316815260208083015190820152604080830151908201526060808301519082015260808083015115159082015260a0828101519082015260c0918201519181019190915260e00190565b61024760055481565b610485610d6a565b60405161023591906123ba565b61024760065481565b610247600c5481565b6103646104b23660046123ed565b610df8565b6102296104c5366004612340565b611212565b61024760045481565b6102477f829b824e2329e205435d941c9f13baf578548505283d29261236d8e6596d463681565b610247600081565b61024760105481565b610364610519366004612266565b61123d565b61039461052c366004612266565b600f60205260009081526040902080546001820154600283015460038401546004850154600590950154939492939192909160ff1686565b6103646105723660046123ed565b611530565b610247600d5481565b61024760075481565b610364610597366004612325565b61173c565b6105af6105aa366004612266565b611985565b6040516001600160a01b039091168152602001610235565b6103646105d5366004612340565b6119af565b61064a6105e8366004612266565b600b6020526000908152604090208054600182015460028301546003840154600485015460058601546006870154600788015460089098015496976001600160a01b03909616969495939492939192909160ff8082169261010090920416908a565b604080519a8b526001600160a01b0390991660208b0152978901969096526060880194909452608087019290925260a086015260c0850152151560e0840152151561010083015261012082015261014001610235565b6105af7f000000000000000000000000000000000000000000000000000000000000000081565b6102476106d536600461240f565b6119d5565b60006001600160e01b03198216637965db0b60e01b148061070b57506301ffc9a760e01b6001600160e01b03198316145b92915050565b6107746040518061014001604052806000815260200160006001600160a01b031681526020016000815260200160008152602001600081526020016000815260200160008152602001600015158152602001600015158152602001600081525090565b506000908152600b60209081526040918290208251610140810184528154815260018201546001600160a01b0316928101929092526002810154928201929092526003820154606082015260048201546080820152600582015460a0820152600682015460c0820152600782015460ff808216151560e0840152610100918290041615159082015260089091015461012082015290565b6000828152600160208190526040909120015461082781611d51565b6108318383611d5b565b505050565b3360009081526008602052604090206004015460ff166108945760405162461bcd60e51b81526020600482015260146024820152734d656d626572206973206e6f742061637469766560601b60448201526064015b60405180910390fd5b61089c611dc6565b6004548110156108f85760405162461bcd60e51b815260206004820152602160248201527f416d6f756e742062656c6f77206d696e696d756d20636f6e747269627574696f6044820152603760f91b606482015260840161088b565b60006010541161094a5760405162461bcd60e51b815260206004820152601c60248201527f4e6f2061637469766520636f6e747269627574696f6e206379636c6500000000604482015260640161088b565b6010546000908152600f602052604090206005015460ff166109a45760405162461bcd60e51b81526020600482015260136024820152724379636c65206973206e6f742061637469766560681b604482015260640161088b565b6010546000908152600f60205260409020600401544211156109fa5760405162461bcd60e51b815260206004820152600f60248201526e10de58db19481a185cc8195b991959608a1b604482015260640161088b565b6040516323b872dd60e01b8152336004820152306024820152604481018290527f00000000000000000000000000000000000000000000000000000000000000006001600160a01b0316906323b872dd906064016020604051808303816000875af1158015610a6d573d6000803e3d6000fd5b505050506040513d601f19601f82011682018060405250810190610a91919061243b565b610acf5760405162461bcd60e51b815260206004820152600f60248201526e151c985b9cd9995c8819985a5b1959608a1b604482015260640161088b565b6010546000908152600f60209081526040808320338452600681019092528220805491928492610b00908490612473565b9250508190555081816002016000828254610b1b9190612473565b90915550503360009081526008602052604081206001018054849290610b42908490612473565b925050819055508160076000828254610b5b9190612473565b90915550610b6c9050336001611e1f565b60105460405133917f5dc1fe5ab986a852c4eda8e8bb94247d13307065c593fb83f1a09be27367938291610ba891868252602082015260400190565b60405180910390a250610bbb6001600055565b50565b6001600160a01b0381163314610c2e5760405162461bcd60e51b815260206004820152602f60248201527f416363657373436f6e74726f6c3a2063616e206f6e6c792072656e6f756e636560448201526e103937b632b9903337b91039b2b63360891b606482015260840161088b565b610c388282611e8d565b5050565b600080600080600080601054600003610c6657506000945084935083925082915081905080610ca3565b50506010546000908152600f60205260409020805460018201546002830154600384015460048501546005909501549398509196509450925060ff165b909192939495565b610cf66040518060e0016040528060006001600160a01b0316815260200160008152602001600081526020016000815260200160001515815260200160008152602001600081525090565b506001600160a01b03908116600090815260086020908152604091829020825160e0810184528154909416845260018101549184019190915260028101549183019190915260038101546060830152600481015460ff1615156080830152600581015460a08301526006015460c082015290565b60028054610d7790612486565b80601f0160208091040260200160405190810160405280929190818152602001828054610da390612486565b8015610df05780601f10610dc557610100808354040283529160200191610df0565b820191906000526020600020905b815481529060010190602001808311610dd357829003601f168201915b505050505081565b610e00611dc6565b6000828152600b6020526040902060018101546001600160a01b03163314610e5d5760405162461bcd60e51b815260206004820152601060248201526f2737ba103a3432903137b93937bbb2b960811b604482015260640161088b565b600781015460ff16610ea65760405162461bcd60e51b81526020600482015260126024820152714c6f616e206973206e6f742061637469766560701b604482015260640161088b565b60008211610ef65760405162461bcd60e51b815260206004820152601760248201527f416d6f756e74206d75737420626520706f736974697665000000000000000000604482015260640161088b565b6000610f0184611ef4565b90506000826006015482610f1591906124c0565b905080841115610f675760405162461bcd60e51b815260206004820152601d60248201527f416d6f756e7420657863656564732072656d61696e696e672064656274000000604482015260640161088b565b6040516323b872dd60e01b8152336004820152306024820152604481018590527f00000000000000000000000000000000000000000000000000000000000000006001600160a01b0316906323b872dd906064016020604051808303816000875af1158015610fda573d6000803e3d6000fd5b505050506040513d601f19601f82011682018060405250810190610ffe919061243b565b61104a5760405162461bcd60e51b815260206004820152601960248201527f52657061796d656e74207472616e73666572206661696c656400000000000000604482015260640161088b565b8383600601600082825461105e9190612473565b90915550503360009081526008602052604081206003018054869290611085908490612473565b92505081905550836007600082825461109e9190612473565b9091555050600683015482116111c35760078301805460ff191690556002830154600e80546000906110d1908490612473565b90915550506008830154156111c357600883015460405163a9059cbb60e01b815233600482015260248101919091527f00000000000000000000000000000000000000000000000000000000000000006001600160a01b03169063a9059cbb906044016020604051808303816000875af1158015611153573d6000803e3d6000fd5b505050506040513d601f19601f82011682018060405250810190611177919061243b565b6111c35760405162461bcd60e51b815260206004820152601860248201527f436f6c6c61746572616c2072657475726e206661696c65640000000000000000604482015260640161088b565b6111ce336000611e1f565b604051848152339086907f780ef358c62afe5202061fc77819fa12618913022159d66995a4e513e18404c69060200160405180910390a3505050610c386001600055565b60009182526001602090815260408084206001600160a01b0393909316845291905290205460ff1690565b61125560008051602061260983398151915233611212565b6112715760405162461bcd60e51b815260040161088b906124d3565b6000818152600b6020526040902060018101546001600160a01b03166112cf5760405162461bcd60e51b8152602060048201526013602482015272131bd85b88191bd95cc81b9bdd08195e1a5cdd606a1b604482015260640161088b565b6007810154610100900460ff16156113215760405162461bcd60e51b8152602060048201526015602482015274131bd85b88185b1c9958591e48185c1c1c9bdd9959605a1b604482015260640161088b565b600754816002015411156113725760405162461bcd60e51b8152602060048201526018602482015277496e73756666696369656e742067726f75702066756e647360401b604482015260640161088b565b6007818101805461ffff1916610101179055426005830155600282015481549091906000906113a29084906124c0565b909155505060028082015460018301546001600160a01b031660009081526008602052604081209092018054919290916113dd908490612473565b90915550506002810154600d80546000906113f9908490612473565b90915550506001810154600282015460405163a9059cbb60e01b81526001600160a01b03928316600482015260248101919091527f00000000000000000000000000000000000000000000000000000000000000009091169063a9059cbb906044016020604051808303816000875af115801561147a573d6000803e3d6000fd5b505050506040513d601f19601f8201168201806040525081019061149e919061243b565b6114e15760405162461bcd60e51b8152602060048201526014602482015273131bd85b881d1c985b9cd9995c8819985a5b195960621b604482015260640161088b565b600181015460028201546040519081526001600160a01b039091169083907f2b993938baa27c88e77a207903d275c96fa30ae5949a3ea5cd56e466e4f5c8919060200160405180910390a35050565b61154860008051602061260983398151915233611212565b6115645760405162461bcd60e51b815260040161088b906124d3565b600082116115b45760405162461bcd60e51b815260206004820152601e60248201527f54617267657420616d6f756e74206d75737420626520706f7369746976650000604482015260640161088b565b600081116116045760405162461bcd60e51b815260206004820152601960248201527f4475726174696f6e206d75737420626520706f73697469766500000000000000604482015260640161088b565b600060105411801561162a57506010546000908152600f602052604090206005015460ff165b1561169557601080546000908152600f6020526040808220600501805460ff1916905591548082529082902060020154915190917f5d6ce35d8b5a0cd1f552bd0ce68f81bf96eadebd1159905a8dd503fbbb0296609161168c91815260200190565b60405180910390a25b601080549060006116a5836124fe565b90915550506010546000818152600f602052604081209182556001820184905560028201554260038201556116dd8262015180612517565b6116e79042612473565b600482015560058101805460ff1916600117905560105460408051858152602081018590527f0e41c903d4f464af8fdd82a2a195fb81a5b17cfe3a20585d2f10d0eeb1f1d33c910160405180910390a2505050565b61175460008051602061260983398151915233611212565b6117705760405162461bcd60e51b815260040161088b906124d3565b6001600160a01b0381166117bf5760405162461bcd60e51b8152602060048201526016602482015275496e76616c6964206d656d626572206164647265737360501b604482015260640161088b565b6001600160a01b03811660009081526008602052604090206004015460ff16156118235760405162461bcd60e51b81526020600482015260156024820152744d656d62657220616c72656164792065786973747360581b604482015260640161088b565b6040805160e0810182526001600160a01b0380841680835260006020808501828152858701838152606087018481526001608089018181524260a08b019081526101f460c08c0190815289895260089097529a872099518a5499166001600160a01b0319998a16178a5593518982015591516002890155516003880155905160048701805491151560ff19909216919091179055955160058601555160069094019390935560098054948501815583527f6e1540171b6c0c960b71a7020d9f60077f6af931a8bbf590da0223dacf75c7af9093018054909116909217909155600a805491611910836124fe565b919050555061193f7f829b824e2329e205435d941c9f13baf578548505283d29261236d8e6596d463682611d5b565b806001600160a01b03167fede8eed4383e9241982619b94dd83e488b274cced0fd07b8c0092a393defd52f4260405161197a91815260200190565b60405180910390a250565b6009818154811061199557600080fd5b6000918252602090912001546001600160a01b0316905081565b600082815260016020819052604090912001546119cb81611d51565b6108318383611e8d565b3360009081526008602052604081206004015460ff16611a2e5760405162461bcd60e51b81526020600482015260146024820152734d656d626572206973206e6f742061637469766560601b604482015260640161088b565b600084118015611a4057506005548411155b611a825760405162461bcd60e51b8152602060048201526013602482015272125b9d985b1a59081b1bd85b88185b5bdd5b9d606a1b604482015260640161088b565b60008311611ac55760405162461bcd60e51b815260206004820152601060248201526f24b73b30b634b210323ab930ba34b7b760811b604482015260640161088b565b600754841115611b125760405162461bcd60e51b8152602060048201526018602482015277496e73756666696369656e742067726f75702066756e647360401b604482015260640161088b565b600c805460009182611b23836124fe565b919050559050604051806101400160405280828152602001336001600160a01b03168152602001868152602001611b5a3388611f8d565b81526020808201879052600060408084018290526060808501839052608080860184905260a080870185905260c09687018b9052888552600b86529383902087518155948701516001860180546001600160a01b039092166001600160a01b031990921691909117905591860151600285015585015160038401558401516004830155830151600582015590820151600682015560e08201516007820180546101008086015115150261ff00199315159390931661ffff1990911617919091179055610120909101516008909101558215611d12576040516323b872dd60e01b8152336004820152306024820152604481018490527f00000000000000000000000000000000000000000000000000000000000000006001600160a01b0316906323b872dd906064016020604051808303816000875af1158015611ca2573d6000803e3d6000fd5b505050506040513d601f19601f82011682018060405250810190611cc6919061243b565b611d125760405162461bcd60e51b815260206004820152601a60248201527f436f6c6c61746572616c207472616e73666572206661696c6564000000000000604482015260640161088b565b604051858152339082907f97e04be2fd6414727fe9d0400464568f4384aa8b06264119565ca8f6cc2a4b7a9060200160405180910390a3949350505050565b610bbb813361200a565b611d658282611212565b610c385760008281526001602081815260408084206001600160a01b0386168086529252808420805460ff19169093179092559051339285917f2f8788117e7eff1d82e926ec794901d17c78024a50270940304540a733656f0d9190a45050565b600260005403611e185760405162461bcd60e51b815260206004820152601f60248201527f5265656e7472616e637947756172643a207265656e7472616e742063616c6c00604482015260640161088b565b6002600055565b6001600160a01b03821660009081526008602052604090208115611e6a5761035281600601541015610831576005816006016000828254611e609190612473565b9091555050505050565b6103528160060154101561083157600a816006016000828254611e609190612473565b611e978282611212565b15610c385760008281526001602090815260408083206001600160a01b0385168085529252808320805460ff1916905551339285917ff6391f5c32d9c69d2a47ea670b442974b53935d1edc7fd64eb21e047a839171b9190a45050565b6000818152600b60205260408120600781015460ff16611f175750600092915050565b600062015180826005015442611f2d91906124c0565b611f37919061252e565b90506000611f7261016d611f6c612710611f6c86611f6689600301548a6002015461206390919063ffffffff16565b90612063565b90612076565b6002840154909150611f849082612082565b95945050505050565b6001600160a01b038216600090815260086020526040812060069081015490546102bc8210611fcf57611fc66064611f6c836050612063565b9250505061070b565b6102588210611fe857611fc66064611f6c83605a612063565b6101f482101561200257611fc66064611f6c836078612063565b949350505050565b6120148282611212565b610c38576120218161208e565b61202c8360206120a0565b60405160200161203d929190612550565b60408051601f198184030181529082905262461bcd60e51b825261088b916004016123ba565b600061206f8284612517565b9392505050565b600061206f828461252e565b600061206f8284612473565b606061070b6001600160a01b03831660145b606060006120af836002612517565b6120ba906002612473565b67ffffffffffffffff8111156120d2576120d26125c5565b6040519080825280601f01601f1916602001820160405280156120fc576020820181803683370190505b509050600360fc1b81600081518110612117576121176125db565b60200101906001600160f81b031916908160001a905350600f60fb1b81600181518110612146576121466125db565b60200101906001600160f81b031916908160001a905350600061216a846002612517565b612175906001612473565b90505b60018111156121ed576f181899199a1a9b1b9c1cb0b131b232b360811b85600f16601081106121a9576121a96125db565b1a60f81b8282815181106121bf576121bf6125db565b60200101906001600160f81b031916908160001a90535060049490941c936121e6816125f1565b9050612178565b50831561206f5760405162461bcd60e51b815260206004820181905260248201527f537472696e67733a20686578206c656e67746820696e73756666696369656e74604482015260640161088b565b60006020828403121561224e57600080fd5b81356001600160e01b03198116811461206f57600080fd5b60006020828403121561227857600080fd5b5035919050565b815181526020808301516101408301916122a3908401826001600160a01b03169052565b5060408301516040830152606083015160608301526080830151608083015260a083015160a083015260c083015160c083015260e08301516122e960e084018215159052565b506101008381015180151584830152505061012092830151919092015290565b80356001600160a01b038116811461232057600080fd5b919050565b60006020828403121561233757600080fd5b61206f82612309565b6000806040838503121561235357600080fd5b8235915061236360208401612309565b90509250929050565b6000806040838503121561237f57600080fd5b61238883612309565b946020939093013593505050565b60005b838110156123b1578181015183820152602001612399565b50506000910152565b60208152600082518060208401526123d9816040850160208701612396565b601f01601f19169190910160400192915050565b6000806040838503121561240057600080fd5b50508035926020909101359150565b60008060006060848603121561242457600080fd5b505081359360208301359350604090920135919050565b60006020828403121561244d57600080fd5b8151801515811461206f57600080fd5b634e487b7160e01b600052601160045260246000fd5b8082018082111561070b5761070b61245d565b600181811c9082168061249a57607f821691505b6020821081036124ba57634e487b7160e01b600052602260045260246000fd5b50919050565b8181038181111561070b5761070b61245d565b6020808252601190820152702737ba10309033b937bab81030b236b4b760791b604082015260600190565b6000600182016125105761251061245d565b5060010190565b808202811582820484141761070b5761070b61245d565b60008261254b57634e487b7160e01b600052601260045260246000fd5b500490565b7f416363657373436f6e74726f6c3a206163636f756e7420000000000000000000815260008351612588816017850160208801612396565b7001034b99036b4b9b9b4b733903937b6329607d1b60179184019182015283516125b9816028840160208801612396565b01602801949350505050565b634e487b7160e01b600052604160045260246000fd5b634e487b7160e01b600052603260045260246000fd5b6000816126005761260061245d565b50600019019056fe9037db4b5f898545654918dae90413d36e46a066a2032ab38fb124ff80ecb3a5a264697066735822122084104540dc543fa57d21ad9a2b1dfe541dbe048e046fafdcca1aa5bef73e890664736f6c63430008140033",
  "linkReferences": {},
  "deployedLinkReferences": {}
}