{
  "_format": "hh-sol-artifact-1",
  "contractName": "MicroloanSystem",
  "sourceName": "contracts/MicroloanSystem.sol",
  "abi": [
    {
      "inputs": [
        {
          "internalType": "address",
          "name": "initialOwner",
          "type": "address"
        },
        {
          "internalType": "address",
          "name": "_loanTokenAddress",
          "type": "address"
        },
        {
          "internalType": "address",
          "name": "_feeCollector",
          "type": "address"
        },
        {
          "internalType": "uint256",
          "name": "_platformFeePercent",
          "type": "uint256"
        }
      ],
      "stateMutability": "nonpayable",
      "type": "constructor"
    },
    {
      "anonymous": false,
      "inputs": [
        {
          "indexed": true,
          "internalType": "address",
          "name": "borrower",
          "type": "address"
        },
        {
          "indexed": false,
          "internalType": "uint256",
          "name": "newScore",
          "type": "uint256"
        }
      ],
      "name": "CreditScoreUpdated",
      "type": "event"
    },
    {
      "anonymous": false,
      "inputs": [
        {
          "indexed": true,
          "internalType": "address",
          "name": "lender",
          "type": "address"
        },
        {
          "indexed": false,
          "internalType": "string",
          "name": "name",
          "type": "string"
        }
      ],
      "name": "LenderAdded",
      "type": "event"
    },
    {
      "anonymous": false,
      "inputs": [
        {
          "indexed": true,
          "internalType": "address",
          "name": "lender",
          "type": "address"
        }
      ],
      "name": "LenderRemoved",
      "type": "event"
    },
    {
      "anonymous": false,
      "inputs": [
        {
          "indexed": true,
          "internalType": "uint256",
          "name": "loanId",
          "type": "uint256"
        },
        {
          "indexed": true,
          "internalType": "address",
          "name": "lender",
          "type": "address"
        }
      ],
      "name": "LoanApproved",
      "type": "event"
    },
    {
      "anonymous": false,
      "inputs": [
        {
          "indexed": true,
          "internalType": "uint256",
          "name": "loanId",
          "type": "uint256"
        }
      ],
      "name": "LoanDefaulted",
      "type": "event"
    },
    {
      "anonymous": false,
      "inputs": [
        {
          "indexed": true,
          "internalType": "uint256",
          "name": "loanId",
          "type": "uint256"
        }
      ],
      "name": "LoanFullyRepaid",
      "type": "event"
    },
    {
      "anonymous": false,
      "inputs": [
        {
          "indexed": true,
          "internalType": "uint256",
          "name": "loanId",
          "type": "uint256"
        },
        {
          "indexed": false,
          "internalType": "string",
          "name": "reason",
          "type": "string"
        }
      ],
      "name": "LoanRejected",
      "type": "event"
    },
    {
      "anonymous": false,
      "inputs": [
        {
          "indexed": true,
          "internalType": "uint256",
          "name": "loanId",
          "type": "uint256"
        },
        {
          "indexed": true,
          "internalType": "address",
          "name": "payer",
          "type": "address"
        },
        {
          "indexed": false,
          "internalType": "uint256",
          "name": "amount",
          "type": "uint256"
        }
      ],
      "name": "LoanRepayment",
      "type": "event"
    },
    {
      "anonymous": false,
      "inputs": [
        {
          "indexed": true,
          "internalType": "uint256",
          "name": "loanId",
          "type": "uint256"
        },
        {
          "indexed": true,
          "internalType": "address",
          "name": "borrower",
          "type": "address"
        },
        {
          "indexed": false,
          "internalType": "uint256",
          "name": "amount",
          "type": "uint256"
        }
      ],
      "name": "LoanRequested",
      "type": "event"
    },
    {
      "anonymous": false,
      "inputs": [
        {
          "indexed": true,
          "internalType": "address",
          "name": "previousOwner",
          "type": "address"
        },
        {
          "indexed": true,
          "internalType": "address",
          "name": "newOwner",
          "type": "address"
        }
      ],
      "name": "OwnershipTransferred",
      "type": "event"
    },
    {
      "inputs": [
        {
          "internalType": "address",
          "name": "_lenderAddress",
          "type": "address"
        },
        {
          "internalType": "string",
          "name": "_name",
          "type": "string"
        },
        {
          "internalType": "uint256",
          "name": "_maxLoanAmount",
          "type": "uint256"
        },
        {
          "internalType": "uint256",
          "name": "_baseInterestRate",
          "type": "uint256"
        }
      ],
      "name": "addLender",
      "outputs": [],
      "stateMutability": "nonpayable",
      "type": "function"
    },
    {
      "inputs": [
        {
          "internalType": "uint256",
          "name": "_loanId",
          "type": "uint256"
        }
      ],
      "name": "approveLoan",
      "outputs": [],
      "stateMutability": "nonpayable",
      "type": "function"
    },
    {
      "inputs": [
        {
          "internalType": "address",
          "name": "",
          "type": "address"
        }
      ],
      "name": "approvedLenders",
      "outputs": [
        {
          "internalType": "bool",
          "name": "",
          "type": "bool"
        }
      ],
      "stateMutability": "view",
      "type": "function"
    },
    {
      "inputs": [
        {
          "internalType": "address",
          "name": "",
          "type": "address"
        },
        {
          "internalType": "uint256",
          "name": "",
          "type": "uint256"
        }
      ],
      "name": "borrowerLoans",
      "outputs": [
        {
          "internalType": "uint256",
          "name": "",
          "type": "uint256"
        }
      ],
      "stateMutability": "view",
      "type": "function"
    },
    {
      "inputs": [
        {
          "internalType": "address",
          "name": "",
          "type": "address"
        }
      ],
      "name": "borrowerProfiles",
      "outputs": [
        {
          "internalType": "uint256",
          "name": "totalBorrowed",
          "type": "uint256"
        },
        {
          "internalType": "uint256",
          "name": "totalRepaid",
          "type": "uint256"
        },
        {
          "internalType": "uint256",
          "name": "loansCompleted",
          "type": "uint256"
        },
        {
          "internalType": "uint256",
          "name": "loansDefaulted",
          "type": "uint256"
        },
        {
          "internalType": "uint256",
          "name": "creditScore",
          "type": "uint256"
        },
        {
          "internalType": "uint256",
          "name": "lastLoanId",
          "type": "uint256"
        }
      ],
      "stateMutability": "view",
      "type": "function"
    },
    {
      "inputs": [
        {
          "internalType": "address",
          "name": "_lenderAddress",
          "type": "address"
        },
        {
          "internalType": "address",
          "name": "_borrower",
          "type": "address"
        },
        {
          "internalType": "uint256",
          "name": "_amount",
          "type": "uint256"
        },
        {
          "internalType": "uint256",
          "name": "_termDays",
          "type": "uint256"
        }
      ],
      "name": "calculateInterestRate",
      "outputs": [
        {
          "internalType": "uint256",
          "name": "",
          "type": "uint256"
        }
      ],
      "stateMutability": "view",
      "type": "function"
    },
    {
      "inputs": [
        {
          "components": [
            {
              "internalType": "uint256",
              "name": "id",
              "type": "uint256"
            },
            {
              "internalType": "address",
              "name": "borrower",
              "type": "address"
            },
            {
              "internalType": "uint256",
              "name": "amount",
              "type": "uint256"
            },
            {
              "internalType": "uint256",
              "name": "interestRate",
              "type": "uint256"
            },
            {
              "internalType": "uint256",
              "name": "termDays",
              "type": "uint256"
            },
            {
              "internalType": "uint256",
              "name": "issuedTime",
              "type": "uint256"
            },
            {
              "internalType": "uint256",
              "name": "dueTime",
              "type": "uint256"
            },
            {
              "internalType": "uint256",
              "name": "repaidAmount",
              "type": "uint256"
            },
            {
              "internalType": "enum MicroloanSystem.LoanStatus",
              "name": "status",
              "type": "uint8"
            },
            {
              "internalType": "bool",
              "name": "isGroupLoan",
              "type": "bool"
            },
            {
              "internalType": "address",
              "name": "groupAddress",
              "type": "address"
            },
            {
              "internalType": "string",
              "name": "purpose",
              "type": "string"
            }
          ],
          "internalType": "struct MicroloanSystem.Loan",
          "name": "_loan",
          "type": "tuple"
        }
      ],
      "name": "calculateTotalDue",
      "outputs": [
        {
          "internalType": "uint256",
          "name": "",
          "type": "uint256"
        }
      ],
      "stateMutability": "pure",
      "type": "function"
    },
    {
      "inputs": [
        {
          "internalType": "uint256",
          "name": "_amount",
          "type": "uint256"
        }
      ],
      "name": "depositLenderFunds",
      "outputs": [],
      "stateMutability": "nonpayable",
      "type": "function"
    },
    {
      "inputs": [],
      "name": "feeCollector",
      "outputs": [
        {
          "internalType": "address",
          "name": "",
          "type": "address"
        }
      ],
      "stateMutability": "view",
      "type": "function"
    },
    {
      "inputs": [
        {
          "internalType": "address",
          "name": "_borrower",
          "type": "address"
        }
      ],
      "name": "getBorrowerLoans",
      "outputs": [
        {
          "internalType": "uint256[]",
          "name": "",
          "type": "uint256[]"
        }
      ],
      "stateMutability": "view",
      "type": "function"
    },
    {
      "inputs": [
        {
          "internalType": "uint256",
          "name": "_loanId",
          "type": "uint256"
        }
      ],
      "name": "getLoanDetails",
      "outputs": [
        {
          "internalType": "address",
          "name": "borrower",
          "type": "address"
        },
        {
          "internalType": "uint256",
          "name": "amount",
          "type": "uint256"
        },
        {
          "internalType": "uint256",
          "name": "interestRate",
          "type": "uint256"
        },
        {
          "internalType": "uint256",
          "name": "termDays",
          "type": "uint256"
        },
        {
          "internalType": "uint256",
          "name": "issuedTime",
          "type": "uint256"
        },
        {
          "internalType": "uint256",
          "name": "dueTime",
          "type": "uint256"
        },
        {
          "internalType": "uint256",
          "name": "repaidAmount",
          "type": "uint256"
        },
        {
          "internalType": "enum MicroloanSystem.LoanStatus",
          "name": "status",
          "type": "uint8"
        },
        {
          "internalType": "bool",
          "name": "isGroupLoan",
          "type": "bool"
        },
        {
          "internalType": "address",
          "name": "groupAddress",
          "type": "address"
        },
        {
          "internalType": "string",
          "name": "purpose",
          "type": "string"
        }
      ],
      "stateMutability": "view",
      "type": "function"
    },
    {
      "inputs": [
        {
          "internalType": "uint256",
          "name": "_loanId",
          "type": "uint256"
        }
      ],
      "name": "getLoanPayments",
      "outputs": [
        {
          "internalType": "uint256[]",
          "name": "amounts",
          "type": "uint256[]"
        },
        {
          "internalType": "uint256[]",
          "name": "timestamps",
          "type": "uint256[]"
        },
        {
          "internalType": "address[]",
          "name": "payers",
          "type": "address[]"
        }
      ],
      "stateMutability": "view",
      "type": "function"
    },
    {
      "inputs": [
        {
          "internalType": "address",
          "name": "_borrower",
          "type": "address"
        }
      ],
      "name": "hasBorrowerDefaulted",
      "outputs": [
        {
          "internalType": "bool",
          "name": "",
          "type": "bool"
        }
      ],
      "stateMutability": "view",
      "type": "function"
    },
    {
      "inputs": [
        {
          "internalType": "uint256",
          "name": "",
          "type": "uint256"
        }
      ],
      "name": "lenderAddresses",
      "outputs": [
        {
          "internalType": "address",
          "name": "",
          "type": "address"
        }
      ],
      "stateMutability": "view",
      "type": "function"
    },
    {
      "inputs": [
        {
          "internalType": "address",
          "name": "",
          "type": "address"
        }
      ],
      "name": "lenders",
      "outputs": [
        {
          "internalType": "address",
          "name": "lenderAddress",
          "type": "address"
        },
        {
          "internalType": "string",
          "name": "name",
          "type": "string"
        },
        {
          "internalType": "bool",
          "name": "isActive",
          "type": "bool"
        },
        {
          "internalType": "uint256",
          "name": "totalFundsAvailable",
          "type": "uint256"
        },
        {
          "internalType": "uint256",
          "name": "totalLoaned",
          "type": "uint256"
        },
        {
          "internalType": "uint256",
          "name": "totalRepaid",
          "type": "uint256"
        },
        {
          "internalType": "uint256",
          "name": "maxLoanAmount",
          "type": "uint256"
        },
        {
          "internalType": "uint256",
          "name": "baseInterestRate",
          "type": "uint256"
        }
      ],
      "stateMutability": "view",
      "type": "function"
    },
    {
      "inputs": [
        {
          "internalType": "uint256",
          "name": "",
          "type": "uint256"
        },
        {
          "internalType": "uint256",
          "name": "",
          "type": "uint256"
        }
      ],
      "name": "loanPayments",
      "outputs": [
        {
          "internalType": "uint256",
          "name": "loanId",
          "type": "uint256"
        },
        {
          "internalType": "uint256",
          "name": "amount",
          "type": "uint256"
        },
        {
          "internalType": "uint256",
          "name": "timestamp",
          "type": "uint256"
        },
        {
          "internalType": "address",
          "name": "payer",
          "type": "address"
        }
      ],
      "stateMutability": "view",
      "type": "function"
    },
    {
      "inputs": [],
      "name": "loanToken",
      "outputs": [
        {
          "internalType": "contract IERC20",
          "name": "",
          "type": "address"
        }
      ],
      "stateMutability": "view",
      "type": "function"
    },
    {
      "inputs": [
        {
          "internalType": "uint256",
          "name": "",
          "type": "uint256"
        }
      ],
      "name": "loans",
      "outputs": [
        {
          "internalType": "uint256",
          "name": "id",
          "type": "uint256"
        },
        {
          "internalType": "address",
          "name": "borrower",
          "type": "address"
        },
        {
          "internalType": "uint256",
          "name": "amount",
          "type": "uint256"
        },
        {
          "internalType": "uint256",
          "name": "interestRate",
          "type": "uint256"
        },
        {
          "internalType": "uint256",
          "name": "termDays",
          "type": "uint256"
        },
        {
          "internalType": "uint256",
          "name": "issuedTime",
          "type": "uint256"
        },
        {
          "internalType": "uint256",
          "name": "dueTime",
          "type": "uint256"
        },
        {
          "internalType": "uint256",
          "name": "repaidAmount",
          "type": "uint256"
        },
        {
          "internalType": "enum MicroloanSystem.LoanStatus",
          "name": "status",
          "type": "uint8"
        },
        {
          "internalType": "bool",
          "name": "isGroupLoan",
          "type": "bool"
        },
        {
          "internalType": "address",
          "name": "groupAddress",
          "type": "address"
        },
        {
          "internalType": "string",
          "name": "purpose",
          "type": "string"
        }
      ],
      "stateMutability": "view",
      "type": "function"
    },
    {
      "inputs": [
        {
          "internalType": "uint256",
          "name": "_loanId",
          "type": "uint256"
        }
      ],
      "name": "markAsDefaulted",
      "outputs": [],
      "stateMutability": "nonpayable",
      "type": "function"
    },
    {
      "inputs": [],
      "name": "maxLoanAmount",
      "outputs": [
        {
          "internalType": "uint256",
          "name": "",
          "type": "uint256"
        }
      ],
      "stateMutability": "view",
      "type": "function"
    },
    {
      "inputs": [],
      "name": "maxTermDays",
      "outputs": [
        {
          "internalType": "uint256",
          "name": "",
          "type": "uint256"
        }
      ],
      "stateMutability": "view",
      "type": "function"
    },
    {
      "inputs": [],
      "name": "minLoanAmount",
      "outputs": [
        {
          "internalType": "uint256",
          "name": "",
          "type": "uint256"
        }
      ],
      "stateMutability": "view",
      "type": "function"
    },
    {
      "inputs": [],
      "name": "minTermDays",
      "outputs": [
        {
          "internalType": "uint256",
          "name": "",
          "type": "uint256"
        }
      ],
      "stateMutability": "view",
      "type": "function"
    },
    {
      "inputs": [],
      "name": "nextLoanId",
      "outputs": [
        {
          "internalType": "uint256",
          "name": "",
          "type": "uint256"
        }
      ],
      "stateMutability": "view",
      "type": "function"
    },
    {
      "inputs": [],
      "name": "owner",
      "outputs": [
        {
          "internalType": "address",
          "name": "",
          "type": "address"
        }
      ],
      "stateMutability": "view",
      "type": "function"
    },
    {
      "inputs": [],
      "name": "platformFeePercent",
      "outputs": [
        {
          "internalType": "uint256",
          "name": "",
          "type": "uint256"
        }
      ],
      "stateMutability": "view",
      "type": "function"
    },
    {
      "inputs": [
        {
          "internalType": "address",
          "name": "_tokenAddress",
          "type": "address"
        },
        {
          "internalType": "uint256",
          "name": "_amount",
          "type": "uint256"
        }
      ],
      "name": "recoverTokens",
      "outputs": [],
      "stateMutability": "nonpayable",
      "type": "function"
    },
    {
      "inputs": [
        {
          "internalType": "uint256",
          "name": "_loanId",
          "type": "uint256"
        },
        {
          "internalType": "string",
          "name": "_reason",
          "type": "string"
        }
      ],
      "name": "rejectLoan",
      "outputs": [],
      "stateMutability": "nonpayable",
      "type": "function"
    },
    {
      "inputs": [
        {
          "internalType": "address",
          "name": "_lenderAddress",
          "type": "address"
        }
      ],
      "name": "removeLender",
      "outputs": [],
      "stateMutability": "nonpayable",
      "type": "function"
    },
    {
      "inputs": [],
      "name": "renounceOwnership",
      "outputs": [],
      "stateMutability": "nonpayable",
      "type": "function"
    },
    {
      "inputs": [
        {
          "internalType": "uint256",
          "name": "_loanId",
          "type": "uint256"
        },
        {
          "internalType": "uint256",
          "name": "_amount",
          "type": "uint256"
        }
      ],
      "name": "repayLoan",
      "outputs": [],
      "stateMutability": "nonpayable",
      "type": "function"
    },
    {
      "inputs": [
        {
          "internalType": "address",
          "name": "_groupAddress",
          "type": "address"
        },
        {
          "internalType": "uint256",
          "name": "_amount",
          "type": "uint256"
        },
        {
          "internalType": "uint256",
          "name": "_termDays",
          "type": "uint256"
        },
        {
          "internalType": "string",
          "name": "_purpose",
          "type": "string"
        }
      ],
      "name": "requestGroupLoan",
      "outputs": [
        {
          "internalType": "uint256",
          "name": "",
          "type": "uint256"
        }
      ],
      "stateMutability": "nonpayable",
      "type": "function"
    },
    {
      "inputs": [
        {
          "internalType": "address",
          "name": "_lenderAddress",
          "type": "address"
        },
        {
          "internalType": "uint256",
          "name": "_amount",
          "type": "uint256"
        },
        {
          "internalType": "uint256",
          "name": "_termDays",
          "type": "uint256"
        },
        {
          "internalType": "string",
          "name": "_purpose",
          "type": "string"
        }
      ],
      "name": "requestLoan",
      "outputs": [
        {
          "internalType": "uint256",
          "name": "",
          "type": "uint256"
        }
      ],
      "stateMutability": "nonpayable",
      "type": "function"
    },
    {
      "inputs": [
        {
          "internalType": "address",
          "name": "newOwner",
          "type": "address"
        }
      ],
      "name": "transferOwnership",
      "outputs": [],
      "stateMutability": "nonpayable",
      "type": "function"
    },
    {
      "inputs": [
        {
          "internalType": "address",
          "name": "_newFeeCollector",
          "type": "address"
        }
      ],
      "name": "updateFeeCollector",
      "outputs": [],
      "stateMutability": "nonpayable",
      "type": "function"
    },
    {
      "inputs": [
        {
          "internalType": "uint256",
          "name": "_minLoanAmount",
          "type": "uint256"
        },
        {
          "internalType": "uint256",
          "name": "_maxLoanAmount",
          "type": "uint256"
        },
        {
          "internalType": "uint256",
          "name": "_minTermDays",
          "type": "uint256"
        },
        {
          "internalType": "uint256",
          "name": "_maxTermDays",
          "type": "uint256"
        },
        {
          "internalType": "uint256",
          "name": "_platformFeePercent",
          "type": "uint256"
        }
      ],
      "name": "updateSystemParameters",
      "outputs": [],
      "stateMutability": "nonpayable",
      "type": "function"
    },
    {
      "inputs": [
        {
          "internalType": "uint256",
          "name": "_amount",
          "type": "uint256"
        }
      ],
      "name": "withdrawLenderFunds",
      "outputs": [],
      "stateMutability": "nonpayable",
      "type": "function"
    }
  ],
  "bytecode": "0x60806040523480156200001157600080fd5b50604051620035003803806200350083398101604081905262000034916200011e565b6200003f33620000b1565b600180556200004e84620000b1565b600280546001600160a01b039485166001600160a01b0319918216179091556010805493909416921691909117909155600f5550678ac7230489e80000600b55683635c9adc5dea00000600c556007600d5561016d600e55600160035562000170565b600080546001600160a01b038381166001600160a01b0319831681178455604051919092169283917f8be0079c531659141344cd1fd0a4f28419497f9722a3daafe3b4186f6b6457e09190a35050565b80516001600160a01b03811681146200011957600080fd5b919050565b600080600080608085870312156200013557600080fd5b620001408562000101565b9350620001506020860162000101565b9250620001606040860162000101565b6060959095015193969295505050565b61338080620001806000396000f3fe608060405234801561001057600080fd5b50600436106102275760003560e01c80638c639a8511610130578063c67a8cd3116100b8578063e1ec3c681161007c578063e1ec3c6814610550578063e3ed19021461057b578063eee8b7ff1461058e578063f2fde38b146105ae578063f504f908146105c157600080fd5b8063c67a8cd3146104ec578063c9a10dad146104ff578063ce47311414610512578063d2c35ce814610534578063e06a91381461054757600080fd5b8063aadc1ac1116100ff578063aadc1ac11461045e578063af3d3e9814610471578063afa85de6146104ad578063b87041d4146104d0578063c415b95c146104d957600080fd5b80638c639a851461041e5780638da5cb5b146104275780638fe135c714610438578063a87430221461044b57600080fd5b806351a560dc116101b3578063715018a611610182578063715018a6146103de57806372f94365146103e657806384019eed146103ef57806387c51459146104025780638a700b531461040b57600080fd5b806351a560dc1461031e57806352ee8f811461033157806366877b8d146103445780636949000c1461036e57600080fd5b8063256ed143116101fa578063256ed143146102b557806328fd10d7146102be5780632d6963ce146102e557806335176b40146102f85780634f10e9f11461030b57600080fd5b8063069c9fae1461022c57806306d378171461024157806310b0e5f2146102715780631112f94c14610294575b600080fd5b61023f61023a3660046129ff565b6105d4565b005b600254610254906001600160a01b031681565b6040516001600160a01b0390911681526020015b60405180910390f35b61028461027f366004612a29565b610673565b6040519015158152602001610268565b6102a76102a2366004612a44565b610758565b604051908152602001610268565b6102a7600e5481565b6102d16102cc366004612a29565b610821565b604051610268989796959493929190612acc565b6102546102f3366004612b24565b6108fb565b6102a7610306366004612c32565b610925565b6102a7610319366004612d31565b610962565b61023f61032c366004612b24565b610c44565b61023f61033f366004612d92565b610da1565b610357610352366004612b24565b610ee3565b6040516102689b9a99989796959493929190612e11565b6103b161037c366004612a29565b600760205260009081526040902080546001820154600283015460038401546004850154600590950154939492939192909186565b604080519687526020870195909552938501929092526060840152608083015260a082015260c001610268565b61023f6110bf565b6102a7600c5481565b61023f6103fd366004612a29565b6110d3565b6102a760035481565b61023f610419366004612e8a565b61119c565b6102a7600f5481565b6000546001600160a01b0316610254565b61023f610446366004612b24565b61181a565b61023f610459366004612b24565b611963565b61023f61046c366004612b24565b611ab7565b61048461047f366004612e8a565b611dc1565b604080519485526020850193909352918301526001600160a01b03166060820152608001610268565b6102846104bb366004612a29565b60086020526000908152604090205460ff1681565b6102a7600d5481565b601054610254906001600160a01b031681565b61023f6104fa366004612eac565b611e10565b61023f61050d366004612f0a565b611fe0565b610525610520366004612b24565b611fff565b60405161026893929190612f80565b61023f610542366004612a29565b612256565b6102a7600b5481565b61056361055e366004612b24565b612280565b6040516102689c9b9a99989796959493929190612ff2565b6102a76105893660046129ff565b612381565b6105a161059c366004612a29565b6123b2565b6040516102689190613073565b61023f6105bc366004612a29565b61241e565b6102a76105cf366004612d31565b612494565b6105dc612825565b816001600160a01b031663a9059cbb6105fd6000546001600160a01b031690565b6040516001600160e01b031960e084901b1681526001600160a01b039091166004820152602481018490526044016020604051808303816000875af115801561064a573d6000803e3d6000fd5b505050506040513d601f19601f8201168201806040525081019061066e9190613086565b505050565b6001600160a01b0381166000908152600660209081526040808320805482518185028101850190935280835284938301828280156106d057602002820191906000526020600020905b8154815260200190600101908083116106bc575b5050505050905060005b815181101561074e576003600460008484815181106106fb576106fb6130a3565b60209081029190910181015182528101919091526040016000206008015460ff16600481111561072d5761072d612dd9565b0361073c575060019392505050565b80610746816130cf565b9150506106da565b5060009392505050565b6001600160a01b038085166000908152600960209081526040808320600790810154948816845290915281206004015490919080156107d35761032081106107b85760646107a78360506130e8565b6107b19190613105565b91506107e1565b61028a81106107ce5760646107a783605a6130e8565b6107e1565b6107de60c883613127565b91505b681b1ae4d6e2ef500000851115610800576107fd606483613127565b91505b60b484111561081757610814609683613127565b91505b5095945050505050565b600960205260009081526040902080546001820180546001600160a01b03909216929161084d9061313a565b80601f01602080910402602001604051908101604052809291908181526020018280546108799061313a565b80156108c65780601f1061089b576101008083540402835291602001916108c6565b820191906000526020600020905b8154815290600101906020018083116108a957829003601f168201915b50505060028401546003850154600486015460058701546006880154600790980154969760ff90941696929550909350919088565b600a818154811061090b57600080fd5b6000918252602090912001546001600160a01b0316905081565b6000806127108360600151846040015161093f91906130e8565b6109499190613105565b905080836040015161095b9190613127565b9392505050565b6000600b5484101580156109785750600c548411155b6109bf5760405162461bcd60e51b8152602060048201526013602482015272125b9d985b1a59081b1bd85b88185b5bdd5b9d606a1b60448201526064015b60405180910390fd5b600d5483101580156109d35750600e548311155b610a155760405162461bcd60e51b8152602060048201526013602482015272092dcecc2d8d2c840e8cae4da40d8cadccee8d606b1b60448201526064016109b6565b610a1e33610673565b15610a3b5760405162461bcd60e51b81526004016109b690613174565b6003805460009182610a4c836130cf565b9091555060408051610180810182528281523360208201529081018790526101f460608201819052608082018790524260a083015291925060c08101610a9587620151806130e8565b610a9f9042613127565b81526020016000815260200160006004811115610abe57610abe612dd9565b8152600160208083018290526001600160a01b038b811660408086019190915260609485018a90526000888152600480855290829020875181559387015184860180546001600160a01b0319169190941617909255850151600283015592840151600382015560808401518184015560a0840151600582015560c0840151600682015560e0840151600782015561010084015160088201805492949193909260ff1916918490811115610b7357610b73612dd9565b02179055506101208201516008820180546101408501516001600160a01b0316620100000262010000600160b01b03199315156101000293909316610100600160b01b0319909116179190911790556101608201516009820190610bd79082613205565b5050336000818152600660209081526040808320805460018101825590845291909220018590555190915083907f97e04be2fd6414727fe9d0400464568f4384aa8b06264119565ca8f6cc2a4b7a90610c33908a815260200190565b60405180910390a361081782611ab7565b610c4c61287f565b3360009081526008602052604090205460ff16610c7b5760405162461bcd60e51b81526004016109b6906132c5565b33600090815260096020526040902060030154811115610cdd5760405162461bcd60e51b815260206004820152601c60248201527f496e73756666696369656e7420617661696c61626c652066756e64730000000060448201526064016109b6565b3360009081526009602052604081206003018054839290610cff9084906132f5565b909155505060025460405163a9059cbb60e01b8152336004820152602481018390526001600160a01b039091169063a9059cbb906044016020604051808303816000875af1158015610d55573d6000803e3d6000fd5b505050506040513d601f19601f82011682018060405250810190610d799190613086565b610d955760405162461bcd60e51b81526004016109b690613308565b610d9e60018055565b50565b60008281526004602052604090206008810154610100900460ff16610e37576000546001600160a01b0316331480610deb575060088101546201000090046001600160a01b031633145b610e375760405162461bcd60e51b815260206004820152601860248201527f4e6f7420617574686f72697a656420746f2072656a656374000000000000000060448201526064016109b6565b6000600882015460ff166004811115610e5257610e52612dd9565b14610e955760405162461bcd60e51b81526020600482015260136024820152724c6f616e206973206e6f742070656e64696e6760681b60448201526064016109b6565b60088101805460ff1916600417905560405183907f58a92b8125e50b6535529020ae640e062970ac4391913298bc2da5bf3e818e7090610ed6908590613337565b60405180910390a2505050565b60008181526004602081815260408084208151610180810183528154815260018201546001600160a01b0316938101939093526002810154918301919091526003810154606083810191909152818401546080840152600582015460a0840152600682015460c0840152600782015460e0840152600882015485948594859485948594859485948594859493859361010084019160ff1690811115610f8a57610f8a612dd9565b6004811115610f9b57610f9b612dd9565b81526008820154610100810460ff16151560208301526201000090046001600160a01b03166040820152600982018054606090920191610fda9061313a565b80601f01602080910402602001604051908101604052809291908181526020018280546110069061313a565b80156110535780601f1061102857610100808354040283529160200191611053565b820191906000526020600020905b81548152906001019060200180831161103657829003601f168201915b505050505081525050905080602001518160400151826060015183608001518460a001518560c001518660e001518761010001518861012001518961014001518a61016001519b509b509b509b509b509b509b509b509b509b509b505091939597999b90929496989a50565b6110c7612825565b6110d160006128d8565b565b6110db612825565b6001600160a01b03811660009081526008602052604090205460ff1661113b5760405162461bcd60e51b815260206004820152601560248201527413195b99195c88191bd95cc81b9bdd08195e1a5cdd605a1b60448201526064016109b6565b6001600160a01b0381166000818152600860209081526040808320805460ff1990811690915560099092528083206002018054909216909155517f503890814436e1b1d481a5ace3c4465fa90d978ebc88ddaf5505d5b6a259a8829190a250565b6111a461287f565b60008281526004602052604090206001600882015460ff1660048111156111cd576111cd612dd9565b1461120f5760405162461bcd60e51b81526020600482015260126024820152714c6f616e206973206e6f742061637469766560701b60448201526064016109b6565b6000821161125f5760405162461bcd60e51b815260206004820181905260248201527f416d6f756e74206d7573742062652067726561746572207468616e207a65726f60448201526064016109b6565b60408051610180810182528254815260018301546001600160a01b03166020820152600283015491810191909152600382015460608201526004808301546080830152600583015460a0830152600683015460c0830152600783015460e083015260088301546000926113c0929091859161010084019160ff16908111156112e9576112e9612dd9565b60048111156112fa576112fa612dd9565b81526008820154610100810460ff16151560208301526201000090046001600160a01b031660408201526009820180546060909201916113399061313a565b80601f01602080910402602001604051908101604052809291908181526020018280546113659061313a565b80156113b25780601f10611387576101008083540402835291602001916113b2565b820191906000526020600020905b81548152906001019060200180831161139557829003601f168201915b505050505081525050610925565b905060008260070154826113d491906132f5565b905060008185116113e557846113e7565b815b6002546040516323b872dd60e01b8152336004820152306024820152604481018390529192506001600160a01b0316906323b872dd906064016020604051808303816000875af115801561143f573d6000803e3d6000fd5b505050506040513d601f19601f820116820180604052508101906114639190613086565b61147f5760405162461bcd60e51b81526004016109b690613308565b808460070160008282546114939190613127565b9091555050600086815260056020908152604080832081516080810183528a81528084018681524293820193845233606083019081528354600180820186559488529587209251600490960290920194855551918401919091559051600283015551600390910180546001600160a01b0319166001600160a01b03909216919091179055600f546127109061152890846130e8565b6115329190613105565b9050600061154082846132f5565b905081156115c35760025460105460405163a9059cbb60e01b81526001600160a01b0391821660048201526024810185905291169063a9059cbb906044016020604051808303816000875af115801561159d573d6000803e3d6000fd5b505050506040513d601f19601f820116820180604052508101906115c19190613086565b505b6008860154610100900460ff166116825760088601546000906201000090046001600160a01b0316156116095760088701546201000090046001600160a01b0316611616565b6000546001600160a01b03165b6001600160a01b038116600090815260096020526040812060050180549293508492909190611646908490613127565b90915550506001600160a01b03811660009081526009602052604081206003018054849290611676908490613127565b90915550611705915050565b600254600887015460405163a9059cbb60e01b81526001600160a01b0362010000909204821660048201526024810184905291169063a9059cbb906044016020604051808303816000875af11580156116df573d6000803e3d6000fd5b505050506040513d601f19601f820116820180604052508101906117039190613086565b505b6001808701546001600160a01b031660009081526007602052604081209091018054859290611735908490613127565b9091555050604051838152339089907f780ef358c62afe5202061fc77819fa12618913022159d66995a4e513e18404c69060200160405180910390a3848660070154106118075760088601805460ff191660029081179091556001808801546001600160a01b031660009081526007602052604081209092018054919290916117bf908490613127565b909155505060018601546117db906001600160a01b0316612928565b60405188907f6a65a58027e68282a85ac65a7afc6580ef3d139c6e6ec12ae8d82de13566e8cc90600090a25b50505050505061181660018055565b5050565b3360009081526008602052604090205460ff166118495760405162461bcd60e51b81526004016109b6906132c5565b3360009081526009602052604090206002015460ff166118a25760405162461bcd60e51b81526020600482015260146024820152734c656e646572206973206e6f742061637469766560601b60448201526064016109b6565b6002546040516323b872dd60e01b8152336004820152306024820152604481018390526001600160a01b03909116906323b872dd906064016020604051808303816000875af11580156118f9573d6000803e3d6000fd5b505050506040513d601f19601f8201168201806040525081019061191d9190613086565b6119395760405162461bcd60e51b81526004016109b690613308565b336000908152600960205260408120600301805483929061195b908490613127565b909155505050565b61196b612825565b60008181526004602052604090206001600882015460ff16600481111561199457611994612dd9565b146119d65760405162461bcd60e51b81526020600482015260126024820152714c6f616e206973206e6f742061637469766560701b60448201526064016109b6565b80600601544211611a295760405162461bcd60e51b815260206004820152601760248201527f4c6f616e206973206e6f7420796574206f76657264756500000000000000000060448201526064016109b6565b60088101805460ff191660039081179091556001808301546001600160a01b03166000908152600760205260408120909201805491929091611a6c908490613127565b90915550506001810154611a88906001600160a01b0316612928565b60405182907f0789b7097e8066538cfaa1132488b132e14ba5f0c938c8b7aaf8cf40356aab0b90600090a25050565b60008181526004602052604090206008810154610100900460ff16611b4d576000546001600160a01b0316331480611b01575060088101546201000090046001600160a01b031633145b611b4d5760405162461bcd60e51b815260206004820152601960248201527f4e6f7420617574686f72697a656420746f20617070726f76650000000000000060448201526064016109b6565b6000600882015460ff166004811115611b6857611b68612dd9565b14611bab5760405162461bcd60e51b81526020600482015260136024820152724c6f616e206973206e6f742070656e64696e6760681b60448201526064016109b6565b60088101805460ff191660011790554260058201556004810154611bd290620151806130e8565b611bdc9042613127565b60068201556008810154610100900460ff16611ca25760088101546000906201000090046001600160a01b031615611c275760088201546201000090046001600160a01b0316611c34565b6000546001600160a01b03165b60028301546001600160a01b038216600090815260096020526040812060040180549394509192611c66908490613127565b909155505060028201546001600160a01b03821660009081526009602052604081206003018054909190611c9b9084906132f5565b9091555050505b600281015460018201546001600160a01b031660009081526007602052604081208054909190611cd3908490613127565b90915550506001810180546001600160a01b039081166000908152600760205260409081902060050185905560028054935490850154915163a9059cbb60e01b81529083166004820152602481019190915291169063a9059cbb906044016020604051808303816000875af1158015611d50573d6000803e3d6000fd5b505050506040513d601f19601f82011682018060405250810190611d749190613086565b611d905760405162461bcd60e51b81526004016109b690613308565b604051339083907f8b6240997bc3af56f5a9aec0408b8286fb78fb0573f2ba96445be3918511cb9390600090a35050565b60056020528160005260406000208181548110611ddd57600080fd5b6000918252602090912060049091020180546001820154600283015460039093015491945092506001600160a01b031684565b611e18612825565b6001600160a01b03841660009081526008602052604090205460ff1615611e795760405162461bcd60e51b81526020600482015260156024820152744c656e64657220616c72656164792065786973747360581b60448201526064016109b6565b6001600160a01b0384811660008181526008602090815260408083208054600160ff199091168117909155600a80548083019091557fc65a7bb8d6351c1cf70c95a316cc6a92839c986682d98bc35f958f4883f9d2a80180546001600160a01b031990811687179091558251610100810184528681528085018b8152818501849052606082018790526080820187905260a0820187905260c082018b905260e082018a90529686526009909452919093208251815490921691909516178455915191929190820190611f4b9082613205565b5060408281015160028301805460ff1916911515919091179055606083015160038301556080830151600483015560a0830151600583015560c0830151600683015560e090920151600790910155516001600160a01b038516907f46e1817fe631c2e6eae865cc7accea90e1c793073fe5c9c225a6ffebaf8a6a8290611fd2908690613337565b60405180910390a250505050565b611fe8612825565b600b94909455600c92909255600d55600e55600f55565b6060806060600060056000868152602001908152602001600020805480602002602001604051908101604052809291908181526020016000905b8282101561209657600084815260209081902060408051608081018252600486029092018054835260018082015484860152600282015492840192909252600301546001600160a01b031660608301529083529092019101612039565b505082519293508291505067ffffffffffffffff8111156120b9576120b9612b3d565b6040519080825280602002602001820160405280156120e2578160200160208202803683370190505b5094508067ffffffffffffffff8111156120fe576120fe612b3d565b604051908082528060200260200182016040528015612127578160200160208202803683370190505b5093508067ffffffffffffffff81111561214357612143612b3d565b60405190808252806020026020018201604052801561216c578160200160208202803683370190505b50925060005b8181101561224c5782818151811061218c5761218c6130a3565b6020026020010151602001518682815181106121aa576121aa6130a3565b6020026020010181815250508281815181106121c8576121c86130a3565b6020026020010151604001518582815181106121e6576121e66130a3565b602002602001018181525050828181518110612204576122046130a3565b602002602001015160600151848281518110612222576122226130a3565b6001600160a01b039092166020928302919091019091015280612244816130cf565b915050612172565b5050509193909250565b61225e612825565b601080546001600160a01b0319166001600160a01b0392909216919091179055565b60046020819052600091825260409091208054600182015460028301546003840154948401546005850154600686015460078701546008880154600989018054989a6001600160a01b039889169a97999098969795969495939460ff808516956101008604909116946201000090049091169290916122fe9061313a565b80601f016020809104026020016040519081016040528092919081815260200182805461232a9061313a565b80156123775780601f1061234c57610100808354040283529160200191612377565b820191906000526020600020905b81548152906001019060200180831161235a57829003601f168201915b505050505090508c565b6006602052816000526040600020818154811061239d57600080fd5b90600052602060002001600091509150505481565b6001600160a01b03811660009081526006602090815260409182902080548351818402810184019094528084526060939283018282801561241257602002820191906000526020600020905b8154815260200190600101908083116123fe575b50505050509050919050565b612426612825565b6001600160a01b03811661248b5760405162461bcd60e51b815260206004820152602660248201527f4f776e61626c653a206e6577206f776e657220697320746865207a65726f206160448201526564647265737360d01b60648201526084016109b6565b610d9e816128d8565b6000600b5484101580156124aa5750600c548411155b6124ec5760405162461bcd60e51b8152602060048201526013602482015272125b9d985b1a59081b1bd85b88185b5bdd5b9d606a1b60448201526064016109b6565b600d5483101580156125005750600e548311155b6125425760405162461bcd60e51b8152602060048201526013602482015272092dcecc2d8d2c840e8cae4da40d8cadccee8d606b1b60448201526064016109b6565b6001600160a01b03851660009081526008602052604090205460ff1661257a5760405162461bcd60e51b81526004016109b6906132c5565b6001600160a01b03851660009081526009602052604090206002015460ff166125dc5760405162461bcd60e51b81526020600482015260146024820152734c656e646572206973206e6f742061637469766560601b60448201526064016109b6565b6001600160a01b0385166000908152600960205260409020600601548411156126475760405162461bcd60e51b815260206004820152601f60248201527f416d6f756e742065786365656473206c656e6465722773206d6178696d756d0060448201526064016109b6565b6001600160a01b0385166000908152600960205260409020600301548411156126b25760405162461bcd60e51b815260206004820152601960248201527f496e73756666696369656e74206c656e6465722066756e64730000000000000060448201526064016109b6565b6126bb33610673565b156126d85760405162461bcd60e51b81526004016109b690613174565b60038054600091826126e9836130cf565b91905055905060006126fd87338888610758565b9050604051806101800160405280838152602001336001600160a01b03168152602001878152602001828152602001868152602001428152602001866201518061274791906130e8565b6127519042613127565b8152602001600081526020016000600481111561277057612770612dd9565b815260006020808301829052604080840183905260609384018990528683526004808352928190208551815591850151600180840180546001600160a01b0319166001600160a01b039093169290921790915590850151600283015592840151600382015560808401518183015560a0840151600582015560c0840151600682015560e0840151600782015561010084015160088201805492949193909260ff191691908490811115610b7357610b73612dd9565b6000546001600160a01b031633146110d15760405162461bcd60e51b815260206004820181905260248201527f4f776e61626c653a2063616c6c6572206973206e6f7420746865206f776e657260448201526064016109b6565b6002600154036128d15760405162461bcd60e51b815260206004820152601f60248201527f5265656e7472616e637947756172643a207265656e7472616e742063616c6c0060448201526064016109b6565b6002600155565b600080546001600160a01b038381166001600160a01b0319831681178455604051919092169283917f8be0079c531659141344cd1fd0a4f28419497f9722a3daafe3b4186f6b6457e09190a35050565b6001600160a01b038116600090815260076020526040902060028101546101f4901561296b57600282015461295e9060326130e8565b6129689082613127565b90505b6003820154156129925760038201546129859060646130e8565b61298f90826132f5565b90505b6103e88111156129a157506103e85b600482018190556040518181526001600160a01b038416907f79c012a0cfae660e09134956bc432c8497ec80e86a3a108d130e8b3fca52b3ad90602001610ed6565b80356001600160a01b03811681146129fa57600080fd5b919050565b60008060408385031215612a1257600080fd5b612a1b836129e3565b946020939093013593505050565b600060208284031215612a3b57600080fd5b61095b826129e3565b60008060008060808587031215612a5a57600080fd5b612a63856129e3565b9350612a71602086016129e3565b93969395505050506040820135916060013590565b6000815180845260005b81811015612aac57602081850181015186830182015201612a90565b506000602082860101526020601f19601f83011685010191505092915050565b6001600160a01b038916815261010060208201819052600090612af18382018b612a86565b981515604084015250506060810195909552608085019390935260a084019190915260c083015260e09091015292915050565b600060208284031215612b3657600080fd5b5035919050565b634e487b7160e01b600052604160045260246000fd5b604051610180810167ffffffffffffffff81118282101715612b7757612b77612b3d565b60405290565b8035600581106129fa57600080fd5b8015158114610d9e57600080fd5b80356129fa81612b8c565b600082601f830112612bb657600080fd5b813567ffffffffffffffff80821115612bd157612bd1612b3d565b604051601f8301601f19908116603f01168101908282118183101715612bf957612bf9612b3d565b81604052838152866020858801011115612c1257600080fd5b836020870160208301376000602085830101528094505050505092915050565b600060208284031215612c4457600080fd5b813567ffffffffffffffff80821115612c5c57600080fd5b908301906101808286031215612c7157600080fd5b612c79612b53565b82358152612c89602084016129e3565b602082015260408301356040820152606083013560608201526080830135608082015260a083013560a082015260c083013560c082015260e083013560e0820152610100612cd8818501612b7d565b90820152610120612cea848201612b9a565b90820152610140612cfc8482016129e3565b908201526101608381013583811115612d1457600080fd5b612d2088828701612ba5565b918301919091525095945050505050565b60008060008060808587031215612d4757600080fd5b612d50856129e3565b93506020850135925060408501359150606085013567ffffffffffffffff811115612d7a57600080fd5b612d8687828801612ba5565b91505092959194509250565b60008060408385031215612da557600080fd5b82359150602083013567ffffffffffffffff811115612dc357600080fd5b612dcf85828601612ba5565b9150509250929050565b634e487b7160e01b600052602160045260246000fd5b60058110612e0d57634e487b7160e01b600052602160045260246000fd5b9052565b600061016060018060a01b03808f1684528d60208501528c60408501528b60608501528a60808501528960a08501528860c0850152612e5360e0850189612def565b86151561010085015285166101208401526101408301819052612e7881840185612a86565b9e9d5050505050505050505050505050565b60008060408385031215612e9d57600080fd5b50508035926020909101359150565b60008060008060808587031215612ec257600080fd5b612ecb856129e3565b9350602085013567ffffffffffffffff811115612ee757600080fd5b612ef387828801612ba5565b949794965050505060408301359260600135919050565b600080600080600060a08688031215612f2257600080fd5b505083359560208501359550604085013594606081013594506080013592509050565b600081518084526020808501945080840160005b83811015612f7557815187529582019590820190600101612f59565b509495945050505050565b606081526000612f936060830186612f45565b602083820381850152612fa68287612f45565b8481036040860152855180825282870193509082019060005b81811015612fe45784516001600160a01b031683529383019391830191600101612fbf565b509098975050505050505050565b60006101808e835260018060a01b03808f1660208501528d60408501528c60608501528b60808501528a60a08501528960c08501528860e085015261303b610100850189612def565b8615156101208501528516610140840152610160830181905261306081840185612a86565b9f9e505050505050505050505050505050565b60208152600061095b6020830184612f45565b60006020828403121561309857600080fd5b815161095b81612b8c565b634e487b7160e01b600052603260045260246000fd5b634e487b7160e01b600052601160045260246000fd5b6000600182016130e1576130e16130b9565b5060010190565b80820281158282048414176130ff576130ff6130b9565b92915050565b60008261312257634e487b7160e01b600052601260045260246000fd5b500490565b808201808211156130ff576130ff6130b9565b600181811c9082168061314e57607f821691505b60208210810361316e57634e487b7160e01b600052602260045260246000fd5b50919050565b60208082526023908201527f43616e6e6f74207265717565737420776974682064656661756c746564206c6f604082015262616e7360e81b606082015260800190565b601f82111561066e57600081815260208120601f850160051c810160208610156131de5750805b601f850160051c820191505b818110156131fd578281556001016131ea565b505050505050565b815167ffffffffffffffff81111561321f5761321f612b3d565b6132338161322d845461313a565b846131b7565b602080601f83116001811461326857600084156132505750858301515b600019600386901b1c1916600185901b1785556131fd565b600085815260208120601f198616915b8281101561329757888601518255948401946001909101908401613278565b50858210156132b55787850151600019600388901b60f8161c191681555b5050505050600190811b01905550565b6020808252601690820152752737ba1030b71030b8383937bb32b2103632b73232b960511b604082015260600190565b818103818111156130ff576130ff6130b9565b602080825260159082015274151bdad95b881d1c985b9cd9995c8819985a5b1959605a1b604082015260600190565b60208152600061095b6020830184612a8656fea26469706673582212203487d4824bc3cec8a4f31c2f3944ca44012c32c1d25628e643fba5c9bb4d2b2764736f6c63430008140033",
  "linkReferences": {},
  "deployedLinkReferences": {}
}