{
  "_format": "hh-sol-artifact-1",
  "contractName": "MicroloanSystem",
  "sourceName": "contracts/MicroloanSystem.sol",
  "abi": [
    {
      "inputs": [
        {
          "internalType": "address",
          "name": "_feeReceiver",
          "type": "address"
        },
        {
          "internalType": "address",
          "name": "_creditScoringOracle",
          "type": "address"
        }
      ],
      "stateMutability": "nonpayable",
      "type": "constructor"
    },
    {
      "anonymous": false,
      "inputs": [
        {
          "indexed": true,
          "internalType": "uint256",
          "name": "loanId",
          "type": "uint256"
        },
        {
          "indexed": true,
          "internalType": "address",
          "name": "borrower",
          "type": "address"
        },
        {
          "indexed": false,
          "internalType": "uint256",
          "name": "amount",
          "type": "uint256"
        }
      ],
      "name": "CollateralDeposited",
      "type": "event"
    },
    {
      "anonymous": false,
      "inputs": [
        {
          "indexed": true,
          "internalType": "uint256",
          "name": "loanId",
          "type": "uint256"
        },
        {
          "indexed": true,
          "internalType": "address",
          "name": "borrower",
          "type": "address"
        },
        {
          "indexed": false,
          "internalType": "uint256",
          "name": "amount",
          "type": "uint256"
        }
      ],
      "name": "CollateralReleased",
      "type": "event"
    },
    {
      "anonymous": false,
      "inputs": [
        {
          "indexed": true,
          "internalType": "address",
          "name": "lender",
          "type": "address"
        },
        {
          "indexed": false,
          "internalType": "uint256",
          "name": "fundingCapacity",
          "type": "uint256"
        }
      ],
      "name": "LenderRegistered",
      "type": "event"
    },
    {
      "anonymous": false,
      "inputs": [
        {
          "indexed": true,
          "internalType": "uint256",
          "name": "loanId",
          "type": "uint256"
        },
        {
          "indexed": true,
          "internalType": "address",
          "name": "lender",
          "type": "address"
        },
        {
          "indexed": false,
          "internalType": "uint256",
          "name": "amount",
          "type": "uint256"
        },
        {
          "indexed": false,
          "internalType": "uint256",
          "name": "interestRate",
          "type": "uint256"
        }
      ],
      "name": "LoanApproved",
      "type": "event"
    },
    {
      "anonymous": false,
      "inputs": [
        {
          "indexed": true,
          "internalType": "uint256",
          "name": "loanId",
          "type": "uint256"
        },
        {
          "indexed": true,
          "internalType": "address",
          "name": "borrower",
          "type": "address"
        }
      ],
      "name": "LoanCompleted",
      "type": "event"
    },
    {
      "anonymous": false,
      "inputs": [
        {
          "indexed": true,
          "internalType": "uint256",
          "name": "loanId",
          "type": "uint256"
        },
        {
          "indexed": true,
          "internalType": "address",
          "name": "borrower",
          "type": "address"
        }
      ],
      "name": "LoanDefaulted",
      "type": "event"
    },
    {
      "anonymous": false,
      "inputs": [
        {
          "indexed": true,
          "internalType": "uint256",
          "name": "loanId",
          "type": "uint256"
        },
        {
          "indexed": false,
          "internalType": "uint256",
          "name": "amount",
          "type": "uint256"
        }
      ],
      "name": "LoanFunded",
      "type": "event"
    },
    {
      "anonymous": false,
      "inputs": [
        {
          "indexed": true,
          "internalType": "uint256",
          "name": "loanId",
          "type": "uint256"
        },
        {
          "indexed": true,
          "internalType": "address",
          "name": "borrower",
          "type": "address"
        },
        {
          "indexed": false,
          "internalType": "uint256",
          "name": "amount",
          "type": "uint256"
        },
        {
          "indexed": false,
          "internalType": "uint256",
          "name": "duration",
          "type": "uint256"
        }
      ],
      "name": "LoanRequested",
      "type": "event"
    },
    {
      "anonymous": false,
      "inputs": [
        {
          "indexed": true,
          "internalType": "address",
          "name": "previousOwner",
          "type": "address"
        },
        {
          "indexed": true,
          "internalType": "address",
          "name": "newOwner",
          "type": "address"
        }
      ],
      "name": "OwnershipTransferred",
      "type": "event"
    },
    {
      "anonymous": false,
      "inputs": [
        {
          "indexed": false,
          "internalType": "address",
          "name": "account",
          "type": "address"
        }
      ],
      "name": "Paused",
      "type": "event"
    },
    {
      "anonymous": false,
      "inputs": [
        {
          "indexed": true,
          "internalType": "uint256",
          "name": "loanId",
          "type": "uint256"
        },
        {
          "indexed": true,
          "internalType": "address",
          "name": "borrower",
          "type": "address"
        },
        {
          "indexed": false,
          "internalType": "uint256",
          "name": "amount",
          "type": "uint256"
        },
        {
          "indexed": false,
          "internalType": "uint256",
          "name": "installment",
          "type": "uint256"
        }
      ],
      "name": "RepaymentMade",
      "type": "event"
    },
    {
      "anonymous": false,
      "inputs": [
        {
          "indexed": false,
          "internalType": "address",
          "name": "account",
          "type": "address"
        }
      ],
      "name": "Unpaused",
      "type": "event"
    },
    {
      "inputs": [
        {
          "internalType": "uint256",
          "name": "_loanId",
          "type": "uint256"
        },
        {
          "internalType": "uint256",
          "name": "_interestRate",
          "type": "uint256"
        }
      ],
      "name": "approveLoan",
      "outputs": [],
      "stateMutability": "nonpayable",
      "type": "function"
    },
    {
      "inputs": [
        {
          "internalType": "address",
          "name": "",
          "type": "address"
        },
        {
          "internalType": "uint256",
          "name": "",
          "type": "uint256"
        }
      ],
      "name": "borrowerLoans",
      "outputs": [
        {
          "internalType": "uint256",
          "name": "",
          "type": "uint256"
        }
      ],
      "stateMutability": "view",
      "type": "function"
    },
    {
      "inputs": [
        {
          "internalType": "address",
          "name": "",
          "type": "address"
        }
      ],
      "name": "borrowers",
      "outputs": [
        {
          "internalType": "uint256",
          "name": "creditScore",
          "type": "uint256"
        },
        {
          "internalType": "uint256",
          "name": "totalBorrowed",
          "type": "uint256"
        },
        {
          "internalType": "uint256",
          "name": "totalRepaid",
          "type": "uint256"
        },
        {
          "internalType": "uint256",
          "name": "activeLoans",
          "type": "uint256"
        },
        {
          "internalType": "uint256",
          "name": "completedLoans",
          "type": "uint256"
        },
        {
          "internalType": "uint256",
          "name": "defaultedLoans",
          "type": "uint256"
        },
        {
          "internalType": "uint256",
          "name": "lastLoanTime",
          "type": "uint256"
        },
        {
          "internalType": "bool",
          "name": "isBlacklisted",
          "type": "bool"
        }
      ],
      "stateMutability": "view",
      "type": "function"
    },
    {
      "inputs": [
        {
          "internalType": "uint256",
          "name": "_maxAmount",
          "type": "uint256"
        },
        {
          "internalType": "uint256",
          "name": "_interestRate",
          "type": "uint256"
        },
        {
          "internalType": "uint256",
          "name": "_maxDuration",
          "type": "uint256"
        },
        {
          "internalType": "uint256",
          "name": "_minCreditScore",
          "type": "uint256"
        },
        {
          "internalType": "enum MicroloanSystem.LoanType[]",
          "name": "_supportedTypes",
          "type": "uint8[]"
        }
      ],
      "name": "createLoanOffer",
      "outputs": [
        {
          "internalType": "uint256",
          "name": "",
          "type": "uint256"
        }
      ],
      "stateMutability": "nonpayable",
      "type": "function"
    },
    {
      "inputs": [],
      "name": "creditScoringOracle",
      "outputs": [
        {
          "internalType": "address",
          "name": "",
          "type": "address"
        }
      ],
      "stateMutability": "view",
      "type": "function"
    },
    {
      "inputs": [
        {
          "internalType": "uint256",
          "name": "_loanId",
          "type": "uint256"
        },
        {
          "internalType": "uint256",
          "name": "_amount",
          "type": "uint256"
        }
      ],
      "name": "depositCollateral",
      "outputs": [],
      "stateMutability": "nonpayable",
      "type": "function"
    },
    {
      "inputs": [
        {
          "internalType": "address",
          "name": "_token",
          "type": "address"
        },
        {
          "internalType": "uint256",
          "name": "_amount",
          "type": "uint256"
        }
      ],
      "name": "depositFunds",
      "outputs": [],
      "stateMutability": "nonpayable",
      "type": "function"
    },
    {
      "inputs": [],
      "name": "feeReceiver",
      "outputs": [
        {
          "internalType": "address",
          "name": "",
          "type": "address"
        }
      ],
      "stateMutability": "view",
      "type": "function"
    },
    {
      "inputs": [
        {
          "internalType": "uint256",
          "name": "_loanId",
          "type": "uint256"
        }
      ],
      "name": "fundLoan",
      "outputs": [],
      "stateMutability": "nonpayable",
      "type": "function"
    },
    {
      "inputs": [
        {
          "internalType": "address",
          "name": "_borrower",
          "type": "address"
        }
      ],
      "name": "getBorrowerInfo",
      "outputs": [
        {
          "internalType": "uint256",
          "name": "creditScore",
          "type": "uint256"
        },
        {
          "internalType": "uint256",
          "name": "totalBorrowed",
          "type": "uint256"
        },
        {
          "internalType": "uint256",
          "name": "totalRepaid",
          "type": "uint256"
        },
        {
          "internalType": "uint256",
          "name": "activeLoans",
          "type": "uint256"
        },
        {
          "internalType": "uint256",
          "name": "completedLoans",
          "type": "uint256"
        },
        {
          "internalType": "uint256",
          "name": "defaultedLoans",
          "type": "uint256"
        },
        {
          "internalType": "bool",
          "name": "isBlacklisted",
          "type": "bool"
        }
      ],
      "stateMutability": "view",
      "type": "function"
    },
    {
      "inputs": [
        {
          "internalType": "address",
          "name": "_lender",
          "type": "address"
        },
        {
          "internalType": "address",
          "name": "_token",
          "type": "address"
        }
      ],
      "name": "getLenderFunds",
      "outputs": [
        {
          "internalType": "uint256",
          "name": "",
          "type": "uint256"
        }
      ],
      "stateMutability": "view",
      "type": "function"
    },
    {
      "inputs": [
        {
          "internalType": "uint256",
          "name": "_loanId",
          "type": "uint256"
        }
      ],
      "name": "getLoanDetails",
      "outputs": [
        {
          "internalType": "address",
          "name": "borrower",
          "type": "address"
        },
        {
          "internalType": "address",
          "name": "lender",
          "type": "address"
        },
        {
          "internalType": "uint256",
          "name": "principalAmount",
          "type": "uint256"
        },
        {
          "internalType": "uint256",
          "name": "interestRate",
          "type": "uint256"
        },
        {
          "internalType": "uint256",
          "name": "installmentAmount",
          "type": "uint256"
        },
        {
          "internalType": "uint256",
          "name": "installmentsPaid",
          "type": "uint256"
        },
        {
          "internalType": "uint256",
          "name": "totalInstallments",
          "type": "uint256"
        },
        {
          "internalType": "enum MicroloanSystem.LoanStatus",
          "name": "status",
          "type": "uint8"
        },
        {
          "internalType": "uint256",
          "name": "nextPaymentDue",
          "type": "uint256"
        }
      ],
      "stateMutability": "view",
      "type": "function"
    },
    {
      "inputs": [],
      "name": "installmentPeriod",
      "outputs": [
        {
          "internalType": "uint256",
          "name": "",
          "type": "uint256"
        }
      ],
      "stateMutability": "view",
      "type": "function"
    },
    {
      "inputs": [],
      "name": "latePenaltyRate",
      "outputs": [
        {
          "internalType": "uint256",
          "name": "",
          "type": "uint256"
        }
      ],
      "stateMutability": "view",
      "type": "function"
    },
    {
      "inputs": [
        {
          "internalType": "address",
          "name": "",
          "type": "address"
        },
        {
          "internalType": "uint256",
          "name": "",
          "type": "uint256"
        }
      ],
      "name": "lenderLoans",
      "outputs": [
        {
          "internalType": "uint256",
          "name": "",
          "type": "uint256"
        }
      ],
      "stateMutability": "view",
      "type": "function"
    },
    {
      "inputs": [
        {
          "internalType": "address",
          "name": "",
          "type": "address"
        }
      ],
      "name": "lenders",
      "outputs": [
        {
          "internalType": "bool",
          "name": "isRegistered",
          "type": "bool"
        },
        {
          "internalType": "uint256",
          "name": "fundingCapacity",
          "type": "uint256"
        },
        {
          "internalType": "uint256",
          "name": "totalLent",
          "type": "uint256"
        },
        {
          "internalType": "uint256",
          "name": "activeLoans",
          "type": "uint256"
        },
        {
          "internalType": "uint256",
          "name": "completedLoans",
          "type": "uint256"
        },
        {
          "internalType": "uint256",
          "name": "defaultRate",
          "type": "uint256"
        },
        {
          "internalType": "uint256",
          "name": "averageReturn",
          "type": "uint256"
        }
      ],
      "stateMutability": "view",
      "type": "function"
    },
    {
      "inputs": [
        {
          "internalType": "uint256",
          "name": "",
          "type": "uint256"
        }
      ],
      "name": "loanOffers",
      "outputs": [
        {
          "internalType": "address",
          "name": "lender",
          "type": "address"
        },
        {
          "internalType": "uint256",
          "name": "maxAmount",
          "type": "uint256"
        },
        {
          "internalType": "uint256",
          "name": "interestRate",
          "type": "uint256"
        },
        {
          "internalType": "uint256",
          "name": "maxDuration",
          "type": "uint256"
        },
        {
          "internalType": "uint256",
          "name": "minCreditScore",
          "type": "uint256"
        },
        {
          "internalType": "bool",
          "name": "isActive",
          "type": "bool"
        }
      ],
      "stateMutability": "view",
      "type": "function"
    },
    {
      "inputs": [
        {
          "internalType": "uint256",
          "name": "",
          "type": "uint256"
        }
      ],
      "name": "loans",
      "outputs": [
        {
          "internalType": "uint256",
          "name": "loanId",
          "type": "uint256"
        },
        {
          "internalType": "address",
          "name": "borrower",
          "type": "address"
        },
        {
          "internalType": "address",
          "name": "lender",
          "type": "address"
        },
        {
          "internalType": "address",
          "name": "token",
          "type": "address"
        },
        {
          "internalType": "uint256",
          "name": "principalAmount",
          "type": "uint256"
        },
        {
          "internalType": "uint256",
          "name": "interestRate",
          "type": "uint256"
        },
        {
          "internalType": "uint256",
          "name": "duration",
          "type": "uint256"
        },
        {
          "internalType": "uint256",
          "name": "installmentAmount",
          "type": "uint256"
        },
        {
          "internalType": "uint256",
          "name": "installmentsPaid",
          "type": "uint256"
        },
        {
          "internalType": "uint256",
          "name": "totalInstallments",
          "type": "uint256"
        },
        {
          "internalType": "uint256",
          "name": "startTime",
          "type": "uint256"
        },
        {
          "internalType": "uint256",
          "name": "nextPaymentDue",
          "type": "uint256"
        },
        {
          "internalType": "enum MicroloanSystem.LoanStatus",
          "name": "status",
          "type": "uint8"
        },
        {
          "internalType": "enum MicroloanSystem.LoanType",
          "name": "loanType",
          "type": "uint8"
        },
        {
          "internalType": "string",
          "name": "purpose",
          "type": "string"
        },
        {
          "internalType": "uint256",
          "name": "collateralAmount",
          "type": "uint256"
        },
        {
          "internalType": "bool",
          "name": "requiresCollateral",
          "type": "bool"
        },
        {
          "internalType": "uint256",
          "name": "creditScoreRequired",
          "type": "uint256"
        },
        {
          "internalType": "uint256",
          "name": "totalRepaid",
          "type": "uint256"
        },
        {
          "internalType": "uint256",
          "name": "penaltyAmount",
          "type": "uint256"
        }
      ],
      "stateMutability": "view",
      "type": "function"
    },
    {
      "inputs": [
        {
          "internalType": "uint256",
          "name": "_loanId",
          "type": "uint256"
        }
      ],
      "name": "makeRepayment",
      "outputs": [],
      "stateMutability": "nonpayable",
      "type": "function"
    },
    {
      "inputs": [
        {
          "internalType": "uint256",
          "name": "_loanId",
          "type": "uint256"
        }
      ],
      "name": "markLoanDefaulted",
      "outputs": [],
      "stateMutability": "nonpayable",
      "type": "function"
    },
    {
      "inputs": [],
      "name": "maxLoanAmount",
      "outputs": [
        {
          "internalType": "uint256",
          "name": "",
          "type": "uint256"
        }
      ],
      "stateMutability": "view",
      "type": "function"
    },
    {
      "inputs": [],
      "name": "minCreditScore",
      "outputs": [
        {
          "internalType": "uint256",
          "name": "",
          "type": "uint256"
        }
      ],
      "stateMutability": "view",
      "type": "function"
    },
    {
      "inputs": [],
      "name": "nextLoanId",
      "outputs": [
        {
          "internalType": "uint256",
          "name": "",
          "type": "uint256"
        }
      ],
      "stateMutability": "view",
      "type": "function"
    },
    {
      "inputs": [],
      "name": "nextOfferId",
      "outputs": [
        {
          "internalType": "uint256",
          "name": "",
          "type": "uint256"
        }
      ],
      "stateMutability": "view",
      "type": "function"
    },
    {
      "inputs": [],
      "name": "owner",
      "outputs": [
        {
          "internalType": "address",
          "name": "",
          "type": "address"
        }
      ],
      "stateMutability": "view",
      "type": "function"
    },
    {
      "inputs": [],
      "name": "pause",
      "outputs": [],
      "stateMutability": "nonpayable",
      "type": "function"
    },
    {
      "inputs": [],
      "name": "paused",
      "outputs": [
        {
          "internalType": "bool",
          "name": "",
          "type": "bool"
        }
      ],
      "stateMutability": "view",
      "type": "function"
    },
    {
      "inputs": [],
      "name": "platformFee",
      "outputs": [
        {
          "internalType": "uint256",
          "name": "",
          "type": "uint256"
        }
      ],
      "stateMutability": "view",
      "type": "function"
    },
    {
      "inputs": [
        {
          "internalType": "uint256",
          "name": "_fundingCapacity",
          "type": "uint256"
        },
        {
          "internalType": "address[]",
          "name": "_supportedTokens",
          "type": "address[]"
        }
      ],
      "name": "registerLender",
      "outputs": [],
      "stateMutability": "nonpayable",
      "type": "function"
    },
    {
      "inputs": [],
      "name": "renounceOwnership",
      "outputs": [],
      "stateMutability": "nonpayable",
      "type": "function"
    },
    {
      "inputs": [
        {
          "internalType": "address",
          "name": "_token",
          "type": "address"
        },
        {
          "internalType": "uint256",
          "name": "_amount",
          "type": "uint256"
        },
        {
          "internalType": "uint256",
          "name": "_duration",
          "type": "uint256"
        },
        {
          "internalType": "enum MicroloanSystem.LoanType",
          "name": "_loanType",
          "type": "uint8"
        },
        {
          "internalType": "string",
          "name": "_purpose",
          "type": "string"
        },
        {
          "internalType": "bool",
          "name": "_requiresCollateral",
          "type": "bool"
        }
      ],
      "name": "requestLoan",
      "outputs": [
        {
          "internalType": "uint256",
          "name": "",
          "type": "uint256"
        }
      ],
      "stateMutability": "nonpayable",
      "type": "function"
    },
    {
      "inputs": [
        {
          "internalType": "address",
          "name": "newOwner",
          "type": "address"
        }
      ],
      "name": "transferOwnership",
      "outputs": [],
      "stateMutability": "nonpayable",
      "type": "function"
    },
    {
      "inputs": [],
      "name": "unpause",
      "outputs": [],
      "stateMutability": "nonpayable",
      "type": "function"
    },
    {
      "inputs": [
        {
          "internalType": "address",
          "name": "_borrower",
          "type": "address"
        },
        {
          "internalType": "uint256",
          "name": "_newScore",
          "type": "uint256"
        }
      ],
      "name": "updateCreditScore",
      "outputs": [],
      "stateMutability": "nonpayable",
      "type": "function"
    },
    {
      "inputs": [
        {
          "internalType": "uint256",
          "name": "_platformFee",
          "type": "uint256"
        },
        {
          "internalType": "uint256",
          "name": "_latePenaltyRate",
          "type": "uint256"
        },
        {
          "internalType": "uint256",
          "name": "_maxLoanAmount",
          "type": "uint256"
        },
        {
          "internalType": "uint256",
          "name": "_minCreditScore",
          "type": "uint256"
        }
      ],
      "name": "updateSettings",
      "outputs": [],
      "stateMutability": "nonpayable",
      "type": "function"
    },
    {
      "inputs": [
        {
          "internalType": "address",
          "name": "_token",
          "type": "address"
        },
        {
          "internalType": "uint256",
          "name": "_amount",
          "type": "uint256"
        }
      ],
      "name": "withdrawFunds",
      "outputs": [],
      "stateMutability": "nonpayable",
      "type": "function"
    }
  ],
  "bytecode": "0x6080346200011c57601f62002d1e38819003918201601f19168301916001600160401b03831184841017620001215780849260409485528339810103126200011c576200005a6020620000528362000137565b920162000137565b6001600081815581546001600160a81b0319811633600881811b610100600160a81b03169290921790945560405195946001600160a01b03949093909290911c8416907f8be0079c531659141344cd1fd0a4f28419497f9722a3daafe3b4186f6b6457e09080a36001600855600160095560c8600a556101f4600b55690a968163f0a57b400000600c55610190600d5562278d00600e558160018060a01b0319931683600f541617600f5516906010541617601055612bd190816200014d8239f35b600080fd5b634e487b7160e01b600052604160045260246000fd5b51906001600160a01b03821682036200011c5756fe61014080604052600436101561001457600080fd5b60003560e01c90816303eebec4146122005750806323cdc1e914611e2057806326232a2e14611e0257806328fd10d714611d825780632c7bdd4b14611d125780633cdb72f114611cc85780633f4ba83a14611c3457806353e2617314611bdc5780635c975abb14611bb95780635f5d065514611b9b57806365352f9d14611afb57806366877b8d14611a415780636f653e3a146119c1578063715018a614611960578063715d4800146118a157806372f943651461188357806376f79b10146118655780637a646492146116505780637deb256f146116275780638456cb59146115ce578063846b909a1461151f57806387c5145914611501578063881805be146113015780638da5cb5b146112d4578063921b004b14611225578063b3f00674146111fc578063bf5d50c414611170578063c107532914611072578063d37415fe14610c7e578063d92d7d7714610a2b578063e1ec3c68146107ed578063e3ed190214610795578063e57330df1461046f578063ece13732146102a3578063f2fde38b146101cf5763ff3c475b146101ac57600080fd5b346101ca5760003660031901126101ca576020600b54604051908152f35b600080fd5b346101ca5760203660031901126101ca576101e861221b565b6101f0612368565b6001600160a01b0381811691821561024f5760018054610100600160a81b03198116600893841b610100600160a81b031617909155901c167f8be0079c531659141344cd1fd0a4f28419497f9722a3daafe3b4186f6b6457e0600080a3005b60405162461bcd60e51b815260206004820152602660248201527f4f776e61626c653a206e6577206f776e657220697320746865207a65726f206160448201526564647265737360d01b6064820152608490fd5b346101ca576102b1366122c0565b6102b9612485565b81151580610464575b6102cb9061291e565b816000526002602052604060002060018060a01b03906102f2826001830154163314612960565b60ff600c82015416600681101561044e57600161030f911461299f565b60ff600f82015416156104095782156103c45761033883600493600384015416309033906124db565b600e810192610348818554612704565b809455604051908152847feec2f3feb835e2f2fd44281034b04700a1ddda63dd402949d470a25a7c40b36c60203393a301546078810290808204607814901517156103ae5760649004111561039f575b6001600055005b6103a8906129df565b80610398565b634e487b7160e01b600052601160045260246000fd5b60405162461bcd60e51b815260206004820152601960248201527f496e76616c696420636f6c6c61746572616c20616d6f756e74000000000000006044820152606490fd5b60405162461bcd60e51b815260206004820152601760248201527f436f6c6c61746572616c206e6f742072657175697265640000000000000000006044820152606490fd5b634e487b7160e01b600052602160045260246000fd5b5060085482106102c2565b346101ca5760a03660031901126101ca5760843567ffffffffffffffff8082116101ca57366023830112156101ca578160040135916104ad836122d6565b906104bb6040519283612231565b838252602092838301809260249182600598891b830101913683116101ca578301905b82821061077d57505050336000526004855261050160ff604060002054166123ed565b6004359283151580610771575b6105179061276e565b81359283151580610765575b61052c906127b0565b6044359586151580610759575b610542906127f4565b60643561012c8110158061074d575b61055a90612833565b6009549761056789612876565b600955886000528a8a52604060002096336bffffffffffffffffffffffff60a01b895416178855600198898901556002880155600387015560048601555190811161073857600160401b8111610738578784019182548284558083106106e1575b50916000528087600020981c9160005b83811061067b5750601f1982169091039081610608575b505050506006019060ff19825416179055604051908152f35b906000936000905b82821061062f57505050506006939495960155849392918680806105ef565b9091929485519060048210156106665761065b8992858d939060ff809160031b9316831b921b19161790565b960193920190610610565b82634e487b7160e01b60005260216004526000fd5b86906000805b8b81106106935750818c0155016105d8565b9380929350519060048210156106cc576106bf8a92868e939060ff809160031b9316831b921b19161790565b9201930190889291610681565b87634e487b7160e01b60005260216004526000fd5b6107119084600052601f8a600020918c8c8388169182610717575b505050018b1c810190601f85018c1c016123d6565b896105c8565b6000198091868b01901c870101928354920360031b1c1690558d8c8e6106fc565b82634e487b7160e01b60005260416004526000fd5b50610352811115610551565b5061016d871115610539565b50611388841115610523565b50600c5484111561050e565b813560048110156101ca5781529087019087016104de565b346101ca5760403660031901126101ca576107ae61221b565b6001600160a01b03166000908152600660205260409020805460243591908210156101ca576020916107df91612285565b90546040519160031b1c8152f35b346101ca5760203660031901126101ca576004356000526002602052604060002061087981549160018060a01b038060018301541660c05280600283015416906003830154166004830154600584015460068501546007860154600887015491600988015493600a89015495600b8a015497600c8b01549960405160a0526000600d8d01549d8e6122ee565b9d8e60a05152600181169081600014610a0757509d9e9d6001146109ad575b8c9d9e5060a0518091036108ab91612231565b600e8c015460e052600f8c015460ff169d60108d01549c601101549d6012015461010052604051806080525260c0516080516020015260805160400152608051606001526080516080015260805160a0015260805160c0015260805160e0015260805161010001526080516101200152608051610140015260805161016001526080516101800160ff821690610940916122b3565b60081c60ff16600481101561044e576101a06080510152610972610280806101c060805101526080510160a051612328565b9260e0516101e06080510152151561020060805101526102206080510152610240608051015261010051610260608051015260805180910390f35b50600d8c016000528d6020600020906000610120525b61012051106109e257506101205160a0519d9e508e9d01602001610898565b806001915460206101205160a051010152019d60206101205101610120529d8e6109c3565b8e9f91506020925060ff19168260a0510152151560051b60a05101018e9d50610898565b346101ca576020806003193601126101ca576004359081151580610c73575b610a539061291e565b8160005260028152604060002090600282019060018060a01b039283835416918233148015610c63575b8015610c56575b15610c2157600c82019182549360ff851693600685101561044e57610aac6003809614612b50565b600b83015462093a8081018091116103ae57421115610be457916001918893600560ff19809916179055600e82015480610bce575b505001948186541660005283835283604060002001610b008154612b8e565b9055818654166000528383526005604060002001610b1e8154612876565b905554166000526004815281604060002001610b3a8154612b8e565b90558484541660005281815260406000208054908160321015600014610bbc5761012c9150555b84845416600052526040600020600260058201541015610ba8575b50505416907f13b88e6866f0156d706fecfa22b678de5fc2b749c1d2307f6f47eb541385f1ec600080a3005b600760019101918254161790558380610b7c565b60311982019182116103ae5755610b61565b610bdd91858885015416612711565b8980610ae1565b60405162461bcd60e51b815260048101859052601560248201527423b930b1b2903832b934b7b2103737ba1037bb32b960591b6044820152606490fd5b6064906040519062461bcd60e51b82526004820152600e60248201526d139bdd08185d5d1a1bdc9a5e995960921b6044820152fd5b5084601054163314610a84565b508460015460081c163314610a7d565b506008548210610a4a565b346101ca576020806003193601126101ca5760043590610c9c612485565b81151580611067575b610cae9061291e565b8160005260028082526040600020600181019260018060a01b0393610cd7858254163314612960565b60ff600c8401541692600684101561044e57610cf66003809514612b50565b6008810180549160098101928354111561102957600781015493600b82018054804211610fdc575b5087830192610d34878c865416309033906124db565b610d4d610d4760048301548854906128fe565b88612761565b906103e8918281029281840414901517156103ae578b94888c8b610da789610d7c612710601199048096612761565b938701541692836000526004835260086040600020018b875416938460005252604060002054612704565b9160005260048d526008604060002001906000528c526040600020558681610fc3575b505050610dd78654612876565b865501610de5878254612704565b9055610df58154600e5490612704565b9055541680600052858552610e11848860406000200154612704565b90600052858552866040600020015554916040519081528284820152877f0a286c61061a6ef637f0a9d98b2c8ce3e7b6c3fe924e23abd5fcb5e01102014260403393a3541115610e62576001600055005b8460005282815283604060002093600c8501600460ff19825416179055600e8501878154858582610f73575b505050505060018501948286541660005284845284604060002001610eb38154612b8e565b9055828654166000528484526004604060002001610ed18154612876565b905501818154166000526004835283604060002001610ef08154612b8e565b90555416600052600481526004604060002001610f0d8154612876565b905583835416600052526040600020805490600a82018092116103ae57818155610352809211610f6b575b50505416907e457d766f297eed4eb3ea8556a72f1864e07885b3bb2b5d2deb36c9a128f18c600080a38080808080610398565b558380610f38565b7f757b323b5139c5e30fe0a1c4b13e38dece5aad9273138c1e3d1ed9191c6e73b292610fae828b8d0154169160018d01928484541690612711565b54169354604051908152a38787818585610e8e565b610fd492541687600f541690612711565b8d8086610dca565b61016d61271061100862015180610ff66110119542612761565b04611003600b548c6123c3565b6123c3565b04048097612704565b9561102160128501918254612704565b90558b610d1e565b60405162461bcd60e51b8152600481018690526016602482015275131bd85b88185b1c9958591e4818dbdb5c1b195d195960521b6044820152606490fd5b506008548210610ca5565b346101ca5760403660031901126101ca5761108b61221b565b602435611096612485565b33600052602091600483526110b260ff604060002054166123ed565b6110bd821515612439565b336000526004835260086040600020019060018060a01b031690816000528352816040600020541061113657610398923360005260048152600860406000200182600052815261111283604060002054612761565b90336000526004815260086040600020019083600052526040600020553390612711565b60405162461bcd60e51b8152600481018490526012602482015271496e73756666696369656e742066756e647360701b6044820152606490fd5b346101ca5760203660031901126101ca576001600160a01b0361119161221b565b16600052600360205261010060406000208054906001810154906002810154600382015460048301549060058401549260ff600760068701549601541695604051978852602088015260408701526060860152608085015260a084015260c0830152151560e0820152f35b346101ca5760003660031901126101ca57600f546040516001600160a01b039091168152602090f35b346101ca5760403660031901126101ca5761123e61221b565b6112ab6024359161124d612485565b33600052600460205261126760ff604060002054166123ed565b611272831515612439565b6001600160a01b031691611288813033866124db565b336000526004602052600860406000200183600052602052604060002054612704565b903360005260046020526008604060002001906000526020526040600020556001600055600080f35b346101ca5760003660031901126101ca5760015460405160089190911c6001600160a01b03168152602090f35b346101ca5760403660031901126101ca57600435602480359067ffffffffffffffff8083116101ca57366023840112156101ca578260040135611343816122d6565b906113516040519283612231565b80825260209485830185819360051b830101913683116101ca578601905b8282106114e257505050336000526004855260ff604060002054166114a957851561146557336000526004855260406000209360076001958660ff19825416178155888782015501925193841161145157600160401b841161145157508154838355808410611434575b50906000528360002060005b83811061141a57867fa0f40b7c0f5a214073b91ac846bcc605c7c35a8fb4c4ea5399cc16746d527c67876040519283523392a2005b82516001600160a01b0316828201559185019184016113e5565b61144b9083600052848760002091820191016123d6565b866113d9565b634e487b7160e01b60009081526041600452fd5b60405162461bcd60e51b8152600481018690526018818601527f496e76616c69642066756e64696e6720636170616369747900000000000000006044820152606490fd5b60405162461bcd60e51b81526004810186905260128186015271105b1c9958591e481c9959da5cdd195c995960721b6044820152606490fd5b81356001600160a01b03811681036101ca57815290870190870161136f565b346101ca5760003660031901126101ca576020600854604051908152f35b346101ca5760203660031901126101ca57600435801515806115c3575b6115459061291e565b806000526002602052604060002060018060a01b03600282015416330361158d57600c015460ff1690600682101561044e57611586600161158b931461299f565b6129df565b005b60405162461bcd60e51b815260206004820152600e60248201526d2737ba103a3432903632b73232b960911b6044820152606490fd5b50600854811061153c565b346101ca5760003660031901126101ca576115e7612368565b6115ef6128ba565b600160ff19815416176001557f62e78cea01bee320cd4e420270b5ea74000d11b0c9f74754ebdbfc544b05a2586020604051338152a1005b346101ca5760003660031901126101ca576010546040516001600160a01b039091168152602090f35b346101ca5761165e366122c0565b908015158061185a575b6116719061291e565b336000526020916004835261168d60ff604060002054166123ed565b81600052600283526040600020600c81019081549160ff8316600681101561044e576118155783151580611809575b6116c5906127b0565b3360005260048652600860406000200160018060a01b03600384015416600052865260406000205490600483019384548093106117c4576002840180546001600160a01b031916331790556005840186905560ff1916600117905560079061175c906117519061271061016d61174961173e8a856123c3565b6006890154906123c3565b040490612704565b6009840154906128fe565b9101553360005260078452611775836040600020612885565b3360005260048452600360406000200161178f8154612876565b905554926040519384528301527fb2c6de76341d4f1188da5458fd8729cbc0e9278f99e8992f40f36900bcef78cb60403393a3005b60405162461bcd60e51b815260048101899052601960248201527f496e73756666696369656e74206c656e6465722066756e6473000000000000006044820152606490fd5b506113888411156116bc565b60405162461bcd60e51b815260048101879052601c60248201527f4c6f616e206e6f7420696e2072657175657374656420737461747573000000006044820152606490fd5b506008548110611668565b346101ca5760003660031901126101ca576020600d54604051908152f35b346101ca5760003660031901126101ca576020600c54604051908152f35b346101ca5760803660031901126101ca576024356004356118c0612368565b6103e88111611923576107d082116118e657600a55600b55604435600c55606435600d55005b60405162461bcd60e51b81526020600482015260156024820152740a0cadcc2d8e8f240e4c2e8ca40e8dede40d0d2ced605b1b6044820152606490fd5b60405162461bcd60e51b81526020600482015260156024820152740a0d8c2e8ccdee4da40cccaca40e8dede40d0d2ced605b1b6044820152606490fd5b346101ca5760003660031901126101ca57611979612368565b60018054610100600160a81b0319811690915560009060081c6001600160a01b03167f8be0079c531659141344cd1fd0a4f28419497f9722a3daafe3b4186f6b6457e08280a3005b346101ca5760203660031901126101ca576001600160a01b036119e261221b565b16600052600360205260e060406000208054906001810154906002810154600382015460048301549160ff600760058601549501541694604051968752602087015260408601526060850152608084015260a0830152151560c0820152f35b346101ca5760203660031901126101ca5760043580151580611af0575b611a679061291e565b6000526002602052610120604060002060018060a01b0390611ae8826001830154169260028301541691600481015460058201546007830154600884015491600985015493600b60ff600c8801541696015497604051998a5260208a015260408901526060880152608087015260a086015260c085015260e08401906122b3565b610100820152f35b506008548110611a5e565b346101ca5760403660031901126101ca57611b1461221b565b601054602435916001600160a01b039182163303611b615761012c83101580611b55575b611b4190612833565b166000526003602052604060002055600080f35b50610352831115611b38565b60405162461bcd60e51b81526020600482015260126024820152714f6e6c7920637265646974206f7261636c6560701b6044820152606490fd5b346101ca5760003660031901126101ca576020600954604051908152f35b346101ca5760003660031901126101ca57602060ff600154166040519015158152f35b346101ca5760403660031901126101ca57611bf561221b565b6001600160a01b0360243581811692908390036101ca571660005260046020526008604060002001906000526020526020604060002054604051908152f35b346101ca5760003660031901126101ca57611c4d612368565b60015460ff811615611c8c5760ff19166001557f5db9ee0a495bf2e6ff9c91a7834c1ba4fdd244a5e8aa4e537bd38aeae4b073aa6020604051338152a1005b60405162461bcd60e51b815260206004820152601460248201527314185d5cd8589b194e881b9bdd081c185d5cd95960621b6044820152606490fd5b346101ca5760403660031901126101ca57611ce161221b565b6001600160a01b03166000908152600760205260409020805460243591908210156101ca576020916107df91612285565b346101ca5760203660031901126101ca57600435600052600560205260c0604060002060018060a01b0381541690600181015490600281015460038201549060ff6006600485015494015416936040519586526020860152604085015260608401526080830152151560a0820152f35b346101ca5760203660031901126101ca576001600160a01b03611da361221b565b16600052600460205260e0604060002060ff815416906001810154906002810154600382015460048301549160066005850154940154946040519615158752602087015260408601526060850152608084015260a083015260c0820152f35b346101ca5760003660031901126101ca576020600a54604051908152f35b346101ca5760c03660031901126101ca57611e3961221b565b602490813560443560643560048110156101ca576084359367ffffffffffffffff8086116101ca57366023870112156101ca57856004013595611e7b87612269565b96611e896040519889612231565b808852368982840101116101ca5788918160009260209b8c9301838c01378901015260a435908115158092036101ca57611ec16128ba565b8615928315806121f4575b611ed59061276e565b861515806121e8575b611ee7906127f4565b3360005260038a5260ff600760406000200154166121ad573360005260038a52604060002054600d54116121725760085498611f228a612876565b600855601e8804946001860180961161215d576103e890818b02918b830414171561215d5785611f59612710611f5e93048c612704565b6128fe565b968a60005260028c526040600020968b8855600188016bffffffffffffffffffffffff60a01b903382825416179055600389019160018060a01b031690825416179055896004880155886006880155600c87019061ff0082549160081b169061ffff1916179055600d86019281519283116114515750611fde83546122ee565b8b601f8211612121575b50508a90601f83116001146120b3576007969594939291600091836120a8575b50508160011b916000199060031b1c19161790555b600f83019060ff80198354169116179055600d546010830155600982015501553360005260068452612053836040600020612885565b3360005260038452600360406000200161206d8154612876565b905560405191825283820152817f68595dbe887ae7f496f2c88735019a8918919a1decfdee6bdb460480ab87decb60403393a3604051908152f35b015190508c80612008565b60008481528c8120929190601f198516908e5b82821061210957505091600193918560079a9998979694106120f0575b505050811b01905561201d565b015160001960f88460031b161c191690558c80806120e3565b806001869782949787015181550196019401906120c6565b61214c91856000528160002090601f860160051c8201928610612153575b601f0160051c01906123d6565b8b8b611fe8565b909150819061213f565b83634e487b7160e01b60005260116004526000fd5b60405162461bcd60e51b8152600481018b9052601481840152734372656469742073636f726520746f6f206c6f7760601b6044820152606490fd5b60405162461bcd60e51b8152600481018b905260148184015273109bdc9c9bddd95c88189b1858dadb1a5cdd195960621b6044820152606490fd5b5061016d871115611ede565b50600c54881115611ecc565b346101ca5760003660031901126101ca57602090600e548152f35b600435906001600160a01b03821682036101ca57565b90601f8019910116810190811067ffffffffffffffff82111761225357604052565b634e487b7160e01b600052604160045260246000fd5b67ffffffffffffffff811161225357601f01601f191660200190565b805482101561229d5760005260206000200190600090565b634e487b7160e01b600052603260045260246000fd5b90600682101561044e5752565b60409060031901126101ca576004359060243590565b67ffffffffffffffff81116122535760051b60200190565b90600182811c9216801561231e575b602083101461230857565b634e487b7160e01b600052602260045260246000fd5b91607f16916122fd565b919082519283825260005b848110612354575050826000602080949584010152601f8019910116010190565b602081830181015184830182015201612333565b60015460081c6001600160a01b0316330361237f57565b606460405162461bcd60e51b815260206004820152602060248201527f4f776e61626c653a2063616c6c6572206973206e6f7420746865206f776e65726044820152fd5b818102929181159184041417156103ae57565b8181106123e1575050565b600081556001016123d6565b156123f457565b60405162461bcd60e51b815260206004820152601760248201527f4e6f7420612072656769737465726564206c656e6465720000000000000000006044820152606490fd5b1561244057565b60405162461bcd60e51b815260206004820152601d60248201527f416d6f756e74206d7573742062652067726561746572207468616e20300000006044820152606490fd5b600260005414612496576002600055565b60405162461bcd60e51b815260206004820152601f60248201527f5265656e7472616e637947756172643a207265656e7472616e742063616c6c006044820152606490fd5b6040516323b872dd60e01b60208201526001600160a01b03928316602482015292909116604483015260648083019390935291815260a081019181831067ffffffffffffffff8411176122535761253492604052612536565b565b60018060a01b031690604051604081019080821067ffffffffffffffff831117612253576125c6916040526020938482527f5361666545524332303a206c6f772d6c6576656c2063616c6c206661696c6564858301526000808587829751910182855af13d15612663573d916125ab83612269565b926125b96040519485612231565b83523d868885013e612667565b805191821591848315612638575b5050509050156125e15750565b6084906040519062461bcd60e51b82526004820152602a60248201527f5361666545524332303a204552433230206f7065726174696f6e20646964206e6044820152691bdd081cdd58d8d9595960b21b6064820152fd5b91938180945001031261265f5782015190811515820361265c5750803880846125d4565b80fd5b5080fd5b6060915b919290156126c9575081511561267b575090565b3b156126845790565b60405162461bcd60e51b815260206004820152601d60248201527f416464726573733a2063616c6c20746f206e6f6e2d636f6e74726163740000006044820152606490fd5b8251909150156126dc5750805190602001fd5b60405162461bcd60e51b815260206004820152908190612700906024830190612328565b0390fd5b919082018092116103ae57565b60405163a9059cbb60e01b60208201526001600160a01b039092166024830152604480830193909352918152608081019167ffffffffffffffff8311828410176122535761253492604052612536565b919082039182116103ae57565b1561277557565b60405162461bcd60e51b8152602060048201526013602482015272125b9d985b1a59081b1bd85b88185b5bdd5b9d606a1b6044820152606490fd5b156127b757565b60405162461bcd60e51b8152602060048201526015602482015274496e76616c696420696e746572657374207261746560581b6044820152606490fd5b156127fb57565b60405162461bcd60e51b815260206004820152601060248201526f24b73b30b634b210323ab930ba34b7b760811b6044820152606490fd5b1561283a57565b60405162461bcd60e51b8152602060048201526014602482015273496e76616c6964206372656469742073636f726560601b6044820152606490fd5b60001981146103ae5760010190565b8054600160401b811015612253576128a291600182018155612285565b819291549060031b91821b91600019901b1916179055565b60ff600154166128c657565b60405162461bcd60e51b815260206004820152601060248201526f14185d5cd8589b194e881c185d5cd95960821b6044820152606490fd5b8115612908570490565b634e487b7160e01b600052601260045260246000fd5b1561292557565b60405162461bcd60e51b8152602060048201526013602482015272131bd85b88191bd95cc81b9bdd08195e1a5cdd606a1b6044820152606490fd5b1561296757565b60405162461bcd60e51b815260206004820152601060248201526f2737ba103a3432903137b93937bbb2b960811b6044820152606490fd5b156129a657565b60405162461bcd60e51b8152602060048201526011602482015270131bd85b881b9bdd08185c1c1c9bdd9959607a1b6044820152606490fd5b7fea9cce54fc29194e0a726c8d4d5462633f965462664714b80ce5c52d3f94b96060008281526020906002825260408260028280852094612b2683870160018060a01b03908180825416998a8652600489526008878720019a600382019b838d5416908189528b526004898920549b612a5d8286019d8e5490612761565b938a52526008898920019088528d5287872055885490612a8d612710612a85600a54856123c3565b048093612761565b9b8c92612aa7858354169460018501958787541690612711565b8481612b37575b505050600c8101600360ff1982541617905542600a820155600b612ad4600e5442612704565b9101558181541680875260038d52612af4600189892001548b5490612704565b90875260038d526001888820015554168452426006868620015554169485835260048952848484200154905490612704565b9381526004875220015551908152a2565b612b4892541685600f541690612711565b388084612aae565b15612b5757565b60405162461bcd60e51b815260206004820152600f60248201526e4c6f616e206e6f742061637469766560881b6044820152606490fd5b80156103ae57600019019056fea2646970667358221220c90e712386350ac1063f85f595eb1970c4000841ebf96f840eafe11de386a3b564736f6c63430008130033",
  "linkReferences": {},
  "deployedLinkReferences": {}
}