{
  "_format": "hh-sol-artifact-1",
  "contractName": "SavingsGroups",
  "sourceName": "contracts/SavingsGroups.sol",
  "abi": [
    {
      "inputs": [
        {
          "internalType": "address",
          "name": "_feeReceiver",
          "type": "address"
        }
      ],
      "stateMutability": "nonpayable",
      "type": "constructor"
    },
    {
      "anonymous": false,
      "inputs": [
        {
          "indexed": true,
          "internalType": "uint256",
          "name": "groupId",
          "type": "uint256"
        },
        {
          "indexed": true,
          "internalType": "address",
          "name": "member",
          "type": "address"
        },
        {
          "indexed": false,
          "internalType": "uint256",
          "name": "amount",
          "type": "uint256"
        },
        {
          "indexed": false,
          "internalType": "uint256",
          "name": "round",
          "type": "uint256"
        }
      ],
      "name": "ContributionMade",
      "type": "event"
    },
    {
      "anonymous": false,
      "inputs": [
        {
          "indexed": true,
          "internalType": "uint256",
          "name": "groupId",
          "type": "uint256"
        },
        {
          "indexed": true,
          "internalType": "address",
          "name": "member",
          "type": "address"
        },
        {
          "indexed": false,
          "internalType": "uint256",
          "name": "amount",
          "type": "uint256"
        }
      ],
      "name": "EmergencyLoanApproved",
      "type": "event"
    },
    {
      "anonymous": false,
      "inputs": [
        {
          "indexed": true,
          "internalType": "uint256",
          "name": "groupId",
          "type": "uint256"
        },
        {
          "indexed": true,
          "internalType": "address",
          "name": "member",
          "type": "address"
        },
        {
          "indexed": false,
          "internalType": "uint256",
          "name": "amount",
          "type": "uint256"
        }
      ],
      "name": "EmergencyLoanRequested",
      "type": "event"
    },
    {
      "anonymous": false,
      "inputs": [
        {
          "indexed": true,
          "internalType": "uint256",
          "name": "groupId",
          "type": "uint256"
        },
        {
          "indexed": false,
          "internalType": "uint256",
          "name": "totalRounds",
          "type": "uint256"
        }
      ],
      "name": "GroupCompleted",
      "type": "event"
    },
    {
      "anonymous": false,
      "inputs": [
        {
          "indexed": true,
          "internalType": "uint256",
          "name": "groupId",
          "type": "uint256"
        },
        {
          "indexed": true,
          "internalType": "address",
          "name": "creator",
          "type": "address"
        },
        {
          "indexed": false,
          "internalType": "string",
          "name": "name",
          "type": "string"
        },
        {
          "indexed": false,
          "internalType": "uint256",
          "name": "contributionAmount",
          "type": "uint256"
        }
      ],
      "name": "GroupCreated",
      "type": "event"
    },
    {
      "anonymous": false,
      "inputs": [
        {
          "indexed": true,
          "internalType": "uint256",
          "name": "groupId",
          "type": "uint256"
        },
        {
          "indexed": true,
          "internalType": "address",
          "name": "member",
          "type": "address"
        },
        {
          "indexed": false,
          "internalType": "uint256",
          "name": "position",
          "type": "uint256"
        }
      ],
      "name": "MemberJoined",
      "type": "event"
    },
    {
      "anonymous": false,
      "inputs": [
        {
          "indexed": true,
          "internalType": "address",
          "name": "previousOwner",
          "type": "address"
        },
        {
          "indexed": true,
          "internalType": "address",
          "name": "newOwner",
          "type": "address"
        }
      ],
      "name": "OwnershipTransferred",
      "type": "event"
    },
    {
      "anonymous": false,
      "inputs": [
        {
          "indexed": false,
          "internalType": "address",
          "name": "account",
          "type": "address"
        }
      ],
      "name": "Paused",
      "type": "event"
    },
    {
      "anonymous": false,
      "inputs": [
        {
          "indexed": true,
          "internalType": "uint256",
          "name": "groupId",
          "type": "uint256"
        },
        {
          "indexed": true,
          "internalType": "address",
          "name": "recipient",
          "type": "address"
        },
        {
          "indexed": false,
          "internalType": "uint256",
          "name": "amount",
          "type": "uint256"
        },
        {
          "indexed": false,
          "internalType": "uint256",
          "name": "round",
          "type": "uint256"
        }
      ],
      "name": "PayoutDistributed",
      "type": "event"
    },
    {
      "anonymous": false,
      "inputs": [
        {
          "indexed": false,
          "internalType": "address",
          "name": "account",
          "type": "address"
        }
      ],
      "name": "Unpaused",
      "type": "event"
    },
    {
      "inputs": [
        {
          "internalType": "uint256",
          "name": "_loanId",
          "type": "uint256"
        }
      ],
      "name": "approveEmergencyLoan",
      "outputs": [],
      "stateMutability": "nonpayable",
      "type": "function"
    },
    {
      "inputs": [
        {
          "internalType": "uint256",
          "name": "_groupId",
          "type": "uint256"
        }
      ],
      "name": "contribute",
      "outputs": [],
      "stateMutability": "nonpayable",
      "type": "function"
    },
    {
      "inputs": [
        {
          "internalType": "string",
          "name": "_name",
          "type": "string"
        },
        {
          "internalType": "string",
          "name": "_description",
          "type": "string"
        },
        {
          "internalType": "address",
          "name": "_token",
          "type": "address"
        },
        {
          "internalType": "uint256",
          "name": "_contributionAmount",
          "type": "uint256"
        },
        {
          "internalType": "uint256",
          "name": "_maxMembers",
          "type": "uint256"
        },
        {
          "internalType": "enum SavingsGroups.ContributionFrequency",
          "name": "_frequency",
          "type": "uint8"
        },
        {
          "internalType": "bool",
          "name": "_emergencyFundEnabled",
          "type": "bool"
        }
      ],
      "name": "createGroup",
      "outputs": [
        {
          "internalType": "uint256",
          "name": "",
          "type": "uint256"
        }
      ],
      "stateMutability": "nonpayable",
      "type": "function"
    },
    {
      "inputs": [],
      "name": "emergencyFundPercentage",
      "outputs": [
        {
          "internalType": "uint256",
          "name": "",
          "type": "uint256"
        }
      ],
      "stateMutability": "view",
      "type": "function"
    },
    {
      "inputs": [
        {
          "internalType": "uint256",
          "name": "",
          "type": "uint256"
        }
      ],
      "name": "emergencyLoans",
      "outputs": [
        {
          "internalType": "uint256",
          "name": "groupId",
          "type": "uint256"
        },
        {
          "internalType": "address",
          "name": "borrower",
          "type": "address"
        },
        {
          "internalType": "uint256",
          "name": "amount",
          "type": "uint256"
        },
        {
          "internalType": "uint256",
          "name": "requestTime",
          "type": "uint256"
        },
        {
          "internalType": "uint256",
          "name": "approvalCount",
          "type": "uint256"
        },
        {
          "internalType": "bool",
          "name": "isApproved",
          "type": "bool"
        },
        {
          "internalType": "bool",
          "name": "isRepaid",
          "type": "bool"
        }
      ],
      "stateMutability": "view",
      "type": "function"
    },
    {
      "inputs": [],
      "name": "feeReceiver",
      "outputs": [
        {
          "internalType": "address",
          "name": "",
          "type": "address"
        }
      ],
      "stateMutability": "view",
      "type": "function"
    },
    {
      "inputs": [
        {
          "internalType": "uint256",
          "name": "_groupId",
          "type": "uint256"
        }
      ],
      "name": "getGroupInfo",
      "outputs": [
        {
          "internalType": "string",
          "name": "name",
          "type": "string"
        },
        {
          "internalType": "string",
          "name": "description",
          "type": "string"
        },
        {
          "internalType": "address",
          "name": "creator",
          "type": "address"
        },
        {
          "internalType": "address",
          "name": "token",
          "type": "address"
        },
        {
          "internalType": "uint256",
          "name": "contributionAmount",
          "type": "uint256"
        },
        {
          "internalType": "uint256",
          "name": "currentMembers",
          "type": "uint256"
        },
        {
          "internalType": "uint256",
          "name": "maxMembers",
          "type": "uint256"
        },
        {
          "internalType": "enum SavingsGroups.GroupStatus",
          "name": "status",
          "type": "uint8"
        },
        {
          "internalType": "uint256",
          "name": "currentRound",
          "type": "uint256"
        },
        {
          "internalType": "uint256",
          "name": "emergencyFundBalance",
          "type": "uint256"
        }
      ],
      "stateMutability": "view",
      "type": "function"
    },
    {
      "inputs": [
        {
          "internalType": "uint256",
          "name": "_groupId",
          "type": "uint256"
        },
        {
          "internalType": "address",
          "name": "_member",
          "type": "address"
        }
      ],
      "name": "getMemberInfo",
      "outputs": [
        {
          "internalType": "bool",
          "name": "isActive",
          "type": "bool"
        },
        {
          "internalType": "uint256",
          "name": "position",
          "type": "uint256"
        },
        {
          "internalType": "uint256",
          "name": "totalContributions",
          "type": "uint256"
        },
        {
          "internalType": "uint256",
          "name": "missedContributions",
          "type": "uint256"
        },
        {
          "internalType": "bool",
          "name": "hasReceivedPayout",
          "type": "bool"
        },
        {
          "internalType": "uint256",
          "name": "payoutRound",
          "type": "uint256"
        }
      ],
      "stateMutability": "view",
      "type": "function"
    },
    {
      "inputs": [
        {
          "internalType": "address",
          "name": "_user",
          "type": "address"
        }
      ],
      "name": "getUserGroups",
      "outputs": [
        {
          "internalType": "uint256[]",
          "name": "",
          "type": "uint256[]"
        }
      ],
      "stateMutability": "view",
      "type": "function"
    },
    {
      "inputs": [
        {
          "internalType": "uint256",
          "name": "_groupId",
          "type": "uint256"
        }
      ],
      "name": "joinGroup",
      "outputs": [],
      "stateMutability": "nonpayable",
      "type": "function"
    },
    {
      "inputs": [],
      "name": "maximumMembers",
      "outputs": [
        {
          "internalType": "uint256",
          "name": "",
          "type": "uint256"
        }
      ],
      "stateMutability": "view",
      "type": "function"
    },
    {
      "inputs": [],
      "name": "minimumContribution",
      "outputs": [
        {
          "internalType": "uint256",
          "name": "",
          "type": "uint256"
        }
      ],
      "stateMutability": "view",
      "type": "function"
    },
    {
      "inputs": [],
      "name": "nextGroupId",
      "outputs": [
        {
          "internalType": "uint256",
          "name": "",
          "type": "uint256"
        }
      ],
      "stateMutability": "view",
      "type": "function"
    },
    {
      "inputs": [],
      "name": "nextLoanId",
      "outputs": [
        {
          "internalType": "uint256",
          "name": "",
          "type": "uint256"
        }
      ],
      "stateMutability": "view",
      "type": "function"
    },
    {
      "inputs": [],
      "name": "owner",
      "outputs": [
        {
          "internalType": "address",
          "name": "",
          "type": "address"
        }
      ],
      "stateMutability": "view",
      "type": "function"
    },
    {
      "inputs": [],
      "name": "pause",
      "outputs": [],
      "stateMutability": "nonpayable",
      "type": "function"
    },
    {
      "inputs": [],
      "name": "paused",
      "outputs": [
        {
          "internalType": "bool",
          "name": "",
          "type": "bool"
        }
      ],
      "stateMutability": "view",
      "type": "function"
    },
    {
      "inputs": [],
      "name": "platformFee",
      "outputs": [
        {
          "internalType": "uint256",
          "name": "",
          "type": "uint256"
        }
      ],
      "stateMutability": "view",
      "type": "function"
    },
    {
      "inputs": [],
      "name": "renounceOwnership",
      "outputs": [],
      "stateMutability": "nonpayable",
      "type": "function"
    },
    {
      "inputs": [
        {
          "internalType": "uint256",
          "name": "_loanId",
          "type": "uint256"
        }
      ],
      "name": "repayEmergencyLoan",
      "outputs": [],
      "stateMutability": "nonpayable",
      "type": "function"
    },
    {
      "inputs": [
        {
          "internalType": "uint256",
          "name": "_groupId",
          "type": "uint256"
        },
        {
          "internalType": "uint256",
          "name": "_amount",
          "type": "uint256"
        },
        {
          "internalType": "string",
          "name": "_reason",
          "type": "string"
        }
      ],
      "name": "requestEmergencyLoan",
      "outputs": [
        {
          "internalType": "uint256",
          "name": "",
          "type": "uint256"
        }
      ],
      "stateMutability": "nonpayable",
      "type": "function"
    },
    {
      "inputs": [
        {
          "internalType": "uint256",
          "name": "",
          "type": "uint256"
        }
      ],
      "name": "savingsGroups",
      "outputs": [
        {
          "internalType": "uint256",
          "name": "groupId",
          "type": "uint256"
        },
        {
          "internalType": "string",
          "name": "name",
          "type": "string"
        },
        {
          "internalType": "string",
          "name": "description",
          "type": "string"
        },
        {
          "internalType": "address",
          "name": "creator",
          "type": "address"
        },
        {
          "internalType": "address",
          "name": "token",
          "type": "address"
        },
        {
          "internalType": "uint256",
          "name": "contributionAmount",
          "type": "uint256"
        },
        {
          "internalType": "uint256",
          "name": "maxMembers",
          "type": "uint256"
        },
        {
          "internalType": "uint256",
          "name": "currentMembers",
          "type": "uint256"
        },
        {
          "internalType": "enum SavingsGroups.ContributionFrequency",
          "name": "frequency",
          "type": "uint8"
        },
        {
          "internalType": "uint256",
          "name": "startTime",
          "type": "uint256"
        },
        {
          "internalType": "uint256",
          "name": "lastPayoutTime",
          "type": "uint256"
        },
        {
          "internalType": "uint256",
          "name": "currentRound",
          "type": "uint256"
        },
        {
          "internalType": "enum SavingsGroups.GroupStatus",
          "name": "status",
          "type": "uint8"
        },
        {
          "internalType": "bool",
          "name": "emergencyFundEnabled",
          "type": "bool"
        },
        {
          "internalType": "uint256",
          "name": "emergencyFundBalance",
          "type": "uint256"
        },
        {
          "internalType": "uint256",
          "name": "totalContributions",
          "type": "uint256"
        }
      ],
      "stateMutability": "view",
      "type": "function"
    },
    {
      "inputs": [
        {
          "internalType": "address",
          "name": "newOwner",
          "type": "address"
        }
      ],
      "name": "transferOwnership",
      "outputs": [],
      "stateMutability": "nonpayable",
      "type": "function"
    },
    {
      "inputs": [],
      "name": "unpause",
      "outputs": [],
      "stateMutability": "nonpayable",
      "type": "function"
    },
    {
      "inputs": [
        {
          "internalType": "uint256",
          "name": "_percentage",
          "type": "uint256"
        }
      ],
      "name": "updateEmergencyFundPercentage",
      "outputs": [],
      "stateMutability": "nonpayable",
      "type": "function"
    },
    {
      "inputs": [
        {
          "internalType": "uint256",
          "name": "_platformFee",
          "type": "uint256"
        }
      ],
      "name": "updatePlatformFee",
      "outputs": [],
      "stateMutability": "nonpayable",
      "type": "function"
    },
    {
      "inputs": [
        {
          "internalType": "address",
          "name": "",
          "type": "address"
        },
        {
          "internalType": "uint256",
          "name": "",
          "type": "uint256"
        }
      ],
      "name": "userGroups",
      "outputs": [
        {
          "internalType": "uint256",
          "name": "",
          "type": "uint256"
        }
      ],
      "stateMutability": "view",
      "type": "function"
    }
  ],
  "bytecode": "0x6080346100ee57601f61242538819003918201601f19168301916001600160401b038311848410176100f3578084926020946040528339810103126100ee57516001600160a01b0390818116908190036100ee576001600081815581546001600160a81b0319811633600881811b610100600160a81b0316929092179094556040519591901c16907f8be0079c531659141344cd1fd0a4f28419497f9722a3daafe3b4186f6b6457e09080a3600160055560016006556019600755683635c9adc5dea000006009556032600a556101f4600b5560018060a01b0319600854161760085561231b908161010a8239f35b600080fd5b634e487b7160e01b600052604160045260246000fdfe6080604052600436101561001257600080fd5b60003560e01c80631e67939e14611afd57806326232a2e14611adf57806336ffd7781461195e578063384e77db146118f95780633da04e4a146118455780633f4ba83a146117b157806355b8d7d4146117935780635c975abb146117705780635eda7a761461175257806360a9e097146116fa578063715018a61461169957806376aac0111461167b5780638456cb591461162257806387c51459146116045780638da5cb5b146115d75780638fffc6691461155a57806390cfb5f414611357578063937e09b11461133957806399d4360f14611249578063aa0b5988146111e2578063b3f00674146111b9578063bcc74bfc14610f84578063c1cbbca714610b70578063c1d4eea2146105a4578063e0e2cc4414610478578063eed02e4b1461021e5763f2fde38b1461014557600080fd5b346102195760203660031901126102195761015e611bac565b610166611dd2565b6001600160a01b038181169182156101c55760018054610100600160a81b03198116600893841b610100600160a81b031617909155901c167f8be0079c531659141344cd1fd0a4f28419497f9722a3daafe3b4186f6b6457e0600080a3005b60405162461bcd60e51b815260206004820152602660248201527f4f776e61626c653a206e6577206f776e657220697320746865207a65726f206160448201526564647265737360d01b6064820152608490fd5b600080fd5b34610219576020806003193601126102195760043561023b611eac565b8015158061046d575b61024d90611ef0565b806000526002825260406000209161027560ff600c8501541661026f81611cd2565b15611f33565b600f8301923360005283825260ff604060002054166104355760078101938454600683015481101561040057916103b46010926102d37ff4f82575ee84a81aac4be52b6a368e9ba9df524b4f5cf8177d7cfbabe861820c9695611e2d565b809855600985604051926102e684611bf0565b60018452818401428152610392604086018d81526060870160008152608088016000815260a08901916000835260c08a01936000855260e08b0196600088526101008c019860008a526101208d019a60008c52336000525261035c60406000209c5115158d9060ff801983541691151516179055565b5160018c01555160028b01555160038a0155516004890155516005880155511515600687019060ff801983541691151516179055565b51600785015551600884015551151591019060ff801983541691151516179055565b6103c13360118301611e3c565b856000520181526040600020336001600160601b0360a01b82541617905533600052600481526103f5836040600020611e77565b6040519384523393a3005b60405162461bcd60e51b815260048101859052600d60248201526c11dc9bdd5c081a5cc8199d5b1b609a1b6044820152606490fd5b60405162461bcd60e51b815260048101839052601060248201526f20b63932b0b23c90309036b2b6b132b960811b6044820152606490fd5b506005548110610244565b3461021957602036600319011261021957600435600052600260205260406000208054600182016104a890611d2c565b6104b460028401611d2c565b92600160a01b60019003908160038201541691600482015416600582015460068301546007840154600885015460ff16600986015491600a87015493600b88015495600c89015497600d8a015499600e01549a6040519e8f9e8f9e8f918252610200806020840152820161052791611c92565b90808203906040015261053991611c92565b9c6060015260808d015260a08c015260c08b015260e08a015261055b81611cd2565b61010089015261012088015261014087015261016086015260ff811661058081611cd2565b61018086015260081c60ff1615156101a08501526101c08401526101e08301520390f35b346102195760e03660031901126102195760043567ffffffffffffffff8111610219576105d5903690600401611c4b565b60243567ffffffffffffffff8111610219576105f5903690600401611c4b565b90604435906001600160a01b038216820361021957600360a43510156102195760c4359081151582036102195761062a611eac565b805115610b355760095460643510610af9576003608435101580610aeb575b15610aaf576001600160a01b03831615610a72576005549161066a83611e2d565b600555826000526002602052604060002090838255825167ffffffffffffffff811161099d5761069d6001840154611cf2565b601f8111610a2b575b50806020601f82116001146109be576000916109b3575b508160011b916000199060031b1c19161760018301555b85519467ffffffffffffffff861161099d576106f36002840154611cf2565b96601f8811610956575b602097508790601f88116001146108e45796809160109697986000926108d9575b50508160011b916000199060031b1c19161760028401555b6003830180546001600160a01b031990811633179091556004840180549091166001600160a01b0390921691909117905560643560058301556084356006830155600160078301556008820161078d60a435611cd2565b60ff1981541660ff60a43516179055426009830155600c82019061ff00825491151560081b169061ffff191617905561084a6040516107cb81611bf0565b6001815260098388830142815260408401600181526103926060860160008152608087016000815260a08801906000825260c08901926000845260e08a0195600087526101008b019760008952600f6101208d019a60008c52336000520160205261035c60406000209c5115158d9060ff801983541691151516179055565b6108573360118301611e3c565b60016000520183526040600020336001600160601b0360a01b825416179055336000526004835261088c826040600020611e77565b817f71bc968adbe37d4b6377f6e730eecbb608ef8ff87106c881b9ab8929302a3f666108c360405193604085526040850190611c92565b92606435868201528033940390a3604051908152f35b01519050898061071e565b9060028501600052886000209160005b601f198a16811061093f5750918891600193601098999a601f19811610610926575b505050811b016002840155610736565b015160001960f88460031b161c19169055898080610916565b91928a6001819286850151815501940192016108f4565b600284016000526020600020601f880160051c810160208910610996575b601f8a0160051c8201811061098a5750506106fd565b60008155600101610974565b5080610974565b634e487b7160e01b600052604160045260246000fd5b9050840151886106bd565b91506001840160005260206000206000925b601f1983168410610a13576001935082601f198116106109fa575b5050811b0160018301556106d4565b86015160001960f88460031b161c1916905588806109eb565b868101518255602093840193600190920191016109d0565b600184016000526020600020601f830160051c810160208410610a6b575b601f830160051c82018110610a5f5750506106a6565b60008155600101610a49565b5080610a49565b60405162461bcd60e51b8152602060048201526015602482015274496e76616c696420746f6b656e206164647265737360581b6044820152606490fd5b60405162461bcd60e51b8152602060048201526014602482015273125b9d985b1a59081b595b58995c8818dbdd5b9d60621b6044820152606490fd5b50600a546084351115610649565b60405162461bcd60e51b8152602060048201526014602482015273436f6e747269627574696f6e20746f6f206c6f7760601b6044820152606490fd5b60405162461bcd60e51b815260206004820152601360248201527211dc9bdd5c081b985b59481c995c5d5a5c9959606a1b6044820152606490fd5b3461021957602036600319011261021957610b89611fb3565b610b91611eac565b6004356000526002602052600f60406000200133600052602052610bbc60ff60406000205416611f72565b60043560005260026020526040600020600c81015490610be260ff831661026f81611cd2565b60058101549160ff839160081c16610f45575b6004820154610c119190309033906001600160a01b0316612009565b33600052600f8101602052604060002091600392838101610c38815460058601549061222c565b9055600542910155610c4f600e830191825461222c565b9055600b6005820154910154604051918252602082015233907ff9b7589b7a8d939b9da5dae90770378fe5fd7802be5d66432e85bedbdbfbcb7a604060043592a360043560005260026020526040600020600091600090601183018054925b838110610e915785600786015414610cc8575b6001600055005b60043560005260026020526040600020600b8101610ce68154611e2d565b80825560009081526010830160205260409020546001600160a01b0316918215610e4c57600e8101928354600754808202908282041482151715610e3657600795610d38612710600093048094612239565b926004860190610d52858760018060a01b03855416612246565b80610e13575b5050838252600f850160205260408220600681019660ff19976001898254161790555497889101555542600a8401556040519081528460208201527f9855065419f7dab68a92d0ec83da9f1e50736415843c7849733eed78ce0c1360604060043592a36007810154831015610dd0575b505050610cc1565b600c60019101918254161790556040519081527f6d68ab904b0772380ada6eeda83e5370494b359983026ffb8fcabc07605f6a47602060043592a2808080610dc8565b9054600854610e2f92916001600160a01b039182169116612246565b8780610d58565b634e487b7160e01b600052601160045260246000fd5b60405162461bcd60e51b815260206004820152601860248201527f496e76616c6964207061796f757420726563697069656e7400000000000000006044820152606490fd5b610e9b8183611bc2565b60018060a01b03915490851b1c166004356000526002602052604060002090600052600f81016020526040600020906005610edc60ff600884015416612296565b600a83015490928115610f395750925b015490828210159283610f25575b505050610f10575b610f0b90611e2d565b610cae565b94610f1d610f0b91611e2d565b959050610f02565b610f3092935061222c565b11878080610efa565b60099150015492610eec565b600b5490818402918483041484151715610e3657610f6b612710610c1193048095612239565b93610f7b600d850191825461222c565b90559050610bf5565b3461021957602080600319360112610219576004356000818152600383526040902060018082015491939092916001600160a01b039081161561117e57600685013360005280835260ff604060002054166111465785546000526002835260406000209033600052600f8201845261100360ff60406000205416611f72565b60ff600588015416611109573360005283526007600460406000209760ff1998888a82541617905501916110378354611e2d565b8093550154851c90858201809211610e3657101561105157005b7fd0ab1d85e3efae244ae208956fcd6849c887b57dd433e5faa1e16d0684230a9c926000526003825260406000208054600052600283526110fa6040600020600583018789825416179055600d8101978854986110b4600286019a8b5490612239565b90558784019785895416600052600f83018752600960406000200191825416179055836004895492828a5416600052836008604060002001550154168488541690612246565b549354169354604051908152a3005b60405162461bcd60e51b8152600481018590526015602482015274131bd85b88185b1c9958591e48185c1c1c9bdd9959605a1b6044820152606490fd5b60405162461bcd60e51b815260048101849052601060248201526f105b1c9958591e48185c1c1c9bdd995960821b6044820152606490fd5b60405162461bcd60e51b8152600481018390526013602482015272131bd85b88191bd95cc81b9bdd08195e1a5cdd606a1b6044820152606490fd5b34610219576000366003190112610219576008546040516001600160a01b039091168152602090f35b34610219576020366003190112610219576004356111fe611dd2565b6103e8811161120c57600755005b60405162461bcd60e51b81526020600482015260156024820152740a0d8c2e8ccdee4da40cccaca40e8dede40d0d2ced605b1b6044820152606490fd5b34610219576020366003190112610219576004358015158061132e575b61126f90611ef0565b60005260026020526112e8604060002060018060a01b03806003830154169060048301541660058301546007840154600685015460ff600c8701541691600b87015493600d880154956112f66112d360026112cc60018d01611d2c565b9b01611d2c565b6040519b8c9b8c6101408091528d0190611c92565b908b820360208d0152611c92565b9760408a01526060890152608088015260a087015260c086015261131981611cd2565b60e08501526101008401526101208301520390f35b506005548110611266565b34610219576000366003190112610219576020600954604051908152f35b346102195760603660031901126102195760243560043560443567ffffffffffffffff81116102195761138e903690600401611c4b565b50611397611eac565b8060005260209160028352600f6040600020013360005283526113c160ff60406000205416611f72565b8160005260028352604060002060ff600c82015460081c161561151557600d81015482116114d057600f903360005201835260ff6009604060002001541661148b576006549161141083611e2d565b60065582600052600384526005604060002082815560018101336001600160601b0360a01b825416179055836002820155426003820155600060048201550161ffff1981541690556040519182527fdc001d438904e2d3352c19f8905c42cc137bf6530e135bbfcb436a764a599521843393a3604051908152f35b60405162461bcd60e51b815260048101849052601760248201527f416c72656164792068617320616374697665206c6f616e0000000000000000006044820152606490fd5b60405162461bcd60e51b815260048101859052601b60248201527f496e73756666696369656e7420656d657267656e63792066756e6400000000006044820152606490fd5b60405162461bcd60e51b815260048101859052601a60248201527f456d657267656e63792066756e64206e6f7420656e61626c65640000000000006044820152606490fd5b3461021957602036600319011261021957600435600052600360205260e0604060002060ff81549160018060a01b0360018201541690600281015460038201549060056004840154930154936040519687526020870152604086015260608501526080840152818116151560a084015260081c16151560c0820152f35b346102195760003660031901126102195760015460405160089190911c6001600160a01b03168152602090f35b34610219576000366003190112610219576020600654604051908152f35b346102195760003660031901126102195761163b611dd2565b611643611eac565b600160ff19815416176001557f62e78cea01bee320cd4e420270b5ea74000d11b0c9f74754ebdbfc544b05a2586020604051338152a1005b34610219576000366003190112610219576020600a54604051908152f35b34610219576000366003190112610219576116b2611dd2565b60018054610100600160a81b0319811690915560009060081c6001600160a01b03167f8be0079c531659141344cd1fd0a4f28419497f9722a3daafe3b4186f6b6457e08280a3005b3461021957604036600319011261021957611713611bac565b6001600160a01b03166000908152600460205260409020805460243591908210156102195760209161174491611bc2565b90546040519160031b1c8152f35b34610219576000366003190112610219576020600554604051908152f35b3461021957600036600319011261021957602060ff600154166040519015158152f35b34610219576000366003190112610219576020600b54604051908152f35b34610219576000366003190112610219576117ca611dd2565b60015460ff8116156118095760ff19166001557f5db9ee0a495bf2e6ff9c91a7834c1ba4fdd244a5e8aa4e537bd38aeae4b073aa6020604051338152a1005b60405162461bcd60e51b815260206004820152601460248201527314185d5cd8589b194e881b9bdd081c185d5cd95960621b6044820152606490fd5b3461021957602080600319360112610219576001600160a01b03611867611bac565b1660005260048152604060002060405190818382549182815201908192600052846000209060005b868282106118e55786866118a582880383611c0d565b604051928392818401908285525180915260408401929160005b8281106118ce57505050500390f35b8351855286955093810193928101926001016118bf565b83548552909301926001928301920161188f565b3461021957602036600319011261021957600435611915611dd2565b6103e8811161192357600b55005b60405162461bcd60e51b81526020600482015260136024820152720a0cae4c6cadce8c2ceca40e8dede40d0d2ced606b1b6044820152606490fd5b346102195760208060031936011261021957611978611fb3565b611980611eac565b6004356000526003815260406000209060018060a01b03806001840154163303611aa7576005830192835460ff811615611a6e5760081c60ff16611a3357600f92938154600052600285526119eb600260406000209460048601541693019283549030903390612009565b61010061ff0019825416179055611a0a600d830191825490549061222c565b90553360005201905260006008604082206009810160ff19815416905501556001600055600080f35b60405162461bcd60e51b8152600481018490526013602482015272131bd85b88185b1c9958591e481c995c185a59606a1b6044820152606490fd5b60405162461bcd60e51b8152600481018590526011602482015270131bd85b881b9bdd08185c1c1c9bdd9959607a1b6044820152606490fd5b60405162461bcd60e51b815260048101839052601060248201526f2737ba103a3432903137b93937bbb2b960811b6044820152606490fd5b34610219576000366003190112610219576020600754604051908152f35b34610219576040366003190112610219576024356001600160a01b03811690600435908290036102195780151580611ba1575b611b3990611ef0565b6000526002602052600f6040600020019060005260205260c0604060002060ff815416906002810154906003810154600482015490600760ff6006850154169301549360405195151586526020860152604085015260608401521515608083015260a0820152f35b506005548110611b30565b600435906001600160a01b038216820361021957565b8054821015611bda5760005260206000200190600090565b634e487b7160e01b600052603260045260246000fd5b610140810190811067ffffffffffffffff82111761099d57604052565b90601f8019910116810190811067ffffffffffffffff82111761099d57604052565b67ffffffffffffffff811161099d57601f01601f191660200190565b81601f8201121561021957803590611c6282611c2f565b92611c706040519485611c0d565b8284526020838301011161021957816000926020809301838601378301015290565b919082519283825260005b848110611cbe575050826000602080949584010152601f8019910116010190565b602081830181015184830182015201611c9d565b60031115611cdc57565b634e487b7160e01b600052602160045260246000fd5b90600182811c92168015611d22575b6020831014611d0c57565b634e487b7160e01b600052602260045260246000fd5b91607f1691611d01565b9060405191826000825492611d4084611cf2565b908184526001948581169081600014611daf5750600114611d6c575b5050611d6a92500383611c0d565b565b9093915060005260209081600020936000915b818310611d97575050611d6a93508201013880611d5c565b85548884018501529485019487945091830191611d7f565b915050611d6a94506020925060ff191682840152151560051b8201013880611d5c565b60015460081c6001600160a01b03163303611de957565b606460405162461bcd60e51b815260206004820152602060248201527f4f776e61626c653a2063616c6c6572206973206e6f7420746865206f776e65726044820152fd5b6000198114610e365760010190565b8054600160401b81101561099d57611e5991600182018155611bc2565b819291549060031b9160018060a01b03809116831b921b1916179055565b8054600160401b81101561099d57611e9491600182018155611bc2565b819291549060031b91821b91600019901b1916179055565b60ff60015416611eb857565b60405162461bcd60e51b815260206004820152601060248201526f14185d5cd8589b194e881c185d5cd95960821b6044820152606490fd5b15611ef757565b60405162461bcd60e51b815260206004820152601460248201527311dc9bdd5c08191bd95cc81b9bdd08195e1a5cdd60621b6044820152606490fd5b15611f3a57565b60405162461bcd60e51b815260206004820152601060248201526f47726f7570206e6f742061637469766560801b6044820152606490fd5b15611f7957565b60405162461bcd60e51b81526020600482015260126024820152712737ba10309033b937bab81036b2b6b132b960711b6044820152606490fd5b600260005414611fc4576002600055565b60405162461bcd60e51b815260206004820152601f60248201527f5265656e7472616e637947756172643a207265656e7472616e742063616c6c006044820152606490fd5b6040516323b872dd60e01b60208201526001600160a01b03928316602482015292909116604483015260648083019390935291815260a081019181831067ffffffffffffffff84111761099d57611d6a926040525b60018060a01b031690604051604081019080821067ffffffffffffffff83111761099d576120ee916040526020938482527f5361666545524332303a206c6f772d6c6576656c2063616c6c206661696c6564858301526000808587829751910182855af13d1561218b573d916120d383611c2f565b926120e16040519485611c0d565b83523d868885013e61218f565b805191821591848315612160575b5050509050156121095750565b6084906040519062461bcd60e51b82526004820152602a60248201527f5361666545524332303a204552433230206f7065726174696f6e20646964206e6044820152691bdd081cdd58d8d9595960b21b6064820152fd5b919381809450010312612187578201519081151582036121845750803880846120fc565b80fd5b5080fd5b6060915b919290156121f157508151156121a3575090565b3b156121ac5790565b60405162461bcd60e51b815260206004820152601d60248201527f416464726573733a2063616c6c20746f206e6f6e2d636f6e74726163740000006044820152606490fd5b8251909150156122045750805190602001fd5b60405162461bcd60e51b815260206004820152908190612228906024830190611c92565b0390fd5b91908201809211610e3657565b91908203918211610e3657565b60405163a9059cbb60e01b60208201526001600160a01b039092166024830152604480830193909352918152608081019167ffffffffffffffff83118284101761099d57611d6a9260405261205e565b61229f81611cd2565b80156122dd576122ae81611cd2565b600181146122d557806122c2600292611cd2565b146122ce5762093a8090565b62278d0090565b5062093a8090565b50620151809056fea2646970667358221220dbda6c61f120c6d6bda85cc65c92e868615ecaae0415d703867a056110795b6464736f6c63430008130033",
  "linkReferences": {},
  "deployedLinkReferences": {}
}