{
  "_format": "hh-sol-artifact-1",
  "contractName": "VillageWallet",
  "sourceName": "contracts/VillageWallet.sol",
  "abi": [
    {
      "inputs": [
        {
          "internalType": "address",
          "name": "_feeReceiver",
          "type": "address"
        }
      ],
      "stateMutability": "nonpayable",
      "type": "constructor"
    },
    {
      "anonymous": false,
      "inputs": [
        {
          "indexed": true,
          "internalType": "address",
          "name": "agent",
          "type": "address"
        },
        {
          "indexed": false,
          "internalType": "string",
          "name": "location",
          "type": "string"
        },
        {
          "indexed": false,
          "internalType": "uint256",
          "name": "commission",
          "type": "uint256"
        }
      ],
      "name": "AgentRegistered",
      "type": "event"
    },
    {
      "anonymous": false,
      "inputs": [
        {
          "indexed": true,
          "internalType": "address",
          "name": "user",
          "type": "address"
        },
        {
          "indexed": true,
          "internalType": "address",
          "name": "agent",
          "type": "address"
        },
        {
          "indexed": false,
          "internalType": "uint256",
          "name": "amount",
          "type": "uint256"
        },
        {
          "indexed": false,
          "internalType": "bool",
          "name": "isCashIn",
          "type": "bool"
        }
      ],
      "name": "CashInOutCompleted",
      "type": "event"
    },
    {
      "anonymous": false,
      "inputs": [
        {
          "indexed": true,
          "internalType": "address",
          "name": "user",
          "type": "address"
        },
        {
          "indexed": true,
          "internalType": "address",
          "name": "token",
          "type": "address"
        },
        {
          "indexed": false,
          "internalType": "uint256",
          "name": "amount",
          "type": "uint256"
        }
      ],
      "name": "DepositMade",
      "type": "event"
    },
    {
      "anonymous": false,
      "inputs": [
        {
          "indexed": true,
          "internalType": "address",
          "name": "previousOwner",
          "type": "address"
        },
        {
          "indexed": true,
          "internalType": "address",
          "name": "newOwner",
          "type": "address"
        }
      ],
      "name": "OwnershipTransferred",
      "type": "event"
    },
    {
      "anonymous": false,
      "inputs": [
        {
          "indexed": false,
          "internalType": "address",
          "name": "account",
          "type": "address"
        }
      ],
      "name": "Paused",
      "type": "event"
    },
    {
      "anonymous": false,
      "inputs": [
        {
          "indexed": true,
          "internalType": "address",
          "name": "from",
          "type": "address"
        },
        {
          "indexed": true,
          "internalType": "address",
          "name": "to",
          "type": "address"
        },
        {
          "indexed": true,
          "internalType": "address",
          "name": "token",
          "type": "address"
        },
        {
          "indexed": false,
          "internalType": "uint256",
          "name": "amount",
          "type": "uint256"
        }
      ],
      "name": "TransferMade",
      "type": "event"
    },
    {
      "anonymous": false,
      "inputs": [
        {
          "indexed": false,
          "internalType": "address",
          "name": "account",
          "type": "address"
        }
      ],
      "name": "Unpaused",
      "type": "event"
    },
    {
      "anonymous": false,
      "inputs": [
        {
          "indexed": true,
          "internalType": "address",
          "name": "user",
          "type": "address"
        },
        {
          "indexed": false,
          "internalType": "string",
          "name": "phoneNumber",
          "type": "string"
        },
        {
          "indexed": false,
          "internalType": "string",
          "name": "country",
          "type": "string"
        }
      ],
      "name": "UserRegistered",
      "type": "event"
    },
    {
      "anonymous": false,
      "inputs": [
        {
          "indexed": true,
          "internalType": "address",
          "name": "user",
          "type": "address"
        },
        {
          "indexed": true,
          "internalType": "address",
          "name": "token",
          "type": "address"
        },
        {
          "indexed": false,
          "internalType": "uint256",
          "name": "amount",
          "type": "uint256"
        }
      ],
      "name": "WithdrawalMade",
      "type": "event"
    },
    {
      "inputs": [
        {
          "internalType": "address",
          "name": "_token",
          "type": "address"
        }
      ],
      "name": "addSupportedToken",
      "outputs": [],
      "stateMutability": "nonpayable",
      "type": "function"
    },
    {
      "inputs": [],
      "name": "agentCommission",
      "outputs": [
        {
          "internalType": "uint256",
          "name": "",
          "type": "uint256"
        }
      ],
      "stateMutability": "view",
      "type": "function"
    },
    {
      "inputs": [
        {
          "internalType": "address",
          "name": "",
          "type": "address"
        }
      ],
      "name": "agents",
      "outputs": [
        {
          "internalType": "string",
          "name": "location",
          "type": "string"
        },
        {
          "internalType": "string",
          "name": "businessName",
          "type": "string"
        },
        {
          "internalType": "uint256",
          "name": "commissionRate",
          "type": "uint256"
        },
        {
          "internalType": "bool",
          "name": "isActive",
          "type": "bool"
        },
        {
          "internalType": "uint256",
          "name": "totalVolume",
          "type": "uint256"
        },
        {
          "internalType": "uint256",
          "name": "successfulTransactions",
          "type": "uint256"
        },
        {
          "internalType": "uint256",
          "name": "registrationTime",
          "type": "uint256"
        }
      ],
      "stateMutability": "view",
      "type": "function"
    },
    {
      "inputs": [
        {
          "internalType": "address",
          "name": "",
          "type": "address"
        },
        {
          "internalType": "address",
          "name": "",
          "type": "address"
        }
      ],
      "name": "balances",
      "outputs": [
        {
          "internalType": "uint256",
          "name": "available",
          "type": "uint256"
        },
        {
          "internalType": "uint256",
          "name": "locked",
          "type": "uint256"
        }
      ],
      "stateMutability": "view",
      "type": "function"
    },
    {
      "inputs": [
        {
          "internalType": "address",
          "name": "_user",
          "type": "address"
        },
        {
          "internalType": "address",
          "name": "_token",
          "type": "address"
        },
        {
          "internalType": "uint256",
          "name": "_amount",
          "type": "uint256"
        }
      ],
      "name": "cashIn",
      "outputs": [],
      "stateMutability": "nonpayable",
      "type": "function"
    },
    {
      "inputs": [
        {
          "internalType": "address",
          "name": "_agent",
          "type": "address"
        },
        {
          "internalType": "address",
          "name": "_token",
          "type": "address"
        },
        {
          "internalType": "uint256",
          "name": "_amount",
          "type": "uint256"
        }
      ],
      "name": "cashOut",
      "outputs": [],
      "stateMutability": "nonpayable",
      "type": "function"
    },
    {
      "inputs": [],
      "name": "dailyLimit",
      "outputs": [
        {
          "internalType": "uint256",
          "name": "",
          "type": "uint256"
        }
      ],
      "stateMutability": "view",
      "type": "function"
    },
    {
      "inputs": [
        {
          "internalType": "address",
          "name": "",
          "type": "address"
        },
        {
          "internalType": "uint256",
          "name": "",
          "type": "uint256"
        }
      ],
      "name": "dailySpent",
      "outputs": [
        {
          "internalType": "uint256",
          "name": "",
          "type": "uint256"
        }
      ],
      "stateMutability": "view",
      "type": "function"
    },
    {
      "inputs": [
        {
          "internalType": "address",
          "name": "_token",
          "type": "address"
        },
        {
          "internalType": "uint256",
          "name": "_amount",
          "type": "uint256"
        }
      ],
      "name": "deposit",
      "outputs": [],
      "stateMutability": "nonpayable",
      "type": "function"
    },
    {
      "inputs": [
        {
          "internalType": "address",
          "name": "_token",
          "type": "address"
        },
        {
          "internalType": "uint256",
          "name": "_amount",
          "type": "uint256"
        }
      ],
      "name": "emergencyWithdraw",
      "outputs": [],
      "stateMutability": "nonpayable",
      "type": "function"
    },
    {
      "inputs": [],
      "name": "feeReceiver",
      "outputs": [
        {
          "internalType": "address",
          "name": "",
          "type": "address"
        }
      ],
      "stateMutability": "view",
      "type": "function"
    },
    {
      "inputs": [
        {
          "internalType": "address",
          "name": "_user",
          "type": "address"
        },
        {
          "internalType": "address",
          "name": "_token",
          "type": "address"
        }
      ],
      "name": "getBalance",
      "outputs": [
        {
          "internalType": "uint256",
          "name": "available",
          "type": "uint256"
        },
        {
          "internalType": "uint256",
          "name": "locked",
          "type": "uint256"
        }
      ],
      "stateMutability": "view",
      "type": "function"
    },
    {
      "inputs": [],
      "name": "getSupportedTokens",
      "outputs": [
        {
          "internalType": "address[]",
          "name": "",
          "type": "address[]"
        }
      ],
      "stateMutability": "view",
      "type": "function"
    },
    {
      "inputs": [
        {
          "internalType": "string",
          "name": "_phoneNumber",
          "type": "string"
        }
      ],
      "name": "getUserByPhone",
      "outputs": [
        {
          "internalType": "address",
          "name": "",
          "type": "address"
        }
      ],
      "stateMutability": "view",
      "type": "function"
    },
    {
      "inputs": [],
      "name": "monthlyLimit",
      "outputs": [
        {
          "internalType": "uint256",
          "name": "",
          "type": "uint256"
        }
      ],
      "stateMutability": "view",
      "type": "function"
    },
    {
      "inputs": [
        {
          "internalType": "address",
          "name": "",
          "type": "address"
        },
        {
          "internalType": "uint256",
          "name": "",
          "type": "uint256"
        }
      ],
      "name": "monthlySpent",
      "outputs": [
        {
          "internalType": "uint256",
          "name": "",
          "type": "uint256"
        }
      ],
      "stateMutability": "view",
      "type": "function"
    },
    {
      "inputs": [],
      "name": "owner",
      "outputs": [
        {
          "internalType": "address",
          "name": "",
          "type": "address"
        }
      ],
      "stateMutability": "view",
      "type": "function"
    },
    {
      "inputs": [],
      "name": "pause",
      "outputs": [],
      "stateMutability": "nonpayable",
      "type": "function"
    },
    {
      "inputs": [],
      "name": "paused",
      "outputs": [
        {
          "internalType": "bool",
          "name": "",
          "type": "bool"
        }
      ],
      "stateMutability": "view",
      "type": "function"
    },
    {
      "inputs": [
        {
          "internalType": "string",
          "name": "",
          "type": "string"
        }
      ],
      "name": "phoneToAddress",
      "outputs": [
        {
          "internalType": "address",
          "name": "",
          "type": "address"
        }
      ],
      "stateMutability": "view",
      "type": "function"
    },
    {
      "inputs": [],
      "name": "platformFee",
      "outputs": [
        {
          "internalType": "uint256",
          "name": "",
          "type": "uint256"
        }
      ],
      "stateMutability": "view",
      "type": "function"
    },
    {
      "inputs": [
        {
          "internalType": "string",
          "name": "_location",
          "type": "string"
        },
        {
          "internalType": "string",
          "name": "_businessName",
          "type": "string"
        },
        {
          "internalType": "uint256",
          "name": "_commissionRate",
          "type": "uint256"
        }
      ],
      "name": "registerAgent",
      "outputs": [],
      "stateMutability": "nonpayable",
      "type": "function"
    },
    {
      "inputs": [
        {
          "internalType": "string",
          "name": "_phoneNumber",
          "type": "string"
        },
        {
          "internalType": "string",
          "name": "_country",
          "type": "string"
        }
      ],
      "name": "registerUser",
      "outputs": [],
      "stateMutability": "nonpayable",
      "type": "function"
    },
    {
      "inputs": [
        {
          "internalType": "address",
          "name": "_token",
          "type": "address"
        }
      ],
      "name": "removeSupportedToken",
      "outputs": [],
      "stateMutability": "nonpayable",
      "type": "function"
    },
    {
      "inputs": [],
      "name": "renounceOwnership",
      "outputs": [],
      "stateMutability": "nonpayable",
      "type": "function"
    },
    {
      "inputs": [
        {
          "internalType": "address",
          "name": "",
          "type": "address"
        }
      ],
      "name": "supportedTokens",
      "outputs": [
        {
          "internalType": "bool",
          "name": "",
          "type": "bool"
        }
      ],
      "stateMutability": "view",
      "type": "function"
    },
    {
      "inputs": [
        {
          "internalType": "uint256",
          "name": "",
          "type": "uint256"
        }
      ],
      "name": "tokenList",
      "outputs": [
        {
          "internalType": "address",
          "name": "",
          "type": "address"
        }
      ],
      "stateMutability": "view",
      "type": "function"
    },
    {
      "inputs": [
        {
          "internalType": "address",
          "name": "_to",
          "type": "address"
        },
        {
          "internalType": "address",
          "name": "_token",
          "type": "address"
        },
        {
          "internalType": "uint256",
          "name": "_amount",
          "type": "uint256"
        }
      ],
      "name": "transfer",
      "outputs": [],
      "stateMutability": "nonpayable",
      "type": "function"
    },
    {
      "inputs": [
        {
          "internalType": "address",
          "name": "newOwner",
          "type": "address"
        }
      ],
      "name": "transferOwnership",
      "outputs": [],
      "stateMutability": "nonpayable",
      "type": "function"
    },
    {
      "inputs": [],
      "name": "unpause",
      "outputs": [],
      "stateMutability": "nonpayable",
      "type": "function"
    },
    {
      "inputs": [
        {
          "internalType": "address",
          "name": "_feeReceiver",
          "type": "address"
        }
      ],
      "name": "updateFeeReceiver",
      "outputs": [],
      "stateMutability": "nonpayable",
      "type": "function"
    },
    {
      "inputs": [
        {
          "internalType": "uint256",
          "name": "_dailyLimit",
          "type": "uint256"
        },
        {
          "internalType": "uint256",
          "name": "_monthlyLimit",
          "type": "uint256"
        }
      ],
      "name": "updateLimits",
      "outputs": [],
      "stateMutability": "nonpayable",
      "type": "function"
    },
    {
      "inputs": [
        {
          "internalType": "uint256",
          "name": "_platformFee",
          "type": "uint256"
        }
      ],
      "name": "updatePlatformFee",
      "outputs": [],
      "stateMutability": "nonpayable",
      "type": "function"
    },
    {
      "inputs": [
        {
          "internalType": "address",
          "name": "",
          "type": "address"
        }
      ],
      "name": "users",
      "outputs": [
        {
          "internalType": "string",
          "name": "phoneNumber",
          "type": "string"
        },
        {
          "internalType": "string",
          "name": "country",
          "type": "string"
        },
        {
          "internalType": "bool",
          "name": "isRegistered",
          "type": "bool"
        },
        {
          "internalType": "bool",
          "name": "isVerified",
          "type": "bool"
        },
        {
          "internalType": "uint256",
          "name": "registrationTime",
          "type": "uint256"
        },
        {
          "internalType": "uint256",
          "name": "totalTransactions",
          "type": "uint256"
        },
        {
          "internalType": "uint256",
          "name": "creditScore",
          "type": "uint256"
        }
      ],
      "stateMutability": "view",
      "type": "function"
    },
    {
      "inputs": [
        {
          "internalType": "address",
          "name": "_user",
          "type": "address"
        }
      ],
      "name": "verifyUser",
      "outputs": [],
      "stateMutability": "nonpayable",
      "type": "function"
    },
    {
      "inputs": [
        {
          "internalType": "address",
          "name": "_token",
          "type": "address"
        },
        {
          "internalType": "uint256",
          "name": "_amount",
          "type": "uint256"
        }
      ],
      "name": "withdraw",
      "outputs": [],
      "stateMutability": "nonpayable",
      "type": "function"
    }
  ],
  "bytecode": "0x6080346100f157601f612a3838819003918201601f19168301916001600160401b038311848410176100f6578084926020946040528339810103126100f157516001600160a01b0390818116908190036100f1576001600081815581546001600160a81b0319811633600881811b610100600160a81b0316929092179094556040519591901c16907f8be0079c531659141344cd1fd0a4f28419497f9722a3daafe3b4186f6b6457e09080a36032600855606460095569021e19e0c9bab2400000600b5569152d02c7e14af6800000600c55600a80546001600160a01b03191691909117905561292b908161010d8239f35b600080fd5b634e487b7160e01b600052604160045260246000fdfe608080604052600436101561001357600080fd5b60003560e01c90816307e2587614611f90575080630a6005da14611f725780631d2e4afd14611ac1578063230e7c32146104d857806326232a2e14611aa35780633f4ba83a14611a4c57806347e7ef241461191e5780634d813120146118b6578063593ee5be146118985780635c975abb1461187557806367eeba0c1461185757806368c4ac26146118185780636d69fcaf14611752578063715018a6146116f157806376319190146115cf5780637982f5b414611340578063810e4ff0146110d55780638456cb591461107c5780638da5cb5b1461104f5780639061a57f1461100757806395ccea6714610fbb5780639ead722214610f79578063a2240e1914610f52578063a87430ba14610eb2578063aa0b598814610e4b578063b3f0067414610e22578063beabacc814610b79578063c23f001f14610b1f578063c69bebe414610a96578063d3c7c2c7146109ce578063d4fac45d1461095c578063da6b03bc14610540578063eada609d146104d8578063f2fde38b14610404578063f3fef3a31461025c5763fd66091e146101ab57600080fd5b34610257576020366003190112610257576001600160a01b036101cc611fd3565b16600052600360205261022960406000206101e68161217c565b906101f36001820161217c565b60028201549160ff600382015416600482015490610237600660058501549401549460405198899860e08a5260e08a0190612222565b9088820360208a0152612222565b94604087015215156060860152608085015260a084015260c08301520390f35b600080fd5b3461025757604036600319011261025757610275611fd3565b602435906102816123d2565b61028961238e565b33600052602091600283526102ab60ff60026040600020015460081c16612602565b60018060a01b038092169283600052600681526102cf60ff604060002054166122e4565b81156102db8115612342565b336000526004825260406000208560005282526102ff836040600020541015612642565b61031161030c843361275f565b612685565b3360005260048252604060002085600052825261033383604060002054612335565b3360005260048352604060002086600052835260406000205560085490818402918483041417156103ee577f26aabd0b187d03562b9e52195f1ff57274164c7fd5588254b7654cc27dde2b00926127106103ad9204946103938683612335565b9561039f87338a6126d1565b806103d9575b5050336127d3565b336000526002815260046040600020016103c78154612326565b90556040519283523392a36001600055005b6103e791600a5416886126d1565b86806103a5565b634e487b7160e01b600052601160045260246000fd5b346102575760203660031901126102575761041d611fd3565b610425612247565b6001600160a01b038181169182156104845760018054610100600160a81b03198116600893841b610100600160a81b031617909155901c167f8be0079c531659141344cd1fd0a4f28419497f9722a3daafe3b4186f6b6457e0600080a3005b60405162461bcd60e51b815260206004820152602660248201527f4f776e61626c653a206e6577206f776e657220697320746865207a65726f206160448201526564647265737360d01b6064820152608490fd5b34610257576020366003190112610257576004356001600160401b0381116102575761050a6020913690600401612056565b8161051e604051928381519384920161209d565b600590820190815281900382019020546040516001600160a01b039091168152f35b34610257576060366003190112610257576004356001600160401b03811161025757610570903690600401612056565b6024356001600160401b0381116102575761058f903690600401612056565b9033600052600360205260ff60036040600020015416610917576103e8604435116108d257604051916105c183611fff565b818352602083015260443560408301526001606083015260006080830152600060a08301524260c0830152336000526003602052604060002082519283516001600160401b038111610804576106178354612142565b601f811161088e575b506020601f821160011461082557819293949560009261081a575b50508160011b916000199060031b1c19161782555b60208101518051906001600160401b038211610804576106736001850154612142565b601f81116107bd575b50602090601f83116001146107485791806006949260c09460009261073d575b50508160011b916000199060031b1c19161760018501555b604081015160028501556106dd60608201511515600386019060ff801983541691151516179055565b6080810151600485015560a0810151600585015501519101557f023c5efe572c42192271951adb0e77f97d7fc84bc761d026189ac0861734682461072c60405192604084526040840190612222565b9160443560208201528033930390a2005b01519050878061069c565b906001850160005260206000209160005b601f19851681106107a55750926006949260019260c09583601f1981161061078c575b505050811b0160018501556106b4565b015160001960f88460031b161c1916905587808061077c565b91926020600181928685015181550194019201610759565b600185016000526020600020601f840160051c8101602085106107fd575b601f830160051c820181106107f157505061067c565b600081556001016107db565b50806107db565b634e487b7160e01b600052604160045260246000fd5b01519050858061063b565b8360005260206000209060005b601f1984168110610876575060019394959683601f1981161061085d575b505050811b018255610650565b015160001960f88460031b161c19169055858080610850565b9091602060018192858b015181550193019101610832565b836000526020600020601f830160051c8101602084106108cb575b601f830160051c820181106108bf575050610620565b600081556001016108a9565b50806108a9565b60405162461bcd60e51b815260206004820152601860248201527f436f6d6d697373696f6e207261746520746f6f206869676800000000000000006044820152606490fd5b60405162461bcd60e51b815260206004820152601860248201527f4167656e7420616c7265616479207265676973746572656400000000000000006044820152606490fd5b34610257576040366003190112610257576040610977611fd3565b61097f611fe9565b60018060a01b0380921691826000526004602052836000209116908160005260205282600020549160005260046020528260002090600052602052600182600020015482519182526020820152f35b3461025757600036600319011261025757604051806007548083526020809301809160076000527fa66cc928b5edb82af9bd49922954155ab7b0942694bea4ce44661d9a8736c6889060005b86828210610a79578686610a308288038361201a565b604051928392818401908285525180915260408401929160005b828110610a5957505050500390f35b83516001600160a01b031685528695509381019392810192600101610a4a565b83546001600160a01b031685529093019260019283019201610a1a565b3461025757602036600319011261025757610aaf611fd3565b610ab7612247565b6001600160a01b03168015610ae3576bffffffffffffffffffffffff60a01b600a541617600a55600080f35b60405162461bcd60e51b815260206004820152601460248201527324b73b30b634b2103332b2903932b1b2b4bb32b960611b6044820152606490fd5b3461025757604036600319011261025757610b38611fd3565b610b40611fe9565b9060018060a01b038091166000526004602052604060002091166000526020526040806000206001815491015482519182526020820152f35b3461025757610b87366120c0565b9190610b916123d2565b610b9961238e565b3360005260026020818152610bba60ff836040600020015460081c16612602565b60018060a01b03809316948560005260068252610bde60ff604060002054166122e4565b838516948515610de957811593610bf58515612342565b8660005280845260ff81604060002001541615610da45733600052600484526040600020886000528452610c30836040600020541015612642565b610c3d61030c843361275f565b60085494858402958487041417156103ee57610d0a610d4d936127107f979ece407f0f9d2e856185e9ad64957140d0f2085942c94da79e6507903c5de79704610c868183612335565b98336000526004885260406000208c6000528852610ca983604060002054612335565b336000526004895260406000208d60005289526040600020558a6000526004885260406000208c6000528852610ce48a6040600020546125f5565b8b6000526004895260406000208d600052895260406000205581610d5d575050336127d3565b336000528084526004604060002001610d238154612326565b90558660005283526004604060002001610d3d8154612326565b9055610d4833612851565b612851565b6040519283523392a46001600055005b610d8490600a541691826000526004895260406000208d60005289526040600020546125f5565b906000526004875260406000208b60005287526040600020558a806103a5565b60405162461bcd60e51b815260048101859052601860248201527f526563697069656e74206e6f74207265676973746572656400000000000000006044820152606490fd5b60405162461bcd60e51b8152600481018490526011602482015270125b9d985b1a59081c9958da5c1a595b9d607a1b6044820152606490fd5b3461025757600036600319011261025757600a546040516001600160a01b039091168152602090f35b3461025757602036600319011261025757600435610e67612247565b6103e88111610e7557600855005b60405162461bcd60e51b81526020600482015260156024820152740a0d8c2e8ccdee4da40cccaca40e8dede40d0d2ced605b1b6044820152606490fd5b34610257576020366003190112610257576001600160a01b03610ed3611fd3565b1660005260026020526102296040600020610eed8161217c565b90610efa6001820161217c565b600282015491600381015460ff610f29600560048501549401549460405198899860e08a5260e08a0190612222565b948181161515604088015260081c1615156060860152608085015260a084015260c08301520390f35b3461025757604036600319011261025757610f6b612247565b600435600b55602435600c55005b346102575760203660031901126102575760043560075481101561025757610fa26020916120f5565b905460405160039290921b1c6001600160a01b03168152f35b3461025757604036600319011261025757611005610fd7611fd3565b610fdf612247565b610fe76128ac565b600154602435916001600160a01b0360089290921c821691166126d1565b005b34610257576040366003190112610257576001600160a01b03611028611fd3565b16600052600d60205260406000206024356000526020526020604060002054604051908152f35b346102575760003660031901126102575760015460405160089190911c6001600160a01b03168152602090f35b3461025757600036600319011261025757611095612247565b61109d61238e565b600160ff19815416176001557f62e78cea01bee320cd4e420270b5ea74000d11b0c9f74754ebdbfc544b05a2586020604051338152a1005b34610257576110e3366120c0565b6110ee9291926123d2565b6110f661238e565b336000526020926002845261111860ff60026040600020015460081c16612602565b60018060a01b0380911692836000526006855261113c60ff604060002054166122e4565b1692831561130c578115916111518315612342565b846000526003825261116d60ff60036040600020015416612720565b33600052600482526040600020846000528252611191816040600020541015612642565b61119e61030c823361275f565b846000526003825260026040600020015492838202938285041417156103ee5761127d60059161271060009504956111d68783612335565b96338752600486526040872082885286526111f5836040892054612335565b338852600487526040882083895287526040882055888752600486526040872082885286526112288860408920546125f5565b898852600487526040882083895287526040882055806112d1575b505061124f81336127d3565b33855260028452600460408620016112678154612326565b90558685526003845260046040862001546125f5565b8584526003835260408420906004820155016112998154612326565b90556040519283528201527fce52eb65327b74f350e4e03f380dcc941aa67074d05dee2205453fbd1d60620460403392a36001600055005b6112ef908988526004875260408820838952875260408820546125f5565b908887526004865260408720908752855260408620558780611243565b6064906040519062461bcd60e51b82526004820152600d60248201526c125b9d985b1a59081859d95b9d609a1b6044820152fd5b346102575761134e366120c0565b6113566123d2565b61135e61238e565b336000526020916003835261137d60ff60036040600020015416612720565b60018060a01b038091169384600052600684526113a160ff604060002054166122e4565b1691821561159c578115916113b68315612342565b83600052600282526113d260ff600260406000200154166122a2565b33600052600482526040600020856000528252806040600020541061155757336000526003825260026040600020015492838202938285041417156103ee576114be60059161271060019504966114298883612335565b973360005260048652604060002082600052865261144c83604060002054612335565b3360005260048752604060002083600052875260406000205587600052600486526040600020826000528652611487896040600020546125f5565b8860005260048752604060002083600052875260406000205580611514575b505033600052600384526004604060002001546125f5565b33600052600383526040600020906004820155016114dc8154612326565b90556040519384528301527fce52eb65327b74f350e4e03f380dcc941aa67074d05dee2205453fbd1d60620460403393a36001600055005b61153690336000526004875260406000208360005287526040600020546125f5565b903360005260048652604060002090600052855260406000205587806114a6565b60405162461bcd60e51b815260048101839052601a60248201527f496e73756666696369656e74206167656e742062616c616e63650000000000006044820152606490fd5b6064906040519062461bcd60e51b82526004820152600c60248201526b24b73b30b634b2103ab9b2b960a11b6044820152fd5b34610257576020366003190112610257576115e8611fd3565b6115f0612247565b6001600160a01b039081166000818152600660205260409020546116169060ff166122e4565b6000818152600660205260408120805460ff19169055905b6007918254928382101561100557849383611648846120f5565b979054600398891b1c161461166b57505061166591929350612326565b9061162e565b90939250600019918282019182116103ee5761169a8461168d6116b9946120f5565b905490891b1c16916120f5565b90919082549060031b9160018060a01b03809116831b921b1916179055565b825480156116db5701926116cc846120f5565b8154921b9290921b1916905555005b634e487b7160e01b600052603160045260246000fd5b346102575760003660031901126102575761170a612247565b60018054610100600160a81b0319811690915560009060081c6001600160a01b03167f8be0079c531659141344cd1fd0a4f28419497f9722a3daafe3b4186f6b6457e08280a3005b346102575760203660031901126102575761176b611fd3565b611773612247565b6001600160a01b03811660008181526006602052604090205460ff166117d35760005260066020526040600020600160ff1982541617905560075490680100000000000000008210156108045761169a82600161100594016007556120f5565b60405162461bcd60e51b815260206004820152601760248201527f546f6b656e20616c726561647920737570706f727465640000000000000000006044820152606490fd5b34610257576020366003190112610257576001600160a01b03611839611fd3565b166000526006602052602060ff604060002054166040519015158152f35b34610257576000366003190112610257576020600b54604051908152f35b3461025757600036600319011261025757602060ff600154166040519015158152f35b34610257576000366003190112610257576020600954604051908152f35b34610257576020366003190112610257576118cf611fd3565b6118d7612247565b60018060a01b03168060005260026020526118fc60ff600260406000200154166122a2565b6000526002602052600260406000200161010061ff0019825416179055600080f35b3461025757604036600319011261025757611937611fd3565b6024356119426123d2565b61194a61238e565b336000526020916002835261196960ff600260406000200154166122a2565b60018060a01b031691826000526006815261198b60ff604060002054166122e4565b611996821515612342565b6040516323b872dd60e01b82820152336024820152306044820152606480820184905281529060a082016001600160401b03811183821017610804577f1de3ece35391f6bba650736f2d5d3f12e2cfc54538a340cc5d762d34ca449de792611a019160405285612428565b33600052600481526040600020846000528152611a23836040600020546125f5565b336000526004825260406000208560005282526040600020556040519283523392a36001600055005b3461025757600036600319011261025757611a65612247565b611a6d6128ac565b60ff19600154166001557f5db9ee0a495bf2e6ff9c91a7834c1ba4fdd244a5e8aa4e537bd38aeae4b073aa6020604051338152a1005b34610257576000366003190112610257576020600854604051908152f35b34610257576040366003190112610257576004356001600160401b03811161025757611af1903690600401612056565b6024356001600160401b03811161025757611b10903690600401612056565b9033600052600260205260ff60026040600020015416611f2d576040518151611b3d81836020860161209d565b60059082019081528190036020019020546001600160a01b0316611ee857604051611b6781611fff565b8181528260208201526001604082015260006060820152426080820152600060a08201526101f460c082015233600052600260205260406000209080518051906001600160401b038211610804578190611bc18554612142565b601f8111611e98575b50602090601f8311600114611e2c57600092611e21575b50508160011b916000199060031b1c19161782555b60208101518051906001600160401b03821161080457611c196001850154612142565b601f8111611dda575b50602090601f8311600114611d3f577f92822564bab8864c3a47b34e8d23fbce5c46234eb5da261f94087b995ac0f33b959383611d20969460059460c094600092611d34575b50508160011b916000199060031b1c19161760018501555b60028401611ca060408301511515829060ff801983541691151516179055565b6060820151151561ff0082549160081b169061ff0019161790556080810151600385015560a0810151600485015501519101556040516020818351611ce8818385880161209d565b81016005815203019020336bffffffffffffffffffffffff60a01b825416179055611d2f604051928392604084526040840190612222565b82810360208401523395612222565b0390a2005b015190508a80611c68565b906001850160005260206000209160005b601f1985168110611dc257509360018460059460c0947f92822564bab8864c3a47b34e8d23fbce5c46234eb5da261f94087b995ac0f33b9a98611d209a98601f19811610611da9575b505050811b016001850155611c80565b015160001960f88460031b161c191690558a8080611d99565b91926020600181928685015181550194019201611d50565b600185016000526020600020601f840160051c810160208510611e1a575b601f830160051c82018110611e0e575050611c22565b60008155600101611df8565b5080611df8565b015190508680611be1565b9250846000526020600020906000935b601f1984168510611e7d576001945083601f19811610611e64575b505050811b018255611bf6565b015160001960f88460031b161c19169055868080611e57565b81810151835560209485019460019093019290910190611e3c565b909150846000526020600020601f840160051c810160208510611ee1575b90849392915b601f830160051c82018110611ed2575050611bca565b60008155859450600101611ebc565b5080611eb6565b60405162461bcd60e51b815260206004820152601f60248201527f50686f6e65206e756d62657220616c72656164792072656769737465726564006044820152606490fd5b60405162461bcd60e51b815260206004820152601760248201527f5573657220616c726561647920726567697374657265640000000000000000006044820152606490fd5b34610257576000366003190112610257576020600c54604051908152f35b34610257576040366003190112610257576020906001600160a01b03611fb4611fd3565b16600052600e8252604060002060243560005282526040600020548152f35b600435906001600160a01b038216820361025757565b602435906001600160a01b038216820361025757565b60e081019081106001600160401b0382111761080457604052565b90601f801991011681019081106001600160401b0382111761080457604052565b6001600160401b03811161080457601f01601f191660200190565b81601f820112156102575780359061206d8261203b565b9261207b604051948561201a565b8284526020838301011161025757816000926020809301838601378301015290565b60005b8381106120b05750506000910152565b81810151838201526020016120a0565b6060906003190112610257576001600160a01b0390600435828116810361025757916024359081168103610257579060443590565b60075481101561212c5760076000527fa66cc928b5edb82af9bd49922954155ab7b0942694bea4ce44661d9a8736c6880190600090565b634e487b7160e01b600052603260045260246000fd5b90600182811c92168015612172575b602083101461215c57565b634e487b7160e01b600052602260045260246000fd5b91607f1691612151565b906040519182600082549261219084612142565b9081845260019485811690816000146121ff57506001146121bc575b50506121ba9250038361201a565b565b9093915060005260209081600020936000915b8183106121e75750506121ba935082010138806121ac565b855488840185015294850194879450918301916121cf565b9150506121ba94506020925060ff191682840152151560051b82010138806121ac565b9060209161223b8151809281855285808601910161209d565b601f01601f1916010190565b60015460081c6001600160a01b0316330361225e57565b606460405162461bcd60e51b815260206004820152602060248201527f4f776e61626c653a2063616c6c6572206973206e6f7420746865206f776e65726044820152fd5b156122a957565b60405162461bcd60e51b8152602060048201526013602482015272155cd95c881b9bdd081c9959da5cdd195c9959606a1b6044820152606490fd5b156122eb57565b60405162461bcd60e51b8152602060048201526013602482015272151bdad95b881b9bdd081cdd5c1c1bdc9d1959606a1b6044820152606490fd5b60001981146103ee5760010190565b919082039182116103ee57565b1561234957565b60405162461bcd60e51b815260206004820152601d60248201527f416d6f756e74206d7573742062652067726561746572207468616e20300000006044820152606490fd5b60ff6001541661239a57565b60405162461bcd60e51b815260206004820152601060248201526f14185d5cd8589b194e881c185d5cd95960821b6044820152606490fd5b6002600054146123e3576002600055565b60405162461bcd60e51b815260206004820152601f60248201527f5265656e7472616e637947756172643a207265656e7472616e742063616c6c006044820152606490fd5b60018060a01b03169060405160408101908082106001600160401b03831117610804576124b7916040526020938482527f5361666545524332303a206c6f772d6c6576656c2063616c6c206661696c6564858301526000808587829751910182855af13d15612554573d9161249c8361203b565b926124aa604051948561201a565b83523d868885013e612558565b805191821591848315612529575b5050509050156124d25750565b6084906040519062461bcd60e51b82526004820152602a60248201527f5361666545524332303a204552433230206f7065726174696f6e20646964206e6044820152691bdd081cdd58d8d9595960b21b6064820152fd5b9193818094500103126125505782015190811515820361254d5750803880846124c5565b80fd5b5080fd5b6060915b919290156125ba575081511561256c575090565b3b156125755790565b60405162461bcd60e51b815260206004820152601d60248201527f416464726573733a2063616c6c20746f206e6f6e2d636f6e74726163740000006044820152606490fd5b8251909150156125cd5750805190602001fd5b60405162461bcd60e51b8152602060048201529081906125f1906024830190612222565b0390fd5b919082018092116103ee57565b1561260957565b60405162461bcd60e51b8152602060048201526011602482015270155cd95c881b9bdd081d995c9a599a5959607a1b6044820152606490fd5b1561264957565b60405162461bcd60e51b8152602060048201526014602482015273496e73756666696369656e742062616c616e636560601b6044820152606490fd5b1561268c57565b60405162461bcd60e51b815260206004820152601a60248201527f5472616e73616374696f6e206c696d69742065786365656465640000000000006044820152606490fd5b60405163a9059cbb60e01b60208201526001600160a01b03909216602483015260448083019390935291815260808101916001600160401b03831182841017610804576121ba92604052612428565b1561272757565b60405162461bcd60e51b815260206004820152601060248201526f4167656e74206e6f742061637469766560801b6044820152606490fd5b60018060a01b0316906000828152600d60205260408120620151804204825260205261278f8260408320546125f5565b600b54101592836127a1575b50505090565b6127c69350906040918152600e60205281812062278d004204825260205220546125f5565b600c54101538808061279b565b906201518042049062278d0042049260018060a01b03169260009184835261283f602091600d8352604095868620818752845261281382888820546125f5565b90888752600d8552878720908752845286862055868552600e83528585208486528352858520546125f5565b948352600e8152838320918352522055565b6001600160a01b0316600081815260026020526040812060050154916103528310156128a7576001830180931161289357815260026020526040902060050155565b634e487b7160e01b82526011600452602482fd5b505050565b60ff60015416156128b957565b60405162461bcd60e51b815260206004820152601460248201527314185d5cd8589b194e881b9bdd081c185d5cd95960621b6044820152606490fdfea2646970667358221220d3ff1c27d1f97738dd311f1c7b0930929b47d9a9986c0d2fa0323d54974867d264736f6c63430008130033",
  "linkReferences": {},
  "deployedLinkReferences": {}
}